{
  "transactions": [
    {
      "hash": "0x02dae4e4f93af25a989c7cd31f7976184c8c9398dbec3545b73fb21b599d8f4a",
      "transactionType": "CREATE",
      "contractName": "UBIRevenueTracker",
      "contractAddress": "0x1d3edba836cab11c26a186873abf0ffeb8bbae63",
      "function": null,
      "arguments": [
        "0xf39Fd6e51aad88F6F4ce6aB8827279cffFb92266",
        "0xCf7Ed3AccA5a467e9e704C703E8D87F634fB0Fc9"
      ],
      "transaction": {
        "from": "0xf39fd6e51aad88f6f4ce6ab8827279cfffb92266",
        "gas": "0x171467",
        "value": "0x0",
        "input": "0x608034608557601f6113e238819003918201601f19168301916001600160401b038311848410176089578084926040948552833981010312608557604b6020604583609d565b9201609d565b5f80546001600160a01b039384166001600160a01b0319918216179091556001805492909316911617905560405161133190816100b18239f35b5f80fd5b634e487b7160e01b5f52604160045260245ffd5b51906001600160a01b038216820360855756fe6080806040526004361015610012575f80fd5b5f3560e01c908163098ab6a114610ef5575080636052970c14610ecd578063741c53eb14610d6757806375829def14610ce4578063783ec7f014610c235780637d4f380014610c065780638c39622014610b56578063a2ac13d314610b0a578063a418eac514610aed578063adb2bebf1461097d578063b3d3d37e146108be578063b6aeb92c146108a1578063c9a1ae6f14610770578063d190da8314610738578063d9708d4814610608578063df1ee6a5146105a2578063e2eed04f14610585578063f851a4401461055e5763feadea0d146100ed575f80fd5b3461055a57606036600319011261055a5760043567ffffffffffffffff811161055a5761011e9036906004016110ef565b60243567ffffffffffffffff811161055a5761013e9036906004016110ef565b92604435926001600160a01b038416840361055a5761016760018060a01b035f5416331461119b565b6003549361017485611240565b6003556040519561018487610ff4565b61018f36848661124e565b875261019c36828761124e565b6020880190815260018060a01b03831660408901525f60608901525f60808901525f60a08901524360c0890152600160e0890152865f52600260205260405f2090885180519067ffffffffffffffff821161047f5781906101fd8554610fbc565b601f8111610501575b50602090601f831160011461049e575f92610493575b50508160011b915f199060031b1c19161782555b5197885167ffffffffffffffff811161047f576102506001840154610fbc565b601f811161042b575b50908896959493929160209a8b90601f83116001146103895760e061036396948461032a957f3c7a23361d520d8daf009aea25b729eb1c02a2e1473ee76319a2e3174e862ba69d9e98956007955f9261037e575b50508160011b915f199060031b1c19161760018501555b6002840160018060a01b036040830151166bffffffffffffffffffffffff60a01b825416179055606081015160038501556080810151600485015560a0810151600585015560c081015160068501550151151591019060ff801983541691151516179055565b60018060a01b0384165f5260048a528760405f2055610356604051968796606088526060880191611294565b918583038b870152611294565b6001600160a01b0390911660408301520390a2604051908152f35b015190505f806102ad565b999493929190600184015f52805f209a5f5b601f1984168110610411575061032a936001847f3c7a23361d520d8daf009aea25b729eb1c02a2e1473ee76319a2e3174e862ba69d9e60079560e0956103639c9b9a98601f198116106103f9575b505050811b0160018501556102c4565b01515f1960f88460031b161c191690555f80806103e9565b828201518d556001909c019b8d9b50918e01918e0161039b565b818111156102595799600184015f5260205f20601f830160051c9060208410610477575b81019b601f0160051c035f5b81811061046a57505099610259565b5f8d82015560010161045b565b5f915061044f565b634e487b7160e01b5f52604160045260245ffd5b015190505f8061021c565b5f8681528281209350601f198516905b8181106104e957509084600195949392106104d1575b505050811b018255610230565b01515f1960f88460031b161c191690555f80806104c4565b929360206001819287860151815501950193016104ae565b8281111561020657909150845f5260205f20601f840160051c9060208510610552575b849392601f0160051c82900391015f5b828110610542575050610206565b5f81830155859450600101610534565b5f9150610524565b5f80fd5b3461055a575f36600319011261055a575f546040516001600160a01b039091168152602090f35b3461055a575f36600319011261055a576020600354604051908152f35b3461055a57604036600319011261055a57600435602435801515810361055a57610606916105da60018060a01b035f5416331461119b565b6105e760035482106111d3565b5f526002602052600760405f20019060ff801983541691151516179055565b005b3461055a575f36600319011261055a5760085460075490600954916003549261062f6112b4565b6001546040516330636c5760e11b81526001600160a01b03909116959091906020836004818a5afa9283156106f6575f93610701575b50602060049760405198898092638581ddf560e01b82525afa9384156106f6575f946106c0575b610100975060065495604051978852602088015260408701526060860152608085015260a084015260c083015260e0820152f35b93506020873d6020116106ee575b816106db6020938361102d565b8101031261055a5761010096519361068c565b3d91506106ce565b6040513d5f823e3d90fd5b9692506020873d602011610730575b8161071d6020938361102d565b8101031261055a57955191956020610665565b3d9150610710565b3461055a57602036600319011261055a576001600160a01b03610759610fa6565b165f526004602052602060405f2054604051908152f35b3461055a57608036600319011261055a5760043560243560443590606435906107a360018060a01b035f5416331461119b565b6107b060035485106111d3565b835f52600260205260405f209160ff60078401541615610868577fdf601dc9cab1949db7d829ded79c76070375083f98d23c3e5de99ff9fdab542a93836003606095016107fe858254611233565b90556004810161080f838254611233565b905560058101610820848254611233565b905560064391015561083483600854611233565b60085561084381600754611233565b60075561085282600954611233565b60095560405192835260208301526040820152a2005b60405162461bcd60e51b815260206004820152601160248201527050726f746f636f6c20696e61637469766560781b6044820152606490fd5b3461055a575f36600319011261055a576020600854604051908152f35b3461055a575f36600319011261055a576108e260018060a01b035f5416331461119b565b6006546108ee81611240565b60065560075460036008546109016112b4565b906040519361090f85611011565b428552602085019081526040850191825260608501928352855f52600560205260405f2094518555516001850155516002840155519101557fd5ac1c115b9611e0b070be9e826d0a3a424eb16689c233d158ef9d98a3b0dbbe604060075460085482519182526020820152a2005b3461055a57602036600319011261055a5760065460043580821115610ae1576109a96109b09183611212565b8092611212565b6109b98161111d565b916109c7604051938461102d565b818352601f196109d68361111d565b015f5b818110610ab25750505f5b828110610a5157836040518091602082016020835281518091526020604084019201905f5b818110610a17575050500390f35b9193509160206080600192606087518051835284810151858401526040810151604084015201516060820152019401910191849392610a09565b80610a5e60019284611233565b5f52600560205260405f20600360405191610a7883611011565b805483528481015460208401526002810154604084015201546060820152610aa08287611173565b52610aab8186611173565b50016109e4565b602090604051610ac181611011565b5f81525f838201525f60408201525f6060820152828288010152016109d9565b506109b05f8092611212565b3461055a575f36600319011261055a576020600954604051908152f35b3461055a57602036600319011261055a576004355f526005602052608060405f208054906001810154906003600282015491015491604051938452602084015260408301526060820152f35b3461055a57602036600319011261055a576004355f526002602052610bd360405f20610b818161104f565b90610b8e6001820161104f565b60018060a01b036002830154169160038101546004820154600583015491610be160ff600760068701549601541695604051998a996101008b526101008b0190610f0f565b9089820360208b0152610f0f565b9560408801526060870152608086015260a085015260c0840152151560e08301520390f35b3461055a575f36600319011261055a576020600754604051908152f35b3461055a57602036600319011261055a57600435610c3f611135565b50610c4d60035482106111d3565b5f526002602052610ce060405f2060ff600760405192610c6c84610ff4565b610c758161104f565b8452610c836001820161104f565b602085015260018060a01b0360028201541660408501526003810154606085015260048101546080850152600581015460a0850152600681015460c0850152015416151560e0820152604051918291602083526020830190610f33565b0390f35b3461055a57602036600319011261055a57610cfd610fa6565b5f5490610d14336001600160a01b0384161461119b565b6001600160a01b0316908115610d33576001600160a01b031916175f55005b60405162461bcd60e51b815260206004820152600c60248201526b7a65726f206164647265737360a01b6044820152606490fd5b3461055a575f36600319011261055a57600354610d838161111d565b90610d91604051928361102d565b808252601f19610da08261111d565b015f5b818110610eb65750505f5b818110610e1c57826040518091602082016020835281518091526040830190602060408260051b8601019301915f905b828210610ded57505050500390f35b91936001919395506020610e0c8192603f198a82030186528851610f33565b9601920192018594939192610dde565b806001915f52600260205260405f2060ff600760405192610e3c84610ff4565b610e458161104f565b8452610e5286820161104f565b6020850152858060a01b0360028201541660408501526003810154606085015260048101546080850152600581015460a0850152600681015460c0850152015416151560e0820152610ea48286611173565b52610eaf8185611173565b5001610dae565b602090610ec1611135565b82828701015201610da3565b3461055a575f36600319011261055a576001546040516001600160a01b039091168152602090f35b3461055a575f36600319011261055a576020906006548152f35b805180835260209291819084018484015e5f828201840152601f01601f1916010190565b9060e080610f61610f4f85516101008652610100860190610f0f565b60208601518582036020870152610f0f565b9360018060a01b036040820151166040850152606081015160608501526080810151608085015260a081015160a085015260c081015160c08501520151151591015290565b600435906001600160a01b038216820361055a57565b90600182811c92168015610fea575b6020831014610fd657565b634e487b7160e01b5f52602260045260245ffd5b91607f1691610fcb565b610100810190811067ffffffffffffffff82111761047f57604052565b6080810190811067ffffffffffffffff82111761047f57604052565b90601f8019910116810190811067ffffffffffffffff82111761047f57604052565b9060405191825f82549261106284610fbc565b80845293600181169081156110cd5750600114611089575b506110879250038361102d565b565b90505f9291925260205f20905f915b8183106110b1575050906020611087928201015f61107a565b6020919350806001915483858901015201910190918492611098565b90506020925061108794915060ff191682840152151560051b8201015f61107a565b9181601f8401121561055a5782359167ffffffffffffffff831161055a576020838186019501011161055a57565b67ffffffffffffffff811161047f5760051b60200190565b6040519061114282610ff4565b5f60e08360608152606060208201528260408201528260608201528260808201528260a08201528260c08201520152565b80518210156111875760209160051b010190565b634e487b7160e01b5f52603260045260245ffd5b156111a257565b60405162461bcd60e51b81526020600482015260096024820152682737ba1030b236b4b760b91b6044820152606490fd5b156111da57565b60405162461bcd60e51b815260206004820152601060248201526f125b9d985b1a59081c1c9bdd1bd8dbdb60821b6044820152606490fd5b9190820391821161121f57565b634e487b7160e01b5f52601160045260245ffd5b9190820180921161121f57565b5f19811461121f5760010190565b92919267ffffffffffffffff821161047f5760405191611278601f8201601f19166020018461102d565b82948184528183011161055a578281602093845f960137010152565b908060209392818452848401375f828201840152601f01601f1916010190565b5f905f600354905b8181106112c7575050565b805f52600260205260ff600760405f200154166112e7575b6001016112bc565b926112f3600191611240565b9390506112df56fea264697066735822122089ecae4fd8f4fbc0bd3a96f79b53a35b18c7f790cad543a3c66fdb5ff9c73fe764736f6c63430008210033000000000000000000000000f39fd6e51aad88f6f4ce6ab8827279cfffb92266000000000000000000000000cf7ed3acca5a467e9e704c703e8d87f634fb0fc9",
        "nonce": "0x17d",
        "chainId": "0xa455"
      },
      "additionalContracts": [],
      "isFixedGasLimit": false
    },
    {
      "hash": "0x8750814258c8286b440d431589aa02541339da03628e66bf81f190f87f9f6423",
      "transactionType": "CALL",
      "contractName": "UBIRevenueTracker",
      "contractAddress": "0x1d3edba836cab11c26a186873abf0ffeb8bbae63",
      "function": "registerProtocol(string,string,address)",
      "arguments": [
        "GoodSwap",
        "swap",
        "0x0000000000000000000000000000000000001001"
      ],
      "transaction": {
        "from": "0xf39fd6e51aad88f6f4ce6ab8827279cfffb92266",
        "to": "0x1d3edba836cab11c26a186873abf0ffeb8bbae63",
        "gas": "0x3d5b7",
        "value": "0x0",
        "input": "0xfeadea0d000000000000000000000000000000000000000000000000000000000000006000000000000000000000000000000000000000000000000000000000000000a000000000000000000000000000000000000000000000000000000000000010010000000000000000000000000000000000000000000000000000000000000008476f6f645377617000000000000000000000000000000000000000000000000000000000000000000000000000000000000000000000000000000000000000047377617000000000000000000000000000000000000000000000000000000000",
        "nonce": "0x17e",
        "chainId": "0xa455"
      },
      "additionalContracts": [],
      "isFixedGasLimit": false
    },
    {
      "hash": "0x3e3737eb6c9a42a5ba69b4097f8c6cab1aa9506f649ed7f9b68f3c0ac24365d4",
      "transactionType": "CALL",
      "contractName": "UBIRevenueTracker",
      "contractAddress": "0x1d3edba836cab11c26a186873abf0ffeb8bbae63",
      "function": "registerProtocol(string,string,address)",
      "arguments": [
        "GoodPerps",
        "perps",
        "0x0000000000000000000000000000000000001002"
      ],
      "transaction": {
        "from": "0xf39fd6e51aad88f6f4ce6ab8827279cfffb92266",
        "to": "0x1d3edba836cab11c26a186873abf0ffeb8bbae63",
        "gas": "0x3e5da",
        "value": "0x0",
        "input": "0xfeadea0d000000000000000000000000000000000000000000000000000000000000006000000000000000000000000000000000000000000000000000000000000000a000000000000000000000000000000000000000000000000000000000000010020000000000000000000000000000000000000000000000000000000000000009476f6f645065727073000000000000000000000000000000000000000000000000000000000000000000000000000000000000000000000000000000000000057065727073000000000000000000000000000000000000000000000000000000",
        "nonce": "0x17f",
        "chainId": "0xa455"
      },
      "additionalContracts": [],
      "isFixedGasLimit": false
    },
    {
      "hash": "0x3e99f00b6b6efd432864e0470d0a02ca05863c4bf77789b83f9c50e475b7ace1",
      "transactionType": "CALL",
      "contractName": "UBIRevenueTracker",
      "contractAddress": "0x1d3edba836cab11c26a186873abf0ffeb8bbae63",
      "function": "registerProtocol(string,string,address)",
      "arguments": [
        "GoodPredict",
        "predict",
        "0x0000000000000000000000000000000000001003"
      ],
      "transaction": {
        "from": "0xf39fd6e51aad88f6f4ce6ab8827279cfffb92266",
        "to": "0x1d3edba836cab11c26a186873abf0ffeb8bbae63",
        "gas": "0x3e620",
        "value": "0x0",
        "input": "0xfeadea0d000000000000000000000000000000000000000000000000000000000000006000000000000000000000000000000000000000000000000000000000000000a00000000000000000000000000000000000000000000000000000000000001003000000000000000000000000000000000000000000000000000000000000000b476f6f645072656469637400000000000000000000000000000000000000000000000000000000000000000000000000000000000000000000000000000000077072656469637400000000000000000000000000000000000000000000000000",
        "nonce": "0x180",
        "chainId": "0xa455"
      },
      "additionalContracts": [],
      "isFixedGasLimit": false
    },
    {
      "hash": "0xa5e9483149e8166efdeca96e4e39504585b56b1554650a880c9d0751591d4a24",
      "transactionType": "CALL",
      "contractName": "UBIRevenueTracker",
      "contractAddress": "0x1d3edba836cab11c26a186873abf0ffeb8bbae63",
      "function": "registerProtocol(string,string,address)",
      "arguments": [
        "GoodLend",
        "lend",
        "0x0000000000000000000000000000000000001004"
      ],
      "transaction": {
        "from": "0xf39fd6e51aad88f6f4ce6ab8827279cfffb92266",
        "to": "0x1d3edba836cab11c26a186873abf0ffeb8bbae63",
        "gas": "0x3e5b6",
        "value": "0x0",
        "input": "0xfeadea0d000000000000000000000000000000000000000000000000000000000000006000000000000000000000000000000000000000000000000000000000000000a000000000000000000000000000000000000000000000000000000000000010040000000000000000000000000000000000000000000000000000000000000008476f6f644c656e6400000000000000000000000000000000000000000000000000000000000000000000000000000000000000000000000000000000000000046c656e6400000000000000000000000000000000000000000000000000000000",
        "nonce": "0x181",
        "chainId": "0xa455"
      },
      "additionalContracts": [],
      "isFixedGasLimit": false
    },
    {
      "hash": "0x883e62cde88f3b02474f025996b3ced8540f62723b332480105d466e0289b67b",
      "transactionType": "CALL",
      "contractName": "UBIRevenueTracker",
      "contractAddress": "0x1d3edba836cab11c26a186873abf0ffeb8bbae63",
      "function": "registerProtocol(string,string,address)",
      "arguments": [
        "GoodStable",
        "stable",
        "0x0000000000000000000000000000000000001005"
      ],
      "transaction": {
        "from": "0xf39fd6e51aad88f6f4ce6ab8827279cfffb92266",
        "to": "0x1d3edba836cab11c26a186873abf0ffeb8bbae63",
        "gas": "0x3e5fd",
        "value": "0x0",
        "input": "0xfeadea0d000000000000000000000000000000000000000000000000000000000000006000000000000000000000000000000000000000000000000000000000000000a00000000000000000000000000000000000000000000000000000000000001005000000000000000000000000000000000000000000000000000000000000000a476f6f64537461626c65000000000000000000000000000000000000000000000000000000000000000000000000000000000000000000000000000000000006737461626c650000000000000000000000000000000000000000000000000000",
        "nonce": "0x182",
        "chainId": "0xa455"
      },
      "additionalContracts": [],
      "isFixedGasLimit": false
    },
    {
      "hash": "0xfcd8f20951ab1aa8dc40d8f043fd0cccf53f1d43822959ac8844706a62ce61aa",
      "transactionType": "CALL",
      "contractName": "UBIRevenueTracker",
      "contractAddress": "0x1d3edba836cab11c26a186873abf0ffeb8bbae63",
      "function": "registerProtocol(string,string,address)",
      "arguments": [
        "GoodStocks",
        "stocks",
        "0x0000000000000000000000000000000000001006"
      ],
      "transaction": {
        "from": "0xf39fd6e51aad88f6f4ce6ab8827279cfffb92266",
        "to": "0x1d3edba836cab11c26a186873abf0ffeb8bbae63",
        "gas": "0x3e5fd",
        "value": "0x0",
        "input": "0xfeadea0d000000000000000000000000000000000000000000000000000000000000006000000000000000000000000000000000000000000000000000000000000000a00000000000000000000000000000000000000000000000000000000000001006000000000000000000000000000000000000000000000000000000000000000a476f6f6453746f636b7300000000000000000000000000000000000000000000000000000000000000000000000000000000000000000000000000000000000673746f636b730000000000000000000000000000000000000000000000000000",
        "nonce": "0x183",
        "chainId": "0xa455"
      },
      "additionalContracts": [],
      "isFixedGasLimit": false
    },
    {
      "hash": "0x3e6f2a92e59f8378c18fbacbe528ff0ba86d7096ee550deb0bd9ac3d95cf1227",
      "transactionType": "CALL",
      "contractName": "UBIRevenueTracker",
      "contractAddress": "0x1d3edba836cab11c26a186873abf0ffeb8bbae63",
      "function": "registerProtocol(string,string,address)",
      "arguments": [
        "GoodBridge",
        "bridge",
        "0x0000000000000000000000000000000000001007"
      ],
      "transaction": {
        "from": "0xf39fd6e51aad88f6f4ce6ab8827279cfffb92266",
        "to": "0x1d3edba836cab11c26a186873abf0ffeb8bbae63",
        "gas": "0x3e5fd",
        "value": "0x0",
        "input": "0xfeadea0d000000000000000000000000000000000000000000000000000000000000006000000000000000000000000000000000000000000000000000000000000000a00000000000000000000000000000000000000000000000000000000000001007000000000000000000000000000000000000000000000000000000000000000a476f6f644272696467650000000000000000000000000000000000000000000000000000000000000000000000000000000000000000000000000000000000066272696467650000000000000000000000000000000000000000000000000000",
        "nonce": "0x184",
        "chainId": "0xa455"
      },
      "additionalContracts": [],
      "isFixedGasLimit": false
    },
    {
      "hash": "0x0e632eb73f0f00bbc5055bc65306d8b55ce6b4fade9f0121cbc241429cec0fc8",
      "transactionType": "CALL",
      "contractName": "UBIRevenueTracker",
      "contractAddress": "0x1d3edba836cab11c26a186873abf0ffeb8bbae63",
      "function": "reportFees(uint256,uint256,uint256,uint256)",
      "arguments": [
        "0",
        "4500000000000000000000",
        "1500000000000000000000",
        "150"
      ],
      "transaction": {
        "from": "0xf39fd6e51aad88f6f4ce6ab8827279cfffb92266",
        "to": "0x1d3edba836cab11c26a186873abf0ffeb8bbae63",
        "gas": "0x37f0c",
        "value": "0x0",
        "input": "0xc9a1ae6f00000000000000000000000000000000000000000000000000000000000000000000000000000000000000000000000000000000000000f3f20b8dfa69d0000000000000000000000000000000000000000000000000005150ae84a8cdf000000000000000000000000000000000000000000000000000000000000000000096",
        "nonce": "0x185",
        "chainId": "0xa455"
      },
      "additionalContracts": [],
      "isFixedGasLimit": false
    },
    {
      "hash": "0x68b28118a8fa1bd23b36f0269347b0c86124f1fabdd69f9d140a33260d60d3bc",
      "transactionType": "CALL",
      "contractName": "UBIRevenueTracker",
      "contractAddress": "0x1d3edba836cab11c26a186873abf0ffeb8bbae63",
      "function": "reportFees(uint256,uint256,uint256,uint256)",
      "arguments": [
        "1",
        "3200000000000000000000",
        "1066000000000000000000",
        "80"
      ],
      "transaction": {
        "from": "0xf39fd6e51aad88f6f4ce6ab8827279cfffb92266",
        "to": "0x1d3edba836cab11c26a186873abf0ffeb8bbae63",
        "gas": "0x26a41",
        "value": "0x0",
        "input": "0xc9a1ae6f00000000000000000000000000000000000000000000000000000000000000010000000000000000000000000000000000000000000000ad78ebc5ac62000000000000000000000000000000000000000000000000000039c9b8c817066800000000000000000000000000000000000000000000000000000000000000000050",
        "nonce": "0x186",
        "chainId": "0xa455"
      },
      "additionalContracts": [],
      "isFixedGasLimit": false
    },
    {
      "hash": "0xb89e38595304e55b77121dad2fcb9be0af3dfb431dee9750240c2641363df2a8",
      "transactionType": "CALL",
      "contractName": "UBIRevenueTracker",
      "contractAddress": "0x1d3edba836cab11c26a186873abf0ffeb8bbae63",
      "function": "reportFees(uint256,uint256,uint256,uint256)",
      "arguments": [
        "2",
        "1800000000000000000000",
        "600000000000000000000",
        "60"
      ],
      "transaction": {
        "from": "0xf39fd6e51aad88f6f4ce6ab8827279cfffb92266",
        "to": "0x1d3edba836cab11c26a186873abf0ffeb8bbae63",
        "gas": "0x26a52",
        "value": "0x0",
        "input": "0xc9a1ae6f000000000000000000000000000000000000000000000000000000000000000200000000000000000000000000000000000000000000006194049f30f720000000000000000000000000000000000000000000000000002086ac351052600000000000000000000000000000000000000000000000000000000000000000003c",
        "nonce": "0x187",
        "chainId": "0xa455"
      },
      "additionalContracts": [],
      "isFixedGasLimit": false
    },
    {
      "hash": "0x4a07db34066cfd173b78410dd3f0f6f4146ce4c1cc0237f0015abd29030e3225",
      "transactionType": "CALL",
      "contractName": "UBIRevenueTracker",
      "contractAddress": "0x1d3edba836cab11c26a186873abf0ffeb8bbae63",
      "function": "reportFees(uint256,uint256,uint256,uint256)",
      "arguments": [
        "3",
        "1200000000000000000000",
        "400000000000000000000",
        "40"
      ],
      "transaction": {
        "from": "0xf39fd6e51aad88f6f4ce6ab8827279cfffb92266",
        "to": "0x1d3edba836cab11c26a186873abf0ffeb8bbae63",
        "gas": "0x26a52",
        "value": "0x0",
        "input": "0xc9a1ae6f00000000000000000000000000000000000000000000000000000000000000030000000000000000000000000000000000000000000000410d586a20a4c00000000000000000000000000000000000000000000000000015af1d78b58c4000000000000000000000000000000000000000000000000000000000000000000028",
        "nonce": "0x188",
        "chainId": "0xa455"
      },
      "additionalContracts": [],
      "isFixedGasLimit": false
    },
    {
      "hash": "0xe76213922c2fc54e73a083c30972313e98f884401f85de345829a39abcc87d2b",
      "transactionType": "CALL",
      "contractName": "UBIRevenueTracker",
      "contractAddress": "0x1d3edba836cab11c26a186873abf0ffeb8bbae63",
      "function": "reportFees(uint256,uint256,uint256,uint256)",
      "arguments": [
        "4",
        "750000000000000000000",
        "250000000000000000000",
        "25"
      ],
      "transaction": {
        "from": "0xf39fd6e51aad88f6f4ce6ab8827279cfffb92266",
        "to": "0x1d3edba836cab11c26a186873abf0ffeb8bbae63",
        "gas": "0x26a52",
        "value": "0x0",
        "input": "0xc9a1ae6f0000000000000000000000000000000000000000000000000000000000000004000000000000000000000000000000000000000000000028a857425466f8000000000000000000000000000000000000000000000000000d8d726b7177a800000000000000000000000000000000000000000000000000000000000000000019",
        "nonce": "0x189",
        "chainId": "0xa455"
      },
      "additionalContracts": [],
      "isFixedGasLimit": false
    },
    {
      "hash": "0x556bbb58cdffd87815d53bd560b94dc346ebc98e68ffb494a05a45556385733a",
      "transactionType": "CALL",
      "contractName": "UBIRevenueTracker",
      "contractAddress": "0x1d3edba836cab11c26a186873abf0ffeb8bbae63",
      "function": "reportFees(uint256,uint256,uint256,uint256)",
      "arguments": [
        "5",
        "1050000000000000000000",
        "350000000000000000000",
        "35"
      ],
      "transaction": {
        "from": "0xf39fd6e51aad88f6f4ce6ab8827279cfffb92266",
        "to": "0x1d3edba836cab11c26a186873abf0ffeb8bbae63",
        "gas": "0x26a52",
        "value": "0x0",
        "input": "0xc9a1ae6f0000000000000000000000000000000000000000000000000000000000000005000000000000000000000000000000000000000000000038ebad5cdc90280000000000000000000000000000000000000000000000000012f939c99edab800000000000000000000000000000000000000000000000000000000000000000023",
        "nonce": "0x18a",
        "chainId": "0xa455"
      },
      "additionalContracts": [],
      "isFixedGasLimit": false
    },
    {
      "hash": "0x3a52e35ac98d2f77eaad13344ca2d9437c8845af52bd5bb8cf914a1e1f7c030c",
      "transactionType": "CALL",
      "contractName": "UBIRevenueTracker",
      "contractAddress": "0x1d3edba836cab11c26a186873abf0ffeb8bbae63",
      "function": "reportFees(uint256,uint256,uint256,uint256)",
      "arguments": [
        "6",
        "600000000000000000000",
        "200000000000000000000",
        "20"
      ],
      "transaction": {
        "from": "0xf39fd6e51aad88f6f4ce6ab8827279cfffb92266",
        "to": "0x1d3edba836cab11c26a186873abf0ffeb8bbae63",
        "gas": "0x26a52",
        "value": "0x0",
        "input": "0xc9a1ae6f000000000000000000000000000000000000000000000000000000000000000600000000000000000000000000000000000000000000002086ac35105260000000000000000000000000000000000000000000000000000ad78ebc5ac62000000000000000000000000000000000000000000000000000000000000000000014",
        "nonce": "0x18b",
        "chainId": "0xa455"
      },
      "additionalContracts": [],
      "isFixedGasLimit": false
    },
    {
      "hash": "0xd69b66a981a44f0e6c8fbfe955b8226b644c6f0e9b916f9bf388e8dc35f2f50b",
      "transactionType": "CALL",
      "contractName": "UBIRevenueTracker",
      "contractAddress": "0x1d3edba836cab11c26a186873abf0ffeb8bbae63",
      "function": "takeSnapshot()",
      "arguments": [],
      "transaction": {
        "from": "0xf39fd6e51aad88f6f4ce6ab8827279cfffb92266",
        "to": "0x1d3edba836cab11c26a186873abf0ffeb8bbae63",
        "gas": "0x38bb7",
        "value": "0x0",
        "input": "0xb3d3d37e",
        "nonce": "0x18c",
        "chainId": "0xa455"
      },
      "additionalContracts": [],
      "isFixedGasLimit": false
    }
  ],
  "receipts": [
    {
      "status": "0x1",
      "cumulativeGasUsed": "0x11c0ed",
      "logs": [],
      "logsBloom": "0x00000000000000000000000000000000000000000000000000000000000000000000000000000000000000000000000000000000000000000000000000000000000000000000000000000000000000000000000000000000000000000000000000000000000000000000000000000000000000000000000000000000000000000000000000000000000000000000000000000000000000000000000000000000000000000000000000000000000000000000000000000000000000000000000000000000000000000000000000000000000000000000000000000000000000000000000000000000000000000000000000000000000000000000000000000000",
      "type": "0x2",
      "transactionHash": "0x02dae4e4f93af25a989c7cd31f7976184c8c9398dbec3545b73fb21b599d8f4a",
      "transactionIndex": "0x0",
      "blockHash": "0xe8890971bed4eed430603034d320d91cf274bf293e7f3daf6195fa23ab6c772c",
      "blockNumber": "0x8b87",
      "gasUsed": "0x11c0ed",
      "effectiveGasPrice": "0x8",
      "blobGasPrice": "0x1",
      "from": "0xf39fd6e51aad88f6f4ce6ab8827279cfffb92266",
      "to": null,
      "contractAddress": "0x1d3edba836cab11c26a186873abf0ffeb8bbae63",
      "blockTimestamp": 1775273239
    },
    {
      "status": "0x1",
      "cumulativeGasUsed": "0x146030",
      "logs": [
        {
          "address": "0x1d3edba836cab11c26a186873abf0ffeb8bbae63",
          "topics": [
            "0x3c7a23361d520d8daf009aea25b729eb1c02a2e1473ee76319a2e3174e862ba6",
            "0x0000000000000000000000000000000000000000000000000000000000000000"
          ],
          "data": "0x000000000000000000000000000000000000000000000000000000000000006000000000000000000000000000000000000000000000000000000000000000a000000000000000000000000000000000000000000000000000000000000010010000000000000000000000000000000000000000000000000000000000000008476f6f645377617000000000000000000000000000000000000000000000000000000000000000000000000000000000000000000000000000000000000000047377617000000000000000000000000000000000000000000000000000000000",
          "blockHash": "0xe8890971bed4eed430603034d320d91cf274bf293e7f3daf6195fa23ab6c772c",
          "blockNumber": "0x8b87",
          "blockTimestamp": "0x69d08517",
          "transactionHash": "0x8750814258c8286b440d431589aa02541339da03628e66bf81f190f87f9f6423",
          "transactionIndex": "0x1",
          "logIndex": "0x0",
          "removed": false
        }
      ],
      "logsBloom": "0x00000000000000000000000000000000000000000000000000000000000000000000000000000000000000000000000000000000000000000000000000000000000000000000000000000000000000000000000000000000000000800008000000000000020000000000000000000800000000000000000000000020000000000000000000000000000000000000000000000000000000000000000000000000000000000000000000000000002000000000000000000000000080000000000000000000000020000000000000000000000000000000000000000000000020000000000000000000000000000000000000000000000000000000000000000000",
      "type": "0x2",
      "transactionHash": "0x8750814258c8286b440d431589aa02541339da03628e66bf81f190f87f9f6423",
      "transactionIndex": "0x1",
      "blockHash": "0xe8890971bed4eed430603034d320d91cf274bf293e7f3daf6195fa23ab6c772c",
      "blockNumber": "0x8b87",
      "gasUsed": "0x29f43",
      "effectiveGasPrice": "0x8",
      "blobGasPrice": "0x1",
      "from": "0xf39fd6e51aad88f6f4ce6ab8827279cfffb92266",
      "to": "0x1d3edba836cab11c26a186873abf0ffeb8bbae63",
      "contractAddress": null,
      "blockTimestamp": 1775273239
    },
    {
      "status": "0x1",
      "cumulativeGasUsed": "0x170a7b",
      "logs": [
        {
          "address": "0x1d3edba836cab11c26a186873abf0ffeb8bbae63",
          "topics": [
            "0x3c7a23361d520d8daf009aea25b729eb1c02a2e1473ee76319a2e3174e862ba6",
            "0x0000000000000000000000000000000000000000000000000000000000000001"
          ],
          "data": "0x000000000000000000000000000000000000000000000000000000000000006000000000000000000000000000000000000000000000000000000000000000a000000000000000000000000000000000000000000000000000000000000010020000000000000000000000000000000000000000000000000000000000000009476f6f645065727073000000000000000000000000000000000000000000000000000000000000000000000000000000000000000000000000000000000000057065727073000000000000000000000000000000000000000000000000000000",
          "blockHash": "0xe8890971bed4eed430603034d320d91cf274bf293e7f3daf6195fa23ab6c772c",
          "blockNumber": "0x8b87",
          "blockTimestamp": "0x69d08517",
          "transactionHash": "0xd69b66a981a44f0e6c8fbfe955b8226b644c6f0e9b916f9bf388e8dc35f2f50b",
          "transactionIndex": "0x2",
          "logIndex": "0x1",
          "removed": false
        }
      ],
      "logsBloom": "0x00000000000000000000000000000000000000000000000000000000000000000000000000000000000000000000000000000000000000000000000000040000000000000000000000000000000000000000000000040000000000800008000000000000000000000000000000000000000000000000000000000020000000000000000000000000000000000000000000000000000000000000000000000000000000000000000000000000002000000000000000000000000080000000000000000000000020000000000000000000000000000000000000000000000040000000000000000000000000000000000000000000000000000000000000000000",
      "type": "0x2",
      "transactionHash": "0xd69b66a981a44f0e6c8fbfe955b8226b644c6f0e9b916f9bf388e8dc35f2f50b",
      "transactionIndex": "0x2",
      "blockHash": "0xe8890971bed4eed430603034d320d91cf274bf293e7f3daf6195fa23ab6c772c",
      "blockNumber": "0x8b87",
      "gasUsed": "0x2aa4b",
      "effectiveGasPrice": "0x8",
      "blobGasPrice": "0x1",
      "from": "0xf39fd6e51aad88f6f4ce6ab8827279cfffb92266",
      "to": "0x1d3edba836cab11c26a186873abf0ffeb8bbae63",
      "contractAddress": null,
      "blockTimestamp": 1775273239
    },
    {
      "status": "0x1",
      "cumulativeGasUsed": "0x19b4f6",
      "logs": [
        {
          "address": "0x1d3edba836cab11c26a186873abf0ffeb8bbae63",
          "topics": [
            "0x3c7a23361d520d8daf009aea25b729eb1c02a2e1473ee76319a2e3174e862ba6",
            "0x0000000000000000000000000000000000000000000000000000000000000002"
          ],
          "data": "0x000000000000000000000000000000000000000000000000000000000000006000000000000000000000000000000000000000000000000000000000000000a00000000000000000000000000000000000000000000000000000000000001003000000000000000000000000000000000000000000000000000000000000000b476f6f645072656469637400000000000000000000000000000000000000000000000000000000000000000000000000000000000000000000000000000000077072656469637400000000000000000000000000000000000000000000000000",
          "blockHash": "0xe8890971bed4eed430603034d320d91cf274bf293e7f3daf6195fa23ab6c772c",
          "blockNumber": "0x8b87",
          "blockTimestamp": "0x69d08517",
          "transactionHash": "0xb89e38595304e55b77121dad2fcb9be0af3dfb431dee9750240c2641363df2a8",
          "transactionIndex": "0x3",
          "logIndex": "0x2",
          "removed": false
        }
      ],
      "logsBloom": "0x04000000000000000000000000000000000000000000000000000000000000000000000000000000000000000000000000000000000000000000000000000000000000000000000000000000000000000000000000000000000000800008000000000000000000000000000000000000000000000000000000000020000000000000000000000000000000000000000000000000000000000000000000000000000000000000000000000100002000000000000000000000000080000000000000000000000020000000000000000000000000000000000000000000000000000000000000000000000000000000000000000000008000000000000000000000",
      "type": "0x2",
      "transactionHash": "0xb89e38595304e55b77121dad2fcb9be0af3dfb431dee9750240c2641363df2a8",
      "transactionIndex": "0x3",
      "blockHash": "0xe8890971bed4eed430603034d320d91cf274bf293e7f3daf6195fa23ab6c772c",
      "blockNumber": "0x8b87",
      "gasUsed": "0x2aa7b",
      "effectiveGasPrice": "0x8",
      "blobGasPrice": "0x1",
      "from": "0xf39fd6e51aad88f6f4ce6ab8827279cfffb92266",
      "to": "0x1d3edba836cab11c26a186873abf0ffeb8bbae63",
      "contractAddress": null,
      "blockTimestamp": 1775273239
    },
    {
      "status": "0x1",
      "cumulativeGasUsed": "0x1c5f29",
      "logs": [
        {
          "address": "0x1d3edba836cab11c26a186873abf0ffeb8bbae63",
          "topics": [
            "0x3c7a23361d520d8daf009aea25b729eb1c02a2e1473ee76319a2e3174e862ba6",
            "0x0000000000000000000000000000000000000000000000000000000000000003"
          ],
          "data": "0x000000000000000000000000000000000000000000000000000000000000006000000000000000000000000000000000000000000000000000000000000000a000000000000000000000000000000000000000000000000000000000000010040000000000000000000000000000000000000000000000000000000000000008476f6f644c656e6400000000000000000000000000000000000000000000000000000000000000000000000000000000000000000000000000000000000000046c656e6400000000000000000000000000000000000000000000000000000000",
          "blockHash": "0xe8890971bed4eed430603034d320d91cf274bf293e7f3daf6195fa23ab6c772c",
          "blockNumber": "0x8b87",
          "blockTimestamp": "0x69d08517",
          "transactionHash": "0x3a52e35ac98d2f77eaad13344ca2d9437c8845af52bd5bb8cf914a1e1f7c030c",
          "transactionIndex": "0x4",
          "logIndex": "0x3",
          "removed": false
        }
      ],
      "logsBloom": "0x00000000000000000000000000000000000000000000000000000000000000000000000000000000000000000000000000000000020000000000000000000000000000000000000000000000000000000000000000000000000000800008000000000000000000000000000000000000000000000000000000000020000000000000000000000000000000000000000000000000000000000000000000000000000000000000000000000000002000000000000000800000000080000000400000000000000020000000000000000000000000000000000000000000000000000000000000000000000000000000000000000000000000000000000000000000",
      "type": "0x2",
      "transactionHash": "0x3a52e35ac98d2f77eaad13344ca2d9437c8845af52bd5bb8cf914a1e1f7c030c",
      "transactionIndex": "0x4",
      "blockHash": "0xe8890971bed4eed430603034d320d91cf274bf293e7f3daf6195fa23ab6c772c",
      "blockNumber": "0x8b87",
      "gasUsed": "0x2aa33",
      "effectiveGasPrice": "0x8",
      "blobGasPrice": "0x1",
      "from": "0xf39fd6e51aad88f6f4ce6ab8827279cfffb92266",
      "to": "0x1d3edba836cab11c26a186873abf0ffeb8bbae63",
      "contractAddress": null,
      "blockTimestamp": 1775273239
    },
    {
      "status": "0x1",
      "cumulativeGasUsed": "0x1f098c",
      "logs": [
        {
          "address": "0x1d3edba836cab11c26a186873abf0ffeb8bbae63",
          "topics": [
            "0x3c7a23361d520d8daf009aea25b729eb1c02a2e1473ee76319a2e3174e862ba6",
            "0x0000000000000000000000000000000000000000000000000000000000000004"
          ],
          "data": "0x000000000000000000000000000000000000000000000000000000000000006000000000000000000000000000000000000000000000000000000000000000a00000000000000000000000000000000000000000000000000000000000001005000000000000000000000000000000000000000000000000000000000000000a476f6f64537461626c65000000000000000000000000000000000000000000000000000000000000000000000000000000000000000000000000000000000006737461626c650000000000000000000000000000000000000000000000000000",
          "blockHash": "0xe8890971bed4eed430603034d320d91cf274bf293e7f3daf6195fa23ab6c772c",
          "blockNumber": "0x8b87",
          "blockTimestamp": "0x69d08517",
          "transactionHash": "0x4a07db34066cfd173b78410dd3f0f6f4146ce4c1cc0237f0015abd29030e3225",
          "transactionIndex": "0x5",
          "logIndex": "0x4",
          "removed": false
        }
      ],
      "logsBloom": "0x00000000000000000000000000000000000000000000000000000000000000000000000000000000000000000000000000000000000000000000000000000000000000000000000000000000000000000000000000000000000000800008000008000000000000000000000000000000000000000000000000000020000000000000000000000000000000000000000000000000000000000000000000000000000000000000000000000000002000000000000000000000002080000000000000000000000020000000000000000000000000008000000000000000000000000000000000000000000000000000000000000000000000000000000000000000",
      "type": "0x2",
      "transactionHash": "0x4a07db34066cfd173b78410dd3f0f6f4146ce4c1cc0237f0015abd29030e3225",
      "transactionIndex": "0x5",
      "blockHash": "0xe8890971bed4eed430603034d320d91cf274bf293e7f3daf6195fa23ab6c772c",
      "blockNumber": "0x8b87",
      "gasUsed": "0x2aa63",
      "effectiveGasPrice": "0x8",
      "blobGasPrice": "0x1",
      "from": "0xf39fd6e51aad88f6f4ce6ab8827279cfffb92266",
      "to": "0x1d3edba836cab11c26a186873abf0ffeb8bbae63",
      "contractAddress": null,
      "blockTimestamp": 1775273239
    },
    {
      "status": "0x1",
      "cumulativeGasUsed": "0x21b3ef",
      "logs": [
        {
          "address": "0x1d3edba836cab11c26a186873abf0ffeb8bbae63",
          "topics": [
            "0x3c7a23361d520d8daf009aea25b729eb1c02a2e1473ee76319a2e3174e862ba6",
            "0x0000000000000000000000000000000000000000000000000000000000000005"
          ],
          "data": "0x000000000000000000000000000000000000000000000000000000000000006000000000000000000000000000000000000000000000000000000000000000a00000000000000000000000000000000000000000000000000000000000001006000000000000000000000000000000000000000000000000000000000000000a476f6f6453746f636b7300000000000000000000000000000000000000000000000000000000000000000000000000000000000000000000000000000000000673746f636b730000000000000000000000000000000000000000000000000000",
          "blockHash": "0xe8890971bed4eed430603034d320d91cf274bf293e7f3daf6195fa23ab6c772c",
          "blockNumber": "0x8b87",
          "blockTimestamp": "0x69d08517",
          "transactionHash": "0xe76213922c2fc54e73a083c30972313e98f884401f85de345829a39abcc87d2b",
          "transactionIndex": "0x6",
          "logIndex": "0x5",
          "removed": false
        }
      ],
      "logsBloom": "0x00000000000000000000000000000000000000000000000000000000000000000000000000000000000000000000000000000000000000000000000000000000000010000000000000000000000000000000000000000000000000800008000000000000000000000000000000000000000000000000000000000020000000000000000000000000000000000000001000000800000000000000000000000000000000000000000000000000002000000000000000000000000080000000000000000000000020000000000000000000000000000000000000000000000000000000000000000000000000000000000000000000000000000000000000000000",
      "type": "0x2",
      "transactionHash": "0xe76213922c2fc54e73a083c30972313e98f884401f85de345829a39abcc87d2b",
      "transactionIndex": "0x6",
      "blockHash": "0xe8890971bed4eed430603034d320d91cf274bf293e7f3daf6195fa23ab6c772c",
      "blockNumber": "0x8b87",
      "gasUsed": "0x2aa63",
      "effectiveGasPrice": "0x8",
      "blobGasPrice": "0x1",
      "from": "0xf39fd6e51aad88f6f4ce6ab8827279cfffb92266",
      "to": "0x1d3edba836cab11c26a186873abf0ffeb8bbae63",
      "contractAddress": null,
      "blockTimestamp": 1775273239
    },
    {
      "status": "0x1",
      "cumulativeGasUsed": "0x245e52",
      "logs": [
        {
          "address": "0x1d3edba836cab11c26a186873abf0ffeb8bbae63",
          "topics": [
            "0x3c7a23361d520d8daf009aea25b729eb1c02a2e1473ee76319a2e3174e862ba6",
            "0x0000000000000000000000000000000000000000000000000000000000000006"
          ],
          "data": "0x000000000000000000000000000000000000000000000000000000000000006000000000000000000000000000000000000000000000000000000000000000a00000000000000000000000000000000000000000000000000000000000001007000000000000000000000000000000000000000000000000000000000000000a476f6f644272696467650000000000000000000000000000000000000000000000000000000000000000000000000000000000000000000000000000000000066272696467650000000000000000000000000000000000000000000000000000",
          "blockHash": "0xe8890971bed4eed430603034d320d91cf274bf293e7f3daf6195fa23ab6c772c",
          "blockNumber": "0x8b87",
          "blockTimestamp": "0x69d08517",
          "transactionHash": "0x68b28118a8fa1bd23b36f0269347b0c86124f1fabdd69f9d140a33260d60d3bc",
          "transactionIndex": "0x7",
          "logIndex": "0x6",
          "removed": false
        }
      ],
      "logsBloom": "0x00000000000000000000000000000000000000000000000000000000000000000000000000000000000000000000000000000000000400000000000000000000000000000000000000000000000000000000000000000000000000800008000000000000000000000000000000000000000000000000000000000020000000000000000400000000000000000000000000000000000000000000000000000000000000000000000000000000002000000000000000000000000080080000000000000000000020000000000000000000000000000000000000000000000000000000000000000000000000000000000000000000000000000000000000000000",
      "type": "0x2",
      "transactionHash": "0x68b28118a8fa1bd23b36f0269347b0c86124f1fabdd69f9d140a33260d60d3bc",
      "transactionIndex": "0x7",
      "blockHash": "0xe8890971bed4eed430603034d320d91cf274bf293e7f3daf6195fa23ab6c772c",
      "blockNumber": "0x8b87",
      "gasUsed": "0x2aa63",
      "effectiveGasPrice": "0x8",
      "blobGasPrice": "0x1",
      "from": "0xf39fd6e51aad88f6f4ce6ab8827279cfffb92266",
      "to": "0x1d3edba836cab11c26a186873abf0ffeb8bbae63",
      "contractAddress": null,
      "blockTimestamp": 1775273239
    },
    {
      "status": "0x1",
      "cumulativeGasUsed": "0x26e652",
      "logs": [
        {
          "address": "0x1d3edba836cab11c26a186873abf0ffeb8bbae63",
          "topics": [
            "0xdf601dc9cab1949db7d829ded79c76070375083f98d23c3e5de99ff9fdab542a",
            "0x0000000000000000000000000000000000000000000000000000000000000000"
          ],
          "data": "0x0000000000000000000000000000000000000000000000f3f20b8dfa69d0000000000000000000000000000000000000000000000000005150ae84a8cdf000000000000000000000000000000000000000000000000000000000000000000096",
          "blockHash": "0xe8890971bed4eed430603034d320d91cf274bf293e7f3daf6195fa23ab6c772c",
          "blockNumber": "0x8b87",
          "blockTimestamp": "0x69d08517",
          "transactionHash": "0x3e99f00b6b6efd432864e0470d0a02ca05863c4bf77789b83f9c50e475b7ace1",
          "transactionIndex": "0x8",
          "logIndex": "0x7",
          "removed": false
        }
      ],
      "logsBloom": "0x00000000000000000000000000000000000000000002000000000000000000000000000000000000000000000000000000000000000000000000000000000000000000000000000000000000000000000000000000008000000000800000000020000000020000000000000000000800000000000000000000000020000000000000000000000000000000000000000000000000000000000000000000000000000000000000000000000000000000000000000000000000000000000000000000000000000020000000000000000000000000000000000000000000000020000000000000000000000000000000000000000000000000000000000000000000",
      "type": "0x2",
      "transactionHash": "0x3e99f00b6b6efd432864e0470d0a02ca05863c4bf77789b83f9c50e475b7ace1",
      "transactionIndex": "0x8",
      "blockHash": "0xe8890971bed4eed430603034d320d91cf274bf293e7f3daf6195fa23ab6c772c",
      "blockNumber": "0x8b87",
      "gasUsed": "0x28800",
      "effectiveGasPrice": "0x8",
      "blobGasPrice": "0x1",
      "from": "0xf39fd6e51aad88f6f4ce6ab8827279cfffb92266",
      "to": "0x1d3edba836cab11c26a186873abf0ffeb8bbae63",
      "contractAddress": null,
      "blockTimestamp": 1775273239
    },
    {
      "status": "0x1",
      "cumulativeGasUsed": "0x28a5ee",
      "logs": [
        {
          "address": "0x1d3edba836cab11c26a186873abf0ffeb8bbae63",
          "topics": [
            "0xdf601dc9cab1949db7d829ded79c76070375083f98d23c3e5de99ff9fdab542a",
            "0x0000000000000000000000000000000000000000000000000000000000000001"
          ],
          "data": "0x0000000000000000000000000000000000000000000000ad78ebc5ac62000000000000000000000000000000000000000000000000000039c9b8c817066800000000000000000000000000000000000000000000000000000000000000000050",
          "blockHash": "0xe8890971bed4eed430603034d320d91cf274bf293e7f3daf6195fa23ab6c772c",
          "blockNumber": "0x8b87",
          "blockTimestamp": "0x69d08517",
          "transactionHash": "0x3e6f2a92e59f8378c18fbacbe528ff0ba86d7096ee550deb0bd9ac3d95cf1227",
          "transactionIndex": "0x9",
          "logIndex": "0x8",
          "removed": false
        }
      ],
      "logsBloom": "0x00000000000000000000000000000000000000000002000000000000000000000000000000000000000000000000000000000000000000000000000000040000000000000000000000000000000000000000000000048000000000800000000020000000000000000000000000000000000000000000000000000020000000000000000000000000000000000000000000000000000000000000000000000000000000000000000000000000000000000000000000000000000000000000000000000000000020000000000000000000000000000000000000000000000040000000000000000000000000000000000000000000000000000000000000000000",
      "type": "0x2",
      "transactionHash": "0x3e6f2a92e59f8378c18fbacbe528ff0ba86d7096ee550deb0bd9ac3d95cf1227",
      "transactionIndex": "0x9",
      "blockHash": "0xe8890971bed4eed430603034d320d91cf274bf293e7f3daf6195fa23ab6c772c",
      "blockNumber": "0x8b87",
      "gasUsed": "0x1bf9c",
      "effectiveGasPrice": "0x8",
      "blobGasPrice": "0x1",
      "from": "0xf39fd6e51aad88f6f4ce6ab8827279cfffb92266",
      "to": "0x1d3edba836cab11c26a186873abf0ffeb8bbae63",
      "contractAddress": null,
      "blockTimestamp": 1775273239
    },
    {
      "status": "0x1",
      "cumulativeGasUsed": "0x2a6596",
      "logs": [
        {
          "address": "0x1d3edba836cab11c26a186873abf0ffeb8bbae63",
          "topics": [
            "0xdf601dc9cab1949db7d829ded79c76070375083f98d23c3e5de99ff9fdab542a",
            "0x0000000000000000000000000000000000000000000000000000000000000002"
          ],
          "data": "0x00000000000000000000000000000000000000000000006194049f30f720000000000000000000000000000000000000000000000000002086ac351052600000000000000000000000000000000000000000000000000000000000000000003c",
          "blockHash": "0xe8890971bed4eed430603034d320d91cf274bf293e7f3daf6195fa23ab6c772c",
          "blockNumber": "0x8b87",
          "blockTimestamp": "0x69d08517",
          "transactionHash": "0x3e3737eb6c9a42a5ba69b4097f8c6cab1aa9506f649ed7f9b68f3c0ac24365d4",
          "transactionIndex": "0xa",
          "logIndex": "0x9",
          "removed": false
        }
      ],
      "logsBloom": "0x04000000000000000000000000000000000000000002000000000000000000000000000000000000000000000000000000000000000000000000000000000000000000000000000000000000000000000000000000008000000000800000000020000000000000000000000000000000000000000000000000000020000000000000000000000000000000000000000000000000000000000000000000000000000000000000000000000100000000000000000000000000000000000000000000000000000020000000000000000000000000000000000000000000000000000000000000000000000000000000000000000000008000000000000000000000",
      "type": "0x2",
      "transactionHash": "0x3e3737eb6c9a42a5ba69b4097f8c6cab1aa9506f649ed7f9b68f3c0ac24365d4",
      "transactionIndex": "0xa",
      "blockHash": "0xe8890971bed4eed430603034d320d91cf274bf293e7f3daf6195fa23ab6c772c",
      "blockNumber": "0x8b87",
      "gasUsed": "0x1bfa8",
      "effectiveGasPrice": "0x8",
      "blobGasPrice": "0x1",
      "from": "0xf39fd6e51aad88f6f4ce6ab8827279cfffb92266",
      "to": "0x1d3edba836cab11c26a186873abf0ffeb8bbae63",
      "contractAddress": null,
      "blockTimestamp": 1775273239
    },
    {
      "status": "0x1",
      "cumulativeGasUsed": "0x2c253e",
      "logs": [
        {
          "address": "0x1d3edba836cab11c26a186873abf0ffeb8bbae63",
          "topics": [
            "0xdf601dc9cab1949db7d829ded79c76070375083f98d23c3e5de99ff9fdab542a",
            "0x0000000000000000000000000000000000000000000000000000000000000003"
          ],
          "data": "0x0000000000000000000000000000000000000000000000410d586a20a4c00000000000000000000000000000000000000000000000000015af1d78b58c4000000000000000000000000000000000000000000000000000000000000000000028",
          "blockHash": "0xe8890971bed4eed430603034d320d91cf274bf293e7f3daf6195fa23ab6c772c",
          "blockNumber": "0x8b87",
          "blockTimestamp": "0x69d08517",
          "transactionHash": "0x883e62cde88f3b02474f025996b3ced8540f62723b332480105d466e0289b67b",
          "transactionIndex": "0xb",
          "logIndex": "0xa",
          "removed": false
        }
      ],
      "logsBloom": "0x00000000000000000000000000000000000000000002000000000000000000000000000000000000000000000000000000000000020000000000000000000000000000000000000000000000000000000000000000008000000000800000000020000000000000000000000000000000000000000000000000000020000000000000000000000000000000000000000000000000000000000000000000000000000000000000000000000000000000000000000000800000000000000000400000000000000020000000000000000000000000000000000000000000000000000000000000000000000000000000000000000000000000000000000000000000",
      "type": "0x2",
      "transactionHash": "0x883e62cde88f3b02474f025996b3ced8540f62723b332480105d466e0289b67b",
      "transactionIndex": "0xb",
      "blockHash": "0xe8890971bed4eed430603034d320d91cf274bf293e7f3daf6195fa23ab6c772c",
      "blockNumber": "0x8b87",
      "gasUsed": "0x1bfa8",
      "effectiveGasPrice": "0x8",
      "blobGasPrice": "0x1",
      "from": "0xf39fd6e51aad88f6f4ce6ab8827279cfffb92266",
      "to": "0x1d3edba836cab11c26a186873abf0ffeb8bbae63",
      "contractAddress": null,
      "blockTimestamp": 1775273239
    },
    {
      "status": "0x1",
      "cumulativeGasUsed": "0x2de4e6",
      "logs": [
        {
          "address": "0x1d3edba836cab11c26a186873abf0ffeb8bbae63",
          "topics": [
            "0xdf601dc9cab1949db7d829ded79c76070375083f98d23c3e5de99ff9fdab542a",
            "0x0000000000000000000000000000000000000000000000000000000000000004"
          ],
          "data": "0x000000000000000000000000000000000000000000000028a857425466f8000000000000000000000000000000000000000000000000000d8d726b7177a800000000000000000000000000000000000000000000000000000000000000000019",
          "blockHash": "0xe8890971bed4eed430603034d320d91cf274bf293e7f3daf6195fa23ab6c772c",
          "blockNumber": "0x8b87",
          "blockTimestamp": "0x69d08517",
          "transactionHash": "0xfcd8f20951ab1aa8dc40d8f043fd0cccf53f1d43822959ac8844706a62ce61aa",
          "transactionIndex": "0xc",
          "logIndex": "0xb",
          "removed": false
        }
      ],
      "logsBloom": "0x00000000000000000000000000000000000000000002000000000000000000000000000000000000000000000000000000000000000000000000000000000000000000000000000000000000000000000000000000008000000000800000000028000000000000000000000000000000000000000000000000000020000000000000000000000000000000000000000000000000000000000000000000000000000000000000000000000000000000000000000000000000002000000000000000000000000020000000000000000000000000008000000000000000000000000000000000000000000000000000000000000000000000000000000000000000",
      "type": "0x2",
      "transactionHash": "0xfcd8f20951ab1aa8dc40d8f043fd0cccf53f1d43822959ac8844706a62ce61aa",
      "transactionIndex": "0xc",
      "blockHash": "0xe8890971bed4eed430603034d320d91cf274bf293e7f3daf6195fa23ab6c772c",
      "blockNumber": "0x8b87",
      "gasUsed": "0x1bfa8",
      "effectiveGasPrice": "0x8",
      "blobGasPrice": "0x1",
      "from": "0xf39fd6e51aad88f6f4ce6ab8827279cfffb92266",
      "to": "0x1d3edba836cab11c26a186873abf0ffeb8bbae63",
      "contractAddress": null,
      "blockTimestamp": 1775273239
    },
    {
      "status": "0x1",
      "cumulativeGasUsed": "0x2fa48e",
      "logs": [
        {
          "address": "0x1d3edba836cab11c26a186873abf0ffeb8bbae63",
          "topics": [
            "0xdf601dc9cab1949db7d829ded79c76070375083f98d23c3e5de99ff9fdab542a",
            "0x0000000000000000000000000000000000000000000000000000000000000005"
          ],
          "data": "0x000000000000000000000000000000000000000000000038ebad5cdc90280000000000000000000000000000000000000000000000000012f939c99edab800000000000000000000000000000000000000000000000000000000000000000023",
          "blockHash": "0xe8890971bed4eed430603034d320d91cf274bf293e7f3daf6195fa23ab6c772c",
          "blockNumber": "0x8b87",
          "blockTimestamp": "0x69d08517",
          "transactionHash": "0xa5e9483149e8166efdeca96e4e39504585b56b1554650a880c9d0751591d4a24",
          "transactionIndex": "0xd",
          "logIndex": "0xc",
          "removed": false
        }
      ],
      "logsBloom": "0x00000000000000000000000000000000000000000002000000000000000000000000000000000000000000000000000000000000000000000000000000000000000010000000000000000000000000000000000000008000000000800000000020000000000000000000000000000000000000000000000000000020000000000000000000000000000000000000001000000800000000000000000000000000000000000000000000000000000000000000000000000000000000000000000000000000000020000000000000000000000000000000000000000000000000000000000000000000000000000000000000000000000000000000000000000000",
      "type": "0x2",
      "transactionHash": "0xa5e9483149e8166efdeca96e4e39504585b56b1554650a880c9d0751591d4a24",
      "transactionIndex": "0xd",
      "blockHash": "0xe8890971bed4eed430603034d320d91cf274bf293e7f3daf6195fa23ab6c772c",
      "blockNumber": "0x8b87",
      "gasUsed": "0x1bfa8",
      "effectiveGasPrice": "0x8",
      "blobGasPrice": "0x1",
      "from": "0xf39fd6e51aad88f6f4ce6ab8827279cfffb92266",
      "to": "0x1d3edba836cab11c26a186873abf0ffeb8bbae63",
      "contractAddress": null,
      "blockTimestamp": 1775273239
    },
    {
      "status": "0x1",
      "cumulativeGasUsed": "0x316436",
      "logs": [
        {
          "address": "0x1d3edba836cab11c26a186873abf0ffeb8bbae63",
          "topics": [
            "0xdf601dc9cab1949db7d829ded79c76070375083f98d23c3e5de99ff9fdab542a",
            "0x0000000000000000000000000000000000000000000000000000000000000006"
          ],
          "data": "0x00000000000000000000000000000000000000000000002086ac35105260000000000000000000000000000000000000000000000000000ad78ebc5ac62000000000000000000000000000000000000000000000000000000000000000000014",
          "blockHash": "0xe8890971bed4eed430603034d320d91cf274bf293e7f3daf6195fa23ab6c772c",
          "blockNumber": "0x8b87",
          "blockTimestamp": "0x69d08517",
          "transactionHash": "0x0e632eb73f0f00bbc5055bc65306d8b55ce6b4fade9f0121cbc241429cec0fc8",
          "transactionIndex": "0xe",
          "logIndex": "0xd",
          "removed": false
        }
      ],
      "logsBloom": "0x00000000000000000000000000000000000000000002000000000000000000000000000000000000000000000000000000000000000400000000000000000000000000000000000000000000000000000000000000008000000000800000000020000000000000000000000000000000000000000000000000000020000000000000000400000000000000000000000000000000000000000000000000000000000000000000000000000000000000000000000000000000000000080000000000000000000020000000000000000000000000000000000000000000000000000000000000000000000000000000000000000000000000000000000000000000",
      "type": "0x2",
      "transactionHash": "0x0e632eb73f0f00bbc5055bc65306d8b55ce6b4fade9f0121cbc241429cec0fc8",
      "transactionIndex": "0xe",
      "blockHash": "0xe8890971bed4eed430603034d320d91cf274bf293e7f3daf6195fa23ab6c772c",
      "blockNumber": "0x8b87",
      "gasUsed": "0x1bfa8",
      "effectiveGasPrice": "0x8",
      "blobGasPrice": "0x1",
      "from": "0xf39fd6e51aad88f6f4ce6ab8827279cfffb92266",
      "to": "0x1d3edba836cab11c26a186873abf0ffeb8bbae63",
      "contractAddress": null,
      "blockTimestamp": 1775273239
    },
    {
      "status": "0x1",
      "cumulativeGasUsed": "0x33d0df",
      "logs": [
        {
          "address": "0x1d3edba836cab11c26a186873abf0ffeb8bbae63",
          "topics": [
            "0xd5ac1c115b9611e0b070be9e826d0a3a424eb16689c233d158ef9d98a3b0dbbe",
            "0x0000000000000000000000000000000000000000000000000000000000000000"
          ],
          "data": "0x0000000000000000000000000000000000000000000000ecae6bebf0cb7800000000000000000000000000000000000000000000000002c627053139b1300000",
          "blockHash": "0xe8890971bed4eed430603034d320d91cf274bf293e7f3daf6195fa23ab6c772c",
          "blockNumber": "0x8b87",
          "blockTimestamp": "0x69d08517",
          "transactionHash": "0x556bbb58cdffd87815d53bd560b94dc346ebc98e68ffb494a05a45556385733a",
          "transactionIndex": "0xf",
          "logIndex": "0xe",
          "removed": false
        }
      ],
      "logsBloom": "0x00000000000000000000000000000000000000000000000000000000000000000000000000000000000000000000000000000000000000000000000000000000000000000000000000000000000000000000000000000000000000800000000000000000020000000000010000000800000000000000000000000020000000000000000000000000000000000000000000000000000000000000000000000000000000000000000000000000000000000000000000000000000000000000200000002000000020000000000000000000000000000000000000000000000020000000000000000000000000000000000000000000000000000000000000000000",
      "type": "0x2",
      "transactionHash": "0x556bbb58cdffd87815d53bd560b94dc346ebc98e68ffb494a05a45556385733a",
      "transactionIndex": "0xf",
      "blockHash": "0xe8890971bed4eed430603034d320d91cf274bf293e7f3daf6195fa23ab6c772c",
      "blockNumber": "0x8b87",
      "gasUsed": "0x26ca9",
      "effectiveGasPrice": "0x8",
      "blobGasPrice": "0x1",
      "from": "0xf39fd6e51aad88f6f4ce6ab8827279cfffb92266",
      "to": "0x1d3edba836cab11c26a186873abf0ffeb8bbae63",
      "contractAddress": null,
      "blockTimestamp": 1775273239
    }
  ],
  "libraries": [],
  "pending": [],
  "returns": {},
  "timestamp": 1775272889372,
  "chain": 42069,
  "commit": "1544ef6"
}