{
  "transactions": [
    {
      "hash": "0x47fdd369c29cafc76501c73caba2d212a0ce5611c4f587ee1da495e799cb6e1e",
      "transactionType": "CREATE",
      "contractName": "UBIRevenueTracker",
      "contractAddress": "0x021dbff4a864aa25c51f0ad2cd73266fde66199d",
      "function": null,
      "arguments": [
        "0xf39Fd6e51aad88F6F4ce6aB8827279cffFb92266",
        "0xC0BF43A4Ca27e0976195E6661b099742f10507e5"
      ],
      "transaction": {
        "from": "0xf39fd6e51aad88f6f4ce6ab8827279cfffb92266",
        "gas": "0x1793cd",
        "value": "0x0",
        "input": "0x608034608557601f61145638819003918201601f19168301916001600160401b038311848410176089578084926040948552833981010312608557604b6020604583609d565b9201609d565b5f80546001600160a01b039384166001600160a01b031991821617909155600180549290931691161790556040516113a590816100b18239f35b5f80fd5b634e487b7160e01b5f52604160045260245ffd5b51906001600160a01b038216820360855756fe6080806040526004361015610012575f80fd5b5f3560e01c908163098ab6a114610f2e575080636052970c14610f06578063741c53eb14610da057806375829def14610d4c578063783ec7f014610c8b5780637d4f380014610c6e5780638c39622014610bbe578063a2ac13d314610b72578063a418eac514610b55578063adb2bebf146109e5578063b17fb9d614610988578063b3d3d37e146108c9578063b6aeb92c146108ac578063c9a1ae6f1461077b578063d190da8314610743578063d9708d4814610613578063df1ee6a5146105ad578063e2eed04f14610590578063f851a440146105695763feadea0d146100f8575f80fd5b346105655760603660031901126105655760043567ffffffffffffffff811161056557610129903690600401611128565b60243567ffffffffffffffff811161056557610149903690600401611128565b92604435926001600160a01b03841684036105655761017260018060a01b035f541633146111d4565b6003549361017f856112b4565b6003556040519561018f8761102d565b61019a3684866112c2565b87526101a73682876112c2565b6020880190815260018060a01b03831660408901525f60608901525f60808901525f60a08901524360c0890152600160e0890152865f52600260205260405f2090885180519067ffffffffffffffff821161048a5781906102088554610ff5565b601f811161050c575b50602090601f83116001146104a9575f9261049e575b50508160011b915f199060031b1c19161782555b5197885167ffffffffffffffff811161048a5761025b6001840154610ff5565b601f8111610436575b50908896959493929160209a8b90601f83116001146103945760e061036e969484610335957f3c7a23361d520d8daf009aea25b729eb1c02a2e1473ee76319a2e3174e862ba69d9e98956007955f92610389575b50508160011b915f199060031b1c19161760018501555b6002840160018060a01b036040830151166bffffffffffffffffffffffff60a01b825416179055606081015160038501556080810151600485015560a0810151600585015560c081015160068501550151151591019060ff801983541691151516179055565b60018060a01b0384165f5260048a528760405f2055610361604051968796606088526060880191611308565b918583038b870152611308565b6001600160a01b0390911660408301520390a2604051908152f35b015190505f806102b8565b999493929190600184015f52805f209a5f5b601f198416811061041c5750610335936001847f3c7a23361d520d8daf009aea25b729eb1c02a2e1473ee76319a2e3174e862ba69d9e60079560e09561036e9c9b9a98601f19811610610404575b505050811b0160018501556102cf565b01515f1960f88460031b161c191690555f80806103f4565b828201518d556001909c019b8d9b50918e01918e016103a6565b818111156102645799600184015f5260205f20601f830160051c9060208410610482575b81019b601f0160051c035f5b81811061047557505099610264565b5f8d820155600101610466565b5f915061045a565b634e487b7160e01b5f52604160045260245ffd5b015190505f80610227565b5f8681528281209350601f198516905b8181106104f457509084600195949392106104dc575b505050811b01825561023b565b01515f1960f88460031b161c191690555f80806104cf565b929360206001819287860151815501950193016104b9565b8281111561021157909150845f5260205f20601f840160051c906020851061055d575b849392601f0160051c82900391015f5b82811061054d575050610211565b5f8183015585945060010161053f565b5f915061052f565b5f80fd5b34610565575f366003190112610565575f546040516001600160a01b039091168152602090f35b34610565575f366003190112610565576020600354604051908152f35b3461056557604036600319011261056557600435602435801515810361056557610611916105e560018060a01b035f541633146111d4565b6105f26003548210611247565b5f526002602052600760405f20019060ff801983541691151516179055565b005b34610565575f3660031901126105655760085460075490600954916003549261063a611328565b6001546040516330636c5760e11b81526001600160a01b03909116959091906020836004818a5afa928315610701575f9361070c575b50602060049760405198898092638581ddf560e01b82525afa938415610701575f946106cb575b610100975060065495604051978852602088015260408701526060860152608085015260a084015260c083015260e0820152f35b93506020873d6020116106f9575b816106e660209383611066565b8101031261056557610100965193610697565b3d91506106d9565b6040513d5f823e3d90fd5b9692506020873d60201161073b575b8161072860209383611066565b8101031261056557955191956020610670565b3d915061071b565b34610565576020366003190112610565576001600160a01b03610764610fdf565b165f526004602052602060405f2054604051908152f35b346105655760803660031901126105655760043560243560443590606435906107ae60018060a01b035f541633146111d4565b6107bb6003548510611247565b835f52600260205260405f209160ff60078401541615610873577fdf601dc9cab1949db7d829ded79c76070375083f98d23c3e5de99ff9fdab542a93836003606095016108098582546112a7565b90556004810161081a8382546112a7565b90556005810161082b8482546112a7565b905560064391015561083f836008546112a7565b60085561084e816007546112a7565b60075561085d826009546112a7565b60095560405192835260208301526040820152a2005b60405162461bcd60e51b815260206004820152601160248201527050726f746f636f6c20696e61637469766560781b6044820152606490fd5b34610565575f366003190112610565576020600854604051908152f35b34610565575f366003190112610565576108ed60018060a01b035f541633146111d4565b6006546108f9816112b4565b600655600754600360085461090c611328565b906040519361091a8561104a565b428552602085019081526040850191825260608501928352855f52600560205260405f2094518555516001850155516002840155519101557fd5ac1c115b9611e0b070be9e826d0a3a424eb16689c233d158ef9d98a3b0dbbe604060075460085482519182526020820152a2005b34610565576020366003190112610565576109a1610fdf565b6109b560018060a01b035f541633146111d4565b6001600160a01b03166109c981151561120c565b6bffffffffffffffffffffffff60a01b60015416176001555f80f35b346105655760203660031901126105655760065460043580821115610b4957610a11610a189183611286565b8092611286565b610a2181611156565b91610a2f6040519384611066565b818352601f19610a3e83611156565b015f5b818110610b1a5750505f5b828110610ab957836040518091602082016020835281518091526020604084019201905f5b818110610a7f575050500390f35b9193509160206080600192606087518051835284810151858401526040810151604084015201516060820152019401910191849392610a71565b80610ac6600192846112a7565b5f52600560205260405f20600360405191610ae08361104a565b805483528481015460208401526002810154604084015201546060820152610b0882876111ac565b52610b1381866111ac565b5001610a4c565b602090604051610b298161104a565b5f81525f838201525f60408201525f606082015282828801015201610a41565b50610a185f8092611286565b34610565575f366003190112610565576020600954604051908152f35b34610565576020366003190112610565576004355f526005602052608060405f208054906001810154906003600282015491015491604051938452602084015260408301526060820152f35b34610565576020366003190112610565576004355f526002602052610c3b60405f20610be981611088565b90610bf660018201611088565b60018060a01b036002830154169160038101546004820154600583015491610c4960ff600760068701549601541695604051998a996101008b526101008b0190610f48565b9089820360208b0152610f48565b9560408801526060870152608086015260a085015260c0840152151560e08301520390f35b34610565575f366003190112610565576020600754604051908152f35b3461056557602036600319011261056557600435610ca761116e565b50610cb56003548210611247565b5f526002602052610d4860405f2060ff600760405192610cd48461102d565b610cdd81611088565b8452610ceb60018201611088565b602085015260018060a01b0360028201541660408501526003810154606085015260048101546080850152600581015460a0850152600681015460c0850152015416151560e0820152604051918291602083526020830190610f6c565b0390f35b3461056557602036600319011261056557610d65610fdf565b5f5490610d7c336001600160a01b038416146111d4565b6001600160a01b031690610d9182151561120c565b6001600160a01b031916175f55005b34610565575f36600319011261056557600354610dbc81611156565b90610dca6040519283611066565b808252601f19610dd982611156565b015f5b818110610eef5750505f5b818110610e5557826040518091602082016020835281518091526040830190602060408260051b8601019301915f905b828210610e2657505050500390f35b91936001919395506020610e458192603f198a82030186528851610f6c565b9601920192018594939192610e17565b806001915f52600260205260405f2060ff600760405192610e758461102d565b610e7e81611088565b8452610e8b868201611088565b6020850152858060a01b0360028201541660408501526003810154606085015260048101546080850152600581015460a0850152600681015460c0850152015416151560e0820152610edd82866111ac565b52610ee881856111ac565b5001610de7565b602090610efa61116e565b82828701015201610ddc565b34610565575f366003190112610565576001546040516001600160a01b039091168152602090f35b34610565575f366003190112610565576020906006548152f35b805180835260209291819084018484015e5f828201840152601f01601f1916010190565b9060e080610f9a610f8885516101008652610100860190610f48565b60208601518582036020870152610f48565b9360018060a01b036040820151166040850152606081015160608501526080810151608085015260a081015160a085015260c081015160c08501520151151591015290565b600435906001600160a01b038216820361056557565b90600182811c92168015611023575b602083101461100f57565b634e487b7160e01b5f52602260045260245ffd5b91607f1691611004565b610100810190811067ffffffffffffffff82111761048a57604052565b6080810190811067ffffffffffffffff82111761048a57604052565b90601f8019910116810190811067ffffffffffffffff82111761048a57604052565b9060405191825f82549261109b84610ff5565b808452936001811690811561110657506001146110c2575b506110c092500383611066565b565b90505f9291925260205f20905f915b8183106110ea5750509060206110c0928201015f6110b3565b60209193508060019154838589010152019101909184926110d1565b9050602092506110c094915060ff191682840152151560051b8201015f6110b3565b9181601f840112156105655782359167ffffffffffffffff8311610565576020838186019501011161056557565b67ffffffffffffffff811161048a5760051b60200190565b6040519061117b8261102d565b5f60e08360608152606060208201528260408201528260608201528260808201528260a08201528260c08201520152565b80518210156111c05760209160051b010190565b634e487b7160e01b5f52603260045260245ffd5b156111db57565b60405162461bcd60e51b81526020600482015260096024820152682737ba1030b236b4b760b91b6044820152606490fd5b1561121357565b60405162461bcd60e51b815260206004820152600c60248201526b7a65726f206164647265737360a01b6044820152606490fd5b1561124e57565b60405162461bcd60e51b815260206004820152601060248201526f125b9d985b1a59081c1c9bdd1bd8dbdb60821b6044820152606490fd5b9190820391821161129357565b634e487b7160e01b5f52601160045260245ffd5b9190820180921161129357565b5f1981146112935760010190565b92919267ffffffffffffffff821161048a57604051916112ec601f8201601f191660200184611066565b829481845281830111610565578281602093845f960137010152565b908060209392818452848401375f828201840152601f01601f1916010190565b5f905f600354905b81811061133b575050565b805f52600260205260ff600760405f2001541661135b575b600101611330565b926113676001916112b4565b93905061135356fea26469706673582212202a4d9ec4dc4ac7b82973c833dc9514672376093ccf34072cb89a8c55a773796a64736f6c63430008210033000000000000000000000000f39fd6e51aad88f6f4ce6ab8827279cfffb92266000000000000000000000000c0bf43a4ca27e0976195e6661b099742f10507e5",
        "nonce": "0x1df",
        "chainId": "0xa455"
      },
      "additionalContracts": [],
      "isFixedGasLimit": false
    },
    {
      "hash": "0x590ed0005fd3c1be822d9ce71a652a5d0cfd374fe7b450798f81d32a32ee5731",
      "transactionType": "CALL",
      "contractName": "UBIRevenueTracker",
      "contractAddress": "0x021dbff4a864aa25c51f0ad2cd73266fde66199d",
      "function": "registerProtocol(string,string,address)",
      "arguments": [
        "GoodSwap",
        "swap",
        "0x0000000000000000000000000000000000001001"
      ],
      "transaction": {
        "from": "0xf39fd6e51aad88f6f4ce6ab8827279cfffb92266",
        "to": "0x021dbff4a864aa25c51f0ad2cd73266fde66199d",
        "gas": "0x3d5d8",
        "value": "0x0",
        "input": "0xfeadea0d000000000000000000000000000000000000000000000000000000000000006000000000000000000000000000000000000000000000000000000000000000a000000000000000000000000000000000000000000000000000000000000010010000000000000000000000000000000000000000000000000000000000000008476f6f645377617000000000000000000000000000000000000000000000000000000000000000000000000000000000000000000000000000000000000000047377617000000000000000000000000000000000000000000000000000000000",
        "nonce": "0x1e0",
        "chainId": "0xa455"
      },
      "additionalContracts": [],
      "isFixedGasLimit": false
    },
    {
      "hash": "0xf9208f4ada0f7208756707ed5bcc9ee6cc33eb8ec350e5b31fcbc456f205712d",
      "transactionType": "CALL",
      "contractName": "UBIRevenueTracker",
      "contractAddress": "0x021dbff4a864aa25c51f0ad2cd73266fde66199d",
      "function": "registerProtocol(string,string,address)",
      "arguments": [
        "GoodPerps",
        "perps",
        "0x0000000000000000000000000000000000001002"
      ],
      "transaction": {
        "from": "0xf39fd6e51aad88f6f4ce6ab8827279cfffb92266",
        "to": "0x021dbff4a864aa25c51f0ad2cd73266fde66199d",
        "gas": "0x3e5fa",
        "value": "0x0",
        "input": "0xfeadea0d000000000000000000000000000000000000000000000000000000000000006000000000000000000000000000000000000000000000000000000000000000a000000000000000000000000000000000000000000000000000000000000010020000000000000000000000000000000000000000000000000000000000000009476f6f645065727073000000000000000000000000000000000000000000000000000000000000000000000000000000000000000000000000000000000000057065727073000000000000000000000000000000000000000000000000000000",
        "nonce": "0x1e1",
        "chainId": "0xa455"
      },
      "additionalContracts": [],
      "isFixedGasLimit": false
    },
    {
      "hash": "0xeaf4704c188a6b2bad1a807ec22d83c88305ce71f77c93128496c1a723d866b2",
      "transactionType": "CALL",
      "contractName": "UBIRevenueTracker",
      "contractAddress": "0x021dbff4a864aa25c51f0ad2cd73266fde66199d",
      "function": "registerProtocol(string,string,address)",
      "arguments": [
        "GoodPredict",
        "predict",
        "0x0000000000000000000000000000000000001003"
      ],
      "transaction": {
        "from": "0xf39fd6e51aad88f6f4ce6ab8827279cfffb92266",
        "to": "0x021dbff4a864aa25c51f0ad2cd73266fde66199d",
        "gas": "0x3e640",
        "value": "0x0",
        "input": "0xfeadea0d000000000000000000000000000000000000000000000000000000000000006000000000000000000000000000000000000000000000000000000000000000a00000000000000000000000000000000000000000000000000000000000001003000000000000000000000000000000000000000000000000000000000000000b476f6f645072656469637400000000000000000000000000000000000000000000000000000000000000000000000000000000000000000000000000000000077072656469637400000000000000000000000000000000000000000000000000",
        "nonce": "0x1e2",
        "chainId": "0xa455"
      },
      "additionalContracts": [],
      "isFixedGasLimit": false
    },
    {
      "hash": "0x541e8bec016da9394b3b8b5b1a74cc13b906c3beebd76be1324482898e46ac49",
      "transactionType": "CALL",
      "contractName": "UBIRevenueTracker",
      "contractAddress": "0x021dbff4a864aa25c51f0ad2cd73266fde66199d",
      "function": "registerProtocol(string,string,address)",
      "arguments": [
        "GoodLend",
        "lend",
        "0x0000000000000000000000000000000000001004"
      ],
      "transaction": {
        "from": "0xf39fd6e51aad88f6f4ce6ab8827279cfffb92266",
        "to": "0x021dbff4a864aa25c51f0ad2cd73266fde66199d",
        "gas": "0x3e5d7",
        "value": "0x0",
        "input": "0xfeadea0d000000000000000000000000000000000000000000000000000000000000006000000000000000000000000000000000000000000000000000000000000000a000000000000000000000000000000000000000000000000000000000000010040000000000000000000000000000000000000000000000000000000000000008476f6f644c656e6400000000000000000000000000000000000000000000000000000000000000000000000000000000000000000000000000000000000000046c656e6400000000000000000000000000000000000000000000000000000000",
        "nonce": "0x1e3",
        "chainId": "0xa455"
      },
      "additionalContracts": [],
      "isFixedGasLimit": false
    },
    {
      "hash": "0xd99baf124fc681fd609d914e9ab094cbe06ae64b86106a3e4fb115e8c1f80345",
      "transactionType": "CALL",
      "contractName": "UBIRevenueTracker",
      "contractAddress": "0x021dbff4a864aa25c51f0ad2cd73266fde66199d",
      "function": "registerProtocol(string,string,address)",
      "arguments": [
        "GoodStable",
        "stable",
        "0x0000000000000000000000000000000000001005"
      ],
      "transaction": {
        "from": "0xf39fd6e51aad88f6f4ce6ab8827279cfffb92266",
        "to": "0x021dbff4a864aa25c51f0ad2cd73266fde66199d",
        "gas": "0x3e61d",
        "value": "0x0",
        "input": "0xfeadea0d000000000000000000000000000000000000000000000000000000000000006000000000000000000000000000000000000000000000000000000000000000a00000000000000000000000000000000000000000000000000000000000001005000000000000000000000000000000000000000000000000000000000000000a476f6f64537461626c65000000000000000000000000000000000000000000000000000000000000000000000000000000000000000000000000000000000006737461626c650000000000000000000000000000000000000000000000000000",
        "nonce": "0x1e4",
        "chainId": "0xa455"
      },
      "additionalContracts": [],
      "isFixedGasLimit": false
    },
    {
      "hash": "0xbad4c1415069daec625ada68f6bdf5114f29e94052f30b240a188b2df38c10f3",
      "transactionType": "CALL",
      "contractName": "UBIRevenueTracker",
      "contractAddress": "0x021dbff4a864aa25c51f0ad2cd73266fde66199d",
      "function": "registerProtocol(string,string,address)",
      "arguments": [
        "GoodStocks",
        "stocks",
        "0x0000000000000000000000000000000000001006"
      ],
      "transaction": {
        "from": "0xf39fd6e51aad88f6f4ce6ab8827279cfffb92266",
        "to": "0x021dbff4a864aa25c51f0ad2cd73266fde66199d",
        "gas": "0x3e61d",
        "value": "0x0",
        "input": "0xfeadea0d000000000000000000000000000000000000000000000000000000000000006000000000000000000000000000000000000000000000000000000000000000a00000000000000000000000000000000000000000000000000000000000001006000000000000000000000000000000000000000000000000000000000000000a476f6f6453746f636b7300000000000000000000000000000000000000000000000000000000000000000000000000000000000000000000000000000000000673746f636b730000000000000000000000000000000000000000000000000000",
        "nonce": "0x1e5",
        "chainId": "0xa455"
      },
      "additionalContracts": [],
      "isFixedGasLimit": false
    },
    {
      "hash": "0x29c17ea6af6a203c595c5c97c69f3e8c1d442942e55fdc7a177f05cf8aaafcb2",
      "transactionType": "CALL",
      "contractName": "UBIRevenueTracker",
      "contractAddress": "0x021dbff4a864aa25c51f0ad2cd73266fde66199d",
      "function": "registerProtocol(string,string,address)",
      "arguments": [
        "GoodBridge",
        "bridge",
        "0x0000000000000000000000000000000000001007"
      ],
      "transaction": {
        "from": "0xf39fd6e51aad88f6f4ce6ab8827279cfffb92266",
        "to": "0x021dbff4a864aa25c51f0ad2cd73266fde66199d",
        "gas": "0x3e61d",
        "value": "0x0",
        "input": "0xfeadea0d000000000000000000000000000000000000000000000000000000000000006000000000000000000000000000000000000000000000000000000000000000a00000000000000000000000000000000000000000000000000000000000001007000000000000000000000000000000000000000000000000000000000000000a476f6f644272696467650000000000000000000000000000000000000000000000000000000000000000000000000000000000000000000000000000000000066272696467650000000000000000000000000000000000000000000000000000",
        "nonce": "0x1e6",
        "chainId": "0xa455"
      },
      "additionalContracts": [],
      "isFixedGasLimit": false
    },
    {
      "hash": "0x0d7c69580026a2f86018ec8b4533d2754685c34431fe29720367f40af1646504",
      "transactionType": "CALL",
      "contractName": "UBIRevenueTracker",
      "contractAddress": "0x021dbff4a864aa25c51f0ad2cd73266fde66199d",
      "function": "reportFees(uint256,uint256,uint256,uint256)",
      "arguments": [
        "0",
        "4500000000000000000000",
        "1500000000000000000000",
        "150"
      ],
      "transaction": {
        "from": "0xf39fd6e51aad88f6f4ce6ab8827279cfffb92266",
        "to": "0x021dbff4a864aa25c51f0ad2cd73266fde66199d",
        "gas": "0x37f2a",
        "value": "0x0",
        "input": "0xc9a1ae6f00000000000000000000000000000000000000000000000000000000000000000000000000000000000000000000000000000000000000f3f20b8dfa69d0000000000000000000000000000000000000000000000000005150ae84a8cdf000000000000000000000000000000000000000000000000000000000000000000096",
        "nonce": "0x1e7",
        "chainId": "0xa455"
      },
      "additionalContracts": [],
      "isFixedGasLimit": false
    },
    {
      "hash": "0x3dbd3296351124b4ea8d5abea912474862d7d68cabd55f45d078afe482f7674b",
      "transactionType": "CALL",
      "contractName": "UBIRevenueTracker",
      "contractAddress": "0x021dbff4a864aa25c51f0ad2cd73266fde66199d",
      "function": "reportFees(uint256,uint256,uint256,uint256)",
      "arguments": [
        "1",
        "3200000000000000000000",
        "1066000000000000000000",
        "80"
      ],
      "transaction": {
        "from": "0xf39fd6e51aad88f6f4ce6ab8827279cfffb92266",
        "to": "0x021dbff4a864aa25c51f0ad2cd73266fde66199d",
        "gas": "0x28ec0",
        "value": "0x0",
        "input": "0xc9a1ae6f00000000000000000000000000000000000000000000000000000000000000010000000000000000000000000000000000000000000000ad78ebc5ac62000000000000000000000000000000000000000000000000000039c9b8c817066800000000000000000000000000000000000000000000000000000000000000000050",
        "nonce": "0x1e8",
        "chainId": "0xa455"
      },
      "additionalContracts": [],
      "isFixedGasLimit": false
    },
    {
      "hash": "0xbae035bf820f2ce2097868c716c13729cfe5e42da1956f698c0537738aa4cefb",
      "transactionType": "CALL",
      "contractName": "UBIRevenueTracker",
      "contractAddress": "0x021dbff4a864aa25c51f0ad2cd73266fde66199d",
      "function": "reportFees(uint256,uint256,uint256,uint256)",
      "arguments": [
        "2",
        "1800000000000000000000",
        "600000000000000000000",
        "60"
      ],
      "transaction": {
        "from": "0xf39fd6e51aad88f6f4ce6ab8827279cfffb92266",
        "to": "0x021dbff4a864aa25c51f0ad2cd73266fde66199d",
        "gas": "0x26a70",
        "value": "0x0",
        "input": "0xc9a1ae6f000000000000000000000000000000000000000000000000000000000000000200000000000000000000000000000000000000000000006194049f30f720000000000000000000000000000000000000000000000000002086ac351052600000000000000000000000000000000000000000000000000000000000000000003c",
        "nonce": "0x1e9",
        "chainId": "0xa455"
      },
      "additionalContracts": [],
      "isFixedGasLimit": false
    },
    {
      "hash": "0x33f81366bd595eaa594b3754b7d3d436ba01ea1999da4b7bcca5dff10a726771",
      "transactionType": "CALL",
      "contractName": "UBIRevenueTracker",
      "contractAddress": "0x021dbff4a864aa25c51f0ad2cd73266fde66199d",
      "function": "reportFees(uint256,uint256,uint256,uint256)",
      "arguments": [
        "3",
        "1200000000000000000000",
        "400000000000000000000",
        "40"
      ],
      "transaction": {
        "from": "0xf39fd6e51aad88f6f4ce6ab8827279cfffb92266",
        "to": "0x021dbff4a864aa25c51f0ad2cd73266fde66199d",
        "gas": "0x26a70",
        "value": "0x0",
        "input": "0xc9a1ae6f00000000000000000000000000000000000000000000000000000000000000030000000000000000000000000000000000000000000000410d586a20a4c00000000000000000000000000000000000000000000000000015af1d78b58c4000000000000000000000000000000000000000000000000000000000000000000028",
        "nonce": "0x1ea",
        "chainId": "0xa455"
      },
      "additionalContracts": [],
      "isFixedGasLimit": false
    },
    {
      "hash": "0x08da77a1d5aa5c5b752f21ecd56dd4ef516899b040cb3cbd48cc8905a4184596",
      "transactionType": "CALL",
      "contractName": "UBIRevenueTracker",
      "contractAddress": "0x021dbff4a864aa25c51f0ad2cd73266fde66199d",
      "function": "reportFees(uint256,uint256,uint256,uint256)",
      "arguments": [
        "4",
        "750000000000000000000",
        "250000000000000000000",
        "25"
      ],
      "transaction": {
        "from": "0xf39fd6e51aad88f6f4ce6ab8827279cfffb92266",
        "to": "0x021dbff4a864aa25c51f0ad2cd73266fde66199d",
        "gas": "0x26a70",
        "value": "0x0",
        "input": "0xc9a1ae6f0000000000000000000000000000000000000000000000000000000000000004000000000000000000000000000000000000000000000028a857425466f8000000000000000000000000000000000000000000000000000d8d726b7177a800000000000000000000000000000000000000000000000000000000000000000019",
        "nonce": "0x1eb",
        "chainId": "0xa455"
      },
      "additionalContracts": [],
      "isFixedGasLimit": false
    },
    {
      "hash": "0x3f1059cc899e378cbae9b656a1c4bc085554d8ca303754f9bd33daf4ab19dcfa",
      "transactionType": "CALL",
      "contractName": "UBIRevenueTracker",
      "contractAddress": "0x021dbff4a864aa25c51f0ad2cd73266fde66199d",
      "function": "reportFees(uint256,uint256,uint256,uint256)",
      "arguments": [
        "5",
        "1050000000000000000000",
        "350000000000000000000",
        "35"
      ],
      "transaction": {
        "from": "0xf39fd6e51aad88f6f4ce6ab8827279cfffb92266",
        "to": "0x021dbff4a864aa25c51f0ad2cd73266fde66199d",
        "gas": "0x26a70",
        "value": "0x0",
        "input": "0xc9a1ae6f0000000000000000000000000000000000000000000000000000000000000005000000000000000000000000000000000000000000000038ebad5cdc90280000000000000000000000000000000000000000000000000012f939c99edab800000000000000000000000000000000000000000000000000000000000000000023",
        "nonce": "0x1ec",
        "chainId": "0xa455"
      },
      "additionalContracts": [],
      "isFixedGasLimit": false
    },
    {
      "hash": "0xb1044fd6d9f9df49676c9c15ee3c395071c38baa938a395aefae426be4228ee1",
      "transactionType": "CALL",
      "contractName": "UBIRevenueTracker",
      "contractAddress": "0x021dbff4a864aa25c51f0ad2cd73266fde66199d",
      "function": "reportFees(uint256,uint256,uint256,uint256)",
      "arguments": [
        "6",
        "600000000000000000000",
        "200000000000000000000",
        "20"
      ],
      "transaction": {
        "from": "0xf39fd6e51aad88f6f4ce6ab8827279cfffb92266",
        "to": "0x021dbff4a864aa25c51f0ad2cd73266fde66199d",
        "gas": "0x26a70",
        "value": "0x0",
        "input": "0xc9a1ae6f000000000000000000000000000000000000000000000000000000000000000600000000000000000000000000000000000000000000002086ac35105260000000000000000000000000000000000000000000000000000ad78ebc5ac62000000000000000000000000000000000000000000000000000000000000000000014",
        "nonce": "0x1ed",
        "chainId": "0xa455"
      },
      "additionalContracts": [],
      "isFixedGasLimit": false
    },
    {
      "hash": "0x57273a520853fe005d1862f24d6e9a6db77a92045f64ce32f79005ed0aa106e2",
      "transactionType": "CALL",
      "contractName": "UBIRevenueTracker",
      "contractAddress": "0x021dbff4a864aa25c51f0ad2cd73266fde66199d",
      "function": "takeSnapshot()",
      "arguments": [],
      "transaction": {
        "from": "0xf39fd6e51aad88f6f4ce6ab8827279cfffb92266",
        "to": "0x021dbff4a864aa25c51f0ad2cd73266fde66199d",
        "gas": "0x35966",
        "value": "0x0",
        "input": "0xb3d3d37e",
        "nonce": "0x1ee",
        "chainId": "0xa455"
      },
      "additionalContracts": [],
      "isFixedGasLimit": false
    }
  ],
  "receipts": [
    {
      "status": "0x1",
      "cumulativeGasUsed": "0x1222ed",
      "logs": [],
      "logsBloom": "0x00000000000000000000000000000000000000000000000000000000000000000000000000000000000000000000000000000000000000000000000000000000000000000000000000000000000000000000000000000000000000000000000000000000000000000000000000000000000000000000000000000000000000000000000000000000000000000000000000000000000000000000000000000000000000000000000000000000000000000000000000000000000000000000000000000000000000000000000000000000000000000000000000000000000000000000000000000000000000000000000000000000000000000000000000000000",
      "type": "0x0",
      "transactionHash": "0x47fdd369c29cafc76501c73caba2d212a0ce5611c4f587ee1da495e799cb6e1e",
      "transactionIndex": "0x0",
      "blockHash": "0x070462506d61ba540225306d5db0c7dbd576fae8cd993f65503d136080b3b00a",
      "blockNumber": "0xc8a6",
      "gasUsed": "0x1222ed",
      "effectiveGasPrice": "0x3b9aca07",
      "blobGasPrice": "0x1",
      "from": "0xf39fd6e51aad88f6f4ce6ab8827279cfffb92266",
      "to": null,
      "contractAddress": "0x021dbff4a864aa25c51f0ad2cd73266fde66199d",
      "blockTimestamp": 1775304562
    },
    {
      "status": "0x1",
      "cumulativeGasUsed": "0x14c246",
      "logs": [
        {
          "address": "0x021dbff4a864aa25c51f0ad2cd73266fde66199d",
          "topics": [
            "0x3c7a23361d520d8daf009aea25b729eb1c02a2e1473ee76319a2e3174e862ba6",
            "0x0000000000000000000000000000000000000000000000000000000000000000"
          ],
          "data": "0x000000000000000000000000000000000000000000000000000000000000006000000000000000000000000000000000000000000000000000000000000000a000000000000000000000000000000000000000000000000000000000000010010000000000000000000000000000000000000000000000000000000000000008476f6f645377617000000000000000000000000000000000000000000000000000000000000000000000000000000000000000000000000000000000000000047377617000000000000000000000000000000000000000000000000000000000",
          "blockHash": "0x070462506d61ba540225306d5db0c7dbd576fae8cd993f65503d136080b3b00a",
          "blockNumber": "0xc8a6",
          "blockTimestamp": "0x69d0ff72",
          "transactionHash": "0x590ed0005fd3c1be822d9ce71a652a5d0cfd374fe7b450798f81d32a32ee5731",
          "transactionIndex": "0x1",
          "logIndex": "0x0",
          "removed": false
        }
      ],
      "logsBloom": "0x00000000000000000000000000000000000000000000000000000000000000000000400000000000000000000000000000000000000000000000000000000000000000000000000000000000000000000000000000020000000000000008000000000000020000000000000000000800000000000000000000000000000000000000000000000000000000000000000000000000400000000000000000000000000000000000000000000000002000000000000000000000000080000000000000000000000000000000000000000000000000000000000000000000000020000000000000000000000000000000000000000000000000000000000000000000",
      "type": "0x0",
      "transactionHash": "0x590ed0005fd3c1be822d9ce71a652a5d0cfd374fe7b450798f81d32a32ee5731",
      "transactionIndex": "0x1",
      "blockHash": "0x070462506d61ba540225306d5db0c7dbd576fae8cd993f65503d136080b3b00a",
      "blockNumber": "0xc8a6",
      "gasUsed": "0x29f59",
      "effectiveGasPrice": "0x3b9aca07",
      "blobGasPrice": "0x1",
      "from": "0xf39fd6e51aad88f6f4ce6ab8827279cfffb92266",
      "to": "0x021dbff4a864aa25c51f0ad2cd73266fde66199d",
      "contractAddress": null,
      "blockTimestamp": 1775304562
    },
    {
      "status": "0x1",
      "cumulativeGasUsed": "0x176ca7",
      "logs": [
        {
          "address": "0x021dbff4a864aa25c51f0ad2cd73266fde66199d",
          "topics": [
            "0x3c7a23361d520d8daf009aea25b729eb1c02a2e1473ee76319a2e3174e862ba6",
            "0x0000000000000000000000000000000000000000000000000000000000000001"
          ],
          "data": "0x000000000000000000000000000000000000000000000000000000000000006000000000000000000000000000000000000000000000000000000000000000a000000000000000000000000000000000000000000000000000000000000010020000000000000000000000000000000000000000000000000000000000000009476f6f645065727073000000000000000000000000000000000000000000000000000000000000000000000000000000000000000000000000000000000000057065727073000000000000000000000000000000000000000000000000000000",
          "blockHash": "0x070462506d61ba540225306d5db0c7dbd576fae8cd993f65503d136080b3b00a",
          "blockNumber": "0xc8a6",
          "blockTimestamp": "0x69d0ff72",
          "transactionHash": "0x3dbd3296351124b4ea8d5abea912474862d7d68cabd55f45d078afe482f7674b",
          "transactionIndex": "0x2",
          "logIndex": "0x1",
          "removed": false
        }
      ],
      "logsBloom": "0x00000000000000000000000000000000000000000000000000000000000000000000400000000000000000000000000000000000000000000000000000040000000000000000000000000000000000000000000000060000000000000008000000000000000000000000000000000000000000000000000000000000000000000000000000000000000000000000000000000000400000000000000000000000000000000000000000000000002000000000000000000000000080000000000000000000000000000000000000000000000000000000000000000000000040000000000000000000000000000000000000000000000000000000000000000000",
      "type": "0x0",
      "transactionHash": "0x3dbd3296351124b4ea8d5abea912474862d7d68cabd55f45d078afe482f7674b",
      "transactionIndex": "0x2",
      "blockHash": "0x070462506d61ba540225306d5db0c7dbd576fae8cd993f65503d136080b3b00a",
      "blockNumber": "0xc8a6",
      "gasUsed": "0x2aa61",
      "effectiveGasPrice": "0x3b9aca07",
      "blobGasPrice": "0x1",
      "from": "0xf39fd6e51aad88f6f4ce6ab8827279cfffb92266",
      "to": "0x021dbff4a864aa25c51f0ad2cd73266fde66199d",
      "contractAddress": null,
      "blockTimestamp": 1775304562
    },
    {
      "status": "0x1",
      "cumulativeGasUsed": "0x1a1738",
      "logs": [
        {
          "address": "0x021dbff4a864aa25c51f0ad2cd73266fde66199d",
          "topics": [
            "0x3c7a23361d520d8daf009aea25b729eb1c02a2e1473ee76319a2e3174e862ba6",
            "0x0000000000000000000000000000000000000000000000000000000000000002"
          ],
          "data": "0x000000000000000000000000000000000000000000000000000000000000006000000000000000000000000000000000000000000000000000000000000000a00000000000000000000000000000000000000000000000000000000000001003000000000000000000000000000000000000000000000000000000000000000b476f6f645072656469637400000000000000000000000000000000000000000000000000000000000000000000000000000000000000000000000000000000077072656469637400000000000000000000000000000000000000000000000000",
          "blockHash": "0x070462506d61ba540225306d5db0c7dbd576fae8cd993f65503d136080b3b00a",
          "blockNumber": "0xc8a6",
          "blockTimestamp": "0x69d0ff72",
          "transactionHash": "0x33f81366bd595eaa594b3754b7d3d436ba01ea1999da4b7bcca5dff10a726771",
          "transactionIndex": "0x3",
          "logIndex": "0x2",
          "removed": false
        }
      ],
      "logsBloom": "0x04000000000000000000000000000000000000000000000000000000000000000000400000000000000000000000000000000000000000000000000000000000000000000000000000000000000000000000000000020000000000000008000000000000000000000000000000000000000000000000000000000000000000000000000000000000000000000000000000000000400000000000000000000000000000000000000000000100002000000000000000000000000080000000000000000000000000000000000000000000000000000000000000000000000000000000000000000000000000000000000000000000008000000000000000000000",
      "type": "0x0",
      "transactionHash": "0x33f81366bd595eaa594b3754b7d3d436ba01ea1999da4b7bcca5dff10a726771",
      "transactionIndex": "0x3",
      "blockHash": "0x070462506d61ba540225306d5db0c7dbd576fae8cd993f65503d136080b3b00a",
      "blockNumber": "0xc8a6",
      "gasUsed": "0x2aa91",
      "effectiveGasPrice": "0x3b9aca07",
      "blobGasPrice": "0x1",
      "from": "0xf39fd6e51aad88f6f4ce6ab8827279cfffb92266",
      "to": "0x021dbff4a864aa25c51f0ad2cd73266fde66199d",
      "contractAddress": null,
      "blockTimestamp": 1775304562
    },
    {
      "status": "0x1",
      "cumulativeGasUsed": "0x1cc181",
      "logs": [
        {
          "address": "0x021dbff4a864aa25c51f0ad2cd73266fde66199d",
          "topics": [
            "0x3c7a23361d520d8daf009aea25b729eb1c02a2e1473ee76319a2e3174e862ba6",
            "0x0000000000000000000000000000000000000000000000000000000000000003"
          ],
          "data": "0x000000000000000000000000000000000000000000000000000000000000006000000000000000000000000000000000000000000000000000000000000000a000000000000000000000000000000000000000000000000000000000000010040000000000000000000000000000000000000000000000000000000000000008476f6f644c656e6400000000000000000000000000000000000000000000000000000000000000000000000000000000000000000000000000000000000000046c656e6400000000000000000000000000000000000000000000000000000000",
          "blockHash": "0x070462506d61ba540225306d5db0c7dbd576fae8cd993f65503d136080b3b00a",
          "blockNumber": "0xc8a6",
          "blockTimestamp": "0x69d0ff72",
          "transactionHash": "0x541e8bec016da9394b3b8b5b1a74cc13b906c3beebd76be1324482898e46ac49",
          "transactionIndex": "0x4",
          "logIndex": "0x3",
          "removed": false
        }
      ],
      "logsBloom": "0x00000000000000000000000000000000000000000000000000000000000000000000400000000000000000000000000000000000020000000000000000000000000000000000000000000000000000000000000000020000000000000008000000000000000000000000000000000000000000000000000000000000000000000000000000000000000000000000000000000000400000000000000000000000000000000000000000000000002000000000000000800000000080000000400000000000000000000000000000000000000000000000000000000000000000000000000000000000000000000000000000000000000000000000000000000000",
      "type": "0x0",
      "transactionHash": "0x541e8bec016da9394b3b8b5b1a74cc13b906c3beebd76be1324482898e46ac49",
      "transactionIndex": "0x4",
      "blockHash": "0x070462506d61ba540225306d5db0c7dbd576fae8cd993f65503d136080b3b00a",
      "blockNumber": "0xc8a6",
      "gasUsed": "0x2aa49",
      "effectiveGasPrice": "0x3b9aca07",
      "blobGasPrice": "0x1",
      "from": "0xf39fd6e51aad88f6f4ce6ab8827279cfffb92266",
      "to": "0x021dbff4a864aa25c51f0ad2cd73266fde66199d",
      "contractAddress": null,
      "blockTimestamp": 1775304562
    },
    {
      "status": "0x1",
      "cumulativeGasUsed": "0x1f6bfa",
      "logs": [
        {
          "address": "0x021dbff4a864aa25c51f0ad2cd73266fde66199d",
          "topics": [
            "0x3c7a23361d520d8daf009aea25b729eb1c02a2e1473ee76319a2e3174e862ba6",
            "0x0000000000000000000000000000000000000000000000000000000000000004"
          ],
          "data": "0x000000000000000000000000000000000000000000000000000000000000006000000000000000000000000000000000000000000000000000000000000000a00000000000000000000000000000000000000000000000000000000000001005000000000000000000000000000000000000000000000000000000000000000a476f6f64537461626c65000000000000000000000000000000000000000000000000000000000000000000000000000000000000000000000000000000000006737461626c650000000000000000000000000000000000000000000000000000",
          "blockHash": "0x070462506d61ba540225306d5db0c7dbd576fae8cd993f65503d136080b3b00a",
          "blockNumber": "0xc8a6",
          "blockTimestamp": "0x69d0ff72",
          "transactionHash": "0x3f1059cc899e378cbae9b656a1c4bc085554d8ca303754f9bd33daf4ab19dcfa",
          "transactionIndex": "0x5",
          "logIndex": "0x4",
          "removed": false
        }
      ],
      "logsBloom": "0x00000000000000000000000000000000000000000000000000000000000000000000400000000000000000000000000000000000000000000000000000000000000000000000000000000000000000000000000000020000000000000008000008000000000000000000000000000000000000000000000000000000000000000000000000000000000000000000000000000000400000000000000000000000000000000000000000000000002000000000000000000000002080000000000000000000000000000000000000000000000000008000000000000000000000000000000000000000000000000000000000000000000000000000000000000000",
      "type": "0x0",
      "transactionHash": "0x3f1059cc899e378cbae9b656a1c4bc085554d8ca303754f9bd33daf4ab19dcfa",
      "transactionIndex": "0x5",
      "blockHash": "0x070462506d61ba540225306d5db0c7dbd576fae8cd993f65503d136080b3b00a",
      "blockNumber": "0xc8a6",
      "gasUsed": "0x2aa79",
      "effectiveGasPrice": "0x3b9aca07",
      "blobGasPrice": "0x1",
      "from": "0xf39fd6e51aad88f6f4ce6ab8827279cfffb92266",
      "to": "0x021dbff4a864aa25c51f0ad2cd73266fde66199d",
      "contractAddress": null,
      "blockTimestamp": 1775304562
    },
    {
      "status": "0x1",
      "cumulativeGasUsed": "0x221673",
      "logs": [
        {
          "address": "0x021dbff4a864aa25c51f0ad2cd73266fde66199d",
          "topics": [
            "0x3c7a23361d520d8daf009aea25b729eb1c02a2e1473ee76319a2e3174e862ba6",
            "0x0000000000000000000000000000000000000000000000000000000000000005"
          ],
          "data": "0x000000000000000000000000000000000000000000000000000000000000006000000000000000000000000000000000000000000000000000000000000000a00000000000000000000000000000000000000000000000000000000000001006000000000000000000000000000000000000000000000000000000000000000a476f6f6453746f636b7300000000000000000000000000000000000000000000000000000000000000000000000000000000000000000000000000000000000673746f636b730000000000000000000000000000000000000000000000000000",
          "blockHash": "0x070462506d61ba540225306d5db0c7dbd576fae8cd993f65503d136080b3b00a",
          "blockNumber": "0xc8a6",
          "blockTimestamp": "0x69d0ff72",
          "transactionHash": "0x57273a520853fe005d1862f24d6e9a6db77a92045f64ce32f79005ed0aa106e2",
          "transactionIndex": "0x6",
          "logIndex": "0x5",
          "removed": false
        }
      ],
      "logsBloom": "0x00000000000000000000000000000000000000000000000000000000000000000000400000000000000000000000000000000000000000000000000000000000000010000000000000000000000000000000000000020000000000000008000000000000000000000000000000000000000000000000000000000000000000000000000000000000000000000000001000000800400000000000000000000000000000000000000000000000002000000000000000000000000080000000000000000000000000000000000000000000000000000000000000000000000000000000000000000000000000000000000000000000000000000000000000000000",
      "type": "0x0",
      "transactionHash": "0x57273a520853fe005d1862f24d6e9a6db77a92045f64ce32f79005ed0aa106e2",
      "transactionIndex": "0x6",
      "blockHash": "0x070462506d61ba540225306d5db0c7dbd576fae8cd993f65503d136080b3b00a",
      "blockNumber": "0xc8a6",
      "gasUsed": "0x2aa79",
      "effectiveGasPrice": "0x3b9aca07",
      "blobGasPrice": "0x1",
      "from": "0xf39fd6e51aad88f6f4ce6ab8827279cfffb92266",
      "to": "0x021dbff4a864aa25c51f0ad2cd73266fde66199d",
      "contractAddress": null,
      "blockTimestamp": 1775304562
    },
    {
      "status": "0x1",
      "cumulativeGasUsed": "0x24c0ec",
      "logs": [
        {
          "address": "0x021dbff4a864aa25c51f0ad2cd73266fde66199d",
          "topics": [
            "0x3c7a23361d520d8daf009aea25b729eb1c02a2e1473ee76319a2e3174e862ba6",
            "0x0000000000000000000000000000000000000000000000000000000000000006"
          ],
          "data": "0x000000000000000000000000000000000000000000000000000000000000006000000000000000000000000000000000000000000000000000000000000000a00000000000000000000000000000000000000000000000000000000000001007000000000000000000000000000000000000000000000000000000000000000a476f6f644272696467650000000000000000000000000000000000000000000000000000000000000000000000000000000000000000000000000000000000066272696467650000000000000000000000000000000000000000000000000000",
          "blockHash": "0x070462506d61ba540225306d5db0c7dbd576fae8cd993f65503d136080b3b00a",
          "blockNumber": "0xc8a6",
          "blockTimestamp": "0x69d0ff72",
          "transactionHash": "0xf9208f4ada0f7208756707ed5bcc9ee6cc33eb8ec350e5b31fcbc456f205712d",
          "transactionIndex": "0x7",
          "logIndex": "0x6",
          "removed": false
        }
      ],
      "logsBloom": "0x00000000000000000000000000000000000000000000000000000000000000000000400000000000000000000000000000000000000400000000000000000000000000000000000000000000000000000000000000020000000000000008000000000000000000000000000000000000000000000000000000000000000000000000000400000000000000000000000000000000400000000000000000000000000000000000000000000000002000000000000000000000000080080000000000000000000000000000000000000000000000000000000000000000000000000000000000000000000000000000000000000000000000000000000000000000",
      "type": "0x0",
      "transactionHash": "0xf9208f4ada0f7208756707ed5bcc9ee6cc33eb8ec350e5b31fcbc456f205712d",
      "transactionIndex": "0x7",
      "blockHash": "0x070462506d61ba540225306d5db0c7dbd576fae8cd993f65503d136080b3b00a",
      "blockNumber": "0xc8a6",
      "gasUsed": "0x2aa79",
      "effectiveGasPrice": "0x3b9aca07",
      "blobGasPrice": "0x1",
      "from": "0xf39fd6e51aad88f6f4ce6ab8827279cfffb92266",
      "to": "0x021dbff4a864aa25c51f0ad2cd73266fde66199d",
      "contractAddress": null,
      "blockTimestamp": 1775304562
    },
    {
      "status": "0x1",
      "cumulativeGasUsed": "0x274902",
      "logs": [
        {
          "address": "0x021dbff4a864aa25c51f0ad2cd73266fde66199d",
          "topics": [
            "0xdf601dc9cab1949db7d829ded79c76070375083f98d23c3e5de99ff9fdab542a",
            "0x0000000000000000000000000000000000000000000000000000000000000000"
          ],
          "data": "0x0000000000000000000000000000000000000000000000f3f20b8dfa69d0000000000000000000000000000000000000000000000000005150ae84a8cdf000000000000000000000000000000000000000000000000000000000000000000096",
          "blockHash": "0x070462506d61ba540225306d5db0c7dbd576fae8cd993f65503d136080b3b00a",
          "blockNumber": "0xc8a6",
          "blockTimestamp": "0x69d0ff72",
          "transactionHash": "0xbae035bf820f2ce2097868c716c13729cfe5e42da1956f698c0537738aa4cefb",
          "transactionIndex": "0x8",
          "logIndex": "0x7",
          "removed": false
        }
      ],
      "logsBloom": "0x00000000000000000000000000000000000000000002000000000000000000000000400000000000000000000000000000000000000000000000000000000000000000000000000000000000000000000000000000028000000000000000000020000000020000000000000000000800000000000000000000000000000000000000000000000000000000000000000000000000400000000000000000000000000000000000000000000000000000000000000000000000000000000000000000000000000000000000000000000000000000000000000000000000000020000000000000000000000000000000000000000000000000000000000000000000",
      "type": "0x0",
      "transactionHash": "0xbae035bf820f2ce2097868c716c13729cfe5e42da1956f698c0537738aa4cefb",
      "transactionIndex": "0x8",
      "blockHash": "0x070462506d61ba540225306d5db0c7dbd576fae8cd993f65503d136080b3b00a",
      "blockNumber": "0xc8a6",
      "gasUsed": "0x28816",
      "effectiveGasPrice": "0x3b9aca07",
      "blobGasPrice": "0x1",
      "from": "0xf39fd6e51aad88f6f4ce6ab8827279cfffb92266",
      "to": "0x021dbff4a864aa25c51f0ad2cd73266fde66199d",
      "contractAddress": null,
      "blockTimestamp": 1775304562
    },
    {
      "status": "0x1",
      "cumulativeGasUsed": "0x2908b4",
      "logs": [
        {
          "address": "0x021dbff4a864aa25c51f0ad2cd73266fde66199d",
          "topics": [
            "0xdf601dc9cab1949db7d829ded79c76070375083f98d23c3e5de99ff9fdab542a",
            "0x0000000000000000000000000000000000000000000000000000000000000001"
          ],
          "data": "0x0000000000000000000000000000000000000000000000ad78ebc5ac62000000000000000000000000000000000000000000000000000039c9b8c817066800000000000000000000000000000000000000000000000000000000000000000050",
          "blockHash": "0x070462506d61ba540225306d5db0c7dbd576fae8cd993f65503d136080b3b00a",
          "blockNumber": "0xc8a6",
          "blockTimestamp": "0x69d0ff72",
          "transactionHash": "0x0d7c69580026a2f86018ec8b4533d2754685c34431fe29720367f40af1646504",
          "transactionIndex": "0x9",
          "logIndex": "0x8",
          "removed": false
        }
      ],
      "logsBloom": "0x00000000000000000000000000000000000000000002000000000000000000000000400000000000000000000000000000000000000000000000000000040000000000000000000000000000000000000000000000068000000000000000000020000000000000000000000000000000000000000000000000000000000000000000000000000000000000000000000000000000400000000000000000000000000000000000000000000000000000000000000000000000000000000000000000000000000000000000000000000000000000000000000000000000000040000000000000000000000000000000000000000000000000000000000000000000",
      "type": "0x0",
      "transactionHash": "0x0d7c69580026a2f86018ec8b4533d2754685c34431fe29720367f40af1646504",
      "transactionIndex": "0x9",
      "blockHash": "0x070462506d61ba540225306d5db0c7dbd576fae8cd993f65503d136080b3b00a",
      "blockNumber": "0xc8a6",
      "gasUsed": "0x1bfb2",
      "effectiveGasPrice": "0x3b9aca07",
      "blobGasPrice": "0x1",
      "from": "0xf39fd6e51aad88f6f4ce6ab8827279cfffb92266",
      "to": "0x021dbff4a864aa25c51f0ad2cd73266fde66199d",
      "contractAddress": null,
      "blockTimestamp": 1775304562
    },
    {
      "status": "0x1",
      "cumulativeGasUsed": "0x2ac872",
      "logs": [
        {
          "address": "0x021dbff4a864aa25c51f0ad2cd73266fde66199d",
          "topics": [
            "0xdf601dc9cab1949db7d829ded79c76070375083f98d23c3e5de99ff9fdab542a",
            "0x0000000000000000000000000000000000000000000000000000000000000002"
          ],
          "data": "0x00000000000000000000000000000000000000000000006194049f30f720000000000000000000000000000000000000000000000000002086ac351052600000000000000000000000000000000000000000000000000000000000000000003c",
          "blockHash": "0x070462506d61ba540225306d5db0c7dbd576fae8cd993f65503d136080b3b00a",
          "blockNumber": "0xc8a6",
          "blockTimestamp": "0x69d0ff72",
          "transactionHash": "0xeaf4704c188a6b2bad1a807ec22d83c88305ce71f77c93128496c1a723d866b2",
          "transactionIndex": "0xa",
          "logIndex": "0x9",
          "removed": false
        }
      ],
      "logsBloom": "0x04000000000000000000000000000000000000000002000000000000000000000000400000000000000000000000000000000000000000000000000000000000000000000000000000000000000000000000000000028000000000000000000020000000000000000000000000000000000000000000000000000000000000000000000000000000000000000000000000000000400000000000000000000000000000000000000000000100000000000000000000000000000000000000000000000000000000000000000000000000000000000000000000000000000000000000000000000000000000000000000000000000008000000000000000000000",
      "type": "0x0",
      "transactionHash": "0xeaf4704c188a6b2bad1a807ec22d83c88305ce71f77c93128496c1a723d866b2",
      "transactionIndex": "0xa",
      "blockHash": "0x070462506d61ba540225306d5db0c7dbd576fae8cd993f65503d136080b3b00a",
      "blockNumber": "0xc8a6",
      "gasUsed": "0x1bfbe",
      "effectiveGasPrice": "0x3b9aca07",
      "blobGasPrice": "0x1",
      "from": "0xf39fd6e51aad88f6f4ce6ab8827279cfffb92266",
      "to": "0x021dbff4a864aa25c51f0ad2cd73266fde66199d",
      "contractAddress": null,
      "blockTimestamp": 1775304562
    },
    {
      "status": "0x1",
      "cumulativeGasUsed": "0x2c8830",
      "logs": [
        {
          "address": "0x021dbff4a864aa25c51f0ad2cd73266fde66199d",
          "topics": [
            "0xdf601dc9cab1949db7d829ded79c76070375083f98d23c3e5de99ff9fdab542a",
            "0x0000000000000000000000000000000000000000000000000000000000000003"
          ],
          "data": "0x0000000000000000000000000000000000000000000000410d586a20a4c00000000000000000000000000000000000000000000000000015af1d78b58c4000000000000000000000000000000000000000000000000000000000000000000028",
          "blockHash": "0x070462506d61ba540225306d5db0c7dbd576fae8cd993f65503d136080b3b00a",
          "blockNumber": "0xc8a6",
          "blockTimestamp": "0x69d0ff72",
          "transactionHash": "0xb1044fd6d9f9df49676c9c15ee3c395071c38baa938a395aefae426be4228ee1",
          "transactionIndex": "0xb",
          "logIndex": "0xa",
          "removed": false
        }
      ],
      "logsBloom": "0x00000000000000000000000000000000000000000002000000000000000000000000400000000000000000000000000000000000020000000000000000000000000000000000000000000000000000000000000000028000000000000000000020000000000000000000000000000000000000000000000000000000000000000000000000000000000000000000000000000000400000000000000000000000000000000000000000000000000000000000000000800000000000000000400000000000000000000000000000000000000000000000000000000000000000000000000000000000000000000000000000000000000000000000000000000000",
      "type": "0x0",
      "transactionHash": "0xb1044fd6d9f9df49676c9c15ee3c395071c38baa938a395aefae426be4228ee1",
      "transactionIndex": "0xb",
      "blockHash": "0x070462506d61ba540225306d5db0c7dbd576fae8cd993f65503d136080b3b00a",
      "blockNumber": "0xc8a6",
      "gasUsed": "0x1bfbe",
      "effectiveGasPrice": "0x3b9aca07",
      "blobGasPrice": "0x1",
      "from": "0xf39fd6e51aad88f6f4ce6ab8827279cfffb92266",
      "to": "0x021dbff4a864aa25c51f0ad2cd73266fde66199d",
      "contractAddress": null,
      "blockTimestamp": 1775304562
    },
    {
      "status": "0x1",
      "cumulativeGasUsed": "0x2e47ee",
      "logs": [
        {
          "address": "0x021dbff4a864aa25c51f0ad2cd73266fde66199d",
          "topics": [
            "0xdf601dc9cab1949db7d829ded79c76070375083f98d23c3e5de99ff9fdab542a",
            "0x0000000000000000000000000000000000000000000000000000000000000004"
          ],
          "data": "0x000000000000000000000000000000000000000000000028a857425466f8000000000000000000000000000000000000000000000000000d8d726b7177a800000000000000000000000000000000000000000000000000000000000000000019",
          "blockHash": "0x070462506d61ba540225306d5db0c7dbd576fae8cd993f65503d136080b3b00a",
          "blockNumber": "0xc8a6",
          "blockTimestamp": "0x69d0ff72",
          "transactionHash": "0xbad4c1415069daec625ada68f6bdf5114f29e94052f30b240a188b2df38c10f3",
          "transactionIndex": "0xc",
          "logIndex": "0xb",
          "removed": false
        }
      ],
      "logsBloom": "0x00000000000000000000000000000000000000000002000000000000000000000000400000000000000000000000000000000000000000000000000000000000000000000000000000000000000000000000000000028000000000000000000028000000000000000000000000000000000000000000000000000000000000000000000000000000000000000000000000000000400000000000000000000000000000000000000000000000000000000000000000000000002000000000000000000000000000000000000000000000000000008000000000000000000000000000000000000000000000000000000000000000000000000000000000000000",
      "type": "0x0",
      "transactionHash": "0xbad4c1415069daec625ada68f6bdf5114f29e94052f30b240a188b2df38c10f3",
      "transactionIndex": "0xc",
      "blockHash": "0x070462506d61ba540225306d5db0c7dbd576fae8cd993f65503d136080b3b00a",
      "blockNumber": "0xc8a6",
      "gasUsed": "0x1bfbe",
      "effectiveGasPrice": "0x3b9aca07",
      "blobGasPrice": "0x1",
      "from": "0xf39fd6e51aad88f6f4ce6ab8827279cfffb92266",
      "to": "0x021dbff4a864aa25c51f0ad2cd73266fde66199d",
      "contractAddress": null,
      "blockTimestamp": 1775304562
    },
    {
      "status": "0x1",
      "cumulativeGasUsed": "0x3007ac",
      "logs": [
        {
          "address": "0x021dbff4a864aa25c51f0ad2cd73266fde66199d",
          "topics": [
            "0xdf601dc9cab1949db7d829ded79c76070375083f98d23c3e5de99ff9fdab542a",
            "0x0000000000000000000000000000000000000000000000000000000000000005"
          ],
          "data": "0x000000000000000000000000000000000000000000000038ebad5cdc90280000000000000000000000000000000000000000000000000012f939c99edab800000000000000000000000000000000000000000000000000000000000000000023",
          "blockHash": "0x070462506d61ba540225306d5db0c7dbd576fae8cd993f65503d136080b3b00a",
          "blockNumber": "0xc8a6",
          "blockTimestamp": "0x69d0ff72",
          "transactionHash": "0x08da77a1d5aa5c5b752f21ecd56dd4ef516899b040cb3cbd48cc8905a4184596",
          "transactionIndex": "0xd",
          "logIndex": "0xc",
          "removed": false
        }
      ],
      "logsBloom": "0x00000000000000000000000000000000000000000002000000000000000000000000400000000000000000000000000000000000000000000000000000000000000010000000000000000000000000000000000000028000000000000000000020000000000000000000000000000000000000000000000000000000000000000000000000000000000000000000001000000800400000000000000000000000000000000000000000000000000000000000000000000000000000000000000000000000000000000000000000000000000000000000000000000000000000000000000000000000000000000000000000000000000000000000000000000000",
      "type": "0x0",
      "transactionHash": "0x08da77a1d5aa5c5b752f21ecd56dd4ef516899b040cb3cbd48cc8905a4184596",
      "transactionIndex": "0xd",
      "blockHash": "0x070462506d61ba540225306d5db0c7dbd576fae8cd993f65503d136080b3b00a",
      "blockNumber": "0xc8a6",
      "gasUsed": "0x1bfbe",
      "effectiveGasPrice": "0x3b9aca07",
      "blobGasPrice": "0x1",
      "from": "0xf39fd6e51aad88f6f4ce6ab8827279cfffb92266",
      "to": "0x021dbff4a864aa25c51f0ad2cd73266fde66199d",
      "contractAddress": null,
      "blockTimestamp": 1775304562
    },
    {
      "status": "0x1",
      "cumulativeGasUsed": "0x31c76a",
      "logs": [
        {
          "address": "0x021dbff4a864aa25c51f0ad2cd73266fde66199d",
          "topics": [
            "0xdf601dc9cab1949db7d829ded79c76070375083f98d23c3e5de99ff9fdab542a",
            "0x0000000000000000000000000000000000000000000000000000000000000006"
          ],
          "data": "0x00000000000000000000000000000000000000000000002086ac35105260000000000000000000000000000000000000000000000000000ad78ebc5ac62000000000000000000000000000000000000000000000000000000000000000000014",
          "blockHash": "0x070462506d61ba540225306d5db0c7dbd576fae8cd993f65503d136080b3b00a",
          "blockNumber": "0xc8a6",
          "blockTimestamp": "0x69d0ff72",
          "transactionHash": "0xd99baf124fc681fd609d914e9ab094cbe06ae64b86106a3e4fb115e8c1f80345",
          "transactionIndex": "0xe",
          "logIndex": "0xd",
          "removed": false
        }
      ],
      "logsBloom": "0x00000000000000000000000000000000000000000002000000000000000000000000400000000000000000000000000000000000000400000000000000000000000000000000000000000000000000000000000000028000000000000000000020000000000000000000000000000000000000000000000000000000000000000000000400000000000000000000000000000000400000000000000000000000000000000000000000000000000000000000000000000000000000080000000000000000000000000000000000000000000000000000000000000000000000000000000000000000000000000000000000000000000000000000000000000000",
      "type": "0x0",
      "transactionHash": "0xd99baf124fc681fd609d914e9ab094cbe06ae64b86106a3e4fb115e8c1f80345",
      "transactionIndex": "0xe",
      "blockHash": "0x070462506d61ba540225306d5db0c7dbd576fae8cd993f65503d136080b3b00a",
      "blockNumber": "0xc8a6",
      "gasUsed": "0x1bfbe",
      "effectiveGasPrice": "0x3b9aca07",
      "blobGasPrice": "0x1",
      "from": "0xf39fd6e51aad88f6f4ce6ab8827279cfffb92266",
      "to": "0x021dbff4a864aa25c51f0ad2cd73266fde66199d",
      "contractAddress": null,
      "blockTimestamp": 1775304562
    },
    {
      "status": "0x1",
      "cumulativeGasUsed": "0x343429",
      "logs": [
        {
          "address": "0x021dbff4a864aa25c51f0ad2cd73266fde66199d",
          "topics": [
            "0xd5ac1c115b9611e0b070be9e826d0a3a424eb16689c233d158ef9d98a3b0dbbe",
            "0x0000000000000000000000000000000000000000000000000000000000000000"
          ],
          "data": "0x0000000000000000000000000000000000000000000000ecae6bebf0cb7800000000000000000000000000000000000000000000000002c627053139b1300000",
          "blockHash": "0x070462506d61ba540225306d5db0c7dbd576fae8cd993f65503d136080b3b00a",
          "blockNumber": "0xc8a6",
          "blockTimestamp": "0x69d0ff72",
          "transactionHash": "0x29c17ea6af6a203c595c5c97c69f3e8c1d442942e55fdc7a177f05cf8aaafcb2",
          "transactionIndex": "0xf",
          "logIndex": "0xe",
          "removed": false
        }
      ],
      "logsBloom": "0x00000000000000000000000000000000000000000000000000000000000000000000400000000000000000000000000000000000000000000000000000000000000000000000000000000000000000000000000000020000000000000000000000000000020000000000010000000800000000000000000000000000000000000000000000000000000000000000000000000000400000000000000000000000000000000000000000000000000000000000000000000000000000000000200000002000000000000000000000000000000000000000000000000000000020000000000000000000000000000000000000000000000000000000000000000000",
      "type": "0x0",
      "transactionHash": "0x29c17ea6af6a203c595c5c97c69f3e8c1d442942e55fdc7a177f05cf8aaafcb2",
      "transactionIndex": "0xf",
      "blockHash": "0x070462506d61ba540225306d5db0c7dbd576fae8cd993f65503d136080b3b00a",
      "blockNumber": "0xc8a6",
      "gasUsed": "0x26cbf",
      "effectiveGasPrice": "0x3b9aca07",
      "blobGasPrice": "0x1",
      "from": "0xf39fd6e51aad88f6f4ce6ab8827279cfffb92266",
      "to": "0x021dbff4a864aa25c51f0ad2cd73266fde66199d",
      "contractAddress": null,
      "blockTimestamp": 1775304562
    }
  ],
  "libraries": [],
  "pending": [],
  "returns": {},
  "timestamp": 1775304212909,
  "chain": 42069,
  "commit": "f74de0f"
}