{
  "transactions": [
    {
      "hash": "0x86c8815b8af0a00e594f014d3384868217f58910ee495972cd1ea29a7bb330c8",
      "transactionType": "CREATE",
      "contractName": "LendingStrategy",
      "contractAddress": "0xdb731eaafa0ffa7854a24c2379585a85d768ed5c",
      "function": null,
      "arguments": [
        "0x6533158b042775e2FdFeF3cA1a782EFDbB8EB9b1",
        "0xdB012DD3E3345e2f8D23c0F3cbCb2D94f430Be8C",
        "0x532802f2F9E0e3EE9d5Ba70C35E1F43C0498772D",
        "0x3b21b7B09dd61e8cd9580ef516b3BBB80E8bf19F"
      ],
      "transaction": {
        "from": "0xf39fd6e51aad88f6f4ce6ab8827279cfffb92266",
        "gas": "0xd7c5d",
        "value": "0x0",
        "input": "0x60a0346100db57601f610b1338819003918201601f19168301916001600160401b038311848410176100df578084926080946040528339810103126100db57610047816100f3565b90610054602082016100f3565b61006c6060610065604085016100f3565b93016100f3565b608093909352600180546001600160a01b039283166001600160a01b03199182161790915560028054938316938216939093179092555f8054919093169116179055604051610a0b90816101088239608051818181610183015281816102ec015281816106f701526107ae0152f35b5f80fd5b634e487b7160e01b5f52604160045260245ffd5b51906001600160a01b03821682036100db5756fe6080806040526004361015610012575f80fd5b5f905f3560e01c90816301e1d114146108e3575080632e1a7d4d1461072657806338d52e0f146106e25780634641257d146105c95780635c975abb146105a75780636817031b146104c757806376ffb9bd1461049f578063b6b55f2514610295578063b786e1e51461026c578063db2e21bc146100e9578063fbfa77cf146100c25763ff50abdc146100a2575f80fd5b346100bf57806003193601126100bf576020600354604051908152f35b80fd5b50346100bf57806003193601126100bf57546040516001600160a01b039091168152602090f35b50346100bf57806003193601126100bf5780546001600160a01b03163381900361025d57602491600160ff196004541617600455602060018060a01b0360025416604051948580926370a0823160e01b82523060048301525afa92831561021c578193610229575b50809183610169575b60208383600355604051908152f35b600154604051631a4ca37b60e21b81526001600160a01b037f000000000000000000000000000000000000000000000000000000000000000081166004830152602482019690965291851660448301529093919250602091849160649183918691165af1801561021c5781906101e5575b60209250905f61015a565b506020823d602011610214575b816101ff60209383610966565b8101031261021057602091516101da565b5f80fd5b3d91506101f2565b50604051903d90823e3d90fd5b9092506020813d602011610255575b8161024560209383610966565b810103126102105751915f610151565b3d9150610238565b6362df054560e01b8252600482fd5b50346100bf57806003193601126100bf576001546040516001600160a01b039091168152602090f35b5034610210576020366003190112610210575f54600435906001600160a01b0316338190036104905760ff60045416610481576040516323b872dd60e01b81526004810191909152306024820152604481018290527f0000000000000000000000000000000000000000000000000000000000000000906001600160a01b0382166020826064815f855af190811561042e575f92602092610466575b5060015460405163095ea7b360e01b81526001600160a01b0390911660048201526024810186905292839160449183915af1801561042e57610439575b506001546001600160a01b0316803b1561021057604051638b2a4df560e01b81526001600160a01b03929092166004830152602482018390523060448301525f908290606490829084905af1801561042e57610419575b50600354818101809111610405577f2a89b2e3d580398d6dc2db5e0f336b52602bbaa51afa9bb5cdf59239cf0d2bea91602091600355604051908152a180f35b634e487b7160e01b83526011600452602483fd5b6104269192505f90610966565b5f905f6103c5565b6040513d5f823e3d90fd5b61045a9060203d60201161045f575b6104528183610966565b8101906109bd565b61036e565b503d610448565b61047c90833d851161045f576104528183610966565b610331565b631309a56360e01b5f5260045ffd5b6362df054560e01b5f5260045ffd5b34610210575f366003190112610210576002546040516001600160a01b039091168152602090f35b34610210576020366003190112610210576004356001600160a01b03811690819003610210575f546001600160a01b038116610557578115610512576001600160a01b031916175f55005b60405162461bcd60e51b815260206004820152601b60248201527f4c656e64696e6753747261746567793a207a65726f207661756c7400000000006044820152606490fd5b60405162461bcd60e51b815260206004820152602260248201527f4c656e64696e6753747261746567793a207661756c7420616c72656164792073604482015261195d60f21b6064820152608490fd5b34610210575f36600319011261021057602060ff600454166040519015158152f35b34610210575f366003190112610210575f546001600160a01b03163303610490576002546040516370a0823160e01b8152306004820152905f908190602090849060249082906001600160a01b03165afa91821561042e575f926106ad575b60035460409450808411156106845750506106456003548361099c565b916003555b7ffa07446fad45314351eb89109a154880278451332bb87f1824d435fe58da5939838051848152836020820152a182519182526020820152f35b8084929410610695575b505061064a565b819250906106a29161099c565b90600355838061068e565b91506020833d6020116106da575b816106c860209383610966565b81010312610210576040925191610628565b3d91506106bb565b34610210575f366003190112610210576040517f00000000000000000000000000000000000000000000000000000000000000006001600160a01b03168152602090f35b34610210576020366003190112610210575f54600435906001600160a01b031633819003610490576002546040516370a0823160e01b8152306004820152908390602090839060249082906001600160a01b03165afa91821561042e575f926108a7575b50928160209392610802951161089f575b50600154604051631a4ca37b60e21b81527f00000000000000000000000000000000000000000000000000000000000000006001600160a01b03908116600483015260248201939093529282166044840152919384929091169082905f9082906064820190565b03925af1801561042e575f9061086c575b60035460209250818181111561085b5750505f6003555b7f430648de173157e069201c943adb2d4e340e7cf5b27b1b09c9cb852f03d63b5682604051838152a1604051908152f35b6108649161099c565b60035561082a565b506020813d602011610897575b8161088660209383610966565b810103126102105760209051610813565b3d9150610879565b90508461079b565b929150926020833d6020116108db575b816108c460209383610966565b81010312610210579151919290919061080261078a565b3d91506108b7565b34610210575f366003190112610210576002546370a0823160e01b8252306004830152602090829060249082906001600160a01b03165afa801561042e575f90610933575b602090604051908152f35b506020813d60201161095e575b8161094d60209383610966565b810103126102105760209051610928565b3d9150610940565b90601f8019910116810190811067ffffffffffffffff82111761098857604052565b634e487b7160e01b5f52604160045260245ffd5b919082039182116109a957565b634e487b7160e01b5f52601160045260245ffd5b9081602091031261021057518015158103610210579056fea26469706673582212203a7ed81f030eeddb2d62edaaef9455fccebabe67304b92ee7fa180f9e4a86b6f64736f6c634300082100330000000000000000000000006533158b042775e2fdfef3ca1a782efdbb8eb9b1000000000000000000000000db012dd3e3345e2f8d23c0f3cbcb2d94f430be8c000000000000000000000000532802f2f9e0e3ee9d5ba70c35e1f43c0498772d0000000000000000000000003b21b7b09dd61e8cd9580ef516b3bbb80e8bf19f",
        "nonce": "0x39e",
        "chainId": "0xa455"
      },
      "additionalContracts": [],
      "isFixedGasLimit": false
    },
    {
      "hash": "0x618d0efbb095fde14073f9d90f3ff6e39f256802cb4fc6aa7dcfa6073ca881dc",
      "transactionType": "CREATE",
      "contractName": "LendingStrategy",
      "contractAddress": "0x335796f7a0f72368d1588839e38f163d90c92c80",
      "function": null,
      "arguments": [
        "0x6533158b042775e2FdFeF3cA1a782EFDbB8EB9b1",
        "0xdB012DD3E3345e2f8D23c0F3cbCb2D94f430Be8C",
        "0x532802f2F9E0e3EE9d5Ba70C35E1F43C0498772D",
        "0xe3973b9dAB8212e208612B435fEEad084D71FFF1"
      ],
      "transaction": {
        "from": "0xf39fd6e51aad88f6f4ce6ab8827279cfffb92266",
        "gas": "0xd7c5d",
        "value": "0x0",
        "input": "0x60a0346100db57601f610b1338819003918201601f19168301916001600160401b038311848410176100df578084926080946040528339810103126100db57610047816100f3565b90610054602082016100f3565b61006c6060610065604085016100f3565b93016100f3565b608093909352600180546001600160a01b039283166001600160a01b03199182161790915560028054938316938216939093179092555f8054919093169116179055604051610a0b90816101088239608051818181610183015281816102ec015281816106f701526107ae0152f35b5f80fd5b634e487b7160e01b5f52604160045260245ffd5b51906001600160a01b03821682036100db5756fe6080806040526004361015610012575f80fd5b5f905f3560e01c90816301e1d114146108e3575080632e1a7d4d1461072657806338d52e0f146106e25780634641257d146105c95780635c975abb146105a75780636817031b146104c757806376ffb9bd1461049f578063b6b55f2514610295578063b786e1e51461026c578063db2e21bc146100e9578063fbfa77cf146100c25763ff50abdc146100a2575f80fd5b346100bf57806003193601126100bf576020600354604051908152f35b80fd5b50346100bf57806003193601126100bf57546040516001600160a01b039091168152602090f35b50346100bf57806003193601126100bf5780546001600160a01b03163381900361025d57602491600160ff196004541617600455602060018060a01b0360025416604051948580926370a0823160e01b82523060048301525afa92831561021c578193610229575b50809183610169575b60208383600355604051908152f35b600154604051631a4ca37b60e21b81526001600160a01b037f000000000000000000000000000000000000000000000000000000000000000081166004830152602482019690965291851660448301529093919250602091849160649183918691165af1801561021c5781906101e5575b60209250905f61015a565b506020823d602011610214575b816101ff60209383610966565b8101031261021057602091516101da565b5f80fd5b3d91506101f2565b50604051903d90823e3d90fd5b9092506020813d602011610255575b8161024560209383610966565b810103126102105751915f610151565b3d9150610238565b6362df054560e01b8252600482fd5b50346100bf57806003193601126100bf576001546040516001600160a01b039091168152602090f35b5034610210576020366003190112610210575f54600435906001600160a01b0316338190036104905760ff60045416610481576040516323b872dd60e01b81526004810191909152306024820152604481018290527f0000000000000000000000000000000000000000000000000000000000000000906001600160a01b0382166020826064815f855af190811561042e575f92602092610466575b5060015460405163095ea7b360e01b81526001600160a01b0390911660048201526024810186905292839160449183915af1801561042e57610439575b506001546001600160a01b0316803b1561021057604051638b2a4df560e01b81526001600160a01b03929092166004830152602482018390523060448301525f908290606490829084905af1801561042e57610419575b50600354818101809111610405577f2a89b2e3d580398d6dc2db5e0f336b52602bbaa51afa9bb5cdf59239cf0d2bea91602091600355604051908152a180f35b634e487b7160e01b83526011600452602483fd5b6104269192505f90610966565b5f905f6103c5565b6040513d5f823e3d90fd5b61045a9060203d60201161045f575b6104528183610966565b8101906109bd565b61036e565b503d610448565b61047c90833d851161045f576104528183610966565b610331565b631309a56360e01b5f5260045ffd5b6362df054560e01b5f5260045ffd5b34610210575f366003190112610210576002546040516001600160a01b039091168152602090f35b34610210576020366003190112610210576004356001600160a01b03811690819003610210575f546001600160a01b038116610557578115610512576001600160a01b031916175f55005b60405162461bcd60e51b815260206004820152601b60248201527f4c656e64696e6753747261746567793a207a65726f207661756c7400000000006044820152606490fd5b60405162461bcd60e51b815260206004820152602260248201527f4c656e64696e6753747261746567793a207661756c7420616c72656164792073604482015261195d60f21b6064820152608490fd5b34610210575f36600319011261021057602060ff600454166040519015158152f35b34610210575f366003190112610210575f546001600160a01b03163303610490576002546040516370a0823160e01b8152306004820152905f908190602090849060249082906001600160a01b03165afa91821561042e575f926106ad575b60035460409450808411156106845750506106456003548361099c565b916003555b7ffa07446fad45314351eb89109a154880278451332bb87f1824d435fe58da5939838051848152836020820152a182519182526020820152f35b8084929410610695575b505061064a565b819250906106a29161099c565b90600355838061068e565b91506020833d6020116106da575b816106c860209383610966565b81010312610210576040925191610628565b3d91506106bb565b34610210575f366003190112610210576040517f00000000000000000000000000000000000000000000000000000000000000006001600160a01b03168152602090f35b34610210576020366003190112610210575f54600435906001600160a01b031633819003610490576002546040516370a0823160e01b8152306004820152908390602090839060249082906001600160a01b03165afa91821561042e575f926108a7575b50928160209392610802951161089f575b50600154604051631a4ca37b60e21b81527f00000000000000000000000000000000000000000000000000000000000000006001600160a01b03908116600483015260248201939093529282166044840152919384929091169082905f9082906064820190565b03925af1801561042e575f9061086c575b60035460209250818181111561085b5750505f6003555b7f430648de173157e069201c943adb2d4e340e7cf5b27b1b09c9cb852f03d63b5682604051838152a1604051908152f35b6108649161099c565b60035561082a565b506020813d602011610897575b8161088660209383610966565b810103126102105760209051610813565b3d9150610879565b90508461079b565b929150926020833d6020116108db575b816108c460209383610966565b81010312610210579151919290919061080261078a565b3d91506108b7565b34610210575f366003190112610210576002546370a0823160e01b8252306004830152602090829060249082906001600160a01b03165afa801561042e575f90610933575b602090604051908152f35b506020813d60201161095e575b8161094d60209383610966565b810103126102105760209051610928565b3d9150610940565b90601f8019910116810190811067ffffffffffffffff82111761098857604052565b634e487b7160e01b5f52604160045260245ffd5b919082039182116109a957565b634e487b7160e01b5f52601160045260245ffd5b9081602091031261021057518015158103610210579056fea26469706673582212203a7ed81f030eeddb2d62edaaef9455fccebabe67304b92ee7fa180f9e4a86b6f64736f6c634300082100330000000000000000000000006533158b042775e2fdfef3ca1a782efdbb8eb9b1000000000000000000000000db012dd3e3345e2f8d23c0f3cbcb2d94f430be8c000000000000000000000000532802f2f9e0e3ee9d5ba70c35e1f43c0498772d000000000000000000000000e3973b9dab8212e208612b435feead084d71fff1",
        "nonce": "0x39f",
        "chainId": "0xa455"
      },
      "additionalContracts": [],
      "isFixedGasLimit": false
    },
    {
      "hash": "0xe7abab437a76a12faea32a5a088f686c512ed2c28e5fd598effe562ef493ee50",
      "transactionType": "CREATE",
      "contractName": "LendingStrategy",
      "contractAddress": "0xa86582ad5e80abc19f95f8a9fb3905cda0dabd59",
      "function": null,
      "arguments": [
        "0x6533158b042775e2FdFeF3cA1a782EFDbB8EB9b1",
        "0xdB012DD3E3345e2f8D23c0F3cbCb2D94f430Be8C",
        "0x532802f2F9E0e3EE9d5Ba70C35E1F43C0498772D",
        "0xA38995cFe225BEA5508D379e61099927eA2270c7"
      ],
      "transaction": {
        "from": "0xf39fd6e51aad88f6f4ce6ab8827279cfffb92266",
        "gas": "0xd7c5d",
        "value": "0x0",
        "input": "0x60a0346100db57601f610b1338819003918201601f19168301916001600160401b038311848410176100df578084926080946040528339810103126100db57610047816100f3565b90610054602082016100f3565b61006c6060610065604085016100f3565b93016100f3565b608093909352600180546001600160a01b039283166001600160a01b03199182161790915560028054938316938216939093179092555f8054919093169116179055604051610a0b90816101088239608051818181610183015281816102ec015281816106f701526107ae0152f35b5f80fd5b634e487b7160e01b5f52604160045260245ffd5b51906001600160a01b03821682036100db5756fe6080806040526004361015610012575f80fd5b5f905f3560e01c90816301e1d114146108e3575080632e1a7d4d1461072657806338d52e0f146106e25780634641257d146105c95780635c975abb146105a75780636817031b146104c757806376ffb9bd1461049f578063b6b55f2514610295578063b786e1e51461026c578063db2e21bc146100e9578063fbfa77cf146100c25763ff50abdc146100a2575f80fd5b346100bf57806003193601126100bf576020600354604051908152f35b80fd5b50346100bf57806003193601126100bf57546040516001600160a01b039091168152602090f35b50346100bf57806003193601126100bf5780546001600160a01b03163381900361025d57602491600160ff196004541617600455602060018060a01b0360025416604051948580926370a0823160e01b82523060048301525afa92831561021c578193610229575b50809183610169575b60208383600355604051908152f35b600154604051631a4ca37b60e21b81526001600160a01b037f000000000000000000000000000000000000000000000000000000000000000081166004830152602482019690965291851660448301529093919250602091849160649183918691165af1801561021c5781906101e5575b60209250905f61015a565b506020823d602011610214575b816101ff60209383610966565b8101031261021057602091516101da565b5f80fd5b3d91506101f2565b50604051903d90823e3d90fd5b9092506020813d602011610255575b8161024560209383610966565b810103126102105751915f610151565b3d9150610238565b6362df054560e01b8252600482fd5b50346100bf57806003193601126100bf576001546040516001600160a01b039091168152602090f35b5034610210576020366003190112610210575f54600435906001600160a01b0316338190036104905760ff60045416610481576040516323b872dd60e01b81526004810191909152306024820152604481018290527f0000000000000000000000000000000000000000000000000000000000000000906001600160a01b0382166020826064815f855af190811561042e575f92602092610466575b5060015460405163095ea7b360e01b81526001600160a01b0390911660048201526024810186905292839160449183915af1801561042e57610439575b506001546001600160a01b0316803b1561021057604051638b2a4df560e01b81526001600160a01b03929092166004830152602482018390523060448301525f908290606490829084905af1801561042e57610419575b50600354818101809111610405577f2a89b2e3d580398d6dc2db5e0f336b52602bbaa51afa9bb5cdf59239cf0d2bea91602091600355604051908152a180f35b634e487b7160e01b83526011600452602483fd5b6104269192505f90610966565b5f905f6103c5565b6040513d5f823e3d90fd5b61045a9060203d60201161045f575b6104528183610966565b8101906109bd565b61036e565b503d610448565b61047c90833d851161045f576104528183610966565b610331565b631309a56360e01b5f5260045ffd5b6362df054560e01b5f5260045ffd5b34610210575f366003190112610210576002546040516001600160a01b039091168152602090f35b34610210576020366003190112610210576004356001600160a01b03811690819003610210575f546001600160a01b038116610557578115610512576001600160a01b031916175f55005b60405162461bcd60e51b815260206004820152601b60248201527f4c656e64696e6753747261746567793a207a65726f207661756c7400000000006044820152606490fd5b60405162461bcd60e51b815260206004820152602260248201527f4c656e64696e6753747261746567793a207661756c7420616c72656164792073604482015261195d60f21b6064820152608490fd5b34610210575f36600319011261021057602060ff600454166040519015158152f35b34610210575f366003190112610210575f546001600160a01b03163303610490576002546040516370a0823160e01b8152306004820152905f908190602090849060249082906001600160a01b03165afa91821561042e575f926106ad575b60035460409450808411156106845750506106456003548361099c565b916003555b7ffa07446fad45314351eb89109a154880278451332bb87f1824d435fe58da5939838051848152836020820152a182519182526020820152f35b8084929410610695575b505061064a565b819250906106a29161099c565b90600355838061068e565b91506020833d6020116106da575b816106c860209383610966565b81010312610210576040925191610628565b3d91506106bb565b34610210575f366003190112610210576040517f00000000000000000000000000000000000000000000000000000000000000006001600160a01b03168152602090f35b34610210576020366003190112610210575f54600435906001600160a01b031633819003610490576002546040516370a0823160e01b8152306004820152908390602090839060249082906001600160a01b03165afa91821561042e575f926108a7575b50928160209392610802951161089f575b50600154604051631a4ca37b60e21b81527f00000000000000000000000000000000000000000000000000000000000000006001600160a01b03908116600483015260248201939093529282166044840152919384929091169082905f9082906064820190565b03925af1801561042e575f9061086c575b60035460209250818181111561085b5750505f6003555b7f430648de173157e069201c943adb2d4e340e7cf5b27b1b09c9cb852f03d63b5682604051838152a1604051908152f35b6108649161099c565b60035561082a565b506020813d602011610897575b8161088660209383610966565b810103126102105760209051610813565b3d9150610879565b90508461079b565b929150926020833d6020116108db575b816108c460209383610966565b81010312610210579151919290919061080261078a565b3d91506108b7565b34610210575f366003190112610210576002546370a0823160e01b8252306004830152602090829060249082906001600160a01b03165afa801561042e575f90610933575b602090604051908152f35b506020813d60201161095e575b8161094d60209383610966565b810103126102105760209051610928565b3d9150610940565b90601f8019910116810190811067ffffffffffffffff82111761098857604052565b634e487b7160e01b5f52604160045260245ffd5b919082039182116109a957565b634e487b7160e01b5f52601160045260245ffd5b9081602091031261021057518015158103610210579056fea26469706673582212203a7ed81f030eeddb2d62edaaef9455fccebabe67304b92ee7fa180f9e4a86b6f64736f6c634300082100330000000000000000000000006533158b042775e2fdfef3ca1a782efdbb8eb9b1000000000000000000000000db012dd3e3345e2f8d23c0f3cbcb2d94f430be8c000000000000000000000000532802f2f9e0e3ee9d5ba70c35e1f43c0498772d000000000000000000000000a38995cfe225bea5508d379e61099927ea2270c7",
        "nonce": "0x3a0",
        "chainId": "0xa455"
      },
      "additionalContracts": [],
      "isFixedGasLimit": false
    },
    {
      "hash": "0x860d32c0c5c11b3d2f1a3c20ab202c3919a812af72a0ca51edd453f5f17bdf58",
      "transactionType": "CREATE",
      "contractName": "LendingStrategy",
      "contractAddress": "0x97915c43511f8cb4fbe7ea03b96eee940ec4af12",
      "function": null,
      "arguments": [
        "0x6533158b042775e2FdFeF3cA1a782EFDbB8EB9b1",
        "0xdB012DD3E3345e2f8D23c0F3cbCb2D94f430Be8C",
        "0x532802f2F9E0e3EE9d5Ba70C35E1F43C0498772D",
        "0x47627C9aBDdBcdE5f78beE76Ec7Cb8E933c26218"
      ],
      "transaction": {
        "from": "0xf39fd6e51aad88f6f4ce6ab8827279cfffb92266",
        "gas": "0xd7c5d",
        "value": "0x0",
        "input": "0x60a0346100db57601f610b1338819003918201601f19168301916001600160401b038311848410176100df578084926080946040528339810103126100db57610047816100f3565b90610054602082016100f3565b61006c6060610065604085016100f3565b93016100f3565b608093909352600180546001600160a01b039283166001600160a01b03199182161790915560028054938316938216939093179092555f8054919093169116179055604051610a0b90816101088239608051818181610183015281816102ec015281816106f701526107ae0152f35b5f80fd5b634e487b7160e01b5f52604160045260245ffd5b51906001600160a01b03821682036100db5756fe6080806040526004361015610012575f80fd5b5f905f3560e01c90816301e1d114146108e3575080632e1a7d4d1461072657806338d52e0f146106e25780634641257d146105c95780635c975abb146105a75780636817031b146104c757806376ffb9bd1461049f578063b6b55f2514610295578063b786e1e51461026c578063db2e21bc146100e9578063fbfa77cf146100c25763ff50abdc146100a2575f80fd5b346100bf57806003193601126100bf576020600354604051908152f35b80fd5b50346100bf57806003193601126100bf57546040516001600160a01b039091168152602090f35b50346100bf57806003193601126100bf5780546001600160a01b03163381900361025d57602491600160ff196004541617600455602060018060a01b0360025416604051948580926370a0823160e01b82523060048301525afa92831561021c578193610229575b50809183610169575b60208383600355604051908152f35b600154604051631a4ca37b60e21b81526001600160a01b037f000000000000000000000000000000000000000000000000000000000000000081166004830152602482019690965291851660448301529093919250602091849160649183918691165af1801561021c5781906101e5575b60209250905f61015a565b506020823d602011610214575b816101ff60209383610966565b8101031261021057602091516101da565b5f80fd5b3d91506101f2565b50604051903d90823e3d90fd5b9092506020813d602011610255575b8161024560209383610966565b810103126102105751915f610151565b3d9150610238565b6362df054560e01b8252600482fd5b50346100bf57806003193601126100bf576001546040516001600160a01b039091168152602090f35b5034610210576020366003190112610210575f54600435906001600160a01b0316338190036104905760ff60045416610481576040516323b872dd60e01b81526004810191909152306024820152604481018290527f0000000000000000000000000000000000000000000000000000000000000000906001600160a01b0382166020826064815f855af190811561042e575f92602092610466575b5060015460405163095ea7b360e01b81526001600160a01b0390911660048201526024810186905292839160449183915af1801561042e57610439575b506001546001600160a01b0316803b1561021057604051638b2a4df560e01b81526001600160a01b03929092166004830152602482018390523060448301525f908290606490829084905af1801561042e57610419575b50600354818101809111610405577f2a89b2e3d580398d6dc2db5e0f336b52602bbaa51afa9bb5cdf59239cf0d2bea91602091600355604051908152a180f35b634e487b7160e01b83526011600452602483fd5b6104269192505f90610966565b5f905f6103c5565b6040513d5f823e3d90fd5b61045a9060203d60201161045f575b6104528183610966565b8101906109bd565b61036e565b503d610448565b61047c90833d851161045f576104528183610966565b610331565b631309a56360e01b5f5260045ffd5b6362df054560e01b5f5260045ffd5b34610210575f366003190112610210576002546040516001600160a01b039091168152602090f35b34610210576020366003190112610210576004356001600160a01b03811690819003610210575f546001600160a01b038116610557578115610512576001600160a01b031916175f55005b60405162461bcd60e51b815260206004820152601b60248201527f4c656e64696e6753747261746567793a207a65726f207661756c7400000000006044820152606490fd5b60405162461bcd60e51b815260206004820152602260248201527f4c656e64696e6753747261746567793a207661756c7420616c72656164792073604482015261195d60f21b6064820152608490fd5b34610210575f36600319011261021057602060ff600454166040519015158152f35b34610210575f366003190112610210575f546001600160a01b03163303610490576002546040516370a0823160e01b8152306004820152905f908190602090849060249082906001600160a01b03165afa91821561042e575f926106ad575b60035460409450808411156106845750506106456003548361099c565b916003555b7ffa07446fad45314351eb89109a154880278451332bb87f1824d435fe58da5939838051848152836020820152a182519182526020820152f35b8084929410610695575b505061064a565b819250906106a29161099c565b90600355838061068e565b91506020833d6020116106da575b816106c860209383610966565b81010312610210576040925191610628565b3d91506106bb565b34610210575f366003190112610210576040517f00000000000000000000000000000000000000000000000000000000000000006001600160a01b03168152602090f35b34610210576020366003190112610210575f54600435906001600160a01b031633819003610490576002546040516370a0823160e01b8152306004820152908390602090839060249082906001600160a01b03165afa91821561042e575f926108a7575b50928160209392610802951161089f575b50600154604051631a4ca37b60e21b81527f00000000000000000000000000000000000000000000000000000000000000006001600160a01b03908116600483015260248201939093529282166044840152919384929091169082905f9082906064820190565b03925af1801561042e575f9061086c575b60035460209250818181111561085b5750505f6003555b7f430648de173157e069201c943adb2d4e340e7cf5b27b1b09c9cb852f03d63b5682604051838152a1604051908152f35b6108649161099c565b60035561082a565b506020813d602011610897575b8161088660209383610966565b810103126102105760209051610813565b3d9150610879565b90508461079b565b929150926020833d6020116108db575b816108c460209383610966565b81010312610210579151919290919061080261078a565b3d91506108b7565b34610210575f366003190112610210576002546370a0823160e01b8252306004830152602090829060249082906001600160a01b03165afa801561042e575f90610933575b602090604051908152f35b506020813d60201161095e575b8161094d60209383610966565b810103126102105760209051610928565b3d9150610940565b90601f8019910116810190811067ffffffffffffffff82111761098857604052565b634e487b7160e01b5f52604160045260245ffd5b919082039182116109a957565b634e487b7160e01b5f52601160045260245ffd5b9081602091031261021057518015158103610210579056fea26469706673582212203a7ed81f030eeddb2d62edaaef9455fccebabe67304b92ee7fa180f9e4a86b6f64736f6c634300082100330000000000000000000000006533158b042775e2fdfef3ca1a782efdbb8eb9b1000000000000000000000000db012dd3e3345e2f8d23c0f3cbcb2d94f430be8c000000000000000000000000532802f2f9e0e3ee9d5ba70c35e1f43c0498772d00000000000000000000000047627c9abddbcde5f78bee76ec7cb8e933c26218",
        "nonce": "0x3a1",
        "chainId": "0xa455"
      },
      "additionalContracts": [],
      "isFixedGasLimit": false
    },
    {
      "hash": "0xfc9a7eeb15f9785887706ae8d8cb7a9273c8e1ac209b58091b085e760513e58c",
      "transactionType": "CALL",
      "contractName": null,
      "contractAddress": "0x77ad263cd578045105fbfc88a477cad808d39cf6",
      "function": "approveStrategy(address)",
      "arguments": [
        "0xDb731EaaFA0FFA7854A24C2379585a85D768Ed5C"
      ],
      "transaction": {
        "from": "0xf39fd6e51aad88f6f4ce6ab8827279cfffb92266",
        "to": "0x77ad263cd578045105fbfc88a477cad808d39cf6",
        "gas": "0x19266",
        "value": "0x0",
        "input": "0x3b8ae397000000000000000000000000db731eaafa0ffa7854a24c2379585a85d768ed5c",
        "nonce": "0x3a2",
        "chainId": "0xa455"
      },
      "additionalContracts": [],
      "isFixedGasLimit": false
    },
    {
      "hash": "0x89a6720c68c654d318a10c983c756e2441dcdce143a3189d49ab043d8e912de8",
      "transactionType": "CALL",
      "contractName": null,
      "contractAddress": "0x77ad263cd578045105fbfc88a477cad808d39cf6",
      "function": "approveStrategy(address)",
      "arguments": [
        "0x335796f7A0F72368D1588839e38f163d90C92C80"
      ],
      "transaction": {
        "from": "0xf39fd6e51aad88f6f4ce6ab8827279cfffb92266",
        "to": "0x77ad263cd578045105fbfc88a477cad808d39cf6",
        "gas": "0x19266",
        "value": "0x0",
        "input": "0x3b8ae397000000000000000000000000335796f7a0f72368d1588839e38f163d90c92c80",
        "nonce": "0x3a3",
        "chainId": "0xa455"
      },
      "additionalContracts": [],
      "isFixedGasLimit": false
    },
    {
      "hash": "0x618f7ee2332e8ee502d7565a4fc7226e8354fe6ad77c390f430cb12ca2f42616",
      "transactionType": "CALL",
      "contractName": null,
      "contractAddress": "0x77ad263cd578045105fbfc88a477cad808d39cf6",
      "function": "approveStrategy(address)",
      "arguments": [
        "0xa86582Ad5E80abc19F95f8A9Fb3905Cda0dAbd59"
      ],
      "transaction": {
        "from": "0xf39fd6e51aad88f6f4ce6ab8827279cfffb92266",
        "to": "0x77ad263cd578045105fbfc88a477cad808d39cf6",
        "gas": "0x19266",
        "value": "0x0",
        "input": "0x3b8ae397000000000000000000000000a86582ad5e80abc19f95f8a9fb3905cda0dabd59",
        "nonce": "0x3a4",
        "chainId": "0xa455"
      },
      "additionalContracts": [],
      "isFixedGasLimit": false
    },
    {
      "hash": "0xf04296c96a77f291bab2bc2df05a9f50d10babe52f2e6e1d7f56d849a2008ec9",
      "transactionType": "CALL",
      "contractName": null,
      "contractAddress": "0x77ad263cd578045105fbfc88a477cad808d39cf6",
      "function": "approveStrategy(address)",
      "arguments": [
        "0x97915c43511f8cB4Fbe7Ea03B96EEe940eC4AF12"
      ],
      "transaction": {
        "from": "0xf39fd6e51aad88f6f4ce6ab8827279cfffb92266",
        "to": "0x77ad263cd578045105fbfc88a477cad808d39cf6",
        "gas": "0x19266",
        "value": "0x0",
        "input": "0x3b8ae39700000000000000000000000097915c43511f8cb4fbe7ea03b96eee940ec4af12",
        "nonce": "0x3a5",
        "chainId": "0xa455"
      },
      "additionalContracts": [],
      "isFixedGasLimit": false
    },
    {
      "hash": "0xe56caf2841c8296ff62521c28d7a5ef55973cb79c3cb50213ab79f3861f7f9fe",
      "transactionType": "CALL",
      "contractName": null,
      "contractAddress": "0x3b21b7b09dd61e8cd9580ef516b3bbb80e8bf19f",
      "function": "migrateStrategy(address)",
      "arguments": [
        "0xDb731EaaFA0FFA7854A24C2379585a85D768Ed5C"
      ],
      "transaction": {
        "from": "0xf39fd6e51aad88f6f4ce6ab8827279cfffb92266",
        "to": "0x3b21b7b09dd61e8cd9580ef516b3bbb80e8bf19f",
        "gas": "0xe460",
        "value": "0x0",
        "input": "0xfafa6c69000000000000000000000000db731eaafa0ffa7854a24c2379585a85d768ed5c",
        "nonce": "0x3a6",
        "chainId": "0xa455"
      },
      "additionalContracts": [],
      "isFixedGasLimit": false
    },
    {
      "hash": "0x909a1c743b995ec6d58949c6287b58ab0e639aed9990ce311a7456c558e8ca5f",
      "transactionType": "CALL",
      "contractName": null,
      "contractAddress": "0xe3973b9dab8212e208612b435feead084d71fff1",
      "function": "migrateStrategy(address)",
      "arguments": [
        "0x335796f7A0F72368D1588839e38f163d90C92C80"
      ],
      "transaction": {
        "from": "0xf39fd6e51aad88f6f4ce6ab8827279cfffb92266",
        "to": "0xe3973b9dab8212e208612b435feead084d71fff1",
        "gas": "0xe460",
        "value": "0x0",
        "input": "0xfafa6c69000000000000000000000000335796f7a0f72368d1588839e38f163d90c92c80",
        "nonce": "0x3a7",
        "chainId": "0xa455"
      },
      "additionalContracts": [],
      "isFixedGasLimit": false
    },
    {
      "hash": "0xff5cb0be08301c561b900a22bd722c6887569bbd5f06813594ee7ece4203fc00",
      "transactionType": "CALL",
      "contractName": null,
      "contractAddress": "0xa38995cfe225bea5508d379e61099927ea2270c7",
      "function": "migrateStrategy(address)",
      "arguments": [
        "0xa86582Ad5E80abc19F95f8A9Fb3905Cda0dAbd59"
      ],
      "transaction": {
        "from": "0xf39fd6e51aad88f6f4ce6ab8827279cfffb92266",
        "to": "0xa38995cfe225bea5508d379e61099927ea2270c7",
        "gas": "0xe460",
        "value": "0x0",
        "input": "0xfafa6c69000000000000000000000000a86582ad5e80abc19f95f8a9fb3905cda0dabd59",
        "nonce": "0x3a8",
        "chainId": "0xa455"
      },
      "additionalContracts": [],
      "isFixedGasLimit": false
    },
    {
      "hash": "0xaa1e035033d1f4b48f1eb2a438ab13af440430fae60b1cbef849c47cdce81529",
      "transactionType": "CALL",
      "contractName": null,
      "contractAddress": "0x47627c9abddbcde5f78bee76ec7cb8e933c26218",
      "function": "migrateStrategy(address)",
      "arguments": [
        "0x97915c43511f8cB4Fbe7Ea03B96EEe940eC4AF12"
      ],
      "transaction": {
        "from": "0xf39fd6e51aad88f6f4ce6ab8827279cfffb92266",
        "to": "0x47627c9abddbcde5f78bee76ec7cb8e933c26218",
        "gas": "0xe460",
        "value": "0x0",
        "input": "0xfafa6c6900000000000000000000000097915c43511f8cb4fbe7ea03b96eee940ec4af12",
        "nonce": "0x3a9",
        "chainId": "0xa455"
      },
      "additionalContracts": [],
      "isFixedGasLimit": false
    }
  ],
  "receipts": [
    {
      "status": "0x1",
      "cumulativeGasUsed": "0xa5faa",
      "logs": [],
      "logsBloom": "0x00000000000000000000000000000000000000000000000000000000000000000000000000000000000000000000000000000000000000000000000000000000000000000000000000000000000000000000000000000000000000000000000000000000000000000000000000000000000000000000000000000000000000000000000000000000000000000000000000000000000000000000000000000000000000000000000000000000000000000000000000000000000000000000000000000000000000000000000000000000000000000000000000000000000000000000000000000000000000000000000000000000000000000000000000000000",
      "type": "0x2",
      "transactionHash": "0x86c8815b8af0a00e594f014d3384868217f58910ee495972cd1ea29a7bb330c8",
      "transactionIndex": "0x0",
      "blockHash": "0x0b5f631309b6b4741c34f1f1959014d1fc9fba8ed9684a3ecb0824c90e8bb13c",
      "blockNumber": "0xe10f",
      "gasUsed": "0xa5faa",
      "effectiveGasPrice": "0x8",
      "blobGasPrice": "0x1",
      "from": "0xf39fd6e51aad88f6f4ce6ab8827279cfffb92266",
      "to": null,
      "contractAddress": "0xdb731eaafa0ffa7854a24c2379585a85d768ed5c",
      "blockTimestamp": 1775317035
    },
    {
      "status": "0x1",
      "cumulativeGasUsed": "0x14bf54",
      "logs": [],
      "logsBloom": "0x00000000000000000000000000000000000000000000000000000000000000000000000000000000000000000000000000000000000000000000000000000000000000000000000000000000000000000000000000000000000000000000000000000000000000000000000000000000000000000000000000000000000000000000000000000000000000000000000000000000000000000000000000000000000000000000000000000000000000000000000000000000000000000000000000000000000000000000000000000000000000000000000000000000000000000000000000000000000000000000000000000000000000000000000000000000",
      "type": "0x2",
      "transactionHash": "0x860d32c0c5c11b3d2f1a3c20ab202c3919a812af72a0ca51edd453f5f17bdf58",
      "transactionIndex": "0x1",
      "blockHash": "0x0b5f631309b6b4741c34f1f1959014d1fc9fba8ed9684a3ecb0824c90e8bb13c",
      "blockNumber": "0xe10f",
      "gasUsed": "0xa5faa",
      "effectiveGasPrice": "0x8",
      "blobGasPrice": "0x1",
      "from": "0xf39fd6e51aad88f6f4ce6ab8827279cfffb92266",
      "to": null,
      "contractAddress": "0x335796f7a0f72368d1588839e38f163d90c92c80",
      "blockTimestamp": 1775317035
    },
    {
      "status": "0x1",
      "cumulativeGasUsed": "0x1f1efe",
      "logs": [],
      "logsBloom": "0x00000000000000000000000000000000000000000000000000000000000000000000000000000000000000000000000000000000000000000000000000000000000000000000000000000000000000000000000000000000000000000000000000000000000000000000000000000000000000000000000000000000000000000000000000000000000000000000000000000000000000000000000000000000000000000000000000000000000000000000000000000000000000000000000000000000000000000000000000000000000000000000000000000000000000000000000000000000000000000000000000000000000000000000000000000000",
      "type": "0x2",
      "transactionHash": "0x618f7ee2332e8ee502d7565a4fc7226e8354fe6ad77c390f430cb12ca2f42616",
      "transactionIndex": "0x2",
      "blockHash": "0x0b5f631309b6b4741c34f1f1959014d1fc9fba8ed9684a3ecb0824c90e8bb13c",
      "blockNumber": "0xe10f",
      "gasUsed": "0xa5faa",
      "effectiveGasPrice": "0x8",
      "blobGasPrice": "0x1",
      "from": "0xf39fd6e51aad88f6f4ce6ab8827279cfffb92266",
      "to": null,
      "contractAddress": "0xa86582ad5e80abc19f95f8a9fb3905cda0dabd59",
      "blockTimestamp": 1775317035
    },
    {
      "status": "0x1",
      "cumulativeGasUsed": "0x297ea8",
      "logs": [],
      "logsBloom": "0x00000000000000000000000000000000000000000000000000000000000000000000000000000000000000000000000000000000000000000000000000000000000000000000000000000000000000000000000000000000000000000000000000000000000000000000000000000000000000000000000000000000000000000000000000000000000000000000000000000000000000000000000000000000000000000000000000000000000000000000000000000000000000000000000000000000000000000000000000000000000000000000000000000000000000000000000000000000000000000000000000000000000000000000000000000000",
      "type": "0x2",
      "transactionHash": "0x618d0efbb095fde14073f9d90f3ff6e39f256802cb4fc6aa7dcfa6073ca881dc",
      "transactionIndex": "0x3",
      "blockHash": "0x0b5f631309b6b4741c34f1f1959014d1fc9fba8ed9684a3ecb0824c90e8bb13c",
      "blockNumber": "0xe10f",
      "gasUsed": "0xa5faa",
      "effectiveGasPrice": "0x8",
      "blobGasPrice": "0x1",
      "from": "0xf39fd6e51aad88f6f4ce6ab8827279cfffb92266",
      "to": null,
      "contractAddress": "0x97915c43511f8cb4fbe7ea03b96eee940ec4af12",
      "blockTimestamp": 1775317035
    },
    {
      "status": "0x1",
      "cumulativeGasUsed": "0x2aa1fd",
      "logs": [
        {
          "address": "0x77ad263cd578045105fbfc88a477cad808d39cf6",
          "topics": [
            "0x960dd94cbb79169f09a4e445d58b895df2d9bffa5b31055d0932d801724a20d1",
            "0x000000000000000000000000db731eaafa0ffa7854a24c2379585a85d768ed5c"
          ],
          "data": "0x",
          "blockHash": "0x0b5f631309b6b4741c34f1f1959014d1fc9fba8ed9684a3ecb0824c90e8bb13c",
          "blockNumber": "0xe10f",
          "blockTimestamp": "0x69d1302b",
          "transactionHash": "0xaa1e035033d1f4b48f1eb2a438ab13af440430fae60b1cbef849c47cdce81529",
          "transactionIndex": "0x4",
          "logIndex": "0x0",
          "removed": false
        }
      ],
      "logsBloom": "0x00000000000000000000000000800000000000000000000000440000000000000000000000000000000000000000000000000000000000000000000000000000000000000000000000000000000000000000000000000000000000000000000000800000000000000000000000000000000000000000000000080000000000000000000008000000000000000000000000000000200000000000000000000000000000800000000000000000000000000000000000000000000000000000000000000000000000000400000000000000000000000000000000000000000000000000000000000000000000000000000000000000000000000000000000000000",
      "type": "0x2",
      "transactionHash": "0xaa1e035033d1f4b48f1eb2a438ab13af440430fae60b1cbef849c47cdce81529",
      "transactionIndex": "0x4",
      "blockHash": "0x0b5f631309b6b4741c34f1f1959014d1fc9fba8ed9684a3ecb0824c90e8bb13c",
      "blockNumber": "0xe10f",
      "gasUsed": "0x12355",
      "effectiveGasPrice": "0x8",
      "blobGasPrice": "0x1",
      "from": "0xf39fd6e51aad88f6f4ce6ab8827279cfffb92266",
      "to": "0x77ad263cd578045105fbfc88a477cad808d39cf6",
      "contractAddress": null,
      "blockTimestamp": 1775317035
    },
    {
      "status": "0x1",
      "cumulativeGasUsed": "0x2bc552",
      "logs": [
        {
          "address": "0x77ad263cd578045105fbfc88a477cad808d39cf6",
          "topics": [
            "0x960dd94cbb79169f09a4e445d58b895df2d9bffa5b31055d0932d801724a20d1",
            "0x000000000000000000000000335796f7a0f72368d1588839e38f163d90c92c80"
          ],
          "data": "0x",
          "blockHash": "0x0b5f631309b6b4741c34f1f1959014d1fc9fba8ed9684a3ecb0824c90e8bb13c",
          "blockNumber": "0xe10f",
          "blockTimestamp": "0x69d1302b",
          "transactionHash": "0x909a1c743b995ec6d58949c6287b58ab0e639aed9990ce311a7456c558e8ca5f",
          "transactionIndex": "0x5",
          "logIndex": "0x1",
          "removed": false
        }
      ],
      "logsBloom": "0x00000000000000000000000000000000000000000000000000440000002000000000000000000000000000000000000000000000000000000000000000000000000000000000000000000000000000000000000000000000000000000000000000800000000000000000000000000000000000000000000000080000000000000000000000000000000000000000000000000000200000000000000000000000000000800000000000000000000000000000000000000000000000000000000000000000000000000000000000000000000000000000000000000000000000004000000000000000000000001000000000000000000000000000000000000000",
      "type": "0x2",
      "transactionHash": "0x909a1c743b995ec6d58949c6287b58ab0e639aed9990ce311a7456c558e8ca5f",
      "transactionIndex": "0x5",
      "blockHash": "0x0b5f631309b6b4741c34f1f1959014d1fc9fba8ed9684a3ecb0824c90e8bb13c",
      "blockNumber": "0xe10f",
      "gasUsed": "0x12355",
      "effectiveGasPrice": "0x8",
      "blobGasPrice": "0x1",
      "from": "0xf39fd6e51aad88f6f4ce6ab8827279cfffb92266",
      "to": "0x77ad263cd578045105fbfc88a477cad808d39cf6",
      "contractAddress": null,
      "blockTimestamp": 1775317035
    },
    {
      "status": "0x1",
      "cumulativeGasUsed": "0x2ce8a7",
      "logs": [
        {
          "address": "0x77ad263cd578045105fbfc88a477cad808d39cf6",
          "topics": [
            "0x960dd94cbb79169f09a4e445d58b895df2d9bffa5b31055d0932d801724a20d1",
            "0x000000000000000000000000a86582ad5e80abc19f95f8a9fb3905cda0dabd59"
          ],
          "data": "0x",
          "blockHash": "0x0b5f631309b6b4741c34f1f1959014d1fc9fba8ed9684a3ecb0824c90e8bb13c",
          "blockNumber": "0xe10f",
          "blockTimestamp": "0x69d1302b",
          "transactionHash": "0xe56caf2841c8296ff62521c28d7a5ef55973cb79c3cb50213ab79f3861f7f9fe",
          "transactionIndex": "0x6",
          "logIndex": "0x2",
          "removed": false
        }
      ],
      "logsBloom": "0x00000000000000000000000000000000000000000000000002440000000000000000000000000000000000000000000000000000000000000000000000000000000000000000000000000000000000000000000000000000000000000000000000800000000000000000000000000000000000000000000000080000000000000000000000000000000000000000000000000000200000000000000000000000000000800000000000000000000000000000000000000002000000000000000000000000000000000000000000000000000000000000000000000000000000000000000000000000000000000010000000000000000000000000000000000000",
      "type": "0x2",
      "transactionHash": "0xe56caf2841c8296ff62521c28d7a5ef55973cb79c3cb50213ab79f3861f7f9fe",
      "transactionIndex": "0x6",
      "blockHash": "0x0b5f631309b6b4741c34f1f1959014d1fc9fba8ed9684a3ecb0824c90e8bb13c",
      "blockNumber": "0xe10f",
      "gasUsed": "0x12355",
      "effectiveGasPrice": "0x8",
      "blobGasPrice": "0x1",
      "from": "0xf39fd6e51aad88f6f4ce6ab8827279cfffb92266",
      "to": "0x77ad263cd578045105fbfc88a477cad808d39cf6",
      "contractAddress": null,
      "blockTimestamp": 1775317035
    },
    {
      "status": "0x1",
      "cumulativeGasUsed": "0x2e0bfc",
      "logs": [
        {
          "address": "0x77ad263cd578045105fbfc88a477cad808d39cf6",
          "topics": [
            "0x960dd94cbb79169f09a4e445d58b895df2d9bffa5b31055d0932d801724a20d1",
            "0x00000000000000000000000097915c43511f8cb4fbe7ea03b96eee940ec4af12"
          ],
          "data": "0x",
          "blockHash": "0x0b5f631309b6b4741c34f1f1959014d1fc9fba8ed9684a3ecb0824c90e8bb13c",
          "blockNumber": "0xe10f",
          "blockTimestamp": "0x69d1302b",
          "transactionHash": "0xe7abab437a76a12faea32a5a088f686c512ed2c28e5fd598effe562ef493ee50",
          "transactionIndex": "0x7",
          "logIndex": "0x3",
          "removed": false
        }
      ],
      "logsBloom": "0x00000000000000000000000000000000000000000000000000440000000000000000000000000000000000000000000000000000000000000400000000000000000000000000000000000000000000000000000000000000000000000000000000800000000000100000000000000000000000000000000000080000000000000000000000000000000000000000000000000000200000000000000000000000000000800000000000000000000000000000000000000000000000000000000000008000000000000000000000000000000000000000000000000000000000000000000000000000000000000000000000000000000000000000000000000000",
      "type": "0x2",
      "transactionHash": "0xe7abab437a76a12faea32a5a088f686c512ed2c28e5fd598effe562ef493ee50",
      "transactionIndex": "0x7",
      "blockHash": "0x0b5f631309b6b4741c34f1f1959014d1fc9fba8ed9684a3ecb0824c90e8bb13c",
      "blockNumber": "0xe10f",
      "gasUsed": "0x12355",
      "effectiveGasPrice": "0x8",
      "blobGasPrice": "0x1",
      "from": "0xf39fd6e51aad88f6f4ce6ab8827279cfffb92266",
      "to": "0x77ad263cd578045105fbfc88a477cad808d39cf6",
      "contractAddress": null,
      "blockTimestamp": 1775317035
    },
    {
      "status": "0x1",
      "cumulativeGasUsed": "0x2eb154",
      "logs": [
        {
          "address": "0x3b21b7b09dd61e8cd9580ef516b3bbb80e8bf19f",
          "topics": [
            "0x100b69bb6b504e1252e36b375233158edee64d071b399e2f81473a695fd1b021",
            "0x000000000000000000000000d977422c9ee9b646f64a4c4389a6c98ad356d8c4",
            "0x000000000000000000000000db731eaafa0ffa7854a24c2379585a85d768ed5c"
          ],
          "data": "0x",
          "blockHash": "0x0b5f631309b6b4741c34f1f1959014d1fc9fba8ed9684a3ecb0824c90e8bb13c",
          "blockNumber": "0xe10f",
          "blockTimestamp": "0x69d1302b",
          "transactionHash": "0xf04296c96a77f291bab2bc2df05a9f50d10babe52f2e6e1d7f56d849a2008ec9",
          "transactionIndex": "0x8",
          "logIndex": "0x4",
          "removed": false
        }
      ],
      "logsBloom": "0x00000000000000000000000000800000000000000000002000000000000000004000000000000000000000000000000000000000000000000000000000000000000000000000000000000000000000000000000000000000080000000000000000000200000000000000000000000000000000000000000000000000000000000000000008000010000000000000000000000000000000000000000000000000000020000000000000000000000000000000000000000000000000000000000000000000000000000400000000000000000000000000000000000008000000000000000000000000000000000000000000001000000000000000000000004000",
      "type": "0x2",
      "transactionHash": "0xf04296c96a77f291bab2bc2df05a9f50d10babe52f2e6e1d7f56d849a2008ec9",
      "transactionIndex": "0x8",
      "blockHash": "0x0b5f631309b6b4741c34f1f1959014d1fc9fba8ed9684a3ecb0824c90e8bb13c",
      "blockNumber": "0xe10f",
      "gasUsed": "0xa558",
      "effectiveGasPrice": "0x8",
      "blobGasPrice": "0x1",
      "from": "0xf39fd6e51aad88f6f4ce6ab8827279cfffb92266",
      "to": "0x3b21b7b09dd61e8cd9580ef516b3bbb80e8bf19f",
      "contractAddress": null,
      "blockTimestamp": 1775317035
    },
    {
      "status": "0x1",
      "cumulativeGasUsed": "0x2f56ac",
      "logs": [
        {
          "address": "0xe3973b9dab8212e208612b435feead084d71fff1",
          "topics": [
            "0x100b69bb6b504e1252e36b375233158edee64d071b399e2f81473a695fd1b021",
            "0x000000000000000000000000d977422c9ee9b646f64a4c4389a6c98ad356d8c4",
            "0x000000000000000000000000335796f7a0f72368d1588839e38f163d90c92c80"
          ],
          "data": "0x",
          "blockHash": "0x0b5f631309b6b4741c34f1f1959014d1fc9fba8ed9684a3ecb0824c90e8bb13c",
          "blockNumber": "0xe10f",
          "blockTimestamp": "0x69d1302b",
          "transactionHash": "0xfc9a7eeb15f9785887706ae8d8cb7a9273c8e1ac209b58091b085e760513e58c",
          "transactionIndex": "0x9",
          "logIndex": "0x5",
          "removed": false
        }
      ],
      "logsBloom": "0x00000000000000000000000020000000000000000000002000000000002000004000000000000000000000000000000000000000000000000000000000000000000000000000000000000000000000000000000000000000000000000000000000000200000800000000000000000000000000000000000000000000000000000000000000000000000000000000000000000000000000000000000000000000000020000000000000000000000000000000000000000000000000000000000000000000000000000000000000000000000000000000000000000008000000004000000000000080000000001000000000001000000000000000000000000000",
      "type": "0x2",
      "transactionHash": "0xfc9a7eeb15f9785887706ae8d8cb7a9273c8e1ac209b58091b085e760513e58c",
      "transactionIndex": "0x9",
      "blockHash": "0x0b5f631309b6b4741c34f1f1959014d1fc9fba8ed9684a3ecb0824c90e8bb13c",
      "blockNumber": "0xe10f",
      "gasUsed": "0xa558",
      "effectiveGasPrice": "0x8",
      "blobGasPrice": "0x1",
      "from": "0xf39fd6e51aad88f6f4ce6ab8827279cfffb92266",
      "to": "0xe3973b9dab8212e208612b435feead084d71fff1",
      "contractAddress": null,
      "blockTimestamp": 1775317035
    },
    {
      "status": "0x1",
      "cumulativeGasUsed": "0x2ffc04",
      "logs": [
        {
          "address": "0xa38995cfe225bea5508d379e61099927ea2270c7",
          "topics": [
            "0x100b69bb6b504e1252e36b375233158edee64d071b399e2f81473a695fd1b021",
            "0x000000000000000000000000d977422c9ee9b646f64a4c4389a6c98ad356d8c4",
            "0x000000000000000000000000a86582ad5e80abc19f95f8a9fb3905cda0dabd59"
          ],
          "data": "0x",
          "blockHash": "0x0b5f631309b6b4741c34f1f1959014d1fc9fba8ed9684a3ecb0824c90e8bb13c",
          "blockNumber": "0xe10f",
          "blockTimestamp": "0x69d1302b",
          "transactionHash": "0x89a6720c68c654d318a10c983c756e2441dcdce143a3189d49ab043d8e912de8",
          "transactionIndex": "0xa",
          "logIndex": "0x6",
          "removed": false
        }
      ],
      "logsBloom": "0x00000000000000000000000000000000000000000000002002000000000000004000000000000000000000000000000000000000000000000000000000000000000000000000040000000000000000000000000000000000000000000000000000000200000000000000000000000000000000000000000000000000000000000000000020000000000000000000000000000000000000000000000000000000000020000000000000000000000000000000000000000002000000000000000000000000000000000000000000000000000000000000000000000008000000000000000000000000000000000010000000001000000000000000000002000000",
      "type": "0x2",
      "transactionHash": "0x89a6720c68c654d318a10c983c756e2441dcdce143a3189d49ab043d8e912de8",
      "transactionIndex": "0xa",
      "blockHash": "0x0b5f631309b6b4741c34f1f1959014d1fc9fba8ed9684a3ecb0824c90e8bb13c",
      "blockNumber": "0xe10f",
      "gasUsed": "0xa558",
      "effectiveGasPrice": "0x8",
      "blobGasPrice": "0x1",
      "from": "0xf39fd6e51aad88f6f4ce6ab8827279cfffb92266",
      "to": "0xa38995cfe225bea5508d379e61099927ea2270c7",
      "contractAddress": null,
      "blockTimestamp": 1775317035
    },
    {
      "status": "0x1",
      "cumulativeGasUsed": "0x30a15c",
      "logs": [
        {
          "address": "0x47627c9abddbcde5f78bee76ec7cb8e933c26218",
          "topics": [
            "0x100b69bb6b504e1252e36b375233158edee64d071b399e2f81473a695fd1b021",
            "0x000000000000000000000000d977422c9ee9b646f64a4c4389a6c98ad356d8c4",
            "0x00000000000000000000000097915c43511f8cb4fbe7ea03b96eee940ec4af12"
          ],
          "data": "0x",
          "blockHash": "0x0b5f631309b6b4741c34f1f1959014d1fc9fba8ed9684a3ecb0824c90e8bb13c",
          "blockNumber": "0xe10f",
          "blockTimestamp": "0x69d1302b",
          "transactionHash": "0xff5cb0be08301c561b900a22bd722c6887569bbd5f06813594ee7ece4203fc00",
          "transactionIndex": "0xb",
          "logIndex": "0x7",
          "removed": false
        }
      ],
      "logsBloom": "0x00000000000000000000000000000000000000000000002000000000000000004000000000000000000000000000000000000000000000000400000000000000000000000000000000000000000000000000000000000000000000000000002000000200000000100000000000000000000000000000000000000000000000000000000000000000000000000000000000000000000000000002000000000000000020000000000000000000000000000000000000000000000000000000000000008000000000000000000000000000000000000000000000000008000000000000000000000000000000000000000000001000000000000000000000000010",
      "type": "0x2",
      "transactionHash": "0xff5cb0be08301c561b900a22bd722c6887569bbd5f06813594ee7ece4203fc00",
      "transactionIndex": "0xb",
      "blockHash": "0x0b5f631309b6b4741c34f1f1959014d1fc9fba8ed9684a3ecb0824c90e8bb13c",
      "blockNumber": "0xe10f",
      "gasUsed": "0xa558",
      "effectiveGasPrice": "0x8",
      "blobGasPrice": "0x1",
      "from": "0xf39fd6e51aad88f6f4ce6ab8827279cfffb92266",
      "to": "0x47627c9abddbcde5f78bee76ec7cb8e933c26218",
      "contractAddress": null,
      "blockTimestamp": 1775317035
    }
  ],
  "libraries": [],
  "pending": [],
  "returns": {},
  "timestamp": 1775316610264,
  "chain": 42069,
  "commit": "8f01c39"
}