{
  "transactions": [
    {
      "hash": "0x9028aeaedfe73069a9f36d121e0c2dc5f6155793c0acbb2a2aeeefbfae67aeb3",
      "transactionType": "CALL",
      "contractName": null,
      "contractAddress": "0x5fbdb2315678afecb367f032d93f642f64180aa3",
      "function": "approve(address,uint256)",
      "arguments": [
        "0x457cCf29090fe5A24c19c1bc95F492168C0EaFdb",
        "115792089237316195423570985008687907853269984665640564039457584007913129639935"
      ],
      "transaction": {
        "from": "0xf39fd6e51aad88f6f4ce6ab8827279cfffb92266",
        "to": "0x5fbdb2315678afecb367f032d93f642f64180aa3",
        "gas": "0x10ce3",
        "value": "0x0",
        "input": "0x095ea7b3000000000000000000000000457ccf29090fe5a24c19c1bc95f492168c0eafdbffffffffffffffffffffffffffffffffffffffffffffffffffffffffffffffff",
        "nonce": "0x95",
        "chainId": "0xa455"
      },
      "additionalContracts": [],
      "isFixedGasLimit": false
    },
    {
      "hash": "0x8e494359543650ef91b8adc17b3eafd9b4d3f633f732495adf693bec60c444b5",
      "transactionType": "CALL",
      "contractName": null,
      "contractAddress": "0x457ccf29090fe5a24c19c1bc95f492168c0eafdb",
      "function": "depositCollateral(string,uint256)",
      "arguments": [
        "AAPL",
        "50000000000000000000000"
      ],
      "transaction": {
        "from": "0xf39fd6e51aad88f6f4ce6ab8827279cfffb92266",
        "to": "0x457ccf29090fe5a24c19c1bc95f492168c0eafdb",
        "gas": "0x2738f",
        "value": "0x0",
        "input": "0xc63e38350000000000000000000000000000000000000000000000000000000000000040000000000000000000000000000000000000000000000a968163f0a57b40000000000000000000000000000000000000000000000000000000000000000000044141504c00000000000000000000000000000000000000000000000000000000",
        "nonce": "0x96",
        "chainId": "0xa455"
      },
      "additionalContracts": [],
      "isFixedGasLimit": false
    },
    {
      "hash": "0x87618c685b130be2fac727083d426fd009c8e929212089eb8af6d48ce055b059",
      "transactionType": "CALL",
      "contractName": null,
      "contractAddress": "0x457ccf29090fe5a24c19c1bc95f492168c0eafdb",
      "function": "mint(string,uint256)",
      "arguments": [
        "AAPL",
        "10000000000000000000"
      ],
      "transaction": {
        "from": "0xf39fd6e51aad88f6f4ce6ab8827279cfffb92266",
        "to": "0x457ccf29090fe5a24c19c1bc95f492168c0eafdb",
        "gas": "0x5982c",
        "value": "0x0",
        "input": "0x056b01ce00000000000000000000000000000000000000000000000000000000000000400000000000000000000000000000000000000000000000008ac7230489e8000000000000000000000000000000000000000000000000000000000000000000044141504c00000000000000000000000000000000000000000000000000000000",
        "nonce": "0x97",
        "chainId": "0xa455"
      },
      "additionalContracts": [],
      "isFixedGasLimit": false
    },
    {
      "hash": "0xbd09a6f85ccbcc586ab4c3e330d1e7a677303e4b8ed99e2076dcc19aefbaa721",
      "transactionType": "CALL",
      "contractName": null,
      "contractAddress": "0x457ccf29090fe5a24c19c1bc95f492168c0eafdb",
      "function": "depositCollateral(string,uint256)",
      "arguments": [
        "TSLA",
        "75000000000000000000000"
      ],
      "transaction": {
        "from": "0xf39fd6e51aad88f6f4ce6ab8827279cfffb92266",
        "to": "0x457ccf29090fe5a24c19c1bc95f492168c0eafdb",
        "gas": "0x1f46d",
        "value": "0x0",
        "input": "0xc63e38350000000000000000000000000000000000000000000000000000000000000040000000000000000000000000000000000000000000000fe1c215e8f838e00000000000000000000000000000000000000000000000000000000000000000000454534c4100000000000000000000000000000000000000000000000000000000",
        "nonce": "0x98",
        "chainId": "0xa455"
      },
      "additionalContracts": [],
      "isFixedGasLimit": false
    },
    {
      "hash": "0x8d6637d66792cab2698d4531eaf490136e504b82b5e5401f4d89d24822b38728",
      "transactionType": "CALL",
      "contractName": null,
      "contractAddress": "0x457ccf29090fe5a24c19c1bc95f492168c0eafdb",
      "function": "mint(string,uint256)",
      "arguments": [
        "TSLA",
        "10000000000000000000"
      ],
      "transaction": {
        "from": "0xf39fd6e51aad88f6f4ce6ab8827279cfffb92266",
        "to": "0x457ccf29090fe5a24c19c1bc95f492168c0eafdb",
        "gas": "0x4271e",
        "value": "0x0",
        "input": "0x056b01ce00000000000000000000000000000000000000000000000000000000000000400000000000000000000000000000000000000000000000008ac7230489e80000000000000000000000000000000000000000000000000000000000000000000454534c4100000000000000000000000000000000000000000000000000000000",
        "nonce": "0x99",
        "chainId": "0xa455"
      },
      "additionalContracts": [],
      "isFixedGasLimit": false
    },
    {
      "hash": "0x00a37f309af0e9c3c62029e2ea717d9d10892f01953696f57c4f51ee94c4a6b0",
      "transactionType": "CALL",
      "contractName": null,
      "contractAddress": "0x457ccf29090fe5a24c19c1bc95f492168c0eafdb",
      "function": "depositCollateral(string,uint256)",
      "arguments": [
        "NVDA",
        "250000000000000000000000"
      ],
      "transaction": {
        "from": "0xf39fd6e51aad88f6f4ce6ab8827279cfffb92266",
        "to": "0x457ccf29090fe5a24c19c1bc95f492168c0eafdb",
        "gas": "0x1f46d",
        "value": "0x0",
        "input": "0xc63e383500000000000000000000000000000000000000000000000000000000000000400000000000000000000000000000000000000000000034f086f3b33b6840000000000000000000000000000000000000000000000000000000000000000000044e56444100000000000000000000000000000000000000000000000000000000",
        "nonce": "0x9a",
        "chainId": "0xa455"
      },
      "additionalContracts": [],
      "isFixedGasLimit": false
    },
    {
      "hash": "0xbdd71e9c40d09ca527a0b367500832912a8e6574114e00f1e5e5283ff3bbf547",
      "transactionType": "CALL",
      "contractName": null,
      "contractAddress": "0x457ccf29090fe5a24c19c1bc95f492168c0eafdb",
      "function": "mint(string,uint256)",
      "arguments": [
        "NVDA",
        "10000000000000000000"
      ],
      "transaction": {
        "from": "0xf39fd6e51aad88f6f4ce6ab8827279cfffb92266",
        "to": "0x457ccf29090fe5a24c19c1bc95f492168c0eafdb",
        "gas": "0x4271e",
        "value": "0x0",
        "input": "0x056b01ce00000000000000000000000000000000000000000000000000000000000000400000000000000000000000000000000000000000000000008ac7230489e8000000000000000000000000000000000000000000000000000000000000000000044e56444100000000000000000000000000000000000000000000000000000000",
        "nonce": "0x9b",
        "chainId": "0xa455"
      },
      "additionalContracts": [],
      "isFixedGasLimit": false
    },
    {
      "hash": "0x4311851db9cee054746bbf649abc10f24780f97097dac3ebf7067146d4b6e98e",
      "transactionType": "CALL",
      "contractName": null,
      "contractAddress": "0x457ccf29090fe5a24c19c1bc95f492168c0eafdb",
      "function": "depositCollateral(string,uint256)",
      "arguments": [
        "GOOGL",
        "50000000000000000000000"
      ],
      "transaction": {
        "from": "0xf39fd6e51aad88f6f4ce6ab8827279cfffb92266",
        "to": "0x457ccf29090fe5a24c19c1bc95f492168c0eafdb",
        "gas": "0x211f0",
        "value": "0x0",
        "input": "0xc63e38350000000000000000000000000000000000000000000000000000000000000040000000000000000000000000000000000000000000000a968163f0a57b4000000000000000000000000000000000000000000000000000000000000000000005474f4f474c000000000000000000000000000000000000000000000000000000",
        "nonce": "0x9c",
        "chainId": "0xa455"
      },
      "additionalContracts": [],
      "isFixedGasLimit": false
    },
    {
      "hash": "0x54f5f052c7089f51799deb06c4d5ecd6540d656fa0ff248750cabc1ebd54da80",
      "transactionType": "CALL",
      "contractName": null,
      "contractAddress": "0x457ccf29090fe5a24c19c1bc95f492168c0eafdb",
      "function": "mint(string,uint256)",
      "arguments": [
        "GOOGL",
        "10000000000000000000"
      ],
      "transaction": {
        "from": "0xf39fd6e51aad88f6f4ce6ab8827279cfffb92266",
        "to": "0x457ccf29090fe5a24c19c1bc95f492168c0eafdb",
        "gas": "0x465ba",
        "value": "0x0",
        "input": "0x056b01ce00000000000000000000000000000000000000000000000000000000000000400000000000000000000000000000000000000000000000008ac7230489e800000000000000000000000000000000000000000000000000000000000000000005474f4f474c000000000000000000000000000000000000000000000000000000",
        "nonce": "0x9d",
        "chainId": "0xa455"
      },
      "additionalContracts": [],
      "isFixedGasLimit": false
    }
  ],
  "receipts": [
    {
      "status": "0x1",
      "cumulativeGasUsed": "0xb7db",
      "logs": [
        {
          "address": "0x5fbdb2315678afecb367f032d93f642f64180aa3",
          "topics": [
            "0x8c5be1e5ebec7d5bd14f71427d1e84f3dd0314c0f7b2291e5b200ac8c7c3b925",
            "0x000000000000000000000000f39fd6e51aad88f6f4ce6ab8827279cfffb92266",
            "0x000000000000000000000000457ccf29090fe5a24c19c1bc95f492168c0eafdb"
          ],
          "data": "0xffffffffffffffffffffffffffffffffffffffffffffffffffffffffffffffff",
          "blockHash": "0x4441b573129222be22d4400e2603a8ca4a15d39c6d0776e704413af51c214763",
          "blockNumber": "0x364f",
          "blockTimestamp": "0x69cfdaed",
          "transactionHash": "0x9028aeaedfe73069a9f36d121e0c2dc5f6155793c0acbb2a2aeeefbfae67aeb3",
          "transactionIndex": "0x0",
          "logIndex": "0x0",
          "removed": false
        }
      ],
      "logsBloom": "0x00000000000000000001000000000000000000000000000000000000000000000000000000000000000000000000000000000000000000000002000000200000000000000000000000000000000000000000000000000000000000000000000000000040000000000000000100000000000000000000000000000000000000000000000000000000000000000000000000000000000000000000000200000000020000000000000000000000000000000000010000000000000000000000000000000040000000200000000000000000000000002000000000000000000000000010000000000000000000000000000000000000000000000000000000000000",
      "type": "0x0",
      "transactionHash": "0x9028aeaedfe73069a9f36d121e0c2dc5f6155793c0acbb2a2aeeefbfae67aeb3",
      "transactionIndex": "0x0",
      "blockHash": "0x4441b573129222be22d4400e2603a8ca4a15d39c6d0776e704413af51c214763",
      "blockNumber": "0x364f",
      "gasUsed": "0xb7db",
      "effectiveGasPrice": "0x3b9aca07",
      "blobGasPrice": "0x1",
      "from": "0xf39fd6e51aad88f6f4ce6ab8827279cfffb92266",
      "to": "0x5fbdb2315678afecb367f032d93f642f64180aa3",
      "contractAddress": null,
      "blockTimestamp": 1775229677
    },
    {
      "status": "0x1",
      "cumulativeGasUsed": "0x264f5",
      "logs": [
        {
          "address": "0x5fbdb2315678afecb367f032d93f642f64180aa3",
          "topics": [
            "0xddf252ad1be2c89b69c2b068fc378daa952ba7f163c4a11628f55a4df523b3ef",
            "0x000000000000000000000000f39fd6e51aad88f6f4ce6ab8827279cfffb92266",
            "0x000000000000000000000000457ccf29090fe5a24c19c1bc95f492168c0eafdb"
          ],
          "data": "0x000000000000000000000000000000000000000000000a968163f0a57b400000",
          "blockHash": "0x4441b573129222be22d4400e2603a8ca4a15d39c6d0776e704413af51c214763",
          "blockNumber": "0x364f",
          "blockTimestamp": "0x69cfdaed",
          "transactionHash": "0x8e494359543650ef91b8adc17b3eafd9b4d3f633f732495adf693bec60c444b5",
          "transactionIndex": "0x1",
          "logIndex": "0x1",
          "removed": false
        },
        {
          "address": "0x457ccf29090fe5a24c19c1bc95f492168c0eafdb",
          "topics": [
            "0x88df26d296ecbf594c8609f433503d1436d24afe03c0d9e5e29c8f6ed92ef9b4",
            "0x000000000000000000000000f39fd6e51aad88f6f4ce6ab8827279cfffb92266",
            "0x3a54a9a690616fbc26cfc409bf11f89d51f1d57a4ab2791fb86026cee74ed2f3"
          ],
          "data": "0x000000000000000000000000000000000000000000000a968163f0a57b400000",
          "blockHash": "0x4441b573129222be22d4400e2603a8ca4a15d39c6d0776e704413af51c214763",
          "blockNumber": "0x364f",
          "blockTimestamp": "0x69cfdaed",
          "transactionHash": "0x8e494359543650ef91b8adc17b3eafd9b4d3f633f732495adf693bec60c444b5",
          "transactionIndex": "0x1",
          "logIndex": "0x2",
          "removed": false
        }
      ],
      "logsBloom": "0x00000000000000000001000000000000000000000000000000000000000000000000000000400000000000000000000000000000000000000003000000000000000000000080000000000008000000000000008000000000000000000000000000000040000000000000000100000000000000000000000000000010000000000800020000000000000000000000000000000000000000000000000200000000000000000000000000000000000000000100010000000000000000000000000000000042000000200000000001000000000000002000000000000000000000000000000000000000000000000000000000000000000000000000000000000000",
      "type": "0x0",
      "transactionHash": "0x8e494359543650ef91b8adc17b3eafd9b4d3f633f732495adf693bec60c444b5",
      "transactionIndex": "0x1",
      "blockHash": "0x4441b573129222be22d4400e2603a8ca4a15d39c6d0776e704413af51c214763",
      "blockNumber": "0x364f",
      "gasUsed": "0x1ad1a",
      "effectiveGasPrice": "0x3b9aca07",
      "blobGasPrice": "0x1",
      "from": "0xf39fd6e51aad88f6f4ce6ab8827279cfffb92266",
      "to": "0x457ccf29090fe5a24c19c1bc95f492168c0eafdb",
      "contractAddress": null,
      "blockTimestamp": 1775229677
    },
    {
      "status": "0x1",
      "cumulativeGasUsed": "0x671d4",
      "logs": [
        {
          "address": "0x5fbdb2315678afecb367f032d93f642f64180aa3",
          "topics": [
            "0xddf252ad1be2c89b69c2b068fc378daa952ba7f163c4a11628f55a4df523b3ef",
            "0x000000000000000000000000f39fd6e51aad88f6f4ce6ab8827279cfffb92266",
            "0x000000000000000000000000457ccf29090fe5a24c19c1bc95f492168c0eafdb"
          ],
          "data": "0x0000000000000000000000000000000000000000000000004a683acb03bc0000",
          "blockHash": "0x4441b573129222be22d4400e2603a8ca4a15d39c6d0776e704413af51c214763",
          "blockNumber": "0x364f",
          "blockTimestamp": "0x69cfdaed",
          "transactionHash": "0x54f5f052c7089f51799deb06c4d5ecd6540d656fa0ff248750cabc1ebd54da80",
          "transactionIndex": "0x2",
          "logIndex": "0x3",
          "removed": false
        },
        {
          "address": "0x5fbdb2315678afecb367f032d93f642f64180aa3",
          "topics": [
            "0x8c5be1e5ebec7d5bd14f71427d1e84f3dd0314c0f7b2291e5b200ac8c7c3b925",
            "0x000000000000000000000000457ccf29090fe5a24c19c1bc95f492168c0eafdb",
            "0x000000000000000000000000e7f1725e7734ce288f8367e1bb143e90bb3f0512"
          ],
          "data": "0x0000000000000000000000000000000000000000000000004a683acb03bc0000",
          "blockHash": "0x4441b573129222be22d4400e2603a8ca4a15d39c6d0776e704413af51c214763",
          "blockNumber": "0x364f",
          "blockTimestamp": "0x69cfdaed",
          "transactionHash": "0x54f5f052c7089f51799deb06c4d5ecd6540d656fa0ff248750cabc1ebd54da80",
          "transactionIndex": "0x2",
          "logIndex": "0x4",
          "removed": false
        },
        {
          "address": "0x5fbdb2315678afecb367f032d93f642f64180aa3",
          "topics": [
            "0xddf252ad1be2c89b69c2b068fc378daa952ba7f163c4a11628f55a4df523b3ef",
            "0x000000000000000000000000457ccf29090fe5a24c19c1bc95f492168c0eafdb",
            "0x000000000000000000000000e7f1725e7734ce288f8367e1bb143e90bb3f0512"
          ],
          "data": "0x0000000000000000000000000000000000000000000000004a683acb03bc0000",
          "blockHash": "0x4441b573129222be22d4400e2603a8ca4a15d39c6d0776e704413af51c214763",
          "blockNumber": "0x364f",
          "blockTimestamp": "0x69cfdaed",
          "transactionHash": "0x54f5f052c7089f51799deb06c4d5ecd6540d656fa0ff248750cabc1ebd54da80",
          "transactionIndex": "0x2",
          "logIndex": "0x5",
          "removed": false
        },
        {
          "address": "0x5fbdb2315678afecb367f032d93f642f64180aa3",
          "topics": [
            "0xddf252ad1be2c89b69c2b068fc378daa952ba7f163c4a11628f55a4df523b3ef",
            "0x000000000000000000000000e7f1725e7734ce288f8367e1bb143e90bb3f0512",
            "0x0000000000000000000000005fbdb2315678afecb367f032d93f642f64180aa3"
          ],
          "data": "0x00000000000000000000000000000000000000000000000018ccc662d876c000",
          "blockHash": "0x4441b573129222be22d4400e2603a8ca4a15d39c6d0776e704413af51c214763",
          "blockNumber": "0x364f",
          "blockTimestamp": "0x69cfdaed",
          "transactionHash": "0x54f5f052c7089f51799deb06c4d5ecd6540d656fa0ff248750cabc1ebd54da80",
          "transactionIndex": "0x2",
          "logIndex": "0x6",
          "removed": false
        },
        {
          "address": "0x5fbdb2315678afecb367f032d93f642f64180aa3",
          "topics": [
            "0x7b320d49eac2c333db6dfb543995d40e9f8e96af936ee66da1ac03d9ec4a5a77",
            "0x000000000000000000000000e7f1725e7734ce288f8367e1bb143e90bb3f0512"
          ],
          "data": "0x00000000000000000000000000000000000000000000000018ccc662d876c000",
          "blockHash": "0x4441b573129222be22d4400e2603a8ca4a15d39c6d0776e704413af51c214763",
          "blockNumber": "0x364f",
          "blockTimestamp": "0x69cfdaed",
          "transactionHash": "0x54f5f052c7089f51799deb06c4d5ecd6540d656fa0ff248750cabc1ebd54da80",
          "transactionIndex": "0x2",
          "logIndex": "0x7",
          "removed": false
        },
        {
          "address": "0x5fbdb2315678afecb367f032d93f642f64180aa3",
          "topics": [
            "0xddf252ad1be2c89b69c2b068fc378daa952ba7f163c4a11628f55a4df523b3ef",
            "0x000000000000000000000000e7f1725e7734ce288f8367e1bb143e90bb3f0512",
            "0x000000000000000000000000f39fd6e51aad88f6f4ce6ab8827279cfffb92266"
          ],
          "data": "0x0000000000000000000000000000000000000000000000000c675702a9674000",
          "blockHash": "0x4441b573129222be22d4400e2603a8ca4a15d39c6d0776e704413af51c214763",
          "blockNumber": "0x364f",
          "blockTimestamp": "0x69cfdaed",
          "transactionHash": "0x54f5f052c7089f51799deb06c4d5ecd6540d656fa0ff248750cabc1ebd54da80",
          "transactionIndex": "0x2",
          "logIndex": "0x8",
          "removed": false
        },
        {
          "address": "0x5fbdb2315678afecb367f032d93f642f64180aa3",
          "topics": [
            "0xddf252ad1be2c89b69c2b068fc378daa952ba7f163c4a11628f55a4df523b3ef",
            "0x000000000000000000000000e7f1725e7734ce288f8367e1bb143e90bb3f0512",
            "0x000000000000000000000000457ccf29090fe5a24c19c1bc95f492168c0eafdb"
          ],
          "data": "0x00000000000000000000000000000000000000000000000025341d6581de0000",
          "blockHash": "0x4441b573129222be22d4400e2603a8ca4a15d39c6d0776e704413af51c214763",
          "blockNumber": "0x364f",
          "blockTimestamp": "0x69cfdaed",
          "transactionHash": "0x54f5f052c7089f51799deb06c4d5ecd6540d656fa0ff248750cabc1ebd54da80",
          "transactionIndex": "0x2",
          "logIndex": "0x9",
          "removed": false
        },
        {
          "address": "0xe7f1725e7734ce288f8367e1bb143e90bb3f0512",
          "topics": [
            "0x0dbf6466fc85a1dfc483035dd7c09f8326cee61f37a6cfa6c7097da85140e060",
            "0x000000000000000000000000457ccf29090fe5a24c19c1bc95f492168c0eafdb"
          ],
          "data": "0x0000000000000000000000000000000000000000000000004a683acb03bc000000000000000000000000000000000000000000000000000018ccc662d876c0000000000000000000000000000000000000000000000000000c675702a967400000000000000000000000000000000000000000000000000025341d6581de0000",
          "blockHash": "0x4441b573129222be22d4400e2603a8ca4a15d39c6d0776e704413af51c214763",
          "blockNumber": "0x364f",
          "blockTimestamp": "0x69cfdaed",
          "transactionHash": "0x54f5f052c7089f51799deb06c4d5ecd6540d656fa0ff248750cabc1ebd54da80",
          "transactionIndex": "0x2",
          "logIndex": "0xa",
          "removed": false
        },
        {
          "address": "0x5f6470d65d82c4fcfd5b7245d76a9011158ad142",
          "topics": [
            "0xddf252ad1be2c89b69c2b068fc378daa952ba7f163c4a11628f55a4df523b3ef",
            "0x0000000000000000000000000000000000000000000000000000000000000000",
            "0x000000000000000000000000f39fd6e51aad88f6f4ce6ab8827279cfffb92266"
          ],
          "data": "0x0000000000000000000000000000000000000000000000008ac7230489e80000",
          "blockHash": "0x4441b573129222be22d4400e2603a8ca4a15d39c6d0776e704413af51c214763",
          "blockNumber": "0x364f",
          "blockTimestamp": "0x69cfdaed",
          "transactionHash": "0x54f5f052c7089f51799deb06c4d5ecd6540d656fa0ff248750cabc1ebd54da80",
          "transactionIndex": "0x2",
          "logIndex": "0xb",
          "removed": false
        },
        {
          "address": "0x457ccf29090fe5a24c19c1bc95f492168c0eafdb",
          "topics": [
            "0xafa80970438fa6a8ad54574239a8d28d0cc4b50da6e4473eab194dea551c6c87",
            "0x000000000000000000000000f39fd6e51aad88f6f4ce6ab8827279cfffb92266",
            "0x3a54a9a690616fbc26cfc409bf11f89d51f1d57a4ab2791fb86026cee74ed2f3"
          ],
          "data": "0x0000000000000000000000000000000000000000000000008ac7230489e800000000000000000000000000000000000000000000000000915392d4834b3000000000000000000000000000000000000000000000000000004a683acb03bc0000",
          "blockHash": "0x4441b573129222be22d4400e2603a8ca4a15d39c6d0776e704413af51c214763",
          "blockNumber": "0x364f",
          "blockTimestamp": "0x69cfdaed",
          "transactionHash": "0x54f5f052c7089f51799deb06c4d5ecd6540d656fa0ff248750cabc1ebd54da80",
          "transactionIndex": "0x2",
          "logIndex": "0xc",
          "removed": false
        }
      ],
      "logsBloom": "0x00000000000000000411000000000000000400000000000000000000000000000200000000400000000000080000000010000000000000000002000000200000000000000000000000000008000000000000008000000000000000000000000000000040020000000000000100800800000004000000010000000014400000000000020000000000000000000000200000000020000000000000000200000000020000000000000000000002000000000100010040000000800000000000000000000042000000200000000001001000000000002008000001000000000020000010000000000000000000000000000000000000000000840000000000000000",
      "type": "0x0",
      "transactionHash": "0x54f5f052c7089f51799deb06c4d5ecd6540d656fa0ff248750cabc1ebd54da80",
      "transactionIndex": "0x2",
      "blockHash": "0x4441b573129222be22d4400e2603a8ca4a15d39c6d0776e704413af51c214763",
      "blockNumber": "0x364f",
      "gasUsed": "0x40cdf",
      "effectiveGasPrice": "0x3b9aca07",
      "blobGasPrice": "0x1",
      "from": "0xf39fd6e51aad88f6f4ce6ab8827279cfffb92266",
      "to": "0x457ccf29090fe5a24c19c1bc95f492168c0eafdb",
      "contractAddress": null,
      "blockTimestamp": 1775229677
    },
    {
      "status": "0x1",
      "cumulativeGasUsed": "0x7dc22",
      "logs": [
        {
          "address": "0x5fbdb2315678afecb367f032d93f642f64180aa3",
          "topics": [
            "0xddf252ad1be2c89b69c2b068fc378daa952ba7f163c4a11628f55a4df523b3ef",
            "0x000000000000000000000000f39fd6e51aad88f6f4ce6ab8827279cfffb92266",
            "0x000000000000000000000000457ccf29090fe5a24c19c1bc95f492168c0eafdb"
          ],
          "data": "0x000000000000000000000000000000000000000000000fe1c215e8f838e00000",
          "blockHash": "0x4441b573129222be22d4400e2603a8ca4a15d39c6d0776e704413af51c214763",
          "blockNumber": "0x364f",
          "blockTimestamp": "0x69cfdaed",
          "transactionHash": "0x00a37f309af0e9c3c62029e2ea717d9d10892f01953696f57c4f51ee94c4a6b0",
          "transactionIndex": "0x3",
          "logIndex": "0xd",
          "removed": false
        },
        {
          "address": "0x457ccf29090fe5a24c19c1bc95f492168c0eafdb",
          "topics": [
            "0x88df26d296ecbf594c8609f433503d1436d24afe03c0d9e5e29c8f6ed92ef9b4",
            "0x000000000000000000000000f39fd6e51aad88f6f4ce6ab8827279cfffb92266",
            "0x0a8f1f385fed9c77a2e0daa363ccc865e971bdbe4458bb570cc0acb068d7c0f2"
          ],
          "data": "0x000000000000000000000000000000000000000000000fe1c215e8f838e00000",
          "blockHash": "0x4441b573129222be22d4400e2603a8ca4a15d39c6d0776e704413af51c214763",
          "blockNumber": "0x364f",
          "blockTimestamp": "0x69cfdaed",
          "transactionHash": "0x00a37f309af0e9c3c62029e2ea717d9d10892f01953696f57c4f51ee94c4a6b0",
          "transactionIndex": "0x3",
          "logIndex": "0xe",
          "removed": false
        }
      ],
      "logsBloom": "0x00000000000000000001000000000000000000000000000000000000000000000000000000400001000000000000000000000000000000000003000000000000000000000080000000000008000000000000008000000000000000000000000000000040000000000000000100000000000000000000000000000010000000000800020000000000000000000000000000000000000000000000000200000000000000000000000000000000000000000004012000000000000000000000000000000042000000200000000000000000000000002000000000000000000000000000000000000000000000000000000000000000000000000000000000000000",
      "type": "0x0",
      "transactionHash": "0x00a37f309af0e9c3c62029e2ea717d9d10892f01953696f57c4f51ee94c4a6b0",
      "transactionIndex": "0x3",
      "blockHash": "0x4441b573129222be22d4400e2603a8ca4a15d39c6d0776e704413af51c214763",
      "blockNumber": "0x364f",
      "gasUsed": "0x16a4e",
      "effectiveGasPrice": "0x3b9aca07",
      "blobGasPrice": "0x1",
      "from": "0xf39fd6e51aad88f6f4ce6ab8827279cfffb92266",
      "to": "0x457ccf29090fe5a24c19c1bc95f492168c0eafdb",
      "contractAddress": null,
      "blockTimestamp": 1775229677
    },
    {
      "status": "0x1",
      "cumulativeGasUsed": "0xaddd1",
      "logs": [
        {
          "address": "0x5fbdb2315678afecb367f032d93f642f64180aa3",
          "topics": [
            "0xddf252ad1be2c89b69c2b068fc378daa952ba7f163c4a11628f55a4df523b3ef",
            "0x000000000000000000000000f39fd6e51aad88f6f4ce6ab8827279cfffb92266",
            "0x000000000000000000000000457ccf29090fe5a24c19c1bc95f492168c0eafdb"
          ],
          "data": "0x00000000000000000000000000000000000000000000000067757b0070898000",
          "blockHash": "0x4441b573129222be22d4400e2603a8ca4a15d39c6d0776e704413af51c214763",
          "blockNumber": "0x364f",
          "blockTimestamp": "0x69cfdaed",
          "transactionHash": "0xbdd71e9c40d09ca527a0b367500832912a8e6574114e00f1e5e5283ff3bbf547",
          "transactionIndex": "0x4",
          "logIndex": "0xf",
          "removed": false
        },
        {
          "address": "0x5fbdb2315678afecb367f032d93f642f64180aa3",
          "topics": [
            "0x8c5be1e5ebec7d5bd14f71427d1e84f3dd0314c0f7b2291e5b200ac8c7c3b925",
            "0x000000000000000000000000457ccf29090fe5a24c19c1bc95f492168c0eafdb",
            "0x000000000000000000000000e7f1725e7734ce288f8367e1bb143e90bb3f0512"
          ],
          "data": "0x00000000000000000000000000000000000000000000000067757b0070898000",
          "blockHash": "0x4441b573129222be22d4400e2603a8ca4a15d39c6d0776e704413af51c214763",
          "blockNumber": "0x364f",
          "blockTimestamp": "0x69cfdaed",
          "transactionHash": "0xbdd71e9c40d09ca527a0b367500832912a8e6574114e00f1e5e5283ff3bbf547",
          "transactionIndex": "0x4",
          "logIndex": "0x10",
          "removed": false
        },
        {
          "address": "0x5fbdb2315678afecb367f032d93f642f64180aa3",
          "topics": [
            "0xddf252ad1be2c89b69c2b068fc378daa952ba7f163c4a11628f55a4df523b3ef",
            "0x000000000000000000000000457ccf29090fe5a24c19c1bc95f492168c0eafdb",
            "0x000000000000000000000000e7f1725e7734ce288f8367e1bb143e90bb3f0512"
          ],
          "data": "0x00000000000000000000000000000000000000000000000067757b0070898000",
          "blockHash": "0x4441b573129222be22d4400e2603a8ca4a15d39c6d0776e704413af51c214763",
          "blockNumber": "0x364f",
          "blockTimestamp": "0x69cfdaed",
          "transactionHash": "0xbdd71e9c40d09ca527a0b367500832912a8e6574114e00f1e5e5283ff3bbf547",
          "transactionIndex": "0x4",
          "logIndex": "0x11",
          "removed": false
        },
        {
          "address": "0x5fbdb2315678afecb367f032d93f642f64180aa3",
          "topics": [
            "0xddf252ad1be2c89b69c2b068fc378daa952ba7f163c4a11628f55a4df523b3ef",
            "0x000000000000000000000000e7f1725e7734ce288f8367e1bb143e90bb3f0512",
            "0x0000000000000000000000005fbdb2315678afecb367f032d93f642f64180aa3"
          ],
          "data": "0x000000000000000000000000000000000000000000000000227b9c53109e7800",
          "blockHash": "0x4441b573129222be22d4400e2603a8ca4a15d39c6d0776e704413af51c214763",
          "blockNumber": "0x364f",
          "blockTimestamp": "0x69cfdaed",
          "transactionHash": "0xbdd71e9c40d09ca527a0b367500832912a8e6574114e00f1e5e5283ff3bbf547",
          "transactionIndex": "0x4",
          "logIndex": "0x12",
          "removed": false
        },
        {
          "address": "0x5fbdb2315678afecb367f032d93f642f64180aa3",
          "topics": [
            "0x7b320d49eac2c333db6dfb543995d40e9f8e96af936ee66da1ac03d9ec4a5a77",
            "0x000000000000000000000000e7f1725e7734ce288f8367e1bb143e90bb3f0512"
          ],
          "data": "0x000000000000000000000000000000000000000000000000227b9c53109e7800",
          "blockHash": "0x4441b573129222be22d4400e2603a8ca4a15d39c6d0776e704413af51c214763",
          "blockNumber": "0x364f",
          "blockTimestamp": "0x69cfdaed",
          "transactionHash": "0xbdd71e9c40d09ca527a0b367500832912a8e6574114e00f1e5e5283ff3bbf547",
          "transactionIndex": "0x4",
          "logIndex": "0x13",
          "removed": false
        },
        {
          "address": "0x5fbdb2315678afecb367f032d93f642f64180aa3",
          "topics": [
            "0xddf252ad1be2c89b69c2b068fc378daa952ba7f163c4a11628f55a4df523b3ef",
            "0x000000000000000000000000e7f1725e7734ce288f8367e1bb143e90bb3f0512",
            "0x000000000000000000000000f39fd6e51aad88f6f4ce6ab8827279cfffb92266"
          ],
          "data": "0x000000000000000000000000000000000000000000000000113f212d27a64800",
          "blockHash": "0x4441b573129222be22d4400e2603a8ca4a15d39c6d0776e704413af51c214763",
          "blockNumber": "0x364f",
          "blockTimestamp": "0x69cfdaed",
          "transactionHash": "0xbdd71e9c40d09ca527a0b367500832912a8e6574114e00f1e5e5283ff3bbf547",
          "transactionIndex": "0x4",
          "logIndex": "0x14",
          "removed": false
        },
        {
          "address": "0x5fbdb2315678afecb367f032d93f642f64180aa3",
          "topics": [
            "0xddf252ad1be2c89b69c2b068fc378daa952ba7f163c4a11628f55a4df523b3ef",
            "0x000000000000000000000000e7f1725e7734ce288f8367e1bb143e90bb3f0512",
            "0x000000000000000000000000457ccf29090fe5a24c19c1bc95f492168c0eafdb"
          ],
          "data": "0x00000000000000000000000000000000000000000000000033babd803844c000",
          "blockHash": "0x4441b573129222be22d4400e2603a8ca4a15d39c6d0776e704413af51c214763",
          "blockNumber": "0x364f",
          "blockTimestamp": "0x69cfdaed",
          "transactionHash": "0xbdd71e9c40d09ca527a0b367500832912a8e6574114e00f1e5e5283ff3bbf547",
          "transactionIndex": "0x4",
          "logIndex": "0x15",
          "removed": false
        },
        {
          "address": "0xe7f1725e7734ce288f8367e1bb143e90bb3f0512",
          "topics": [
            "0x0dbf6466fc85a1dfc483035dd7c09f8326cee61f37a6cfa6c7097da85140e060",
            "0x000000000000000000000000457ccf29090fe5a24c19c1bc95f492168c0eafdb"
          ],
          "data": "0x00000000000000000000000000000000000000000000000067757b0070898000000000000000000000000000000000000000000000000000227b9c53109e7800000000000000000000000000000000000000000000000000113f212d27a6480000000000000000000000000000000000000000000000000033babd803844c000",
          "blockHash": "0x4441b573129222be22d4400e2603a8ca4a15d39c6d0776e704413af51c214763",
          "blockNumber": "0x364f",
          "blockTimestamp": "0x69cfdaed",
          "transactionHash": "0xbdd71e9c40d09ca527a0b367500832912a8e6574114e00f1e5e5283ff3bbf547",
          "transactionIndex": "0x4",
          "logIndex": "0x16",
          "removed": false
        },
        {
          "address": "0xd98678105a4b298890eb35ffbc2d3b02357413ec",
          "topics": [
            "0xddf252ad1be2c89b69c2b068fc378daa952ba7f163c4a11628f55a4df523b3ef",
            "0x0000000000000000000000000000000000000000000000000000000000000000",
            "0x000000000000000000000000f39fd6e51aad88f6f4ce6ab8827279cfffb92266"
          ],
          "data": "0x0000000000000000000000000000000000000000000000008ac7230489e80000",
          "blockHash": "0x4441b573129222be22d4400e2603a8ca4a15d39c6d0776e704413af51c214763",
          "blockNumber": "0x364f",
          "blockTimestamp": "0x69cfdaed",
          "transactionHash": "0xbdd71e9c40d09ca527a0b367500832912a8e6574114e00f1e5e5283ff3bbf547",
          "transactionIndex": "0x4",
          "logIndex": "0x17",
          "removed": false
        },
        {
          "address": "0x457ccf29090fe5a24c19c1bc95f492168c0eafdb",
          "topics": [
            "0xafa80970438fa6a8ad54574239a8d28d0cc4b50da6e4473eab194dea551c6c87",
            "0x000000000000000000000000f39fd6e51aad88f6f4ce6ab8827279cfffb92266",
            "0x0a8f1f385fed9c77a2e0daa363ccc865e971bdbe4458bb570cc0acb068d7c0f2"
          ],
          "data": "0x0000000000000000000000000000000000000000000000008ac7230489e800000000000000000000000000000000000000000000000000ca11743cdbcc8e000000000000000000000000000000000000000000000000000067757b0070898000",
          "blockHash": "0x4441b573129222be22d4400e2603a8ca4a15d39c6d0776e704413af51c214763",
          "blockNumber": "0x364f",
          "blockTimestamp": "0x69cfdaed",
          "transactionHash": "0xbdd71e9c40d09ca527a0b367500832912a8e6574114e00f1e5e5283ff3bbf547",
          "transactionIndex": "0x4",
          "logIndex": "0x18",
          "removed": false
        }
      ],
      "logsBloom": "0x00000000000000000411000000000000000400000000000000000000000000000200000000400001000000000000000010000000000000000002000000200000000000000000000000000008000000000000008000000000000000000000000000000040020000000000000100800800000004000000010000000014400000000000020000000000000000000000200000000020000000000000000200000000020000000000000000000002000000000004012040000000000000020000000000000042000000200000000000001000000000002008000001000000000020000010000000000000080000000000000000000000000000800000008000000000",
      "type": "0x0",
      "transactionHash": "0xbdd71e9c40d09ca527a0b367500832912a8e6574114e00f1e5e5283ff3bbf547",
      "transactionIndex": "0x4",
      "blockHash": "0x4441b573129222be22d4400e2603a8ca4a15d39c6d0776e704413af51c214763",
      "blockNumber": "0x364f",
      "gasUsed": "0x301af",
      "effectiveGasPrice": "0x3b9aca07",
      "blobGasPrice": "0x1",
      "from": "0xf39fd6e51aad88f6f4ce6ab8827279cfffb92266",
      "to": "0x457ccf29090fe5a24c19c1bc95f492168c0eafdb",
      "contractAddress": null,
      "blockTimestamp": 1775229677
    },
    {
      "status": "0x1",
      "cumulativeGasUsed": "0xc481f",
      "logs": [
        {
          "address": "0x5fbdb2315678afecb367f032d93f642f64180aa3",
          "topics": [
            "0xddf252ad1be2c89b69c2b068fc378daa952ba7f163c4a11628f55a4df523b3ef",
            "0x000000000000000000000000f39fd6e51aad88f6f4ce6ab8827279cfffb92266",
            "0x000000000000000000000000457ccf29090fe5a24c19c1bc95f492168c0eafdb"
          ],
          "data": "0x0000000000000000000000000000000000000000000034f086f3b33b68400000",
          "blockHash": "0x4441b573129222be22d4400e2603a8ca4a15d39c6d0776e704413af51c214763",
          "blockNumber": "0x364f",
          "blockTimestamp": "0x69cfdaed",
          "transactionHash": "0xbd09a6f85ccbcc586ab4c3e330d1e7a677303e4b8ed99e2076dcc19aefbaa721",
          "transactionIndex": "0x5",
          "logIndex": "0x19",
          "removed": false
        },
        {
          "address": "0x457ccf29090fe5a24c19c1bc95f492168c0eafdb",
          "topics": [
            "0x88df26d296ecbf594c8609f433503d1436d24afe03c0d9e5e29c8f6ed92ef9b4",
            "0x000000000000000000000000f39fd6e51aad88f6f4ce6ab8827279cfffb92266",
            "0xe108948b9667048232851f26a1427d3a908b22da622562906ca50ea536c2ecfb"
          ],
          "data": "0x0000000000000000000000000000000000000000000034f086f3b33b68400000",
          "blockHash": "0x4441b573129222be22d4400e2603a8ca4a15d39c6d0776e704413af51c214763",
          "blockNumber": "0x364f",
          "blockTimestamp": "0x69cfdaed",
          "transactionHash": "0xbd09a6f85ccbcc586ab4c3e330d1e7a677303e4b8ed99e2076dcc19aefbaa721",
          "transactionIndex": "0x5",
          "logIndex": "0x1a",
          "removed": false
        }
      ],
      "logsBloom": "0x00000000000000000001000000000000000000000000000000000000000000000000000000400000000000000000000000000000000000000003000000000000000000000080000000000008000000000000008000000000000000000000000000480040000000000000000100000000000000000000000000000010000000000800020000000000000000000000000000000000000000000000000200000000000000000000000000000000000000000000010000000000000000000000000000000042000000200000000000000000000000002000000000000000000000001000000000000000000000000000000000000000000000000000000000000000",
      "type": "0x0",
      "transactionHash": "0xbd09a6f85ccbcc586ab4c3e330d1e7a677303e4b8ed99e2076dcc19aefbaa721",
      "transactionIndex": "0x5",
      "blockHash": "0x4441b573129222be22d4400e2603a8ca4a15d39c6d0776e704413af51c214763",
      "blockNumber": "0x364f",
      "gasUsed": "0x16a4e",
      "effectiveGasPrice": "0x3b9aca07",
      "blobGasPrice": "0x1",
      "from": "0xf39fd6e51aad88f6f4ce6ab8827279cfffb92266",
      "to": "0x457ccf29090fe5a24c19c1bc95f492168c0eafdb",
      "contractAddress": null,
      "blockTimestamp": 1775229677
    },
    {
      "status": "0x1",
      "cumulativeGasUsed": "0xf49ce",
      "logs": [
        {
          "address": "0x5fbdb2315678afecb367f032d93f642f64180aa3",
          "topics": [
            "0xddf252ad1be2c89b69c2b068fc378daa952ba7f163c4a11628f55a4df523b3ef",
            "0x000000000000000000000000f39fd6e51aad88f6f4ce6ab8827279cfffb92266",
            "0x000000000000000000000000457ccf29090fe5a24c19c1bc95f492168c0eafdb"
          ],
          "data": "0x0000000000000000000000000000000000000000000000016c6ab55fb4fb8000",
          "blockHash": "0x4441b573129222be22d4400e2603a8ca4a15d39c6d0776e704413af51c214763",
          "blockNumber": "0x364f",
          "blockTimestamp": "0x69cfdaed",
          "transactionHash": "0x8d6637d66792cab2698d4531eaf490136e504b82b5e5401f4d89d24822b38728",
          "transactionIndex": "0x6",
          "logIndex": "0x1b",
          "removed": false
        },
        {
          "address": "0x5fbdb2315678afecb367f032d93f642f64180aa3",
          "topics": [
            "0x8c5be1e5ebec7d5bd14f71427d1e84f3dd0314c0f7b2291e5b200ac8c7c3b925",
            "0x000000000000000000000000457ccf29090fe5a24c19c1bc95f492168c0eafdb",
            "0x000000000000000000000000e7f1725e7734ce288f8367e1bb143e90bb3f0512"
          ],
          "data": "0x0000000000000000000000000000000000000000000000016c6ab55fb4fb8000",
          "blockHash": "0x4441b573129222be22d4400e2603a8ca4a15d39c6d0776e704413af51c214763",
          "blockNumber": "0x364f",
          "blockTimestamp": "0x69cfdaed",
          "transactionHash": "0x8d6637d66792cab2698d4531eaf490136e504b82b5e5401f4d89d24822b38728",
          "transactionIndex": "0x6",
          "logIndex": "0x1c",
          "removed": false
        },
        {
          "address": "0x5fbdb2315678afecb367f032d93f642f64180aa3",
          "topics": [
            "0xddf252ad1be2c89b69c2b068fc378daa952ba7f163c4a11628f55a4df523b3ef",
            "0x000000000000000000000000457ccf29090fe5a24c19c1bc95f492168c0eafdb",
            "0x000000000000000000000000e7f1725e7734ce288f8367e1bb143e90bb3f0512"
          ],
          "data": "0x0000000000000000000000000000000000000000000000016c6ab55fb4fb8000",
          "blockHash": "0x4441b573129222be22d4400e2603a8ca4a15d39c6d0776e704413af51c214763",
          "blockNumber": "0x364f",
          "blockTimestamp": "0x69cfdaed",
          "transactionHash": "0x8d6637d66792cab2698d4531eaf490136e504b82b5e5401f4d89d24822b38728",
          "transactionIndex": "0x6",
          "logIndex": "0x1d",
          "removed": false
        },
        {
          "address": "0x5fbdb2315678afecb367f032d93f642f64180aa3",
          "topics": [
            "0xddf252ad1be2c89b69c2b068fc378daa952ba7f163c4a11628f55a4df523b3ef",
            "0x000000000000000000000000e7f1725e7734ce288f8367e1bb143e90bb3f0512",
            "0x0000000000000000000000005fbdb2315678afecb367f032d93f642f64180aa3"
          ],
          "data": "0x0000000000000000000000000000000000000000000000007975cb0b3d6c1800",
          "blockHash": "0x4441b573129222be22d4400e2603a8ca4a15d39c6d0776e704413af51c214763",
          "blockNumber": "0x364f",
          "blockTimestamp": "0x69cfdaed",
          "transactionHash": "0x8d6637d66792cab2698d4531eaf490136e504b82b5e5401f4d89d24822b38728",
          "transactionIndex": "0x6",
          "logIndex": "0x1e",
          "removed": false
        },
        {
          "address": "0x5fbdb2315678afecb367f032d93f642f64180aa3",
          "topics": [
            "0x7b320d49eac2c333db6dfb543995d40e9f8e96af936ee66da1ac03d9ec4a5a77",
            "0x000000000000000000000000e7f1725e7734ce288f8367e1bb143e90bb3f0512"
          ],
          "data": "0x0000000000000000000000000000000000000000000000007975cb0b3d6c1800",
          "blockHash": "0x4441b573129222be22d4400e2603a8ca4a15d39c6d0776e704413af51c214763",
          "blockNumber": "0x364f",
          "blockTimestamp": "0x69cfdaed",
          "transactionHash": "0x8d6637d66792cab2698d4531eaf490136e504b82b5e5401f4d89d24822b38728",
          "transactionIndex": "0x6",
          "logIndex": "0x1f",
          "removed": false
        },
        {
          "address": "0x5fbdb2315678afecb367f032d93f642f64180aa3",
          "topics": [
            "0xddf252ad1be2c89b69c2b068fc378daa952ba7f163c4a11628f55a4df523b3ef",
            "0x000000000000000000000000e7f1725e7734ce288f8367e1bb143e90bb3f0512",
            "0x000000000000000000000000f39fd6e51aad88f6f4ce6ab8827279cfffb92266"
          ],
          "data": "0x0000000000000000000000000000000000000000000000003cbf8fa49d11a800",
          "blockHash": "0x4441b573129222be22d4400e2603a8ca4a15d39c6d0776e704413af51c214763",
          "blockNumber": "0x364f",
          "blockTimestamp": "0x69cfdaed",
          "transactionHash": "0x8d6637d66792cab2698d4531eaf490136e504b82b5e5401f4d89d24822b38728",
          "transactionIndex": "0x6",
          "logIndex": "0x20",
          "removed": false
        },
        {
          "address": "0x5fbdb2315678afecb367f032d93f642f64180aa3",
          "topics": [
            "0xddf252ad1be2c89b69c2b068fc378daa952ba7f163c4a11628f55a4df523b3ef",
            "0x000000000000000000000000e7f1725e7734ce288f8367e1bb143e90bb3f0512",
            "0x000000000000000000000000457ccf29090fe5a24c19c1bc95f492168c0eafdb"
          ],
          "data": "0x000000000000000000000000000000000000000000000000b6355aafda7dc000",
          "blockHash": "0x4441b573129222be22d4400e2603a8ca4a15d39c6d0776e704413af51c214763",
          "blockNumber": "0x364f",
          "blockTimestamp": "0x69cfdaed",
          "transactionHash": "0x8d6637d66792cab2698d4531eaf490136e504b82b5e5401f4d89d24822b38728",
          "transactionIndex": "0x6",
          "logIndex": "0x21",
          "removed": false
        },
        {
          "address": "0xe7f1725e7734ce288f8367e1bb143e90bb3f0512",
          "topics": [
            "0x0dbf6466fc85a1dfc483035dd7c09f8326cee61f37a6cfa6c7097da85140e060",
            "0x000000000000000000000000457ccf29090fe5a24c19c1bc95f492168c0eafdb"
          ],
          "data": "0x0000000000000000000000000000000000000000000000016c6ab55fb4fb80000000000000000000000000000000000000000000000000007975cb0b3d6c18000000000000000000000000000000000000000000000000003cbf8fa49d11a800000000000000000000000000000000000000000000000000b6355aafda7dc000",
          "blockHash": "0x4441b573129222be22d4400e2603a8ca4a15d39c6d0776e704413af51c214763",
          "blockNumber": "0x364f",
          "blockTimestamp": "0x69cfdaed",
          "transactionHash": "0x8d6637d66792cab2698d4531eaf490136e504b82b5e5401f4d89d24822b38728",
          "transactionIndex": "0x6",
          "logIndex": "0x22",
          "removed": false
        },
        {
          "address": "0xad2fcf4db5988ef8616bb5fc021e4ab5b4c77281",
          "topics": [
            "0xddf252ad1be2c89b69c2b068fc378daa952ba7f163c4a11628f55a4df523b3ef",
            "0x0000000000000000000000000000000000000000000000000000000000000000",
            "0x000000000000000000000000f39fd6e51aad88f6f4ce6ab8827279cfffb92266"
          ],
          "data": "0x0000000000000000000000000000000000000000000000008ac7230489e80000",
          "blockHash": "0x4441b573129222be22d4400e2603a8ca4a15d39c6d0776e704413af51c214763",
          "blockNumber": "0x364f",
          "blockTimestamp": "0x69cfdaed",
          "transactionHash": "0x8d6637d66792cab2698d4531eaf490136e504b82b5e5401f4d89d24822b38728",
          "transactionIndex": "0x6",
          "logIndex": "0x23",
          "removed": false
        },
        {
          "address": "0x457ccf29090fe5a24c19c1bc95f492168c0eafdb",
          "topics": [
            "0xafa80970438fa6a8ad54574239a8d28d0cc4b50da6e4473eab194dea551c6c87",
            "0x000000000000000000000000f39fd6e51aad88f6f4ce6ab8827279cfffb92266",
            "0xe108948b9667048232851f26a1427d3a908b22da622562906ca50ea536c2ecfb"
          ],
          "data": "0x0000000000000000000000000000000000000000000000008ac7230489e800000000000000000000000000000000000000000000000002c7c06a3eed7b3600000000000000000000000000000000000000000000000000016c6ab55fb4fb8000",
          "blockHash": "0x4441b573129222be22d4400e2603a8ca4a15d39c6d0776e704413af51c214763",
          "blockNumber": "0x364f",
          "blockTimestamp": "0x69cfdaed",
          "transactionHash": "0x8d6637d66792cab2698d4531eaf490136e504b82b5e5401f4d89d24822b38728",
          "transactionIndex": "0x6",
          "logIndex": "0x24",
          "removed": false
        }
      ],
      "logsBloom": "0x00000000000080000411000000000000000400000000000000000000000000000200000000400000000000000000000010000000000000000002000000200000000000000000000000000008000000000000008000000000000000000000000000480040020000000000000100800800000004000000010000000014400000000000020000000000000000000000200000000020000000000000000200000000022000000400000000000002000000000000010040000000000000000000000000000042000000200000000000001000000000002008000001000000000020001010000000000000000000000000000000000000000000800000000000000000",
      "type": "0x0",
      "transactionHash": "0x8d6637d66792cab2698d4531eaf490136e504b82b5e5401f4d89d24822b38728",
      "transactionIndex": "0x6",
      "blockHash": "0x4441b573129222be22d4400e2603a8ca4a15d39c6d0776e704413af51c214763",
      "blockNumber": "0x364f",
      "gasUsed": "0x301af",
      "effectiveGasPrice": "0x3b9aca07",
      "blobGasPrice": "0x1",
      "from": "0xf39fd6e51aad88f6f4ce6ab8827279cfffb92266",
      "to": "0x457ccf29090fe5a24c19c1bc95f492168c0eafdb",
      "contractAddress": null,
      "blockTimestamp": 1775229677
    },
    {
      "status": "0x1",
      "cumulativeGasUsed": "0x10b428",
      "logs": [
        {
          "address": "0x5fbdb2315678afecb367f032d93f642f64180aa3",
          "topics": [
            "0xddf252ad1be2c89b69c2b068fc378daa952ba7f163c4a11628f55a4df523b3ef",
            "0x000000000000000000000000f39fd6e51aad88f6f4ce6ab8827279cfffb92266",
            "0x000000000000000000000000457ccf29090fe5a24c19c1bc95f492168c0eafdb"
          ],
          "data": "0x000000000000000000000000000000000000000000000a968163f0a57b400000",
          "blockHash": "0x4441b573129222be22d4400e2603a8ca4a15d39c6d0776e704413af51c214763",
          "blockNumber": "0x364f",
          "blockTimestamp": "0x69cfdaed",
          "transactionHash": "0x87618c685b130be2fac727083d426fd009c8e929212089eb8af6d48ce055b059",
          "transactionIndex": "0x7",
          "logIndex": "0x25",
          "removed": false
        },
        {
          "address": "0x457ccf29090fe5a24c19c1bc95f492168c0eafdb",
          "topics": [
            "0x88df26d296ecbf594c8609f433503d1436d24afe03c0d9e5e29c8f6ed92ef9b4",
            "0x000000000000000000000000f39fd6e51aad88f6f4ce6ab8827279cfffb92266",
            "0x5480d4740314d9a5fa65eac6dab758c3c95d65be45311b45c3551575d760e7d8"
          ],
          "data": "0x000000000000000000000000000000000000000000000a968163f0a57b400000",
          "blockHash": "0x4441b573129222be22d4400e2603a8ca4a15d39c6d0776e704413af51c214763",
          "blockNumber": "0x364f",
          "blockTimestamp": "0x69cfdaed",
          "transactionHash": "0x87618c685b130be2fac727083d426fd009c8e929212089eb8af6d48ce055b059",
          "transactionIndex": "0x7",
          "logIndex": "0x26",
          "removed": false
        }
      ],
      "logsBloom": "0x00000000000000000001000000000000000000000000000000000000000000000000000000400000000000000000000000000000000000000003000000000000000000000080000000000008000000000000008000000000000000000008000000000040000000000000000100000000000000000000000000000010000000000800020000000000000000000000000000000000000000000000000200000000000000000000000000000000000000000000110000000000000800000000000000000042000000200000000000000000000000002000000000000000000000000000000000000000000000000000000000000000000000000000000000000000",
      "type": "0x0",
      "transactionHash": "0x87618c685b130be2fac727083d426fd009c8e929212089eb8af6d48ce055b059",
      "transactionIndex": "0x7",
      "blockHash": "0x4441b573129222be22d4400e2603a8ca4a15d39c6d0776e704413af51c214763",
      "blockNumber": "0x364f",
      "gasUsed": "0x16a5a",
      "effectiveGasPrice": "0x3b9aca07",
      "blobGasPrice": "0x1",
      "from": "0xf39fd6e51aad88f6f4ce6ab8827279cfffb92266",
      "to": "0x457ccf29090fe5a24c19c1bc95f492168c0eafdb",
      "contractAddress": null,
      "blockTimestamp": 1775229677
    },
    {
      "status": "0x1",
      "cumulativeGasUsed": "0x13b5e3",
      "logs": [
        {
          "address": "0x5fbdb2315678afecb367f032d93f642f64180aa3",
          "topics": [
            "0xddf252ad1be2c89b69c2b068fc378daa952ba7f163c4a11628f55a4df523b3ef",
            "0x000000000000000000000000f39fd6e51aad88f6f4ce6ab8827279cfffb92266",
            "0x000000000000000000000000457ccf29090fe5a24c19c1bc95f492168c0eafdb"
          ],
          "data": "0x00000000000000000000000000000000000000000000000040dd623c702d0000",
          "blockHash": "0x4441b573129222be22d4400e2603a8ca4a15d39c6d0776e704413af51c214763",
          "blockNumber": "0x364f",
          "blockTimestamp": "0x69cfdaed",
          "transactionHash": "0x4311851db9cee054746bbf649abc10f24780f97097dac3ebf7067146d4b6e98e",
          "transactionIndex": "0x8",
          "logIndex": "0x27",
          "removed": false
        },
        {
          "address": "0x5fbdb2315678afecb367f032d93f642f64180aa3",
          "topics": [
            "0x8c5be1e5ebec7d5bd14f71427d1e84f3dd0314c0f7b2291e5b200ac8c7c3b925",
            "0x000000000000000000000000457ccf29090fe5a24c19c1bc95f492168c0eafdb",
            "0x000000000000000000000000e7f1725e7734ce288f8367e1bb143e90bb3f0512"
          ],
          "data": "0x00000000000000000000000000000000000000000000000040dd623c702d0000",
          "blockHash": "0x4441b573129222be22d4400e2603a8ca4a15d39c6d0776e704413af51c214763",
          "blockNumber": "0x364f",
          "blockTimestamp": "0x69cfdaed",
          "transactionHash": "0x4311851db9cee054746bbf649abc10f24780f97097dac3ebf7067146d4b6e98e",
          "transactionIndex": "0x8",
          "logIndex": "0x28",
          "removed": false
        },
        {
          "address": "0x5fbdb2315678afecb367f032d93f642f64180aa3",
          "topics": [
            "0xddf252ad1be2c89b69c2b068fc378daa952ba7f163c4a11628f55a4df523b3ef",
            "0x000000000000000000000000457ccf29090fe5a24c19c1bc95f492168c0eafdb",
            "0x000000000000000000000000e7f1725e7734ce288f8367e1bb143e90bb3f0512"
          ],
          "data": "0x00000000000000000000000000000000000000000000000040dd623c702d0000",
          "blockHash": "0x4441b573129222be22d4400e2603a8ca4a15d39c6d0776e704413af51c214763",
          "blockNumber": "0x364f",
          "blockTimestamp": "0x69cfdaed",
          "transactionHash": "0x4311851db9cee054746bbf649abc10f24780f97097dac3ebf7067146d4b6e98e",
          "transactionIndex": "0x8",
          "logIndex": "0x29",
          "removed": false
        },
        {
          "address": "0x5fbdb2315678afecb367f032d93f642f64180aa3",
          "topics": [
            "0xddf252ad1be2c89b69c2b068fc378daa952ba7f163c4a11628f55a4df523b3ef",
            "0x000000000000000000000000e7f1725e7734ce288f8367e1bb143e90bb3f0512",
            "0x0000000000000000000000005fbdb2315678afecb367f032d93f642f64180aa3"
          ],
          "data": "0x000000000000000000000000000000000000000000000000159e930bcc671000",
          "blockHash": "0x4441b573129222be22d4400e2603a8ca4a15d39c6d0776e704413af51c214763",
          "blockNumber": "0x364f",
          "blockTimestamp": "0x69cfdaed",
          "transactionHash": "0x4311851db9cee054746bbf649abc10f24780f97097dac3ebf7067146d4b6e98e",
          "transactionIndex": "0x8",
          "logIndex": "0x2a",
          "removed": false
        },
        {
          "address": "0x5fbdb2315678afecb367f032d93f642f64180aa3",
          "topics": [
            "0x7b320d49eac2c333db6dfb543995d40e9f8e96af936ee66da1ac03d9ec4a5a77",
            "0x000000000000000000000000e7f1725e7734ce288f8367e1bb143e90bb3f0512"
          ],
          "data": "0x000000000000000000000000000000000000000000000000159e930bcc671000",
          "blockHash": "0x4441b573129222be22d4400e2603a8ca4a15d39c6d0776e704413af51c214763",
          "blockNumber": "0x364f",
          "blockTimestamp": "0x69cfdaed",
          "transactionHash": "0x4311851db9cee054746bbf649abc10f24780f97097dac3ebf7067146d4b6e98e",
          "transactionIndex": "0x8",
          "logIndex": "0x2b",
          "removed": false
        },
        {
          "address": "0x5fbdb2315678afecb367f032d93f642f64180aa3",
          "topics": [
            "0xddf252ad1be2c89b69c2b068fc378daa952ba7f163c4a11628f55a4df523b3ef",
            "0x000000000000000000000000e7f1725e7734ce288f8367e1bb143e90bb3f0512",
            "0x000000000000000000000000f39fd6e51aad88f6f4ce6ab8827279cfffb92266"
          ],
          "data": "0x0000000000000000000000000000000000000000000000000ad01e126baf7000",
          "blockHash": "0x4441b573129222be22d4400e2603a8ca4a15d39c6d0776e704413af51c214763",
          "blockNumber": "0x364f",
          "blockTimestamp": "0x69cfdaed",
          "transactionHash": "0x4311851db9cee054746bbf649abc10f24780f97097dac3ebf7067146d4b6e98e",
          "transactionIndex": "0x8",
          "logIndex": "0x2c",
          "removed": false
        },
        {
          "address": "0x5fbdb2315678afecb367f032d93f642f64180aa3",
          "topics": [
            "0xddf252ad1be2c89b69c2b068fc378daa952ba7f163c4a11628f55a4df523b3ef",
            "0x000000000000000000000000e7f1725e7734ce288f8367e1bb143e90bb3f0512",
            "0x000000000000000000000000457ccf29090fe5a24c19c1bc95f492168c0eafdb"
          ],
          "data": "0x000000000000000000000000000000000000000000000000206eb11e38168000",
          "blockHash": "0x4441b573129222be22d4400e2603a8ca4a15d39c6d0776e704413af51c214763",
          "blockNumber": "0x364f",
          "blockTimestamp": "0x69cfdaed",
          "transactionHash": "0x4311851db9cee054746bbf649abc10f24780f97097dac3ebf7067146d4b6e98e",
          "transactionIndex": "0x8",
          "logIndex": "0x2d",
          "removed": false
        },
        {
          "address": "0xe7f1725e7734ce288f8367e1bb143e90bb3f0512",
          "topics": [
            "0x0dbf6466fc85a1dfc483035dd7c09f8326cee61f37a6cfa6c7097da85140e060",
            "0x000000000000000000000000457ccf29090fe5a24c19c1bc95f492168c0eafdb"
          ],
          "data": "0x00000000000000000000000000000000000000000000000040dd623c702d0000000000000000000000000000000000000000000000000000159e930bcc6710000000000000000000000000000000000000000000000000000ad01e126baf7000000000000000000000000000000000000000000000000000206eb11e38168000",
          "blockHash": "0x4441b573129222be22d4400e2603a8ca4a15d39c6d0776e704413af51c214763",
          "blockNumber": "0x364f",
          "blockTimestamp": "0x69cfdaed",
          "transactionHash": "0x4311851db9cee054746bbf649abc10f24780f97097dac3ebf7067146d4b6e98e",
          "transactionIndex": "0x8",
          "logIndex": "0x2e",
          "removed": false
        },
        {
          "address": "0x827dce508aaf3b8da694cc514bf99085bc94e0ca",
          "topics": [
            "0xddf252ad1be2c89b69c2b068fc378daa952ba7f163c4a11628f55a4df523b3ef",
            "0x0000000000000000000000000000000000000000000000000000000000000000",
            "0x000000000000000000000000f39fd6e51aad88f6f4ce6ab8827279cfffb92266"
          ],
          "data": "0x0000000000000000000000000000000000000000000000008ac7230489e80000",
          "blockHash": "0x4441b573129222be22d4400e2603a8ca4a15d39c6d0776e704413af51c214763",
          "blockNumber": "0x364f",
          "blockTimestamp": "0x69cfdaed",
          "transactionHash": "0x4311851db9cee054746bbf649abc10f24780f97097dac3ebf7067146d4b6e98e",
          "transactionIndex": "0x8",
          "logIndex": "0x2f",
          "removed": false
        },
        {
          "address": "0x457ccf29090fe5a24c19c1bc95f492168c0eafdb",
          "topics": [
            "0xafa80970438fa6a8ad54574239a8d28d0cc4b50da6e4473eab194dea551c6c87",
            "0x000000000000000000000000f39fd6e51aad88f6f4ce6ab8827279cfffb92266",
            "0x5480d4740314d9a5fa65eac6dab758c3c95d65be45311b45c3551575d760e7d8"
          ],
          "data": "0x0000000000000000000000000000000000000000000000008ac7230489e8000000000000000000000000000000000000000000000000007eb063de0b17e4000000000000000000000000000000000000000000000000000040dd623c702d0000",
          "blockHash": "0x4441b573129222be22d4400e2603a8ca4a15d39c6d0776e704413af51c214763",
          "blockNumber": "0x364f",
          "blockTimestamp": "0x69cfdaed",
          "transactionHash": "0x4311851db9cee054746bbf649abc10f24780f97097dac3ebf7067146d4b6e98e",
          "transactionIndex": "0x8",
          "logIndex": "0x30",
          "removed": false
        }
      ],
      "logsBloom": "0x00000000000000000411000000000000000400000000000000000400000000000200000000400000000040000000000010000000000000000002000000200000000000000000000000000008000000000000008000000000000000000008000000000040020000000000000100800800000004000000010000000014400000000000020000000000000000000000200000000020000000000000000200000000020000000000000000000002000000000000110040000000000800000000000000000042000000200000000000001000008000002008000001000000000020000010000000000000000000000000000000000000000000800000000000000000",
      "type": "0x0",
      "transactionHash": "0x4311851db9cee054746bbf649abc10f24780f97097dac3ebf7067146d4b6e98e",
      "transactionIndex": "0x8",
      "blockHash": "0x4441b573129222be22d4400e2603a8ca4a15d39c6d0776e704413af51c214763",
      "blockNumber": "0x364f",
      "gasUsed": "0x301bb",
      "effectiveGasPrice": "0x3b9aca07",
      "blobGasPrice": "0x1",
      "from": "0xf39fd6e51aad88f6f4ce6ab8827279cfffb92266",
      "to": "0x457ccf29090fe5a24c19c1bc95f492168c0eafdb",
      "contractAddress": null,
      "blockTimestamp": 1775229677
    }
  ],
  "libraries": [],
  "pending": [],
  "returns": {},
  "timestamp": 1775229677287,
  "chain": 42069,
  "commit": "0f9531e"
}