{
  "transactions": [
    {
      "hash": "0xd0ff9d53bda469c25f2ae2407e065cd041455cd2799e08b0357ae7f6f1992065",
      "transactionType": "CREATE",
      "contractName": "AgentRegistry",
      "contractAddress": "0xa9d0fb5837f9c42c874e16da96094b14af0e2784",
      "function": null,
      "arguments": null,
      "transaction": {
        "from": "0xf39fd6e51aad88f6f4ce6ab8827279cfffb92266",
        "gas": "0x29dd4f",
        "value": "0x0",
        "input": "0x60808060405234602c57610d056001555f80546001600160a01b0319163317905561245c90816100318239f35b5f80fdfe6080806040526004361015610012575f80fd5b5f3560e01c908163152052b014611cac575080632bfa4e0814611c125780632de5aaf714611bf4578063388ae35614611b3c5780633a41429a14611aff578063513856c814611abd5780635de5c21214611a4c5780635e02cb7d146119d45780635f81a57c146119b7578063665218931461199a57806369f1324d146114c6578063704b6c02146114785780638bcdcbf3146113fa57806391cab63e146113dd5780639d5a394114611095578063a2f6805c1461105f578063a4efe69e14610fe4578063af537a2f14610fc7578063b0a0a92714610f13578063b1e29ea414610bc3578063b896f22214610b10578063bbe1562714610a28578063c3c5a547146109eb578063c5053712146109ce578063dd8755f2146108c4578063e275c997146108a7578063e2f11e611461017b5763f851a44014610150575f80fd5b34610177575f366003190112610177575f546040516001600160a01b039091168152602090f35b5f80fd5b3461017757608036600319011261017757610194611efd565b6024356001600160401b038111610177576101b3903690600401611fee565b90335f52600760205260ff60405f2054168015610894575b6101d4906123cd565b6001600160a01b0383165f9081526003602052604090205460ff16156103ff575b600154606435808202939181159185041417156103eb576127107fe569346dc44a549a2dba8bdb890e3ad5f8b19481c95faf552e6c4684f90f369c93049360018060a01b0381165f52600560205260405f20610251815461224c565b905560018060a01b0381165f526005602052600160405f20016102776044358254612419565b905560018060a01b0381165f526005602052600260405f200161029d6064358254612419565b905560018060a01b0381165f526005602052600360405f20016102c1868254612419565b90556001600160a01b0381165f9081526005602090815260408083204260069182015582529182902091519182908587833785820190815203019020610307815461224c565b905560018060a01b0381165f526006602052600160405f20602060405180928688833786820190815203019020016103426044358254612419565b905560018060a01b0381165f526006602052600260405f206020604051809286888337868201908152030190200161037d6064358254612419565b905561038a600a5461224c565b600a5561039b604435600b54612419565b600b556103aa85600c54612419565b600c556103c46040519384936080855260808501916122b8565b6044356020840152606435604084015260608301959095526001600160a01b0316930390a2005b634e487b7160e01b5f52601160045260245ffd5b6001600160a01b0383165f908152600360205260409020805460ff1916600117905561042a83612207565b61043560095461224c565b60095560405161044481611f37565b604080516104528282611f88565b600f81526e105b9bdb9e5b5bdd5cc81059d95b9d608a1b602082015282526020918151906104808483611f88565b5f825283810191825282516104958582611f88565b5f8082528285019182526001600160a01b03891660608401818152426080860152600160a0860152908252600487529085902083518051919592939291906001600160401b0382116107af576104f5826104ef8954612102565b8961225a565b8890601f83116001146108315761052392915f91836107c3575b50508160011b915f199060031b1c19161790565b85555b51805160018601916001600160401b0382116107af576105508261054a8554612102565b8561225a565b8890601f83116001146107ce5761057d92915f91836107c35750508160011b915f199060031b1c19161790565b90555b518051906001600160401b0382116107af576105ac826105a36002880154612102565b6002880161225a565b8690601f831160011461072657936e105b9bdb9e5b5bdd5cc81059d95b9d608a1b9695936105f88460059560a095610649995f9261071b5750508160011b915f199060031b1c19161790565b60028601555b600180841b039051166003850190600180851b03166bffffffffffffffffffffffff841b825416179055608081015160048501550151151591019060ff801983541691151516179055565b805161065481611f52565b5f81526006876106ce8684015f81528585015f8152606086015f815260808701915f835260a08801936001855260c089019642885260018060a01b03165f5260058c52895f2098518955516001890155516002880155516003870155516004860155511515600585019060ff801983541691151516179055565b519101558051838152600f938101939093528201526001600160a01b0384169081907f6cf3badcf1a10c54709f13ad2475d8b3a44ebcb1b93b38e7257f98505323504090606090a36101f5565b015190508f8061050f565b90600286015f52875f20915f5b89601f19861682106107995750509360018460a09461064998946e105b9bdb9e5b5bdd5cc81059d95b9d608a1b9b9a98600598601f19811610610781575b505050811b0160028601556105fe565b01515f1960f88460031b161c191690558e8080610771565b6001849582939585015181550194019201610733565b634e487b7160e01b5f52604160045260245ffd5b015190508d8061050f565b90601f19831691845f528a5f20925f5b8c82821061081b575050908460019594939210610803575b505050811b019055610580565b01515f1960f88460031b161c191690558c80806107f6565b60018596829396860151815501950193016107de565b90601f19831691885f528a5f20925f5b8c82821061087e575050908460019594939210610866575b505050811b018555610526565b01515f1960f88460031b161c191690558c8080610859565b6001859682939686015181550195019301610841565b505f546001600160a01b031633146101cb565b34610177575f366003190112610177576020600a54604051908152f35b34610177576020366003190112610177576108dd611efd565b6108f160018060a01b035f541633146121bb565b6001600160a01b03165f8181526007602052604090205460ff1661098957805f52600760205260405f20600160ff19825416179055600854600160401b8110156107af5780600161094792016008556008612033565b81546001600160a01b0360039290921b91821b19169083901b1790557f52824c4a4d431c73d6d24a91f775d722860111c6d30da30b0b21e062fb4c73655f80a2005b60405162461bcd60e51b815260206004820152601f60248201527f4167656e7452656769737472793a20616c7265616479207265706f72746572006044820152606490fd5b34610177575f366003190112610177576020600954604051908152f35b34610177576020366003190112610177576001600160a01b03610a0c611efd565b165f526003602052602060ff60405f2054166040519015158152f35b34610177576020366003190112610177576001600160a01b03610a49611efd565b165f526004602052610ade60405f2060405190610a7182610a6a818461213a565b0383611f88565b604051610a8c81610a85816001860161213a565b0382611f88565b60405191610aa883610aa1816002850161213a565b0384611f88565b610afa60018060a01b0360038301541693610aec60ff60056004860154950154169460405198899860c08a5260c08a0190611f13565b9088820360208a0152611f13565b908682036040880152611f13565b9260608501526080840152151560a08301520390f35b3461017757606036600319011261017757610b29611efd565b604435801515810361017757610bae91335f52600760205260ff60405f2054168015610bb0575b610b59906123cd565b6001600160a01b03165f81815260036020526040902054610b7c9060ff166122d8565b805f526005602052602435600460405f2001555f526005602052600560405f20019060ff801983541691151516179055565b005b505f546001600160a01b03163314610b50565b3461017757602036600319011261017757600435600254808211610f0b575b610beb82612370565b90610bf96040519283611f88565b828252610c0583612370565b602083019390601f1901368537610c1b81612370565b610c286040519182611f88565b818152601f19610c3783612370565b015f5b818110610efa575050610c4c82612387565b610c5583612387565b92610c5f81612387565b94610c6981612370565b610c766040519182611f88565b818152601f19610c8583612370565b013660208301375f5b838110610d6d575b505050506040519460a086019060a087525180915260c0860196905f5b818110610d4e575050508486036020860152815180875260208701906020808260051b8a01019401915f905b828210610d22578880610d1e8a610d108b610d028c8c87820360408901526120cf565b9085820360608701526120cf565b9083820360808501526120cf565b0390f35b90919294602080610d406001938d601f199082030186528951611f13565b970192019201909291610cdf565b82516001600160a01b0316895260209889019890920191600101610cb3565b5f908180805b868110610e3e57505015610e3857610d98826001610d928195876123b9565b5261201b565b838060a01b0391549060031b1c1680610db1838d6123b9565b52805f526004602052610a85610dd060405f206040519283809261213a565b610dda838a6123b9565b52610de582896123b9565b50805f526005602052600360405f200154610e0083896123b9565b52805f5260056020528260405f200154610e1a838b6123b9565b525f52600560205260405f2054610e31828b6123b9565b5201610c8e565b50610c96565b610e4881876123b9565b511580610eca575b80610e99575b610e63575b600101610d73565b9350505081610e718161201b565b9054600391821b1c6001600160a01b03165f9081526005602052604090200154600191610e5b565b50610ea38161201b565b9054600391821b1c6001600160a01b03165f90815260056020526040902001548210610e56565b50610ed48161201b565b60018060a01b0391549060031b1c165f52600460205260ff600560405f20015416610e50565b806060602080938601015201610c3a565b905080610be2565b34610177576020366003190112610177576001600160a01b03610f34611efd565b16805f526003602052610f4d60ff60405f2054166122d8565b805f52600460205260018060a01b03600360405f2001541633148015610fb4575b610f7790612324565b805f526004602052600560405f200160ff1981541690557fa58c733780f5c1527d6106ff1e731cbf2e9ffc0eb11ad399ca33ea55f057ddf45f80a2005b505f546001600160a01b03163314610f6e565b34610177575f366003190112610177576020600c54604051908152f35b346101775760203660031901126101775760043561100c60018060a01b035f541633146121bb565b612710811161101a57600155005b60405162461bcd60e51b815260206004820152601b60248201527f4167656e7452656769737472793a2062707320746f6f206869676800000000006044820152606490fd5b34610177575f366003190112610177576080600954600a54600b54600c5491604051938452602084015260408301526060820152f35b34610177576110a336612048565b9394909560018060a01b031694855f5260036020526110c860ff60405f2054166122d8565b855f52600460205260018060a01b03600360405f20015416331480156113ca575b6110f290612324565b806112fb575b505080611229575b505080611152575b50805f5260046020527fb915c10d80f3a5a64f9cf6b674511d7c794c3419680d92ddf18339ae793ffb5761114d60405f2060405191829160208352602083019061213a565b0390a2005b815f526004602052600260405f2001906001600160401b0381116107af576111848161117e8454612102565b8461225a565b5f601f82116001146111c75781906111b29394955f926111bc5750508160011b915f199060031b1c19161790565b90555b8082611108565b01359050858061050f565b601f19821694835f5260205f20915f5b8781106112115750836001959697106111f8575b505050811b0190556111b5565b01355f19600384901b60f8161c191690558480806111eb565b909260206001819286860135815501940191016111d7565b835f526004602052600160405f2001916001600160401b0382116107af576112558261054a8554612102565b5f90601f83116001146112975761128292915f918361128c5750508160011b915f199060031b1c19161790565b90555b8380611100565b01359050878061050f565b601f19831691845f5260205f20925f5b8181106112e357509084600195949392106112ca575b505050811b019055611285565b01355f19600384901b60f8161c191690558680806112bd565b919360206001819287870135815501950192016112a7565b855f52600460205260405f20916001600160401b0382116107af576113248261054a8554612102565b5f90601f83116001146113665761135192915f918361135b5750508160011b915f199060031b1c19161790565b90555b85806110f8565b01359050898061050f565b601f19831691845f5260205f20925f5b8181106113b25750908460019594939210611399575b505050811b019055611354565b01355f19600384901b60f8161c1916905588808061138c565b91936020600181928787013581550195019201611376565b505f546001600160a01b031633146110e9565b34610177575f366003190112610177576020600254604051908152f35b34610177576020366003190112610177576001600160a01b0361141b611efd565b165f52600560205260e060405f2080549060018101549060028101546003820154600483015491600660ff600586015416940154946040519687526020870152604086015260608501526080840152151560a083015260c0820152f35b3461017757602036600319011261017757611491611efd565b6114a560018060a01b035f541633146121bb565b5f80546001600160a01b0319166001600160a01b0392909216919091179055005b34610177576114d436612048565b91929060018060a0989796981b03861695865f52600360205260ff60405f20541661194b578715611906576115649261152661155592895f52600360205260405f20600160ff19825416179055612207565b61153160095461224c565b6009556040519561154187611f37565b61154c368b8a611fa9565b87523691611fa9565b92602085019384523691611fa9565b6040830190815260608301338152608084019142835260a085019360018552875f52600460205260405f2095518051906001600160401b0382116107af576115b6826115b08a54612102565b8a61225a565b602090601f83116001146118a3576115e492915f91836118355750508160011b915f199060031b1c19161790565b86555b51805160018701916001600160401b0382116107af5761160b8261054a8554612102565b602090601f83116001146118405761163992915f91836118355750508160011b915f199060031b1c19161790565b90555b51805160028601916001600160401b0382116107af576116608261054a8554612102565b602090601f83116001146117a357936005936116be847f6cf3badcf1a10c54709f13ad2475d8b3a44ebcb1b93b38e7257f9850532350409b9995611702999561179e9c995f9261071b5750508160011b915f199060031b1c19161790565b90555b516003850180546001600160a01b039092166001600160a01b0319909216919091179055516004840155519101805460ff191691151560ff16919091179055565b60405161170e81611f52565b5f81526006602082015f8152611784604084015f8152606085015f815260808601905f825260a08701926001845260c08801954287528c5f52600560205260405f2098518955516001890155516002880155516003870155516004860155511515600585019060ff801983541691151516179055565b5191015560405191829160208352339660208401916122b8565b0390a3005b90601f19831691845f52815f20925f5b81811061181d575084611702989461179e9b9894600598947f6cf3badcf1a10c54709f13ad2475d8b3a44ebcb1b93b38e7257f9850532350409e9c9860019510611805575b505050811b0190556116c1565b01515f1960f88460031b161c191690558e80806117f8565b929360206001819287860151815501950193016117b3565b015190508c8061050f565b90601f19831691845f52815f20925f5b81811061188b5750908460019594939210611873575b505050811b01905561163c565b01515f1960f88460031b161c191690558b8080611866565b92936020600181928786015181550195019301611850565b90601f19831691895f52815f20925f5b8181106118ee57509084600195949392106118d6575b505050811b0186556115e7565b01515f1960f88460031b161c191690558b80806118c9565b929360206001819287860151815501950193016118b3565b60405162461bcd60e51b815260206004820152601c60248201527f4167656e7452656769737472793a206e616d65207265717569726564000000006044820152606490fd5b60405162461bcd60e51b815260206004820152602160248201527f4167656e7452656769737472793a20616c7265616479207265676973746572656044820152601960fa1b6064820152608490fd5b34610177575f366003190112610177576020600154604051908152f35b34610177575f366003190112610177576020600b54604051908152f35b346101775760203660031901126101775760043560085481101561017757600854811015611a385760085f527ff3f7a9fe364faab93b216da50a3214154f22a0a2b415b23a84c8169e8b636ee301546040516001600160a01b039091168152602090f35b634e487b7160e01b5f52603260045260245ffd5b3461017757602036600319011261017757611a65611efd565b611a7960018060a01b035f541633146121bb565b6001600160a01b03165f818152600760205260408120805460ff191690557ff125aa5e6cb22c17ea0de4e1f86d2ff289ddd6a37e791b9ad29d0091cba06ac89080a2005b346101775760203660031901126101775760043560025481101561017757611ae660209161201b565b905460405160039290921b1c6001600160a01b03168152f35b34610177576020366003190112610177576001600160a01b03611b20611efd565b165f526007602052602060ff60405f2054166040519015158152f35b3461017757604036600319011261017757611b55611efd565b602435906001600160401b038211610177576020611b796060933690600401611fee565b925f60408051611b8881611f6d565b8281528286820152015260018060a01b03165f526006825260405f20836040519485938437820190815203019020604051611bc281611f6d565b815491828252604060026001830154926020850193845201549201918252604051928352516020830152516040820152f35b34610177576020366003190112610177576020611ae660043561201b565b3461017757604036600319011261017757611c2b611efd565b602435906001600160401b03821161017757366023830112156101775760208091611c626060943690602481600401359101611fa9565b9060018060a01b03165f526006825260405f20604051938285935191829101845e820190815203019020805490600260018201549101549060405192835260208301526040820152f35b3461017757602036600319011261017757611cc5611efd565b90611ccf81611f37565b6060815260208101606090526040810160609052606081015f9052608081015f905260a0015f9052604051611d0381611f52565b5f8152602081015f9052604081015f9052606081015f9052608081015f905260a081015f905260c0015f9052600160a01b6001900316805f52600460205260405f20905f52600560205260405f209060405190611d5f82611f37565b60405180611d6d818461213a565b03611d789082611f88565b82526040519283611d8c816001850161213a565b03611d979085611f88565b602083019384526040519081611db0816002860161213a565b03611dbb9083611f88565b60408401918252600160a01b600190036003840154169260608501938452600481015490608086019182526005015460ff1660a086019015158152604051611e0281611f52565b83548152600184015460208201908152600285015491604081019283526003860154936060820194855260048701549560808301968752600588015460ff169760a084019815158952600601549860c08401998a526040519c8d9c6101008e52518d610100810160c090526101c001611e7a91611f13565b90518d820360ff19016101208f0152611e939190611f13565b90518c820360ff19016101408e0152611eac9190611f13565b99516001600160a01b03166101608c0152516101808b01525115156101a08a01525160208901525160408801525160608701525160808601525160a085015251151560c08401525160e08301520390f35b600435906001600160a01b038216820361017757565b805180835260209291819084018484015e5f828201840152601f01601f1916010190565b60c081019081106001600160401b038211176107af57604052565b60e081019081106001600160401b038211176107af57604052565b606081019081106001600160401b038211176107af57604052565b90601f801991011681019081106001600160401b038211176107af57604052565b9291926001600160401b0382116107af5760405191611fd2601f8201601f191660200184611f88565b829481845281830111610177578281602093845f960137010152565b9181601f84011215610177578235916001600160401b038311610177576020838186019501011161017757565b600254811015611a385760025f5260205f2001905f90565b8054821015611a38575f5260205f2001905f90565b906080600319830112610177576004356001600160a01b038116810361017757916024356001600160401b038111610177578161208791600401611fee565b929092916044356001600160401b03811161017757816120a991600401611fee565b92909291606435906001600160401b038211610177576120cb91600401611fee565b9091565b90602080835192838152019201905f5b8181106120ec5750505090565b82518452602093840193909201916001016120df565b90600182811c92168015612130575b602083101461211c57565b634e487b7160e01b5f52602260045260245ffd5b91607f1691612111565b5f929181549161214983612102565b808352926001811690811561219e575060011461216557505050565b5f9081526020812093945091925b838310612184575060209250010190565b600181602092949394548385870101520191019190612173565b915050602093945060ff929192191683830152151560051b010190565b156121c257565b60405162461bcd60e51b815260206004820152601860248201527f4167656e7452656769737472793a206e6f742061646d696e00000000000000006044820152606490fd5b600254600160401b8110156107af5780600161222892016002556002612033565b81546001600160a01b0393841660039290921b91821b9390911b1916919091179055565b5f1981146103eb5760010190565b919091601f831161226b575b505050565b81831161227757505050565b5f5260205f206020601f830160051c92106122b0575b81601f9101920160051c03905f5b82811015612266575f8282015560010161229b565b5f915061228d565b908060209392818452848401375f828201840152601f01601f1916010190565b156122df57565b60405162461bcd60e51b815260206004820152601d60248201527f4167656e7452656769737472793a206e6f7420726567697374657265640000006044820152606490fd5b1561232b57565b60405162461bcd60e51b815260206004820152601860248201527f4167656e7452656769737472793a206e6f74206f776e657200000000000000006044820152606490fd5b6001600160401b0381116107af5760051b60200190565b9061239182612370565b61239e6040519182611f88565b82815280926123af601f1991612370565b0190602036910137565b8051821015611a385760209160051b010190565b156123d457565b60405162461bcd60e51b815260206004820152601b60248201527f4167656e7452656769737472793a206e6f74207265706f7274657200000000006044820152606490fd5b919082018092116103eb5756fea26469706673582212201233aa8a7e7ba65ffad8ba3c0995ea949417a244b512c5d016d6a28d64c29a6d64736f6c63430008210033",
        "nonce": "0x1aa",
        "chainId": "0xa455"
      },
      "additionalContracts": [],
      "isFixedGasLimit": false
    },
    {
      "hash": "0x634741d6ec9dd3e34c48d13470f40552bef7cc346b0ce36bb45ad83f4dfb475a",
      "transactionType": "CALL",
      "contractName": "AgentRegistry",
      "contractAddress": "0xa9d0fb5837f9c42c874e16da96094b14af0e2784",
      "function": "registerAgent(address,string,string,string)",
      "arguments": [
        "0x0000000000000000000000000000000000001001",
        "AlphaTrader",
        "https://api.dicebear.com/7.x/bottts/svg?seed=alpha",
        "Momentum trading on perps with trend-following signals"
      ],
      "transaction": {
        "from": "0xf39fd6e51aad88f6f4ce6ab8827279cfffb92266",
        "to": "0xa9d0fb5837f9c42c874e16da96094b14af0e2784",
        "gas": "0x85a1d",
        "value": "0x0",
        "input": "0x69f1324d0000000000000000000000000000000000000000000000000000000000001001000000000000000000000000000000000000000000000000000000000000008000000000000000000000000000000000000000000000000000000000000000c00000000000000000000000000000000000000000000000000000000000000120000000000000000000000000000000000000000000000000000000000000000b416c706861547261646572000000000000000000000000000000000000000000000000000000000000000000000000000000000000000000000000000000003268747470733a2f2f6170692e64696365626561722e636f6d2f372e782f626f747474732f7376673f736565643d616c706861000000000000000000000000000000000000000000000000000000000000000000000000000000000000000000364d6f6d656e74756d2074726164696e67206f6e2070657270732077697468207472656e642d666f6c6c6f77696e67207369676e616c7300000000000000000000",
        "nonce": "0x1ab",
        "chainId": "0xa455"
      },
      "additionalContracts": [],
      "isFixedGasLimit": false
    },
    {
      "hash": "0x680b6a07f057f2ec85f80a8e887580b25f8b8ec22ea8b21f9d6b7344ab4ad9b1",
      "transactionType": "CALL",
      "contractName": "AgentRegistry",
      "contractAddress": "0xa9d0fb5837f9c42c874e16da96094b14af0e2784",
      "function": "registerAgent(address,string,string,string)",
      "arguments": [
        "0x0000000000000000000000000000000000001002",
        "YieldMaxi",
        "https://api.dicebear.com/7.x/bottts/svg?seed=yield",
        "Auto-compounding yield optimizer across lending and vaults"
      ],
      "transaction": {
        "from": "0xf39fd6e51aad88f6f4ce6ab8827279cfffb92266",
        "to": "0xa9d0fb5837f9c42c874e16da96094b14af0e2784",
        "gas": "0x7a1b7",
        "value": "0x0",
        "input": "0x69f1324d0000000000000000000000000000000000000000000000000000000000001002000000000000000000000000000000000000000000000000000000000000008000000000000000000000000000000000000000000000000000000000000000c0000000000000000000000000000000000000000000000000000000000000012000000000000000000000000000000000000000000000000000000000000000095969656c644d6178690000000000000000000000000000000000000000000000000000000000000000000000000000000000000000000000000000000000003268747470733a2f2f6170692e64696365626561722e636f6d2f372e782f626f747474732f7376673f736565643d7969656c640000000000000000000000000000000000000000000000000000000000000000000000000000000000000000003a4175746f2d636f6d706f756e64696e67207969656c64206f7074696d697a6572206163726f7373206c656e64696e6720616e64207661756c7473000000000000",
        "nonce": "0x1ac",
        "chainId": "0xa455"
      },
      "additionalContracts": [],
      "isFixedGasLimit": false
    },
    {
      "hash": "0x6159776a845cc0b69eb110ec70bad86e7c5cfd0cd399b58807e00522f56eb0cb",
      "transactionType": "CALL",
      "contractName": "AgentRegistry",
      "contractAddress": "0xa9d0fb5837f9c42c874e16da96094b14af0e2784",
      "function": "registerAgent(address,string,string,string)",
      "arguments": [
        "0x0000000000000000000000000000000000001003",
        "PredictOracleBot",
        "https://api.dicebear.com/7.x/bottts/svg?seed=predict",
        "Prediction market arbitrage using sentiment analysis"
      ],
      "transaction": {
        "from": "0xf39fd6e51aad88f6f4ce6ab8827279cfffb92266",
        "to": "0xa9d0fb5837f9c42c874e16da96094b14af0e2784",
        "gas": "0x814d9",
        "value": "0x0",
        "input": "0x69f1324d0000000000000000000000000000000000000000000000000000000000001003000000000000000000000000000000000000000000000000000000000000008000000000000000000000000000000000000000000000000000000000000000c000000000000000000000000000000000000000000000000000000000000001200000000000000000000000000000000000000000000000000000000000000010507265646963744f7261636c65426f7400000000000000000000000000000000000000000000000000000000000000000000000000000000000000000000003468747470733a2f2f6170692e64696365626561722e636f6d2f372e782f626f747474732f7376673f736565643d70726564696374000000000000000000000000000000000000000000000000000000000000000000000000000000000000003450726564696374696f6e206d61726b657420617262697472616765207573696e672073656e74696d656e7420616e616c79736973000000000000000000000000",
        "nonce": "0x1ad",
        "chainId": "0xa455"
      },
      "additionalContracts": [],
      "isFixedGasLimit": false
    },
    {
      "hash": "0x4ed2126619f92e68d51209baa2fef7935cf5ba59692a1a3eda5f3ad8e6848452",
      "transactionType": "CALL",
      "contractName": "AgentRegistry",
      "contractAddress": "0xa9d0fb5837f9c42c874e16da96094b14af0e2784",
      "function": "registerAgent(address,string,string,string)",
      "arguments": [
        "0x0000000000000000000000000000000000001004",
        "DeltaNeutral",
        "https://api.dicebear.com/7.x/bottts/svg?seed=delta",
        "Delta-neutral strategies: long spot + short perps"
      ],
      "transaction": {
        "from": "0xf39fd6e51aad88f6f4ce6ab8827279cfffb92266",
        "to": "0xa9d0fb5837f9c42c874e16da96094b14af0e2784",
        "gas": "0x7a153",
        "value": "0x0",
        "input": "0x69f1324d0000000000000000000000000000000000000000000000000000000000001004000000000000000000000000000000000000000000000000000000000000008000000000000000000000000000000000000000000000000000000000000000c00000000000000000000000000000000000000000000000000000000000000120000000000000000000000000000000000000000000000000000000000000000c44656c74614e65757472616c0000000000000000000000000000000000000000000000000000000000000000000000000000000000000000000000000000003268747470733a2f2f6170692e64696365626561722e636f6d2f372e782f626f747474732f7376673f736565643d64656c74610000000000000000000000000000000000000000000000000000000000000000000000000000000000000000003144656c74612d6e65757472616c20737472617465676965733a206c6f6e672073706f74202b2073686f7274207065727073000000000000000000000000000000",
        "nonce": "0x1ae",
        "chainId": "0xa455"
      },
      "additionalContracts": [],
      "isFixedGasLimit": false
    },
    {
      "hash": "0xe791a0c1cb48e2bcb33de62dceba4fefebe8e1692becbe09159323440d8b1a8f",
      "transactionType": "CALL",
      "contractName": "AgentRegistry",
      "contractAddress": "0xa9d0fb5837f9c42c874e16da96094b14af0e2784",
      "function": "registerAgent(address,string,string,string)",
      "arguments": [
        "0x0000000000000000000000000000000000001005",
        "UBIMaximizer",
        "https://api.dicebear.com/7.x/bottts/svg?seed=ubi",
        "High-frequency swaps to maximize UBI fee generation"
      ],
      "transaction": {
        "from": "0xf39fd6e51aad88f6f4ce6ab8827279cfffb92266",
        "to": "0xa9d0fb5837f9c42c874e16da96094b14af0e2784",
        "gas": "0x7a153",
        "value": "0x0",
        "input": "0x69f1324d0000000000000000000000000000000000000000000000000000000000001005000000000000000000000000000000000000000000000000000000000000008000000000000000000000000000000000000000000000000000000000000000c00000000000000000000000000000000000000000000000000000000000000120000000000000000000000000000000000000000000000000000000000000000c5542494d6178696d697a65720000000000000000000000000000000000000000000000000000000000000000000000000000000000000000000000000000003068747470733a2f2f6170692e64696365626561722e636f6d2f372e782f626f747474732f7376673f736565643d756269000000000000000000000000000000000000000000000000000000000000000000000000000000000000000000000033486967682d6672657175656e637920737761707320746f206d6178696d697a6520554249206665652067656e65726174696f6e00000000000000000000000000",
        "nonce": "0x1af",
        "chainId": "0xa455"
      },
      "additionalContracts": [],
      "isFixedGasLimit": false
    },
    {
      "hash": "0x2f2207b25c06c5f1a596b1ba88476b55bf6fa58bf2419b50fd7b4e2d9898957b",
      "transactionType": "CALL",
      "contractName": "AgentRegistry",
      "contractAddress": "0xa9d0fb5837f9c42c874e16da96094b14af0e2784",
      "function": "recordActivity(address,string,uint256,uint256)",
      "arguments": [
        "0x0000000000000000000000000000000000001001",
        "perps",
        "500000000000000000000",
        "1500000000000000000"
      ],
      "transaction": {
        "from": "0xf39fd6e51aad88f6f4ce6ab8827279cfffb92266",
        "to": "0xa9d0fb5837f9c42c874e16da96094b14af0e2784",
        "gas": "0x578b5",
        "value": "0x0",
        "input": "0xe2f11e610000000000000000000000000000000000000000000000000000000000001001000000000000000000000000000000000000000000000000000000000000008000000000000000000000000000000000000000000000001b1ae4d6e2ef50000000000000000000000000000000000000000000000000000014d1120d7b16000000000000000000000000000000000000000000000000000000000000000000057065727073000000000000000000000000000000000000000000000000000000",
        "nonce": "0x1b0",
        "chainId": "0xa455"
      },
      "additionalContracts": [],
      "isFixedGasLimit": false
    },
    {
      "hash": "0x194d36d8492dc0c03f365ad3d7466175103f005924ae67460df74e020ee2d18b",
      "transactionType": "CALL",
      "contractName": "AgentRegistry",
      "contractAddress": "0xa9d0fb5837f9c42c874e16da96094b14af0e2784",
      "function": "recordActivity(address,string,uint256,uint256)",
      "arguments": [
        "0x0000000000000000000000000000000000001001",
        "perps",
        "300000000000000000000",
        "900000000000000000"
      ],
      "transaction": {
        "from": "0xf39fd6e51aad88f6f4ce6ab8827279cfffb92266",
        "to": "0xa9d0fb5837f9c42c874e16da96094b14af0e2784",
        "gas": "0x1de13",
        "value": "0x0",
        "input": "0xe2f11e610000000000000000000000000000000000000000000000000000000000001001000000000000000000000000000000000000000000000000000000000000008000000000000000000000000000000000000000000000001043561a88293000000000000000000000000000000000000000000000000000000c7d713b49da000000000000000000000000000000000000000000000000000000000000000000057065727073000000000000000000000000000000000000000000000000000000",
        "nonce": "0x1b1",
        "chainId": "0xa455"
      },
      "additionalContracts": [],
      "isFixedGasLimit": false
    },
    {
      "hash": "0xafd6ddce86620717ef90edeca1693c3a4b4a3121d8552cd68328716e8719978a",
      "transactionType": "CALL",
      "contractName": "AgentRegistry",
      "contractAddress": "0xa9d0fb5837f9c42c874e16da96094b14af0e2784",
      "function": "recordActivity(address,string,uint256,uint256)",
      "arguments": [
        "0x0000000000000000000000000000000000001001",
        "swap",
        "50000000000000000000",
        "150000000000000000"
      ],
      "transaction": {
        "from": "0xf39fd6e51aad88f6f4ce6ab8827279cfffb92266",
        "to": "0xa9d0fb5837f9c42c874e16da96094b14af0e2784",
        "gas": "0x2f2cd",
        "value": "0x0",
        "input": "0xe2f11e6100000000000000000000000000000000000000000000000000000000000010010000000000000000000000000000000000000000000000000000000000000080000000000000000000000000000000000000000000000002b5e3af16b18800000000000000000000000000000000000000000000000000000214e8348c4f000000000000000000000000000000000000000000000000000000000000000000047377617000000000000000000000000000000000000000000000000000000000",
        "nonce": "0x1b2",
        "chainId": "0xa455"
      },
      "additionalContracts": [],
      "isFixedGasLimit": false
    },
    {
      "hash": "0xba4b6d861a6a35bc043a76d8b3fc7de98a08bbda0f3bd8433d9a4417d0c39e4c",
      "transactionType": "CALL",
      "contractName": "AgentRegistry",
      "contractAddress": "0xa9d0fb5837f9c42c874e16da96094b14af0e2784",
      "function": "recordPnL(address,uint256,bool)",
      "arguments": [
        "0x0000000000000000000000000000000000001001",
        "12000000000000000000",
        "true"
      ],
      "transaction": {
        "from": "0xf39fd6e51aad88f6f4ce6ab8827279cfffb92266",
        "to": "0xa9d0fb5837f9c42c874e16da96094b14af0e2784",
        "gas": "0x11fc1",
        "value": "0x0",
        "input": "0xb896f2220000000000000000000000000000000000000000000000000000000000001001000000000000000000000000000000000000000000000000a688906bd8b000000000000000000000000000000000000000000000000000000000000000000001",
        "nonce": "0x1b3",
        "chainId": "0xa455"
      },
      "additionalContracts": [],
      "isFixedGasLimit": false
    },
    {
      "hash": "0x764d06e1f484d6e4e0316be00650c9c16396c0d25507b62f3cf10fcaa4c307ed",
      "transactionType": "CALL",
      "contractName": "AgentRegistry",
      "contractAddress": "0xa9d0fb5837f9c42c874e16da96094b14af0e2784",
      "function": "recordActivity(address,string,uint256,uint256)",
      "arguments": [
        "0x0000000000000000000000000000000000001002",
        "lend",
        "200000000000000000000",
        "600000000000000000"
      ],
      "transaction": {
        "from": "0xf39fd6e51aad88f6f4ce6ab8827279cfffb92266",
        "to": "0xa9d0fb5837f9c42c874e16da96094b14af0e2784",
        "gas": "0x463da",
        "value": "0x0",
        "input": "0xe2f11e610000000000000000000000000000000000000000000000000000000000001002000000000000000000000000000000000000000000000000000000000000008000000000000000000000000000000000000000000000000ad78ebc5ac62000000000000000000000000000000000000000000000000000000853a0d2313c000000000000000000000000000000000000000000000000000000000000000000046c656e6400000000000000000000000000000000000000000000000000000000",
        "nonce": "0x1b4",
        "chainId": "0xa455"
      },
      "additionalContracts": [],
      "isFixedGasLimit": false
    },
    {
      "hash": "0x48dfd5d3d9ef0b4f0b215ea3b214c8291bb901d28e89ef2193101f7af2b31cbf",
      "transactionType": "CALL",
      "contractName": "AgentRegistry",
      "contractAddress": "0xa9d0fb5837f9c42c874e16da96094b14af0e2784",
      "function": "recordActivity(address,string,uint256,uint256)",
      "arguments": [
        "0x0000000000000000000000000000000000001002",
        "yield",
        "150000000000000000000",
        "450000000000000000"
      ],
      "transaction": {
        "from": "0xf39fd6e51aad88f6f4ce6ab8827279cfffb92266",
        "to": "0xa9d0fb5837f9c42c874e16da96094b14af0e2784",
        "gas": "0x31f45",
        "value": "0x0",
        "input": "0xe2f11e610000000000000000000000000000000000000000000000000000000000001002000000000000000000000000000000000000000000000000000000000000008000000000000000000000000000000000000000000000000821ab0d4414980000000000000000000000000000000000000000000000000000063eb89da4ed000000000000000000000000000000000000000000000000000000000000000000057969656c64000000000000000000000000000000000000000000000000000000",
        "nonce": "0x1b5",
        "chainId": "0xa455"
      },
      "additionalContracts": [],
      "isFixedGasLimit": false
    },
    {
      "hash": "0x677ce624c52efcf6173e30bde5242d422c214a47d83c4c2be3866beb0ad44237",
      "transactionType": "CALL",
      "contractName": "AgentRegistry",
      "contractAddress": "0xa9d0fb5837f9c42c874e16da96094b14af0e2784",
      "function": "recordActivity(address,string,uint256,uint256)",
      "arguments": [
        "0x0000000000000000000000000000000000001002",
        "swap",
        "80000000000000000000",
        "240000000000000000"
      ],
      "transaction": {
        "from": "0xf39fd6e51aad88f6f4ce6ab8827279cfffb92266",
        "to": "0xa9d0fb5837f9c42c874e16da96094b14af0e2784",
        "gas": "0x2f2cd",
        "value": "0x0",
        "input": "0xe2f11e6100000000000000000000000000000000000000000000000000000000000010020000000000000000000000000000000000000000000000000000000000000080000000000000000000000000000000000000000000000004563918244f4000000000000000000000000000000000000000000000000000000354a6ba7a18000000000000000000000000000000000000000000000000000000000000000000047377617000000000000000000000000000000000000000000000000000000000",
        "nonce": "0x1b6",
        "chainId": "0xa455"
      },
      "additionalContracts": [],
      "isFixedGasLimit": false
    },
    {
      "hash": "0x83ca687a23635bd65c0c4fa4c0873e3a5e19d3c447887289961e74c34b7eddee",
      "transactionType": "CALL",
      "contractName": "AgentRegistry",
      "contractAddress": "0xa9d0fb5837f9c42c874e16da96094b14af0e2784",
      "function": "recordPnL(address,uint256,bool)",
      "arguments": [
        "0x0000000000000000000000000000000000001002",
        "8500000000000000000",
        "true"
      ],
      "transaction": {
        "from": "0xf39fd6e51aad88f6f4ce6ab8827279cfffb92266",
        "to": "0xa9d0fb5837f9c42c874e16da96094b14af0e2784",
        "gas": "0x11fc1",
        "value": "0x0",
        "input": "0xb896f222000000000000000000000000000000000000000000000000000000000000100200000000000000000000000000000000000000000000000075f610f70ed200000000000000000000000000000000000000000000000000000000000000000001",
        "nonce": "0x1b7",
        "chainId": "0xa455"
      },
      "additionalContracts": [],
      "isFixedGasLimit": false
    },
    {
      "hash": "0xa86bbcbb308755f4a27c125ce0850fcc5eeaf4793d63da9d4aa40c02db18a676",
      "transactionType": "CALL",
      "contractName": "AgentRegistry",
      "contractAddress": "0xa9d0fb5837f9c42c874e16da96094b14af0e2784",
      "function": "recordActivity(address,string,uint256,uint256)",
      "arguments": [
        "0x0000000000000000000000000000000000001003",
        "predict",
        "100000000000000000000",
        "300000000000000000"
      ],
      "transaction": {
        "from": "0xf39fd6e51aad88f6f4ce6ab8827279cfffb92266",
        "to": "0xa9d0fb5837f9c42c874e16da96094b14af0e2784",
        "gas": "0x4a62b",
        "value": "0x0",
        "input": "0xe2f11e61000000000000000000000000000000000000000000000000000000000000100300000000000000000000000000000000000000000000000000000000000000800000000000000000000000000000000000000000000000056bc75e2d631000000000000000000000000000000000000000000000000000000429d069189e000000000000000000000000000000000000000000000000000000000000000000077072656469637400000000000000000000000000000000000000000000000000",
        "nonce": "0x1b8",
        "chainId": "0xa455"
      },
      "additionalContracts": [],
      "isFixedGasLimit": false
    },
    {
      "hash": "0xe096a2a5f47879e2b890248f127d962bf7211e2768c9ddaa014500f66b991581",
      "transactionType": "CALL",
      "contractName": "AgentRegistry",
      "contractAddress": "0xa9d0fb5837f9c42c874e16da96094b14af0e2784",
      "function": "recordActivity(address,string,uint256,uint256)",
      "arguments": [
        "0x0000000000000000000000000000000000001003",
        "predict",
        "75000000000000000000",
        "225000000000000000"
      ],
      "transaction": {
        "from": "0xf39fd6e51aad88f6f4ce6ab8827279cfffb92266",
        "to": "0xa9d0fb5837f9c42c874e16da96094b14af0e2784",
        "gas": "0x1fa67",
        "value": "0x0",
        "input": "0xe2f11e610000000000000000000000000000000000000000000000000000000000001003000000000000000000000000000000000000000000000000000000000000008000000000000000000000000000000000000000000000000410d586a20a4c0000000000000000000000000000000000000000000000000000031f5c4ed276800000000000000000000000000000000000000000000000000000000000000000077072656469637400000000000000000000000000000000000000000000000000",
        "nonce": "0x1b9",
        "chainId": "0xa455"
      },
      "additionalContracts": [],
      "isFixedGasLimit": false
    },
    {
      "hash": "0x94d0432afeee170b2e0d3ae0101f9d338419d6e73cae1f2f0e0cfbe92e33e8cc",
      "transactionType": "CALL",
      "contractName": "AgentRegistry",
      "contractAddress": "0xa9d0fb5837f9c42c874e16da96094b14af0e2784",
      "function": "recordActivity(address,string,uint256,uint256)",
      "arguments": [
        "0x0000000000000000000000000000000000001003",
        "swap",
        "30000000000000000000",
        "90000000000000000"
      ],
      "transaction": {
        "from": "0xf39fd6e51aad88f6f4ce6ab8827279cfffb92266",
        "to": "0xa9d0fb5837f9c42c874e16da96094b14af0e2784",
        "gas": "0x2f2cd",
        "value": "0x0",
        "input": "0xe2f11e6100000000000000000000000000000000000000000000000000000000000010030000000000000000000000000000000000000000000000000000000000000080000000000000000000000000000000000000000000000001a055690d9db80000000000000000000000000000000000000000000000000000013fbe85edc9000000000000000000000000000000000000000000000000000000000000000000047377617000000000000000000000000000000000000000000000000000000000",
        "nonce": "0x1ba",
        "chainId": "0xa455"
      },
      "additionalContracts": [],
      "isFixedGasLimit": false
    },
    {
      "hash": "0x149b9890b1ec47673245b8997ec04608c9039787bab4157896ba68af5dc74974",
      "transactionType": "CALL",
      "contractName": "AgentRegistry",
      "contractAddress": "0xa9d0fb5837f9c42c874e16da96094b14af0e2784",
      "function": "recordPnL(address,uint256,bool)",
      "arguments": [
        "0x0000000000000000000000000000000000001003",
        "5200000000000000000",
        "true"
      ],
      "transaction": {
        "from": "0xf39fd6e51aad88f6f4ce6ab8827279cfffb92266",
        "to": "0xa9d0fb5837f9c42c874e16da96094b14af0e2784",
        "gas": "0x1309d",
        "value": "0x0",
        "input": "0xb896f2220000000000000000000000000000000000000000000000000000000000001003000000000000000000000000000000000000000000000000482a1c73000800000000000000000000000000000000000000000000000000000000000000000001",
        "nonce": "0x1bb",
        "chainId": "0xa455"
      },
      "additionalContracts": [],
      "isFixedGasLimit": false
    },
    {
      "hash": "0xc3fae63c5fda5a75a9b340651cbce93d8069a81042ad9198bbd17e16dfaf4848",
      "transactionType": "CALL",
      "contractName": "AgentRegistry",
      "contractAddress": "0xa9d0fb5837f9c42c874e16da96094b14af0e2784",
      "function": "recordActivity(address,string,uint256,uint256)",
      "arguments": [
        "0x0000000000000000000000000000000000001004",
        "perps",
        "400000000000000000000",
        "1200000000000000000"
      ],
      "transaction": {
        "from": "0xf39fd6e51aad88f6f4ce6ab8827279cfffb92266",
        "to": "0xa9d0fb5837f9c42c874e16da96094b14af0e2784",
        "gas": "0x4a608",
        "value": "0x0",
        "input": "0xe2f11e6100000000000000000000000000000000000000000000000000000000000010040000000000000000000000000000000000000000000000000000000000000080000000000000000000000000000000000000000000000015af1d78b58c40000000000000000000000000000000000000000000000000000010a741a46278000000000000000000000000000000000000000000000000000000000000000000057065727073000000000000000000000000000000000000000000000000000000",
        "nonce": "0x1bc",
        "chainId": "0xa455"
      },
      "additionalContracts": [],
      "isFixedGasLimit": false
    },
    {
      "hash": "0x86660f8aa293a8695f04345a64e138d26f4f177e3d2b1e88b18cfdf48483c8a7",
      "transactionType": "CALL",
      "contractName": "AgentRegistry",
      "contractAddress": "0xa9d0fb5837f9c42c874e16da96094b14af0e2784",
      "function": "recordActivity(address,string,uint256,uint256)",
      "arguments": [
        "0x0000000000000000000000000000000000001004",
        "swap",
        "400000000000000000000",
        "1200000000000000000"
      ],
      "transaction": {
        "from": "0xf39fd6e51aad88f6f4ce6ab8827279cfffb92266",
        "to": "0xa9d0fb5837f9c42c874e16da96094b14af0e2784",
        "gas": "0x2f2cd",
        "value": "0x0",
        "input": "0xe2f11e6100000000000000000000000000000000000000000000000000000000000010040000000000000000000000000000000000000000000000000000000000000080000000000000000000000000000000000000000000000015af1d78b58c40000000000000000000000000000000000000000000000000000010a741a46278000000000000000000000000000000000000000000000000000000000000000000047377617000000000000000000000000000000000000000000000000000000000",
        "nonce": "0x1bd",
        "chainId": "0xa455"
      },
      "additionalContracts": [],
      "isFixedGasLimit": false
    },
    {
      "hash": "0xb27998fc541e294f012109c3efb75b90650adba29b751be423be4151cdce2698",
      "transactionType": "CALL",
      "contractName": "AgentRegistry",
      "contractAddress": "0xa9d0fb5837f9c42c874e16da96094b14af0e2784",
      "function": "recordActivity(address,string,uint256,uint256)",
      "arguments": [
        "0x0000000000000000000000000000000000001004",
        "lend",
        "100000000000000000000",
        "300000000000000000"
      ],
      "transaction": {
        "from": "0xf39fd6e51aad88f6f4ce6ab8827279cfffb92266",
        "to": "0xa9d0fb5837f9c42c874e16da96094b14af0e2784",
        "gas": "0x2f2cd",
        "value": "0x0",
        "input": "0xe2f11e61000000000000000000000000000000000000000000000000000000000000100400000000000000000000000000000000000000000000000000000000000000800000000000000000000000000000000000000000000000056bc75e2d631000000000000000000000000000000000000000000000000000000429d069189e000000000000000000000000000000000000000000000000000000000000000000046c656e6400000000000000000000000000000000000000000000000000000000",
        "nonce": "0x1be",
        "chainId": "0xa455"
      },
      "additionalContracts": [],
      "isFixedGasLimit": false
    },
    {
      "hash": "0xa26e4c1dedfb016477536793b63d1ce75b89de0439bdf6fdce816e95e75b3ab2",
      "transactionType": "CALL",
      "contractName": "AgentRegistry",
      "contractAddress": "0xa9d0fb5837f9c42c874e16da96094b14af0e2784",
      "function": "recordPnL(address,uint256,bool)",
      "arguments": [
        "0x0000000000000000000000000000000000001004",
        "300000000000000000",
        "false"
      ],
      "transaction": {
        "from": "0xf39fd6e51aad88f6f4ce6ab8827279cfffb92266",
        "to": "0xa9d0fb5837f9c42c874e16da96094b14af0e2784",
        "gas": "0x12530",
        "value": "0x0",
        "input": "0xb896f22200000000000000000000000000000000000000000000000000000000000010040000000000000000000000000000000000000000000000000429d069189e00000000000000000000000000000000000000000000000000000000000000000000",
        "nonce": "0x1bf",
        "chainId": "0xa455"
      },
      "additionalContracts": [],
      "isFixedGasLimit": false
    },
    {
      "hash": "0xc41c3c233bbeb101334b4ea9c01fc4a77726832356ac2e4e08138159e92e6a1f",
      "transactionType": "CALL",
      "contractName": "AgentRegistry",
      "contractAddress": "0xa9d0fb5837f9c42c874e16da96094b14af0e2784",
      "function": "recordActivity(address,string,uint256,uint256)",
      "arguments": [
        "0x0000000000000000000000000000000000001005",
        "swap",
        "20000000000000000000",
        "60000000000000000"
      ],
      "transaction": {
        "from": "0xf39fd6e51aad88f6f4ce6ab8827279cfffb92266",
        "to": "0xa9d0fb5837f9c42c874e16da96094b14af0e2784",
        "gas": "0x4a5e5",
        "value": "0x0",
        "input": "0xe2f11e6100000000000000000000000000000000000000000000000000000000000010050000000000000000000000000000000000000000000000000000000000000080000000000000000000000000000000000000000000000001158e460913d0000000000000000000000000000000000000000000000000000000d529ae9e86000000000000000000000000000000000000000000000000000000000000000000047377617000000000000000000000000000000000000000000000000000000000",
        "nonce": "0x1c0",
        "chainId": "0xa455"
      },
      "additionalContracts": [],
      "isFixedGasLimit": false
    },
    {
      "hash": "0xbabeef73205906280fc85d470f826aa46eecb20fecd62284f06dc0b4247b0890",
      "transactionType": "CALL",
      "contractName": "AgentRegistry",
      "contractAddress": "0xa9d0fb5837f9c42c874e16da96094b14af0e2784",
      "function": "recordActivity(address,string,uint256,uint256)",
      "arguments": [
        "0x0000000000000000000000000000000000001005",
        "swap",
        "20000000000000000000",
        "60000000000000000"
      ],
      "transaction": {
        "from": "0xf39fd6e51aad88f6f4ce6ab8827279cfffb92266",
        "to": "0xa9d0fb5837f9c42c874e16da96094b14af0e2784",
        "gas": "0x1ddf2",
        "value": "0x0",
        "input": "0xe2f11e6100000000000000000000000000000000000000000000000000000000000010050000000000000000000000000000000000000000000000000000000000000080000000000000000000000000000000000000000000000001158e460913d0000000000000000000000000000000000000000000000000000000d529ae9e86000000000000000000000000000000000000000000000000000000000000000000047377617000000000000000000000000000000000000000000000000000000000",
        "nonce": "0x1c1",
        "chainId": "0xa455"
      },
      "additionalContracts": [],
      "isFixedGasLimit": false
    },
    {
      "hash": "0x6016da8b6c0fdefcfbbe297d405683decd2d3aa42ef23f8598dd49b03932cb8e",
      "transactionType": "CALL",
      "contractName": "AgentRegistry",
      "contractAddress": "0xa9d0fb5837f9c42c874e16da96094b14af0e2784",
      "function": "recordActivity(address,string,uint256,uint256)",
      "arguments": [
        "0x0000000000000000000000000000000000001005",
        "swap",
        "20000000000000000000",
        "60000000000000000"
      ],
      "transaction": {
        "from": "0xf39fd6e51aad88f6f4ce6ab8827279cfffb92266",
        "to": "0xa9d0fb5837f9c42c874e16da96094b14af0e2784",
        "gas": "0x1ddf2",
        "value": "0x0",
        "input": "0xe2f11e6100000000000000000000000000000000000000000000000000000000000010050000000000000000000000000000000000000000000000000000000000000080000000000000000000000000000000000000000000000001158e460913d0000000000000000000000000000000000000000000000000000000d529ae9e86000000000000000000000000000000000000000000000000000000000000000000047377617000000000000000000000000000000000000000000000000000000000",
        "nonce": "0x1c2",
        "chainId": "0xa455"
      },
      "additionalContracts": [],
      "isFixedGasLimit": false
    },
    {
      "hash": "0xf42e1267d4453f6eac7ec3815edb446f8857075f1263dfdb09b5ebe0e7d9dc8a",
      "transactionType": "CALL",
      "contractName": "AgentRegistry",
      "contractAddress": "0xa9d0fb5837f9c42c874e16da96094b14af0e2784",
      "function": "recordActivity(address,string,uint256,uint256)",
      "arguments": [
        "0x0000000000000000000000000000000000001005",
        "swap",
        "20000000000000000000",
        "60000000000000000"
      ],
      "transaction": {
        "from": "0xf39fd6e51aad88f6f4ce6ab8827279cfffb92266",
        "to": "0xa9d0fb5837f9c42c874e16da96094b14af0e2784",
        "gas": "0x1ddf2",
        "value": "0x0",
        "input": "0xe2f11e6100000000000000000000000000000000000000000000000000000000000010050000000000000000000000000000000000000000000000000000000000000080000000000000000000000000000000000000000000000001158e460913d0000000000000000000000000000000000000000000000000000000d529ae9e86000000000000000000000000000000000000000000000000000000000000000000047377617000000000000000000000000000000000000000000000000000000000",
        "nonce": "0x1c3",
        "chainId": "0xa455"
      },
      "additionalContracts": [],
      "isFixedGasLimit": false
    },
    {
      "hash": "0x9c55707517e99b359163e32c194e71ba0f920c34f3c7a9cd8dba1329bb2f19c0",
      "transactionType": "CALL",
      "contractName": "AgentRegistry",
      "contractAddress": "0xa9d0fb5837f9c42c874e16da96094b14af0e2784",
      "function": "recordActivity(address,string,uint256,uint256)",
      "arguments": [
        "0x0000000000000000000000000000000000001005",
        "swap",
        "20000000000000000000",
        "60000000000000000"
      ],
      "transaction": {
        "from": "0xf39fd6e51aad88f6f4ce6ab8827279cfffb92266",
        "to": "0xa9d0fb5837f9c42c874e16da96094b14af0e2784",
        "gas": "0x1ddf2",
        "value": "0x0",
        "input": "0xe2f11e6100000000000000000000000000000000000000000000000000000000000010050000000000000000000000000000000000000000000000000000000000000080000000000000000000000000000000000000000000000001158e460913d0000000000000000000000000000000000000000000000000000000d529ae9e86000000000000000000000000000000000000000000000000000000000000000000047377617000000000000000000000000000000000000000000000000000000000",
        "nonce": "0x1c4",
        "chainId": "0xa455"
      },
      "additionalContracts": [],
      "isFixedGasLimit": false
    },
    {
      "hash": "0x6f64050aaecad4215fe0702eb35bff2989265ec20f2153f7b8f67b15642f023a",
      "transactionType": "CALL",
      "contractName": "AgentRegistry",
      "contractAddress": "0xa9d0fb5837f9c42c874e16da96094b14af0e2784",
      "function": "recordActivity(address,string,uint256,uint256)",
      "arguments": [
        "0x0000000000000000000000000000000000001005",
        "swap",
        "20000000000000000000",
        "60000000000000000"
      ],
      "transaction": {
        "from": "0xf39fd6e51aad88f6f4ce6ab8827279cfffb92266",
        "to": "0xa9d0fb5837f9c42c874e16da96094b14af0e2784",
        "gas": "0x1ddf2",
        "value": "0x0",
        "input": "0xe2f11e6100000000000000000000000000000000000000000000000000000000000010050000000000000000000000000000000000000000000000000000000000000080000000000000000000000000000000000000000000000001158e460913d0000000000000000000000000000000000000000000000000000000d529ae9e86000000000000000000000000000000000000000000000000000000000000000000047377617000000000000000000000000000000000000000000000000000000000",
        "nonce": "0x1c5",
        "chainId": "0xa455"
      },
      "additionalContracts": [],
      "isFixedGasLimit": false
    },
    {
      "hash": "0xaace9f2a4c759d1bdbde622db2ea4723b24849eaadcd8f636b117cbd0433d9be",
      "transactionType": "CALL",
      "contractName": "AgentRegistry",
      "contractAddress": "0xa9d0fb5837f9c42c874e16da96094b14af0e2784",
      "function": "recordActivity(address,string,uint256,uint256)",
      "arguments": [
        "0x0000000000000000000000000000000000001005",
        "swap",
        "20000000000000000000",
        "60000000000000000"
      ],
      "transaction": {
        "from": "0xf39fd6e51aad88f6f4ce6ab8827279cfffb92266",
        "to": "0xa9d0fb5837f9c42c874e16da96094b14af0e2784",
        "gas": "0x1ddf2",
        "value": "0x0",
        "input": "0xe2f11e6100000000000000000000000000000000000000000000000000000000000010050000000000000000000000000000000000000000000000000000000000000080000000000000000000000000000000000000000000000001158e460913d0000000000000000000000000000000000000000000000000000000d529ae9e86000000000000000000000000000000000000000000000000000000000000000000047377617000000000000000000000000000000000000000000000000000000000",
        "nonce": "0x1c6",
        "chainId": "0xa455"
      },
      "additionalContracts": [],
      "isFixedGasLimit": false
    },
    {
      "hash": "0x38c9b35321dff77da2f14c459ae016a02c3e52e4dadb2224e9768b59b88817ad",
      "transactionType": "CALL",
      "contractName": "AgentRegistry",
      "contractAddress": "0xa9d0fb5837f9c42c874e16da96094b14af0e2784",
      "function": "recordActivity(address,string,uint256,uint256)",
      "arguments": [
        "0x0000000000000000000000000000000000001005",
        "swap",
        "20000000000000000000",
        "60000000000000000"
      ],
      "transaction": {
        "from": "0xf39fd6e51aad88f6f4ce6ab8827279cfffb92266",
        "to": "0xa9d0fb5837f9c42c874e16da96094b14af0e2784",
        "gas": "0x1ddf2",
        "value": "0x0",
        "input": "0xe2f11e6100000000000000000000000000000000000000000000000000000000000010050000000000000000000000000000000000000000000000000000000000000080000000000000000000000000000000000000000000000001158e460913d0000000000000000000000000000000000000000000000000000000d529ae9e86000000000000000000000000000000000000000000000000000000000000000000047377617000000000000000000000000000000000000000000000000000000000",
        "nonce": "0x1c7",
        "chainId": "0xa455"
      },
      "additionalContracts": [],
      "isFixedGasLimit": false
    },
    {
      "hash": "0x4949ad0cdadfbd4d20c0475efcfe794927c1b5fceb61af183dc66d908914462b",
      "transactionType": "CALL",
      "contractName": "AgentRegistry",
      "contractAddress": "0xa9d0fb5837f9c42c874e16da96094b14af0e2784",
      "function": "recordActivity(address,string,uint256,uint256)",
      "arguments": [
        "0x0000000000000000000000000000000000001005",
        "swap",
        "20000000000000000000",
        "60000000000000000"
      ],
      "transaction": {
        "from": "0xf39fd6e51aad88f6f4ce6ab8827279cfffb92266",
        "to": "0xa9d0fb5837f9c42c874e16da96094b14af0e2784",
        "gas": "0x1ddf2",
        "value": "0x0",
        "input": "0xe2f11e6100000000000000000000000000000000000000000000000000000000000010050000000000000000000000000000000000000000000000000000000000000080000000000000000000000000000000000000000000000001158e460913d0000000000000000000000000000000000000000000000000000000d529ae9e86000000000000000000000000000000000000000000000000000000000000000000047377617000000000000000000000000000000000000000000000000000000000",
        "nonce": "0x1c8",
        "chainId": "0xa455"
      },
      "additionalContracts": [],
      "isFixedGasLimit": false
    },
    {
      "hash": "0x5353bd60b0dcbc2ddb0a1188b1f899390bc4feb261ce92cd6e9855633994b759",
      "transactionType": "CALL",
      "contractName": "AgentRegistry",
      "contractAddress": "0xa9d0fb5837f9c42c874e16da96094b14af0e2784",
      "function": "recordActivity(address,string,uint256,uint256)",
      "arguments": [
        "0x0000000000000000000000000000000000001005",
        "swap",
        "20000000000000000000",
        "60000000000000000"
      ],
      "transaction": {
        "from": "0xf39fd6e51aad88f6f4ce6ab8827279cfffb92266",
        "to": "0xa9d0fb5837f9c42c874e16da96094b14af0e2784",
        "gas": "0x1ddf2",
        "value": "0x0",
        "input": "0xe2f11e6100000000000000000000000000000000000000000000000000000000000010050000000000000000000000000000000000000000000000000000000000000080000000000000000000000000000000000000000000000001158e460913d0000000000000000000000000000000000000000000000000000000d529ae9e86000000000000000000000000000000000000000000000000000000000000000000047377617000000000000000000000000000000000000000000000000000000000",
        "nonce": "0x1c9",
        "chainId": "0xa455"
      },
      "additionalContracts": [],
      "isFixedGasLimit": false
    },
    {
      "hash": "0x8d03427319d153f441af8ed22ae99f264da9d5d6f892796dfb408c0d88b2fe03",
      "transactionType": "CALL",
      "contractName": "AgentRegistry",
      "contractAddress": "0xa9d0fb5837f9c42c874e16da96094b14af0e2784",
      "function": "recordActivity(address,string,uint256,uint256)",
      "arguments": [
        "0x0000000000000000000000000000000000001005",
        "predict",
        "50000000000000000000",
        "150000000000000000"
      ],
      "transaction": {
        "from": "0xf39fd6e51aad88f6f4ce6ab8827279cfffb92266",
        "to": "0xa9d0fb5837f9c42c874e16da96094b14af0e2784",
        "gas": "0x31f68",
        "value": "0x0",
        "input": "0xe2f11e6100000000000000000000000000000000000000000000000000000000000010050000000000000000000000000000000000000000000000000000000000000080000000000000000000000000000000000000000000000002b5e3af16b18800000000000000000000000000000000000000000000000000000214e8348c4f000000000000000000000000000000000000000000000000000000000000000000077072656469637400000000000000000000000000000000000000000000000000",
        "nonce": "0x1ca",
        "chainId": "0xa455"
      },
      "additionalContracts": [],
      "isFixedGasLimit": false
    },
    {
      "hash": "0x60eca8d454bbee8081cb69caf5c2fbce4457d4e2f1217bb4a1d85db90b28d1b0",
      "transactionType": "CALL",
      "contractName": "AgentRegistry",
      "contractAddress": "0xa9d0fb5837f9c42c874e16da96094b14af0e2784",
      "function": "recordPnL(address,uint256,bool)",
      "arguments": [
        "0x0000000000000000000000000000000000001005",
        "1800000000000000000",
        "true"
      ],
      "transaction": {
        "from": "0xf39fd6e51aad88f6f4ce6ab8827279cfffb92266",
        "to": "0xa9d0fb5837f9c42c874e16da96094b14af0e2784",
        "gas": "0x11fc1",
        "value": "0x0",
        "input": "0xb896f222000000000000000000000000000000000000000000000000000000000000100500000000000000000000000000000000000000000000000018fae27693b400000000000000000000000000000000000000000000000000000000000000000001",
        "nonce": "0x1cb",
        "chainId": "0xa455"
      },
      "additionalContracts": [],
      "isFixedGasLimit": false
    }
  ],
  "receipts": [
    {
      "status": "0x1",
      "cumulativeGasUsed": "0x203416",
      "logs": [],
      "logsBloom": "0x00000000000000000000000000000000000000000000000000000000000000000000000000000000000000000000000000000000000000000000000000000000000000000000000000000000000000000000000000000000000000000000000000000000000000000000000000000000000000000000000000000000000000000000000000000000000000000000000000000000000000000000000000000000000000000000000000000000000000000000000000000000000000000000000000000000000000000000000000000000000000000000000000000000000000000000000000000000000000000000000000000000000000000000000000000000",
      "type": "0x2",
      "transactionHash": "0xd0ff9d53bda469c25f2ae2407e065cd041455cd2799e08b0357ae7f6f1992065",
      "transactionIndex": "0x0",
      "blockHash": "0x5177a9f2adfeb00f59f75620c1713469a0c8948f955e7dda11a3767aa57f4474",
      "blockNumber": "0xa41a",
      "gasUsed": "0x203416",
      "effectiveGasPrice": "0x8",
      "blobGasPrice": "0x1",
      "from": "0xf39fd6e51aad88f6f4ce6ab8827279cfffb92266",
      "to": null,
      "contractAddress": "0xa9d0fb5837f9c42c874e16da96094b14af0e2784",
      "blockTimestamp": 1775285821
    },
    {
      "status": "0x1",
      "cumulativeGasUsed": "0x26400b",
      "logs": [
        {
          "address": "0xa9d0fb5837f9c42c874e16da96094b14af0e2784",
          "topics": [
            "0x6cf3badcf1a10c54709f13ad2475d8b3a44ebcb1b93b38e7257f985053235040",
            "0x0000000000000000000000000000000000000000000000000000000000001001",
            "0x000000000000000000000000f39fd6e51aad88f6f4ce6ab8827279cfffb92266"
          ],
          "data": "0x0000000000000000000000000000000000000000000000000000000000000020000000000000000000000000000000000000000000000000000000000000000b416c706861547261646572000000000000000000000000000000000000000000",
          "blockHash": "0x5177a9f2adfeb00f59f75620c1713469a0c8948f955e7dda11a3767aa57f4474",
          "blockNumber": "0xa41a",
          "blockTimestamp": "0x69d0b63d",
          "transactionHash": "0x634741d6ec9dd3e34c48d13470f40552bef7cc346b0ce36bb45ad83f4dfb475a",
          "transactionIndex": "0x1",
          "logIndex": "0x0",
          "removed": false
        }
      ],
      "logsBloom": "0x00000000000000000000000200000000000000000000000000000000000000002000000000000000000000000000000000000000000000000000000000000000000000000000000000000000000100000000000000000000000000000000000000000000000000000020000100000000000000000000000000000000000000000000000000000000000000000000000000000000000000000000000000000000000000800000000000000000000000000000000200000000000200000000000000000000000000200000000000000000000000003000000000000000000000000000000000000000000000000000000000000000000000000000000000000200",
      "type": "0x2",
      "transactionHash": "0x634741d6ec9dd3e34c48d13470f40552bef7cc346b0ce36bb45ad83f4dfb475a",
      "transactionIndex": "0x1",
      "blockHash": "0x5177a9f2adfeb00f59f75620c1713469a0c8948f955e7dda11a3767aa57f4474",
      "blockNumber": "0xa41a",
      "gasUsed": "0x60bf5",
      "effectiveGasPrice": "0x8",
      "blobGasPrice": "0x1",
      "from": "0xf39fd6e51aad88f6f4ce6ab8827279cfffb92266",
      "to": "0xa9d0fb5837f9c42c874e16da96094b14af0e2784",
      "contractAddress": null,
      "blockTimestamp": 1775285821
    },
    {
      "status": "0x1",
      "cumulativeGasUsed": "0x2bc680",
      "logs": [
        {
          "address": "0xa9d0fb5837f9c42c874e16da96094b14af0e2784",
          "topics": [
            "0x6cf3badcf1a10c54709f13ad2475d8b3a44ebcb1b93b38e7257f985053235040",
            "0x0000000000000000000000000000000000000000000000000000000000001002",
            "0x000000000000000000000000f39fd6e51aad88f6f4ce6ab8827279cfffb92266"
          ],
          "data": "0x000000000000000000000000000000000000000000000000000000000000002000000000000000000000000000000000000000000000000000000000000000095969656c644d6178690000000000000000000000000000000000000000000000",
          "blockHash": "0x5177a9f2adfeb00f59f75620c1713469a0c8948f955e7dda11a3767aa57f4474",
          "blockNumber": "0xa41a",
          "blockTimestamp": "0x69d0b63d",
          "transactionHash": "0xf42e1267d4453f6eac7ec3815edb446f8857075f1263dfdb09b5ebe0e7d9dc8a",
          "transactionIndex": "0x2",
          "logIndex": "0x1",
          "removed": false
        }
      ],
      "logsBloom": "0x00000000000000000000000200000000000000000000000000000000000000002000000000000000000000000000000000000000000000000000000000000000000000000000000000000000000000000000000000000000000000000000000000000000000000000000000100000000000000000000000200000000001000000000000000000000000000000000000000000000000000000000000000000000000000000000000000000000000000000000000200000000000200000000000000000000040000200000000000000000000000003000000000000000000000000000000000000000000000000000000000000000000000000000000000000200",
      "type": "0x2",
      "transactionHash": "0xf42e1267d4453f6eac7ec3815edb446f8857075f1263dfdb09b5ebe0e7d9dc8a",
      "transactionIndex": "0x2",
      "blockHash": "0x5177a9f2adfeb00f59f75620c1713469a0c8948f955e7dda11a3767aa57f4474",
      "blockNumber": "0xa41a",
      "gasUsed": "0x58675",
      "effectiveGasPrice": "0x8",
      "blobGasPrice": "0x1",
      "from": "0xf39fd6e51aad88f6f4ce6ab8827279cfffb92266",
      "to": "0xa9d0fb5837f9c42c874e16da96094b14af0e2784",
      "contractAddress": null,
      "blockTimestamp": 1775285821
    },
    {
      "status": "0x1",
      "cumulativeGasUsed": "0x314d19",
      "logs": [
        {
          "address": "0xa9d0fb5837f9c42c874e16da96094b14af0e2784",
          "topics": [
            "0x6cf3badcf1a10c54709f13ad2475d8b3a44ebcb1b93b38e7257f985053235040",
            "0x0000000000000000000000000000000000000000000000000000000000001003",
            "0x000000000000000000000000f39fd6e51aad88f6f4ce6ab8827279cfffb92266"
          ],
          "data": "0x00000000000000000000000000000000000000000000000000000000000000200000000000000000000000000000000000000000000000000000000000000010507265646963744f7261636c65426f7400000000000000000000000000000000",
          "blockHash": "0x5177a9f2adfeb00f59f75620c1713469a0c8948f955e7dda11a3767aa57f4474",
          "blockNumber": "0xa41a",
          "blockTimestamp": "0x69d0b63d",
          "transactionHash": "0x83ca687a23635bd65c0c4fa4c0873e3a5e19d3c447887289961e74c34b7eddee",
          "transactionIndex": "0x3",
          "logIndex": "0x2",
          "removed": false
        }
      ],
      "logsBloom": "0x00000000000000000000000200000000000000000000000000000000010000002000000000000000000000000000000000000000000000000000000000000000000000000000000000000000000000000000000000000000000000000000000000000000000000000000000100000000000000000000000000000000000000000000000000000000000000000000000000000000000000000000000000000000000000000000000000000000000000000000000200000000000200000000000000000000000000200000000000000000000000003000000000000000000000000000000000020000000000000000000020000000000000000000000000000200",
      "type": "0x2",
      "transactionHash": "0x83ca687a23635bd65c0c4fa4c0873e3a5e19d3c447887289961e74c34b7eddee",
      "transactionIndex": "0x3",
      "blockHash": "0x5177a9f2adfeb00f59f75620c1713469a0c8948f955e7dda11a3767aa57f4474",
      "blockNumber": "0xa41a",
      "gasUsed": "0x58699",
      "effectiveGasPrice": "0x8",
      "blobGasPrice": "0x1",
      "from": "0xf39fd6e51aad88f6f4ce6ab8827279cfffb92266",
      "to": "0xa9d0fb5837f9c42c874e16da96094b14af0e2784",
      "contractAddress": null,
      "blockTimestamp": 1775285821
    },
    {
      "status": "0x1",
      "cumulativeGasUsed": "0x36d346",
      "logs": [
        {
          "address": "0xa9d0fb5837f9c42c874e16da96094b14af0e2784",
          "topics": [
            "0x6cf3badcf1a10c54709f13ad2475d8b3a44ebcb1b93b38e7257f985053235040",
            "0x0000000000000000000000000000000000000000000000000000000000001004",
            "0x000000000000000000000000f39fd6e51aad88f6f4ce6ab8827279cfffb92266"
          ],
          "data": "0x0000000000000000000000000000000000000000000000000000000000000020000000000000000000000000000000000000000000000000000000000000000c44656c74614e65757472616c0000000000000000000000000000000000000000",
          "blockHash": "0x5177a9f2adfeb00f59f75620c1713469a0c8948f955e7dda11a3767aa57f4474",
          "blockNumber": "0xa41a",
          "blockTimestamp": "0x69d0b63d",
          "transactionHash": "0x94d0432afeee170b2e0d3ae0101f9d338419d6e73cae1f2f0e0cfbe92e33e8cc",
          "transactionIndex": "0x4",
          "logIndex": "0x3",
          "removed": false
        }
      ],
      "logsBloom": "0x00000000000000000000000200000000000000000000000000400000000000002000000000000000000000000000000000000000000000000000000000000000000000000000000000000000000000000000000000000000000000000000000000000000000000000000000100000000000000000000000000000000000000000000000000000000000000000000000000000000000000000000000040000000000000000000000000000000000000000000000200000000000200000008000000000000000000200000000000000000000000003000000000000000000000000000000000000000000000000000000000000000000000000000000000000200",
      "type": "0x2",
      "transactionHash": "0x94d0432afeee170b2e0d3ae0101f9d338419d6e73cae1f2f0e0cfbe92e33e8cc",
      "transactionIndex": "0x4",
      "blockHash": "0x5177a9f2adfeb00f59f75620c1713469a0c8948f955e7dda11a3767aa57f4474",
      "blockNumber": "0xa41a",
      "gasUsed": "0x5862d",
      "effectiveGasPrice": "0x8",
      "blobGasPrice": "0x1",
      "from": "0xf39fd6e51aad88f6f4ce6ab8827279cfffb92266",
      "to": "0xa9d0fb5837f9c42c874e16da96094b14af0e2784",
      "contractAddress": null,
      "blockTimestamp": 1775285821
    },
    {
      "status": "0x1",
      "cumulativeGasUsed": "0x3c5973",
      "logs": [
        {
          "address": "0xa9d0fb5837f9c42c874e16da96094b14af0e2784",
          "topics": [
            "0x6cf3badcf1a10c54709f13ad2475d8b3a44ebcb1b93b38e7257f985053235040",
            "0x0000000000000000000000000000000000000000000000000000000000001005",
            "0x000000000000000000000000f39fd6e51aad88f6f4ce6ab8827279cfffb92266"
          ],
          "data": "0x0000000000000000000000000000000000000000000000000000000000000020000000000000000000000000000000000000000000000000000000000000000c5542494d6178696d697a65720000000000000000000000000000000000000000",
          "blockHash": "0x5177a9f2adfeb00f59f75620c1713469a0c8948f955e7dda11a3767aa57f4474",
          "blockNumber": "0xa41a",
          "blockTimestamp": "0x69d0b63d",
          "transactionHash": "0x86660f8aa293a8695f04345a64e138d26f4f177e3d2b1e88b18cfdf48483c8a7",
          "transactionIndex": "0x5",
          "logIndex": "0x4",
          "removed": false
        }
      ],
      "logsBloom": "0x00000000000000000000000200000000000000000000000000000000000000002000000000000000000000000000000000000000000000000000000000000000000000000000000000004000000000000800080000000000000000000000000000000000000000000000000100000000000000000000000000000000000000000000000000000000000000000000000000000000000000000000000000000000000000000000000000000000000000000000000200000000000200000000000000000000000000200000000000000000000000003000000000000000000000000000000000000000000000000000000000000000000000000000000000000200",
      "type": "0x2",
      "transactionHash": "0x86660f8aa293a8695f04345a64e138d26f4f177e3d2b1e88b18cfdf48483c8a7",
      "transactionIndex": "0x5",
      "blockHash": "0x5177a9f2adfeb00f59f75620c1713469a0c8948f955e7dda11a3767aa57f4474",
      "blockNumber": "0xa41a",
      "gasUsed": "0x5862d",
      "effectiveGasPrice": "0x8",
      "blobGasPrice": "0x1",
      "from": "0xf39fd6e51aad88f6f4ce6ab8827279cfffb92266",
      "to": "0xa9d0fb5837f9c42c874e16da96094b14af0e2784",
      "contractAddress": null,
      "blockTimestamp": 1775285821
    },
    {
      "status": "0x1",
      "cumulativeGasUsed": "0x404f8a",
      "logs": [
        {
          "address": "0xa9d0fb5837f9c42c874e16da96094b14af0e2784",
          "topics": [
            "0xe569346dc44a549a2dba8bdb890e3ad5f8b19481c95faf552e6c4684f90f369c",
            "0x0000000000000000000000000000000000000000000000000000000000001001"
          ],
          "data": "0x000000000000000000000000000000000000000000000000000000000000008000000000000000000000000000000000000000000000001b1ae4d6e2ef50000000000000000000000000000000000000000000000000000014d1120d7b16000000000000000000000000000000000000000000000000000006f02de04b74e00000000000000000000000000000000000000000000000000000000000000000057065727073000000000000000000000000000000000000000000000000000000",
          "blockHash": "0x5177a9f2adfeb00f59f75620c1713469a0c8948f955e7dda11a3767aa57f4474",
          "blockNumber": "0xa41a",
          "blockTimestamp": "0x69d0b63d",
          "transactionHash": "0x48dfd5d3d9ef0b4f0b215ea3b214c8291bb901d28e89ef2193101f7af2b31cbf",
          "transactionIndex": "0x6",
          "logIndex": "0x5",
          "removed": false
        }
      ],
      "logsBloom": "0x00000000000000000000000200000000100000000000000000000000000000000000000000000000000000000000000000000000000000000000000000000000000000000000000000000000000100000000000000000000000000000000000000000000000000000020000000000000000000020000000000000000000000000000000000000000000000000000000000000000000000000000000000000000000000800000000000000000000000000000000000000000000000000000000000000000000000000000000000000000000000001000000000000000000000000000000000000000000000000000000000000000000000000000000000000202",
      "type": "0x2",
      "transactionHash": "0x48dfd5d3d9ef0b4f0b215ea3b214c8291bb901d28e89ef2193101f7af2b31cbf",
      "transactionIndex": "0x6",
      "blockHash": "0x5177a9f2adfeb00f59f75620c1713469a0c8948f955e7dda11a3767aa57f4474",
      "blockNumber": "0xa41a",
      "gasUsed": "0x3f617",
      "effectiveGasPrice": "0x8",
      "blobGasPrice": "0x1",
      "from": "0xf39fd6e51aad88f6f4ce6ab8827279cfffb92266",
      "to": "0xa9d0fb5837f9c42c874e16da96094b14af0e2784",
      "contractAddress": null,
      "blockTimestamp": 1775285821
    },
    {
      "status": "0x1",
      "cumulativeGasUsed": "0x41a9a9",
      "logs": [
        {
          "address": "0xa9d0fb5837f9c42c874e16da96094b14af0e2784",
          "topics": [
            "0xe569346dc44a549a2dba8bdb890e3ad5f8b19481c95faf552e6c4684f90f369c",
            "0x0000000000000000000000000000000000000000000000000000000000001001"
          ],
          "data": "0x000000000000000000000000000000000000000000000000000000000000008000000000000000000000000000000000000000000000001043561a88293000000000000000000000000000000000000000000000000000000c7d713b49da00000000000000000000000000000000000000000000000000000429b5202d46200000000000000000000000000000000000000000000000000000000000000000057065727073000000000000000000000000000000000000000000000000000000",
          "blockHash": "0x5177a9f2adfeb00f59f75620c1713469a0c8948f955e7dda11a3767aa57f4474",
          "blockNumber": "0xa41a",
          "blockTimestamp": "0x69d0b63d",
          "transactionHash": "0xc41c3c233bbeb101334b4ea9c01fc4a77726832356ac2e4e08138159e92e6a1f",
          "transactionIndex": "0x7",
          "logIndex": "0x6",
          "removed": false
        }
      ],
      "logsBloom": "0x00000000000000000000000200000000100000000000000000000000000000000000000000000000000000000000000000000000000000000000000000000000000000000000000000000000000100000000000000000000000000000000000000000000000000000020000000000000000000020000000000000000000000000000000000000000000000000000000000000000000000000000000000000000000000800000000000000000000000000000000000000000000000000000000000000000000000000000000000000000000000001000000000000000000000000000000000000000000000000000000000000000000000000000000000000202",
      "type": "0x2",
      "transactionHash": "0xc41c3c233bbeb101334b4ea9c01fc4a77726832356ac2e4e08138159e92e6a1f",
      "transactionIndex": "0x7",
      "blockHash": "0x5177a9f2adfeb00f59f75620c1713469a0c8948f955e7dda11a3767aa57f4474",
      "blockNumber": "0xa41a",
      "gasUsed": "0x15a1f",
      "effectiveGasPrice": "0x8",
      "blobGasPrice": "0x1",
      "from": "0xf39fd6e51aad88f6f4ce6ab8827279cfffb92266",
      "to": "0xa9d0fb5837f9c42c874e16da96094b14af0e2784",
      "contractAddress": null,
      "blockTimestamp": 1775285821
    },
    {
      "status": "0x1",
      "cumulativeGasUsed": "0x43cc20",
      "logs": [
        {
          "address": "0xa9d0fb5837f9c42c874e16da96094b14af0e2784",
          "topics": [
            "0xe569346dc44a549a2dba8bdb890e3ad5f8b19481c95faf552e6c4684f90f369c",
            "0x0000000000000000000000000000000000000000000000000000000000001001"
          ],
          "data": "0x0000000000000000000000000000000000000000000000000000000000000080000000000000000000000000000000000000000000000002b5e3af16b18800000000000000000000000000000000000000000000000000000214e8348c4f000000000000000000000000000000000000000000000000000000b19e30078bb00000000000000000000000000000000000000000000000000000000000000000047377617000000000000000000000000000000000000000000000000000000000",
          "blockHash": "0x5177a9f2adfeb00f59f75620c1713469a0c8948f955e7dda11a3767aa57f4474",
          "blockNumber": "0xa41a",
          "blockTimestamp": "0x69d0b63d",
          "transactionHash": "0x149b9890b1ec47673245b8997ec04608c9039787bab4157896ba68af5dc74974",
          "transactionIndex": "0x8",
          "logIndex": "0x7",
          "removed": false
        }
      ],
      "logsBloom": "0x00000000000000000000000200000000100000000000000000000000000000000000000000000000000000000000000000000000000000000000000000000000000000000000000000000000000100000000000000000000000000000000000000000000000000000020000000000000000000020000000000000000000000000000000000000000000000000000000000000000000000000000000000000000000000800000000000000000000000000000000000000000000000000000000000000000000000000000000000000000000000001000000000000000000000000000000000000000000000000000000000000000000000000000000000000202",
      "type": "0x2",
      "transactionHash": "0x149b9890b1ec47673245b8997ec04608c9039787bab4157896ba68af5dc74974",
      "transactionIndex": "0x8",
      "blockHash": "0x5177a9f2adfeb00f59f75620c1713469a0c8948f955e7dda11a3767aa57f4474",
      "blockNumber": "0xa41a",
      "gasUsed": "0x22277",
      "effectiveGasPrice": "0x8",
      "blobGasPrice": "0x1",
      "from": "0xf39fd6e51aad88f6f4ce6ab8827279cfffb92266",
      "to": "0xa9d0fb5837f9c42c874e16da96094b14af0e2784",
      "contractAddress": null,
      "blockTimestamp": 1775285821
    },
    {
      "status": "0x1",
      "cumulativeGasUsed": "0x449c75",
      "logs": [],
      "logsBloom": "0x00000000000000000000000000000000000000000000000000000000000000000000000000000000000000000000000000000000000000000000000000000000000000000000000000000000000000000000000000000000000000000000000000000000000000000000000000000000000000000000000000000000000000000000000000000000000000000000000000000000000000000000000000000000000000000000000000000000000000000000000000000000000000000000000000000000000000000000000000000000000000000000000000000000000000000000000000000000000000000000000000000000000000000000000000000000",
      "type": "0x2",
      "transactionHash": "0x194d36d8492dc0c03f365ad3d7466175103f005924ae67460df74e020ee2d18b",
      "transactionIndex": "0x9",
      "blockHash": "0x5177a9f2adfeb00f59f75620c1713469a0c8948f955e7dda11a3767aa57f4474",
      "blockNumber": "0xa41a",
      "gasUsed": "0xd055",
      "effectiveGasPrice": "0x8",
      "blobGasPrice": "0x1",
      "from": "0xf39fd6e51aad88f6f4ce6ab8827279cfffb92266",
      "to": "0xa9d0fb5837f9c42c874e16da96094b14af0e2784",
      "contractAddress": null,
      "blockTimestamp": 1775285821
    },
    {
      "status": "0x1",
      "cumulativeGasUsed": "0x47ca1c",
      "logs": [
        {
          "address": "0xa9d0fb5837f9c42c874e16da96094b14af0e2784",
          "topics": [
            "0xe569346dc44a549a2dba8bdb890e3ad5f8b19481c95faf552e6c4684f90f369c",
            "0x0000000000000000000000000000000000000000000000000000000000001002"
          ],
          "data": "0x000000000000000000000000000000000000000000000000000000000000008000000000000000000000000000000000000000000000000ad78ebc5ac62000000000000000000000000000000000000000000000000000000853a0d2313c000000000000000000000000000000000000000000000000000002c678c01e2ec00000000000000000000000000000000000000000000000000000000000000000046c656e6400000000000000000000000000000000000000000000000000000000",
          "blockHash": "0x5177a9f2adfeb00f59f75620c1713469a0c8948f955e7dda11a3767aa57f4474",
          "blockNumber": "0xa41a",
          "blockTimestamp": "0x69d0b63d",
          "transactionHash": "0x8d03427319d153f441af8ed22ae99f264da9d5d6f892796dfb408c0d88b2fe03",
          "transactionIndex": "0xa",
          "logIndex": "0x8",
          "removed": false
        }
      ],
      "logsBloom": "0x00000000000000000000000200000000100000000000000000000000000000000000000000000000000000000000000000000000000000000000000000000000000000000000000000000000000000000000000000000000000000000000000000000000000000000000000000000000000000020000000200000000001000000000000000000000000000000000000000000000000000000000000000000000000000000000000000000000000000000000000000000000000000000000000000000000040000000000000000000000000000001000000000000000000000000000000000000000000000000000000000000000000000000000000000000202",
      "type": "0x2",
      "transactionHash": "0x8d03427319d153f441af8ed22ae99f264da9d5d6f892796dfb408c0d88b2fe03",
      "transactionIndex": "0xa",
      "blockHash": "0x5177a9f2adfeb00f59f75620c1713469a0c8948f955e7dda11a3767aa57f4474",
      "blockNumber": "0xa41a",
      "gasUsed": "0x32da7",
      "effectiveGasPrice": "0x8",
      "blobGasPrice": "0x1",
      "from": "0xf39fd6e51aad88f6f4ce6ab8827279cfffb92266",
      "to": "0xa9d0fb5837f9c42c874e16da96094b14af0e2784",
      "contractAddress": null,
      "blockTimestamp": 1775285821
    },
    {
      "status": "0x1",
      "cumulativeGasUsed": "0x49ec9f",
      "logs": [
        {
          "address": "0xa9d0fb5837f9c42c874e16da96094b14af0e2784",
          "topics": [
            "0xe569346dc44a549a2dba8bdb890e3ad5f8b19481c95faf552e6c4684f90f369c",
            "0x0000000000000000000000000000000000000000000000000000000000001002"
          ],
          "data": "0x000000000000000000000000000000000000000000000000000000000000008000000000000000000000000000000000000000000000000821ab0d4414980000000000000000000000000000000000000000000000000000063eb89da4ed00000000000000000000000000000000000000000000000000000214da9016a3100000000000000000000000000000000000000000000000000000000000000000057969656c64000000000000000000000000000000000000000000000000000000",
          "blockHash": "0x5177a9f2adfeb00f59f75620c1713469a0c8948f955e7dda11a3767aa57f4474",
          "blockNumber": "0xa41a",
          "blockTimestamp": "0x69d0b63d",
          "transactionHash": "0xafd6ddce86620717ef90edeca1693c3a4b4a3121d8552cd68328716e8719978a",
          "transactionIndex": "0xb",
          "logIndex": "0x9",
          "removed": false
        }
      ],
      "logsBloom": "0x00000000000000000000000200000000100000000000000000000000000000000000000000000000000000000000000000000000000000000000000000000000000000000000000000000000000000000000000000000000000000000000000000000000000000000000000000000000000000020000000200000000001000000000000000000000000000000000000000000000000000000000000000000000000000000000000000000000000000000000000000000000000000000000000000000000040000000000000000000000000000001000000000000000000000000000000000000000000000000000000000000000000000000000000000000202",
      "type": "0x2",
      "transactionHash": "0xafd6ddce86620717ef90edeca1693c3a4b4a3121d8552cd68328716e8719978a",
      "transactionIndex": "0xb",
      "blockHash": "0x5177a9f2adfeb00f59f75620c1713469a0c8948f955e7dda11a3767aa57f4474",
      "blockNumber": "0xa41a",
      "gasUsed": "0x22283",
      "effectiveGasPrice": "0x8",
      "blobGasPrice": "0x1",
      "from": "0xf39fd6e51aad88f6f4ce6ab8827279cfffb92266",
      "to": "0xa9d0fb5837f9c42c874e16da96094b14af0e2784",
      "contractAddress": null,
      "blockTimestamp": 1775285821
    },
    {
      "status": "0x1",
      "cumulativeGasUsed": "0x4c0f16",
      "logs": [
        {
          "address": "0xa9d0fb5837f9c42c874e16da96094b14af0e2784",
          "topics": [
            "0xe569346dc44a549a2dba8bdb890e3ad5f8b19481c95faf552e6c4684f90f369c",
            "0x0000000000000000000000000000000000000000000000000000000000001002"
          ],
          "data": "0x0000000000000000000000000000000000000000000000000000000000000080000000000000000000000000000000000000000000000004563918244f4000000000000000000000000000000000000000000000000000000354a6ba7a180000000000000000000000000000000000000000000000000000011c304cd8df800000000000000000000000000000000000000000000000000000000000000000047377617000000000000000000000000000000000000000000000000000000000",
          "blockHash": "0x5177a9f2adfeb00f59f75620c1713469a0c8948f955e7dda11a3767aa57f4474",
          "blockNumber": "0xa41a",
          "blockTimestamp": "0x69d0b63d",
          "transactionHash": "0xe791a0c1cb48e2bcb33de62dceba4fefebe8e1692becbe09159323440d8b1a8f",
          "transactionIndex": "0xc",
          "logIndex": "0xa",
          "removed": false
        }
      ],
      "logsBloom": "0x00000000000000000000000200000000100000000000000000000000000000000000000000000000000000000000000000000000000000000000000000000000000000000000000000000000000000000000000000000000000000000000000000000000000000000000000000000000000000020000000200000000001000000000000000000000000000000000000000000000000000000000000000000000000000000000000000000000000000000000000000000000000000000000000000000000040000000000000000000000000000001000000000000000000000000000000000000000000000000000000000000000000000000000000000000202",
      "type": "0x2",
      "transactionHash": "0xe791a0c1cb48e2bcb33de62dceba4fefebe8e1692becbe09159323440d8b1a8f",
      "transactionIndex": "0xc",
      "blockHash": "0x5177a9f2adfeb00f59f75620c1713469a0c8948f955e7dda11a3767aa57f4474",
      "blockNumber": "0xa41a",
      "gasUsed": "0x22277",
      "effectiveGasPrice": "0x8",
      "blobGasPrice": "0x1",
      "from": "0xf39fd6e51aad88f6f4ce6ab8827279cfffb92266",
      "to": "0xa9d0fb5837f9c42c874e16da96094b14af0e2784",
      "contractAddress": null,
      "blockTimestamp": 1775285821
    },
    {
      "status": "0x1",
      "cumulativeGasUsed": "0x4cdf6b",
      "logs": [],
      "logsBloom": "0x00000000000000000000000000000000000000000000000000000000000000000000000000000000000000000000000000000000000000000000000000000000000000000000000000000000000000000000000000000000000000000000000000000000000000000000000000000000000000000000000000000000000000000000000000000000000000000000000000000000000000000000000000000000000000000000000000000000000000000000000000000000000000000000000000000000000000000000000000000000000000000000000000000000000000000000000000000000000000000000000000000000000000000000000000000000",
      "type": "0x2",
      "transactionHash": "0xc3fae63c5fda5a75a9b340651cbce93d8069a81042ad9198bbd17e16dfaf4848",
      "transactionIndex": "0xd",
      "blockHash": "0x5177a9f2adfeb00f59f75620c1713469a0c8948f955e7dda11a3767aa57f4474",
      "blockNumber": "0xa41a",
      "gasUsed": "0xd055",
      "effectiveGasPrice": "0x8",
      "blobGasPrice": "0x1",
      "from": "0xf39fd6e51aad88f6f4ce6ab8827279cfffb92266",
      "to": "0xa9d0fb5837f9c42c874e16da96094b14af0e2784",
      "contractAddress": null,
      "blockTimestamp": 1775285821
    },
    {
      "status": "0x1",
      "cumulativeGasUsed": "0x500d36",
      "logs": [
        {
          "address": "0xa9d0fb5837f9c42c874e16da96094b14af0e2784",
          "topics": [
            "0xe569346dc44a549a2dba8bdb890e3ad5f8b19481c95faf552e6c4684f90f369c",
            "0x0000000000000000000000000000000000000000000000000000000000001003"
          ],
          "data": "0x00000000000000000000000000000000000000000000000000000000000000800000000000000000000000000000000000000000000000056bc75e2d631000000000000000000000000000000000000000000000000000000429d069189e000000000000000000000000000000000000000000000000000001633c600f17600000000000000000000000000000000000000000000000000000000000000000077072656469637400000000000000000000000000000000000000000000000000",
          "blockHash": "0x5177a9f2adfeb00f59f75620c1713469a0c8948f955e7dda11a3767aa57f4474",
          "blockNumber": "0xa41a",
          "blockTimestamp": "0x69d0b63d",
          "transactionHash": "0xba4b6d861a6a35bc043a76d8b3fc7de98a08bbda0f3bd8433d9a4417d0c39e4c",
          "transactionIndex": "0xe",
          "logIndex": "0xb",
          "removed": false
        }
      ],
      "logsBloom": "0x00000000000000000000000200000000100000000000000000000000010000000000000000000000000000000000000000000000000000000000000000000000000000000000000000000000000000000000000000000000000000000000000000000000000000000000000000000000000000020000000000000000000000000000000000000000000000000000000000000000000000000000000000000000000000000000000000000000000000000000000000000000000000000000000000000000000000000000000000000000000000001000000000000000000000000000000000020000000000000000000020000000000000000000000000000202",
      "type": "0x2",
      "transactionHash": "0xba4b6d861a6a35bc043a76d8b3fc7de98a08bbda0f3bd8433d9a4417d0c39e4c",
      "transactionIndex": "0xe",
      "blockHash": "0x5177a9f2adfeb00f59f75620c1713469a0c8948f955e7dda11a3767aa57f4474",
      "blockNumber": "0xa41a",
      "gasUsed": "0x32dcb",
      "effectiveGasPrice": "0x8",
      "blobGasPrice": "0x1",
      "from": "0xf39fd6e51aad88f6f4ce6ab8827279cfffb92266",
      "to": "0xa9d0fb5837f9c42c874e16da96094b14af0e2784",
      "contractAddress": null,
      "blockTimestamp": 1775285821
    },
    {
      "status": "0x1",
      "cumulativeGasUsed": "0x516779",
      "logs": [
        {
          "address": "0xa9d0fb5837f9c42c874e16da96094b14af0e2784",
          "topics": [
            "0xe569346dc44a549a2dba8bdb890e3ad5f8b19481c95faf552e6c4684f90f369c",
            "0x0000000000000000000000000000000000000000000000000000000000001003"
          ],
          "data": "0x000000000000000000000000000000000000000000000000000000000000008000000000000000000000000000000000000000000000000410d586a20a4c0000000000000000000000000000000000000000000000000000031f5c4ed2768000000000000000000000000000000000000000000000000000010a6d480b51880000000000000000000000000000000000000000000000000000000000000000077072656469637400000000000000000000000000000000000000000000000000",
          "blockHash": "0x5177a9f2adfeb00f59f75620c1713469a0c8948f955e7dda11a3767aa57f4474",
          "blockNumber": "0xa41a",
          "blockTimestamp": "0x69d0b63d",
          "transactionHash": "0x38c9b35321dff77da2f14c459ae016a02c3e52e4dadb2224e9768b59b88817ad",
          "transactionIndex": "0xf",
          "logIndex": "0xc",
          "removed": false
        }
      ],
      "logsBloom": "0x00000000000000000000000200000000100000000000000000000000010000000000000000000000000000000000000000000000000000000000000000000000000000000000000000000000000000000000000000000000000000000000000000000000000000000000000000000000000000020000000000000000000000000000000000000000000000000000000000000000000000000000000000000000000000000000000000000000000000000000000000000000000000000000000000000000000000000000000000000000000000001000000000000000000000000000000000020000000000000000000020000000000000000000000000000202",
      "type": "0x2",
      "transactionHash": "0x38c9b35321dff77da2f14c459ae016a02c3e52e4dadb2224e9768b59b88817ad",
      "transactionIndex": "0xf",
      "blockHash": "0x5177a9f2adfeb00f59f75620c1713469a0c8948f955e7dda11a3767aa57f4474",
      "blockNumber": "0xa41a",
      "gasUsed": "0x15a43",
      "effectiveGasPrice": "0x8",
      "blobGasPrice": "0x1",
      "from": "0xf39fd6e51aad88f6f4ce6ab8827279cfffb92266",
      "to": "0xa9d0fb5837f9c42c874e16da96094b14af0e2784",
      "contractAddress": null,
      "blockTimestamp": 1775285821
    },
    {
      "status": "0x1",
      "cumulativeGasUsed": "0x5389f0",
      "logs": [
        {
          "address": "0xa9d0fb5837f9c42c874e16da96094b14af0e2784",
          "topics": [
            "0xe569346dc44a549a2dba8bdb890e3ad5f8b19481c95faf552e6c4684f90f369c",
            "0x0000000000000000000000000000000000000000000000000000000000001003"
          ],
          "data": "0x0000000000000000000000000000000000000000000000000000000000000080000000000000000000000000000000000000000000000001a055690d9db80000000000000000000000000000000000000000000000000000013fbe85edc90000000000000000000000000000000000000000000000000000006a921cd153d00000000000000000000000000000000000000000000000000000000000000000047377617000000000000000000000000000000000000000000000000000000000",
          "blockHash": "0x5177a9f2adfeb00f59f75620c1713469a0c8948f955e7dda11a3767aa57f4474",
          "blockNumber": "0xa41a",
          "blockTimestamp": "0x69d0b63d",
          "transactionHash": "0x680b6a07f057f2ec85f80a8e887580b25f8b8ec22ea8b21f9d6b7344ab4ad9b1",
          "transactionIndex": "0x10",
          "logIndex": "0xd",
          "removed": false
        }
      ],
      "logsBloom": "0x00000000000000000000000200000000100000000000000000000000010000000000000000000000000000000000000000000000000000000000000000000000000000000000000000000000000000000000000000000000000000000000000000000000000000000000000000000000000000020000000000000000000000000000000000000000000000000000000000000000000000000000000000000000000000000000000000000000000000000000000000000000000000000000000000000000000000000000000000000000000000001000000000000000000000000000000000020000000000000000000020000000000000000000000000000202",
      "type": "0x2",
      "transactionHash": "0x680b6a07f057f2ec85f80a8e887580b25f8b8ec22ea8b21f9d6b7344ab4ad9b1",
      "transactionIndex": "0x10",
      "blockHash": "0x5177a9f2adfeb00f59f75620c1713469a0c8948f955e7dda11a3767aa57f4474",
      "blockNumber": "0xa41a",
      "gasUsed": "0x22277",
      "effectiveGasPrice": "0x8",
      "blobGasPrice": "0x1",
      "from": "0xf39fd6e51aad88f6f4ce6ab8827279cfffb92266",
      "to": "0xa9d0fb5837f9c42c874e16da96094b14af0e2784",
      "contractAddress": null,
      "blockTimestamp": 1775285821
    },
    {
      "status": "0x1",
      "cumulativeGasUsed": "0x545a39",
      "logs": [],
      "logsBloom": "0x00000000000000000000000000000000000000000000000000000000000000000000000000000000000000000000000000000000000000000000000000000000000000000000000000000000000000000000000000000000000000000000000000000000000000000000000000000000000000000000000000000000000000000000000000000000000000000000000000000000000000000000000000000000000000000000000000000000000000000000000000000000000000000000000000000000000000000000000000000000000000000000000000000000000000000000000000000000000000000000000000000000000000000000000000000000",
      "type": "0x2",
      "transactionHash": "0x9c55707517e99b359163e32c194e71ba0f920c34f3c7a9cd8dba1329bb2f19c0",
      "transactionIndex": "0x11",
      "blockHash": "0x5177a9f2adfeb00f59f75620c1713469a0c8948f955e7dda11a3767aa57f4474",
      "blockNumber": "0xa41a",
      "gasUsed": "0xd049",
      "effectiveGasPrice": "0x8",
      "blobGasPrice": "0x1",
      "from": "0xf39fd6e51aad88f6f4ce6ab8827279cfffb92266",
      "to": "0xa9d0fb5837f9c42c874e16da96094b14af0e2784",
      "contractAddress": null,
      "blockTimestamp": 1775285821
    },
    {
      "status": "0x1",
      "cumulativeGasUsed": "0x5787ec",
      "logs": [
        {
          "address": "0xa9d0fb5837f9c42c874e16da96094b14af0e2784",
          "topics": [
            "0xe569346dc44a549a2dba8bdb890e3ad5f8b19481c95faf552e6c4684f90f369c",
            "0x0000000000000000000000000000000000000000000000000000000000001004"
          ],
          "data": "0x0000000000000000000000000000000000000000000000000000000000000080000000000000000000000000000000000000000000000015af1d78b58c40000000000000000000000000000000000000000000000000000010a741a462780000000000000000000000000000000000000000000000000000058cf1803c5d800000000000000000000000000000000000000000000000000000000000000000057065727073000000000000000000000000000000000000000000000000000000",
          "blockHash": "0x5177a9f2adfeb00f59f75620c1713469a0c8948f955e7dda11a3767aa57f4474",
          "blockNumber": "0xa41a",
          "blockTimestamp": "0x69d0b63d",
          "transactionHash": "0x5353bd60b0dcbc2ddb0a1188b1f899390bc4feb261ce92cd6e9855633994b759",
          "transactionIndex": "0x12",
          "logIndex": "0xe",
          "removed": false
        }
      ],
      "logsBloom": "0x00000000000000000000000200000000100000000000000000400000000000000000000000000000000000000000000000000000000000000000000000000000000000000000000000000000000000000000000000000000000000000000000000000000000000000000000000000000000000020000000000000000000000000000000000000000000000000000000000000000000000000000000040000000000000000000000000000000000000000000000000000000000000000008000000000000000000000000000000000000000000001000000000000000000000000000000000000000000000000000000000000000000000000000000000000202",
      "type": "0x2",
      "transactionHash": "0x5353bd60b0dcbc2ddb0a1188b1f899390bc4feb261ce92cd6e9855633994b759",
      "transactionIndex": "0x12",
      "blockHash": "0x5177a9f2adfeb00f59f75620c1713469a0c8948f955e7dda11a3767aa57f4474",
      "blockNumber": "0xa41a",
      "gasUsed": "0x32db3",
      "effectiveGasPrice": "0x8",
      "blobGasPrice": "0x1",
      "from": "0xf39fd6e51aad88f6f4ce6ab8827279cfffb92266",
      "to": "0xa9d0fb5837f9c42c874e16da96094b14af0e2784",
      "contractAddress": null,
      "blockTimestamp": 1775285821
    },
    {
      "status": "0x1",
      "cumulativeGasUsed": "0x59aa63",
      "logs": [
        {
          "address": "0xa9d0fb5837f9c42c874e16da96094b14af0e2784",
          "topics": [
            "0xe569346dc44a549a2dba8bdb890e3ad5f8b19481c95faf552e6c4684f90f369c",
            "0x0000000000000000000000000000000000000000000000000000000000001004"
          ],
          "data": "0x0000000000000000000000000000000000000000000000000000000000000080000000000000000000000000000000000000000000000015af1d78b58c40000000000000000000000000000000000000000000000000000010a741a462780000000000000000000000000000000000000000000000000000058cf1803c5d800000000000000000000000000000000000000000000000000000000000000000047377617000000000000000000000000000000000000000000000000000000000",
          "blockHash": "0x5177a9f2adfeb00f59f75620c1713469a0c8948f955e7dda11a3767aa57f4474",
          "blockNumber": "0xa41a",
          "blockTimestamp": "0x69d0b63d",
          "transactionHash": "0x4ed2126619f92e68d51209baa2fef7935cf5ba59692a1a3eda5f3ad8e6848452",
          "transactionIndex": "0x13",
          "logIndex": "0xf",
          "removed": false
        }
      ],
      "logsBloom": "0x00000000000000000000000200000000100000000000000000400000000000000000000000000000000000000000000000000000000000000000000000000000000000000000000000000000000000000000000000000000000000000000000000000000000000000000000000000000000000020000000000000000000000000000000000000000000000000000000000000000000000000000000040000000000000000000000000000000000000000000000000000000000000000008000000000000000000000000000000000000000000001000000000000000000000000000000000000000000000000000000000000000000000000000000000000202",
      "type": "0x2",
      "transactionHash": "0x4ed2126619f92e68d51209baa2fef7935cf5ba59692a1a3eda5f3ad8e6848452",
      "transactionIndex": "0x13",
      "blockHash": "0x5177a9f2adfeb00f59f75620c1713469a0c8948f955e7dda11a3767aa57f4474",
      "blockNumber": "0xa41a",
      "gasUsed": "0x22277",
      "effectiveGasPrice": "0x8",
      "blobGasPrice": "0x1",
      "from": "0xf39fd6e51aad88f6f4ce6ab8827279cfffb92266",
      "to": "0xa9d0fb5837f9c42c874e16da96094b14af0e2784",
      "contractAddress": null,
      "blockTimestamp": 1775285821
    },
    {
      "status": "0x1",
      "cumulativeGasUsed": "0x5bccda",
      "logs": [
        {
          "address": "0xa9d0fb5837f9c42c874e16da96094b14af0e2784",
          "topics": [
            "0xe569346dc44a549a2dba8bdb890e3ad5f8b19481c95faf552e6c4684f90f369c",
            "0x0000000000000000000000000000000000000000000000000000000000001004"
          ],
          "data": "0x00000000000000000000000000000000000000000000000000000000000000800000000000000000000000000000000000000000000000056bc75e2d631000000000000000000000000000000000000000000000000000000429d069189e000000000000000000000000000000000000000000000000000001633c600f17600000000000000000000000000000000000000000000000000000000000000000046c656e6400000000000000000000000000000000000000000000000000000000",
          "blockHash": "0x5177a9f2adfeb00f59f75620c1713469a0c8948f955e7dda11a3767aa57f4474",
          "blockNumber": "0xa41a",
          "blockTimestamp": "0x69d0b63d",
          "transactionHash": "0x2f2207b25c06c5f1a596b1ba88476b55bf6fa58bf2419b50fd7b4e2d9898957b",
          "transactionIndex": "0x14",
          "logIndex": "0x10",
          "removed": false
        }
      ],
      "logsBloom": "0x00000000000000000000000200000000100000000000000000400000000000000000000000000000000000000000000000000000000000000000000000000000000000000000000000000000000000000000000000000000000000000000000000000000000000000000000000000000000000020000000000000000000000000000000000000000000000000000000000000000000000000000000040000000000000000000000000000000000000000000000000000000000000000008000000000000000000000000000000000000000000001000000000000000000000000000000000000000000000000000000000000000000000000000000000000202",
      "type": "0x2",
      "transactionHash": "0x2f2207b25c06c5f1a596b1ba88476b55bf6fa58bf2419b50fd7b4e2d9898957b",
      "transactionIndex": "0x14",
      "blockHash": "0x5177a9f2adfeb00f59f75620c1713469a0c8948f955e7dda11a3767aa57f4474",
      "blockNumber": "0xa41a",
      "gasUsed": "0x22277",
      "effectiveGasPrice": "0x8",
      "blobGasPrice": "0x1",
      "from": "0xf39fd6e51aad88f6f4ce6ab8827279cfffb92266",
      "to": "0xa9d0fb5837f9c42c874e16da96094b14af0e2784",
      "contractAddress": null,
      "blockTimestamp": 1775285821
    },
    {
      "status": "0x1",
      "cumulativeGasUsed": "0x5c9553",
      "logs": [],
      "logsBloom": "0x00000000000000000000000000000000000000000000000000000000000000000000000000000000000000000000000000000000000000000000000000000000000000000000000000000000000000000000000000000000000000000000000000000000000000000000000000000000000000000000000000000000000000000000000000000000000000000000000000000000000000000000000000000000000000000000000000000000000000000000000000000000000000000000000000000000000000000000000000000000000000000000000000000000000000000000000000000000000000000000000000000000000000000000000000000000",
      "type": "0x2",
      "transactionHash": "0xe096a2a5f47879e2b890248f127d962bf7211e2768c9ddaa014500f66b991581",
      "transactionIndex": "0x15",
      "blockHash": "0x5177a9f2adfeb00f59f75620c1713469a0c8948f955e7dda11a3767aa57f4474",
      "blockNumber": "0xa41a",
      "gasUsed": "0xc879",
      "effectiveGasPrice": "0x8",
      "blobGasPrice": "0x1",
      "from": "0xf39fd6e51aad88f6f4ce6ab8827279cfffb92266",
      "to": "0xa9d0fb5837f9c42c874e16da96094b14af0e2784",
      "contractAddress": null,
      "blockTimestamp": 1775285821
    },
    {
      "status": "0x1",
      "cumulativeGasUsed": "0x5fc2ee",
      "logs": [
        {
          "address": "0xa9d0fb5837f9c42c874e16da96094b14af0e2784",
          "topics": [
            "0xe569346dc44a549a2dba8bdb890e3ad5f8b19481c95faf552e6c4684f90f369c",
            "0x0000000000000000000000000000000000000000000000000000000000001005"
          ],
          "data": "0x0000000000000000000000000000000000000000000000000000000000000080000000000000000000000000000000000000000000000001158e460913d0000000000000000000000000000000000000000000000000000000d529ae9e86000000000000000000000000000000000000000000000000000000470c133637e00000000000000000000000000000000000000000000000000000000000000000047377617000000000000000000000000000000000000000000000000000000000",
          "blockHash": "0x5177a9f2adfeb00f59f75620c1713469a0c8948f955e7dda11a3767aa57f4474",
          "blockNumber": "0xa41a",
          "blockTimestamp": "0x69d0b63d",
          "transactionHash": "0x4949ad0cdadfbd4d20c0475efcfe794927c1b5fceb61af183dc66d908914462b",
          "transactionIndex": "0x16",
          "logIndex": "0x11",
          "removed": false
        }
      ],
      "logsBloom": "0x00000000000000000000000200000000100000000000000000000000000000000000000000000000000000000000000000000000000000000000000000000000000000000000000000004000000000000800080000000000000000000000000000000000000000000000000000000000000000020000000000000000000000000000000000000000000000000000000000000000000000000000000000000000000000000000000000000000000000000000000000000000000000000000000000000000000000000000000000000000000000001000000000000000000000000000000000000000000000000000000000000000000000000000000000000202",
      "type": "0x2",
      "transactionHash": "0x4949ad0cdadfbd4d20c0475efcfe794927c1b5fceb61af183dc66d908914462b",
      "transactionIndex": "0x16",
      "blockHash": "0x5177a9f2adfeb00f59f75620c1713469a0c8948f955e7dda11a3767aa57f4474",
      "blockNumber": "0xa41a",
      "gasUsed": "0x32d9b",
      "effectiveGasPrice": "0x8",
      "blobGasPrice": "0x1",
      "from": "0xf39fd6e51aad88f6f4ce6ab8827279cfffb92266",
      "to": "0xa9d0fb5837f9c42c874e16da96094b14af0e2784",
      "contractAddress": null,
      "blockTimestamp": 1775285821
    },
    {
      "status": "0x1",
      "cumulativeGasUsed": "0x611cf5",
      "logs": [
        {
          "address": "0xa9d0fb5837f9c42c874e16da96094b14af0e2784",
          "topics": [
            "0xe569346dc44a549a2dba8bdb890e3ad5f8b19481c95faf552e6c4684f90f369c",
            "0x0000000000000000000000000000000000000000000000000000000000001005"
          ],
          "data": "0x0000000000000000000000000000000000000000000000000000000000000080000000000000000000000000000000000000000000000001158e460913d0000000000000000000000000000000000000000000000000000000d529ae9e86000000000000000000000000000000000000000000000000000000470c133637e00000000000000000000000000000000000000000000000000000000000000000047377617000000000000000000000000000000000000000000000000000000000",
          "blockHash": "0x5177a9f2adfeb00f59f75620c1713469a0c8948f955e7dda11a3767aa57f4474",
          "blockNumber": "0xa41a",
          "blockTimestamp": "0x69d0b63d",
          "transactionHash": "0x60eca8d454bbee8081cb69caf5c2fbce4457d4e2f1217bb4a1d85db90b28d1b0",
          "transactionIndex": "0x17",
          "logIndex": "0x12",
          "removed": false
        }
      ],
      "logsBloom": "0x00000000000000000000000200000000100000000000000000000000000000000000000000000000000000000000000000000000000000000000000000000000000000000000000000004000000000000800080000000000000000000000000000000000000000000000000000000000000000020000000000000000000000000000000000000000000000000000000000000000000000000000000000000000000000000000000000000000000000000000000000000000000000000000000000000000000000000000000000000000000000001000000000000000000000000000000000000000000000000000000000000000000000000000000000000202",
      "type": "0x2",
      "transactionHash": "0x60eca8d454bbee8081cb69caf5c2fbce4457d4e2f1217bb4a1d85db90b28d1b0",
      "transactionIndex": "0x17",
      "blockHash": "0x5177a9f2adfeb00f59f75620c1713469a0c8948f955e7dda11a3767aa57f4474",
      "blockNumber": "0xa41a",
      "gasUsed": "0x15a07",
      "effectiveGasPrice": "0x8",
      "blobGasPrice": "0x1",
      "from": "0xf39fd6e51aad88f6f4ce6ab8827279cfffb92266",
      "to": "0xa9d0fb5837f9c42c874e16da96094b14af0e2784",
      "contractAddress": null,
      "blockTimestamp": 1775285821
    },
    {
      "status": "0x1",
      "cumulativeGasUsed": "0x6276fc",
      "logs": [
        {
          "address": "0xa9d0fb5837f9c42c874e16da96094b14af0e2784",
          "topics": [
            "0xe569346dc44a549a2dba8bdb890e3ad5f8b19481c95faf552e6c4684f90f369c",
            "0x0000000000000000000000000000000000000000000000000000000000001005"
          ],
          "data": "0x0000000000000000000000000000000000000000000000000000000000000080000000000000000000000000000000000000000000000001158e460913d0000000000000000000000000000000000000000000000000000000d529ae9e86000000000000000000000000000000000000000000000000000000470c133637e00000000000000000000000000000000000000000000000000000000000000000047377617000000000000000000000000000000000000000000000000000000000",
          "blockHash": "0x5177a9f2adfeb00f59f75620c1713469a0c8948f955e7dda11a3767aa57f4474",
          "blockNumber": "0xa41a",
          "blockTimestamp": "0x69d0b63d",
          "transactionHash": "0xaace9f2a4c759d1bdbde622db2ea4723b24849eaadcd8f636b117cbd0433d9be",
          "transactionIndex": "0x18",
          "logIndex": "0x13",
          "removed": false
        }
      ],
      "logsBloom": "0x00000000000000000000000200000000100000000000000000000000000000000000000000000000000000000000000000000000000000000000000000000000000000000000000000004000000000000800080000000000000000000000000000000000000000000000000000000000000000020000000000000000000000000000000000000000000000000000000000000000000000000000000000000000000000000000000000000000000000000000000000000000000000000000000000000000000000000000000000000000000000001000000000000000000000000000000000000000000000000000000000000000000000000000000000000202",
      "type": "0x2",
      "transactionHash": "0xaace9f2a4c759d1bdbde622db2ea4723b24849eaadcd8f636b117cbd0433d9be",
      "transactionIndex": "0x18",
      "blockHash": "0x5177a9f2adfeb00f59f75620c1713469a0c8948f955e7dda11a3767aa57f4474",
      "blockNumber": "0xa41a",
      "gasUsed": "0x15a07",
      "effectiveGasPrice": "0x8",
      "blobGasPrice": "0x1",
      "from": "0xf39fd6e51aad88f6f4ce6ab8827279cfffb92266",
      "to": "0xa9d0fb5837f9c42c874e16da96094b14af0e2784",
      "contractAddress": null,
      "blockTimestamp": 1775285821
    },
    {
      "status": "0x1",
      "cumulativeGasUsed": "0x63d103",
      "logs": [
        {
          "address": "0xa9d0fb5837f9c42c874e16da96094b14af0e2784",
          "topics": [
            "0xe569346dc44a549a2dba8bdb890e3ad5f8b19481c95faf552e6c4684f90f369c",
            "0x0000000000000000000000000000000000000000000000000000000000001005"
          ],
          "data": "0x0000000000000000000000000000000000000000000000000000000000000080000000000000000000000000000000000000000000000001158e460913d0000000000000000000000000000000000000000000000000000000d529ae9e86000000000000000000000000000000000000000000000000000000470c133637e00000000000000000000000000000000000000000000000000000000000000000047377617000000000000000000000000000000000000000000000000000000000",
          "blockHash": "0x5177a9f2adfeb00f59f75620c1713469a0c8948f955e7dda11a3767aa57f4474",
          "blockNumber": "0xa41a",
          "blockTimestamp": "0x69d0b63d",
          "transactionHash": "0x677ce624c52efcf6173e30bde5242d422c214a47d83c4c2be3866beb0ad44237",
          "transactionIndex": "0x19",
          "logIndex": "0x14",
          "removed": false
        }
      ],
      "logsBloom": "0x00000000000000000000000200000000100000000000000000000000000000000000000000000000000000000000000000000000000000000000000000000000000000000000000000004000000000000800080000000000000000000000000000000000000000000000000000000000000000020000000000000000000000000000000000000000000000000000000000000000000000000000000000000000000000000000000000000000000000000000000000000000000000000000000000000000000000000000000000000000000000001000000000000000000000000000000000000000000000000000000000000000000000000000000000000202",
      "type": "0x2",
      "transactionHash": "0x677ce624c52efcf6173e30bde5242d422c214a47d83c4c2be3866beb0ad44237",
      "transactionIndex": "0x19",
      "blockHash": "0x5177a9f2adfeb00f59f75620c1713469a0c8948f955e7dda11a3767aa57f4474",
      "blockNumber": "0xa41a",
      "gasUsed": "0x15a07",
      "effectiveGasPrice": "0x8",
      "blobGasPrice": "0x1",
      "from": "0xf39fd6e51aad88f6f4ce6ab8827279cfffb92266",
      "to": "0xa9d0fb5837f9c42c874e16da96094b14af0e2784",
      "contractAddress": null,
      "blockTimestamp": 1775285821
    },
    {
      "status": "0x1",
      "cumulativeGasUsed": "0x652b0a",
      "logs": [
        {
          "address": "0xa9d0fb5837f9c42c874e16da96094b14af0e2784",
          "topics": [
            "0xe569346dc44a549a2dba8bdb890e3ad5f8b19481c95faf552e6c4684f90f369c",
            "0x0000000000000000000000000000000000000000000000000000000000001005"
          ],
          "data": "0x0000000000000000000000000000000000000000000000000000000000000080000000000000000000000000000000000000000000000001158e460913d0000000000000000000000000000000000000000000000000000000d529ae9e86000000000000000000000000000000000000000000000000000000470c133637e00000000000000000000000000000000000000000000000000000000000000000047377617000000000000000000000000000000000000000000000000000000000",
          "blockHash": "0x5177a9f2adfeb00f59f75620c1713469a0c8948f955e7dda11a3767aa57f4474",
          "blockNumber": "0xa41a",
          "blockTimestamp": "0x69d0b63d",
          "transactionHash": "0x6159776a845cc0b69eb110ec70bad86e7c5cfd0cd399b58807e00522f56eb0cb",
          "transactionIndex": "0x1a",
          "logIndex": "0x15",
          "removed": false
        }
      ],
      "logsBloom": "0x00000000000000000000000200000000100000000000000000000000000000000000000000000000000000000000000000000000000000000000000000000000000000000000000000004000000000000800080000000000000000000000000000000000000000000000000000000000000000020000000000000000000000000000000000000000000000000000000000000000000000000000000000000000000000000000000000000000000000000000000000000000000000000000000000000000000000000000000000000000000000001000000000000000000000000000000000000000000000000000000000000000000000000000000000000202",
      "type": "0x2",
      "transactionHash": "0x6159776a845cc0b69eb110ec70bad86e7c5cfd0cd399b58807e00522f56eb0cb",
      "transactionIndex": "0x1a",
      "blockHash": "0x5177a9f2adfeb00f59f75620c1713469a0c8948f955e7dda11a3767aa57f4474",
      "blockNumber": "0xa41a",
      "gasUsed": "0x15a07",
      "effectiveGasPrice": "0x8",
      "blobGasPrice": "0x1",
      "from": "0xf39fd6e51aad88f6f4ce6ab8827279cfffb92266",
      "to": "0xa9d0fb5837f9c42c874e16da96094b14af0e2784",
      "contractAddress": null,
      "blockTimestamp": 1775285821
    },
    {
      "status": "0x1",
      "cumulativeGasUsed": "0x668511",
      "logs": [
        {
          "address": "0xa9d0fb5837f9c42c874e16da96094b14af0e2784",
          "topics": [
            "0xe569346dc44a549a2dba8bdb890e3ad5f8b19481c95faf552e6c4684f90f369c",
            "0x0000000000000000000000000000000000000000000000000000000000001005"
          ],
          "data": "0x0000000000000000000000000000000000000000000000000000000000000080000000000000000000000000000000000000000000000001158e460913d0000000000000000000000000000000000000000000000000000000d529ae9e86000000000000000000000000000000000000000000000000000000470c133637e00000000000000000000000000000000000000000000000000000000000000000047377617000000000000000000000000000000000000000000000000000000000",
          "blockHash": "0x5177a9f2adfeb00f59f75620c1713469a0c8948f955e7dda11a3767aa57f4474",
          "blockNumber": "0xa41a",
          "blockTimestamp": "0x69d0b63d",
          "transactionHash": "0x6016da8b6c0fdefcfbbe297d405683decd2d3aa42ef23f8598dd49b03932cb8e",
          "transactionIndex": "0x1b",
          "logIndex": "0x16",
          "removed": false
        }
      ],
      "logsBloom": "0x00000000000000000000000200000000100000000000000000000000000000000000000000000000000000000000000000000000000000000000000000000000000000000000000000004000000000000800080000000000000000000000000000000000000000000000000000000000000000020000000000000000000000000000000000000000000000000000000000000000000000000000000000000000000000000000000000000000000000000000000000000000000000000000000000000000000000000000000000000000000000001000000000000000000000000000000000000000000000000000000000000000000000000000000000000202",
      "type": "0x2",
      "transactionHash": "0x6016da8b6c0fdefcfbbe297d405683decd2d3aa42ef23f8598dd49b03932cb8e",
      "transactionIndex": "0x1b",
      "blockHash": "0x5177a9f2adfeb00f59f75620c1713469a0c8948f955e7dda11a3767aa57f4474",
      "blockNumber": "0xa41a",
      "gasUsed": "0x15a07",
      "effectiveGasPrice": "0x8",
      "blobGasPrice": "0x1",
      "from": "0xf39fd6e51aad88f6f4ce6ab8827279cfffb92266",
      "to": "0xa9d0fb5837f9c42c874e16da96094b14af0e2784",
      "contractAddress": null,
      "blockTimestamp": 1775285821
    },
    {
      "status": "0x1",
      "cumulativeGasUsed": "0x67df18",
      "logs": [
        {
          "address": "0xa9d0fb5837f9c42c874e16da96094b14af0e2784",
          "topics": [
            "0xe569346dc44a549a2dba8bdb890e3ad5f8b19481c95faf552e6c4684f90f369c",
            "0x0000000000000000000000000000000000000000000000000000000000001005"
          ],
          "data": "0x0000000000000000000000000000000000000000000000000000000000000080000000000000000000000000000000000000000000000001158e460913d0000000000000000000000000000000000000000000000000000000d529ae9e86000000000000000000000000000000000000000000000000000000470c133637e00000000000000000000000000000000000000000000000000000000000000000047377617000000000000000000000000000000000000000000000000000000000",
          "blockHash": "0x5177a9f2adfeb00f59f75620c1713469a0c8948f955e7dda11a3767aa57f4474",
          "blockNumber": "0xa41a",
          "blockTimestamp": "0x69d0b63d",
          "transactionHash": "0xbabeef73205906280fc85d470f826aa46eecb20fecd62284f06dc0b4247b0890",
          "transactionIndex": "0x1c",
          "logIndex": "0x17",
          "removed": false
        }
      ],
      "logsBloom": "0x00000000000000000000000200000000100000000000000000000000000000000000000000000000000000000000000000000000000000000000000000000000000000000000000000004000000000000800080000000000000000000000000000000000000000000000000000000000000000020000000000000000000000000000000000000000000000000000000000000000000000000000000000000000000000000000000000000000000000000000000000000000000000000000000000000000000000000000000000000000000000001000000000000000000000000000000000000000000000000000000000000000000000000000000000000202",
      "type": "0x2",
      "transactionHash": "0xbabeef73205906280fc85d470f826aa46eecb20fecd62284f06dc0b4247b0890",
      "transactionIndex": "0x1c",
      "blockHash": "0x5177a9f2adfeb00f59f75620c1713469a0c8948f955e7dda11a3767aa57f4474",
      "blockNumber": "0xa41a",
      "gasUsed": "0x15a07",
      "effectiveGasPrice": "0x8",
      "blobGasPrice": "0x1",
      "from": "0xf39fd6e51aad88f6f4ce6ab8827279cfffb92266",
      "to": "0xa9d0fb5837f9c42c874e16da96094b14af0e2784",
      "contractAddress": null,
      "blockTimestamp": 1775285821
    },
    {
      "status": "0x1",
      "cumulativeGasUsed": "0x69391f",
      "logs": [
        {
          "address": "0xa9d0fb5837f9c42c874e16da96094b14af0e2784",
          "topics": [
            "0xe569346dc44a549a2dba8bdb890e3ad5f8b19481c95faf552e6c4684f90f369c",
            "0x0000000000000000000000000000000000000000000000000000000000001005"
          ],
          "data": "0x0000000000000000000000000000000000000000000000000000000000000080000000000000000000000000000000000000000000000001158e460913d0000000000000000000000000000000000000000000000000000000d529ae9e86000000000000000000000000000000000000000000000000000000470c133637e00000000000000000000000000000000000000000000000000000000000000000047377617000000000000000000000000000000000000000000000000000000000",
          "blockHash": "0x5177a9f2adfeb00f59f75620c1713469a0c8948f955e7dda11a3767aa57f4474",
          "blockNumber": "0xa41a",
          "blockTimestamp": "0x69d0b63d",
          "transactionHash": "0xb27998fc541e294f012109c3efb75b90650adba29b751be423be4151cdce2698",
          "transactionIndex": "0x1d",
          "logIndex": "0x18",
          "removed": false
        }
      ],
      "logsBloom": "0x00000000000000000000000200000000100000000000000000000000000000000000000000000000000000000000000000000000000000000000000000000000000000000000000000004000000000000800080000000000000000000000000000000000000000000000000000000000000000020000000000000000000000000000000000000000000000000000000000000000000000000000000000000000000000000000000000000000000000000000000000000000000000000000000000000000000000000000000000000000000000001000000000000000000000000000000000000000000000000000000000000000000000000000000000000202",
      "type": "0x2",
      "transactionHash": "0xb27998fc541e294f012109c3efb75b90650adba29b751be423be4151cdce2698",
      "transactionIndex": "0x1d",
      "blockHash": "0x5177a9f2adfeb00f59f75620c1713469a0c8948f955e7dda11a3767aa57f4474",
      "blockNumber": "0xa41a",
      "gasUsed": "0x15a07",
      "effectiveGasPrice": "0x8",
      "blobGasPrice": "0x1",
      "from": "0xf39fd6e51aad88f6f4ce6ab8827279cfffb92266",
      "to": "0xa9d0fb5837f9c42c874e16da96094b14af0e2784",
      "contractAddress": null,
      "blockTimestamp": 1775285821
    },
    {
      "status": "0x1",
      "cumulativeGasUsed": "0x6a9326",
      "logs": [
        {
          "address": "0xa9d0fb5837f9c42c874e16da96094b14af0e2784",
          "topics": [
            "0xe569346dc44a549a2dba8bdb890e3ad5f8b19481c95faf552e6c4684f90f369c",
            "0x0000000000000000000000000000000000000000000000000000000000001005"
          ],
          "data": "0x0000000000000000000000000000000000000000000000000000000000000080000000000000000000000000000000000000000000000001158e460913d0000000000000000000000000000000000000000000000000000000d529ae9e86000000000000000000000000000000000000000000000000000000470c133637e00000000000000000000000000000000000000000000000000000000000000000047377617000000000000000000000000000000000000000000000000000000000",
          "blockHash": "0x5177a9f2adfeb00f59f75620c1713469a0c8948f955e7dda11a3767aa57f4474",
          "blockNumber": "0xa41a",
          "blockTimestamp": "0x69d0b63d",
          "transactionHash": "0xa26e4c1dedfb016477536793b63d1ce75b89de0439bdf6fdce816e95e75b3ab2",
          "transactionIndex": "0x1e",
          "logIndex": "0x19",
          "removed": false
        }
      ],
      "logsBloom": "0x00000000000000000000000200000000100000000000000000000000000000000000000000000000000000000000000000000000000000000000000000000000000000000000000000004000000000000800080000000000000000000000000000000000000000000000000000000000000000020000000000000000000000000000000000000000000000000000000000000000000000000000000000000000000000000000000000000000000000000000000000000000000000000000000000000000000000000000000000000000000000001000000000000000000000000000000000000000000000000000000000000000000000000000000000000202",
      "type": "0x2",
      "transactionHash": "0xa26e4c1dedfb016477536793b63d1ce75b89de0439bdf6fdce816e95e75b3ab2",
      "transactionIndex": "0x1e",
      "blockHash": "0x5177a9f2adfeb00f59f75620c1713469a0c8948f955e7dda11a3767aa57f4474",
      "blockNumber": "0xa41a",
      "gasUsed": "0x15a07",
      "effectiveGasPrice": "0x8",
      "blobGasPrice": "0x1",
      "from": "0xf39fd6e51aad88f6f4ce6ab8827279cfffb92266",
      "to": "0xa9d0fb5837f9c42c874e16da96094b14af0e2784",
      "contractAddress": null,
      "blockTimestamp": 1775285821
    },
    {
      "status": "0x1",
      "cumulativeGasUsed": "0x6bed2d",
      "logs": [
        {
          "address": "0xa9d0fb5837f9c42c874e16da96094b14af0e2784",
          "topics": [
            "0xe569346dc44a549a2dba8bdb890e3ad5f8b19481c95faf552e6c4684f90f369c",
            "0x0000000000000000000000000000000000000000000000000000000000001005"
          ],
          "data": "0x0000000000000000000000000000000000000000000000000000000000000080000000000000000000000000000000000000000000000001158e460913d0000000000000000000000000000000000000000000000000000000d529ae9e86000000000000000000000000000000000000000000000000000000470c133637e00000000000000000000000000000000000000000000000000000000000000000047377617000000000000000000000000000000000000000000000000000000000",
          "blockHash": "0x5177a9f2adfeb00f59f75620c1713469a0c8948f955e7dda11a3767aa57f4474",
          "blockNumber": "0xa41a",
          "blockTimestamp": "0x69d0b63d",
          "transactionHash": "0xa86bbcbb308755f4a27c125ce0850fcc5eeaf4793d63da9d4aa40c02db18a676",
          "transactionIndex": "0x1f",
          "logIndex": "0x1a",
          "removed": false
        }
      ],
      "logsBloom": "0x00000000000000000000000200000000100000000000000000000000000000000000000000000000000000000000000000000000000000000000000000000000000000000000000000004000000000000800080000000000000000000000000000000000000000000000000000000000000000020000000000000000000000000000000000000000000000000000000000000000000000000000000000000000000000000000000000000000000000000000000000000000000000000000000000000000000000000000000000000000000000001000000000000000000000000000000000000000000000000000000000000000000000000000000000000202",
      "type": "0x2",
      "transactionHash": "0xa86bbcbb308755f4a27c125ce0850fcc5eeaf4793d63da9d4aa40c02db18a676",
      "transactionIndex": "0x1f",
      "blockHash": "0x5177a9f2adfeb00f59f75620c1713469a0c8948f955e7dda11a3767aa57f4474",
      "blockNumber": "0xa41a",
      "gasUsed": "0x15a07",
      "effectiveGasPrice": "0x8",
      "blobGasPrice": "0x1",
      "from": "0xf39fd6e51aad88f6f4ce6ab8827279cfffb92266",
      "to": "0xa9d0fb5837f9c42c874e16da96094b14af0e2784",
      "contractAddress": null,
      "blockTimestamp": 1775285821
    },
    {
      "status": "0x1",
      "cumulativeGasUsed": "0x6e0fc8",
      "logs": [
        {
          "address": "0xa9d0fb5837f9c42c874e16da96094b14af0e2784",
          "topics": [
            "0xe569346dc44a549a2dba8bdb890e3ad5f8b19481c95faf552e6c4684f90f369c",
            "0x0000000000000000000000000000000000000000000000000000000000001005"
          ],
          "data": "0x0000000000000000000000000000000000000000000000000000000000000080000000000000000000000000000000000000000000000002b5e3af16b18800000000000000000000000000000000000000000000000000000214e8348c4f000000000000000000000000000000000000000000000000000000b19e30078bb00000000000000000000000000000000000000000000000000000000000000000077072656469637400000000000000000000000000000000000000000000000000",
          "blockHash": "0x5177a9f2adfeb00f59f75620c1713469a0c8948f955e7dda11a3767aa57f4474",
          "blockNumber": "0xa41a",
          "blockTimestamp": "0x69d0b63d",
          "transactionHash": "0x764d06e1f484d6e4e0316be00650c9c16396c0d25507b62f3cf10fcaa4c307ed",
          "transactionIndex": "0x20",
          "logIndex": "0x1b",
          "removed": false
        }
      ],
      "logsBloom": "0x00000000000000000000000200000000100000000000000000000000000000000000000000000000000000000000000000000000000000000000000000000000000000000000000000004000000000000800080000000000000000000000000000000000000000000000000000000000000000020000000000000000000000000000000000000000000000000000000000000000000000000000000000000000000000000000000000000000000000000000000000000000000000000000000000000000000000000000000000000000000000001000000000000000000000000000000000000000000000000000000000000000000000000000000000000202",
      "type": "0x2",
      "transactionHash": "0x764d06e1f484d6e4e0316be00650c9c16396c0d25507b62f3cf10fcaa4c307ed",
      "transactionIndex": "0x20",
      "blockHash": "0x5177a9f2adfeb00f59f75620c1713469a0c8948f955e7dda11a3767aa57f4474",
      "blockNumber": "0xa41a",
      "gasUsed": "0x2229b",
      "effectiveGasPrice": "0x8",
      "blobGasPrice": "0x1",
      "from": "0xf39fd6e51aad88f6f4ce6ab8827279cfffb92266",
      "to": "0xa9d0fb5837f9c42c874e16da96094b14af0e2784",
      "contractAddress": null,
      "blockTimestamp": 1775285821
    },
    {
      "status": "0x1",
      "cumulativeGasUsed": "0x6ee01d",
      "logs": [],
      "logsBloom": "0x00000000000000000000000000000000000000000000000000000000000000000000000000000000000000000000000000000000000000000000000000000000000000000000000000000000000000000000000000000000000000000000000000000000000000000000000000000000000000000000000000000000000000000000000000000000000000000000000000000000000000000000000000000000000000000000000000000000000000000000000000000000000000000000000000000000000000000000000000000000000000000000000000000000000000000000000000000000000000000000000000000000000000000000000000000000",
      "type": "0x2",
      "transactionHash": "0x6f64050aaecad4215fe0702eb35bff2989265ec20f2153f7b8f67b15642f023a",
      "transactionIndex": "0x21",
      "blockHash": "0x5177a9f2adfeb00f59f75620c1713469a0c8948f955e7dda11a3767aa57f4474",
      "blockNumber": "0xa41a",
      "gasUsed": "0xd055",
      "effectiveGasPrice": "0x8",
      "blobGasPrice": "0x1",
      "from": "0xf39fd6e51aad88f6f4ce6ab8827279cfffb92266",
      "to": "0xa9d0fb5837f9c42c874e16da96094b14af0e2784",
      "contractAddress": null,
      "blockTimestamp": 1775285821
    }
  ],
  "libraries": [],
  "pending": [],
  "returns": {},
  "timestamp": 1775285471266,
  "chain": 42069,
  "commit": "3e150b4"
}