{
  "transactions": [
    {
      "hash": "0x5706332645335a8830ab5f0099ca0c382c503fb7e03605ce2bd326d53a7e74ae",
      "transactionType": "CALL",
      "contractName": null,
      "contractAddress": "0x0165878a594ca255338adfa4d48449f69242eb8f",
      "function": "setManualPrice(string,uint256,bool)",
      "arguments": [
        "SOL",
        "18000000000",
        "true"
      ],
      "transaction": {
        "from": "0xf39fd6e51aad88f6f4ce6ab8827279cfffb92266",
        "to": "0x0165878a594ca255338adfa4d48449f69242eb8f",
        "gas": "0x18203",
        "value": "0x0",
        "input": "0x953dc87e00000000000000000000000000000000000000000000000000000000000000600000000000000000000000000000000000000000000000000000000430e2340000000000000000000000000000000000000000000000000000000000000000010000000000000000000000000000000000000000000000000000000000000003534f4c0000000000000000000000000000000000000000000000000000000000",
        "nonce": "0x1d0",
        "chainId": "0xa455"
      },
      "additionalContracts": [],
      "isFixedGasLimit": false
    },
    {
      "hash": "0x2f01313089e4607f968065fc781902d53d27c8ae6d7477eefbf2060e4e20d788",
      "transactionType": "CALL",
      "contractName": null,
      "contractAddress": "0x0165878a594ca255338adfa4d48449f69242eb8f",
      "function": "setManualPrice(string,uint256,bool)",
      "arguments": [
        "BNB",
        "60000000000",
        "true"
      ],
      "transaction": {
        "from": "0xf39fd6e51aad88f6f4ce6ab8827279cfffb92266",
        "to": "0x0165878a594ca255338adfa4d48449f69242eb8f",
        "gas": "0x18203",
        "value": "0x0",
        "input": "0x953dc87e00000000000000000000000000000000000000000000000000000000000000600000000000000000000000000000000000000000000000000000000df847580000000000000000000000000000000000000000000000000000000000000000010000000000000000000000000000000000000000000000000000000000000003424e420000000000000000000000000000000000000000000000000000000000",
        "nonce": "0x1d1",
        "chainId": "0xa455"
      },
      "additionalContracts": [],
      "isFixedGasLimit": false
    },
    {
      "hash": "0x9d8a80bb62cfa7d0484e7717151893d6dba2d006b6356e06bcb0cca4cdac53fe",
      "transactionType": "CALL",
      "contractName": null,
      "contractAddress": "0x0165878a594ca255338adfa4d48449f69242eb8f",
      "function": "setManualPrice(string,uint256,bool)",
      "arguments": [
        "MATIC",
        "90000000",
        "true"
      ],
      "transaction": {
        "from": "0xf39fd6e51aad88f6f4ce6ab8827279cfffb92266",
        "to": "0x0165878a594ca255338adfa4d48449f69242eb8f",
        "gas": "0x18225",
        "value": "0x0",
        "input": "0x953dc87e000000000000000000000000000000000000000000000000000000000000006000000000000000000000000000000000000000000000000000000000055d4a80000000000000000000000000000000000000000000000000000000000000000100000000000000000000000000000000000000000000000000000000000000054d41544943000000000000000000000000000000000000000000000000000000",
        "nonce": "0x1d2",
        "chainId": "0xa455"
      },
      "additionalContracts": [],
      "isFixedGasLimit": false
    },
    {
      "hash": "0x3b9a35e8a28f377cbcdb0cf2f95233f9f2293383ed7eedd691b9bfb16620ec4b",
      "transactionType": "CALL",
      "contractName": null,
      "contractAddress": "0x0165878a594ca255338adfa4d48449f69242eb8f",
      "function": "setManualPrice(string,uint256,bool)",
      "arguments": [
        "ARB",
        "120000000",
        "true"
      ],
      "transaction": {
        "from": "0xf39fd6e51aad88f6f4ce6ab8827279cfffb92266",
        "to": "0x0165878a594ca255338adfa4d48449f69242eb8f",
        "gas": "0x181f2",
        "value": "0x0",
        "input": "0x953dc87e00000000000000000000000000000000000000000000000000000000000000600000000000000000000000000000000000000000000000000000000007270e00000000000000000000000000000000000000000000000000000000000000000100000000000000000000000000000000000000000000000000000000000000034152420000000000000000000000000000000000000000000000000000000000",
        "nonce": "0x1d3",
        "chainId": "0xa455"
      },
      "additionalContracts": [],
      "isFixedGasLimit": false
    }
  ],
  "receipts": [
    {
      "status": "0x1",
      "cumulativeGasUsed": "0x11778",
      "logs": [
        {
          "address": "0x0165878a594ca255338adfa4d48449f69242eb8f",
          "topics": [
            "0xd78ddf5dda09409c5ba0a349a6c0149840d265112fa302b34dc3b322e7f675bc",
            "0x0a3ec4fc70eaf64faf6eeda4e9b2bd4742a785464053aa23afad8bd24650e86f"
          ],
          "data": "0x0000000000000000000000000000000000000000000000000000000430e23400",
          "blockHash": "0x968c758afa7b8d3b74f3616fd77e4ba9dba153882c1fbd64c8d8745cc2e37f12",
          "blockNumber": "0xbea0",
          "blockTimestamp": "0x69d0eb54",
          "transactionHash": "0x5706332645335a8830ab5f0099ca0c382c503fb7e03605ce2bd326d53a7e74ae",
          "transactionIndex": "0x0",
          "logIndex": "0x0",
          "removed": false
        }
      ],
      "logsBloom": "0x00000000000000000000000000000000000000000000000000000000000000000000000000000002000000000000000000000000000000000000000000000000001000000000000000000000000000000000000000000000000000000000000000000000000000000000000000000000000000000000000000000000000000040000000000000000000000000000000000000000000000000000000000000000000000000000001000000000000000000000000000000000000000000000000000000004000000000000000000000000000008000000000000000000000040000000000000000000000000000000000400000000000000000000000020000000",
      "type": "0x0",
      "transactionHash": "0x5706332645335a8830ab5f0099ca0c382c503fb7e03605ce2bd326d53a7e74ae",
      "transactionIndex": "0x0",
      "blockHash": "0x968c758afa7b8d3b74f3616fd77e4ba9dba153882c1fbd64c8d8745cc2e37f12",
      "blockNumber": "0xbea0",
      "gasUsed": "0x11778",
      "effectiveGasPrice": "0x3b9aca07",
      "blobGasPrice": "0x1",
      "from": "0xf39fd6e51aad88f6f4ce6ab8827279cfffb92266",
      "to": "0x0165878a594ca255338adfa4d48449f69242eb8f",
      "contractAddress": null,
      "blockTimestamp": 1775299412
    },
    {
      "status": "0x1",
      "cumulativeGasUsed": "0x22ef0",
      "logs": [
        {
          "address": "0x0165878a594ca255338adfa4d48449f69242eb8f",
          "topics": [
            "0xd78ddf5dda09409c5ba0a349a6c0149840d265112fa302b34dc3b322e7f675bc",
            "0x3ed03c38e59dc60c7b69c2a4bf68f9214acd953252b5a90e8f5f59583e9bc3ae"
          ],
          "data": "0x0000000000000000000000000000000000000000000000000000000df8475800",
          "blockHash": "0x968c758afa7b8d3b74f3616fd77e4ba9dba153882c1fbd64c8d8745cc2e37f12",
          "blockNumber": "0xbea0",
          "blockTimestamp": "0x69d0eb54",
          "transactionHash": "0x2f01313089e4607f968065fc781902d53d27c8ae6d7477eefbf2060e4e20d788",
          "transactionIndex": "0x1",
          "logIndex": "0x1",
          "removed": false
        }
      ],
      "logsBloom": "0x00000000000000000000000000000000000000000000000000000000000000000000000000000000000100000000000000000000000000000000000000000000001000000000000000000000000000000000000000000000000000000000000000000000000000000000000000000000000000000000000000000000000000040020000000000000000000000000000000000000000000000000000000008000000000000000001000000000000000000000000000000000000000000000000000000004000000000000000000000000000000000000000000000000000000000000000000000000000000000000000400000000000000000000000020000000",
      "type": "0x0",
      "transactionHash": "0x2f01313089e4607f968065fc781902d53d27c8ae6d7477eefbf2060e4e20d788",
      "transactionIndex": "0x1",
      "blockHash": "0x968c758afa7b8d3b74f3616fd77e4ba9dba153882c1fbd64c8d8745cc2e37f12",
      "blockNumber": "0xbea0",
      "gasUsed": "0x11778",
      "effectiveGasPrice": "0x3b9aca07",
      "blobGasPrice": "0x1",
      "from": "0xf39fd6e51aad88f6f4ce6ab8827279cfffb92266",
      "to": "0x0165878a594ca255338adfa4d48449f69242eb8f",
      "contractAddress": null,
      "blockTimestamp": 1775299412
    },
    {
      "status": "0x1",
      "cumulativeGasUsed": "0x34680",
      "logs": [
        {
          "address": "0x0165878a594ca255338adfa4d48449f69242eb8f",
          "topics": [
            "0xd78ddf5dda09409c5ba0a349a6c0149840d265112fa302b34dc3b322e7f675bc",
            "0xa6a7de01e8b7ba6a4a61c782a73188d808fc1f3cf5743fadb68a02ed884b594f"
          ],
          "data": "0x00000000000000000000000000000000000000000000000000000000055d4a80",
          "blockHash": "0x968c758afa7b8d3b74f3616fd77e4ba9dba153882c1fbd64c8d8745cc2e37f12",
          "blockNumber": "0xbea0",
          "blockTimestamp": "0x69d0eb54",
          "transactionHash": "0x9d8a80bb62cfa7d0484e7717151893d6dba2d006b6356e06bcb0cca4cdac53fe",
          "transactionIndex": "0x2",
          "logIndex": "0x2",
          "removed": false
        }
      ],
      "logsBloom": "0x00000000000000000000000000000000000000000000000000000000000000000000000000000000000000000000000000000000000000000000000000000000001000000000000000000000000000000000000000000000000000000000400000000000000000000000000000000000000000000000000000000040000000040000000000000000000000000000000000000000000000000000000000000000000000000000001000000000000000000000000000000000000000000000000000000004000000000000000000010000000000000000000000000000000000000000000000000000000000000000000400000000000000000000000020000000",
      "type": "0x0",
      "transactionHash": "0x9d8a80bb62cfa7d0484e7717151893d6dba2d006b6356e06bcb0cca4cdac53fe",
      "transactionIndex": "0x2",
      "blockHash": "0x968c758afa7b8d3b74f3616fd77e4ba9dba153882c1fbd64c8d8745cc2e37f12",
      "blockNumber": "0xbea0",
      "gasUsed": "0x11790",
      "effectiveGasPrice": "0x3b9aca07",
      "blobGasPrice": "0x1",
      "from": "0xf39fd6e51aad88f6f4ce6ab8827279cfffb92266",
      "to": "0x0165878a594ca255338adfa4d48449f69242eb8f",
      "contractAddress": null,
      "blockTimestamp": 1775299412
    },
    {
      "status": "0x1",
      "cumulativeGasUsed": "0x45dec",
      "logs": [
        {
          "address": "0x0165878a594ca255338adfa4d48449f69242eb8f",
          "topics": [
            "0xd78ddf5dda09409c5ba0a349a6c0149840d265112fa302b34dc3b322e7f675bc",
            "0xc07524b7a4eecc2784fc7ac17ff2730f877f3cf7a2ceb4e2375fa40a103115d0"
          ],
          "data": "0x0000000000000000000000000000000000000000000000000000000007270e00",
          "blockHash": "0x968c758afa7b8d3b74f3616fd77e4ba9dba153882c1fbd64c8d8745cc2e37f12",
          "blockNumber": "0xbea0",
          "blockTimestamp": "0x69d0eb54",
          "transactionHash": "0x3b9a35e8a28f377cbcdb0cf2f95233f9f2293383ed7eedd691b9bfb16620ec4b",
          "transactionIndex": "0x3",
          "logIndex": "0x3",
          "removed": false
        }
      ],
      "logsBloom": "0x00000000000000000000000000000000000000000000000000000000000000000000000000000000000000000000000000000000000000000000000000000000001000000000000000000000000000000000000000000000000000000000000000000000000000000000000000000000000000000000000000000000000000040000000000000000000000000000000000000000000000000000004000000000000000000000001000000000000000000000000000000000002000000000000000000004000000000000000000000000000000000000080000000000000000000000000000000000000000000000000400000000000000000000000020000000",
      "type": "0x0",
      "transactionHash": "0x3b9a35e8a28f377cbcdb0cf2f95233f9f2293383ed7eedd691b9bfb16620ec4b",
      "transactionIndex": "0x3",
      "blockHash": "0x968c758afa7b8d3b74f3616fd77e4ba9dba153882c1fbd64c8d8745cc2e37f12",
      "blockNumber": "0xbea0",
      "gasUsed": "0x1176c",
      "effectiveGasPrice": "0x3b9aca07",
      "blobGasPrice": "0x1",
      "from": "0xf39fd6e51aad88f6f4ce6ab8827279cfffb92266",
      "to": "0x0165878a594ca255338adfa4d48449f69242eb8f",
      "contractAddress": null,
      "blockTimestamp": 1775299412
    }
  ],
  "libraries": [],
  "pending": [],
  "returns": {},
  "timestamp": 1775299063959,
  "chain": 42069,
  "commit": "05ca969"
}