{
  "transactions": [
    {
      "hash": "0xeacb918b1179f9cc96c4cdf7ce1fb0fed82b5934ecfc0c1c026dc8ef32064b7f",
      "transactionType": "CREATE",
      "contractName": "MockWETH18",
      "contractAddress": "0x7314aeec874a25a1131f49da9679d05f8d931175",
      "function": null,
      "arguments": null,
      "transaction": {
        "from": "0xf39fd6e51aad88f6f4ce6ab8827279cfffb92266",
        "gas": "0x76052",
        "value": "0x0",
        "input": "0x608080604052346015576105c2908161001a8239f35b5f80fdfe60806040526004361015610011575f80fd5b5f3560e01c806306fdde0314610459578063095ea7b3146103e057806318160ddd146103c457806323b872dd1461028e578063313ce5671461027357806340c10f191461020e57806370a08231146101d657806395d89b411461016f578063a9059cbb146100db5763dd62ed3e14610087575f80fd5b346100d75760403660031901126100d7576100a06104d7565b6100a86104ed565b6001600160a01b039182165f908152600260209081526040808320949093168252928352819020549051908152f35b5f80fd5b346100d75760403660031901126100d7576100f46104d7565b60243590335f5260016020526101108260405f20541015610524565b335f52600160205260405f20610127838254610503565b905560018060a01b031690815f52600160205260405f2061014982825461055f565b90556040519081525f51602061056d5f395f51905f5260203392a3602060405160018152f35b346100d7575f3660031901126100d757604051604081019080821067ffffffffffffffff8311176101c2576101be9160405260048152630ae8aa8960e31b6020820152604051918291826104ad565b0390f35b634e487b7160e01b5f52604160045260245ffd5b346100d75760203660031901126100d7576001600160a01b036101f76104d7565b165f526001602052602060405f2054604051908152f35b346100d75760403660031901126100d7576102276104d7565b5f5f51602061056d5f395f51905f5260206024359361024785855461055f565b845560018060a01b031693848452600182526040842061026882825461055f565b9055604051908152a3005b346100d7575f3660031901126100d757602060405160128152f35b346100d75760603660031901126100d7576102a76104d7565b6102af6104ed565b6001600160a01b039091165f818152600260209081526040808320338452909152902054604435929060018101610355575b5060205f51602061056d5f395f51905f5291835f526001825261030a8560405f20541015610524565b835f526001825260405f20610320868254610503565b905560018060a01b031693845f526001825260405f2061034182825461055f565b9055604051908152a3602060405160018152f35b838110610393575f51602061056d5f395f51905f529161037785602093610503565b5f858152600284526040808220338352855290205591506102e1565b60405162461bcd60e51b8152602060048201526009602482015268616c6c6f77616e636560b81b6044820152606490fd5b346100d7575f3660031901126100d75760205f54604051908152f35b346100d75760403660031901126100d7576103f96104d7565b335f8181526002602090815260408083206001600160a01b03909516808452948252918290206024359081905591519182527f8c5be1e5ebec7d5bd14f71427d1e84f3dd0314c0f7b2291e5b200ac8c7c3b92591a3602060405160018152f35b346100d7575f3660031901126100d757604051604081019080821067ffffffffffffffff8311176101c2576101be91604052600d81526c2bb930b83832b21022ba3432b960991b6020820152604051918291825b602060409281835280519182918282860152018484015e5f828201840152601f01601f1916010190565b600435906001600160a01b03821682036100d757565b602435906001600160a01b03821682036100d757565b9190820391821161051057565b634e487b7160e01b5f52601160045260245ffd5b1561052b57565b60405162461bcd60e51b815260206004820152600c60248201526b1a5b9cdd59999a58da595b9d60a21b6044820152606490fd5b919082018092116105105756feddf252ad1be2c89b69c2b068fc378daa952ba7f163c4a11628f55a4df523b3efa2646970667358221220ba8488f5df0109b81abd39461de6de35e19fcc92d4ce54eca61b6114ec3917f164736f6c63430008210033",
        "nonce": "0x3e6",
        "chainId": "0xa455"
      },
      "additionalContracts": [],
      "isFixedGasLimit": false
    },
    {
      "hash": "0xc6a2b386813ea2d3b7aa482ad412be1da1f996cd9798afc06cd0e9979202a3da",
      "transactionType": "CREATE",
      "contractName": "MockUSDC6",
      "contractAddress": "0xd604c06206f6dedd82d42f90d1f5bb34a2e7c5dd",
      "function": null,
      "arguments": null,
      "transaction": {
        "from": "0xf39fd6e51aad88f6f4ce6ab8827279cfffb92266",
        "gas": "0x75acd",
        "value": "0x0",
        "input": "0x608080604052346015576105bd908161001a8239f35b5f80fdfe60806040526004361015610011575f80fd5b5f3560e01c806306fdde0314610459578063095ea7b3146103e057806318160ddd146103c457806323b872dd1461028e578063313ce5671461027357806340c10f191461020e57806370a08231146101d657806395d89b411461016f578063a9059cbb146100db5763dd62ed3e14610087575f80fd5b346100d75760403660031901126100d7576100a06104d2565b6100a86104e8565b6001600160a01b039182165f908152600260209081526040808320949093168252928352819020549051908152f35b5f80fd5b346100d75760403660031901126100d7576100f46104d2565b60243590335f5260016020526101108260405f2054101561051f565b335f52600160205260405f206101278382546104fe565b905560018060a01b031690815f52600160205260405f2061014982825461055a565b90556040519081525f5160206105685f395f51905f5260203392a3602060405160018152f35b346100d7575f3660031901126100d757604051604081019080821067ffffffffffffffff8311176101c2576101be9160405260048152635553444360e01b6020820152604051918291826104a8565b0390f35b634e487b7160e01b5f52604160045260245ffd5b346100d75760203660031901126100d7576001600160a01b036101f76104d2565b165f526001602052602060405f2054604051908152f35b346100d75760403660031901126100d7576102276104d2565b5f5f5160206105685f395f51905f5260206024359361024785855461055a565b845560018060a01b031693848452600182526040842061026882825461055a565b9055604051908152a3005b346100d7575f3660031901126100d757602060405160068152f35b346100d75760603660031901126100d7576102a76104d2565b6102af6104e8565b6001600160a01b039091165f818152600260209081526040808320338452909152902054604435929060018101610355575b5060205f5160206105685f395f51905f5291835f526001825261030a8560405f2054101561051f565b835f526001825260405f206103208682546104fe565b905560018060a01b031693845f526001825260405f2061034182825461055a565b9055604051908152a3602060405160018152f35b838110610393575f5160206105685f395f51905f5291610377856020936104fe565b5f858152600284526040808220338352855290205591506102e1565b60405162461bcd60e51b8152602060048201526009602482015268616c6c6f77616e636560b81b6044820152606490fd5b346100d7575f3660031901126100d75760205f54604051908152f35b346100d75760403660031901126100d7576103f96104d2565b335f8181526002602090815260408083206001600160a01b03909516808452948252918290206024359081905591519182527f8c5be1e5ebec7d5bd14f71427d1e84f3dd0314c0f7b2291e5b200ac8c7c3b92591a3602060405160018152f35b346100d7575f3660031901126100d757604051604081019080821067ffffffffffffffff8311176101c2576101be9160405260088152672aa9a21021b7b4b760c11b6020820152604051918291825b602060409281835280519182918282860152018484015e5f828201840152601f01601f1916010190565b600435906001600160a01b03821682036100d757565b602435906001600160a01b03821682036100d757565b9190820391821161050b57565b634e487b7160e01b5f52601160045260245ffd5b1561052657565b60405162461bcd60e51b815260206004820152600c60248201526b1a5b9cdd59999a58da595b9d60a21b6044820152606490fd5b9190820180921161050b5756feddf252ad1be2c89b69c2b068fc378daa952ba7f163c4a11628f55a4df523b3efa264697066735822122062c55f51925ba0b679756848bc45690a371139fe0d22ed4b31e068181a11ba5e64736f6c63430008210033",
        "nonce": "0x3e7",
        "chainId": "0xa455"
      },
      "additionalContracts": [],
      "isFixedGasLimit": false
    },
    {
      "hash": "0x851553bd46aa5f61eb7ee760d2b5fd86825a203b6f698f2c87626b1ac1ca53a5",
      "transactionType": "CREATE",
      "contractName": "MockGD18",
      "contractAddress": "0x132f7d9033b28b08cbc520e1cfd83c6da3abfa36",
      "function": null,
      "arguments": null,
      "transaction": {
        "from": "0xf39fd6e51aad88f6f4ce6ab8827279cfffb92266",
        "gas": "0x75acd",
        "value": "0x0",
        "input": "0x608080604052346015576105bd908161001a8239f35b5f80fdfe60806040526004361015610011575f80fd5b5f3560e01c806306fdde0314610457578063095ea7b3146103de57806318160ddd146103c257806323b872dd1461028c578063313ce5671461027157806340c10f191461020c57806370a08231146101d457806395d89b411461016f578063a9059cbb146100db5763dd62ed3e14610087575f80fd5b346100d75760403660031901126100d7576100a06104d2565b6100a86104e8565b6001600160a01b039182165f908152600260209081526040808320949093168252928352819020549051908152f35b5f80fd5b346100d75760403660031901126100d7576100f46104d2565b60243590335f5260016020526101108260405f2054101561051f565b335f52600160205260405f206101278382546104fe565b905560018060a01b031690815f52600160205260405f2061014982825461055a565b90556040519081525f5160206105685f395f51905f5260203392a3602060405160018152f35b346100d7575f3660031901126100d757604051604081019080821067ffffffffffffffff8311176101c0576101bc91604052600281526111c960f21b6020820152604051918291826104a8565b0390f35b634e487b7160e01b5f52604160045260245ffd5b346100d75760203660031901126100d7576001600160a01b036101f56104d2565b165f526001602052602060405f2054604051908152f35b346100d75760403660031901126100d7576102256104d2565b5f5f5160206105685f395f51905f5260206024359361024585855461055a565b845560018060a01b031693848452600182526040842061026682825461055a565b9055604051908152a3005b346100d7575f3660031901126100d757602060405160128152f35b346100d75760603660031901126100d7576102a56104d2565b6102ad6104e8565b6001600160a01b039091165f818152600260209081526040808320338452909152902054604435929060018101610353575b5060205f5160206105685f395f51905f5291835f52600182526103088560405f2054101561051f565b835f526001825260405f2061031e8682546104fe565b905560018060a01b031693845f526001825260405f2061033f82825461055a565b9055604051908152a3602060405160018152f35b838110610391575f5160206105685f395f51905f5291610375856020936104fe565b5f858152600284526040808220338352855290205591506102df565b60405162461bcd60e51b8152602060048201526009602482015268616c6c6f77616e636560b81b6044820152606490fd5b346100d7575f3660031901126100d75760205f54604051908152f35b346100d75760403660031901126100d7576103f76104d2565b335f8181526002602090815260408083206001600160a01b03909516808452948252918290206024359081905591519182527f8c5be1e5ebec7d5bd14f71427d1e84f3dd0314c0f7b2291e5b200ac8c7c3b92591a3602060405160018152f35b346100d7575f3660031901126100d757604051604081019080821067ffffffffffffffff8311176101c0576101bc91604052600a81526923b7b7b22237b63630b960b11b6020820152604051918291825b602060409281835280519182918282860152018484015e5f828201840152601f01601f1916010190565b600435906001600160a01b03821682036100d757565b602435906001600160a01b03821682036100d757565b9190820391821161050b57565b634e487b7160e01b5f52601160045260245ffd5b1561052657565b60405162461bcd60e51b815260206004820152600c60248201526b1a5b9cdd59999a58da595b9d60a21b6044820152606490fd5b9190820180921161050b5756feddf252ad1be2c89b69c2b068fc378daa952ba7f163c4a11628f55a4df523b3efa26469706673582212207619b0e5774db1d925b6780c614332107a8d9d29623bf1fbfe535bfd9547ab5c64736f6c63430008210033",
        "nonce": "0x3e8",
        "chainId": "0xa455"
      },
      "additionalContracts": [],
      "isFixedGasLimit": false
    },
    {
      "hash": "0x9fcda5234840f900487b2bed63a58d0e182f7d165caea2752df28b8a13f33037",
      "transactionType": "CREATE",
      "contractName": "MockPriceOracle",
      "contractAddress": "0xb719422a0a484025c1a22a8deeafc67e81f43cfd",
      "function": null,
      "arguments": null,
      "transaction": {
        "from": "0xf39fd6e51aad88f6f4ce6ab8827279cfffb92266",
        "gas": "0x1dca0",
        "value": "0x0",
        "input": "0x6080806040523460135760bb908160188239f35b5f80fdfe608060405260043610156010575f80fd5b5f3560e01c806310d8d74d14606157806331d98b3f146036576360846bc6146036575f80fd5b34605d576020366003190112605d576004355f525f602052602060405f2054604051908152f35b5f80fd5b34605d576040366003190112605d576004355f525f60205260243560405f20555f80f3fea264697066735822122066c3c2e74e1f1bfdf94b6b1237e0637f0a653641c0debf6d5da16c88035aa75664736f6c63430008210033",
        "nonce": "0x3e9",
        "chainId": "0xa455"
      },
      "additionalContracts": [],
      "isFixedGasLimit": false
    },
    {
      "hash": "0x3247dbec71384df2be846f52e9a65b393940aef4a4a379b496f67a4996f1404f",
      "transactionType": "CALL",
      "contractName": "MockPriceOracle",
      "contractAddress": "0xb719422a0a484025c1a22a8deeafc67e81f43cfd",
      "function": "setPrice(bytes32,uint256)",
      "arguments": [
        "0x4554480000000000000000000000000000000000000000000000000000000000",
        "2000000000000000000000"
      ],
      "transaction": {
        "from": "0xf39fd6e51aad88f6f4ce6ab8827279cfffb92266",
        "to": "0xb719422a0a484025c1a22a8deeafc67e81f43cfd",
        "gas": "0xf9df",
        "value": "0x0",
        "input": "0x10d8d74d455448000000000000000000000000000000000000000000000000000000000000000000000000000000000000000000000000000000006c6b935b8bbd400000",
        "nonce": "0x3ea",
        "chainId": "0xa455"
      },
      "additionalContracts": [],
      "isFixedGasLimit": false
    },
    {
      "hash": "0x9bf3182bf6bcf6b4582beac8f6cc8c633fccfb4da8cd070d0d6533793ae30f86",
      "transactionType": "CALL",
      "contractName": "MockPriceOracle",
      "contractAddress": "0xb719422a0a484025c1a22a8deeafc67e81f43cfd",
      "function": "setPrice(bytes32,uint256)",
      "arguments": [
        "0x4744000000000000000000000000000000000000000000000000000000000000",
        "1000000000000000"
      ],
      "transaction": {
        "from": "0xf39fd6e51aad88f6f4ce6ab8827279cfffb92266",
        "to": "0xb719422a0a484025c1a22a8deeafc67e81f43cfd",
        "gas": "0xf9bc",
        "value": "0x0",
        "input": "0x10d8d74d474400000000000000000000000000000000000000000000000000000000000000000000000000000000000000000000000000000000000000038d7ea4c68000",
        "nonce": "0x3eb",
        "chainId": "0xa455"
      },
      "additionalContracts": [],
      "isFixedGasLimit": false
    },
    {
      "hash": "0x724b2ea85acd110bb6568be0bc4dc2f4430db79f01bbcf37e4ad8f52c341ff69",
      "transactionType": "CALL",
      "contractName": "MockPriceOracle",
      "contractAddress": "0xb719422a0a484025c1a22a8deeafc67e81f43cfd",
      "function": "setPrice(bytes32,uint256)",
      "arguments": [
        "0x5553444300000000000000000000000000000000000000000000000000000000",
        "1000000000000000000"
      ],
      "transaction": {
        "from": "0xf39fd6e51aad88f6f4ce6ab8827279cfffb92266",
        "to": "0xb719422a0a484025c1a22a8deeafc67e81f43cfd",
        "gas": "0xf9df",
        "value": "0x0",
        "input": "0x10d8d74d55534443000000000000000000000000000000000000000000000000000000000000000000000000000000000000000000000000000000000de0b6b3a7640000",
        "nonce": "0x3ec",
        "chainId": "0xa455"
      },
      "additionalContracts": [],
      "isFixedGasLimit": false
    },
    {
      "hash": "0xa391fb7d5f15e373707db99701bdeea0528d5bf2495b3372759fa097e866ba9f",
      "transactionType": "CREATE",
      "contractName": "gUSD",
      "contractAddress": "0x6b99600dad0a1998337357696827381d122825f3",
      "function": null,
      "arguments": [
        "0xf39Fd6e51aad88F6F4ce6aB8827279cffFb92266"
      ],
      "transaction": {
        "from": "0xf39fd6e51aad88f6f4ce6ab8827279cfffb92266",
        "gas": "0xf8416",
        "value": "0x0",
        "input": "0x60803460ad57601f610d7b38819003918201601f19168301916001600160401b0383118484101760b15780849260209460405283398101031260ad57516001600160a01b0381169081900360ad578015607557600380546001600160a01b031916919091179055604051610cb590816100c68239f35b60405162461bcd60e51b815260206004820152601060248201526f33aaa9a21d103d32b9379030b236b4b760811b6044820152606490fd5b5f80fd5b634e487b7160e01b5f52604160045260245ffdfe60806040526004361015610011575f80fd5b5f3560e01c806306fdde0314610983578063095ea7b3146108cc5780630d895ee11461084f57806318160ddd1461083357806323b872dd14610722578063313ce5671461070757806340c10f19146105f357806342966c68146105655780634334614a1461052857806370a08231146104f057806375829def1461047357806379cc67901461033c57806395d89b41146102d5578063a9059cbb14610220578063aa271e1a146101e3578063cf456ae71461015b578063dd62ed3e1461010b5763f851a440146100df575f80fd5b34610107575f366003190112610107576003546040516001600160a01b039091168152602090f35b5f80fd5b3461010757604036600319011261010757610124610a02565b61012c610a18565b6001600160a01b039182165f908152600260209081526040808320949093168252928352819020549051908152f35b346101075760207f583b0aa0e528532caf4b907c11d7a8158a122fe2a6fb80cd9b09776ebea8d92d61018c36610a2e565b92906101a360018060a01b03600354163314610a5d565b6001600160a01b0316926101b8841515610a9b565b835f52600482526101d88160405f209060ff801983541691151516179055565b6040519015158152a2005b34610107576020366003190112610107576001600160a01b03610204610a02565b165f526004602052602060ff60405f2054166040519015158152f35b3461010757604036600319011261010757610239610a02565b6024359061024960065415610adc565b60016006556001600160a01b031690610263821515610b14565b335f52600160205261027b8160405f20541015610bc6565b335f52600160205260405f20610292828254610ba5565b9055815f52600160205260405f206102ab828254610c12565b90556040519081525f516020610c605f395f51905f5260203392a35f600655602060405160018152f35b34610107575f36600319011261010757604051604081019080821067ffffffffffffffff8311176103285761032491604052600481526319d554d160e21b6020820152604051918291826109d8565b0390f35b634e487b7160e01b5f52604160045260245ffd5b3461010757604036600319011261010757610355610a02565b60243561036460065415610adc565b6001600655335f52600560205260ff60405f2054161561043b575f516020610c605f395f51905f5260205f9361039b841515610c1f565b6001600160a01b031692338490036103f7575b838552600182526103c58160408720541015610bc6565b83855260018252604085206103db828254610ba5565b90556103e8818654610ba5565b8555604051908152a35f600655005b838552600282526040808620338752835285205461042290829061041d82821015610b59565b610ba5565b84865260028352604080872033885284528620556103ae565b60405162461bcd60e51b815260206004820152601060248201526f33aaa9a21d103737ba10313ab93732b960811b6044820152606490fd5b346101075760203660031901126101075761048c610a02565b6003546001600160a01b038116916104a5338414610a5d565b6001600160a01b03169182906104bc821515610a9b565b7ff8ccb027dfcd135e000e9d45e6cc2d662578a8825d4c45b5e32e0adf67e79ec65f80a36001600160a01b03191617600355005b34610107576020366003190112610107576001600160a01b03610511610a02565b165f526001602052602060405f2054604051908152f35b34610107576020366003190112610107576001600160a01b03610549610a02565b165f526005602052602060ff60405f2054166040519015158152f35b34610107576020366003190112610107575f60043561058660065415610adc565b6001600655610596811515610c1f565b33825260016020526105ae8160408420541015610bc6565b3382526001602052604082206105c5828254610ba5565b90556105d2818354610ba5565b82556040519081525f516020610c605f395f51905f5260203392a35f600655005b346101075760403660031901126101075761060c610a02565b6024359061061c60065415610adc565b6001600655335f52600460205260ff60405f205416156106cf576001600160a01b0316908115610695575f516020610c605f395f51905f526020826106635f941515610c1f565b61066e818554610c12565b84558484526001825260408420610686828254610c12565b9055604051908152a35f600655005b60405162461bcd60e51b8152602060048201526012602482015271675553443a206d696e7420746f207a65726f60701b6044820152606490fd5b60405162461bcd60e51b815260206004820152601060248201526f33aaa9a21d103737ba1036b4b73a32b960811b6044820152606490fd5b34610107575f36600319011261010757602060405160128152f35b346101075760603660031901126101075761073b610a02565b610743610a18565b5f516020610c605f395f51905f5260206044359261076360065415610adc565b60016006556001600160a01b03169361077d851515610b14565b6001600160a01b03165f81815260028352604080822033835284529020549093908160018201610807575b5050835f52600182526107c18160405f20541015610bc6565b835f526001825260405f206107d7828254610ba5565b9055845f526001825260405f206107ef828254610c12565b9055604051908152a35f600655602060405160018152f35b8161041d82610817941015610b59565b5f858152600284526040808220338352855290205585816107a8565b34610107575f3660031901126101075760205f54604051908152f35b346101075760207fd28dc1379d750c7c8137c7ef7b074f62f1361b9becc7f9d77d8c0d6e46a3cd0661088036610a2e565b929061089760018060a01b03600354163314610a5d565b6001600160a01b0316926108ac841515610a9b565b835f52600582526101d88160405f209060ff801983541691151516179055565b34610107576040366003190112610107576108e5610a02565b6001600160a01b0316602435811561094657335f52600260205260405f20825f526020528060405f20556040519081527f8c5be1e5ebec7d5bd14f71427d1e84f3dd0314c0f7b2291e5b200ac8c7c3b92560203392a3602060405160018152f35b60405162461bcd60e51b8152602060048201526015602482015274675553443a20617070726f766520746f207a65726f60581b6044820152606490fd5b34610107575f36600319011261010757604051604081019080821067ffffffffffffffff8311176103285761032491604052600e81526d11dbdbd9111bdb1b185c881554d160921b6020820152604051918291825b602060409281835280519182918282860152018484015e5f828201840152601f01601f1916010190565b600435906001600160a01b038216820361010757565b602435906001600160a01b038216820361010757565b6040906003190112610107576004356001600160a01b0381168103610107579060243580151581036101075790565b15610a6457565b60405162461bcd60e51b815260206004820152600f60248201526e33aaa9a21d103737ba1030b236b4b760891b6044820152606490fd5b15610aa257565b60405162461bcd60e51b8152602060048201526012602482015271675553443a207a65726f206164647265737360701b6044820152606490fd5b15610ae357565b60405162461bcd60e51b81526020600482015260096024820152681499595b9d1c985b9d60ba1b6044820152606490fd5b15610b1b57565b60405162461bcd60e51b8152602060048201526016602482015275675553443a207472616e7366657220746f207a65726f60501b6044820152606490fd5b15610b6057565b60405162461bcd60e51b815260206004820152601c60248201527f675553443a20696e73756666696369656e7420616c6c6f77616e6365000000006044820152606490fd5b91908203918211610bb257565b634e487b7160e01b5f52601160045260245ffd5b15610bcd57565b60405162461bcd60e51b815260206004820152601a60248201527f675553443a20696e73756666696369656e742062616c616e63650000000000006044820152606490fd5b91908201809211610bb257565b15610c2657565b60405162461bcd60e51b815260206004820152601160248201527019d554d10e881e995c9bc8185b5bdd5b9d607a1b6044820152606490fdfeddf252ad1be2c89b69c2b068fc378daa952ba7f163c4a11628f55a4df523b3efa264697066735822122071b3a7b80db2125a936c310b730cd5550b3bb0ec84319faa89f6886da763d91e64736f6c63430008210033000000000000000000000000f39fd6e51aad88f6f4ce6ab8827279cfffb92266",
        "nonce": "0x3ed",
        "chainId": "0xa455"
      },
      "additionalContracts": [],
      "isFixedGasLimit": false
    },
    {
      "hash": "0x11b3f4e5a78a60cc468ff61169c9fa789f6de3d931aa41fbd9cc006cf0017226",
      "transactionType": "CREATE",
      "contractName": "MockUBIFeeSplitter",
      "contractAddress": "0xba6bfba894b5caf04c3462a5c8556ffba4de6782",
      "function": null,
      "arguments": [
        "0x6B99600daD0a1998337357696827381D122825F3"
      ],
      "transaction": {
        "from": "0xf39fd6e51aad88f6f4ce6ab8827279cfffb92266",
        "gas": "0x502e9",
        "value": "0x0",
        "input": "0x60a034606c57601f61041838819003918201601f19168301916001600160401b03831184841017607057808492602094604052833981010312606c57516001600160a01b0381168103606c5760805260405161039390816100858239608051818181606801526102510152f35b5f80fd5b634e487b7160e01b5f52604160045260245ffdfe6080806040526004361015610012575f80fd5b5f3560e01c90816364d6def9146101f9575080637cb4eea2146100d4578063a3c2c462146100b8578063d91492d21461009b5763fc0c546a14610053575f80fd5b34610097575f366003190112610097576040517f00000000000000000000000000000000000000000000000000000000000000006001600160a01b03168152602090f35b5f80fd5b34610097575f366003190112610097576020600154604051908152f35b34610097575f3660031901126100975760205f54604051908152f35b34610097576060366003190112610097576004356100f061027a565b506044356001600160a01b0381168103610097576040516323b872dd60e01b602082019081523360248301523060448301526064820184905261015d925f92839290839061014b81608481015b03601f198101835282610290565b51925af16101576102c6565b50610305565b610d058102811590828104610d05148217156101e5576127109004906106838302908382046106831417156101e5576127106101e19104926101c26101ab856101a68685610343565b610343565b916101b885600154610350565b6001555f54610350565b5f55604051938493846040919493926060820195825260208201520152565b0390f35b634e487b7160e01b5f52601160045260245ffd5b346100975760403660031901126100975761015d5f806004359361021b61027a565b506323b872dd60e01b60208201908152336024830152306044830152606482018690529061024c816084810161013d565b5190827f00000000000000000000000000000000000000000000000000000000000000005af16101576102c6565b602435906001600160a01b038216820361009757565b90601f8019910116810190811067ffffffffffffffff8211176102b257604052565b634e487b7160e01b5f52604160045260245ffd5b3d15610300573d9067ffffffffffffffff82116102b257604051916102f5601f8201601f191660200184610290565b82523d5f602084013e565b606090565b1561030c57565b60405162461bcd60e51b815260206004820152600f60248201526e199959481c1d5b1b0819985a5b1959608a1b6044820152606490fd5b919082039182116101e557565b919082018092116101e55756fea26469706673582212201afffbaac996aad3b9be61ab7b2c3cc82468588b39c039a138926b2e6eb3c5ef64736f6c634300082100330000000000000000000000006b99600dad0a1998337357696827381d122825f3",
        "nonce": "0x3ee",
        "chainId": "0xa455"
      },
      "additionalContracts": [],
      "isFixedGasLimit": false
    },
    {
      "hash": "0x04595be0558e1cdda1bea43692b62a54cb7b103cb8113de64a12dcabfaaafd3c",
      "transactionType": "CREATE",
      "contractName": "CollateralRegistry",
      "contractAddress": "0xca9507c5f707103e86b45df4b35c37fe2700bb5b",
      "function": null,
      "arguments": [
        "0xf39Fd6e51aad88F6F4ce6aB8827279cffFb92266",
        "0x7314AEeC874A25A1131F49dA9679D05f8d931175",
        "0x132F7D9033b28B08cbc520e1cfD83c6dA3abfA36",
        "0xD604C06206f6DeDd82d42F90D1F5bB34a2E7c5dd"
      ],
      "transaction": {
        "from": "0xf39fd6e51aad88f6f4ce6ab8827279cfffb92266",
        "gas": "0x1639e3",
        "value": "0x0",
        "input": "0x6080604052346107dd57604051601f6110d138819003918201601f19168301916001600160401b0383118484101761073f578084926080946040528339810103126107dd5761004d81610800565b9061005a60208201610800565b610072606061006b60408501610800565b9301610800565b926001600160a01b03168015610798575f80546001600160a01b0319169190911781556208aa8960eb1b905260036020525f5160206110b15f395f51905f525460ff16610753576102306100c46107e1565b6001600160a01b039283168082526714d1120d7b16000060208084019182526701cdda4faccd00006040850190815269d3c21bcecceda1000000606086019081526b033b2e3ca88761c9983cdc0660808701908152600160a088019081526208aa8960eb1b5f52600290945295517fd9402e47e68a5154d8f9cdc9d4ffcf4a300546026372c3b04224fbe62656c6018054919099166001600160a01b03199091161790975591517fd9402e47e68a5154d8f9cdc9d4ffcf4a300546026372c3b04224fbe62656c6025590517fd9402e47e68a5154d8f9cdc9d4ffcf4a300546026372c3b04224fbe62656c6035593517fd9402e47e68a5154d8f9cdc9d4ffcf4a300546026372c3b04224fbe62656c6045590517fd9402e47e68a5154d8f9cdc9d4ffcf4a300546026372c3b04224fbe62656c6055591517fd9402e47e68a5154d8f9cdc9d4ffcf4a300546026372c3b04224fbe62656c606805460ff191691151560ff16919091179055565b6208aa8960eb1b5f5260036020525f5160206110b15f395f51905f52805460ff19166001908117909155546801000000000000000081101561073f57600181018060015581101561072b5760015f526208aa8960eb1b5f5160206110715f395f51905f52909101819055604080519283526714d1120d7b160000602084015290915f5160206110915f395f51905f529190a26111d160f21b5f5260036020525f5160206110315f395f51905f525460ff166107535761045b6102f06107e1565b6001600160a01b03928316808252671bc16d674ec800006020808401918252670214e8348c4f0000604085019081526969e10de76676d0800000606086019081526b033b2e3cad042cdf3cd0635460808701908152600160a088019081526111d160f21b5f52600290945295517f51ad335b9c1bfbc41734cb4ba99a217db2c0eab320f85383a3fa8695e01e16f58054919099166001600160a01b03199091161790975591517f51ad335b9c1bfbc41734cb4ba99a217db2c0eab320f85383a3fa8695e01e16f65590517f51ad335b9c1bfbc41734cb4ba99a217db2c0eab320f85383a3fa8695e01e16f75593517f51ad335b9c1bfbc41734cb4ba99a217db2c0eab320f85383a3fa8695e01e16f85590517f51ad335b9c1bfbc41734cb4ba99a217db2c0eab320f85383a3fa8695e01e16f95591517f51ad335b9c1bfbc41734cb4ba99a217db2c0eab320f85383a3fa8695e01e16fa805460ff191691151560ff16919091179055565b6111d160f21b5f5260036020525f5160206110315f395f51905f52805460ff19166001908117909155546801000000000000000081101561073f57600181018060015581101561072b5760015f526111d160f21b5f5160206110715f395f51905f5290910181905560408051928352671bc16d674ec80000602084015290915f5160206110915f395f51905f529190a2635553444360e01b5f5260036020525f5160206110515f395f51905f525460ff166107535761068861051b6107e1565b6001600160a01b03928316808252670e043da6172500006020808401918252662386f26fc10000604085019081526a084595161401484a000000606086019081526b033b2e3ca2026060221a219260808701908152600160a08801908152635553444360e01b5f52600290945295517fe1b832f4cd54a115ddce65d9da7c8d553103a217be87cd651ea7f31e4eebaefd8054919099166001600160a01b03199091161790975591517fe1b832f4cd54a115ddce65d9da7c8d553103a217be87cd651ea7f31e4eebaefe5590517fe1b832f4cd54a115ddce65d9da7c8d553103a217be87cd651ea7f31e4eebaeff5593517fe1b832f4cd54a115ddce65d9da7c8d553103a217be87cd651ea7f31e4eebaf005590517fe1b832f4cd54a115ddce65d9da7c8d553103a217be87cd651ea7f31e4eebaf015591517fe1b832f4cd54a115ddce65d9da7c8d553103a217be87cd651ea7f31e4eebaf02805460ff191691151560ff16919091179055565b635553444360e01b5f5260036020525f5160206110515f395f51905f52805460ff19166001908117909155546801000000000000000081101561073f57600181018060015581101561072b5760015f52635553444360e01b5f5160206110715f395f51905f5290910181905560408051928352670e043da617250000602084015290915f5160206110915f395f51905f529190a260405161081c90816108158239f35b634e487b7160e01b5f52603260045260245ffd5b634e487b7160e01b5f52604160045260245ffd5b60405162461bcd60e51b815260206004820152601460248201527f52656769737472793a20696c6b206578697374730000000000000000000000006044820152606490fd5b60405162461bcd60e51b815260206004820152601460248201527f52656769737472793a207a65726f2061646d696e0000000000000000000000006044820152606490fd5b5f80fd5b6040519060c082016001600160401b0381118382101761073f57604052565b51906001600160a01b03821682036107dd5756fe60806040526004361015610011575f80fd5b5f3560e01c806306fe274d1461064e578063552033c41461064e5780636a1460241461062c5780636dd5b69d1461054b57806375829def146104955780637da4882e146103d657806386a3862b146103a75780639d23b35f1461036f578063afaea5cf146102d2578063b64e0001146102b5578063d929fe7b146100c85763f851a4401461009d575f80fd5b346100c4575f3660031901126100c4575f546040516001600160a01b039091168152602090f35b5f80fd5b346100c45760c03660031901126100c4576004356024356001600160a01b038116908190036100c4576044359060a43561010c60018060a01b035f5416331461070c565b835f52600360205260ff60405f205416610279576101e490610138670de0b6b3a764000085101561074e565b6101506b033b2e3c9fd0803ce800000082101561079a565b600561015a6106a0565b918483526020830190868252604084016064358152606085019060843582526080860192835260a0860193600185528a5f52600260205260405f209660018060a01b039051166bffffffffffffffffffffffff60a01b88541617875551600187015551600286015551600385015551600484015551151591019060ff801983541691151516179055565b825f52600360205260405f20600160ff198254161790556001549068010000000000000000821015610265577fab8ac0e1bd8ac03ac9df93028bd29e1972d82acd99a159a07ac48bcd2b022cbe9261024483600160409501600155610674565b81549060031b9087821b915f19901b191617905582519182526020820152a2005b634e487b7160e01b5f52604160045260245ffd5b60405162461bcd60e51b815260206004820152601460248201527352656769737472793a20696c6b2065786973747360601b6044820152606490fd5b346100c4575f3660031901126100c4576020600154604051908152f35b346100c45760403660031901126100c457600435602435801515908181036100c4577f1fe409d485d3e152a677dfe4363f46aa10af58db9e2d5a1906e74264b27f2b2a9161036660209261033060018060a01b035f5416331461070c565b855f526003845261034760ff60405f2054166106c0565b855f5260028452600560405f20019060ff801983541691151516179055565b604051908152a2005b346100c45760203660031901126100c4576004356001548110156100c457610398602091610674565b90549060031b1c604051908152f35b346100c45760203660031901126100c4576004355f526003602052602060ff60405f2054166040519015158152f35b346100c45760a03660031901126100c45760043560243560046084359161040760018060a01b035f5416331461070c565b835f52600360205261041f60ff60405f2054166106c0565b610433670de0b6b3a764000082101561074e565b61044b6b033b2e3c9fd0803ce800000084101561079a565b835f52600260205260405f209060018201556044356002820155606435600382015501557f0cc993b15fc5afe9385b1249b7f1bd98ace3df370e89b94e1c3328d0e329e0455f80a2005b346100c45760203660031901126100c4576004356001600160a01b038116908190036100c4575f546001600160a01b0381166104d233821461070c565b821561050d5782907ff8ccb027dfcd135e000e9d45e6cc2d662578a8825d4c45b5e32e0adf67e79ec65f80a36001600160a01b031916175f55005b60405162461bcd60e51b815260206004820152601660248201527552656769737472793a207a65726f206164647265737360501b6044820152606490fd5b346100c45760203660031901126100c4576004355f60a061056a6106a0565b8281528260208201528260408201528260608201528260808201520152805f52600360205261059f60ff60405f2054166106c0565b5f52600260205260c060405f206105b46106a0565b60018060a01b03825416918282526001810154602083019081526002820154604084019081526003830154916060850192835260a060ff6005600487015496608089019788520154169501941515855260405195865251602086015251604085015251606084015251608083015251151560a0820152f35b346100c4575f3660031901126100c4576020604051670de0b6b3a76400008152f35b346100c4575f3660031901126100c45760206040516b033b2e3c9fd0803ce80000008152f35b60015481101561068c5760015f5260205f2001905f90565b634e487b7160e01b5f52603260045260245ffd5b6040519060c0820182811067ffffffffffffffff82111761026557604052565b156106c757565b60405162461bcd60e51b815260206004820152601760248201527f52656769737472793a20696c6b206e6f7420666f756e640000000000000000006044820152606490fd5b1561071357565b60405162461bcd60e51b81526020600482015260136024820152722932b3b4b9ba393c9d103737ba1030b236b4b760691b6044820152606490fd5b1561075557565b60405162461bcd60e51b815260206004820152601760248201527f52656769737472793a20726174696f2062656c6f7720310000000000000000006044820152606490fd5b156107a157565b60405162461bcd60e51b815260206004820152601c60248201527f52656769737472793a2066656520726174652062656c6f7720524159000000006044820152606490fdfea2646970667358221220a71fbb426a5c78ab229d821f155dda660074e7a7aa670f7ce57c23990ac32dd764736f6c63430008210033d1420b98fa8afc26b982107a255caa30f9329b3a404658edf1e695ae25bce036acb22bafd1ef6e02894947a1fd190769ebf1f0739eb9e7f1feaa66870379637ab10e2d527612073b26eecdfd717e6a320cf44b4afac2b0732d9fcbe2b7fa0cf6ab8ac0e1bd8ac03ac9df93028bd29e1972d82acd99a159a07ac48bcd2b022cbeb88c0ea72901a5cbd9418ec92b4fe479ea97c0ee8cacdc49e96d11aff3a45dc7000000000000000000000000f39fd6e51aad88f6f4ce6ab8827279cfffb922660000000000000000000000007314aeec874a25a1131f49da9679d05f8d931175000000000000000000000000132f7d9033b28b08cbc520e1cfd83c6da3abfa36000000000000000000000000d604c06206f6dedd82d42f90d1f5bb34a2e7c5dd",
        "nonce": "0x3ef",
        "chainId": "0xa455"
      },
      "additionalContracts": [],
      "isFixedGasLimit": false
    },
    {
      "hash": "0xfebc2a3074544af168ed1c194acd60221667de2feb330328a23f0d57dbd17d4e",
      "transactionType": "CREATE",
      "contractName": "VaultManager",
      "contractAddress": "0xcfbd78f3d57b620ddeff73f193dd5bf595a730db",
      "function": null,
      "arguments": [
        "0x6B99600daD0a1998337357696827381D122825F3",
        "0xca9507C5F707103e86B45DF4b35C37FE2700BB5B",
        "0xB719422a0A484025c1A22a8dEEaFC67E81F43CfD",
        "0xBA6BfBa894B5cAF04c3462A5C8556fFBa4de6782",
        "0xf39Fd6e51aad88F6F4ce6aB8827279cffFb92266",
        "0xf39Fd6e51aad88F6F4ce6aB8827279cffFb92266"
      ],
      "transaction": {
        "from": "0xf39fd6e51aad88f6f4ce6ab8827279cfffb92266",
        "gas": "0x2e47b3",
        "value": "0x0",
        "input": "0x6101003461032357601f612b2838819003918201601f19168301916001600160401b038311848410176103275780849260c094604052833981010312610323576100488161033b565b6100546020830161033b565b916100616040820161033b565b61006d6060830161033b565b9061008660a061007f6080860161033b565b940161033b565b60016006556001600160a01b039094169485156102ee576001600160a01b03169081156102b5576001600160a01b031691821561027e576001600160a01b0316928315610245576001600160a01b0316938415610200576001600160a01b03169485156101ca5760805260a05260c05260e05260018060a01b0319600254161760025560018060a01b031960015416176001556040516127d8908161035082396080518181816104d501528181610b0701528181610ee10152818161130b0152818161168e0152611c2d015260a0518181816101940152818161037301528181610605015281816108a201528181610c1101528181610cea015281816111ed015281816119b201528181611b8e01528181611f92015261237e015260c051818181610bcc01528181611fe801526123d4015260e0518181816110dd0152611ca20152f35b60405162461bcd60e51b815260206004820152600e60248201526d2b269d103d32b9379030b236b4b760911b6044820152606490fd5b60405162461bcd60e51b815260206004820152601760248201527f564d3a207a65726f206441707020726563697069656e740000000000000000006044820152606490fd5b60405162461bcd60e51b81526020600482015260116024820152702b269d103d32b9379039b83634ba3a32b960791b6044820152606490fd5b60405162461bcd60e51b815260206004820152600f60248201526e564d3a207a65726f206f7261636c6560881b6044820152606490fd5b60405162461bcd60e51b8152602060048201526011602482015270564d3a207a65726f20726567697374727960781b6044820152606490fd5b60405162461bcd60e51b815260206004820152600d60248201526c15934e881e995c9bc819d554d1609a1b6044820152606490fd5b5f80fd5b634e487b7160e01b5f52604160045260245ffd5b51906001600160a01b03821682036103235756fe6080806040526004361015610012575f80fd5b5f905f3560e01c908163048c661d1461181a57508063050296e9146117fc57806316c38b3c146117aa5780631c5d3796146115665780632e5f62a01461153c5780633363b7d9146114fa57806344e2a5a8146114da5780634627e7c01461148c578063468c9bd1146111875780634afa3af714611158578063552033c4146111325780635c975abb1461110c5780636052970c146110c75780636a146024146110a457806375829def1461104c578063771b51d214610c405780637b10399914610bfb5780637dc0d1d014610bb657806381845f6314610b365780638c87ee9014610af157806393991a9314610ac857806398d721e014610a48578063a1e9348214610806578063abaf0042146107a8578063dea9b464146105a8578063e0537cee14610274578063f851a4401461024b5763fab9bd5e14610152575f80fd5b346102485760203660031901126102485760043561017860ff60025460a01c1615611b01565b604051636dd5b69d60e01b81526004810182905260c0816024817f00000000000000000000000000000000000000000000000000000000000000006001600160a01b03165afa90811561023d576101dd9160a091859161020e575b5001511515611ed4565b6101e681611b47565b337f1b3a3b641448ea38df4f27c3b71159ff387dfd96db4bfa0678a500dff874eb618380a380f35b610230915060c03d60c011610236575b610228818361187e565b8101906118c1565b5f6101d3565b503d61021e565b6040513d85823e3d90fd5b80fd5b50346102485780600319360112610248576001546040516001600160a01b039091168152602090f35b503461024857602036600319011261024857600435610297600160065414611ac9565b60026006556102ae60ff60025460a01c1615611b01565b6102b781611b47565b808252600360209081526040808420335f908152908352819020838552600490925283208054806105a25750676765c793fa10079d601b1b905b6001830190815492676765c793fa10079d601b1b61030f8286611948565b0493878561049a575b94505050505081549182610356575b5082337f45741dfe35116d540a34618f113e41a5092e64d6b09a503ede64ff9058a0e6058380a3600160065580f35b55604051636dd5b69d60e01b81526004810183905260c0816024817f00000000000000000000000000000000000000000000000000000000000000006001600160a01b03165afa90811561047057849161047b575b505160405163a9059cbb60e01b81523360048201526024810183905291906020908390604490829088906001600160a01b03165af18015610470578392859161042d575b506103f990612130565b6040519081527fe69cdf29a59dd324317b598bee3a9ed1fcffb99cc506db72633ed07b59dc6d0460203392a35f8281610327565b9250506020823d602011610468575b816104496020938361187e565b81010312610464576103f961045e84936118b4565b906103ef565b8380fd5b3d915061043c565b6040513d86823e3d90fd5b610494915060c03d60c01161023657610228818361187e565b5f6103ab565b676765c793fa10079d601b1b946104b960026104c2960193845461193b565b83555554611948565b84865260056020526040862091900490557f00000000000000000000000000000000000000000000000000000000000000006001600160a01b031690813b1561059e5760405163079cc67960e41b81523360048201526024810182905291859081908490604490829084905af1928315610591578593610576575b50506040519081527f8293a3003da468402b46b778420ac0fa8c2291bed4eeb36f56768a9d2220be7660203392a35f8080808087610318565b81929350906105849161187e565b610464578290845f61053d565b50604051903d90823e3d90fd5b8480fd5b906102f1565b5034610248576105b73661183c565b6105c5600160065414611ac9565b60026006556105dc60ff60025460a01c1615611b01565b6105e7811515611e96565b604051636dd5b69d60e01b815260048101839052839060c0816024817f00000000000000000000000000000000000000000000000000000000000000006001600160a01b03165afa801561079d57602091839161077e575b5061064f60a08201511515611ed4565b61065885611b47565b516040516323b872dd60e01b81523360048201523060248201526044810185905292839160649183916001600160a01b03165af1908115610470578491610744575b50156106ff5781835260036020526040832060018060a01b0333165f5260205260405f206106c9828254611b3a565b90556040519081527f88df26d296ecbf594c8609f433503d1436d24afe03c0d9e5e29c8f6ed92ef9b460203392a3600160065580f35b60405162461bcd60e51b815260206004820152601e60248201527f564d3a20636f6c6c61746572616c207472616e73666572206661696c656400006044820152606490fd5b90506020813d602011610776575b8161075f6020938361187e565b8101031261046457610770906118b4565b5f61069a565b3d9150610752565b610797915060c03d60c01161023657610228818361187e565b5f61063f565b6040513d84823e3d90fd5b5034610248576020366003190112610248576107c2611868565b6107d760018060a01b03600154163314611a8d565b6001600160a01b03166107eb8115156120f1565b6bffffffffffffffffffffffff60a01b600254161760025580f35b5034610248576108153661183c565b610823600160065414611ac9565b600260065561083a60ff60025460a01c1615611b01565b610845811515611e96565b61084e82611b47565b818352600360209081526040808520335f908152925290208054828110610a0357826108799161193b565b815560018101546109b3575b50604051636dd5b69d60e01b81526004810183905260c0816024817f00000000000000000000000000000000000000000000000000000000000000006001600160a01b03165afa908115610470578491610994575b505160405163a9059cbb60e01b815233600482015260248101839052906020908290604490829088906001600160a01b03165af18015610470578490610959575b6109259150612130565b6040519081527fe69cdf29a59dd324317b598bee3a9ed1fcffb99cc506db72633ed07b59dc6d0460203392a3600160065580f35b506020813d60201161098c575b816109736020938361187e565b8101031261046457610987610925916118b4565b61091b565b3d9150610966565b6109ad915060c03d60c01161023657610228818361187e565b5f6108da565b6109bd9083612321565b156109c8575f610885565b60405162461bcd60e51b8152602060048201526013602482015272564d3a207661756c7420756e6865616c74687960681b6044820152606490fd5b60405162461bcd60e51b815260206004820152601b60248201527f564d3a20696e73756666696369656e7420636f6c6c61746572616c00000000006044820152606490fd5b5034610248576020366003190112610248577f51f43ead43c9a90d53ec229fbf48feb76b24efa7a147089ad9ed34ad384a94d36020610a85611868565b610a9a60018060a01b03600154163314611a8d565b6001600160a01b0316610aae8115156120f1565b83546001600160a01b03191681178455604051908152a180f35b50346102485780600319360112610248576002546040516001600160a01b039091168152602090f35b50346102485780600319360112610248576040517f00000000000000000000000000000000000000000000000000000000000000006001600160a01b03168152602090f35b503461024857604036600319011261024857676765c793fa10079d601b1b610ba460209260043590610b66611852565b8282526003865260408083206001600160a01b039092165f908152918752908190209282526004865290205480610bad5750600183915b0154611948565b04604051908152f35b60019091610b9d565b50346102485780600319360112610248576040517f00000000000000000000000000000000000000000000000000000000000000006001600160a01b03168152602090f35b50346102485780600319360112610248576040517f00000000000000000000000000000000000000000000000000000000000000006001600160a01b03168152602090f35b503461024857604036600319011261024857600435610c5d611852565b610c6b600160065414611ac9565b6002600655610c8260ff60025460a01c1615611b01565b6001600160a01b0316801561101657610c9a82611b47565b818352600360205260408320815f5260205260405f2060018101908154908115610fd957610cc88186612321565b610f9d57604051636dd5b69d60e01b815260048101869052869160c0826024817f00000000000000000000000000000000000000000000000000000000000000006001600160a01b03165afa91821561023d578392610f6b575b50610d78676765c793fa10079d601b1b918885526004602052604085209585875480155f14610f65575084925b8186610d5b8686611948565b049a610d6e600284549c0195865461193b565b8555555554611948565b8784526005602052604084209190049055516001600160a01b0316610dae610db5610da5838987896125de565b8693919361193b565b918661193b565b80610edf575b5080610dfe575b50505060405191825260208201527f4ecef300dc49115373f12d5ca31f017d1104f91d9fefeda602a1c42550af910960403392a4600160065580f35b60405163a9059cbb60e01b815233600482015260248101919091529160209183916044918391905af1908115610ed4578691610e96575b5015610e4357845f80610dc2565b60405162461bcd60e51b815260206004820152602560248201527f564d3a206c697175696461746f7220636f6c6c61746572616c2073656e642066604482015264185a5b195960da1b6064820152608490fd5b90506020813d602011610ecc575b81610eb16020938361187e565b81010312610ec857610ec2906118b4565b5f610e35565b8580fd5b3d9150610ea4565b6040513d88823e3d90fd5b7f00000000000000000000000000000000000000000000000000000000000000006001600160a01b0316803b1561059e5760405163079cc67960e41b8152336004820152602481019290925284908290604490829084905af1908115610470578491610f4c575b50610dbb565b81610f569161187e565b610f6157825f610f46565b8280fd5b92610d4f565b676765c793fa10079d601b1b919250610f95610d789160c03d60c01161023657610228818361187e565b929150610d22565b60405162461bcd60e51b8152602060048201526014602482015273564d3a207661756c74206973206865616c74687960601b6044820152606490fd5b60405162461bcd60e51b815260206004820152601560248201527415934e881d985d5b1d081a185cc81b9bc81919589d605a1b6044820152606490fd5b60405162461bcd60e51b815260206004820152600e60248201526d2b269d103d32b9379037bbb732b960911b6044820152606490fd5b503461024857602036600319011261024857611066611868565b6001549061107e336001600160a01b03841614611a8d565b6001600160a01b0316906110938215156120f1565b6001600160a01b0319161760015580f35b50346102485780600319360112610248576020604051670de0b6b3a76400008152f35b50346102485780600319360112610248576040517f00000000000000000000000000000000000000000000000000000000000000006001600160a01b03168152602090f35b5034610248578060031936011261024857602060ff60025460a01c166040519015158152f35b50346102485780600319360112610248576020604051676765c793fa10079d601b1b8152f35b503461024857604036600319011261024857602061117f611177611852565b600435611f15565b604051908152f35b5034610248576111963661183c565b6111a4600160065414611ac9565b60026006556111bb60ff60025460a01c1615611b01565b80156111c78115611e96565b6111d083611b47565b604051636dd5b69d60e01b8152600481018490529060c0826024817f00000000000000000000000000000000000000000000000000000000000000006001600160a01b03165afa918215611481578592611460575b5061123560a08301511515611ed4565b83855260046020526040852090815480155f1461145a5750676765c793fa10079d601b1b905b676765c793fa10079d601b1b850290858204676765c793fa10079d601b1b141715611446576112e28261129c606094676765c793fa10079d601b1b9461195b565b888a52600360205260408a2060018060a01b0333165f526020526112da600260405f2097600189016112cf858254611b3a565b905501918254611b3a565b809155611948565b04920151821161140157611303918486526005602052604086205583612321565b156113bc57827f00000000000000000000000000000000000000000000000000000000000000006001600160a01b0316803b156113b8576040516340c10f1960e01b8152336004820152602481018490529082908290604490829084905af1801561079d576113a3575b50506040519081527f7ee657a21ac7f39b81c23a6f713ab60c53f4c04479e9a7847c08e2bc69862e8060203392a3600160065580f35b816113ad9161187e565b610f6157825f61136d565b5080fd5b60405162461bcd60e51b815260206004820152601c60248201527f564d3a20636f6c6c61746572616c20726174696f20746f6f206c6f77000000006044820152606490fd5b60405162461bcd60e51b815260206004820152601960248201527f564d3a2064656274206365696c696e67206578636565646564000000000000006044820152606490fd5b634e487b7160e01b87526011600452602487fd5b9061125b565b61147a91925060c03d60c01161023657610228818361187e565b905f611225565b6040513d87823e3d90fd5b50346102485760403660031901126102485760406114a8611852565b9160043581526003602052209060018060a01b03165f526020526040805f206001815491015482519182526020820152f35b5034610248576020366003190112610248576114f7600435611b47565b80f35b50346102485760203660031901126102485760406060916004358152600460205220805490600260018201549101549060405192835260208301526040820152f35b50346102485760203660031901126102485760406020916004358152600583522054604051908152f35b503461173d576115753661183c565b611583600160065414611ac9565b600260065561159a60ff60025460a01c1615611b01565b806115a483611b47565b825f52600360205260405f2060018060a01b0333165f5260205260405f20835f52600460205260405f2090815480155f146117a157506001676765c793fa10079d601b1b915b0192835490676765c793fa10079d601b1b6116058484611948565b04809111611799575b50841561175d57676765c793fa10079d601b1b850292858404676765c793fa10079d601b1b0361174957676765c793fa10079d601b1b94611652846116779661195b565b92808411611741575b9160029161166c856112da9561193b565b90550191825461193b565b04825f52600560205260405f205560018060a01b037f000000000000000000000000000000000000000000000000000000000000000016803b1561173d5760405163079cc67960e41b815233600482015260248101839052905f908290604490829084905af180156117325761171d575b506040519081527f8293a3003da468402b46b778420ac0fa8c2291bed4eeb36f56768a9d2220be7660203392a3600160065580f35b61172a9193505f9061187e565b5f915f6116e8565b6040513d5f823e3d90fd5b5f80fd5b92508261165b565b634e487b7160e01b5f52601160045260245ffd5b60405162461bcd60e51b8152602060048201526014602482015273564d3a206e6f7468696e6720746f20726570617960601b6044820152606490fd5b94505f61160e565b600190916115ea565b3461173d57602036600319011261173d5760043580151580910361173d576117dd60018060a01b03600154163314611a8d565b6002805460ff60a01b191660a09290921b60ff60a01b16919091179055005b3461173d57602036600319011261173d57602061117f600435611979565b3461173d575f36600319011261173d575f546001600160a01b03168152602090f35b604090600319011261173d576004359060243590565b602435906001600160a01b038216820361173d57565b600435906001600160a01b038216820361173d57565b90601f8019910116810190811067ffffffffffffffff8211176118a057604052565b634e487b7160e01b5f52604160045260245ffd5b5190811515820361173d57565b908160c091031261173d576040519060c0820182811067ffffffffffffffff8211176118a05760405280516001600160a01b038116810361173d576119339160a091845260208101516020850152604081015160408501526060810151606085015260808101516080850152016118b4565b60a082015290565b9190820391821161174957565b8181029291811591840414171561174957565b8115611965570490565b634e487b7160e01b5f52601260045260245ffd5b805f52600460205260405f2080549182158015611a81575b611a5357604051636dd5b69d60e01b8152600481019190915260c0816024817f00000000000000000000000000000000000000000000000000000000000000006001600160a01b03165afa908115611732575f91611a62575b506119f960018301544261193b565b8015611a5a57611a1c611a22916080676765c793fa10079d601b1b9401516121b8565b84611948565b049082821115611a53576002611a47676765c793fa10079d601b1b94611a4f9461193b565b910154611948565b0490565b5050505f90565b505050505f90565b611a7b915060c03d60c01161023657610228818361187e565b5f6119ea565b50600282015415611991565b15611a9457565b60405162461bcd60e51b815260206004820152600d60248201526c2b269d103737ba1030b236b4b760991b6044820152606490fd5b15611ad057565b60405162461bcd60e51b81526020600482015260096024820152681499595b9d1c985b9d60ba1b6044820152606490fd5b15611b0857565b60405162461bcd60e51b815260206004820152600a60248201526915934e881c185d5cd95960b21b6044820152606490fd5b9190820180921161174957565b5f815f52600460205260405f2090815415611e7d5760018201611b6b81544261193b565b8015611e7657604051636dd5b69d60e01b8152600481018690529060c0826024817f00000000000000000000000000000000000000000000000000000000000000006001600160a01b03165afa91821561173257611bd5926080915f91611e57575b5001516121b8565b92676765c793fa10079d601b1b611bee82549586611948565b049380851115611e4d57916002611c2392611c15676765c793fa10079d601b1b958861193b565b928782554290550154611948565b04908115611e19577f00000000000000000000000000000000000000000000000000000000000000006001600160a01b0316803b1561173d576040516340c10f1960e01b8152306004820152602481018490525f8160448183865af1801561173257611e04575b5060405163095ea7b360e01b81526001600160a01b037f0000000000000000000000000000000000000000000000000000000000000000166004820181905260248201859052919060208160448187865af1801561047057611dc8575b50606090606460018060a01b0360025416856040519586948593633e5a775160e11b85528a6004860152602485015260448401525af1801561079d57611d9d575b50916040918284867f3b9f4ab0566d9d10726a6f7f34cdc9e4b7f03a20a878ed293de4e6ed1b4198589652600560205220611d64828254611b3a565b9055847f156e588d1067ba3c8a6a7f4376ef70794f8afed114dc9d1421e054b65743e63060208551848152a282519182526020820152a2565b606090813d8311611dc1575b611db3818361187e565b81010312610248575f611d28565b503d611da9565b6020813d602011611dfc575b81611de16020938361187e565b810103126104645790611df56060926118b4565b5090611ce7565b3d9150611dd4565b611e119192505f9061187e565b5f905f611c8a565b505060407f3b9f4ab0566d9d10726a6f7f34cdc9e4b7f03a20a878ed293de4e6ed1b4198589181519081525f6020820152a2565b5050429055505050565b611e70915060c03d60c01161023657610228818361187e565b5f611bcd565b5050505050565b509050676765c793fa10079d601b1b8155600142910155565b15611e9d57565b60405162461bcd60e51b815260206004820152600f60248201526e15934e881e995c9bc8185b5bdd5b9d608a1b6044820152606490fd5b15611edb57565b60405162461bcd60e51b8152602060048201526012602482015271564d3a20696c6b206e6f742061637469766560701b6044820152606490fd5b90815f52600360205260405f209060018060a01b03165f5260205260405f2090600182015480156120e357611f6d676765c793fa10079d601b1b91835f52600460205260405f205480155f146120eb57508290611948565b049081156120e357604051636dd5b69d60e01b8152600481018290529260c0846024817f00000000000000000000000000000000000000000000000000000000000000006001600160a01b03165afa938415611732575f946120c2575b506040516331d98b3f60e01b815260048101929092526020826024817f00000000000000000000000000000000000000000000000000000000000000006001600160a01b03165afa918215611732575f9261208b575b5091602061204761205093670de0b6b3a764000095549060018060a01b03885116916124ec565b94015190611948565b04801561208457670de0b6b3a7640000820291808304670de0b6b3a76400001490151715611749576120819161195b565b90565b50505f1990565b9150916020823d6020116120ba575b816120a76020938361187e565b8101031261173d57905190916020612020565b3d915061209a565b6120dc91945060c03d60c01161023657610228818361187e565b925f611fca565b5050505f1990565b90611948565b156120f857565b60405162461bcd60e51b815260206004820152601060248201526f564d3a207a65726f206164647265737360801b6044820152606490fd5b1561213757565b60405162461bcd60e51b815260206004820152601a60248201527f564d3a20636f6c6c61746572616c2073656e64206661696c65640000000000006044820152606490fd5b1561218357565b60405162461bcd60e51b815260206004820152600d60248201526c72706f772f6f766572666c6f7760981b6044820152606490fd5b9190915f9080156123045760018416156122f357805b9360011c90815b6121de57505050565b6121fc6121eb8280611948565b9180159081156122e0575b5061217c565b6b019d971e4fe8401e740000008101908181116122cc5761221f9082101561217c565b826122b857676765c793fa10079d601b1b9004908160018216612248575b5060011c90816121d5565b8593506122598161226b9397611948565b9381159182156122a4575b505061217c565b6b019d971e4fe8401e740000008201918281116117495761228e9083101561217c565b676765c793fa10079d601b1b5f9204935f61223d565b6122b09192508561195b565b145f80612264565b634e487b7160e01b83526012600452602483fd5b634e487b7160e01b84526011600452602484fd5b90506122ec818461195b565b145f6121f6565b676765c793fa10079d601b1b6121ce565b505090155f1461231d57676765c793fa10079d601b1b90565b5f90565b600182015480156124d357612359676765c793fa10079d601b1b91835f52600460205260405f205480155f146120eb57508290611948565b049081156124d357604051636dd5b69d60e01b8152600481018290529260c0846024817f00000000000000000000000000000000000000000000000000000000000000006001600160a01b03165afa938415611732575f946124b2575b506040516331d98b3f60e01b815260048101929092526020826024817f00000000000000000000000000000000000000000000000000000000000000006001600160a01b03165afa918215611732575f9261247b575b5091602061204761243393670de0b6b3a764000095549060018060a01b03885116916124ec565b0490811561247457670de0b6b3a7640000810290808204670de0b6b3a7640000149015171561174957670de0b6b3a76400009161246f9161195b565b101590565b5050600190565b9150916020823d6020116124aa575b816124976020938361187e565b8101031261173d5790519091602061240c565b3d915061248a565b6124cc91945060c03d60c01161023657610228818361187e565b925f6123b6565b505050600190565b60ff16604d811161174957600a0a90565b60405163313ce56760e01b81529192909190602090829060049082906001600160a01b03165afa8015611732575f906125a1575b60ff1690506012811015612558576012039160ff831161174957612553611a4f926120eb670de0b6b3a7640000956124db565b611948565b601281111561258d57601119019160ff831161174957612553611a4f92612587670de0b6b3a7640000956124db565b9061195b565b50670de0b6b3a764000091611a4f91611948565b506020813d6020116125d6575b816125bb6020938361187e565b8101031261173d575160ff8116810361173d5760ff90612520565b3d91506125ae565b5f8054929590949093926001600160a01b0316801561279657604051637d88209760e01b8152602081600481855afa908115611732575f91612764575b50801561275757808410156127515750825b839781612734575b5050858015158061272b575b61264c575050505050565b60405163095ea7b360e01b81526001600160a01b0390921660048301526024820152906020908290815f816044810103926001600160a01b03165af18015611732576126f4575b505f546001600160a01b031691823b1561173d5760645f9283604051958694859363742f9e7160e01b8552600485015260248401528860448401525af18015611732576126e4575b80808085611e76565b5f6126ee9161187e565b5f6126db565b6020813d602011612723575b8161270d6020938361187e565b8101031261173d5761271e906118b4565b612693565b3d9150612700565b50831515612641565b6127499297508461274491611948565b61195b565b945f80612635565b9261262d565b505f965086955050505050565b90506020813d60201161278e575b8161277f6020938361187e565b8101031261173d57515f61261b565b3d9150612772565b505f955085945050505056fea26469706673582212208566d1a2318025be000c5be1e1b9f1cf9a83e6c5bc0fc5ddd84502a4e5bc243b64736f6c634300082100330000000000000000000000006b99600dad0a1998337357696827381d122825f3000000000000000000000000ca9507c5f707103e86b45df4b35c37fe2700bb5b000000000000000000000000b719422a0a484025c1a22a8deeafc67e81f43cfd000000000000000000000000ba6bfba894b5caf04c3462a5c8556ffba4de6782000000000000000000000000f39fd6e51aad88f6f4ce6ab8827279cfffb92266000000000000000000000000f39fd6e51aad88f6f4ce6ab8827279cfffb92266",
        "nonce": "0x3f0",
        "chainId": "0xa455"
      },
      "additionalContracts": [],
      "isFixedGasLimit": false
    },
    {
      "hash": "0x8ed9f9969959c0f551968498f478076ce9f676a979ffacb32228a464efe59a67",
      "transactionType": "CREATE",
      "contractName": "StabilityPool",
      "contractAddress": "0x56cb5406c23d0fb16eac535d6108ca72980c8072",
      "function": null,
      "arguments": [
        "0x6B99600daD0a1998337357696827381D122825F3",
        "0xf39Fd6e51aad88F6F4ce6aB8827279cffFb92266"
      ],
      "transaction": {
        "from": "0xf39fd6e51aad88f6f4ce6ab8827279cfffb92266",
        "gas": "0x128cbb",
        "value": "0x0",
        "input": "0x60a03461012357601f6110c338819003918201601f19168301916001600160401b0383118484101761012757808492604094855283398101031261012357610052602061004b8361013b565b920161013b565b6001600160a01b039091169081156100ee576001600160a01b03169081156100b857608052600180546001600160a01b031916919091179055604051610f739081610150823960805181818161022301528181610496015281816106770152610a0f0152f35b60405162461bcd60e51b815260206004820152600e60248201526d29a81d103d32b9379030b236b4b760911b6044820152606490fd5b60405162461bcd60e51b815260206004820152600d60248201526c14d40e881e995c9bc819d554d1609a1b6044820152606490fd5b5f80fd5b634e487b7160e01b5f52604160045260245ffd5b51906001600160a01b03821682036101235756fe60806040526004361015610011575f80fd5b5f5f3560e01c80632e1a7d4d14610970578063310599be1461092c5780633b5b7e3d14610902578063484be514146108d35780634ec18db9146108b6578063742f9e711461056257806375829def1461050a5780637d882097146104ec5780638a4adf24146104c55780638c87ee9014610480578063997dc62e146104565780639ff552631461038e578063aaf5eb681461036b578063b543503e146102f1578063b6b55f25146101b8578063d1a294c414610185578063e3fc028d1461014f578063f851a440146101265763fc7e286d146100eb575f80fd5b34610123576020366003190112610123576020906040906001600160a01b03610112610add565b168152600383522054604051908152f35b80fd5b50346101235780600319360112610123576001546040516001600160a01b039091168152602090f35b50346101235760203660031901126101235761016d60085415610af3565b600160085561017e60043533610d6f565b8060085580f35b503461012357602036600319011261012357602090600435815260068252604060018060a01b0391205416604051908152f35b5034610123576020366003190112610123576004356101d960085415610af3565b60016008556101e9811515610b2b565b6101f233610d4f565b6040516323b872dd60e01b815233600482015230602482015260448101829052602081606481866001600160a01b037f0000000000000000000000000000000000000000000000000000000000000000165af180156102e65761025c9184916102b7575b50610bc4565b338252600360205260408220610273828254610cc7565b905561028181600254610cc7565b6002556040519081527f2da466a7b24304f47e87fa2e1e5a81b9831ce54fec19055ce277ca2f39ba42c460203392a28060085580f35b6102d9915060203d6020116102df575b6102d18183610b76565b810190610bac565b5f610256565b503d6102c7565b6040513d85823e3d90fd5b50346101235760203660031901126101235761030b610add565b61032060018060a01b03600154163314610cd4565b6001600160a01b0316610334811515610d10565b81546001600160a01b031916811782557f8e902340d35762a5a36507c20fe38e5d549a721d9f846d6de7f397b5c26ab8538280a280f35b50346101235780600319360112610123576020604051670de0b6b3a76400008152f35b5034610123576040366003190112610123576004356024356001600160a01b03811690819003610452576103cd60018060a01b03600154163314610cd4565b801561041c5781835260066020908152604080852080546001600160a01b03191684179055519182527f7b02323155ee1835f3ad82fb0682024a2f6ea1380e110430fc6eb75fbffc866591a280f35b60405162461bcd60e51b815260206004820152600e60248201526d29a81d103d32b937903a37b5b2b760911b6044820152606490fd5b8280fd5b50346101235760203660031901126101235760406020916004358152600783522054604051908152f35b50346101235780600319360112610123576040517f00000000000000000000000000000000000000000000000000000000000000006001600160a01b03168152602090f35b5034610123578060031936011261012357546040516001600160a01b039091168152602090f35b50346101235780600319360112610123576020600254604051908152f35b503461012357602036600319011261012357610524610add565b6001549061053c336001600160a01b03841614610cd4565b6001600160a01b031690610551821515610d10565b6001600160a01b0319161760015580f35b503461075c57606036600319011261075c576004356024359060443561058a60085415610af3565b60016008555f546001600160a01b0316330361087957811561084457816002541061080a575f838152600660205260409020546105d1906001600160a01b03161515610c82565b5f8381526006602090815260408083205490516323b872dd60e01b81523360048201523060248201526044810185905292839160649183916001600160a01b03165af1908115610751575f916107eb575b50156107a6576002541561078857670de0b6b3a76400008102818104670de0b6b3a76400001482151715610774576002549081156107605704835f52600560205261067260405f20918254610cc7565b90555b7f00000000000000000000000000000000000000000000000000000000000000006001600160a01b0316803b1561075c575f8091602460405180948193630852cd8d60e31b83528860048401525af1801561075157610716575b50816040916107017f9f0e2e27f318babf40f39455bf2da36279d485bbb154091390dab5c7e946359e94600254610b69565b60025582519182526020820152a28060085580f35b6040919450916107475f7f9f0e2e27f318babf40f39455bf2da36279d485bbb154091390dab5c7e946359e94610b76565b5f949150916106cf565b6040513d5f823e3d90fd5b5f80fd5b634e487b7160e01b5f52601260045260245ffd5b634e487b7160e01b5f52601160045260245ffd5b825f52600760205260405f2061079f828254610cc7565b9055610675565b60405162461bcd60e51b815260206004820152601e60248201527f53503a20636f6c6c61746572616c207472616e73666572206661696c656400006044820152606490fd5b610804915060203d6020116102df576102d18183610b76565b5f610622565b60405162461bcd60e51b815260206004820152601260248201527114d40e881c1bdbdb081d1bdbc81cdb585b1b60721b6044820152606490fd5b60405162461bcd60e51b815260206004820152600d60248201526c14d40e881e995c9bc81919589d609a1b6044820152606490fd5b60405162461bcd60e51b815260206004820152601560248201527429a81d103737ba103b30bab63a1036b0b730b3b2b960591b6044820152606490fd5b3461075c575f36600319011261075c576020600254604051908152f35b3461075c57604036600319011261075c5760206108fa6108f1610add565b60243590610c19565b604051908152f35b3461075c57602036600319011261075c576004355f526005602052602060405f2054604051908152f35b3461075c57604036600319011261075c576001600160a01b0361094d610add565b165f52600460205260405f206024355f52602052602060405f2054604051908152f35b3461075c57602036600319011261075c5760043561099060085415610af3565b60016008556109a0811515610b2b565b335f5260036020528060405f205410610a98576109bc33610d4f565b335f52600360205260405f206109d3828254610b69565b90556109e181600254610b69565b60025560405163a9059cbb60e01b8152336004820152602481018290526020816044815f6001600160a01b037f0000000000000000000000000000000000000000000000000000000000000000165af1801561075157610a47915f91610a795750610bc4565b6040519081527f7084f5476618d8e60b11ef0d7d3f06914655adb8793e28ff7f018d4c76d505d560203392a25f600855005b610a92915060203d6020116102df576102d18183610b76565b83610256565b60405162461bcd60e51b815260206004820152601860248201527f53503a20696e73756666696369656e74206465706f73697400000000000000006044820152606490fd5b600435906001600160a01b038216820361075c57565b15610afa57565b60405162461bcd60e51b81526020600482015260096024820152681499595b9d1c985b9d60ba1b6044820152606490fd5b15610b3257565b60405162461bcd60e51b815260206004820152600f60248201526e14d40e881e995c9bc8185b5bdd5b9d608a1b6044820152606490fd5b9190820391821161077457565b90601f8019910116810190811067ffffffffffffffff821117610b9857604052565b634e487b7160e01b5f52604160045260245ffd5b9081602091031261075c5751801515810361075c5790565b15610bcb57565b60405162461bcd60e51b815260206004820152601360248201527214d40e881d1c985b9cd9995c8819985a5b1959606a1b6044820152606490fd5b8181029291811591840414171561077457565b6001600160a01b03165f818152600360205260409020548015610c7b57610c71610c779284670de0b6b3a7640000955f52600560205260405f2054915f52600460205260405f20905f5260205260405f205490610b69565b90610c06565b0490565b5050505f90565b15610c8957565b60405162461bcd60e51b815260206004820152601660248201527514d40e881a5b1ac81b9bdd081c9959da5cdd195c995960521b6044820152606490fd5b9190820180921161077457565b15610cdb57565b60405162461bcd60e51b815260206004820152600d60248201526c29a81d103737ba1030b236b4b760991b6044820152606490fd5b15610d1757565b60405162461bcd60e51b815260206004820152601060248201526f53503a207a65726f206164647265737360801b6044820152606490fd5b6001600160a01b03165f9081526003602052604090205415610d6d57565b565b5f82815260066020526040902054610d91906001600160a01b03161515610c82565b6001600160a01b0381165f8181526003602052604090205490918115610f1457835f52600560205260405f205491835f52600460205260405f20855f52602052610ddf60405f205484610b69565b908115610f0c57670de0b6b3a764000091610df991610c06565b0491835f52600460205260405f20855f5260205260405f205581610e1e575b50505050565b5f84815260066020908152604080832054905163a9059cbb60e01b81526001600160a01b039485166004820152602481018690529391928492604492849291165af1908115610751575f91610eed575b5015610ea85760207f85e429e8a0bf56d9ab471a80ddf210f520769a1bda3ee3946bab002feb6d0e8d91604051908152a35f808080610e18565b60405162461bcd60e51b815260206004820152601a60248201527f53503a20636f6c6c61746572616c2073656e64206661696c65640000000000006044820152606490fd5b610f06915060203d6020116102df576102d18183610b76565b5f610e6e565b505050505050565b505090805f52600560205260405f2054915f52600460205260405f20905f5260205260405f205556fea26469706673582212201a9c3abe876d9c9b8452411c607aa7e460e6c7bc93157829b520f4d2df29128a64736f6c634300082100330000000000000000000000006b99600dad0a1998337357696827381d122825f3000000000000000000000000f39fd6e51aad88f6f4ce6ab8827279cfffb92266",
        "nonce": "0x3f1",
        "chainId": "0xa455"
      },
      "additionalContracts": [],
      "isFixedGasLimit": false
    },
    {
      "hash": "0x10653270ff510acbf23727cfbb738fe4bfae1ebb73af5be33611d2d0f7894084",
      "transactionType": "CALL",
      "contractName": "StabilityPool",
      "contractAddress": "0x56cb5406c23d0fb16eac535d6108ca72980c8072",
      "function": "setVaultManager(address)",
      "arguments": [
        "0xcfbD78F3D57B620ddEff73F193dD5Bf595a730db"
      ],
      "transaction": {
        "from": "0xf39fd6e51aad88f6f4ce6ab8827279cfffb92266",
        "to": "0x56cb5406c23d0fb16eac535d6108ca72980c8072",
        "gas": "0xffd9",
        "value": "0x0",
        "input": "0xb543503e000000000000000000000000cfbd78f3d57b620ddeff73f193dd5bf595a730db",
        "nonce": "0x3f2",
        "chainId": "0xa455"
      },
      "additionalContracts": [],
      "isFixedGasLimit": false
    },
    {
      "hash": "0xce390388921e14a81b8beb77dfeca199e0f68e650aaf32b6cd1087e1e562d7ea",
      "transactionType": "CALL",
      "contractName": "StabilityPool",
      "contractAddress": "0x56cb5406c23d0fb16eac535d6108ca72980c8072",
      "function": "registerCollateralToken(bytes32,address)",
      "arguments": [
        "0x4554480000000000000000000000000000000000000000000000000000000000",
        "0x7314AEeC874A25A1131F49dA9679D05f8d931175"
      ],
      "transaction": {
        "from": "0xf39fd6e51aad88f6f4ce6ab8827279cfffb92266",
        "to": "0x56cb5406c23d0fb16eac535d6108ca72980c8072",
        "gas": "0x10206",
        "value": "0x0",
        "input": "0x9ff5526345544800000000000000000000000000000000000000000000000000000000000000000000000000000000007314aeec874a25a1131f49da9679d05f8d931175",
        "nonce": "0x3f3",
        "chainId": "0xa455"
      },
      "additionalContracts": [],
      "isFixedGasLimit": false
    },
    {
      "hash": "0xd822e19cb2babf28b11f17ee1ef009a29759c51ac4a2f892c791e0541265d292",
      "transactionType": "CALL",
      "contractName": "StabilityPool",
      "contractAddress": "0x56cb5406c23d0fb16eac535d6108ca72980c8072",
      "function": "registerCollateralToken(bytes32,address)",
      "arguments": [
        "0x4744000000000000000000000000000000000000000000000000000000000000",
        "0x132F7D9033b28B08cbc520e1cfD83c6dA3abfA36"
      ],
      "transaction": {
        "from": "0xf39fd6e51aad88f6f4ce6ab8827279cfffb92266",
        "to": "0x56cb5406c23d0fb16eac535d6108ca72980c8072",
        "gas": "0x11123",
        "value": "0x0",
        "input": "0x9ff552634744000000000000000000000000000000000000000000000000000000000000000000000000000000000000132f7d9033b28b08cbc520e1cfd83c6da3abfa36",
        "nonce": "0x3f4",
        "chainId": "0xa455"
      },
      "additionalContracts": [],
      "isFixedGasLimit": false
    },
    {
      "hash": "0xfe09809edafdaeb5dccfe8177aa65fa05c33bfbfdb4271f18911d53fa7c187be",
      "transactionType": "CALL",
      "contractName": "StabilityPool",
      "contractAddress": "0x56cb5406c23d0fb16eac535d6108ca72980c8072",
      "function": "registerCollateralToken(bytes32,address)",
      "arguments": [
        "0x5553444300000000000000000000000000000000000000000000000000000000",
        "0xD604C06206f6DeDd82d42F90D1F5bB34a2E7c5dd"
      ],
      "transaction": {
        "from": "0xf39fd6e51aad88f6f4ce6ab8827279cfffb92266",
        "to": "0x56cb5406c23d0fb16eac535d6108ca72980c8072",
        "gas": "0x11146",
        "value": "0x0",
        "input": "0x9ff552635553444300000000000000000000000000000000000000000000000000000000000000000000000000000000d604c06206f6dedd82d42f90d1f5bb34a2e7c5dd",
        "nonce": "0x3f5",
        "chainId": "0xa455"
      },
      "additionalContracts": [],
      "isFixedGasLimit": false
    },
    {
      "hash": "0xf87a5cecba5559b78b5e109ef6975848f9815461c48b3d5e5801028515c24668",
      "transactionType": "CREATE",
      "contractName": "PegStabilityModule",
      "contractAddress": "0xa2a0d69221829d6005e31bb187a0a5debead8331",
      "function": null,
      "arguments": [
        "0x6B99600daD0a1998337357696827381D122825F3",
        "0xD604C06206f6DeDd82d42F90D1F5bB34a2E7c5dd",
        "0xBA6BfBa894B5cAF04c3462A5C8556fFBa4de6782",
        "0xf39Fd6e51aad88F6F4ce6aB8827279cffFb92266"
      ],
      "transaction": {
        "from": "0xf39fd6e51aad88f6f4ce6ab8827279cfffb92266",
        "gas": "0x162b79",
        "value": "0x0",
        "input": "0x60e03461020757601f61148238819003918201601f19168301916001600160401b0383118484101761020b57808492608094604052833981010312610207576100478161021f565b6100536020830161021f565b9161006c60606100656040840161021f565b920161021f565b6001600160a01b039092169283156101d1576001600160a01b031690811561019b576001600160a01b0316918215610161576001600160a01b031692831561012a5760805260a05260c0525f80546001600160a01b031916919091179055600a60015560405161124e908161023482396080518181816101f1015281816108820152610b9a015260a0518181816102bc01528181610648015281816107fb0152610e52015260c05181818161038d0152818161098c0152610d2f0152f35b60405162461bcd60e51b815260206004820152600f60248201526e2829a69d103d32b9379030b236b4b760891b6044820152606490fd5b60405162461bcd60e51b81526020600482015260126024820152712829a69d103d32b9379039b83634ba3a32b960711b6044820152606490fd5b60405162461bcd60e51b815260206004820152600e60248201526d50534d3a207a65726f205553444360901b6044820152606490fd5b60405162461bcd60e51b815260206004820152600e60248201526d1414d34e881e995c9bc819d554d160921b6044820152606490fd5b5f80fd5b634e487b7160e01b5f52604160045260245ffd5b51906001600160a01b03821682036102075756fe6080806040526004361015610012575f80fd5b5f905f3560e01c90816302df9df114610f945750806316c38b3c14610f265780631a1c6e5314610f09578063215f0f9814610eee578063249d39e914610ed25780632660369314610e815780633e413bee14610e3d5780635641bc0714610e205780635c975abb14610dfe578063604b6a9c14610d5e5780636052970c14610d1a57806360c6d8ae14610cfd5780636515e5d814610ce057806375829def14610c655780637d706da014610c0d57806384891c5014610bc95780638c87ee9014610b85578063bf79ef7214610b68578063c1419def14610b4d578063cc9990171461077f578063e478795d1461057f578063eced55261461055f578063ee84f2fe1461014f5763f851a44014610126575f80fd5b3461014c578060031936011261014c57546040516001600160a01b039091168152602090f35b80fd5b503461014c57602036600319011261014c5760043561017060085415611061565b600160085561018460ff6003541615611099565b61018f8115156110d3565b61271061019e60015483611001565b046101a98183611014565b9064e8d4a510008204916101be8315156111b9565b826004541061051a576040516323b872dd60e01b8152336004820152306024820152604481018590526001600160a01b037f000000000000000000000000000000000000000000000000000000000000000016906020816064818a865af190811561050f5787916104f0575b50156104ab578591813b156104a757604051630852cd8d60e31b815260048101829052838160248183875af1908115610487578491610492575b505061027290600754611112565b60075582610376575b505061028982600454611014565b600490815560405163a9059cbb60e01b815233918101919091526024810183905291602083604481886001600160a01b037f0000000000000000000000000000000000000000000000000000000000000000165af192831561036b577f19d6baaf4008076fefde90765b8965de468a3f462d7d146e5a9d1468008c890d9361031891879161033c575b5061116d565b604080519485526020850191909152830152339180606081015b0390a28060085580f35b61035e915060203d602011610364575b610356818361111f565b810190611155565b5f610312565b503d61034c565b6040513d87823e3d90fd5b60405163095ea7b360e01b81526001600160a01b037f000000000000000000000000000000000000000000000000000000000000000016600482018190526024820185905290919060208360448187865af1918215610487576060936104159361046a575b50604051633e5a775160e11b8152600481018790523060248201526001600160a01b03909116604482015293849283919082906064820190565b03925af1801561036b5761043b575b5061043181600554611112565b600555835f61027b565b61045c9060603d606011610463575b610454818361111f565b8101906111fd565b5050610424565b503d61044a565b6104829060203d60201161036457610356818361111f565b6103db565b6040513d86823e3d90fd5b8161049c9161111f565b6104a757825f610264565b8280fd5b60405162461bcd60e51b815260206004820152601960248201527f50534d3a2067555344207472616e73666572206661696c6564000000000000006044820152606490fd5b610509915060203d60201161036457610356818361111f565b5f61022a565b6040513d89823e3d90fd5b60405162461bcd60e51b815260206004820152601a60248201527f50534d3a20696e73756666696369656e742072657365727665730000000000006044820152606490fd5b503461014c578060031936011261014c57602060405164e8d4a510008152f35b503461014c57604036600319011261014c57610599610fae565b6024356105b060018060a01b038454163314610fc4565b6105c46001600160a01b0383161515611021565b600454908181116107425760065460075490818111156107345764e8d4a51000916105ee91611014565b046105f98284611014565b106106ef576106439261060e82602094611014565b600490815560405163a9059cbb60e01b81526001600160a01b0390921690820152602481019190915291829081906044820190565b0381857f00000000000000000000000000000000000000000000000000000000000000006001600160a01b03165af19081156106e45782916106c5575b50156106895780f35b60405162461bcd60e51b81526020600482015260146024820152731414d34e881d1c985b9cd9995c8819985a5b195960621b6044820152606490fd5b6106de915060203d60201161036457610356818361111f565b5f610680565b6040513d84823e3d90fd5b60405162461bcd60e51b815260206004820152601860248201527f50534d3a20756e646572636f6c6c61746572616c697a656400000000000000006044820152606490fd5b505064e8d4a51000846105ee565b60405162461bcd60e51b815260206004820152601560248201527450534d3a206578636565647320726573657276657360581b6044820152606490fd5b5034610ae1576020366003190112610ae1576004356107a060085415611061565b60016008556107b460ff6003541615611099565b80156107c081156110d3565b60025480610af9575b506040516323b872dd60e01b8152336004820152306024820152604481018390526020816064815f6001600160a01b037f0000000000000000000000000000000000000000000000000000000000000000165af18015610ad657610833915f9161033c575061116d565b61083f82600454611112565b60045564e8d4a5100082029082820464e8d4a51000141715610ae55761087561271061086d60015484611001565b048092611014565b6108808115156111b9565b7f00000000000000000000000000000000000000000000000000000000000000006001600160a01b0316803b15610ae1576040516340c10f1960e01b8152336004820152602481018390525f8160448183865af18015610ad657610abd575b50908492916108f082600654611112565b6006558261093b575b506040805194855260208501919091528301525033907fc91682597e50d783bf81329b763263cef72b0cda71f5e617e0bd4b4150f84403908060608101610332565b803b15610ab9576040516340c10f1960e01b815230600482015260248101849052848160448183865af190811561036b578591610aa4575b505060405163095ea7b360e01b81526001600160a01b037f000000000000000000000000000000000000000000000000000000000000000016600482018190526024820185905290919060208360448189865af1918215610a9957606093610a1493610a7c575b50604051633e5a775160e11b8152600481018790523060248201526001600160a01b03909116604482015295869283919082906064820190565b03925af192831561036b577fc91682597e50d783bf81329b763263cef72b0cda71f5e617e0bd4b4150f8440393610a5d575b50610a5382600554611112565b60055584926108f9565b610a759060603d60601161046357610454818361111f565b5050610a46565b610a949060203d60201161036457610356818361111f565b6109da565b6040513d88823e3d90fd5b81610aae9161111f565b610ab957835f610973565b8380fd5b610acc91939295505f9061111f565b5f9390915f6108df565b6040513d5f823e3d90fd5b5f80fd5b634e487b7160e01b5f52601160045260245ffd5b610b0583600454611112565b11610b10575f6107c9565b60405162461bcd60e51b81526020600482015260156024820152741414d34e881cddd85c0818d85c081c995858da1959605a1b6044820152606490fd5b34610ae1575f366003190112610ae157602060405160068152f35b34610ae1575f366003190112610ae1576020600454604051908152f35b34610ae1575f366003190112610ae1576040517f00000000000000000000000000000000000000000000000000000000000000006001600160a01b03168152602090f35b34610ae1576020366003190112610ae157604060043564e8d4a51000610bff612710610bf760015485611001565b048093611014565b049082519182526020820152f35b34610ae1576020366003190112610ae1577f334538d502feb3f0c7fab3f05496f1f17cfd920a1f428b3ff468292cfb0a41046020600435610c5860018060a01b035f54163314610fc4565b80600255604051908152a1005b34610ae1576020366003190112610ae157610c7e610fae565b5f546001600160a01b03811691610c96338414610fc4565b6001600160a01b0316918290610cad821515611021565b7ff8ccb027dfcd135e000e9d45e6cc2d662578a8825d4c45b5e32e0adf67e79ec65f80a36001600160a01b031916175f55005b34610ae1575f366003190112610ae1576020600654604051908152f35b34610ae1575f366003190112610ae1576020600554604051908152f35b34610ae1575f366003190112610ae1576040517f00000000000000000000000000000000000000000000000000000000000000006001600160a01b03168152602090f35b34610ae1576020366003190112610ae157600435610d8660018060a01b035f54163314610fc4565b60c88111610dc5577fb04438781e840362c78ce8cc4b97de7afc9aaccde53ad4c035c61d532474c66060406001548151908152836020820152a1600155005b60405162461bcd60e51b81526020600482015260116024820152700a0a69a7440cccaca40e8dede40d0d2ced607b1b6044820152606490fd5b34610ae1575f366003190112610ae157602060ff600354166040519015158152f35b34610ae1575f366003190112610ae1576020600754604051908152f35b34610ae1575f366003190112610ae1576040517f00000000000000000000000000000000000000000000000000000000000000006001600160a01b03168152602090f35b34610ae1576020366003190112610ae15760043564e8d4a5100081029080820464e8d4a510001490151715610ae557604090610ec561271061086d60015484611001565b9082519182526020820152f35b34610ae1575f366003190112610ae15760206040516127108152f35b34610ae1575f366003190112610ae157602060405160128152f35b34610ae1575f366003190112610ae1576020600154604051908152f35b34610ae1576020366003190112610ae157600435801515809103610ae15760207f0e2fb031ee032dc02d8011dc50b816eb450cf856abd8261680dac74f72165bd291610f7c60018060a01b035f54163314610fc4565b60ff196003541660ff821617600355604051908152a1005b34610ae1575f366003190112610ae1576020906002548152f35b600435906001600160a01b0382168203610ae157565b15610fcb57565b60405162461bcd60e51b815260206004820152600e60248201526d2829a69d103737ba1030b236b4b760911b6044820152606490fd5b81810292918115918404141715610ae557565b91908203918211610ae557565b1561102857565b60405162461bcd60e51b815260206004820152601160248201527050534d3a207a65726f206164647265737360781b6044820152606490fd5b1561106857565b60405162461bcd60e51b81526020600482015260096024820152681499595b9d1c985b9d60ba1b6044820152606490fd5b156110a057565b60405162461bcd60e51b815260206004820152600b60248201526a1414d34e881c185d5cd95960aa1b6044820152606490fd5b156110da57565b60405162461bcd60e51b815260206004820152601060248201526f1414d34e881e995c9bc8185b5bdd5b9d60821b6044820152606490fd5b91908201809211610ae557565b90601f8019910116810190811067ffffffffffffffff82111761114157604052565b634e487b7160e01b5f52604160045260245ffd5b90816020910312610ae157518015158103610ae15790565b1561117457565b60405162461bcd60e51b815260206004820152601960248201527f50534d3a2055534443207472616e73666572206661696c6564000000000000006044820152606490fd5b156111c057565b60405162461bcd60e51b81526020600482015260156024820152741414d34e881bdd5d1c1d5d081d1bdbc81cdb585b1b605a1b6044820152606490fd5b90816060910312610ae157805191604060208301519201519056fea26469706673582212205d8c796a2ebaaa81215a2f46b506b8ff52422ecb7f3a0bb30f6d0f4a4fb2e8ed64736f6c634300082100330000000000000000000000006b99600dad0a1998337357696827381d122825f3000000000000000000000000d604c06206f6dedd82d42f90d1f5bb34a2e7c5dd000000000000000000000000ba6bfba894b5caf04c3462a5c8556ffba4de6782000000000000000000000000f39fd6e51aad88f6f4ce6ab8827279cfffb92266",
        "nonce": "0x3f6",
        "chainId": "0xa455"
      },
      "additionalContracts": [],
      "isFixedGasLimit": false
    },
    {
      "hash": "0x261ec02fc59d5adfb685b2258baa7bef181732abc459a1152b295f372fae6fb9",
      "transactionType": "CALL",
      "contractName": "gUSD",
      "contractAddress": "0x6b99600dad0a1998337357696827381d122825f3",
      "function": "setMinter(address,bool)",
      "arguments": [
        "0xcfbD78F3D57B620ddEff73F193dD5Bf595a730db",
        "true"
      ],
      "transaction": {
        "from": "0xf39fd6e51aad88f6f4ce6ab8827279cfffb92266",
        "to": "0x6b99600dad0a1998337357696827381d122825f3",
        "gas": "0x10306",
        "value": "0x0",
        "input": "0xcf456ae7000000000000000000000000cfbd78f3d57b620ddeff73f193dd5bf595a730db0000000000000000000000000000000000000000000000000000000000000001",
        "nonce": "0x3f7",
        "chainId": "0xa455"
      },
      "additionalContracts": [],
      "isFixedGasLimit": false
    },
    {
      "hash": "0xdcb2fb24345c4f1b0c6ebaa0a6353e33e977009937cb17540bb38eee22c69f38",
      "transactionType": "CALL",
      "contractName": "gUSD",
      "contractAddress": "0x6b99600dad0a1998337357696827381d122825f3",
      "function": "setMinter(address,bool)",
      "arguments": [
        "0xa2a0D69221829d6005E31Bb187A0A5DEBEaD8331",
        "true"
      ],
      "transaction": {
        "from": "0xf39fd6e51aad88f6f4ce6ab8827279cfffb92266",
        "to": "0x6b99600dad0a1998337357696827381d122825f3",
        "gas": "0x10306",
        "value": "0x0",
        "input": "0xcf456ae7000000000000000000000000a2a0d69221829d6005e31bb187a0a5debead83310000000000000000000000000000000000000000000000000000000000000001",
        "nonce": "0x3f8",
        "chainId": "0xa455"
      },
      "additionalContracts": [],
      "isFixedGasLimit": false
    },
    {
      "hash": "0xff461230e4b7f26a08dad2423dbde320560e7d46bc63760052ad37e720a29455",
      "transactionType": "CALL",
      "contractName": "gUSD",
      "contractAddress": "0x6b99600dad0a1998337357696827381d122825f3",
      "function": "setBurner(address,bool)",
      "arguments": [
        "0xcfbD78F3D57B620ddEff73F193dD5Bf595a730db",
        "true"
      ],
      "transaction": {
        "from": "0xf39fd6e51aad88f6f4ce6ab8827279cfffb92266",
        "to": "0x6b99600dad0a1998337357696827381d122825f3",
        "gas": "0x110a1",
        "value": "0x0",
        "input": "0x0d895ee1000000000000000000000000cfbd78f3d57b620ddeff73f193dd5bf595a730db0000000000000000000000000000000000000000000000000000000000000001",
        "nonce": "0x3f9",
        "chainId": "0xa455"
      },
      "additionalContracts": [],
      "isFixedGasLimit": false
    },
    {
      "hash": "0x369327f9624f1c2b7935fd0960e304a5567dcc8a79001716ef98460c711291f8",
      "transactionType": "CALL",
      "contractName": "gUSD",
      "contractAddress": "0x6b99600dad0a1998337357696827381d122825f3",
      "function": "setBurner(address,bool)",
      "arguments": [
        "0xa2a0D69221829d6005E31Bb187A0A5DEBEaD8331",
        "true"
      ],
      "transaction": {
        "from": "0xf39fd6e51aad88f6f4ce6ab8827279cfffb92266",
        "to": "0x6b99600dad0a1998337357696827381d122825f3",
        "gas": "0x110a1",
        "value": "0x0",
        "input": "0x0d895ee1000000000000000000000000a2a0d69221829d6005e31bb187a0a5debead83310000000000000000000000000000000000000000000000000000000000000001",
        "nonce": "0x3fa",
        "chainId": "0xa455"
      },
      "additionalContracts": [],
      "isFixedGasLimit": false
    },
    {
      "hash": "0x42ccac7df1c8e21effb3a7d44b3dadeae66bb4c20e22a06a14444fb89150e143",
      "transactionType": "CALL",
      "contractName": "gUSD",
      "contractAddress": "0x6b99600dad0a1998337357696827381d122825f3",
      "function": "setBurner(address,bool)",
      "arguments": [
        "0x56cB5406C23d0fb16EaC535D6108CA72980c8072",
        "true"
      ],
      "transaction": {
        "from": "0xf39fd6e51aad88f6f4ce6ab8827279cfffb92266",
        "to": "0x6b99600dad0a1998337357696827381d122825f3",
        "gas": "0x110a1",
        "value": "0x0",
        "input": "0x0d895ee100000000000000000000000056cb5406c23d0fb16eac535d6108ca72980c80720000000000000000000000000000000000000000000000000000000000000001",
        "nonce": "0x3fb",
        "chainId": "0xa455"
      },
      "additionalContracts": [],
      "isFixedGasLimit": false
    },
    {
      "hash": "0xb32a311c70d5b909a215abba3df3c3a306eec0802855fc22f35f48dfbc5644ce",
      "transactionType": "CALL",
      "contractName": "VaultManager",
      "contractAddress": "0xcfbd78f3d57b620ddeff73f193dd5bf595a730db",
      "function": "setStabilityPool(address)",
      "arguments": [
        "0x56cB5406C23d0fb16EaC535D6108CA72980c8072"
      ],
      "transaction": {
        "from": "0xf39fd6e51aad88f6f4ce6ab8827279cfffb92266",
        "to": "0xcfbd78f3d57b620ddeff73f193dd5bf595a730db",
        "gas": "0x10f65",
        "value": "0x0",
        "input": "0x98d721e000000000000000000000000056cb5406c23d0fb16eac535d6108ca72980c8072",
        "nonce": "0x3fc",
        "chainId": "0xa455"
      },
      "additionalContracts": [],
      "isFixedGasLimit": false
    },
    {
      "hash": "0xd0a2483b290bdb736b815094b52d90a88796ec5c0afe0b8ecba15236c0c10eae",
      "transactionType": "CALL",
      "contractName": "MockWETH18",
      "contractAddress": "0x7314aeec874a25a1131f49da9679d05f8d931175",
      "function": "mint(address,uint256)",
      "arguments": [
        "0xf39Fd6e51aad88F6F4ce6aB8827279cffFb92266",
        "100000000000000000000"
      ],
      "transaction": {
        "from": "0xf39fd6e51aad88f6f4ce6ab8827279cfffb92266",
        "to": "0x7314aeec874a25a1131f49da9679d05f8d931175",
        "gas": "0x18594",
        "value": "0x0",
        "input": "0x40c10f19000000000000000000000000f39fd6e51aad88f6f4ce6ab8827279cfffb922660000000000000000000000000000000000000000000000056bc75e2d63100000",
        "nonce": "0x3fd",
        "chainId": "0xa455"
      },
      "additionalContracts": [],
      "isFixedGasLimit": false
    },
    {
      "hash": "0xf398c0e5d289c4bc5cdf1f02ec094974745d65b353c556ab570c76c75d74d3b0",
      "transactionType": "CALL",
      "contractName": "MockUSDC6",
      "contractAddress": "0xd604c06206f6dedd82d42f90d1f5bb34a2e7c5dd",
      "function": "mint(address,uint256)",
      "arguments": [
        "0xf39Fd6e51aad88F6F4ce6aB8827279cffFb92266",
        "1000000000000"
      ],
      "transaction": {
        "from": "0xf39fd6e51aad88f6f4ce6ab8827279cfffb92266",
        "to": "0xd604c06206f6dedd82d42f90d1f5bb34a2e7c5dd",
        "gas": "0x16fbc",
        "value": "0x0",
        "input": "0x40c10f19000000000000000000000000f39fd6e51aad88f6f4ce6ab8827279cfffb92266000000000000000000000000000000000000000000000000000000e8d4a51000",
        "nonce": "0x3fe",
        "chainId": "0xa455"
      },
      "additionalContracts": [],
      "isFixedGasLimit": false
    },
    {
      "hash": "0x46bd9d1f33c0782a7a555c0c57155befaf413191bb11aeb1ad900fb4d73949ee",
      "transactionType": "CALL",
      "contractName": "MockGD18",
      "contractAddress": "0x132f7d9033b28b08cbc520e1cfd83c6da3abfa36",
      "function": "mint(address,uint256)",
      "arguments": [
        "0xf39Fd6e51aad88F6F4ce6aB8827279cffFb92266",
        "100000000000000000000000000"
      ],
      "transaction": {
        "from": "0xf39fd6e51aad88f6f4ce6ab8827279cfffb92266",
        "to": "0x132f7d9033b28b08cbc520e1cfd83c6da3abfa36",
        "gas": "0x16fff",
        "value": "0x0",
        "input": "0x40c10f19000000000000000000000000f39fd6e51aad88f6f4ce6ab8827279cfffb9226600000000000000000000000000000000000000000052b7d2dcc80cd2e4000000",
        "nonce": "0x3ff",
        "chainId": "0xa455"
      },
      "additionalContracts": [],
      "isFixedGasLimit": false
    },
    {
      "hash": "0xe4de363574bc07c35b71dfc089654d8da3f5d11c90da1e5edbf5b8df55182fc5",
      "transactionType": "CALL",
      "contractName": "MockWETH18",
      "contractAddress": "0x7314aeec874a25a1131f49da9679d05f8d931175",
      "function": "approve(address,uint256)",
      "arguments": [
        "0xcfbD78F3D57B620ddEff73F193dD5Bf595a730db",
        "10000000000000000000"
      ],
      "transaction": {
        "from": "0xf39fd6e51aad88f6f4ce6ab8827279cfffb92266",
        "to": "0x7314aeec874a25a1131f49da9679d05f8d931175",
        "gas": "0x1066e",
        "value": "0x0",
        "input": "0x095ea7b3000000000000000000000000cfbd78f3d57b620ddeff73f193dd5bf595a730db0000000000000000000000000000000000000000000000008ac7230489e80000",
        "nonce": "0x400",
        "chainId": "0xa455"
      },
      "additionalContracts": [],
      "isFixedGasLimit": false
    },
    {
      "hash": "0xbd29caa548429514b96201500a1c8f73a279f17c34b59b5d39da50a1c72f8de4",
      "transactionType": "CALL",
      "contractName": "VaultManager",
      "contractAddress": "0xcfbd78f3d57b620ddeff73f193dd5bf595a730db",
      "function": "depositCollateral(bytes32,uint256)",
      "arguments": [
        "0x4554480000000000000000000000000000000000000000000000000000000000",
        "10000000000000000000"
      ],
      "transaction": {
        "from": "0xf39fd6e51aad88f6f4ce6ab8827279cfffb92266",
        "to": "0xcfbd78f3d57b620ddeff73f193dd5bf595a730db",
        "gas": "0x31c34",
        "value": "0x0",
        "input": "0xdea9b46445544800000000000000000000000000000000000000000000000000000000000000000000000000000000000000000000000000000000008ac7230489e80000",
        "nonce": "0x401",
        "chainId": "0xa455"
      },
      "additionalContracts": [],
      "isFixedGasLimit": false
    },
    {
      "hash": "0x6204bac9acf4abe708eb071dd0abf6fddbe18eb625d2322dcb3d16b941e8b815",
      "transactionType": "CALL",
      "contractName": "VaultManager",
      "contractAddress": "0xcfbd78f3d57b620ddeff73f193dd5bf595a730db",
      "function": "mintGUSD(bytes32,uint256)",
      "arguments": [
        "0x4554480000000000000000000000000000000000000000000000000000000000",
        "5000000000000000000000"
      ],
      "transaction": {
        "from": "0xf39fd6e51aad88f6f4ce6ab8827279cfffb92266",
        "to": "0xcfbd78f3d57b620ddeff73f193dd5bf595a730db",
        "gas": "0x42ad0",
        "value": "0x0",
        "input": "0x468c9bd1455448000000000000000000000000000000000000000000000000000000000000000000000000000000000000000000000000000000010f0cf064dd59200000",
        "nonce": "0x402",
        "chainId": "0xa455"
      },
      "additionalContracts": [],
      "isFixedGasLimit": false
    },
    {
      "hash": "0x3e24cd0e2dc0f90652d7d9a813a4f7fb31e5ccc60ff5fc363d8c4247a4ae35e1",
      "transactionType": "CALL",
      "contractName": "MockUSDC6",
      "contractAddress": "0xd604c06206f6dedd82d42f90d1f5bb34a2e7c5dd",
      "function": "approve(address,uint256)",
      "arguments": [
        "0xa2a0D69221829d6005E31Bb187A0A5DEBEaD8331",
        "100000000000"
      ],
      "transaction": {
        "from": "0xf39fd6e51aad88f6f4ce6ab8827279cfffb92266",
        "to": "0xd604c06206f6dedd82d42f90d1f5bb34a2e7c5dd",
        "gas": "0x1064b",
        "value": "0x0",
        "input": "0x095ea7b3000000000000000000000000a2a0d69221829d6005e31bb187a0a5debead8331000000000000000000000000000000000000000000000000000000174876e800",
        "nonce": "0x403",
        "chainId": "0xa455"
      },
      "additionalContracts": [],
      "isFixedGasLimit": false
    },
    {
      "hash": "0x9492192df6484de5fcc30b0052c5b3c0a8661bc848d1c4e85963c816f62cd8c3",
      "transactionType": "CALL",
      "contractName": "PegStabilityModule",
      "contractAddress": "0xa2a0d69221829d6005e31bb187a0a5debead8331",
      "function": "swapUSDCForGUSD(uint256)",
      "arguments": [
        "100000000000"
      ],
      "transaction": {
        "from": "0xf39fd6e51aad88f6f4ce6ab8827279cfffb92266",
        "to": "0xa2a0d69221829d6005e31bb187a0a5debead8331",
        "gas": "0x61c64",
        "value": "0x0",
        "input": "0xcc999017000000000000000000000000000000000000000000000000000000174876e800",
        "nonce": "0x404",
        "chainId": "0xa455"
      },
      "additionalContracts": [],
      "isFixedGasLimit": false
    },
    {
      "hash": "0xdfb70a5588481a95d129d76edb5cfc61cb1139d7af0963e8995cef792a1b4133",
      "transactionType": "CALL",
      "contractName": "gUSD",
      "contractAddress": "0x6b99600dad0a1998337357696827381d122825f3",
      "function": "approve(address,uint256)",
      "arguments": [
        "0x56cB5406C23d0fb16EaC535D6108CA72980c8072",
        "2000000000000000000000"
      ],
      "transaction": {
        "from": "0xf39fd6e51aad88f6f4ce6ab8827279cfffb92266",
        "to": "0x6b99600dad0a1998337357696827381d122825f3",
        "gas": "0x1066e",
        "value": "0x0",
        "input": "0x095ea7b300000000000000000000000056cb5406c23d0fb16eac535d6108ca72980c807200000000000000000000000000000000000000000000006c6b935b8bbd400000",
        "nonce": "0x405",
        "chainId": "0xa455"
      },
      "additionalContracts": [],
      "isFixedGasLimit": false
    },
    {
      "hash": "0x5340be7bb9fdbc4e285e7d54b59a38482ce015c4826f22323e334ea19dc1a9aa",
      "transactionType": "CALL",
      "contractName": "StabilityPool",
      "contractAddress": "0x56cb5406c23d0fb16eac535d6108ca72980c8072",
      "function": "deposit(uint256)",
      "arguments": [
        "2000000000000000000000"
      ],
      "transaction": {
        "from": "0xf39fd6e51aad88f6f4ce6ab8827279cfffb92266",
        "to": "0x56cb5406c23d0fb16eac535d6108ca72980c8072",
        "gas": "0x28a43",
        "value": "0x0",
        "input": "0xb6b55f2500000000000000000000000000000000000000000000006c6b935b8bbd400000",
        "nonce": "0x406",
        "chainId": "0xa455"
      },
      "additionalContracts": [],
      "isFixedGasLimit": false
    }
  ],
  "receipts": [
    {
      "status": "0x1",
      "cumulativeGasUsed": "0x5ac8e",
      "logs": [],
      "logsBloom": "0x00000000000000000000000000000000000000000000000000000000000000000000000000000000000000000000000000000000000000000000000000000000000000000000000000000000000000000000000000000000000000000000000000000000000000000000000000000000000000000000000000000000000000000000000000000000000000000000000000000000000000000000000000000000000000000000000000000000000000000000000000000000000000000000000000000000000000000000000000000000000000000000000000000000000000000000000000000000000000000000000000000000000000000000000000000000",
      "type": "0x2",
      "transactionHash": "0xc6a2b386813ea2d3b7aa482ad412be1da1f996cd9798afc06cd0e9979202a3da",
      "transactionIndex": "0x0",
      "blockHash": "0x9451377b7260bca3b4641831f4a9ee8c17546ed785277c5c5cfe200a80d761cf",
      "blockNumber": "0xe9a1",
      "gasUsed": "0x5ac8e",
      "effectiveGasPrice": "0x8",
      "blobGasPrice": "0x1",
      "from": "0xf39fd6e51aad88f6f4ce6ab8827279cfffb92266",
      "to": null,
      "contractAddress": "0x7314aeec874a25a1131f49da9679d05f8d931175",
      "blockTimestamp": 1775321448
    },
    {
      "status": "0x1",
      "cumulativeGasUsed": "0xb54dd",
      "logs": [],
      "logsBloom": "0x00000000000000000000000000000000000000000000000000000000000000000000000000000000000000000000000000000000000000000000000000000000000000000000000000000000000000000000000000000000000000000000000000000000000000000000000000000000000000000000000000000000000000000000000000000000000000000000000000000000000000000000000000000000000000000000000000000000000000000000000000000000000000000000000000000000000000000000000000000000000000000000000000000000000000000000000000000000000000000000000000000000000000000000000000000000",
      "type": "0x2",
      "transactionHash": "0xeacb918b1179f9cc96c4cdf7ce1fb0fed82b5934ecfc0c1c026dc8ef32064b7f",
      "transactionIndex": "0x1",
      "blockHash": "0x9451377b7260bca3b4641831f4a9ee8c17546ed785277c5c5cfe200a80d761cf",
      "blockNumber": "0xe9a1",
      "gasUsed": "0x5a84f",
      "effectiveGasPrice": "0x8",
      "blobGasPrice": "0x1",
      "from": "0xf39fd6e51aad88f6f4ce6ab8827279cfffb92266",
      "to": null,
      "contractAddress": "0xd604c06206f6dedd82d42f90d1f5bb34a2e7c5dd",
      "blockTimestamp": 1775321448
    },
    {
      "status": "0x1",
      "cumulativeGasUsed": "0x10fd2c",
      "logs": [],
      "logsBloom": "0x00000000000000000000000000000000000000000000000000000000000000000000000000000000000000000000000000000000000000000000000000000000000000000000000000000000000000000000000000000000000000000000000000000000000000000000000000000000000000000000000000000000000000000000000000000000000000000000000000000000000000000000000000000000000000000000000000000000000000000000000000000000000000000000000000000000000000000000000000000000000000000000000000000000000000000000000000000000000000000000000000000000000000000000000000000000",
      "type": "0x2",
      "transactionHash": "0x851553bd46aa5f61eb7ee760d2b5fd86825a203b6f698f2c87626b1ac1ca53a5",
      "transactionIndex": "0x2",
      "blockHash": "0x9451377b7260bca3b4641831f4a9ee8c17546ed785277c5c5cfe200a80d761cf",
      "blockNumber": "0xe9a1",
      "gasUsed": "0x5a84f",
      "effectiveGasPrice": "0x8",
      "blobGasPrice": "0x1",
      "from": "0xf39fd6e51aad88f6f4ce6ab8827279cfffb92266",
      "to": null,
      "contractAddress": "0x132f7d9033b28b08cbc520e1cfd83c6da3abfa36",
      "blockTimestamp": 1775321448
    },
    {
      "status": "0x1",
      "cumulativeGasUsed": "0x126bcf",
      "logs": [],
      "logsBloom": "0x00000000000000000000000000000000000000000000000000000000000000000000000000000000000000000000000000000000000000000000000000000000000000000000000000000000000000000000000000000000000000000000000000000000000000000000000000000000000000000000000000000000000000000000000000000000000000000000000000000000000000000000000000000000000000000000000000000000000000000000000000000000000000000000000000000000000000000000000000000000000000000000000000000000000000000000000000000000000000000000000000000000000000000000000000000000",
      "type": "0x2",
      "transactionHash": "0x9bf3182bf6bcf6b4582beac8f6cc8c633fccfb4da8cd070d0d6533793ae30f86",
      "transactionIndex": "0x3",
      "blockHash": "0x9451377b7260bca3b4641831f4a9ee8c17546ed785277c5c5cfe200a80d761cf",
      "blockNumber": "0xe9a1",
      "gasUsed": "0x16ea3",
      "effectiveGasPrice": "0x8",
      "blobGasPrice": "0x1",
      "from": "0xf39fd6e51aad88f6f4ce6ab8827279cfffb92266",
      "to": null,
      "contractAddress": "0xb719422a0a484025c1a22a8deeafc67e81f43cfd",
      "blockTimestamp": 1775321448
    },
    {
      "status": "0x1",
      "cumulativeGasUsed": "0x1316aa",
      "logs": [],
      "logsBloom": "0x00000000000000000000000000000000000000000000000000000000000000000000000000000000000000000000000000000000000000000000000000000000000000000000000000000000000000000000000000000000000000000000000000000000000000000000000000000000000000000000000000000000000000000000000000000000000000000000000000000000000000000000000000000000000000000000000000000000000000000000000000000000000000000000000000000000000000000000000000000000000000000000000000000000000000000000000000000000000000000000000000000000000000000000000000000000",
      "type": "0x2",
      "transactionHash": "0x724b2ea85acd110bb6568be0bc4dc2f4430db79f01bbcf37e4ad8f52c341ff69",
      "transactionIndex": "0x4",
      "blockHash": "0x9451377b7260bca3b4641831f4a9ee8c17546ed785277c5c5cfe200a80d761cf",
      "blockNumber": "0xe9a1",
      "gasUsed": "0xaadb",
      "effectiveGasPrice": "0x8",
      "blobGasPrice": "0x1",
      "from": "0xf39fd6e51aad88f6f4ce6ab8827279cfffb92266",
      "to": "0xb719422a0a484025c1a22a8deeafc67e81f43cfd",
      "contractAddress": null,
      "blockTimestamp": 1775321448
    },
    {
      "status": "0x1",
      "cumulativeGasUsed": "0x13c16d",
      "logs": [],
      "logsBloom": "0x00000000000000000000000000000000000000000000000000000000000000000000000000000000000000000000000000000000000000000000000000000000000000000000000000000000000000000000000000000000000000000000000000000000000000000000000000000000000000000000000000000000000000000000000000000000000000000000000000000000000000000000000000000000000000000000000000000000000000000000000000000000000000000000000000000000000000000000000000000000000000000000000000000000000000000000000000000000000000000000000000000000000000000000000000000000",
      "type": "0x2",
      "transactionHash": "0x9fcda5234840f900487b2bed63a58d0e182f7d165caea2752df28b8a13f33037",
      "transactionIndex": "0x5",
      "blockHash": "0x9451377b7260bca3b4641831f4a9ee8c17546ed785277c5c5cfe200a80d761cf",
      "blockNumber": "0xe9a1",
      "gasUsed": "0xaac3",
      "effectiveGasPrice": "0x8",
      "blobGasPrice": "0x1",
      "from": "0xf39fd6e51aad88f6f4ce6ab8827279cfffb92266",
      "to": "0xb719422a0a484025c1a22a8deeafc67e81f43cfd",
      "contractAddress": null,
      "blockTimestamp": 1775321448
    },
    {
      "status": "0x1",
      "cumulativeGasUsed": "0x146c48",
      "logs": [],
      "logsBloom": "0x00000000000000000000000000000000000000000000000000000000000000000000000000000000000000000000000000000000000000000000000000000000000000000000000000000000000000000000000000000000000000000000000000000000000000000000000000000000000000000000000000000000000000000000000000000000000000000000000000000000000000000000000000000000000000000000000000000000000000000000000000000000000000000000000000000000000000000000000000000000000000000000000000000000000000000000000000000000000000000000000000000000000000000000000000000000",
      "type": "0x2",
      "transactionHash": "0x3247dbec71384df2be846f52e9a65b393940aef4a4a379b496f67a4996f1404f",
      "transactionIndex": "0x6",
      "blockHash": "0x9451377b7260bca3b4641831f4a9ee8c17546ed785277c5c5cfe200a80d761cf",
      "blockNumber": "0xe9a1",
      "gasUsed": "0xaadb",
      "effectiveGasPrice": "0x8",
      "blobGasPrice": "0x1",
      "from": "0xf39fd6e51aad88f6f4ce6ab8827279cfffb92266",
      "to": "0xb719422a0a484025c1a22a8deeafc67e81f43cfd",
      "contractAddress": null,
      "blockTimestamp": 1775321448
    },
    {
      "status": "0x1",
      "cumulativeGasUsed": "0x205bbc",
      "logs": [],
      "logsBloom": "0x00000000000000000000000000000000000000000000000000000000000000000000000000000000000000000000000000000000000000000000000000000000000000000000000000000000000000000000000000000000000000000000000000000000000000000000000000000000000000000000000000000000000000000000000000000000000000000000000000000000000000000000000000000000000000000000000000000000000000000000000000000000000000000000000000000000000000000000000000000000000000000000000000000000000000000000000000000000000000000000000000000000000000000000000000000000",
      "type": "0x2",
      "transactionHash": "0x11b3f4e5a78a60cc468ff61169c9fa789f6de3d931aa41fbd9cc006cf0017226",
      "transactionIndex": "0x7",
      "blockHash": "0x9451377b7260bca3b4641831f4a9ee8c17546ed785277c5c5cfe200a80d761cf",
      "blockNumber": "0xe9a1",
      "gasUsed": "0xbef74",
      "effectiveGasPrice": "0x8",
      "blobGasPrice": "0x1",
      "from": "0xf39fd6e51aad88f6f4ce6ab8827279cfffb92266",
      "to": null,
      "contractAddress": "0x6b99600dad0a1998337357696827381d122825f3",
      "blockTimestamp": 1775321448
    },
    {
      "status": "0x1",
      "cumulativeGasUsed": "0x243697",
      "logs": [],
      "logsBloom": "0x00000000000000000000000000000000000000000000000000000000000000000000000000000000000000000000000000000000000000000000000000000000000000000000000000000000000000000000000000000000000000000000000000000000000000000000000000000000000000000000000000000000000000000000000000000000000000000000000000000000000000000000000000000000000000000000000000000000000000000000000000000000000000000000000000000000000000000000000000000000000000000000000000000000000000000000000000000000000000000000000000000000000000000000000000000000",
      "type": "0x2",
      "transactionHash": "0xa391fb7d5f15e373707db99701bdeea0528d5bf2495b3372759fa097e866ba9f",
      "transactionIndex": "0x8",
      "blockHash": "0x9451377b7260bca3b4641831f4a9ee8c17546ed785277c5c5cfe200a80d761cf",
      "blockNumber": "0xe9a1",
      "gasUsed": "0x3dadb",
      "effectiveGasPrice": "0x8",
      "blobGasPrice": "0x1",
      "from": "0xf39fd6e51aad88f6f4ce6ab8827279cfffb92266",
      "to": null,
      "contractAddress": "0xba6bfba894b5caf04c3462a5c8556ffba4de6782",
      "blockTimestamp": 1775321448
    },
    {
      "status": "0x1",
      "cumulativeGasUsed": "0x354f6d",
      "logs": [
        {
          "address": "0xca9507c5f707103e86b45df4b35c37fe2700bb5b",
          "topics": [
            "0xab8ac0e1bd8ac03ac9df93028bd29e1972d82acd99a159a07ac48bcd2b022cbe",
            "0x4554480000000000000000000000000000000000000000000000000000000000"
          ],
          "data": "0x0000000000000000000000007314aeec874a25a1131f49da9679d05f8d93117500000000000000000000000000000000000000000000000014d1120d7b160000",
          "blockHash": "0x9451377b7260bca3b4641831f4a9ee8c17546ed785277c5c5cfe200a80d761cf",
          "blockNumber": "0xe9a1",
          "blockTimestamp": "0x69d14168",
          "transactionHash": "0x10653270ff510acbf23727cfbb738fe4bfae1ebb73af5be33611d2d0f7894084",
          "transactionIndex": "0x9",
          "logIndex": "0x0",
          "removed": false
        },
        {
          "address": "0xca9507c5f707103e86b45df4b35c37fe2700bb5b",
          "topics": [
            "0xab8ac0e1bd8ac03ac9df93028bd29e1972d82acd99a159a07ac48bcd2b022cbe",
            "0x4744000000000000000000000000000000000000000000000000000000000000"
          ],
          "data": "0x000000000000000000000000132f7d9033b28b08cbc520e1cfd83c6da3abfa360000000000000000000000000000000000000000000000001bc16d674ec80000",
          "blockHash": "0x9451377b7260bca3b4641831f4a9ee8c17546ed785277c5c5cfe200a80d761cf",
          "blockNumber": "0xe9a1",
          "blockTimestamp": "0x69d14168",
          "transactionHash": "0x10653270ff510acbf23727cfbb738fe4bfae1ebb73af5be33611d2d0f7894084",
          "transactionIndex": "0x9",
          "logIndex": "0x1",
          "removed": false
        },
        {
          "address": "0xca9507c5f707103e86b45df4b35c37fe2700bb5b",
          "topics": [
            "0xab8ac0e1bd8ac03ac9df93028bd29e1972d82acd99a159a07ac48bcd2b022cbe",
            "0x5553444300000000000000000000000000000000000000000000000000000000"
          ],
          "data": "0x000000000000000000000000d604c06206f6dedd82d42f90d1f5bb34a2e7c5dd0000000000000000000000000000000000000000000000000e043da617250000",
          "blockHash": "0x9451377b7260bca3b4641831f4a9ee8c17546ed785277c5c5cfe200a80d761cf",
          "blockNumber": "0xe9a1",
          "blockTimestamp": "0x69d14168",
          "transactionHash": "0x10653270ff510acbf23727cfbb738fe4bfae1ebb73af5be33611d2d0f7894084",
          "transactionIndex": "0x9",
          "logIndex": "0x2",
          "removed": false
        }
      ],
      "logsBloom": "0x00000000000000000000000000000000000000000000000000000000000000000000000000000000001000000000000000000000000000000000000000000000000800000000000000000000200000000008020000000000000000000000000000000000000000000000000000000000000000000000000000000000000000000000000000000000000000000000800000000000000000000001000000000000000000001000000000000000000000000000000000000000000000000000010050000200000000000000000000000000000000000000000000000000000000000000000000000000000000001000000000000000000000100000000040000000",
      "type": "0x2",
      "transactionHash": "0x10653270ff510acbf23727cfbb738fe4bfae1ebb73af5be33611d2d0f7894084",
      "transactionIndex": "0x9",
      "blockHash": "0x9451377b7260bca3b4641831f4a9ee8c17546ed785277c5c5cfe200a80d761cf",
      "blockNumber": "0xe9a1",
      "gasUsed": "0x1118d6",
      "effectiveGasPrice": "0x8",
      "blobGasPrice": "0x1",
      "from": "0xf39fd6e51aad88f6f4ce6ab8827279cfffb92266",
      "to": null,
      "contractAddress": "0xca9507c5f707103e86b45df4b35c37fe2700bb5b",
      "blockTimestamp": 1775321448
    },
    {
      "status": "0x1",
      "cumulativeGasUsed": "0x58e90b",
      "logs": [],
      "logsBloom": "0x00000000000000000000000000000000000000000000000000000000000000000000000000000000000000000000000000000000000000000000000000000000000000000000000000000000000000000000000000000000000000000000000000000000000000000000000000000000000000000000000000000000000000000000000000000000000000000000000000000000000000000000000000000000000000000000000000000000000000000000000000000000000000000000000000000000000000000000000000000000000000000000000000000000000000000000000000000000000000000000000000000000000000000000000000000000",
      "type": "0x2",
      "transactionHash": "0x04595be0558e1cdda1bea43692b62a54cb7b103cb8113de64a12dcabfaaafd3c",
      "transactionIndex": "0xa",
      "blockHash": "0x9451377b7260bca3b4641831f4a9ee8c17546ed785277c5c5cfe200a80d761cf",
      "blockNumber": "0xe9a1",
      "gasUsed": "0x23999e",
      "effectiveGasPrice": "0x8",
      "blobGasPrice": "0x1",
      "from": "0xf39fd6e51aad88f6f4ce6ab8827279cfffb92266",
      "to": null,
      "contractAddress": "0xcfbd78f3d57b620ddeff73f193dd5bf595a730db",
      "blockTimestamp": 1775321448
    },
    {
      "status": "0x1",
      "cumulativeGasUsed": "0x672dea",
      "logs": [],
      "logsBloom": "0x00000000000000000000000000000000000000000000000000000000000000000000000000000000000000000000000000000000000000000000000000000000000000000000000000000000000000000000000000000000000000000000000000000000000000000000000000000000000000000000000000000000000000000000000000000000000000000000000000000000000000000000000000000000000000000000000000000000000000000000000000000000000000000000000000000000000000000000000000000000000000000000000000000000000000000000000000000000000000000000000000000000000000000000000000000000",
      "type": "0x2",
      "transactionHash": "0xdcb2fb24345c4f1b0c6ebaa0a6353e33e977009937cb17540bb38eee22c69f38",
      "transactionIndex": "0xb",
      "blockHash": "0x9451377b7260bca3b4641831f4a9ee8c17546ed785277c5c5cfe200a80d761cf",
      "blockNumber": "0xe9a1",
      "gasUsed": "0xe44df",
      "effectiveGasPrice": "0x8",
      "blobGasPrice": "0x1",
      "from": "0xf39fd6e51aad88f6f4ce6ab8827279cfffb92266",
      "to": null,
      "contractAddress": "0x56cb5406c23d0fb16eac535d6108ca72980c8072",
      "blockTimestamp": 1775321448
    },
    {
      "status": "0x1",
      "cumulativeGasUsed": "0x67e726",
      "logs": [
        {
          "address": "0x56cb5406c23d0fb16eac535d6108ca72980c8072",
          "topics": [
            "0x8e902340d35762a5a36507c20fe38e5d549a721d9f846d6de7f397b5c26ab853",
            "0x000000000000000000000000cfbd78f3d57b620ddeff73f193dd5bf595a730db"
          ],
          "data": "0x",
          "blockHash": "0x9451377b7260bca3b4641831f4a9ee8c17546ed785277c5c5cfe200a80d761cf",
          "blockNumber": "0xe9a1",
          "blockTimestamp": "0x69d14168",
          "transactionHash": "0xff461230e4b7f26a08dad2423dbde320560e7d46bc63760052ad37e720a29455",
          "transactionIndex": "0xc",
          "logIndex": "0x3",
          "removed": false
        }
      ],
      "logsBloom": "0x00000000000040000000000000000000000800000000000000000000000000000000000000000000000000000000000000000000000000000000000000000000000000000040000000000000000000000000004000000000000000000000000000000000000440000000000000000000000000000000000000000000000000000000000000000000000000000000000000000000000000000000000000000000000000000000000000000000800000000000000000000000000000000000000000000020000000000000000000000000000000000000000000000000000020000000000000000000000000000000000000000000000000000000000000000000",
      "type": "0x2",
      "transactionHash": "0xff461230e4b7f26a08dad2423dbde320560e7d46bc63760052ad37e720a29455",
      "transactionIndex": "0xc",
      "blockHash": "0x9451377b7260bca3b4641831f4a9ee8c17546ed785277c5c5cfe200a80d761cf",
      "blockNumber": "0xe9a1",
      "gasUsed": "0xb93c",
      "effectiveGasPrice": "0x8",
      "blobGasPrice": "0x1",
      "from": "0xf39fd6e51aad88f6f4ce6ab8827279cfffb92266",
      "to": "0x56cb5406c23d0fb16eac535d6108ca72980c8072",
      "contractAddress": null,
      "blockTimestamp": 1775321448
    },
    {
      "status": "0x1",
      "cumulativeGasUsed": "0x68a1f5",
      "logs": [
        {
          "address": "0x56cb5406c23d0fb16eac535d6108ca72980c8072",
          "topics": [
            "0x7b02323155ee1835f3ad82fb0682024a2f6ea1380e110430fc6eb75fbffc8665",
            "0x4554480000000000000000000000000000000000000000000000000000000000"
          ],
          "data": "0x0000000000000000000000007314aeec874a25a1131f49da9679d05f8d931175",
          "blockHash": "0x9451377b7260bca3b4641831f4a9ee8c17546ed785277c5c5cfe200a80d761cf",
          "blockNumber": "0xe9a1",
          "blockTimestamp": "0x69d14168",
          "transactionHash": "0xd0a2483b290bdb736b815094b52d90a88796ec5c0afe0b8ecba15236c0c10eae",
          "transactionIndex": "0xd",
          "logIndex": "0x4",
          "removed": false
        }
      ],
      "logsBloom": "0x00000000000000000000000000000008000800000000000000000000000000000000000000000000000000000000000000000000000004000000000000000000000800000040000000000000200000000000000000000000000000000000000000000000000040000000000000000000000000000000000000000040000000000000000000000000000000000000000000000000000000000000000000000000000000000000000000000000000000000000000000000000000000000000000000000000000000000000000000000000000000000000000000000000000000000000000000000000000000000000000000000000000000100000000000000000",
      "type": "0x2",
      "transactionHash": "0xd0a2483b290bdb736b815094b52d90a88796ec5c0afe0b8ecba15236c0c10eae",
      "transactionIndex": "0xd",
      "blockHash": "0x9451377b7260bca3b4641831f4a9ee8c17546ed785277c5c5cfe200a80d761cf",
      "blockNumber": "0xe9a1",
      "gasUsed": "0xbacf",
      "effectiveGasPrice": "0x8",
      "blobGasPrice": "0x1",
      "from": "0xf39fd6e51aad88f6f4ce6ab8827279cfffb92266",
      "to": "0x56cb5406c23d0fb16eac535d6108ca72980c8072",
      "contractAddress": null,
      "blockTimestamp": 1775321448
    },
    {
      "status": "0x1",
      "cumulativeGasUsed": "0x695cb8",
      "logs": [
        {
          "address": "0x56cb5406c23d0fb16eac535d6108ca72980c8072",
          "topics": [
            "0x7b02323155ee1835f3ad82fb0682024a2f6ea1380e110430fc6eb75fbffc8665",
            "0x4744000000000000000000000000000000000000000000000000000000000000"
          ],
          "data": "0x000000000000000000000000132f7d9033b28b08cbc520e1cfd83c6da3abfa36",
          "blockHash": "0x9451377b7260bca3b4641831f4a9ee8c17546ed785277c5c5cfe200a80d761cf",
          "blockNumber": "0xe9a1",
          "blockTimestamp": "0x69d14168",
          "transactionHash": "0xd822e19cb2babf28b11f17ee1ef009a29759c51ac4a2f892c791e0541265d292",
          "transactionIndex": "0xe",
          "logIndex": "0x5",
          "removed": false
        }
      ],
      "logsBloom": "0x00000000000000000000000000000008000800000000000000000000000000000000000000000000000000000000000000000000000004000000000000000000000000000040000000000000000000000000020000000000000000000000000000000000000040000000000000000000000000000000000000000040000000000000000000000000000000000000800000000000000000000000000000000000000000000000000000000000000000000000000000000000000000000000000000000000000000000000000000000000000000000000000000000000000000000000000000000000000000001000000000000000000000000000000000000000",
      "type": "0x2",
      "transactionHash": "0xd822e19cb2babf28b11f17ee1ef009a29759c51ac4a2f892c791e0541265d292",
      "transactionIndex": "0xe",
      "blockHash": "0x9451377b7260bca3b4641831f4a9ee8c17546ed785277c5c5cfe200a80d761cf",
      "blockNumber": "0xe9a1",
      "gasUsed": "0xbac3",
      "effectiveGasPrice": "0x8",
      "blobGasPrice": "0x1",
      "from": "0xf39fd6e51aad88f6f4ce6ab8827279cfffb92266",
      "to": "0x56cb5406c23d0fb16eac535d6108ca72980c8072",
      "contractAddress": null,
      "blockTimestamp": 1775321448
    },
    {
      "status": "0x1",
      "cumulativeGasUsed": "0x6a1793",
      "logs": [
        {
          "address": "0x56cb5406c23d0fb16eac535d6108ca72980c8072",
          "topics": [
            "0x7b02323155ee1835f3ad82fb0682024a2f6ea1380e110430fc6eb75fbffc8665",
            "0x5553444300000000000000000000000000000000000000000000000000000000"
          ],
          "data": "0x000000000000000000000000d604c06206f6dedd82d42f90d1f5bb34a2e7c5dd",
          "blockHash": "0x9451377b7260bca3b4641831f4a9ee8c17546ed785277c5c5cfe200a80d761cf",
          "blockNumber": "0xe9a1",
          "blockTimestamp": "0x69d14168",
          "transactionHash": "0xfebc2a3074544af168ed1c194acd60221667de2feb330328a23f0d57dbd17d4e",
          "transactionIndex": "0xf",
          "logIndex": "0x6",
          "removed": false
        }
      ],
      "logsBloom": "0x00000000000000000000000000000008000800000000000000000000000000000000000000000000001000000000000000000000000004000000000000000000000000000040000000000000000000000000000000000000000000000000000000000000000040000000000000000000000000000000000000000040000000000000000000000000000000000000000000000000000000000000000000000000000000000000000000000000000000000000000000000000000000000000000010000200000000000000000000000000000000000000000000000000000000000000000000000000000000000000000000000000000000000000000000000000",
      "type": "0x2",
      "transactionHash": "0xfebc2a3074544af168ed1c194acd60221667de2feb330328a23f0d57dbd17d4e",
      "transactionIndex": "0xf",
      "blockHash": "0x9451377b7260bca3b4641831f4a9ee8c17546ed785277c5c5cfe200a80d761cf",
      "blockNumber": "0xe9a1",
      "gasUsed": "0xbadb",
      "effectiveGasPrice": "0x8",
      "blobGasPrice": "0x1",
      "from": "0xf39fd6e51aad88f6f4ce6ab8827279cfffb92266",
      "to": "0x56cb5406c23d0fb16eac535d6108ca72980c8072",
      "contractAddress": null,
      "blockTimestamp": 1775321448
    },
    {
      "status": "0x1",
      "cumulativeGasUsed": "0x7b2553",
      "logs": [],
      "logsBloom": "0x00000000000000000000000000000000000000000000000000000000000000000000000000000000000000000000000000000000000000000000000000000000000000000000000000000000000000000000000000000000000000000000000000000000000000000000000000000000000000000000000000000000000000000000000000000000000000000000000000000000000000000000000000000000000000000000000000000000000000000000000000000000000000000000000000000000000000000000000000000000000000000000000000000000000000000000000000000000000000000000000000000000000000000000000000000000",
      "type": "0x2",
      "transactionHash": "0xfe09809edafdaeb5dccfe8177aa65fa05c33bfbfdb4271f18911d53fa7c187be",
      "transactionIndex": "0x10",
      "blockHash": "0x9451377b7260bca3b4641831f4a9ee8c17546ed785277c5c5cfe200a80d761cf",
      "blockNumber": "0xe9a1",
      "gasUsed": "0x110dc0",
      "effectiveGasPrice": "0x8",
      "blobGasPrice": "0x1",
      "from": "0xf39fd6e51aad88f6f4ce6ab8827279cfffb92266",
      "to": null,
      "contractAddress": "0xa2a0d69221829d6005e31bb187a0a5debead8331",
      "blockTimestamp": 1775321448
    },
    {
      "status": "0x1",
      "cumulativeGasUsed": "0x7be0db",
      "logs": [
        {
          "address": "0x6b99600dad0a1998337357696827381d122825f3",
          "topics": [
            "0x583b0aa0e528532caf4b907c11d7a8158a122fe2a6fb80cd9b09776ebea8d92d",
            "0x000000000000000000000000cfbd78f3d57b620ddeff73f193dd5bf595a730db"
          ],
          "data": "0x0000000000000000000000000000000000000000000000000000000000000001",
          "blockHash": "0x9451377b7260bca3b4641831f4a9ee8c17546ed785277c5c5cfe200a80d761cf",
          "blockNumber": "0xe9a1",
          "blockTimestamp": "0x69d14168",
          "transactionHash": "0x8ed9f9969959c0f551968498f478076ce9f676a979ffacb32228a464efe59a67",
          "transactionIndex": "0x11",
          "logIndex": "0x7",
          "removed": false
        }
      ],
      "logsBloom": "0x00000000000040000000000000000000000000000000000000000000000000000002000000000000000000200000000000000000000000000000000000800000000001000000000000000000000000000000004000000000000000000000000000000000000000000000000000000000000000000000000000000000000000000000000000000000000000000000000000000000000000000000000000000000010000000000000000000000800000000000000000000000000000000000000000000000000000000000000000000000000000000000000000000000000000000000000000000000000000000040000000000000000000000000000000000000",
      "type": "0x2",
      "transactionHash": "0x8ed9f9969959c0f551968498f478076ce9f676a979ffacb32228a464efe59a67",
      "transactionIndex": "0x11",
      "blockHash": "0x9451377b7260bca3b4641831f4a9ee8c17546ed785277c5c5cfe200a80d761cf",
      "blockNumber": "0xe9a1",
      "gasUsed": "0xbb88",
      "effectiveGasPrice": "0x8",
      "blobGasPrice": "0x1",
      "from": "0xf39fd6e51aad88f6f4ce6ab8827279cfffb92266",
      "to": "0x6b99600dad0a1998337357696827381d122825f3",
      "contractAddress": null,
      "blockTimestamp": 1775321448
    },
    {
      "status": "0x1",
      "cumulativeGasUsed": "0x7c9c63",
      "logs": [
        {
          "address": "0x6b99600dad0a1998337357696827381d122825f3",
          "topics": [
            "0x583b0aa0e528532caf4b907c11d7a8158a122fe2a6fb80cd9b09776ebea8d92d",
            "0x000000000000000000000000a2a0d69221829d6005e31bb187a0a5debead8331"
          ],
          "data": "0x0000000000000000000000000000000000000000000000000000000000000001",
          "blockHash": "0x9451377b7260bca3b4641831f4a9ee8c17546ed785277c5c5cfe200a80d761cf",
          "blockNumber": "0xe9a1",
          "blockTimestamp": "0x69d14168",
          "transactionHash": "0xf87a5cecba5559b78b5e109ef6975848f9815461c48b3d5e5801028515c24668",
          "transactionIndex": "0x12",
          "logIndex": "0x8",
          "removed": false
        }
      ],
      "logsBloom": "0x00000000000000000000000000000000000000000000000000000000000000000002000000000000000100200000000000000000000000000000000000800000000001000000000000000000000000000000000000000000000000000000000000000800000000000000000000000000000000000000000000000000000000000000000000000000000000000000000000000000000000000000000000000000010000000000000000000000000000000000000000000000000000000000000000000000000000000000000800000000000000000000000000000000000000000000000000000000000000000040000000000000000000000000000000000000",
      "type": "0x2",
      "transactionHash": "0xf87a5cecba5559b78b5e109ef6975848f9815461c48b3d5e5801028515c24668",
      "transactionIndex": "0x12",
      "blockHash": "0x9451377b7260bca3b4641831f4a9ee8c17546ed785277c5c5cfe200a80d761cf",
      "blockNumber": "0xe9a1",
      "gasUsed": "0xbb88",
      "effectiveGasPrice": "0x8",
      "blobGasPrice": "0x1",
      "from": "0xf39fd6e51aad88f6f4ce6ab8827279cfffb92266",
      "to": "0x6b99600dad0a1998337357696827381d122825f3",
      "contractAddress": null,
      "blockTimestamp": 1775321448
    },
    {
      "status": "0x1",
      "cumulativeGasUsed": "0x7d56cd",
      "logs": [
        {
          "address": "0x6b99600dad0a1998337357696827381d122825f3",
          "topics": [
            "0xd28dc1379d750c7c8137c7ef7b074f62f1361b9becc7f9d77d8c0d6e46a3cd06",
            "0x000000000000000000000000cfbd78f3d57b620ddeff73f193dd5bf595a730db"
          ],
          "data": "0x0000000000000000000000000000000000000000000000000000000000000001",
          "blockHash": "0x9451377b7260bca3b4641831f4a9ee8c17546ed785277c5c5cfe200a80d761cf",
          "blockNumber": "0xe9a1",
          "blockTimestamp": "0x69d14168",
          "transactionHash": "0xce390388921e14a81b8beb77dfeca199e0f68e650aaf32b6cd1087e1e562d7ea",
          "transactionIndex": "0x13",
          "logIndex": "0x9",
          "removed": false
        }
      ],
      "logsBloom": "0x00000000000040000000000000000000000000000000000000000000000000000000000000000000000000200000000000000000000000000000000000800000000000000000000040000000000000000000004000000000000000000000000000000000000000000000000000000000000000000000000000000000000400000000000000000000000000000000000000000000000000000000000000000000010000000000000000800000800000000000000000000000000000000000000000000000000000000000000000000000000000000000000000000000000000000000000000000000000000000000000000000000000000000000000000000000",
      "type": "0x2",
      "transactionHash": "0xce390388921e14a81b8beb77dfeca199e0f68e650aaf32b6cd1087e1e562d7ea",
      "transactionIndex": "0x13",
      "blockHash": "0x9451377b7260bca3b4641831f4a9ee8c17546ed785277c5c5cfe200a80d761cf",
      "blockNumber": "0xe9a1",
      "gasUsed": "0xba6a",
      "effectiveGasPrice": "0x8",
      "blobGasPrice": "0x1",
      "from": "0xf39fd6e51aad88f6f4ce6ab8827279cfffb92266",
      "to": "0x6b99600dad0a1998337357696827381d122825f3",
      "contractAddress": null,
      "blockTimestamp": 1775321448
    },
    {
      "status": "0x1",
      "cumulativeGasUsed": "0x7e1137",
      "logs": [
        {
          "address": "0x6b99600dad0a1998337357696827381d122825f3",
          "topics": [
            "0xd28dc1379d750c7c8137c7ef7b074f62f1361b9becc7f9d77d8c0d6e46a3cd06",
            "0x000000000000000000000000a2a0d69221829d6005e31bb187a0a5debead8331"
          ],
          "data": "0x0000000000000000000000000000000000000000000000000000000000000001",
          "blockHash": "0x9451377b7260bca3b4641831f4a9ee8c17546ed785277c5c5cfe200a80d761cf",
          "blockNumber": "0xe9a1",
          "blockTimestamp": "0x69d14168",
          "transactionHash": "0xdfb70a5588481a95d129d76edb5cfc61cb1139d7af0963e8995cef792a1b4133",
          "transactionIndex": "0x14",
          "logIndex": "0xa",
          "removed": false
        }
      ],
      "logsBloom": "0x00000000000000000000000000000000000000000000000000000000000000000000000000000000000100200000000000000000000000000000000000800000000000000000000040000000000000000000000000000000000000000000000000000800000000000000000000000000000000000000000000000000000400000000000000000000000000000000000000000000000000000000000000000000010000000000000000800000000000000000000000000000000000000000000000000000000000000000000800000000000000000000000000000000000000000000000000000000000000000000000000000000000000000000000000000000",
      "type": "0x2",
      "transactionHash": "0xdfb70a5588481a95d129d76edb5cfc61cb1139d7af0963e8995cef792a1b4133",
      "transactionIndex": "0x14",
      "blockHash": "0x9451377b7260bca3b4641831f4a9ee8c17546ed785277c5c5cfe200a80d761cf",
      "blockNumber": "0xe9a1",
      "gasUsed": "0xba6a",
      "effectiveGasPrice": "0x8",
      "blobGasPrice": "0x1",
      "from": "0xf39fd6e51aad88f6f4ce6ab8827279cfffb92266",
      "to": "0x6b99600dad0a1998337357696827381d122825f3",
      "contractAddress": null,
      "blockTimestamp": 1775321448
    },
    {
      "status": "0x1",
      "cumulativeGasUsed": "0x7ecba1",
      "logs": [
        {
          "address": "0x6b99600dad0a1998337357696827381d122825f3",
          "topics": [
            "0xd28dc1379d750c7c8137c7ef7b074f62f1361b9becc7f9d77d8c0d6e46a3cd06",
            "0x00000000000000000000000056cb5406c23d0fb16eac535d6108ca72980c8072"
          ],
          "data": "0x0000000000000000000000000000000000000000000000000000000000000001",
          "blockHash": "0x9451377b7260bca3b4641831f4a9ee8c17546ed785277c5c5cfe200a80d761cf",
          "blockNumber": "0xe9a1",
          "blockTimestamp": "0x69d14168",
          "transactionHash": "0x3e24cd0e2dc0f90652d7d9a813a4f7fb31e5ccc60ff5fc363d8c4247a4ae35e1",
          "transactionIndex": "0x15",
          "logIndex": "0xb",
          "removed": false
        }
      ],
      "logsBloom": "0x00000000000000000000000000000000000000000004000000000000000000000000000000000000000000200000000000000000000000008000000000800000000000000000000040000000000000000000000000000000000000000000000004000000000000000000000000000000000000000000000000000000000400000000000000000000000000000000000000000000000000000000000000000000010000000000000000800000000000000000000000000000000000000000000000000000000000000000000000000000000000000000000000000000000000000000000000000000000000000000000000000000000000000000000000000000",
      "type": "0x2",
      "transactionHash": "0x3e24cd0e2dc0f90652d7d9a813a4f7fb31e5ccc60ff5fc363d8c4247a4ae35e1",
      "transactionIndex": "0x15",
      "blockHash": "0x9451377b7260bca3b4641831f4a9ee8c17546ed785277c5c5cfe200a80d761cf",
      "blockNumber": "0xe9a1",
      "gasUsed": "0xba6a",
      "effectiveGasPrice": "0x8",
      "blobGasPrice": "0x1",
      "from": "0xf39fd6e51aad88f6f4ce6ab8827279cfffb92266",
      "to": "0x6b99600dad0a1998337357696827381d122825f3",
      "contractAddress": null,
      "blockTimestamp": 1775321448
    },
    {
      "status": "0x1",
      "cumulativeGasUsed": "0x7f8533",
      "logs": [
        {
          "address": "0xcfbd78f3d57b620ddeff73f193dd5bf595a730db",
          "topics": [
            "0x51f43ead43c9a90d53ec229fbf48feb76b24efa7a147089ad9ed34ad384a94d3"
          ],
          "data": "0x00000000000000000000000056cb5406c23d0fb16eac535d6108ca72980c8072",
          "blockHash": "0x9451377b7260bca3b4641831f4a9ee8c17546ed785277c5c5cfe200a80d761cf",
          "blockNumber": "0xe9a1",
          "blockTimestamp": "0x69d14168",
          "transactionHash": "0x9492192df6484de5fcc30b0052c5b3c0a8661bc848d1c4e85963c816f62cd8c3",
          "transactionIndex": "0x16",
          "logIndex": "0xc",
          "removed": false
        }
      ],
      "logsBloom": "0x00000000000000000000000000000000000001000000000000000000000000000000000000000000000000000000000000000000000000000000000000000000000000000000000000000000000000000000000000000000000000000000000000000000000000000000000000000800000000000000000000000000000000000000000000400000000000000000000000004000000000000000000000000000000000000000000000000000000000000000000000000000000000000010000000000000000000000000000000000000000000000000000000200000000000000000000000000000000000000000000000000000000000000000000000000000",
      "type": "0x2",
      "transactionHash": "0x9492192df6484de5fcc30b0052c5b3c0a8661bc848d1c4e85963c816f62cd8c3",
      "transactionIndex": "0x16",
      "blockHash": "0x9451377b7260bca3b4641831f4a9ee8c17546ed785277c5c5cfe200a80d761cf",
      "blockNumber": "0xe9a1",
      "gasUsed": "0xb992",
      "effectiveGasPrice": "0x8",
      "blobGasPrice": "0x1",
      "from": "0xf39fd6e51aad88f6f4ce6ab8827279cfffb92266",
      "to": "0xcfbd78f3d57b620ddeff73f193dd5bf595a730db",
      "contractAddress": null,
      "blockTimestamp": 1775321448
    },
    {
      "status": "0x1",
      "cumulativeGasUsed": "0x808f94",
      "logs": [
        {
          "address": "0x7314aeec874a25a1131f49da9679d05f8d931175",
          "topics": [
            "0xddf252ad1be2c89b69c2b068fc378daa952ba7f163c4a11628f55a4df523b3ef",
            "0x0000000000000000000000000000000000000000000000000000000000000000",
            "0x000000000000000000000000f39fd6e51aad88f6f4ce6ab8827279cfffb92266"
          ],
          "data": "0x0000000000000000000000000000000000000000000000056bc75e2d63100000",
          "blockHash": "0x9451377b7260bca3b4641831f4a9ee8c17546ed785277c5c5cfe200a80d761cf",
          "blockNumber": "0xe9a1",
          "blockTimestamp": "0x69d14168",
          "transactionHash": "0x261ec02fc59d5adfb685b2258baa7bef181732abc459a1152b295f372fae6fb9",
          "transactionIndex": "0x17",
          "logIndex": "0xd",
          "removed": false
        }
      ],
      "logsBloom": "0x00040000000000000000000000000000000000000000000000000000000000000000000000000000000000000000000000000000000000000000000000000000000000000000000000000008000000000000000000000000000000000000000000000000020000000000000100000800000000000000000000000010000000000000000000000000000000000000000000000000000000000000000000000000000000000000000000000000000000000000000000000000000000000000000000000002000000200000000000000000100000002000000000000000000020000000000000000000000000000000000000000000000000000020000000000000",
      "type": "0x2",
      "transactionHash": "0x261ec02fc59d5adfb685b2258baa7bef181732abc459a1152b295f372fae6fb9",
      "transactionIndex": "0x17",
      "blockHash": "0x9451377b7260bca3b4641831f4a9ee8c17546ed785277c5c5cfe200a80d761cf",
      "blockNumber": "0xe9a1",
      "gasUsed": "0x10a61",
      "effectiveGasPrice": "0x8",
      "blobGasPrice": "0x1",
      "from": "0xf39fd6e51aad88f6f4ce6ab8827279cfffb92266",
      "to": "0x7314aeec874a25a1131f49da9679d05f8d931175",
      "contractAddress": null,
      "blockTimestamp": 1775321448
    },
    {
      "status": "0x1",
      "cumulativeGasUsed": "0x8199d1",
      "logs": [
        {
          "address": "0xd604c06206f6dedd82d42f90d1f5bb34a2e7c5dd",
          "topics": [
            "0xddf252ad1be2c89b69c2b068fc378daa952ba7f163c4a11628f55a4df523b3ef",
            "0x0000000000000000000000000000000000000000000000000000000000000000",
            "0x000000000000000000000000f39fd6e51aad88f6f4ce6ab8827279cfffb92266"
          ],
          "data": "0x000000000000000000000000000000000000000000000000000000e8d4a51000",
          "blockHash": "0x9451377b7260bca3b4641831f4a9ee8c17546ed785277c5c5cfe200a80d761cf",
          "blockNumber": "0xe9a1",
          "blockTimestamp": "0x69d14168",
          "transactionHash": "0xb32a311c70d5b909a215abba3df3c3a306eec0802855fc22f35f48dfbc5644ce",
          "transactionIndex": "0x18",
          "logIndex": "0xe",
          "removed": false
        }
      ],
      "logsBloom": "0x00000000000000000000000000000000000000000000000000000000000000000000000000000000000000000004000000000000000000000000000000000000000000000000000000000008000000000000000000000000000000000000000000000000020000000000000100000800000000000000000000000010000000000000000000000000000000000000000000000000000000000000000000000000000000000000000000000000000000000000000000000000000000000000100000000002000000200000000000000000000000002000000000000000000020000000000000000000000000000000000000000000000001000000000000000000",
      "type": "0x2",
      "transactionHash": "0xb32a311c70d5b909a215abba3df3c3a306eec0802855fc22f35f48dfbc5644ce",
      "transactionIndex": "0x18",
      "blockHash": "0x9451377b7260bca3b4641831f4a9ee8c17546ed785277c5c5cfe200a80d761cf",
      "blockNumber": "0xe9a1",
      "gasUsed": "0x10a3d",
      "effectiveGasPrice": "0x8",
      "blobGasPrice": "0x1",
      "from": "0xf39fd6e51aad88f6f4ce6ab8827279cfffb92266",
      "to": "0xd604c06206f6dedd82d42f90d1f5bb34a2e7c5dd",
      "contractAddress": null,
      "blockTimestamp": 1775321448
    },
    {
      "status": "0x1",
      "cumulativeGasUsed": "0x82a43e",
      "logs": [
        {
          "address": "0x132f7d9033b28b08cbc520e1cfd83c6da3abfa36",
          "topics": [
            "0xddf252ad1be2c89b69c2b068fc378daa952ba7f163c4a11628f55a4df523b3ef",
            "0x0000000000000000000000000000000000000000000000000000000000000000",
            "0x000000000000000000000000f39fd6e51aad88f6f4ce6ab8827279cfffb92266"
          ],
          "data": "0x00000000000000000000000000000000000000000052b7d2dcc80cd2e4000000",
          "blockHash": "0x9451377b7260bca3b4641831f4a9ee8c17546ed785277c5c5cfe200a80d761cf",
          "blockNumber": "0xe9a1",
          "blockTimestamp": "0x69d14168",
          "transactionHash": "0x42ccac7df1c8e21effb3a7d44b3dadeae66bb4c20e22a06a14444fb89150e143",
          "transactionIndex": "0x19",
          "logIndex": "0xf",
          "removed": false
        }
      ],
      "logsBloom": "0x00000000000000000000000000000000000000000000000000000000000000000000000010000000000000000000000000000000000000000000000000000000000000000000000000000008000000000000000000000000000000000000000000000000020000000000000100000800000000000000000000000010000000000000000000000000000000000000000000000000000000000000000000000000000000000000000000000000000000000000000000000000080000000080000000000002000000200000000000000000000000002000000000000000000020000000000000000000000000000000000000000000000000000000000000000000",
      "type": "0x2",
      "transactionHash": "0x42ccac7df1c8e21effb3a7d44b3dadeae66bb4c20e22a06a14444fb89150e143",
      "transactionIndex": "0x19",
      "blockHash": "0x9451377b7260bca3b4641831f4a9ee8c17546ed785277c5c5cfe200a80d761cf",
      "blockNumber": "0xe9a1",
      "gasUsed": "0x10a6d",
      "effectiveGasPrice": "0x8",
      "blobGasPrice": "0x1",
      "from": "0xf39fd6e51aad88f6f4ce6ab8827279cfffb92266",
      "to": "0x132f7d9033b28b08cbc520e1cfd83c6da3abfa36",
      "contractAddress": null,
      "blockTimestamp": 1775321448
    },
    {
      "status": "0x1",
      "cumulativeGasUsed": "0x8357af",
      "logs": [
        {
          "address": "0x7314aeec874a25a1131f49da9679d05f8d931175",
          "topics": [
            "0x8c5be1e5ebec7d5bd14f71427d1e84f3dd0314c0f7b2291e5b200ac8c7c3b925",
            "0x000000000000000000000000f39fd6e51aad88f6f4ce6ab8827279cfffb92266",
            "0x000000000000000000000000cfbd78f3d57b620ddeff73f193dd5bf595a730db"
          ],
          "data": "0x0000000000000000000000000000000000000000000000008ac7230489e80000",
          "blockHash": "0x9451377b7260bca3b4641831f4a9ee8c17546ed785277c5c5cfe200a80d761cf",
          "blockNumber": "0xe9a1",
          "blockTimestamp": "0x69d14168",
          "transactionHash": "0xe4de363574bc07c35b71dfc089654d8da3f5d11c90da1e5edbf5b8df55182fc5",
          "transactionIndex": "0x1a",
          "logIndex": "0x10",
          "removed": false
        }
      ],
      "logsBloom": "0x00040000000040000000000000000000000000000000000000000000000000000000000000000000000000000000000000000000000000000000000000200000000000000000000000000000000000000000004000000000000000000000000000000000000000000000000100000000000000000000000000000000000000000000000000000000000000000000000000000000000000000000000000000000020000000000000000000000800000000000000000000000000000000000000000000000000000200000000000000000100000002000000000000000000000000010000000000000000000000000000000000000000000000020000000000000",
      "type": "0x2",
      "transactionHash": "0xe4de363574bc07c35b71dfc089654d8da3f5d11c90da1e5edbf5b8df55182fc5",
      "transactionIndex": "0x1a",
      "blockHash": "0x9451377b7260bca3b4641831f4a9ee8c17546ed785277c5c5cfe200a80d761cf",
      "blockNumber": "0xe9a1",
      "gasUsed": "0xb371",
      "effectiveGasPrice": "0x8",
      "blobGasPrice": "0x1",
      "from": "0xf39fd6e51aad88f6f4ce6ab8827279cfffb92266",
      "to": "0x7314aeec874a25a1131f49da9679d05f8d931175",
      "contractAddress": null,
      "blockTimestamp": 1775321448
    },
    {
      "status": "0x1",
      "cumulativeGasUsed": "0x85981f",
      "logs": [
        {
          "address": "0x7314aeec874a25a1131f49da9679d05f8d931175",
          "topics": [
            "0xddf252ad1be2c89b69c2b068fc378daa952ba7f163c4a11628f55a4df523b3ef",
            "0x000000000000000000000000f39fd6e51aad88f6f4ce6ab8827279cfffb92266",
            "0x000000000000000000000000cfbd78f3d57b620ddeff73f193dd5bf595a730db"
          ],
          "data": "0x0000000000000000000000000000000000000000000000008ac7230489e80000",
          "blockHash": "0x9451377b7260bca3b4641831f4a9ee8c17546ed785277c5c5cfe200a80d761cf",
          "blockNumber": "0xe9a1",
          "blockTimestamp": "0x69d14168",
          "transactionHash": "0x5340be7bb9fdbc4e285e7d54b59a38482ce015c4826f22323e334ea19dc1a9aa",
          "transactionIndex": "0x1b",
          "logIndex": "0x11",
          "removed": false
        },
        {
          "address": "0xcfbd78f3d57b620ddeff73f193dd5bf595a730db",
          "topics": [
            "0x88df26d296ecbf594c8609f433503d1436d24afe03c0d9e5e29c8f6ed92ef9b4",
            "0x000000000000000000000000f39fd6e51aad88f6f4ce6ab8827279cfffb92266",
            "0x4554480000000000000000000000000000000000000000000000000000000000"
          ],
          "data": "0x0000000000000000000000000000000000000000000000008ac7230489e80000",
          "blockHash": "0x9451377b7260bca3b4641831f4a9ee8c17546ed785277c5c5cfe200a80d761cf",
          "blockNumber": "0xe9a1",
          "blockTimestamp": "0x69d14168",
          "transactionHash": "0x5340be7bb9fdbc4e285e7d54b59a38482ce015c4826f22323e334ea19dc1a9aa",
          "transactionIndex": "0x1b",
          "logIndex": "0x12",
          "removed": false
        }
      ],
      "logsBloom": "0x00040000000040000000000000000000000001000000000000000000000000000000000000000000000000000000000000000000000000000001000000000000000800000080000000000008200000000000004000000000000000000000000000000000000000000000000100000000000000000000000000000010000000000800000000000000000000000000000000004000000000000000000000000000000000000000000000000000800000000000000000000000000000000000000000000002000000200000000000000000100000002000000000200000000000000000000000000000000000000000000000000000000000100020000000000000",
      "type": "0x2",
      "transactionHash": "0x5340be7bb9fdbc4e285e7d54b59a38482ce015c4826f22323e334ea19dc1a9aa",
      "transactionIndex": "0x1b",
      "blockHash": "0x9451377b7260bca3b4641831f4a9ee8c17546ed785277c5c5cfe200a80d761cf",
      "blockNumber": "0xe9a1",
      "gasUsed": "0x24070",
      "effectiveGasPrice": "0x8",
      "blobGasPrice": "0x1",
      "from": "0xf39fd6e51aad88f6f4ce6ab8827279cfffb92266",
      "to": "0xcfbd78f3d57b620ddeff73f193dd5bf595a730db",
      "contractAddress": null,
      "blockTimestamp": 1775321448
    },
    {
      "status": "0x1",
      "cumulativeGasUsed": "0x887191",
      "logs": [
        {
          "address": "0x6b99600dad0a1998337357696827381d122825f3",
          "topics": [
            "0xddf252ad1be2c89b69c2b068fc378daa952ba7f163c4a11628f55a4df523b3ef",
            "0x0000000000000000000000000000000000000000000000000000000000000000",
            "0x000000000000000000000000f39fd6e51aad88f6f4ce6ab8827279cfffb92266"
          ],
          "data": "0x00000000000000000000000000000000000000000000010f0cf064dd59200000",
          "blockHash": "0x9451377b7260bca3b4641831f4a9ee8c17546ed785277c5c5cfe200a80d761cf",
          "blockNumber": "0xe9a1",
          "blockTimestamp": "0x69d14168",
          "transactionHash": "0x46bd9d1f33c0782a7a555c0c57155befaf413191bb11aeb1ad900fb4d73949ee",
          "transactionIndex": "0x1c",
          "logIndex": "0x13",
          "removed": false
        },
        {
          "address": "0xcfbd78f3d57b620ddeff73f193dd5bf595a730db",
          "topics": [
            "0x7ee657a21ac7f39b81c23a6f713ab60c53f4c04479e9a7847c08e2bc69862e80",
            "0x000000000000000000000000f39fd6e51aad88f6f4ce6ab8827279cfffb92266",
            "0x4554480000000000000000000000000000000000000000000000000000000000"
          ],
          "data": "0x00000000000000000000000000000000000000000000010f0cf064dd59200000",
          "blockHash": "0x9451377b7260bca3b4641831f4a9ee8c17546ed785277c5c5cfe200a80d761cf",
          "blockNumber": "0xe9a1",
          "blockTimestamp": "0x69d14168",
          "transactionHash": "0x46bd9d1f33c0782a7a555c0c57155befaf413191bb11aeb1ad900fb4d73949ee",
          "transactionIndex": "0x1c",
          "logIndex": "0x14",
          "removed": false
        }
      ],
      "logsBloom": "0x00000000000000000000000000000000000001000000000000000000000000000000000000000000000000200000000000000000000000000000000000800000000800000000000000000008200000000000000000000000000000000000000000000000020000000000000100000800000000000000000000000010000000000000000000000000000000000020000000004000000000000000000000000000010000000000000000000000000000000000000000000000000000000000000000001002000000200000000000000000000000002000000000200000000020000000000000000800000000000000000000000000000000100000000000000000",
      "type": "0x2",
      "transactionHash": "0x46bd9d1f33c0782a7a555c0c57155befaf413191bb11aeb1ad900fb4d73949ee",
      "transactionIndex": "0x1c",
      "blockHash": "0x9451377b7260bca3b4641831f4a9ee8c17546ed785277c5c5cfe200a80d761cf",
      "blockNumber": "0xe9a1",
      "gasUsed": "0x2d972",
      "effectiveGasPrice": "0x8",
      "blobGasPrice": "0x1",
      "from": "0xf39fd6e51aad88f6f4ce6ab8827279cfffb92266",
      "to": "0xcfbd78f3d57b620ddeff73f193dd5bf595a730db",
      "contractAddress": null,
      "blockTimestamp": 1775321448
    },
    {
      "status": "0x1",
      "cumulativeGasUsed": "0x8924ea",
      "logs": [
        {
          "address": "0xd604c06206f6dedd82d42f90d1f5bb34a2e7c5dd",
          "topics": [
            "0x8c5be1e5ebec7d5bd14f71427d1e84f3dd0314c0f7b2291e5b200ac8c7c3b925",
            "0x000000000000000000000000f39fd6e51aad88f6f4ce6ab8827279cfffb92266",
            "0x000000000000000000000000a2a0d69221829d6005e31bb187a0a5debead8331"
          ],
          "data": "0x000000000000000000000000000000000000000000000000000000174876e800",
          "blockHash": "0x9451377b7260bca3b4641831f4a9ee8c17546ed785277c5c5cfe200a80d761cf",
          "blockNumber": "0xe9a1",
          "blockTimestamp": "0x69d14168",
          "transactionHash": "0xf398c0e5d289c4bc5cdf1f02ec094974745d65b353c556ab570c76c75d74d3b0",
          "transactionIndex": "0x1d",
          "logIndex": "0x15",
          "removed": false
        }
      ],
      "logsBloom": "0x00000000000000000000000000000000000000000000000000000000000000000000000000000000000100000004000000000000000000000000000000200000000000000000000000000000000000000000000000000000000000000000000000000800000000000000000100000000000000000000000000000000000000000000000000000000000000000000000000000000000000000000000000000000020000000000000000000000000000000000000000000000000000000000100000000000000000200000000800000000000000002000000000000000000000000010000000000000000000000000000000000000000001000000000000000000",
      "type": "0x2",
      "transactionHash": "0xf398c0e5d289c4bc5cdf1f02ec094974745d65b353c556ab570c76c75d74d3b0",
      "transactionIndex": "0x1d",
      "blockHash": "0x9451377b7260bca3b4641831f4a9ee8c17546ed785277c5c5cfe200a80d761cf",
      "blockNumber": "0xe9a1",
      "gasUsed": "0xb359",
      "effectiveGasPrice": "0x8",
      "blobGasPrice": "0x1",
      "from": "0xf39fd6e51aad88f6f4ce6ab8827279cfffb92266",
      "to": "0xd604c06206f6dedd82d42f90d1f5bb34a2e7c5dd",
      "contractAddress": null,
      "blockTimestamp": 1775321448
    },
    {
      "status": "0x1",
      "cumulativeGasUsed": "0x8d9182",
      "logs": [
        {
          "address": "0xd604c06206f6dedd82d42f90d1f5bb34a2e7c5dd",
          "topics": [
            "0xddf252ad1be2c89b69c2b068fc378daa952ba7f163c4a11628f55a4df523b3ef",
            "0x000000000000000000000000f39fd6e51aad88f6f4ce6ab8827279cfffb92266",
            "0x000000000000000000000000a2a0d69221829d6005e31bb187a0a5debead8331"
          ],
          "data": "0x000000000000000000000000000000000000000000000000000000174876e800",
          "blockHash": "0x9451377b7260bca3b4641831f4a9ee8c17546ed785277c5c5cfe200a80d761cf",
          "blockNumber": "0xe9a1",
          "blockTimestamp": "0x69d14168",
          "transactionHash": "0xbd29caa548429514b96201500a1c8f73a279f17c34b59b5d39da50a1c72f8de4",
          "transactionIndex": "0x1e",
          "logIndex": "0x16",
          "removed": false
        },
        {
          "address": "0x6b99600dad0a1998337357696827381d122825f3",
          "topics": [
            "0xddf252ad1be2c89b69c2b068fc378daa952ba7f163c4a11628f55a4df523b3ef",
            "0x0000000000000000000000000000000000000000000000000000000000000000",
            "0x000000000000000000000000f39fd6e51aad88f6f4ce6ab8827279cfffb92266"
          ],
          "data": "0x0000000000000000000000000000000000000000000015279700831d93700000",
          "blockHash": "0x9451377b7260bca3b4641831f4a9ee8c17546ed785277c5c5cfe200a80d761cf",
          "blockNumber": "0xe9a1",
          "blockTimestamp": "0x69d14168",
          "transactionHash": "0xbd29caa548429514b96201500a1c8f73a279f17c34b59b5d39da50a1c72f8de4",
          "transactionIndex": "0x1e",
          "logIndex": "0x17",
          "removed": false
        },
        {
          "address": "0x6b99600dad0a1998337357696827381d122825f3",
          "topics": [
            "0xddf252ad1be2c89b69c2b068fc378daa952ba7f163c4a11628f55a4df523b3ef",
            "0x0000000000000000000000000000000000000000000000000000000000000000",
            "0x000000000000000000000000a2a0d69221829d6005e31bb187a0a5debead8331"
          ],
          "data": "0x0000000000000000000000000000000000000000000000056bc75e2d63100000",
          "blockHash": "0x9451377b7260bca3b4641831f4a9ee8c17546ed785277c5c5cfe200a80d761cf",
          "blockNumber": "0xe9a1",
          "blockTimestamp": "0x69d14168",
          "transactionHash": "0xbd29caa548429514b96201500a1c8f73a279f17c34b59b5d39da50a1c72f8de4",
          "transactionIndex": "0x1e",
          "logIndex": "0x18",
          "removed": false
        },
        {
          "address": "0x6b99600dad0a1998337357696827381d122825f3",
          "topics": [
            "0x8c5be1e5ebec7d5bd14f71427d1e84f3dd0314c0f7b2291e5b200ac8c7c3b925",
            "0x000000000000000000000000a2a0d69221829d6005e31bb187a0a5debead8331",
            "0x000000000000000000000000ba6bfba894b5caf04c3462a5c8556ffba4de6782"
          ],
          "data": "0x0000000000000000000000000000000000000000000000056bc75e2d63100000",
          "blockHash": "0x9451377b7260bca3b4641831f4a9ee8c17546ed785277c5c5cfe200a80d761cf",
          "blockNumber": "0xe9a1",
          "blockTimestamp": "0x69d14168",
          "transactionHash": "0xbd29caa548429514b96201500a1c8f73a279f17c34b59b5d39da50a1c72f8de4",
          "transactionIndex": "0x1e",
          "logIndex": "0x19",
          "removed": false
        },
        {
          "address": "0x6b99600dad0a1998337357696827381d122825f3",
          "topics": [
            "0xddf252ad1be2c89b69c2b068fc378daa952ba7f163c4a11628f55a4df523b3ef",
            "0x000000000000000000000000a2a0d69221829d6005e31bb187a0a5debead8331",
            "0x000000000000000000000000ba6bfba894b5caf04c3462a5c8556ffba4de6782"
          ],
          "data": "0x0000000000000000000000000000000000000000000000056bc75e2d63100000",
          "blockHash": "0x9451377b7260bca3b4641831f4a9ee8c17546ed785277c5c5cfe200a80d761cf",
          "blockNumber": "0xe9a1",
          "blockTimestamp": "0x69d14168",
          "transactionHash": "0xbd29caa548429514b96201500a1c8f73a279f17c34b59b5d39da50a1c72f8de4",
          "transactionIndex": "0x1e",
          "logIndex": "0x1a",
          "removed": false
        },
        {
          "address": "0xa2a0d69221829d6005e31bb187a0a5debead8331",
          "topics": [
            "0xc91682597e50d783bf81329b763263cef72b0cda71f5e617e0bd4b4150f84403",
            "0x000000000000000000000000f39fd6e51aad88f6f4ce6ab8827279cfffb92266"
          ],
          "data": "0x000000000000000000000000000000000000000000000000000000174876e8000000000000000000000000000000000000000000000015279700831d937000000000000000000000000000000000000000000000000000056bc75e2d63100000",
          "blockHash": "0x9451377b7260bca3b4641831f4a9ee8c17546ed785277c5c5cfe200a80d761cf",
          "blockNumber": "0xe9a1",
          "blockTimestamp": "0x69d14168",
          "transactionHash": "0xbd29caa548429514b96201500a1c8f73a279f17c34b59b5d39da50a1c72f8de4",
          "transactionIndex": "0x1e",
          "logIndex": "0x1b",
          "removed": false
        }
      ],
      "logsBloom": "0x00000000000000000000000000000000000000004000000000000000000000100000000000000000000100200004000000000000000000000000000000e00000000000000000000000000008040000000000000000000000000000000000000000000800020000000000000100000800000080000000000000000010000000000000000000000000000000000000000000000000000000000000000000020000030000000020000000000000000000000000000000000000000000000000100000000002000000200000000804000000000000012000000000000000000020000010000000000000000000000000000000000000000001000000000000000000",
      "type": "0x2",
      "transactionHash": "0xbd29caa548429514b96201500a1c8f73a279f17c34b59b5d39da50a1c72f8de4",
      "transactionIndex": "0x1e",
      "blockHash": "0x9451377b7260bca3b4641831f4a9ee8c17546ed785277c5c5cfe200a80d761cf",
      "blockNumber": "0xe9a1",
      "gasUsed": "0x46c98",
      "effectiveGasPrice": "0x8",
      "blobGasPrice": "0x1",
      "from": "0xf39fd6e51aad88f6f4ce6ab8827279cfffb92266",
      "to": "0xa2a0d69221829d6005e31bb187a0a5debead8331",
      "contractAddress": null,
      "blockTimestamp": 1775321448
    },
    {
      "status": "0x1",
      "cumulativeGasUsed": "0x8e44f3",
      "logs": [
        {
          "address": "0x6b99600dad0a1998337357696827381d122825f3",
          "topics": [
            "0x8c5be1e5ebec7d5bd14f71427d1e84f3dd0314c0f7b2291e5b200ac8c7c3b925",
            "0x000000000000000000000000f39fd6e51aad88f6f4ce6ab8827279cfffb92266",
            "0x00000000000000000000000056cb5406c23d0fb16eac535d6108ca72980c8072"
          ],
          "data": "0x00000000000000000000000000000000000000000000006c6b935b8bbd400000",
          "blockHash": "0x9451377b7260bca3b4641831f4a9ee8c17546ed785277c5c5cfe200a80d761cf",
          "blockNumber": "0xe9a1",
          "blockTimestamp": "0x69d14168",
          "transactionHash": "0x369327f9624f1c2b7935fd0960e304a5567dcc8a79001716ef98460c711291f8",
          "transactionIndex": "0x1f",
          "logIndex": "0x1c",
          "removed": false
        }
      ],
      "logsBloom": "0x00000000000000000000000000000000000000000004000000000000000000000000000000000000000000200000000000000000000000008000000000a00000000000000000000000000000000000000000000000000000000000000000000004000000000000000000000100000000000000000000000000000000000000000000000000000000000000000000000000000000000000000000000000000000030000000000000000000000000000000000000000000000000000000000000000000000000000200000000000000000000000002000000000000000000000000010000000000000000000000000000000000000000000000000000000000000",
      "type": "0x2",
      "transactionHash": "0x369327f9624f1c2b7935fd0960e304a5567dcc8a79001716ef98460c711291f8",
      "transactionIndex": "0x1f",
      "blockHash": "0x9451377b7260bca3b4641831f4a9ee8c17546ed785277c5c5cfe200a80d761cf",
      "blockNumber": "0xe9a1",
      "gasUsed": "0xb371",
      "effectiveGasPrice": "0x8",
      "blobGasPrice": "0x1",
      "from": "0xf39fd6e51aad88f6f4ce6ab8827279cfffb92266",
      "to": "0x6b99600dad0a1998337357696827381d122825f3",
      "contractAddress": null,
      "blockTimestamp": 1775321448
    },
    {
      "status": "0x1",
      "cumulativeGasUsed": "0x901bbb",
      "logs": [
        {
          "address": "0x6b99600dad0a1998337357696827381d122825f3",
          "topics": [
            "0xddf252ad1be2c89b69c2b068fc378daa952ba7f163c4a11628f55a4df523b3ef",
            "0x000000000000000000000000f39fd6e51aad88f6f4ce6ab8827279cfffb92266",
            "0x00000000000000000000000056cb5406c23d0fb16eac535d6108ca72980c8072"
          ],
          "data": "0x00000000000000000000000000000000000000000000006c6b935b8bbd400000",
          "blockHash": "0x9451377b7260bca3b4641831f4a9ee8c17546ed785277c5c5cfe200a80d761cf",
          "blockNumber": "0xe9a1",
          "blockTimestamp": "0x69d14168",
          "transactionHash": "0x6204bac9acf4abe708eb071dd0abf6fddbe18eb625d2322dcb3d16b941e8b815",
          "transactionIndex": "0x20",
          "logIndex": "0x1d",
          "removed": false
        },
        {
          "address": "0x56cb5406c23d0fb16eac535d6108ca72980c8072",
          "topics": [
            "0x2da466a7b24304f47e87fa2e1e5a81b9831ce54fec19055ce277ca2f39ba42c4",
            "0x000000000000000000000000f39fd6e51aad88f6f4ce6ab8827279cfffb92266"
          ],
          "data": "0x00000000000000000000000000000000000000000000006c6b935b8bbd400000",
          "blockHash": "0x9451377b7260bca3b4641831f4a9ee8c17546ed785277c5c5cfe200a80d761cf",
          "blockNumber": "0xe9a1",
          "blockTimestamp": "0x69d14168",
          "transactionHash": "0x6204bac9acf4abe708eb071dd0abf6fddbe18eb625d2322dcb3d16b941e8b815",
          "transactionIndex": "0x20",
          "logIndex": "0x1e",
          "removed": false
        }
      ],
      "logsBloom": "0x00000000000000000000000000000000000800000004000000000000000000000000000000000000000000200000000000000000000000008000000000800000000000000040000000000008000000000000000000000000000000000000200004000000000040000000000100000000000000000000000000000010000200000000000000000000000000000000000000000000000000000000000000000000010000000000000000000000000000000000000000000000000000000000000000000002000000200000000000000000000000002000000000000000000000000040000000000000000000000000000000000000000000000000000000000000",
      "type": "0x2",
      "transactionHash": "0x6204bac9acf4abe708eb071dd0abf6fddbe18eb625d2322dcb3d16b941e8b815",
      "transactionIndex": "0x20",
      "blockHash": "0x9451377b7260bca3b4641831f4a9ee8c17546ed785277c5c5cfe200a80d761cf",
      "blockNumber": "0xe9a1",
      "gasUsed": "0x1d6c8",
      "effectiveGasPrice": "0x8",
      "blobGasPrice": "0x1",
      "from": "0xf39fd6e51aad88f6f4ce6ab8827279cfffb92266",
      "to": "0x56cb5406c23d0fb16eac535d6108ca72980c8072",
      "contractAddress": null,
      "blockTimestamp": 1775321448
    }
  ],
  "libraries": [],
  "pending": [],
  "returns": {},
  "timestamp": 1775321025499,
  "chain": 42069,
  "commit": "a22fb90"
}