{
  "transactions": [
    {
      "hash": "0x3b08d762fa2bd92cee611bd63d35ff89298ff893ece69ecbd185381ccd2638e3",
      "transactionType": "CREATE",
      "contractName": "MockWETH18",
      "contractAddress": "0x8bce54ff8ab45cb075b044ae117b8fd91f9351ab",
      "function": null,
      "arguments": null,
      "transaction": {
        "from": "0xf39fd6e51aad88f6f4ce6ab8827279cfffb92266",
        "gas": "0x76052",
        "value": "0x0",
        "input": "0x608080604052346015576105c2908161001a8239f35b5f80fdfe60806040526004361015610011575f80fd5b5f3560e01c806306fdde0314610459578063095ea7b3146103e057806318160ddd146103c457806323b872dd1461028e578063313ce5671461027357806340c10f191461020e57806370a08231146101d657806395d89b411461016f578063a9059cbb146100db5763dd62ed3e14610087575f80fd5b346100d75760403660031901126100d7576100a06104d7565b6100a86104ed565b6001600160a01b039182165f908152600260209081526040808320949093168252928352819020549051908152f35b5f80fd5b346100d75760403660031901126100d7576100f46104d7565b60243590335f5260016020526101108260405f20541015610524565b335f52600160205260405f20610127838254610503565b905560018060a01b031690815f52600160205260405f2061014982825461055f565b90556040519081525f51602061056d5f395f51905f5260203392a3602060405160018152f35b346100d7575f3660031901126100d757604051604081019080821067ffffffffffffffff8311176101c2576101be9160405260048152630ae8aa8960e31b6020820152604051918291826104ad565b0390f35b634e487b7160e01b5f52604160045260245ffd5b346100d75760203660031901126100d7576001600160a01b036101f76104d7565b165f526001602052602060405f2054604051908152f35b346100d75760403660031901126100d7576102276104d7565b5f5f51602061056d5f395f51905f5260206024359361024785855461055f565b845560018060a01b031693848452600182526040842061026882825461055f565b9055604051908152a3005b346100d7575f3660031901126100d757602060405160128152f35b346100d75760603660031901126100d7576102a76104d7565b6102af6104ed565b6001600160a01b039091165f818152600260209081526040808320338452909152902054604435929060018101610355575b5060205f51602061056d5f395f51905f5291835f526001825261030a8560405f20541015610524565b835f526001825260405f20610320868254610503565b905560018060a01b031693845f526001825260405f2061034182825461055f565b9055604051908152a3602060405160018152f35b838110610393575f51602061056d5f395f51905f529161037785602093610503565b5f858152600284526040808220338352855290205591506102e1565b60405162461bcd60e51b8152602060048201526009602482015268616c6c6f77616e636560b81b6044820152606490fd5b346100d7575f3660031901126100d75760205f54604051908152f35b346100d75760403660031901126100d7576103f96104d7565b335f8181526002602090815260408083206001600160a01b03909516808452948252918290206024359081905591519182527f8c5be1e5ebec7d5bd14f71427d1e84f3dd0314c0f7b2291e5b200ac8c7c3b92591a3602060405160018152f35b346100d7575f3660031901126100d757604051604081019080821067ffffffffffffffff8311176101c2576101be91604052600d81526c2bb930b83832b21022ba3432b960991b6020820152604051918291825b602060409281835280519182918282860152018484015e5f828201840152601f01601f1916010190565b600435906001600160a01b03821682036100d757565b602435906001600160a01b03821682036100d757565b9190820391821161051057565b634e487b7160e01b5f52601160045260245ffd5b1561052b57565b60405162461bcd60e51b815260206004820152600c60248201526b1a5b9cdd59999a58da595b9d60a21b6044820152606490fd5b919082018092116105105756feddf252ad1be2c89b69c2b068fc378daa952ba7f163c4a11628f55a4df523b3efa2646970667358221220fd71fedf222c08393bc817d1d1fdd16f534cde362a136e145d1eb606d12cf8df64736f6c63430008210033",
        "nonce": "0xa7",
        "chainId": "0xa455"
      },
      "additionalContracts": [],
      "isFixedGasLimit": false
    },
    {
      "hash": "0x9ef77c65d71b946229396689ed3d40b667e962a6ea81d819a2af0e9d5135f571",
      "transactionType": "CREATE",
      "contractName": "MockUSDC6",
      "contractAddress": "0x74cf9087ad26d541930bac724b7ab21ba8f00a27",
      "function": null,
      "arguments": null,
      "transaction": {
        "from": "0xf39fd6e51aad88f6f4ce6ab8827279cfffb92266",
        "gas": "0x75acd",
        "value": "0x0",
        "input": "0x608080604052346015576105bd908161001a8239f35b5f80fdfe60806040526004361015610011575f80fd5b5f3560e01c806306fdde0314610459578063095ea7b3146103e057806318160ddd146103c457806323b872dd1461028e578063313ce5671461027357806340c10f191461020e57806370a08231146101d657806395d89b411461016f578063a9059cbb146100db5763dd62ed3e14610087575f80fd5b346100d75760403660031901126100d7576100a06104d2565b6100a86104e8565b6001600160a01b039182165f908152600260209081526040808320949093168252928352819020549051908152f35b5f80fd5b346100d75760403660031901126100d7576100f46104d2565b60243590335f5260016020526101108260405f2054101561051f565b335f52600160205260405f206101278382546104fe565b905560018060a01b031690815f52600160205260405f2061014982825461055a565b90556040519081525f5160206105685f395f51905f5260203392a3602060405160018152f35b346100d7575f3660031901126100d757604051604081019080821067ffffffffffffffff8311176101c2576101be9160405260048152635553444360e01b6020820152604051918291826104a8565b0390f35b634e487b7160e01b5f52604160045260245ffd5b346100d75760203660031901126100d7576001600160a01b036101f76104d2565b165f526001602052602060405f2054604051908152f35b346100d75760403660031901126100d7576102276104d2565b5f5f5160206105685f395f51905f5260206024359361024785855461055a565b845560018060a01b031693848452600182526040842061026882825461055a565b9055604051908152a3005b346100d7575f3660031901126100d757602060405160068152f35b346100d75760603660031901126100d7576102a76104d2565b6102af6104e8565b6001600160a01b039091165f818152600260209081526040808320338452909152902054604435929060018101610355575b5060205f5160206105685f395f51905f5291835f526001825261030a8560405f2054101561051f565b835f526001825260405f206103208682546104fe565b905560018060a01b031693845f526001825260405f2061034182825461055a565b9055604051908152a3602060405160018152f35b838110610393575f5160206105685f395f51905f5291610377856020936104fe565b5f858152600284526040808220338352855290205591506102e1565b60405162461bcd60e51b8152602060048201526009602482015268616c6c6f77616e636560b81b6044820152606490fd5b346100d7575f3660031901126100d75760205f54604051908152f35b346100d75760403660031901126100d7576103f96104d2565b335f8181526002602090815260408083206001600160a01b03909516808452948252918290206024359081905591519182527f8c5be1e5ebec7d5bd14f71427d1e84f3dd0314c0f7b2291e5b200ac8c7c3b92591a3602060405160018152f35b346100d7575f3660031901126100d757604051604081019080821067ffffffffffffffff8311176101c2576101be9160405260088152672aa9a21021b7b4b760c11b6020820152604051918291825b602060409281835280519182918282860152018484015e5f828201840152601f01601f1916010190565b600435906001600160a01b03821682036100d757565b602435906001600160a01b03821682036100d757565b9190820391821161050b57565b634e487b7160e01b5f52601160045260245ffd5b1561052657565b60405162461bcd60e51b815260206004820152600c60248201526b1a5b9cdd59999a58da595b9d60a21b6044820152606490fd5b9190820180921161050b5756feddf252ad1be2c89b69c2b068fc378daa952ba7f163c4a11628f55a4df523b3efa264697066735822122058b373f6107df5af57af307e10774b6e0c1eaabbae267fec398610b7f37f508b64736f6c63430008210033",
        "nonce": "0xa8",
        "chainId": "0xa455"
      },
      "additionalContracts": [],
      "isFixedGasLimit": false
    },
    {
      "hash": "0xec20848c306683aa8f487dc681ae27f224b271a122fe30d97ef6575de28661d5",
      "transactionType": "CREATE",
      "contractName": "MockGD18",
      "contractAddress": "0xefab0beb0a557e452b398035ea964948c750b2fd",
      "function": null,
      "arguments": null,
      "transaction": {
        "from": "0xf39fd6e51aad88f6f4ce6ab8827279cfffb92266",
        "gas": "0x75acd",
        "value": "0x0",
        "input": "0x608080604052346015576105bd908161001a8239f35b5f80fdfe60806040526004361015610011575f80fd5b5f3560e01c806306fdde0314610457578063095ea7b3146103de57806318160ddd146103c257806323b872dd1461028c578063313ce5671461027157806340c10f191461020c57806370a08231146101d457806395d89b411461016f578063a9059cbb146100db5763dd62ed3e14610087575f80fd5b346100d75760403660031901126100d7576100a06104d2565b6100a86104e8565b6001600160a01b039182165f908152600260209081526040808320949093168252928352819020549051908152f35b5f80fd5b346100d75760403660031901126100d7576100f46104d2565b60243590335f5260016020526101108260405f2054101561051f565b335f52600160205260405f206101278382546104fe565b905560018060a01b031690815f52600160205260405f2061014982825461055a565b90556040519081525f5160206105685f395f51905f5260203392a3602060405160018152f35b346100d7575f3660031901126100d757604051604081019080821067ffffffffffffffff8311176101c0576101bc91604052600281526111c960f21b6020820152604051918291826104a8565b0390f35b634e487b7160e01b5f52604160045260245ffd5b346100d75760203660031901126100d7576001600160a01b036101f56104d2565b165f526001602052602060405f2054604051908152f35b346100d75760403660031901126100d7576102256104d2565b5f5f5160206105685f395f51905f5260206024359361024585855461055a565b845560018060a01b031693848452600182526040842061026682825461055a565b9055604051908152a3005b346100d7575f3660031901126100d757602060405160128152f35b346100d75760603660031901126100d7576102a56104d2565b6102ad6104e8565b6001600160a01b039091165f818152600260209081526040808320338452909152902054604435929060018101610353575b5060205f5160206105685f395f51905f5291835f52600182526103088560405f2054101561051f565b835f526001825260405f2061031e8682546104fe565b905560018060a01b031693845f526001825260405f2061033f82825461055a565b9055604051908152a3602060405160018152f35b838110610391575f5160206105685f395f51905f5291610375856020936104fe565b5f858152600284526040808220338352855290205591506102df565b60405162461bcd60e51b8152602060048201526009602482015268616c6c6f77616e636560b81b6044820152606490fd5b346100d7575f3660031901126100d75760205f54604051908152f35b346100d75760403660031901126100d7576103f76104d2565b335f8181526002602090815260408083206001600160a01b03909516808452948252918290206024359081905591519182527f8c5be1e5ebec7d5bd14f71427d1e84f3dd0314c0f7b2291e5b200ac8c7c3b92591a3602060405160018152f35b346100d7575f3660031901126100d757604051604081019080821067ffffffffffffffff8311176101c0576101bc91604052600a81526923b7b7b22237b63630b960b11b6020820152604051918291825b602060409281835280519182918282860152018484015e5f828201840152601f01601f1916010190565b600435906001600160a01b03821682036100d757565b602435906001600160a01b03821682036100d757565b9190820391821161050b57565b634e487b7160e01b5f52601160045260245ffd5b1561052657565b60405162461bcd60e51b815260206004820152600c60248201526b1a5b9cdd59999a58da595b9d60a21b6044820152606490fd5b9190820180921161050b5756feddf252ad1be2c89b69c2b068fc378daa952ba7f163c4a11628f55a4df523b3efa2646970667358221220899d0ca8fca61842f467653c9de6bea09f8e029585143e105a373e40ea29674a64736f6c63430008210033",
        "nonce": "0xa9",
        "chainId": "0xa455"
      },
      "additionalContracts": [],
      "isFixedGasLimit": false
    },
    {
      "hash": "0xc2b3ae9a0d7d982dd264931eafd94fea34cd55344bf0d2e4a40412921e60f7f2",
      "transactionType": "CREATE",
      "contractName": "MockPriceOracle",
      "contractAddress": "0xaca81583840b1bf2ddf6cde824ada250c1936b4d",
      "function": null,
      "arguments": null,
      "transaction": {
        "from": "0xf39fd6e51aad88f6f4ce6ab8827279cfffb92266",
        "gas": "0x1dca0",
        "value": "0x0",
        "input": "0x6080806040523460135760bb908160188239f35b5f80fdfe608060405260043610156010575f80fd5b5f3560e01c806310d8d74d14606157806331d98b3f146036576360846bc6146036575f80fd5b34605d576020366003190112605d576004355f525f602052602060405f2054604051908152f35b5f80fd5b34605d576040366003190112605d576004355f525f60205260243560405f20555f80f3fea264697066735822122001474f7f84901bc433fbc435851f8aaa2acc20ff35462f898c27ae8e3011c94564736f6c63430008210033",
        "nonce": "0xaa",
        "chainId": "0xa455"
      },
      "additionalContracts": [],
      "isFixedGasLimit": false
    },
    {
      "hash": "0x263d63e1fab2b4eeadb1ffe6499d2aad61a032cf2a96a1e629c8204e0d520264",
      "transactionType": "CALL",
      "contractName": "MockPriceOracle",
      "contractAddress": "0xaca81583840b1bf2ddf6cde824ada250c1936b4d",
      "function": "setPrice(bytes32,uint256)",
      "arguments": [
        "0x4554480000000000000000000000000000000000000000000000000000000000",
        "2000000000000000000000"
      ],
      "transaction": {
        "from": "0xf39fd6e51aad88f6f4ce6ab8827279cfffb92266",
        "to": "0xaca81583840b1bf2ddf6cde824ada250c1936b4d",
        "gas": "0xf9df",
        "value": "0x0",
        "input": "0x10d8d74d455448000000000000000000000000000000000000000000000000000000000000000000000000000000000000000000000000000000006c6b935b8bbd400000",
        "nonce": "0xab",
        "chainId": "0xa455"
      },
      "additionalContracts": [],
      "isFixedGasLimit": false
    },
    {
      "hash": "0x605ddd2d664f549b7b907ccbaf27da4d5d5197a2019184d04da107a4b5efea0d",
      "transactionType": "CALL",
      "contractName": "MockPriceOracle",
      "contractAddress": "0xaca81583840b1bf2ddf6cde824ada250c1936b4d",
      "function": "setPrice(bytes32,uint256)",
      "arguments": [
        "0x4744000000000000000000000000000000000000000000000000000000000000",
        "1000000000000000"
      ],
      "transaction": {
        "from": "0xf39fd6e51aad88f6f4ce6ab8827279cfffb92266",
        "to": "0xaca81583840b1bf2ddf6cde824ada250c1936b4d",
        "gas": "0xf9bc",
        "value": "0x0",
        "input": "0x10d8d74d474400000000000000000000000000000000000000000000000000000000000000000000000000000000000000000000000000000000000000038d7ea4c68000",
        "nonce": "0xac",
        "chainId": "0xa455"
      },
      "additionalContracts": [],
      "isFixedGasLimit": false
    },
    {
      "hash": "0xe14afb1d74b3058434d1369ae6d0baac2ad9311fb1023f23c6757eaec8304f18",
      "transactionType": "CALL",
      "contractName": "MockPriceOracle",
      "contractAddress": "0xaca81583840b1bf2ddf6cde824ada250c1936b4d",
      "function": "setPrice(bytes32,uint256)",
      "arguments": [
        "0x5553444300000000000000000000000000000000000000000000000000000000",
        "1000000000000000000"
      ],
      "transaction": {
        "from": "0xf39fd6e51aad88f6f4ce6ab8827279cfffb92266",
        "to": "0xaca81583840b1bf2ddf6cde824ada250c1936b4d",
        "gas": "0xf9df",
        "value": "0x0",
        "input": "0x10d8d74d55534443000000000000000000000000000000000000000000000000000000000000000000000000000000000000000000000000000000000de0b6b3a7640000",
        "nonce": "0xad",
        "chainId": "0xa455"
      },
      "additionalContracts": [],
      "isFixedGasLimit": false
    },
    {
      "hash": "0x2ece3ae4047c96e85ffdeb0ba426f121068add7f8a619fba386dba72d4abc8ab",
      "transactionType": "CREATE",
      "contractName": "gUSD",
      "contractAddress": "0x5d42ebdbba61412295d7b0302d6f50ac449ddb4f",
      "function": null,
      "arguments": [
        "0xf39Fd6e51aad88F6F4ce6aB8827279cffFb92266"
      ],
      "transaction": {
        "from": "0xf39fd6e51aad88f6f4ce6ab8827279cfffb92266",
        "gas": "0x10053f",
        "value": "0x0",
        "input": "0x60803460b257601f610d8f38819003918201601f19168301916001600160401b0383118484101760b65780849260209460405283398101031260b257516001600160a01b0381169081900360b25760016006558015607a57600380546001600160a01b031916919091179055604051610cc490816100cb8239f35b60405162461bcd60e51b815260206004820152601060248201526f33aaa9a21d103d32b9379030b236b4b760811b6044820152606490fd5b5f80fd5b634e487b7160e01b5f52604160045260245ffdfe60806040526004361015610011575f80fd5b5f3560e01c806306fdde0314610992578063095ea7b3146108db5780630d895ee11461085e57806318160ddd1461084257806323b872dd1461072e578063313ce5671461071357806340c10f19146105fc57806342966c681461056b5780634334614a1461052e57806370a08231146104f657806375829def1461047957806379cc67901461033f57806395d89b41146102d8578063a9059cbb14610220578063aa271e1a146101e3578063cf456ae71461015b578063dd62ed3e1461010b5763f851a440146100df575f80fd5b34610107575f366003190112610107576003546040516001600160a01b039091168152602090f35b5f80fd5b3461010757604036600319011261010757610124610a11565b61012c610a27565b6001600160a01b039182165f908152600260209081526040808320949093168252928352819020549051908152f35b346101075760207f583b0aa0e528532caf4b907c11d7a8158a122fe2a6fb80cd9b09776ebea8d92d61018c36610a3d565b92906101a360018060a01b03600354163314610a6c565b6001600160a01b0316926101b8841515610aaa565b835f52600482526101d88160405f209060ff801983541691151516179055565b6040519015158152a2005b34610107576020366003190112610107576001600160a01b03610204610a11565b165f526004602052602060ff60405f2054166040519015158152f35b3461010757604036600319011261010757610239610a11565b6024359061024b600160065414610aeb565b60026006556001600160a01b031690610265821515610b23565b335f52600160205261027d8160405f20541015610bd5565b335f52600160205260405f20610294828254610bb4565b9055815f52600160205260405f206102ad828254610c21565b90556040519081525f516020610c6f5f395f51905f5260203392a36001600655602060405160018152f35b34610107575f36600319011261010757604051604081019080821067ffffffffffffffff83111761032b5761032791604052600481526319d554d160e21b6020820152604051918291826109e7565b0390f35b634e487b7160e01b5f52604160045260245ffd5b3461010757604036600319011261010757610358610a11565b602435610369600160065414610aeb565b6002600655335f52600560205260ff60405f20541615610441575f516020610c6f5f395f51905f5260205f936103a0841515610c2e565b6001600160a01b031692338490036103fd575b838552600182526103ca8160408720541015610bd5565b83855260018252604085206103e0828254610bb4565b90556103ed818654610bb4565b8555604051908152a36001600655005b838552600282526040808620338752835285205461042890829061042382821015610b68565b610bb4565b84865260028352604080872033885284528620556103b3565b60405162461bcd60e51b815260206004820152601060248201526f33aaa9a21d103737ba10313ab93732b960811b6044820152606490fd5b3461010757602036600319011261010757610492610a11565b6003546001600160a01b038116916104ab338414610a6c565b6001600160a01b03169182906104c2821515610aaa565b7ff8ccb027dfcd135e000e9d45e6cc2d662578a8825d4c45b5e32e0adf67e79ec65f80a36001600160a01b03191617600355005b34610107576020366003190112610107576001600160a01b03610517610a11565b165f526001602052602060405f2054604051908152f35b34610107576020366003190112610107576001600160a01b0361054f610a11565b165f526005602052602060ff60405f2054166040519015158152f35b34610107576020366003190112610107575f60043561058e600160065414610aeb565b600260065561059e811515610c2e565b33825260016020526105b68160408420541015610bd5565b3382526001602052604082206105cd828254610bb4565b90556105da818354610bb4565b82556040519081525f516020610c6f5f395f51905f5260203392a36001600655005b3461010757604036600319011261010757610615610a11565b60243590610627600160065414610aeb565b6002600655335f52600460205260ff60405f205416156106db576001600160a01b03169081156106a1575f516020610c6f5f395f51905f5260208261066e5f941515610c2e565b610679818554610c21565b84558484526001825260408420610691828254610c21565b9055604051908152a36001600655005b60405162461bcd60e51b8152602060048201526012602482015271675553443a206d696e7420746f207a65726f60701b6044820152606490fd5b60405162461bcd60e51b815260206004820152601060248201526f33aaa9a21d103737ba1036b4b73a32b960811b6044820152606490fd5b34610107575f36600319011261010757602060405160128152f35b3461010757606036600319011261010757610747610a11565b61074f610a27565b5f516020610c6f5f395f51905f52602060443592610771600160065414610aeb565b60026006556001600160a01b03169361078b851515610b23565b6001600160a01b03165f81815260028352604080822033835284529020549093908160018201610816575b5050835f52600182526107cf8160405f20541015610bd5565b835f526001825260405f206107e5828254610bb4565b9055845f526001825260405f206107fd828254610c21565b9055604051908152a36001600655602060405160018152f35b8161042382610826941015610b68565b5f858152600284526040808220338352855290205585816107b6565b34610107575f3660031901126101075760205f54604051908152f35b346101075760207fd28dc1379d750c7c8137c7ef7b074f62f1361b9becc7f9d77d8c0d6e46a3cd0661088f36610a3d565b92906108a660018060a01b03600354163314610a6c565b6001600160a01b0316926108bb841515610aaa565b835f52600582526101d88160405f209060ff801983541691151516179055565b34610107576040366003190112610107576108f4610a11565b6001600160a01b0316602435811561095557335f52600260205260405f20825f526020528060405f20556040519081527f8c5be1e5ebec7d5bd14f71427d1e84f3dd0314c0f7b2291e5b200ac8c7c3b92560203392a3602060405160018152f35b60405162461bcd60e51b8152602060048201526015602482015274675553443a20617070726f766520746f207a65726f60581b6044820152606490fd5b34610107575f36600319011261010757604051604081019080821067ffffffffffffffff83111761032b5761032791604052600e81526d11dbdbd9111bdb1b185c881554d160921b6020820152604051918291825b602060409281835280519182918282860152018484015e5f828201840152601f01601f1916010190565b600435906001600160a01b038216820361010757565b602435906001600160a01b038216820361010757565b6040906003190112610107576004356001600160a01b0381168103610107579060243580151581036101075790565b15610a7357565b60405162461bcd60e51b815260206004820152600f60248201526e33aaa9a21d103737ba1030b236b4b760891b6044820152606490fd5b15610ab157565b60405162461bcd60e51b8152602060048201526012602482015271675553443a207a65726f206164647265737360701b6044820152606490fd5b15610af257565b60405162461bcd60e51b81526020600482015260096024820152681499595b9d1c985b9d60ba1b6044820152606490fd5b15610b2a57565b60405162461bcd60e51b8152602060048201526016602482015275675553443a207472616e7366657220746f207a65726f60501b6044820152606490fd5b15610b6f57565b60405162461bcd60e51b815260206004820152601c60248201527f675553443a20696e73756666696369656e7420616c6c6f77616e6365000000006044820152606490fd5b91908203918211610bc157565b634e487b7160e01b5f52601160045260245ffd5b15610bdc57565b60405162461bcd60e51b815260206004820152601a60248201527f675553443a20696e73756666696369656e742062616c616e63650000000000006044820152606490fd5b91908201809211610bc157565b15610c3557565b60405162461bcd60e51b815260206004820152601160248201527019d554d10e881e995c9bc8185b5bdd5b9d607a1b6044820152606490fdfeddf252ad1be2c89b69c2b068fc378daa952ba7f163c4a11628f55a4df523b3efa26469706673582212200d3362da47978b4f29b974aae68037833ce6bdf73771e37ea308530e211c953b64736f6c63430008210033000000000000000000000000f39fd6e51aad88f6f4ce6ab8827279cfffb92266",
        "nonce": "0xae",
        "chainId": "0xa455"
      },
      "additionalContracts": [],
      "isFixedGasLimit": false
    },
    {
      "hash": "0x46cc1bc1f487ddb8b263f5fdae7cc43ecf67cba5e85b94b7c88f93298415eb13",
      "transactionType": "CREATE",
      "contractName": "MockUBIFeeSplitter",
      "contractAddress": "0xdde78e6202518ff4936b5302cc2891ec180e8bff",
      "function": null,
      "arguments": [
        "0x5D42EBdBBa61412295D7b0302d6F50aC449Ddb4F"
      ],
      "transaction": {
        "from": "0xf39fd6e51aad88f6f4ce6ab8827279cfffb92266",
        "gas": "0x502e9",
        "value": "0x0",
        "input": "0x60a034606c57601f61041838819003918201601f19168301916001600160401b03831184841017607057808492602094604052833981010312606c57516001600160a01b0381168103606c5760805260405161039390816100858239608051818181606801526102510152f35b5f80fd5b634e487b7160e01b5f52604160045260245ffdfe6080806040526004361015610012575f80fd5b5f3560e01c90816364d6def9146101f9575080637cb4eea2146100d4578063a3c2c462146100b8578063d91492d21461009b5763fc0c546a14610053575f80fd5b34610097575f366003190112610097576040517f00000000000000000000000000000000000000000000000000000000000000006001600160a01b03168152602090f35b5f80fd5b34610097575f366003190112610097576020600154604051908152f35b34610097575f3660031901126100975760205f54604051908152f35b34610097576060366003190112610097576004356100f061027a565b506044356001600160a01b0381168103610097576040516323b872dd60e01b602082019081523360248301523060448301526064820184905261015d925f92839290839061014b81608481015b03601f198101835282610290565b51925af16101576102c6565b50610305565b610d058102811590828104610d05148217156101e5576127109004906106838302908382046106831417156101e5576127106101e19104926101c26101ab856101a68685610343565b610343565b916101b885600154610350565b6001555f54610350565b5f55604051938493846040919493926060820195825260208201520152565b0390f35b634e487b7160e01b5f52601160045260245ffd5b346100975760403660031901126100975761015d5f806004359361021b61027a565b506323b872dd60e01b60208201908152336024830152306044830152606482018690529061024c816084810161013d565b5190827f00000000000000000000000000000000000000000000000000000000000000005af16101576102c6565b602435906001600160a01b038216820361009757565b90601f8019910116810190811067ffffffffffffffff8211176102b257604052565b634e487b7160e01b5f52604160045260245ffd5b3d15610300573d9067ffffffffffffffff82116102b257604051916102f5601f8201601f191660200184610290565b82523d5f602084013e565b606090565b1561030c57565b60405162461bcd60e51b815260206004820152600f60248201526e199959481c1d5b1b0819985a5b1959608a1b6044820152606490fd5b919082039182116101e557565b919082018092116101e55756fea2646970667358221220930dd657d23c911c822648e1712d4f20024393c8bfce4227b747a0b5c757365764736f6c634300082100330000000000000000000000005d42ebdbba61412295d7b0302d6f50ac449ddb4f",
        "nonce": "0xaf",
        "chainId": "0xa455"
      },
      "additionalContracts": [],
      "isFixedGasLimit": false
    },
    {
      "hash": "0xb98fb921470e83363a5b34ed5d68553a22d88b87acb37ce9b5e53edad716c1b7",
      "transactionType": "CREATE",
      "contractName": "CollateralRegistry",
      "contractAddress": "0xb06c856c8eabd1d8321b687e188204c1018bc4e5",
      "function": null,
      "arguments": [
        "0xf39Fd6e51aad88F6F4ce6aB8827279cffFb92266",
        "0x8bCe54ff8aB45CB075b044AE117b8fD91F9351aB",
        "0xefAB0Beb0A557E452b398035eA964948c750b2Fd",
        "0x74Cf9087AD26D541930BaC724B7ab21bA8F00a27"
      ],
      "transaction": {
        "from": "0xf39fd6e51aad88f6f4ce6ab8827279cfffb92266",
        "gas": "0x1639e3",
        "value": "0x0",
        "input": "0x6080604052346107dd57604051601f6110d138819003918201601f19168301916001600160401b0383118484101761073f578084926080946040528339810103126107dd5761004d81610800565b9061005a60208201610800565b610072606061006b60408501610800565b9301610800565b926001600160a01b03168015610798575f80546001600160a01b0319169190911781556208aa8960eb1b905260036020525f5160206110b15f395f51905f525460ff16610753576102306100c46107e1565b6001600160a01b039283168082526714d1120d7b16000060208084019182526701cdda4faccd00006040850190815269d3c21bcecceda1000000606086019081526b033b2e3ca88761c9983cdc0660808701908152600160a088019081526208aa8960eb1b5f52600290945295517fd9402e47e68a5154d8f9cdc9d4ffcf4a300546026372c3b04224fbe62656c6018054919099166001600160a01b03199091161790975591517fd9402e47e68a5154d8f9cdc9d4ffcf4a300546026372c3b04224fbe62656c6025590517fd9402e47e68a5154d8f9cdc9d4ffcf4a300546026372c3b04224fbe62656c6035593517fd9402e47e68a5154d8f9cdc9d4ffcf4a300546026372c3b04224fbe62656c6045590517fd9402e47e68a5154d8f9cdc9d4ffcf4a300546026372c3b04224fbe62656c6055591517fd9402e47e68a5154d8f9cdc9d4ffcf4a300546026372c3b04224fbe62656c606805460ff191691151560ff16919091179055565b6208aa8960eb1b5f5260036020525f5160206110b15f395f51905f52805460ff19166001908117909155546801000000000000000081101561073f57600181018060015581101561072b5760015f526208aa8960eb1b5f5160206110715f395f51905f52909101819055604080519283526714d1120d7b160000602084015290915f5160206110915f395f51905f529190a26111d160f21b5f5260036020525f5160206110315f395f51905f525460ff166107535761045b6102f06107e1565b6001600160a01b03928316808252671bc16d674ec800006020808401918252670214e8348c4f0000604085019081526969e10de76676d0800000606086019081526b033b2e3cad042cdf3cd0635460808701908152600160a088019081526111d160f21b5f52600290945295517f51ad335b9c1bfbc41734cb4ba99a217db2c0eab320f85383a3fa8695e01e16f58054919099166001600160a01b03199091161790975591517f51ad335b9c1bfbc41734cb4ba99a217db2c0eab320f85383a3fa8695e01e16f65590517f51ad335b9c1bfbc41734cb4ba99a217db2c0eab320f85383a3fa8695e01e16f75593517f51ad335b9c1bfbc41734cb4ba99a217db2c0eab320f85383a3fa8695e01e16f85590517f51ad335b9c1bfbc41734cb4ba99a217db2c0eab320f85383a3fa8695e01e16f95591517f51ad335b9c1bfbc41734cb4ba99a217db2c0eab320f85383a3fa8695e01e16fa805460ff191691151560ff16919091179055565b6111d160f21b5f5260036020525f5160206110315f395f51905f52805460ff19166001908117909155546801000000000000000081101561073f57600181018060015581101561072b5760015f526111d160f21b5f5160206110715f395f51905f5290910181905560408051928352671bc16d674ec80000602084015290915f5160206110915f395f51905f529190a2635553444360e01b5f5260036020525f5160206110515f395f51905f525460ff166107535761068861051b6107e1565b6001600160a01b03928316808252670e043da6172500006020808401918252662386f26fc10000604085019081526a084595161401484a000000606086019081526b033b2e3ca2026060221a219260808701908152600160a08801908152635553444360e01b5f52600290945295517fe1b832f4cd54a115ddce65d9da7c8d553103a217be87cd651ea7f31e4eebaefd8054919099166001600160a01b03199091161790975591517fe1b832f4cd54a115ddce65d9da7c8d553103a217be87cd651ea7f31e4eebaefe5590517fe1b832f4cd54a115ddce65d9da7c8d553103a217be87cd651ea7f31e4eebaeff5593517fe1b832f4cd54a115ddce65d9da7c8d553103a217be87cd651ea7f31e4eebaf005590517fe1b832f4cd54a115ddce65d9da7c8d553103a217be87cd651ea7f31e4eebaf015591517fe1b832f4cd54a115ddce65d9da7c8d553103a217be87cd651ea7f31e4eebaf02805460ff191691151560ff16919091179055565b635553444360e01b5f5260036020525f5160206110515f395f51905f52805460ff19166001908117909155546801000000000000000081101561073f57600181018060015581101561072b5760015f52635553444360e01b5f5160206110715f395f51905f5290910181905560408051928352670e043da617250000602084015290915f5160206110915f395f51905f529190a260405161081c90816108158239f35b634e487b7160e01b5f52603260045260245ffd5b634e487b7160e01b5f52604160045260245ffd5b60405162461bcd60e51b815260206004820152601460248201527f52656769737472793a20696c6b206578697374730000000000000000000000006044820152606490fd5b60405162461bcd60e51b815260206004820152601460248201527f52656769737472793a207a65726f2061646d696e0000000000000000000000006044820152606490fd5b5f80fd5b6040519060c082016001600160401b0381118382101761073f57604052565b51906001600160a01b03821682036107dd5756fe60806040526004361015610011575f80fd5b5f3560e01c806306fe274d1461064e578063552033c41461064e5780636a1460241461062c5780636dd5b69d1461054b57806375829def146104955780637da4882e146103d657806386a3862b146103a75780639d23b35f1461036f578063afaea5cf146102d2578063b64e0001146102b5578063d929fe7b146100c85763f851a4401461009d575f80fd5b346100c4575f3660031901126100c4575f546040516001600160a01b039091168152602090f35b5f80fd5b346100c45760c03660031901126100c4576004356024356001600160a01b038116908190036100c4576044359060a43561010c60018060a01b035f5416331461070c565b835f52600360205260ff60405f205416610279576101e490610138670de0b6b3a764000085101561074e565b6101506b033b2e3c9fd0803ce800000082101561079a565b600561015a6106a0565b918483526020830190868252604084016064358152606085019060843582526080860192835260a0860193600185528a5f52600260205260405f209660018060a01b039051166bffffffffffffffffffffffff60a01b88541617875551600187015551600286015551600385015551600484015551151591019060ff801983541691151516179055565b825f52600360205260405f20600160ff198254161790556001549068010000000000000000821015610265577fab8ac0e1bd8ac03ac9df93028bd29e1972d82acd99a159a07ac48bcd2b022cbe9261024483600160409501600155610674565b81549060031b9087821b915f19901b191617905582519182526020820152a2005b634e487b7160e01b5f52604160045260245ffd5b60405162461bcd60e51b815260206004820152601460248201527352656769737472793a20696c6b2065786973747360601b6044820152606490fd5b346100c4575f3660031901126100c4576020600154604051908152f35b346100c45760403660031901126100c457600435602435801515908181036100c4577f1fe409d485d3e152a677dfe4363f46aa10af58db9e2d5a1906e74264b27f2b2a9161036660209261033060018060a01b035f5416331461070c565b855f526003845261034760ff60405f2054166106c0565b855f5260028452600560405f20019060ff801983541691151516179055565b604051908152a2005b346100c45760203660031901126100c4576004356001548110156100c457610398602091610674565b90549060031b1c604051908152f35b346100c45760203660031901126100c4576004355f526003602052602060ff60405f2054166040519015158152f35b346100c45760a03660031901126100c45760043560243560046084359161040760018060a01b035f5416331461070c565b835f52600360205261041f60ff60405f2054166106c0565b610433670de0b6b3a764000082101561074e565b61044b6b033b2e3c9fd0803ce800000084101561079a565b835f52600260205260405f209060018201556044356002820155606435600382015501557f0cc993b15fc5afe9385b1249b7f1bd98ace3df370e89b94e1c3328d0e329e0455f80a2005b346100c45760203660031901126100c4576004356001600160a01b038116908190036100c4575f546001600160a01b0381166104d233821461070c565b821561050d5782907ff8ccb027dfcd135e000e9d45e6cc2d662578a8825d4c45b5e32e0adf67e79ec65f80a36001600160a01b031916175f55005b60405162461bcd60e51b815260206004820152601660248201527552656769737472793a207a65726f206164647265737360501b6044820152606490fd5b346100c45760203660031901126100c4576004355f60a061056a6106a0565b8281528260208201528260408201528260608201528260808201520152805f52600360205261059f60ff60405f2054166106c0565b5f52600260205260c060405f206105b46106a0565b60018060a01b03825416918282526001810154602083019081526002820154604084019081526003830154916060850192835260a060ff6005600487015496608089019788520154169501941515855260405195865251602086015251604085015251606084015251608083015251151560a0820152f35b346100c4575f3660031901126100c4576020604051670de0b6b3a76400008152f35b346100c4575f3660031901126100c45760206040516b033b2e3c9fd0803ce80000008152f35b60015481101561068c5760015f5260205f2001905f90565b634e487b7160e01b5f52603260045260245ffd5b6040519060c0820182811067ffffffffffffffff82111761026557604052565b156106c757565b60405162461bcd60e51b815260206004820152601760248201527f52656769737472793a20696c6b206e6f7420666f756e640000000000000000006044820152606490fd5b1561071357565b60405162461bcd60e51b81526020600482015260136024820152722932b3b4b9ba393c9d103737ba1030b236b4b760691b6044820152606490fd5b1561075557565b60405162461bcd60e51b815260206004820152601760248201527f52656769737472793a20726174696f2062656c6f7720310000000000000000006044820152606490fd5b156107a157565b60405162461bcd60e51b815260206004820152601c60248201527f52656769737472793a2066656520726174652062656c6f7720524159000000006044820152606490fdfea2646970667358221220a71fbb426a5c78ab229d821f155dda660074e7a7aa670f7ce57c23990ac32dd764736f6c63430008210033d1420b98fa8afc26b982107a255caa30f9329b3a404658edf1e695ae25bce036acb22bafd1ef6e02894947a1fd190769ebf1f0739eb9e7f1feaa66870379637ab10e2d527612073b26eecdfd717e6a320cf44b4afac2b0732d9fcbe2b7fa0cf6ab8ac0e1bd8ac03ac9df93028bd29e1972d82acd99a159a07ac48bcd2b022cbeb88c0ea72901a5cbd9418ec92b4fe479ea97c0ee8cacdc49e96d11aff3a45dc7000000000000000000000000f39fd6e51aad88f6f4ce6ab8827279cfffb922660000000000000000000000008bce54ff8ab45cb075b044ae117b8fd91f9351ab000000000000000000000000efab0beb0a557e452b398035ea964948c750b2fd00000000000000000000000074cf9087ad26d541930bac724b7ab21ba8f00a27",
        "nonce": "0xb0",
        "chainId": "0xa455"
      },
      "additionalContracts": [],
      "isFixedGasLimit": false
    },
    {
      "hash": "0x5e240ae1ab10237d425f2bbf7ed3111d94a52188fde328efdf55d0c32e4bdfee",
      "transactionType": "CREATE",
      "contractName": "VaultManager",
      "contractAddress": "0xab7b4c595d3ce8c85e16da86630f2fc223b05057",
      "function": null,
      "arguments": [
        "0x5D42EBdBBa61412295D7b0302d6F50aC449Ddb4F",
        "0xB06c856C8eaBd1d8321b687E188204C1018BC4E5",
        "0xaca81583840B1bf2dDF6CDe824ada250C1936B4D",
        "0xddE78e6202518FF4936b5302cC2891ec180E8bFf",
        "0xf39Fd6e51aad88F6F4ce6aB8827279cffFb92266",
        "0xf39Fd6e51aad88F6F4ce6aB8827279cffFb92266"
      ],
      "transaction": {
        "from": "0xf39fd6e51aad88f6f4ce6ab8827279cfffb92266",
        "gas": "0x2e3421",
        "value": "0x0",
        "input": "0x6101003461032357601f612b1638819003918201601f19168301916001600160401b038311848410176103275780849260c094604052833981010312610323576100488161033b565b6100546020830161033b565b916100616040820161033b565b61006d6060830161033b565b9061008660a061007f6080860161033b565b940161033b565b60016006556001600160a01b039094169485156102ee576001600160a01b03169081156102b5576001600160a01b031691821561027e576001600160a01b0316928315610245576001600160a01b0316938415610200576001600160a01b03169485156101ca5760805260a05260c05260e05260018060a01b0319600254161760025560018060a01b031960015416176001556040516127c6908161035082396080518181816104d501528181610b0701528181610ee10152818161130b0152818161167c0152611be2015260a0518181816101940152818161037301528181610605015281816108a201528181610c1101528181610cea015281816111ed015281816119a001528181611b4301528181611f80015261236c015260c051818181610bcc01528181611fd601526123c2015260e0518181816110dd0152611c570152f35b60405162461bcd60e51b815260206004820152600e60248201526d2b269d103d32b9379030b236b4b760911b6044820152606490fd5b60405162461bcd60e51b815260206004820152601760248201527f564d3a207a65726f206441707020726563697069656e740000000000000000006044820152606490fd5b60405162461bcd60e51b81526020600482015260116024820152702b269d103d32b9379039b83634ba3a32b960791b6044820152606490fd5b60405162461bcd60e51b815260206004820152600f60248201526e564d3a207a65726f206f7261636c6560881b6044820152606490fd5b60405162461bcd60e51b8152602060048201526011602482015270564d3a207a65726f20726567697374727960781b6044820152606490fd5b60405162461bcd60e51b815260206004820152600d60248201526c15934e881e995c9bc819d554d1609a1b6044820152606490fd5b5f80fd5b634e487b7160e01b5f52604160045260245ffd5b51906001600160a01b03821682036103235756fe6080806040526004361015610012575f80fd5b5f905f3560e01c908163048c661d1461180857508063050296e9146117ea57806316c38b3c146117985780631c5d3796146115665780632e5f62a01461153c5780633363b7d9146114fa57806344e2a5a8146114da5780634627e7c01461148c578063468c9bd1146111875780634afa3af714611158578063552033c4146111325780635c975abb1461110c5780636052970c146110c75780636a146024146110a457806375829def1461104c578063771b51d214610c405780637b10399914610bfb5780637dc0d1d014610bb657806381845f6314610b365780638c87ee9014610af157806393991a9314610ac857806398d721e014610a48578063a1e9348214610806578063abaf0042146107a8578063dea9b464146105a8578063e0537cee14610274578063f851a4401461024b5763fab9bd5e14610152575f80fd5b346102485760203660031901126102485760043561017860ff60025460a01c1615611e4b565b604051636dd5b69d60e01b81526004810182905260c0816024817f00000000000000000000000000000000000000000000000000000000000000006001600160a01b03165afa90811561023d576101dd9160a091859161020e575b5001511515611ec2565b6101e681611afc565b337f1b3a3b641448ea38df4f27c3b71159ff387dfd96db4bfa0678a500dff874eb618380a380f35b610230915060c03d60c011610236575b610228818361186c565b8101906118af565b5f6101d3565b503d61021e565b6040513d85823e3d90fd5b80fd5b50346102485780600319360112610248576001546040516001600160a01b039091168152602090f35b503461024857602036600319011261024857600435610297600160065414611ab7565b60026006556102ae60ff60025460a01c1615611e4b565b6102b781611afc565b808252600360209081526040808420335f908152908352819020838552600490925283208054806105a25750676765c793fa10079d601b1b905b6001830190815492676765c793fa10079d601b1b61030f8286611936565b0493878561049a575b94505050505081549182610356575b5082337f45741dfe35116d540a34618f113e41a5092e64d6b09a503ede64ff9058a0e6058380a3600160065580f35b55604051636dd5b69d60e01b81526004810183905260c0816024817f00000000000000000000000000000000000000000000000000000000000000006001600160a01b03165afa90811561047057849161047b575b505160405163a9059cbb60e01b81523360048201526024810183905291906020908390604490829088906001600160a01b03165af18015610470578392859161042d575b506103f99061211e565b6040519081527fe69cdf29a59dd324317b598bee3a9ed1fcffb99cc506db72633ed07b59dc6d0460203392a35f8281610327565b9250506020823d602011610468575b816104496020938361186c565b81010312610464576103f961045e84936118a2565b906103ef565b8380fd5b3d915061043c565b6040513d86823e3d90fd5b610494915060c03d60c01161023657610228818361186c565b5f6103ab565b676765c793fa10079d601b1b946104b960026104c29601938454611929565b83555554611936565b84865260056020526040862091900490557f00000000000000000000000000000000000000000000000000000000000000006001600160a01b031690813b1561059e5760405163079cc67960e41b81523360048201526024810182905291859081908490604490829084905af1928315610591578593610576575b50506040519081527f8293a3003da468402b46b778420ac0fa8c2291bed4eeb36f56768a9d2220be7660203392a35f8080808087610318565b81929350906105849161186c565b610464578290845f61053d565b50604051903d90823e3d90fd5b8480fd5b906102f1565b5034610248576105b73661182a565b6105c5600160065414611ab7565b60026006556105dc60ff60025460a01c1615611e4b565b6105e7811515611e84565b604051636dd5b69d60e01b815260048101839052839060c0816024817f00000000000000000000000000000000000000000000000000000000000000006001600160a01b03165afa801561079d57602091839161077e575b5061064f60a08201511515611ec2565b61065885611afc565b516040516323b872dd60e01b81523360048201523060248201526044810185905292839160649183916001600160a01b03165af1908115610470578491610744575b50156106ff5781835260036020526040832060018060a01b0333165f5260205260405f206106c9828254611aef565b90556040519081527f88df26d296ecbf594c8609f433503d1436d24afe03c0d9e5e29c8f6ed92ef9b460203392a3600160065580f35b60405162461bcd60e51b815260206004820152601e60248201527f564d3a20636f6c6c61746572616c207472616e73666572206661696c656400006044820152606490fd5b90506020813d602011610776575b8161075f6020938361186c565b8101031261046457610770906118a2565b5f61069a565b3d9150610752565b610797915060c03d60c01161023657610228818361186c565b5f61063f565b6040513d84823e3d90fd5b5034610248576020366003190112610248576107c2611856565b6107d760018060a01b03600154163314611a7b565b6001600160a01b03166107eb8115156120df565b6bffffffffffffffffffffffff60a01b600254161760025580f35b5034610248576108153661182a565b610823600160065414611ab7565b600260065561083a60ff60025460a01c1615611e4b565b610845811515611e84565b61084e82611afc565b818352600360209081526040808520335f908152925290208054828110610a03578261087991611929565b815560018101546109b3575b50604051636dd5b69d60e01b81526004810183905260c0816024817f00000000000000000000000000000000000000000000000000000000000000006001600160a01b03165afa908115610470578491610994575b505160405163a9059cbb60e01b815233600482015260248101839052906020908290604490829088906001600160a01b03165af18015610470578490610959575b610925915061211e565b6040519081527fe69cdf29a59dd324317b598bee3a9ed1fcffb99cc506db72633ed07b59dc6d0460203392a3600160065580f35b506020813d60201161098c575b816109736020938361186c565b8101031261046457610987610925916118a2565b61091b565b3d9150610966565b6109ad915060c03d60c01161023657610228818361186c565b5f6108da565b6109bd908361230f565b156109c8575f610885565b60405162461bcd60e51b8152602060048201526013602482015272564d3a207661756c7420756e6865616c74687960681b6044820152606490fd5b60405162461bcd60e51b815260206004820152601b60248201527f564d3a20696e73756666696369656e7420636f6c6c61746572616c00000000006044820152606490fd5b5034610248576020366003190112610248577f51f43ead43c9a90d53ec229fbf48feb76b24efa7a147089ad9ed34ad384a94d36020610a85611856565b610a9a60018060a01b03600154163314611a7b565b6001600160a01b0316610aae8115156120df565b83546001600160a01b03191681178455604051908152a180f35b50346102485780600319360112610248576002546040516001600160a01b039091168152602090f35b50346102485780600319360112610248576040517f00000000000000000000000000000000000000000000000000000000000000006001600160a01b03168152602090f35b503461024857604036600319011261024857676765c793fa10079d601b1b610ba460209260043590610b66611840565b8282526003865260408083206001600160a01b039092165f908152918752908190209282526004865290205480610bad5750600183915b0154611936565b04604051908152f35b60019091610b9d565b50346102485780600319360112610248576040517f00000000000000000000000000000000000000000000000000000000000000006001600160a01b03168152602090f35b50346102485780600319360112610248576040517f00000000000000000000000000000000000000000000000000000000000000006001600160a01b03168152602090f35b503461024857604036600319011261024857600435610c5d611840565b610c6b600160065414611ab7565b6002600655610c8260ff60025460a01c1615611e4b565b6001600160a01b0316801561101657610c9a82611afc565b818352600360205260408320815f5260205260405f2060018101908154908115610fd957610cc8818661230f565b610f9d57604051636dd5b69d60e01b815260048101869052869160c0826024817f00000000000000000000000000000000000000000000000000000000000000006001600160a01b03165afa91821561023d578392610f6b575b50610d78676765c793fa10079d601b1b918885526004602052604085209585875480155f14610f65575084925b8186610d5b8686611936565b049a610d6e600284549c01958654611929565b8555555554611936565b8784526005602052604084209190049055516001600160a01b0316610dae610db5610da5838987896125cc565b86939193611929565b9186611929565b80610edf575b5080610dfe575b50505060405191825260208201527f4ecef300dc49115373f12d5ca31f017d1104f91d9fefeda602a1c42550af910960403392a4600160065580f35b60405163a9059cbb60e01b815233600482015260248101919091529160209183916044918391905af1908115610ed4578691610e96575b5015610e4357845f80610dc2565b60405162461bcd60e51b815260206004820152602560248201527f564d3a206c697175696461746f7220636f6c6c61746572616c2073656e642066604482015264185a5b195960da1b6064820152608490fd5b90506020813d602011610ecc575b81610eb16020938361186c565b81010312610ec857610ec2906118a2565b5f610e35565b8580fd5b3d9150610ea4565b6040513d88823e3d90fd5b7f00000000000000000000000000000000000000000000000000000000000000006001600160a01b0316803b1561059e5760405163079cc67960e41b8152336004820152602481019290925284908290604490829084905af1908115610470578491610f4c575b50610dbb565b81610f569161186c565b610f6157825f610f46565b8280fd5b92610d4f565b676765c793fa10079d601b1b919250610f95610d789160c03d60c01161023657610228818361186c565b929150610d22565b60405162461bcd60e51b8152602060048201526014602482015273564d3a207661756c74206973206865616c74687960601b6044820152606490fd5b60405162461bcd60e51b815260206004820152601560248201527415934e881d985d5b1d081a185cc81b9bc81919589d605a1b6044820152606490fd5b60405162461bcd60e51b815260206004820152600e60248201526d2b269d103d32b9379037bbb732b960911b6044820152606490fd5b503461024857602036600319011261024857611066611856565b6001549061107e336001600160a01b03841614611a7b565b6001600160a01b0316906110938215156120df565b6001600160a01b0319161760015580f35b50346102485780600319360112610248576020604051670de0b6b3a76400008152f35b50346102485780600319360112610248576040517f00000000000000000000000000000000000000000000000000000000000000006001600160a01b03168152602090f35b5034610248578060031936011261024857602060ff60025460a01c166040519015158152f35b50346102485780600319360112610248576020604051676765c793fa10079d601b1b8152f35b503461024857604036600319011261024857602061117f611177611840565b600435611f03565b604051908152f35b5034610248576111963661182a565b6111a4600160065414611ab7565b60026006556111bb60ff60025460a01c1615611e4b565b80156111c78115611e84565b6111d083611afc565b604051636dd5b69d60e01b8152600481018490529060c0826024817f00000000000000000000000000000000000000000000000000000000000000006001600160a01b03165afa918215611481578592611460575b5061123560a08301511515611ec2565b83855260046020526040852090815480155f1461145a5750676765c793fa10079d601b1b905b676765c793fa10079d601b1b850290858204676765c793fa10079d601b1b141715611446576112e28261129c606094676765c793fa10079d601b1b94611949565b888a52600360205260408a2060018060a01b0333165f526020526112da600260405f2097600189016112cf858254611aef565b905501918254611aef565b809155611936565b0492015182116114015761130391848652600560205260408620558361230f565b156113bc57827f00000000000000000000000000000000000000000000000000000000000000006001600160a01b0316803b156113b8576040516340c10f1960e01b8152336004820152602481018490529082908290604490829084905af1801561079d576113a3575b50506040519081527f7ee657a21ac7f39b81c23a6f713ab60c53f4c04479e9a7847c08e2bc69862e8060203392a3600160065580f35b816113ad9161186c565b610f6157825f61136d565b5080fd5b60405162461bcd60e51b815260206004820152601c60248201527f564d3a20636f6c6c61746572616c20726174696f20746f6f206c6f77000000006044820152606490fd5b60405162461bcd60e51b815260206004820152601960248201527f564d3a2064656274206365696c696e67206578636565646564000000000000006044820152606490fd5b634e487b7160e01b87526011600452602487fd5b9061125b565b61147a91925060c03d60c01161023657610228818361186c565b905f611225565b6040513d87823e3d90fd5b50346102485760403660031901126102485760406114a8611840565b9160043581526003602052209060018060a01b03165f526020526040805f206001815491015482519182526020820152f35b5034610248576020366003190112610248576114f7600435611afc565b80f35b50346102485760203660031901126102485760406060916004358152600460205220805490600260018201549101549060405192835260208301526040820152f35b50346102485760203660031901126102485760406020916004358152600583522054604051908152f35b503461172b576115753661182a565b611583600160065414611ab7565b60026006558061159283611afc565b825f52600360205260405f2060018060a01b0333165f5260205260405f20835f52600460205260405f2090815480155f1461178f57506001676765c793fa10079d601b1b915b0192835490676765c793fa10079d601b1b6115f38484611936565b04809111611787575b50841561174b57676765c793fa10079d601b1b850292858404676765c793fa10079d601b1b0361173757676765c793fa10079d601b1b946116408461166596611949565b9280841161172f575b9160029161165a856112da95611929565b905501918254611929565b04825f52600560205260405f205560018060a01b037f000000000000000000000000000000000000000000000000000000000000000016803b1561172b5760405163079cc67960e41b815233600482015260248101839052905f908290604490829084905af180156117205761170b575b506040519081527f8293a3003da468402b46b778420ac0fa8c2291bed4eeb36f56768a9d2220be7660203392a3600160065580f35b6117189193505f9061186c565b5f915f6116d6565b6040513d5f823e3d90fd5b5f80fd5b925082611649565b634e487b7160e01b5f52601160045260245ffd5b60405162461bcd60e51b8152602060048201526014602482015273564d3a206e6f7468696e6720746f20726570617960601b6044820152606490fd5b94505f6115fc565b600190916115d8565b3461172b57602036600319011261172b5760043580151580910361172b576117cb60018060a01b03600154163314611a7b565b6002805460ff60a01b191660a09290921b60ff60a01b16919091179055005b3461172b57602036600319011261172b57602061117f600435611967565b3461172b575f36600319011261172b575f546001600160a01b03168152602090f35b604090600319011261172b576004359060243590565b602435906001600160a01b038216820361172b57565b600435906001600160a01b038216820361172b57565b90601f8019910116810190811067ffffffffffffffff82111761188e57604052565b634e487b7160e01b5f52604160045260245ffd5b5190811515820361172b57565b908160c091031261172b576040519060c0820182811067ffffffffffffffff82111761188e5760405280516001600160a01b038116810361172b576119219160a091845260208101516020850152604081015160408501526060810151606085015260808101516080850152016118a2565b60a082015290565b9190820391821161173757565b8181029291811591840414171561173757565b8115611953570490565b634e487b7160e01b5f52601260045260245ffd5b805f52600460205260405f2080549182158015611a6f575b611a4157604051636dd5b69d60e01b8152600481019190915260c0816024817f00000000000000000000000000000000000000000000000000000000000000006001600160a01b03165afa908115611720575f91611a50575b506119e7600183015442611929565b8015611a4857611a0a611a10916080676765c793fa10079d601b1b9401516121a6565b84611936565b049082821115611a41576002611a35676765c793fa10079d601b1b94611a3d94611929565b910154611936565b0490565b5050505f90565b505050505f90565b611a69915060c03d60c01161023657610228818361186c565b5f6119d8565b5060028201541561197f565b15611a8257565b60405162461bcd60e51b815260206004820152600d60248201526c2b269d103737ba1030b236b4b760991b6044820152606490fd5b15611abe57565b60405162461bcd60e51b81526020600482015260096024820152681499595b9d1c985b9d60ba1b6044820152606490fd5b9190820180921161173757565b5f815f52600460205260405f2090815415611e325760018201611b20815442611929565b8015611e2b57604051636dd5b69d60e01b8152600481018690529060c0826024817f00000000000000000000000000000000000000000000000000000000000000006001600160a01b03165afa91821561172057611b8a926080915f91611e0c575b5001516121a6565b92676765c793fa10079d601b1b611ba382549586611936565b049380851115611e0257916002611bd892611bca676765c793fa10079d601b1b9588611929565b928782554290550154611936565b04908115611dce577f00000000000000000000000000000000000000000000000000000000000000006001600160a01b0316803b1561172b576040516340c10f1960e01b8152306004820152602481018490525f8160448183865af1801561172057611db9575b5060405163095ea7b360e01b81526001600160a01b037f0000000000000000000000000000000000000000000000000000000000000000166004820181905260248201859052919060208160448187865af1801561047057611d7d575b50606090606460018060a01b0360025416856040519586948593633e5a775160e11b85528a6004860152602485015260448401525af1801561079d57611d52575b50916040918284867f3b9f4ab0566d9d10726a6f7f34cdc9e4b7f03a20a878ed293de4e6ed1b4198589652600560205220611d19828254611aef565b9055847f156e588d1067ba3c8a6a7f4376ef70794f8afed114dc9d1421e054b65743e63060208551848152a282519182526020820152a2565b606090813d8311611d76575b611d68818361186c565b81010312610248575f611cdd565b503d611d5e565b6020813d602011611db1575b81611d966020938361186c565b810103126104645790611daa6060926118a2565b5090611c9c565b3d9150611d89565b611dc69192505f9061186c565b5f905f611c3f565b505060407f3b9f4ab0566d9d10726a6f7f34cdc9e4b7f03a20a878ed293de4e6ed1b4198589181519081525f6020820152a2565b5050429055505050565b611e25915060c03d60c01161023657610228818361186c565b5f611b82565b5050505050565b509050676765c793fa10079d601b1b8155600142910155565b15611e5257565b60405162461bcd60e51b815260206004820152600a60248201526915934e881c185d5cd95960b21b6044820152606490fd5b15611e8b57565b60405162461bcd60e51b815260206004820152600f60248201526e15934e881e995c9bc8185b5bdd5b9d608a1b6044820152606490fd5b15611ec957565b60405162461bcd60e51b8152602060048201526012602482015271564d3a20696c6b206e6f742061637469766560701b6044820152606490fd5b90815f52600360205260405f209060018060a01b03165f5260205260405f2090600182015480156120d157611f5b676765c793fa10079d601b1b91835f52600460205260405f205480155f146120d957508290611936565b049081156120d157604051636dd5b69d60e01b8152600481018290529260c0846024817f00000000000000000000000000000000000000000000000000000000000000006001600160a01b03165afa938415611720575f946120b0575b506040516331d98b3f60e01b815260048101929092526020826024817f00000000000000000000000000000000000000000000000000000000000000006001600160a01b03165afa918215611720575f92612079575b5091602061203561203e93670de0b6b3a764000095549060018060a01b03885116916124da565b94015190611936565b04801561207257670de0b6b3a7640000820291808304670de0b6b3a764000014901517156117375761206f91611949565b90565b50505f1990565b9150916020823d6020116120a8575b816120956020938361186c565b8101031261172b5790519091602061200e565b3d9150612088565b6120ca91945060c03d60c01161023657610228818361186c565b925f611fb8565b5050505f1990565b90611936565b156120e657565b60405162461bcd60e51b815260206004820152601060248201526f564d3a207a65726f206164647265737360801b6044820152606490fd5b1561212557565b60405162461bcd60e51b815260206004820152601a60248201527f564d3a20636f6c6c61746572616c2073656e64206661696c65640000000000006044820152606490fd5b1561217157565b60405162461bcd60e51b815260206004820152600d60248201526c72706f772f6f766572666c6f7760981b6044820152606490fd5b9190915f9080156122f25760018416156122e157805b9360011c90815b6121cc57505050565b6121ea6121d98280611936565b9180159081156122ce575b5061216a565b6b019d971e4fe8401e740000008101908181116122ba5761220d9082101561216a565b826122a657676765c793fa10079d601b1b9004908160018216612236575b5060011c90816121c3565b859350612247816122599397611936565b938115918215612292575b505061216a565b6b019d971e4fe8401e740000008201918281116117375761227c9083101561216a565b676765c793fa10079d601b1b5f9204935f61222b565b61229e91925085611949565b145f80612252565b634e487b7160e01b83526012600452602483fd5b634e487b7160e01b84526011600452602484fd5b90506122da8184611949565b145f6121e4565b676765c793fa10079d601b1b6121bc565b505090155f1461230b57676765c793fa10079d601b1b90565b5f90565b600182015480156124c157612347676765c793fa10079d601b1b91835f52600460205260405f205480155f146120d957508290611936565b049081156124c157604051636dd5b69d60e01b8152600481018290529260c0846024817f00000000000000000000000000000000000000000000000000000000000000006001600160a01b03165afa938415611720575f946124a0575b506040516331d98b3f60e01b815260048101929092526020826024817f00000000000000000000000000000000000000000000000000000000000000006001600160a01b03165afa918215611720575f92612469575b5091602061203561242193670de0b6b3a764000095549060018060a01b03885116916124da565b0490811561246257670de0b6b3a7640000810290808204670de0b6b3a7640000149015171561173757670de0b6b3a76400009161245d91611949565b101590565b5050600190565b9150916020823d602011612498575b816124856020938361186c565b8101031261172b579051909160206123fa565b3d9150612478565b6124ba91945060c03d60c01161023657610228818361186c565b925f6123a4565b505050600190565b60ff16604d811161173757600a0a90565b60405163313ce56760e01b81529192909190602090829060049082906001600160a01b03165afa8015611720575f9061258f575b60ff1690506012811015612546576012039160ff831161173757612541611a3d926120d9670de0b6b3a7640000956124c9565b611936565b601281111561257b57601119019160ff831161173757612541611a3d92612575670de0b6b3a7640000956124c9565b90611949565b50670de0b6b3a764000091611a3d91611936565b506020813d6020116125c4575b816125a96020938361186c565b8101031261172b575160ff8116810361172b5760ff9061250e565b3d915061259c565b5f8054929590949093926001600160a01b0316801561278457604051637d88209760e01b8152602081600481855afa908115611720575f91612752575b508015612745578084101561273f5750825b839781612722575b50508580151580612719575b61263a575050505050565b60405163095ea7b360e01b81526001600160a01b0390921660048301526024820152906020908290815f816044810103926001600160a01b03165af18015611720576126e2575b505f546001600160a01b031691823b1561172b5760645f9283604051958694859363742f9e7160e01b8552600485015260248401528860448401525af18015611720576126d2575b80808085611e2b565b5f6126dc9161186c565b5f6126c9565b6020813d602011612711575b816126fb6020938361186c565b8101031261172b5761270c906118a2565b612681565b3d91506126ee565b5083151561262f565b6127379297508461273291611936565b611949565b945f80612623565b9261261b565b505f965086955050505050565b90506020813d60201161277c575b8161276d6020938361186c565b8101031261172b57515f612609565b3d9150612760565b505f955085945050505056fea2646970667358221220f6019a05d257a813cbf6511645d2d78f5c1765b05f1b0ad3b8e731715f0c34ce64736f6c634300082100330000000000000000000000005d42ebdbba61412295d7b0302d6f50ac449ddb4f000000000000000000000000b06c856c8eabd1d8321b687e188204c1018bc4e5000000000000000000000000aca81583840b1bf2ddf6cde824ada250c1936b4d000000000000000000000000dde78e6202518ff4936b5302cc2891ec180e8bff000000000000000000000000f39fd6e51aad88f6f4ce6ab8827279cfffb92266000000000000000000000000f39fd6e51aad88f6f4ce6ab8827279cfffb92266",
        "nonce": "0xb1",
        "chainId": "0xa455"
      },
      "additionalContracts": [],
      "isFixedGasLimit": false
    },
    {
      "hash": "0x800ff4729b2999b60938030d41edaf642367f9360283fca13ee6e257b62af4cb",
      "transactionType": "CREATE",
      "contractName": "StabilityPool",
      "contractAddress": "0xad523115cd35a8d4e60b3c0953e0e0ac10418309",
      "function": null,
      "arguments": [
        "0x5D42EBdBBa61412295D7b0302d6F50aC449Ddb4F",
        "0xf39Fd6e51aad88F6F4ce6aB8827279cffFb92266"
      ],
      "transaction": {
        "from": "0xf39fd6e51aad88f6f4ce6ab8827279cfffb92266",
        "gas": "0x1befd6",
        "value": "0x0",
        "input": "0x60a03461013657601f6118fd38819003918201601f19168301916001600160401b0383118484101761013a57808492604094855283398101031261013657610052602061004b8361014e565b920161014e565b670de0b6b3a76400006006556001600160a01b03909116908115610101576001600160a01b03169081156100cb57608052600180546001600160a01b03191691909117905560405161179a908161016382396080518181816102fa015281816106ff015281816109c901528181610d2901526110e90152f35b60405162461bcd60e51b815260206004820152600e60248201526d29a81d103d32b9379030b236b4b760911b6044820152606490fd5b60405162461bcd60e51b815260206004820152600d60248201526c14d40e881e995c9bc819d554d1609a1b6044820152606490fd5b5f80fd5b634e487b7160e01b5f52604160045260245ffd5b51906001600160a01b03821682036101365756fe60806040526004361015610011575f80fd5b5f5f3560e01c80632e1a7d4d146110355780632e54bf9514611035578063310599be14610ff15780633b5b7e3d14610fc7578063484be51414610f985780634ec18db914610f7b578063504758d614610f5e5780635f788d6514610e6e5780636aebb1ab14610c6b578063742f9e71146108b357806375829def1461085b57806378c77a24146107735780637d882097146107555780638a4adf241461072e5780638c87ee90146106e9578063997dc62e146106bf5780639ff552631461056b578063aaf5eb6814610548578063b0c8033d1461050f578063b2a6b800146104d6578063b543503e1461045c578063b6b55f251461027c578063d1a294c414610249578063d672bf541461020f578063e3fc028d146101d0578063f309f4d8146101b2578063f851a440146101895763fc7e286d1461014e575f80fd5b34610186576020366003190112610186576020906040906001600160a01b036101756111e7565b168152600383522054604051908152f35b80fd5b50346101865780600319360112610186576001546040516001600160a01b039091168152602090f35b50346101865780600319360112610186576020600654604051908152f35b5034610186576020366003190112610186576101ee600d541561123f565b6001600d556101fc3361150e565b61020860043533611597565b80600d5580f35b50346101865760203660031901126101865760043590600b5482101561018657602061023a83611213565b90549060031b1c604051908152f35b5034610186576020366003190112610186576020906004358152600a8252604060018060a01b0391205416604051908152f35b50346101865760203660031901126101865760043561029d600d541561123f565b6001600d556102ad811515611277565b6102b63361150e565b33825260086020526040822054600754116103f0575b6040516323b872dd60e01b81523360048201523060248201526044810182905260208180606481015b0381867f00000000000000000000000000000000000000000000000000000000000000006001600160a01b03165af180156103e55761033b9184916103b6575b50611310565b338252600360205260408220610352828254611486565b9055600654338352600560205260408320556007543383526008602052604083205561038081600254611486565b6002556040519081527f2da466a7b24304f47e87fa2e1e5a81b9831ce54fec19055ce277ca2f39ba42c460203392a280600d5580f35b6103d8915060203d6020116103de575b6103d081836112c2565b8101906112f8565b5f610335565b503d6103c6565b6040513d85823e3d90fd5b3382526003602052816040812055600b54825b8181106104115750506102cc565b8061041d600192611213565b90549060031b1c85526009602052604085205433865260046020526040862061044583611213565b90549060031b1c8752602052604086205501610403565b5034610186576020366003190112610186576104766111e7565b61048b60018060a01b03600154163314611493565b6001600160a01b031661049f8115156114cf565b81546001600160a01b031916811782557f8e902340d35762a5a36507c20fe38e5d549a721d9f846d6de7f397b5c26ab8538280a280f35b5034610186576020366003190112610186576020906040906001600160a01b036104fe6111e7565b168152600883522054604051908152f35b5034610186576020366003190112610186576020906040906001600160a01b036105376111e7565b168152600583522054604051908152f35b50346101865780600319360112610186576020604051670de0b6b3a76400008152f35b5034610186576040366003190112610186576004356105886111fd565b61059d60018060a01b03600154163314611493565b6001600160a01b0316801561068957818352600a60205260408320546001600160a01b031615610611575b818352600a6020908152604080852080546001600160a01b03191684179055519182527f7b02323155ee1835f3ad82fb0682024a2f6ea1380e110430fc6eb75fbffc866591a280f35b600b5468010000000000000000811015610675577f7b02323155ee1835f3ad82fb0682024a2f6ea1380e110430fc6eb75fbffc86659161065982600160209401600b55611213565b81549060031b9086821b915f19901b19161790559150506105c8565b634e487b7160e01b84526041600452602484fd5b60405162461bcd60e51b815260206004820152600e60248201526d29a81d103d32b937903a37b5b2b760911b6044820152606490fd5b50346101865760203660031901126101865760406020916004358152600c83522054604051908152f35b50346101865780600319360112610186576040517f00000000000000000000000000000000000000000000000000000000000000006001600160a01b03168152602090f35b5034610186578060031936011261018657546040516001600160a01b039091168152602090f35b50346101865780600319360112610186576020600254604051908152f35b503461018657602036600319011261018657600435610794600d541561123f565b6001600d556107a4811515611277565b6107ad3361150e565b33825260086020526040822054600754116107ef576040516323b872dd60e01b81523360048201523060248201526044810182905260208180606481016102f5565b3382526003602052816040812055600b54825b8181106108105750506102cc565b8061081c600192611213565b90549060031b1c85526009602052604085205433865260046020526040862061084483611213565b90549060031b1c8752602052604086205501610802565b5034610186576020366003190112610186576108756111e7565b6001549061088d336001600160a01b03841614611493565b6001600160a01b0316906108a28215156114cf565b6001600160a01b0319161760015580f35b5034610b25576060366003190112610b2557600435602435906044356108db600d541561123f565b6001600d555f546001600160a01b03163303610c2e578115610bf9578160025410610bbf575f838152600a6020526040902054610922906001600160a01b03161515611441565b5f838152600a602090815260408083205490516323b872dd60e01b81523360048201523060248201526044810185905292839160649183916001600160a01b03165af1908115610b1a575f91610ba0575b5015610b5b5760025415610b3d57670de0b6b3a76400008102818104670de0b6b3a76400001482151715610b29576002546109ad91611365565b835f5260096020526109c460405f20918254611486565b90555b7f00000000000000000000000000000000000000000000000000000000000000006001600160a01b0316803b15610b25575f8091602460405180948193630852cd8d60e31b83528860048401525af18015610b1a57610b05575b50600254610a2f83826112b5565b90151580610afc575b15610a94579160409183610a7b610a727f9f0e2e27f318babf40f39455bf2da36279d485bbb154091390dab5c7e946359e96600654611352565b60025490611365565b6006555b60025582519182526020820152a280600d5580f35b8015610ac6575b916040917f9f0e2e27f318babf40f39455bf2da36279d485bbb154091390dab5c7e946359e93610a7f565b60075460018101809111610ae857600755670de0b6b3a7640000600655610a9b565b634e487b7160e01b86526011600452602486fd5b50801515610a38565b610b129194505f906112c2565b5f925f610a21565b6040513d5f823e3d90fd5b5f80fd5b634e487b7160e01b5f52601160045260245ffd5b825f52600c60205260405f20610b54828254611486565b90556109c7565b60405162461bcd60e51b815260206004820152601e60248201527f53503a20636f6c6c61746572616c207472616e73666572206661696c656400006044820152606490fd5b610bb9915060203d6020116103de576103d081836112c2565b5f610973565b60405162461bcd60e51b815260206004820152601260248201527114d40e881c1bdbdb081d1bdbc81cdb585b1b60721b6044820152606490fd5b60405162461bcd60e51b815260206004820152600d60248201526c14d40e881e995c9bc81919589d609a1b6044820152606490fd5b60405162461bcd60e51b815260206004820152601560248201527429a81d103737ba103b30bab63a1036b0b730b3b2b960591b6044820152606490fd5b34610b25576040366003190112610b255760043560243567ffffffffffffffff8111610b255736602382011215610b255780600401359067ffffffffffffffff8211610b2557602490369260051b010111610b2557610ccc600d541561123f565b6001600d55610cdc811515611277565b610ce53361150e565b335f52600860205260405f205460075411610e02575b6040516323b872dd60e01b81523360048201523060248201526044810182905260208180606481015b03815f7f00000000000000000000000000000000000000000000000000000000000000006001600160a01b03165af18015610b1a57610d69915f91610de35750611310565b335f52600360205260405f20610d80828254611486565b9055600654335f52600560205260405f2055600754335f52600860205260405f2055610dae81600254611486565b6002556040519081527f2da466a7b24304f47e87fa2e1e5a81b9831ce54fec19055ce277ca2f39ba42c460203392a25f600d55005b610dfc915060203d6020116103de576103d081836112c2565b83610335565b335f5260036020525f6040812055600b545f5b818110610e23575050610cfb565b80610e2f600192611213565b90549060031b1c5f52600960205260405f2054335f52600460205260405f20610e5783611213565b90549060031b1c5f5260205260405f205501610e15565b34610b25576040366003190112610b2557600435610e8a6111fd565b50610e97600d541561123f565b6001600d55610ea7811515611277565b610eb03361150e565b335f52600860205260405f205460075411610ef2576040516323b872dd60e01b8152336004820152306024820152604481018290526020818060648101610d24565b335f5260036020525f6040812055600b545f5b818110610f13575050610cfb565b80610f1f600192611213565b90549060031b1c5f52600960205260405f2054335f52600460205260405f20610f4783611213565b90549060031b1c5f5260205260405f205501610f05565b34610b25575f366003190112610b25576020600754604051908152f35b34610b25575f366003190112610b25576020600254604051908152f35b34610b25576040366003190112610b25576020610fbf610fb66111e7565b60243590611383565b604051908152f35b34610b25576020366003190112610b25576004355f526009602052602060405f2054604051908152f35b34610b25576040366003190112610b25576001600160a01b036110126111e7565b165f52600460205260405f206024355f52602052602060405f2054604051908152f35b34610b25576020366003190112610b2557600435611055600d541561123f565b6001600d55611065811515611277565b61106e3361150e565b335f52600860205260405f20546007541161119857335f5260036020528060405f20541061115357335f52600360205260405f206110ad8282546112b5565b90556110bb816002546112b5565b60025560405163a9059cbb60e01b8152336004820152602481018290526020816044815f6001600160a01b037f0000000000000000000000000000000000000000000000000000000000000000165af18015610b1a57611121915f91610de35750611310565b6040519081527f7084f5476618d8e60b11ef0d7d3f06914655adb8793e28ff7f018d4c76d505d560203392a25f600d55005b60405162461bcd60e51b815260206004820152601860248201527f53503a20696e73756666696369656e74206465706f73697400000000000000006044820152606490fd5b60405162461bcd60e51b815260206004820152602160248201527f53503a206465706f736974206275726e656420696e206c69717569646174696f6044820152603760f91b6064820152608490fd5b600435906001600160a01b0382168203610b2557565b602435906001600160a01b0382168203610b2557565b600b5481101561122b57600b5f5260205f2001905f90565b634e487b7160e01b5f52603260045260245ffd5b1561124657565b60405162461bcd60e51b81526020600482015260096024820152681499595b9d1c985b9d60ba1b6044820152606490fd5b1561127e57565b60405162461bcd60e51b815260206004820152600f60248201526e14d40e881e995c9bc8185b5bdd5b9d608a1b6044820152606490fd5b91908203918211610b2957565b90601f8019910116810190811067ffffffffffffffff8211176112e457604052565b634e487b7160e01b5f52604160045260245ffd5b90816020910312610b2557518015158103610b255790565b1561131757565b60405162461bcd60e51b815260206004820152601360248201527214d40e881d1c985b9cd9995c8819985a5b1959606a1b6044820152606490fd5b81810292918115918404141715610b2957565b811561136f570490565b634e487b7160e01b5f52601260045260245ffd5b6001600160a01b03165f8181526003602052604090205491821561143a57670de0b6b3a76400009282611407935f52600560205260405f2054155f1461142857845b60065481810361140b575b50508261140192935f52600960205260405f2054915f52600460205260405f20905f5260205260405f2054906112b5565b90611352565b0490565b9061141c6114219261140195611352565b611365565b915f6113d0565b805f52600560205260405f20546113c5565b5050505f90565b1561144857565b60405162461bcd60e51b815260206004820152601660248201527514d40e881a5b1ac81b9bdd081c9959da5cdd195c995960521b6044820152606490fd5b91908201809211610b2957565b1561149a57565b60405162461bcd60e51b815260206004820152600d60248201526c29a81d103737ba1030b236b4b760991b6044820152606490fd5b156114d657565b60405162461bcd60e51b815260206004820152601060248201526f53503a207a65726f206164647265737360801b6044820152606490fd5b6001600160a01b03165f81815260036020526040902054801561159357815f52600560205260405f20548015611584575b60065491818303611551575b50505050565b61155e9261141c91611352565b815f52600360205260405f2055600654905f52600560205260405f20555f80808061154b565b50670de0b6b3a764000061153f565b5050565b5f828152600a60205260409020546115b9906001600160a01b03161515611441565b6001600160a01b0381165f818152600360205260409020549091811561173b57835f52600960205260405f205491835f52600460205260405f20855f5260205261160760405f2054846112b5565b90811561173357670de0b6b3a76400009161162191611352565b0491835f52600460205260405f20855f5260205260405f2055816116455750505050565b5f848152600a6020908152604080832054905163a9059cbb60e01b81526001600160a01b039485166004820152602481018690529391928492604492849291165af1908115610b1a575f91611714575b50156116cf5760207f85e429e8a0bf56d9ab471a80ddf210f520769a1bda3ee3946bab002feb6d0e8d91604051908152a35f80808061154b565b60405162461bcd60e51b815260206004820152601a60248201527f53503a20636f6c6c61746572616c2073656e64206661696c65640000000000006044820152606490fd5b61172d915060203d6020116103de576103d081836112c2565b5f611695565b505050505050565b505090805f52600960205260405f2054915f52600460205260405f20905f5260205260405f205556fea2646970667358221220810a50de237c05f842f37d6018ef374cf2ac256faf330358f4b0151c44302acc64736f6c634300082100330000000000000000000000005d42ebdbba61412295d7b0302d6f50ac449ddb4f000000000000000000000000f39fd6e51aad88f6f4ce6ab8827279cfffb92266",
        "nonce": "0xb2",
        "chainId": "0xa455"
      },
      "additionalContracts": [],
      "isFixedGasLimit": false
    },
    {
      "hash": "0x058a5254cdfd609a85324d221ffaeb0c53c1d1ca012890ab2e75a50dad0737bb",
      "transactionType": "CALL",
      "contractName": "StabilityPool",
      "contractAddress": "0xad523115cd35a8d4e60b3c0953e0e0ac10418309",
      "function": "setVaultManager(address)",
      "arguments": [
        "0xaB7B4c595d3cE8C85e16DA86630f2fc223B05057"
      ],
      "transaction": {
        "from": "0xf39fd6e51aad88f6f4ce6ab8827279cfffb92266",
        "to": "0xad523115cd35a8d4e60b3c0953e0e0ac10418309",
        "gas": "0x100af",
        "value": "0x0",
        "input": "0xb543503e000000000000000000000000ab7b4c595d3ce8c85e16da86630f2fc223b05057",
        "nonce": "0xb3",
        "chainId": "0xa455"
      },
      "additionalContracts": [],
      "isFixedGasLimit": false
    },
    {
      "hash": "0x47870d976565f75645b75fc157f40e480167112cf462e24fad7287939def7afa",
      "transactionType": "CALL",
      "contractName": "StabilityPool",
      "contractAddress": "0xad523115cd35a8d4e60b3c0953e0e0ac10418309",
      "function": "registerCollateralToken(bytes32,address)",
      "arguments": [
        "0x4554480000000000000000000000000000000000000000000000000000000000",
        "0x8bCe54ff8aB45CB075b044AE117b8fD91F9351aB"
      ],
      "transaction": {
        "from": "0xf39fd6e51aad88f6f4ce6ab8827279cfffb92266",
        "to": "0xad523115cd35a8d4e60b3c0953e0e0ac10418309",
        "gas": "0x1f42c",
        "value": "0x0",
        "input": "0x9ff5526345544800000000000000000000000000000000000000000000000000000000000000000000000000000000008bce54ff8ab45cb075b044ae117b8fd91f9351ab",
        "nonce": "0xb4",
        "chainId": "0xa455"
      },
      "additionalContracts": [],
      "isFixedGasLimit": false
    },
    {
      "hash": "0xc0cb05088e579affa64ec9ec9676bfbcc2ca01182fea62168a3537ebd6d4c589",
      "transactionType": "CALL",
      "contractName": "StabilityPool",
      "contractAddress": "0xad523115cd35a8d4e60b3c0953e0e0ac10418309",
      "function": "registerCollateralToken(bytes32,address)",
      "arguments": [
        "0x4744000000000000000000000000000000000000000000000000000000000000",
        "0xefAB0Beb0A557E452b398035eA964948c750b2Fd"
      ],
      "transaction": {
        "from": "0xf39fd6e51aad88f6f4ce6ab8827279cfffb92266",
        "to": "0xad523115cd35a8d4e60b3c0953e0e0ac10418309",
        "gas": "0x197d9",
        "value": "0x0",
        "input": "0x9ff552634744000000000000000000000000000000000000000000000000000000000000000000000000000000000000efab0beb0a557e452b398035ea964948c750b2fd",
        "nonce": "0xb5",
        "chainId": "0xa455"
      },
      "additionalContracts": [],
      "isFixedGasLimit": false
    },
    {
      "hash": "0x90a21f1fac3e15e270b732de3256271d6884a69babbc8adac4691361ace39a2f",
      "transactionType": "CALL",
      "contractName": "StabilityPool",
      "contractAddress": "0xad523115cd35a8d4e60b3c0953e0e0ac10418309",
      "function": "registerCollateralToken(bytes32,address)",
      "arguments": [
        "0x5553444300000000000000000000000000000000000000000000000000000000",
        "0x74Cf9087AD26D541930BaC724B7ab21bA8F00a27"
      ],
      "transaction": {
        "from": "0xf39fd6e51aad88f6f4ce6ab8827279cfffb92266",
        "to": "0xad523115cd35a8d4e60b3c0953e0e0ac10418309",
        "gas": "0x197fa",
        "value": "0x0",
        "input": "0x9ff55263555344430000000000000000000000000000000000000000000000000000000000000000000000000000000074cf9087ad26d541930bac724b7ab21ba8f00a27",
        "nonce": "0xb6",
        "chainId": "0xa455"
      },
      "additionalContracts": [],
      "isFixedGasLimit": false
    },
    {
      "hash": "0xec7fdf8b144bc9dec1b17af86cb5632a187f905d5d827633a03075b6ac167c66",
      "transactionType": "CREATE",
      "contractName": "PegStabilityModule",
      "contractAddress": "0x821f3361d454cc98b7555221a06be563a7e2e0a6",
      "function": null,
      "arguments": [
        "0x5D42EBdBBa61412295D7b0302d6F50aC449Ddb4F",
        "0x74Cf9087AD26D541930BaC724B7ab21bA8F00a27",
        "0xddE78e6202518FF4936b5302cC2891ec180E8bFf",
        "0xf39Fd6e51aad88F6F4ce6aB8827279cffFb92266"
      ],
      "transaction": {
        "from": "0xf39fd6e51aad88f6f4ce6ab8827279cfffb92266",
        "gas": "0x162b79",
        "value": "0x0",
        "input": "0x60e03461020757601f61148238819003918201601f19168301916001600160401b0383118484101761020b57808492608094604052833981010312610207576100478161021f565b6100536020830161021f565b9161006c60606100656040840161021f565b920161021f565b6001600160a01b039092169283156101d1576001600160a01b031690811561019b576001600160a01b0316918215610161576001600160a01b031692831561012a5760805260a05260c0525f80546001600160a01b031916919091179055600a60015560405161124e908161023482396080518181816101f1015281816108820152610b9a015260a0518181816102bc01528181610648015281816107fb0152610e52015260c05181818161038d0152818161098c0152610d2f0152f35b60405162461bcd60e51b815260206004820152600f60248201526e2829a69d103d32b9379030b236b4b760891b6044820152606490fd5b60405162461bcd60e51b81526020600482015260126024820152712829a69d103d32b9379039b83634ba3a32b960711b6044820152606490fd5b60405162461bcd60e51b815260206004820152600e60248201526d50534d3a207a65726f205553444360901b6044820152606490fd5b60405162461bcd60e51b815260206004820152600e60248201526d1414d34e881e995c9bc819d554d160921b6044820152606490fd5b5f80fd5b634e487b7160e01b5f52604160045260245ffd5b51906001600160a01b03821682036102075756fe6080806040526004361015610012575f80fd5b5f905f3560e01c90816302df9df114610f945750806316c38b3c14610f265780631a1c6e5314610f09578063215f0f9814610eee578063249d39e914610ed25780632660369314610e815780633e413bee14610e3d5780635641bc0714610e205780635c975abb14610dfe578063604b6a9c14610d5e5780636052970c14610d1a57806360c6d8ae14610cfd5780636515e5d814610ce057806375829def14610c655780637d706da014610c0d57806384891c5014610bc95780638c87ee9014610b85578063bf79ef7214610b68578063c1419def14610b4d578063cc9990171461077f578063e478795d1461057f578063eced55261461055f578063ee84f2fe1461014f5763f851a44014610126575f80fd5b3461014c578060031936011261014c57546040516001600160a01b039091168152602090f35b80fd5b503461014c57602036600319011261014c5760043561017060085415611061565b600160085561018460ff6003541615611099565b61018f8115156110d3565b61271061019e60015483611001565b046101a98183611014565b9064e8d4a510008204916101be8315156111b9565b826004541061051a576040516323b872dd60e01b8152336004820152306024820152604481018590526001600160a01b037f000000000000000000000000000000000000000000000000000000000000000016906020816064818a865af190811561050f5787916104f0575b50156104ab578591813b156104a757604051630852cd8d60e31b815260048101829052838160248183875af1908115610487578491610492575b505061027290600754611112565b60075582610376575b505061028982600454611014565b600490815560405163a9059cbb60e01b815233918101919091526024810183905291602083604481886001600160a01b037f0000000000000000000000000000000000000000000000000000000000000000165af192831561036b577f19d6baaf4008076fefde90765b8965de468a3f462d7d146e5a9d1468008c890d9361031891879161033c575b5061116d565b604080519485526020850191909152830152339180606081015b0390a28060085580f35b61035e915060203d602011610364575b610356818361111f565b810190611155565b5f610312565b503d61034c565b6040513d87823e3d90fd5b60405163095ea7b360e01b81526001600160a01b037f000000000000000000000000000000000000000000000000000000000000000016600482018190526024820185905290919060208360448187865af1918215610487576060936104159361046a575b50604051633e5a775160e11b8152600481018790523060248201526001600160a01b03909116604482015293849283919082906064820190565b03925af1801561036b5761043b575b5061043181600554611112565b600555835f61027b565b61045c9060603d606011610463575b610454818361111f565b8101906111fd565b5050610424565b503d61044a565b6104829060203d60201161036457610356818361111f565b6103db565b6040513d86823e3d90fd5b8161049c9161111f565b6104a757825f610264565b8280fd5b60405162461bcd60e51b815260206004820152601960248201527f50534d3a2067555344207472616e73666572206661696c6564000000000000006044820152606490fd5b610509915060203d60201161036457610356818361111f565b5f61022a565b6040513d89823e3d90fd5b60405162461bcd60e51b815260206004820152601a60248201527f50534d3a20696e73756666696369656e742072657365727665730000000000006044820152606490fd5b503461014c578060031936011261014c57602060405164e8d4a510008152f35b503461014c57604036600319011261014c57610599610fae565b6024356105b060018060a01b038454163314610fc4565b6105c46001600160a01b0383161515611021565b600454908181116107425760065460075490818111156107345764e8d4a51000916105ee91611014565b046105f98284611014565b106106ef576106439261060e82602094611014565b600490815560405163a9059cbb60e01b81526001600160a01b0390921690820152602481019190915291829081906044820190565b0381857f00000000000000000000000000000000000000000000000000000000000000006001600160a01b03165af19081156106e45782916106c5575b50156106895780f35b60405162461bcd60e51b81526020600482015260146024820152731414d34e881d1c985b9cd9995c8819985a5b195960621b6044820152606490fd5b6106de915060203d60201161036457610356818361111f565b5f610680565b6040513d84823e3d90fd5b60405162461bcd60e51b815260206004820152601860248201527f50534d3a20756e646572636f6c6c61746572616c697a656400000000000000006044820152606490fd5b505064e8d4a51000846105ee565b60405162461bcd60e51b815260206004820152601560248201527450534d3a206578636565647320726573657276657360581b6044820152606490fd5b5034610ae1576020366003190112610ae1576004356107a060085415611061565b60016008556107b460ff6003541615611099565b80156107c081156110d3565b60025480610af9575b506040516323b872dd60e01b8152336004820152306024820152604481018390526020816064815f6001600160a01b037f0000000000000000000000000000000000000000000000000000000000000000165af18015610ad657610833915f9161033c575061116d565b61083f82600454611112565b60045564e8d4a5100082029082820464e8d4a51000141715610ae55761087561271061086d60015484611001565b048092611014565b6108808115156111b9565b7f00000000000000000000000000000000000000000000000000000000000000006001600160a01b0316803b15610ae1576040516340c10f1960e01b8152336004820152602481018390525f8160448183865af18015610ad657610abd575b50908492916108f082600654611112565b6006558261093b575b506040805194855260208501919091528301525033907fc91682597e50d783bf81329b763263cef72b0cda71f5e617e0bd4b4150f84403908060608101610332565b803b15610ab9576040516340c10f1960e01b815230600482015260248101849052848160448183865af190811561036b578591610aa4575b505060405163095ea7b360e01b81526001600160a01b037f000000000000000000000000000000000000000000000000000000000000000016600482018190526024820185905290919060208360448189865af1918215610a9957606093610a1493610a7c575b50604051633e5a775160e11b8152600481018790523060248201526001600160a01b03909116604482015295869283919082906064820190565b03925af192831561036b577fc91682597e50d783bf81329b763263cef72b0cda71f5e617e0bd4b4150f8440393610a5d575b50610a5382600554611112565b60055584926108f9565b610a759060603d60601161046357610454818361111f565b5050610a46565b610a949060203d60201161036457610356818361111f565b6109da565b6040513d88823e3d90fd5b81610aae9161111f565b610ab957835f610973565b8380fd5b610acc91939295505f9061111f565b5f9390915f6108df565b6040513d5f823e3d90fd5b5f80fd5b634e487b7160e01b5f52601160045260245ffd5b610b0583600454611112565b11610b10575f6107c9565b60405162461bcd60e51b81526020600482015260156024820152741414d34e881cddd85c0818d85c081c995858da1959605a1b6044820152606490fd5b34610ae1575f366003190112610ae157602060405160068152f35b34610ae1575f366003190112610ae1576020600454604051908152f35b34610ae1575f366003190112610ae1576040517f00000000000000000000000000000000000000000000000000000000000000006001600160a01b03168152602090f35b34610ae1576020366003190112610ae157604060043564e8d4a51000610bff612710610bf760015485611001565b048093611014565b049082519182526020820152f35b34610ae1576020366003190112610ae1577f334538d502feb3f0c7fab3f05496f1f17cfd920a1f428b3ff468292cfb0a41046020600435610c5860018060a01b035f54163314610fc4565b80600255604051908152a1005b34610ae1576020366003190112610ae157610c7e610fae565b5f546001600160a01b03811691610c96338414610fc4565b6001600160a01b0316918290610cad821515611021565b7ff8ccb027dfcd135e000e9d45e6cc2d662578a8825d4c45b5e32e0adf67e79ec65f80a36001600160a01b031916175f55005b34610ae1575f366003190112610ae1576020600654604051908152f35b34610ae1575f366003190112610ae1576020600554604051908152f35b34610ae1575f366003190112610ae1576040517f00000000000000000000000000000000000000000000000000000000000000006001600160a01b03168152602090f35b34610ae1576020366003190112610ae157600435610d8660018060a01b035f54163314610fc4565b60c88111610dc5577fb04438781e840362c78ce8cc4b97de7afc9aaccde53ad4c035c61d532474c66060406001548151908152836020820152a1600155005b60405162461bcd60e51b81526020600482015260116024820152700a0a69a7440cccaca40e8dede40d0d2ced607b1b6044820152606490fd5b34610ae1575f366003190112610ae157602060ff600354166040519015158152f35b34610ae1575f366003190112610ae1576020600754604051908152f35b34610ae1575f366003190112610ae1576040517f00000000000000000000000000000000000000000000000000000000000000006001600160a01b03168152602090f35b34610ae1576020366003190112610ae15760043564e8d4a5100081029080820464e8d4a510001490151715610ae557604090610ec561271061086d60015484611001565b9082519182526020820152f35b34610ae1575f366003190112610ae15760206040516127108152f35b34610ae1575f366003190112610ae157602060405160128152f35b34610ae1575f366003190112610ae1576020600154604051908152f35b34610ae1576020366003190112610ae157600435801515809103610ae15760207f0e2fb031ee032dc02d8011dc50b816eb450cf856abd8261680dac74f72165bd291610f7c60018060a01b035f54163314610fc4565b60ff196003541660ff821617600355604051908152a1005b34610ae1575f366003190112610ae1576020906002548152f35b600435906001600160a01b0382168203610ae157565b15610fcb57565b60405162461bcd60e51b815260206004820152600e60248201526d2829a69d103737ba1030b236b4b760911b6044820152606490fd5b81810292918115918404141715610ae557565b91908203918211610ae557565b1561102857565b60405162461bcd60e51b815260206004820152601160248201527050534d3a207a65726f206164647265737360781b6044820152606490fd5b1561106857565b60405162461bcd60e51b81526020600482015260096024820152681499595b9d1c985b9d60ba1b6044820152606490fd5b156110a057565b60405162461bcd60e51b815260206004820152600b60248201526a1414d34e881c185d5cd95960aa1b6044820152606490fd5b156110da57565b60405162461bcd60e51b815260206004820152601060248201526f1414d34e881e995c9bc8185b5bdd5b9d60821b6044820152606490fd5b91908201809211610ae557565b90601f8019910116810190811067ffffffffffffffff82111761114157604052565b634e487b7160e01b5f52604160045260245ffd5b90816020910312610ae157518015158103610ae15790565b1561117457565b60405162461bcd60e51b815260206004820152601960248201527f50534d3a2055534443207472616e73666572206661696c6564000000000000006044820152606490fd5b156111c057565b60405162461bcd60e51b81526020600482015260156024820152741414d34e881bdd5d1c1d5d081d1bdbc81cdb585b1b605a1b6044820152606490fd5b90816060910312610ae157805191604060208301519201519056fea26469706673582212205d8c796a2ebaaa81215a2f46b506b8ff52422ecb7f3a0bb30f6d0f4a4fb2e8ed64736f6c634300082100330000000000000000000000005d42ebdbba61412295d7b0302d6f50ac449ddb4f00000000000000000000000074cf9087ad26d541930bac724b7ab21ba8f00a27000000000000000000000000dde78e6202518ff4936b5302cc2891ec180e8bff000000000000000000000000f39fd6e51aad88f6f4ce6ab8827279cfffb92266",
        "nonce": "0xb7",
        "chainId": "0xa455"
      },
      "additionalContracts": [],
      "isFixedGasLimit": false
    },
    {
      "hash": "0x24b6a0e864da4a0a24c4ff1304c949d3a57cdfb6c6dd2db1ddc5b51b7cb7f505",
      "transactionType": "CALL",
      "contractName": "gUSD",
      "contractAddress": "0x5d42ebdbba61412295d7b0302d6f50ac449ddb4f",
      "function": "setMinter(address,bool)",
      "arguments": [
        "0xaB7B4c595d3cE8C85e16DA86630f2fc223B05057",
        "true"
      ],
      "transaction": {
        "from": "0xf39fd6e51aad88f6f4ce6ab8827279cfffb92266",
        "to": "0x5d42ebdbba61412295d7b0302d6f50ac449ddb4f",
        "gas": "0x10306",
        "value": "0x0",
        "input": "0xcf456ae7000000000000000000000000ab7b4c595d3ce8c85e16da86630f2fc223b050570000000000000000000000000000000000000000000000000000000000000001",
        "nonce": "0xb8",
        "chainId": "0xa455"
      },
      "additionalContracts": [],
      "isFixedGasLimit": false
    },
    {
      "hash": "0x03b32e2efa3447d29844798e3abac6039864dd7f277d1021d65a9717093c8914",
      "transactionType": "CALL",
      "contractName": "gUSD",
      "contractAddress": "0x5d42ebdbba61412295d7b0302d6f50ac449ddb4f",
      "function": "setMinter(address,bool)",
      "arguments": [
        "0x821f3361D454cc98b7555221A06Be563a7E2E0A6",
        "true"
      ],
      "transaction": {
        "from": "0xf39fd6e51aad88f6f4ce6ab8827279cfffb92266",
        "to": "0x5d42ebdbba61412295d7b0302d6f50ac449ddb4f",
        "gas": "0x10306",
        "value": "0x0",
        "input": "0xcf456ae7000000000000000000000000821f3361d454cc98b7555221a06be563a7e2e0a60000000000000000000000000000000000000000000000000000000000000001",
        "nonce": "0xb9",
        "chainId": "0xa455"
      },
      "additionalContracts": [],
      "isFixedGasLimit": false
    },
    {
      "hash": "0x279d86f762eb345a1ff17dc920be408a6be30b8d7c08913cd75985e093c5d2eb",
      "transactionType": "CALL",
      "contractName": "gUSD",
      "contractAddress": "0x5d42ebdbba61412295d7b0302d6f50ac449ddb4f",
      "function": "setBurner(address,bool)",
      "arguments": [
        "0xaB7B4c595d3cE8C85e16DA86630f2fc223B05057",
        "true"
      ],
      "transaction": {
        "from": "0xf39fd6e51aad88f6f4ce6ab8827279cfffb92266",
        "to": "0x5d42ebdbba61412295d7b0302d6f50ac449ddb4f",
        "gas": "0x110a1",
        "value": "0x0",
        "input": "0x0d895ee1000000000000000000000000ab7b4c595d3ce8c85e16da86630f2fc223b050570000000000000000000000000000000000000000000000000000000000000001",
        "nonce": "0xba",
        "chainId": "0xa455"
      },
      "additionalContracts": [],
      "isFixedGasLimit": false
    },
    {
      "hash": "0x25bf7d4c057d6bf0154f25edd458df5df932571ea8a1ae7800320fa8fd363559",
      "transactionType": "CALL",
      "contractName": "gUSD",
      "contractAddress": "0x5d42ebdbba61412295d7b0302d6f50ac449ddb4f",
      "function": "setBurner(address,bool)",
      "arguments": [
        "0x821f3361D454cc98b7555221A06Be563a7E2E0A6",
        "true"
      ],
      "transaction": {
        "from": "0xf39fd6e51aad88f6f4ce6ab8827279cfffb92266",
        "to": "0x5d42ebdbba61412295d7b0302d6f50ac449ddb4f",
        "gas": "0x110a1",
        "value": "0x0",
        "input": "0x0d895ee1000000000000000000000000821f3361d454cc98b7555221a06be563a7e2e0a60000000000000000000000000000000000000000000000000000000000000001",
        "nonce": "0xbb",
        "chainId": "0xa455"
      },
      "additionalContracts": [],
      "isFixedGasLimit": false
    },
    {
      "hash": "0x921e81e23ebf660cb4ad35290c504b1b0f588ceb91aef98860a398e141e35d07",
      "transactionType": "CALL",
      "contractName": "gUSD",
      "contractAddress": "0x5d42ebdbba61412295d7b0302d6f50ac449ddb4f",
      "function": "setBurner(address,bool)",
      "arguments": [
        "0xAD523115cd35a8d4E60B3C0953E0E0ac10418309",
        "true"
      ],
      "transaction": {
        "from": "0xf39fd6e51aad88f6f4ce6ab8827279cfffb92266",
        "to": "0x5d42ebdbba61412295d7b0302d6f50ac449ddb4f",
        "gas": "0x110a1",
        "value": "0x0",
        "input": "0x0d895ee1000000000000000000000000ad523115cd35a8d4e60b3c0953e0e0ac104183090000000000000000000000000000000000000000000000000000000000000001",
        "nonce": "0xbc",
        "chainId": "0xa455"
      },
      "additionalContracts": [],
      "isFixedGasLimit": false
    },
    {
      "hash": "0x93faeaa2a10804e54aae528a7dd825b3d591777215995f752e7217d0ac8a85f2",
      "transactionType": "CALL",
      "contractName": "VaultManager",
      "contractAddress": "0xab7b4c595d3ce8c85e16da86630f2fc223b05057",
      "function": "setStabilityPool(address)",
      "arguments": [
        "0xAD523115cd35a8d4E60B3C0953E0E0ac10418309"
      ],
      "transaction": {
        "from": "0xf39fd6e51aad88f6f4ce6ab8827279cfffb92266",
        "to": "0xab7b4c595d3ce8c85e16da86630f2fc223b05057",
        "gas": "0x10f65",
        "value": "0x0",
        "input": "0x98d721e0000000000000000000000000ad523115cd35a8d4e60b3c0953e0e0ac10418309",
        "nonce": "0xbd",
        "chainId": "0xa455"
      },
      "additionalContracts": [],
      "isFixedGasLimit": false
    },
    {
      "hash": "0xa6c49f70e79ea7a085d2c663d11548f734bdd0985605b2dd7a4493002a93d3a6",
      "transactionType": "CALL",
      "contractName": "MockWETH18",
      "contractAddress": "0x8bce54ff8ab45cb075b044ae117b8fd91f9351ab",
      "function": "mint(address,uint256)",
      "arguments": [
        "0xf39Fd6e51aad88F6F4ce6aB8827279cffFb92266",
        "100000000000000000000"
      ],
      "transaction": {
        "from": "0xf39fd6e51aad88f6f4ce6ab8827279cfffb92266",
        "to": "0x8bce54ff8ab45cb075b044ae117b8fd91f9351ab",
        "gas": "0x18594",
        "value": "0x0",
        "input": "0x40c10f19000000000000000000000000f39fd6e51aad88f6f4ce6ab8827279cfffb922660000000000000000000000000000000000000000000000056bc75e2d63100000",
        "nonce": "0xbe",
        "chainId": "0xa455"
      },
      "additionalContracts": [],
      "isFixedGasLimit": false
    },
    {
      "hash": "0x2109d07d1a440966accdaaeff98de324249ffd777b15be023779b6e0386fb4d3",
      "transactionType": "CALL",
      "contractName": "MockUSDC6",
      "contractAddress": "0x74cf9087ad26d541930bac724b7ab21ba8f00a27",
      "function": "mint(address,uint256)",
      "arguments": [
        "0xf39Fd6e51aad88F6F4ce6aB8827279cffFb92266",
        "1000000000000"
      ],
      "transaction": {
        "from": "0xf39fd6e51aad88f6f4ce6ab8827279cfffb92266",
        "to": "0x74cf9087ad26d541930bac724b7ab21ba8f00a27",
        "gas": "0x16fbc",
        "value": "0x0",
        "input": "0x40c10f19000000000000000000000000f39fd6e51aad88f6f4ce6ab8827279cfffb92266000000000000000000000000000000000000000000000000000000e8d4a51000",
        "nonce": "0xbf",
        "chainId": "0xa455"
      },
      "additionalContracts": [],
      "isFixedGasLimit": false
    },
    {
      "hash": "0x9ba34e9f9cb1f980371aadc33a1ec6e288508b034f9c0efb3ec3fd083c3377e7",
      "transactionType": "CALL",
      "contractName": "MockGD18",
      "contractAddress": "0xefab0beb0a557e452b398035ea964948c750b2fd",
      "function": "mint(address,uint256)",
      "arguments": [
        "0xf39Fd6e51aad88F6F4ce6aB8827279cffFb92266",
        "100000000000000000000000000"
      ],
      "transaction": {
        "from": "0xf39fd6e51aad88f6f4ce6ab8827279cfffb92266",
        "to": "0xefab0beb0a557e452b398035ea964948c750b2fd",
        "gas": "0x16fff",
        "value": "0x0",
        "input": "0x40c10f19000000000000000000000000f39fd6e51aad88f6f4ce6ab8827279cfffb9226600000000000000000000000000000000000000000052b7d2dcc80cd2e4000000",
        "nonce": "0xc0",
        "chainId": "0xa455"
      },
      "additionalContracts": [],
      "isFixedGasLimit": false
    },
    {
      "hash": "0x853b254451272bbc3a22005882bf703e270e1bc81fbfcd0b7ab5d953d69181b1",
      "transactionType": "CALL",
      "contractName": "MockWETH18",
      "contractAddress": "0x8bce54ff8ab45cb075b044ae117b8fd91f9351ab",
      "function": "approve(address,uint256)",
      "arguments": [
        "0xaB7B4c595d3cE8C85e16DA86630f2fc223B05057",
        "10000000000000000000"
      ],
      "transaction": {
        "from": "0xf39fd6e51aad88f6f4ce6ab8827279cfffb92266",
        "to": "0x8bce54ff8ab45cb075b044ae117b8fd91f9351ab",
        "gas": "0x1066e",
        "value": "0x0",
        "input": "0x095ea7b3000000000000000000000000ab7b4c595d3ce8c85e16da86630f2fc223b050570000000000000000000000000000000000000000000000008ac7230489e80000",
        "nonce": "0xc1",
        "chainId": "0xa455"
      },
      "additionalContracts": [],
      "isFixedGasLimit": false
    },
    {
      "hash": "0x1e1705f18ca4907ce5d0c972796a0e31468a664bde09ece871199df4e2a37713",
      "transactionType": "CALL",
      "contractName": "VaultManager",
      "contractAddress": "0xab7b4c595d3ce8c85e16da86630f2fc223b05057",
      "function": "depositCollateral(bytes32,uint256)",
      "arguments": [
        "0x4554480000000000000000000000000000000000000000000000000000000000",
        "10000000000000000000"
      ],
      "transaction": {
        "from": "0xf39fd6e51aad88f6f4ce6ab8827279cfffb92266",
        "to": "0xab7b4c595d3ce8c85e16da86630f2fc223b05057",
        "gas": "0x31c34",
        "value": "0x0",
        "input": "0xdea9b46445544800000000000000000000000000000000000000000000000000000000000000000000000000000000000000000000000000000000008ac7230489e80000",
        "nonce": "0xc2",
        "chainId": "0xa455"
      },
      "additionalContracts": [],
      "isFixedGasLimit": false
    },
    {
      "hash": "0x1796fa27c2fc981432ed7ce7a4cd76cbbd0275b8d053f2c637e92a4c8cb3b819",
      "transactionType": "CALL",
      "contractName": "VaultManager",
      "contractAddress": "0xab7b4c595d3ce8c85e16da86630f2fc223b05057",
      "function": "mintGUSD(bytes32,uint256)",
      "arguments": [
        "0x4554480000000000000000000000000000000000000000000000000000000000",
        "5000000000000000000000"
      ],
      "transaction": {
        "from": "0xf39fd6e51aad88f6f4ce6ab8827279cfffb92266",
        "to": "0xab7b4c595d3ce8c85e16da86630f2fc223b05057",
        "gas": "0x3ef90",
        "value": "0x0",
        "input": "0x468c9bd1455448000000000000000000000000000000000000000000000000000000000000000000000000000000000000000000000000000000010f0cf064dd59200000",
        "nonce": "0xc3",
        "chainId": "0xa455"
      },
      "additionalContracts": [],
      "isFixedGasLimit": false
    },
    {
      "hash": "0xabb17ff397b41db3ad84adb03371ae474f6f220ac671250c1df53210ca048bcc",
      "transactionType": "CALL",
      "contractName": "MockUSDC6",
      "contractAddress": "0x74cf9087ad26d541930bac724b7ab21ba8f00a27",
      "function": "approve(address,uint256)",
      "arguments": [
        "0x821f3361D454cc98b7555221A06Be563a7E2E0A6",
        "100000000000"
      ],
      "transaction": {
        "from": "0xf39fd6e51aad88f6f4ce6ab8827279cfffb92266",
        "to": "0x74cf9087ad26d541930bac724b7ab21ba8f00a27",
        "gas": "0x1064b",
        "value": "0x0",
        "input": "0x095ea7b3000000000000000000000000821f3361d454cc98b7555221a06be563a7e2e0a6000000000000000000000000000000000000000000000000000000174876e800",
        "nonce": "0xc4",
        "chainId": "0xa455"
      },
      "additionalContracts": [],
      "isFixedGasLimit": false
    },
    {
      "hash": "0x11ed248a3937c77595f22beaade12b2da9f7c729e0535f92d16ac232ce9c4543",
      "transactionType": "CALL",
      "contractName": "PegStabilityModule",
      "contractAddress": "0x821f3361d454cc98b7555221a06be563a7e2e0a6",
      "function": "swapUSDCForGUSD(uint256)",
      "arguments": [
        "100000000000"
      ],
      "transaction": {
        "from": "0xf39fd6e51aad88f6f4ce6ab8827279cfffb92266",
        "to": "0x821f3361d454cc98b7555221a06be563a7e2e0a6",
        "gas": "0x58e04",
        "value": "0x0",
        "input": "0xcc999017000000000000000000000000000000000000000000000000000000174876e800",
        "nonce": "0xc5",
        "chainId": "0xa455"
      },
      "additionalContracts": [],
      "isFixedGasLimit": false
    },
    {
      "hash": "0xed769cc08393380c41780bba30d5f5325b9b50073dd03f2d18ca39fad8ee4b61",
      "transactionType": "CALL",
      "contractName": "gUSD",
      "contractAddress": "0x5d42ebdbba61412295d7b0302d6f50ac449ddb4f",
      "function": "approve(address,uint256)",
      "arguments": [
        "0xAD523115cd35a8d4E60B3C0953E0E0ac10418309",
        "2000000000000000000000"
      ],
      "transaction": {
        "from": "0xf39fd6e51aad88f6f4ce6ab8827279cfffb92266",
        "to": "0x5d42ebdbba61412295d7b0302d6f50ac449ddb4f",
        "gas": "0x1066e",
        "value": "0x0",
        "input": "0x095ea7b3000000000000000000000000ad523115cd35a8d4e60b3c0953e0e0ac1041830900000000000000000000000000000000000000000000006c6b935b8bbd400000",
        "nonce": "0xc6",
        "chainId": "0xa455"
      },
      "additionalContracts": [],
      "isFixedGasLimit": false
    },
    {
      "hash": "0x8fed6f666ff76cc7e2ceec953130a2f4bdbaba36dbff75a57134b0ab6d5ecbf9",
      "transactionType": "CALL",
      "contractName": "StabilityPool",
      "contractAddress": "0xad523115cd35a8d4e60b3c0953e0e0ac10418309",
      "function": "deposit(uint256)",
      "arguments": [
        "2000000000000000000000"
      ],
      "transaction": {
        "from": "0xf39fd6e51aad88f6f4ce6ab8827279cfffb92266",
        "to": "0xad523115cd35a8d4e60b3c0953e0e0ac10418309",
        "gas": "0x2d8a6",
        "value": "0x0",
        "input": "0xb6b55f2500000000000000000000000000000000000000000000006c6b935b8bbd400000",
        "nonce": "0xc7",
        "chainId": "0xa455"
      },
      "additionalContracts": [],
      "isFixedGasLimit": false
    }
  ],
  "receipts": [
    {
      "status": "0x1",
      "cumulativeGasUsed": "0x5ac8e",
      "logs": [],
      "logsBloom": "0x00000000000000000000000000000000000000000000000000000000000000000000000000000000000000000000000000000000000000000000000000000000000000000000000000000000000000000000000000000000000000000000000000000000000000000000000000000000000000000000000000000000000000000000000000000000000000000000000000000000000000000000000000000000000000000000000000000000000000000000000000000000000000000000000000000000000000000000000000000000000000000000000000000000000000000000000000000000000000000000000000000000000000000000000000000000",
      "type": "0x2",
      "transactionHash": "0x3b08d762fa2bd92cee611bd63d35ff89298ff893ece69ecbd185381ccd2638e3",
      "transactionIndex": "0x0",
      "blockHash": "0x456c678cac977ccc3f85e63eba698ae07db4056e40ab3d0e92258e08324deb54",
      "blockNumber": "0x694",
      "gasUsed": "0x5ac8e",
      "effectiveGasPrice": "0x8",
      "blobGasPrice": "0x1",
      "from": "0xf39fd6e51aad88f6f4ce6ab8827279cfffb92266",
      "to": null,
      "contractAddress": "0x8bce54ff8ab45cb075b044ae117b8fd91f9351ab",
      "blockTimestamp": 1775330630
    },
    {
      "status": "0x1",
      "cumulativeGasUsed": "0xb54dd",
      "logs": [],
      "logsBloom": "0x00000000000000000000000000000000000000000000000000000000000000000000000000000000000000000000000000000000000000000000000000000000000000000000000000000000000000000000000000000000000000000000000000000000000000000000000000000000000000000000000000000000000000000000000000000000000000000000000000000000000000000000000000000000000000000000000000000000000000000000000000000000000000000000000000000000000000000000000000000000000000000000000000000000000000000000000000000000000000000000000000000000000000000000000000000000",
      "type": "0x2",
      "transactionHash": "0x03b32e2efa3447d29844798e3abac6039864dd7f277d1021d65a9717093c8914",
      "transactionIndex": "0x1",
      "blockHash": "0x456c678cac977ccc3f85e63eba698ae07db4056e40ab3d0e92258e08324deb54",
      "blockNumber": "0x694",
      "gasUsed": "0x5a84f",
      "effectiveGasPrice": "0x8",
      "blobGasPrice": "0x1",
      "from": "0xf39fd6e51aad88f6f4ce6ab8827279cfffb92266",
      "to": null,
      "contractAddress": "0x74cf9087ad26d541930bac724b7ab21ba8f00a27",
      "blockTimestamp": 1775330630
    },
    {
      "status": "0x1",
      "cumulativeGasUsed": "0x10fd2c",
      "logs": [],
      "logsBloom": "0x00000000000000000000000000000000000000000000000000000000000000000000000000000000000000000000000000000000000000000000000000000000000000000000000000000000000000000000000000000000000000000000000000000000000000000000000000000000000000000000000000000000000000000000000000000000000000000000000000000000000000000000000000000000000000000000000000000000000000000000000000000000000000000000000000000000000000000000000000000000000000000000000000000000000000000000000000000000000000000000000000000000000000000000000000000000",
      "type": "0x2",
      "transactionHash": "0x263d63e1fab2b4eeadb1ffe6499d2aad61a032cf2a96a1e629c8204e0d520264",
      "transactionIndex": "0x2",
      "blockHash": "0x456c678cac977ccc3f85e63eba698ae07db4056e40ab3d0e92258e08324deb54",
      "blockNumber": "0x694",
      "gasUsed": "0x5a84f",
      "effectiveGasPrice": "0x8",
      "blobGasPrice": "0x1",
      "from": "0xf39fd6e51aad88f6f4ce6ab8827279cfffb92266",
      "to": null,
      "contractAddress": "0xefab0beb0a557e452b398035ea964948c750b2fd",
      "blockTimestamp": 1775330630
    },
    {
      "status": "0x1",
      "cumulativeGasUsed": "0x126bcf",
      "logs": [],
      "logsBloom": "0x00000000000000000000000000000000000000000000000000000000000000000000000000000000000000000000000000000000000000000000000000000000000000000000000000000000000000000000000000000000000000000000000000000000000000000000000000000000000000000000000000000000000000000000000000000000000000000000000000000000000000000000000000000000000000000000000000000000000000000000000000000000000000000000000000000000000000000000000000000000000000000000000000000000000000000000000000000000000000000000000000000000000000000000000000000000",
      "type": "0x2",
      "transactionHash": "0x46cc1bc1f487ddb8b263f5fdae7cc43ecf67cba5e85b94b7c88f93298415eb13",
      "transactionIndex": "0x3",
      "blockHash": "0x456c678cac977ccc3f85e63eba698ae07db4056e40ab3d0e92258e08324deb54",
      "blockNumber": "0x694",
      "gasUsed": "0x16ea3",
      "effectiveGasPrice": "0x8",
      "blobGasPrice": "0x1",
      "from": "0xf39fd6e51aad88f6f4ce6ab8827279cfffb92266",
      "to": null,
      "contractAddress": "0xaca81583840b1bf2ddf6cde824ada250c1936b4d",
      "blockTimestamp": 1775330630
    },
    {
      "status": "0x1",
      "cumulativeGasUsed": "0x1316aa",
      "logs": [],
      "logsBloom": "0x00000000000000000000000000000000000000000000000000000000000000000000000000000000000000000000000000000000000000000000000000000000000000000000000000000000000000000000000000000000000000000000000000000000000000000000000000000000000000000000000000000000000000000000000000000000000000000000000000000000000000000000000000000000000000000000000000000000000000000000000000000000000000000000000000000000000000000000000000000000000000000000000000000000000000000000000000000000000000000000000000000000000000000000000000000000",
      "type": "0x2",
      "transactionHash": "0x25bf7d4c057d6bf0154f25edd458df5df932571ea8a1ae7800320fa8fd363559",
      "transactionIndex": "0x4",
      "blockHash": "0x456c678cac977ccc3f85e63eba698ae07db4056e40ab3d0e92258e08324deb54",
      "blockNumber": "0x694",
      "gasUsed": "0xaadb",
      "effectiveGasPrice": "0x8",
      "blobGasPrice": "0x1",
      "from": "0xf39fd6e51aad88f6f4ce6ab8827279cfffb92266",
      "to": "0xaca81583840b1bf2ddf6cde824ada250c1936b4d",
      "contractAddress": null,
      "blockTimestamp": 1775330630
    },
    {
      "status": "0x1",
      "cumulativeGasUsed": "0x13c16d",
      "logs": [],
      "logsBloom": "0x00000000000000000000000000000000000000000000000000000000000000000000000000000000000000000000000000000000000000000000000000000000000000000000000000000000000000000000000000000000000000000000000000000000000000000000000000000000000000000000000000000000000000000000000000000000000000000000000000000000000000000000000000000000000000000000000000000000000000000000000000000000000000000000000000000000000000000000000000000000000000000000000000000000000000000000000000000000000000000000000000000000000000000000000000000000",
      "type": "0x2",
      "transactionHash": "0x800ff4729b2999b60938030d41edaf642367f9360283fca13ee6e257b62af4cb",
      "transactionIndex": "0x5",
      "blockHash": "0x456c678cac977ccc3f85e63eba698ae07db4056e40ab3d0e92258e08324deb54",
      "blockNumber": "0x694",
      "gasUsed": "0xaac3",
      "effectiveGasPrice": "0x8",
      "blobGasPrice": "0x1",
      "from": "0xf39fd6e51aad88f6f4ce6ab8827279cfffb92266",
      "to": "0xaca81583840b1bf2ddf6cde824ada250c1936b4d",
      "contractAddress": null,
      "blockTimestamp": 1775330630
    },
    {
      "status": "0x1",
      "cumulativeGasUsed": "0x146c48",
      "logs": [],
      "logsBloom": "0x00000000000000000000000000000000000000000000000000000000000000000000000000000000000000000000000000000000000000000000000000000000000000000000000000000000000000000000000000000000000000000000000000000000000000000000000000000000000000000000000000000000000000000000000000000000000000000000000000000000000000000000000000000000000000000000000000000000000000000000000000000000000000000000000000000000000000000000000000000000000000000000000000000000000000000000000000000000000000000000000000000000000000000000000000000000",
      "type": "0x2",
      "transactionHash": "0xc2b3ae9a0d7d982dd264931eafd94fea34cd55344bf0d2e4a40412921e60f7f2",
      "transactionIndex": "0x6",
      "blockHash": "0x456c678cac977ccc3f85e63eba698ae07db4056e40ab3d0e92258e08324deb54",
      "blockNumber": "0x694",
      "gasUsed": "0xaadb",
      "effectiveGasPrice": "0x8",
      "blobGasPrice": "0x1",
      "from": "0xf39fd6e51aad88f6f4ce6ab8827279cfffb92266",
      "to": "0xaca81583840b1bf2ddf6cde824ada250c1936b4d",
      "contractAddress": null,
      "blockTimestamp": 1775330630
    },
    {
      "status": "0x1",
      "cumulativeGasUsed": "0x20bf16",
      "logs": [],
      "logsBloom": "0x00000000000000000000000000000000000000000000000000000000000000000000000000000000000000000000000000000000000000000000000000000000000000000000000000000000000000000000000000000000000000000000000000000000000000000000000000000000000000000000000000000000000000000000000000000000000000000000000000000000000000000000000000000000000000000000000000000000000000000000000000000000000000000000000000000000000000000000000000000000000000000000000000000000000000000000000000000000000000000000000000000000000000000000000000000000",
      "type": "0x2",
      "transactionHash": "0x1e1705f18ca4907ce5d0c972796a0e31468a664bde09ece871199df4e2a37713",
      "transactionIndex": "0x7",
      "blockHash": "0x456c678cac977ccc3f85e63eba698ae07db4056e40ab3d0e92258e08324deb54",
      "blockNumber": "0x694",
      "gasUsed": "0xc52ce",
      "effectiveGasPrice": "0x8",
      "blobGasPrice": "0x1",
      "from": "0xf39fd6e51aad88f6f4ce6ab8827279cfffb92266",
      "to": null,
      "contractAddress": "0x5d42ebdbba61412295d7b0302d6f50ac449ddb4f",
      "blockTimestamp": 1775330630
    },
    {
      "status": "0x1",
      "cumulativeGasUsed": "0x2499f1",
      "logs": [],
      "logsBloom": "0x00000000000000000000000000000000000000000000000000000000000000000000000000000000000000000000000000000000000000000000000000000000000000000000000000000000000000000000000000000000000000000000000000000000000000000000000000000000000000000000000000000000000000000000000000000000000000000000000000000000000000000000000000000000000000000000000000000000000000000000000000000000000000000000000000000000000000000000000000000000000000000000000000000000000000000000000000000000000000000000000000000000000000000000000000000000",
      "type": "0x2",
      "transactionHash": "0xa6c49f70e79ea7a085d2c663d11548f734bdd0985605b2dd7a4493002a93d3a6",
      "transactionIndex": "0x8",
      "blockHash": "0x456c678cac977ccc3f85e63eba698ae07db4056e40ab3d0e92258e08324deb54",
      "blockNumber": "0x694",
      "gasUsed": "0x3dadb",
      "effectiveGasPrice": "0x8",
      "blobGasPrice": "0x1",
      "from": "0xf39fd6e51aad88f6f4ce6ab8827279cfffb92266",
      "to": null,
      "contractAddress": "0xdde78e6202518ff4936b5302cc2891ec180e8bff",
      "blockTimestamp": 1775330630
    },
    {
      "status": "0x1",
      "cumulativeGasUsed": "0x35b2c7",
      "logs": [
        {
          "address": "0xb06c856c8eabd1d8321b687e188204c1018bc4e5",
          "topics": [
            "0xab8ac0e1bd8ac03ac9df93028bd29e1972d82acd99a159a07ac48bcd2b022cbe",
            "0x4554480000000000000000000000000000000000000000000000000000000000"
          ],
          "data": "0x0000000000000000000000008bce54ff8ab45cb075b044ae117b8fd91f9351ab00000000000000000000000000000000000000000000000014d1120d7b160000",
          "blockHash": "0x456c678cac977ccc3f85e63eba698ae07db4056e40ab3d0e92258e08324deb54",
          "blockNumber": "0x694",
          "blockTimestamp": "0x69d16546",
          "transactionHash": "0xb98fb921470e83363a5b34ed5d68553a22d88b87acb37ce9b5e53edad716c1b7",
          "transactionIndex": "0x9",
          "logIndex": "0x0",
          "removed": false
        },
        {
          "address": "0xb06c856c8eabd1d8321b687e188204c1018bc4e5",
          "topics": [
            "0xab8ac0e1bd8ac03ac9df93028bd29e1972d82acd99a159a07ac48bcd2b022cbe",
            "0x4744000000000000000000000000000000000000000000000000000000000000"
          ],
          "data": "0x000000000000000000000000efab0beb0a557e452b398035ea964948c750b2fd0000000000000000000000000000000000000000000000001bc16d674ec80000",
          "blockHash": "0x456c678cac977ccc3f85e63eba698ae07db4056e40ab3d0e92258e08324deb54",
          "blockNumber": "0x694",
          "blockTimestamp": "0x69d16546",
          "transactionHash": "0xb98fb921470e83363a5b34ed5d68553a22d88b87acb37ce9b5e53edad716c1b7",
          "transactionIndex": "0x9",
          "logIndex": "0x1",
          "removed": false
        },
        {
          "address": "0xb06c856c8eabd1d8321b687e188204c1018bc4e5",
          "topics": [
            "0xab8ac0e1bd8ac03ac9df93028bd29e1972d82acd99a159a07ac48bcd2b022cbe",
            "0x5553444300000000000000000000000000000000000000000000000000000000"
          ],
          "data": "0x00000000000000000000000074cf9087ad26d541930bac724b7ab21ba8f00a270000000000000000000000000000000000000000000000000e043da617250000",
          "blockHash": "0x456c678cac977ccc3f85e63eba698ae07db4056e40ab3d0e92258e08324deb54",
          "blockNumber": "0x694",
          "blockTimestamp": "0x69d16546",
          "transactionHash": "0xb98fb921470e83363a5b34ed5d68553a22d88b87acb37ce9b5e53edad716c1b7",
          "transactionIndex": "0x9",
          "logIndex": "0x2",
          "removed": false
        }
      ],
      "logsBloom": "0x00000000000000000000000000000000000100000000000000000000000000000000000000000000001000000000000000000200000000000000000000000000000800000000000000000000200000000000020000000000000000000000000000000000000000000000000000000000000000000000000000000000000000000000000000000000000000000000800000000000000000000001000000000000000000001000000000000000000000000000000000000000000000000000000030000200000000000000000000000000000000000000000000000000000000000000000000000000000000001000000000000000000000100000000040000000",
      "type": "0x2",
      "transactionHash": "0xb98fb921470e83363a5b34ed5d68553a22d88b87acb37ce9b5e53edad716c1b7",
      "transactionIndex": "0x9",
      "blockHash": "0x456c678cac977ccc3f85e63eba698ae07db4056e40ab3d0e92258e08324deb54",
      "blockNumber": "0x694",
      "gasUsed": "0x1118d6",
      "effectiveGasPrice": "0x8",
      "blobGasPrice": "0x1",
      "from": "0xf39fd6e51aad88f6f4ce6ab8827279cfffb92266",
      "to": null,
      "contractAddress": "0xb06c856c8eabd1d8321b687e188204c1018bc4e5",
      "blockTimestamp": 1775330630
    },
    {
      "status": "0x1",
      "cumulativeGasUsed": "0x593d57",
      "logs": [],
      "logsBloom": "0x00000000000000000000000000000000000000000000000000000000000000000000000000000000000000000000000000000000000000000000000000000000000000000000000000000000000000000000000000000000000000000000000000000000000000000000000000000000000000000000000000000000000000000000000000000000000000000000000000000000000000000000000000000000000000000000000000000000000000000000000000000000000000000000000000000000000000000000000000000000000000000000000000000000000000000000000000000000000000000000000000000000000000000000000000000000",
      "type": "0x2",
      "transactionHash": "0x8fed6f666ff76cc7e2ceec953130a2f4bdbaba36dbff75a57134b0ab6d5ecbf9",
      "transactionIndex": "0xa",
      "blockHash": "0x456c678cac977ccc3f85e63eba698ae07db4056e40ab3d0e92258e08324deb54",
      "blockNumber": "0x694",
      "gasUsed": "0x238a90",
      "effectiveGasPrice": "0x8",
      "blobGasPrice": "0x1",
      "from": "0xf39fd6e51aad88f6f4ce6ab8827279cfffb92266",
      "to": null,
      "contractAddress": "0xab7b4c595d3ce8c85e16da86630f2fc223b05057",
      "blockTimestamp": 1775330630
    },
    {
      "status": "0x1",
      "cumulativeGasUsed": "0x6ebac1",
      "logs": [],
      "logsBloom": "0x00000000000000000000000000000000000000000000000000000000000000000000000000000000000000000000000000000000000000000000000000000000000000000000000000000000000000000000000000000000000000000000000000000000000000000000000000000000000000000000000000000000000000000000000000000000000000000000000000000000000000000000000000000000000000000000000000000000000000000000000000000000000000000000000000000000000000000000000000000000000000000000000000000000000000000000000000000000000000000000000000000000000000000000000000000000",
      "type": "0x2",
      "transactionHash": "0x853b254451272bbc3a22005882bf703e270e1bc81fbfcd0b7ab5d953d69181b1",
      "transactionIndex": "0xb",
      "blockHash": "0x456c678cac977ccc3f85e63eba698ae07db4056e40ab3d0e92258e08324deb54",
      "blockNumber": "0x694",
      "gasUsed": "0x157d6a",
      "effectiveGasPrice": "0x8",
      "blobGasPrice": "0x1",
      "from": "0xf39fd6e51aad88f6f4ce6ab8827279cfffb92266",
      "to": null,
      "contractAddress": "0xad523115cd35a8d4e60b3c0953e0e0ac10418309",
      "blockTimestamp": 1775330630
    },
    {
      "status": "0x1",
      "cumulativeGasUsed": "0x6f7497",
      "logs": [
        {
          "address": "0xad523115cd35a8d4e60b3c0953e0e0ac10418309",
          "topics": [
            "0x8e902340d35762a5a36507c20fe38e5d549a721d9f846d6de7f397b5c26ab853",
            "0x000000000000000000000000ab7b4c595d3ce8c85e16da86630f2fc223b05057"
          ],
          "data": "0x",
          "blockHash": "0x456c678cac977ccc3f85e63eba698ae07db4056e40ab3d0e92258e08324deb54",
          "blockNumber": "0x694",
          "blockTimestamp": "0x69d16546",
          "transactionHash": "0xec20848c306683aa8f487dc681ae27f224b271a122fe30d97ef6575de28661d5",
          "transactionIndex": "0xc",
          "logIndex": "0x3",
          "removed": false
        }
      ],
      "logsBloom": "0x00000100000000000000000000000000000000000000000000000000000000000000000000000000000000000008000000000000000000000000000000000000000000000000000000000000000000000000000000000000002000000000000000000000000400000000000000000000000000000000000000000000000000000000000000000000000000000000000000000000000000000000000000000000000000000000000000000000000000000000000004000000000000000000000000000020000000000000000000000000000000200000000000000000000020020000000000000000000000000000000000000000000000000000000000000000",
      "type": "0x2",
      "transactionHash": "0xec20848c306683aa8f487dc681ae27f224b271a122fe30d97ef6575de28661d5",
      "transactionIndex": "0xc",
      "blockHash": "0x456c678cac977ccc3f85e63eba698ae07db4056e40ab3d0e92258e08324deb54",
      "blockNumber": "0x694",
      "gasUsed": "0xb9d6",
      "effectiveGasPrice": "0x8",
      "blobGasPrice": "0x1",
      "from": "0xf39fd6e51aad88f6f4ce6ab8827279cfffb92266",
      "to": "0xad523115cd35a8d4e60b3c0953e0e0ac10418309",
      "contractAddress": null,
      "blockTimestamp": 1775330630
    },
    {
      "status": "0x1",
      "cumulativeGasUsed": "0x70deb6",
      "logs": [
        {
          "address": "0xad523115cd35a8d4e60b3c0953e0e0ac10418309",
          "topics": [
            "0x7b02323155ee1835f3ad82fb0682024a2f6ea1380e110430fc6eb75fbffc8665",
            "0x4554480000000000000000000000000000000000000000000000000000000000"
          ],
          "data": "0x0000000000000000000000008bce54ff8ab45cb075b044ae117b8fd91f9351ab",
          "blockHash": "0x456c678cac977ccc3f85e63eba698ae07db4056e40ab3d0e92258e08324deb54",
          "blockNumber": "0x694",
          "blockTimestamp": "0x69d16546",
          "transactionHash": "0x605ddd2d664f549b7b907ccbaf27da4d5d5197a2019184d04da107a4b5efea0d",
          "transactionIndex": "0xd",
          "logIndex": "0x4",
          "removed": false
        }
      ],
      "logsBloom": "0x00000100000000000000000000000008000000000000000000000000000000000000000000000000000000000000000000000000000004000000000000000000000800000000000000000000200000000000000000000000000000000000000000000000000000000000000000000000000000000000000000000040000000000000000000000000000000000000000000000000000000000000000000000000000000000000000000000000000000000000000004000000000000000000000000000000000000000000000000000000000000000000000000000000000000020000000000000000000000000000000000000000000000100000000000000000",
      "type": "0x2",
      "transactionHash": "0x605ddd2d664f549b7b907ccbaf27da4d5d5197a2019184d04da107a4b5efea0d",
      "transactionIndex": "0xd",
      "blockHash": "0x456c678cac977ccc3f85e63eba698ae07db4056e40ab3d0e92258e08324deb54",
      "blockNumber": "0x694",
      "gasUsed": "0x16a1f",
      "effectiveGasPrice": "0x8",
      "blobGasPrice": "0x1",
      "from": "0xf39fd6e51aad88f6f4ce6ab8827279cfffb92266",
      "to": "0xad523115cd35a8d4e60b3c0953e0e0ac10418309",
      "contractAddress": null,
      "blockTimestamp": 1775330630
    },
    {
      "status": "0x1",
      "cumulativeGasUsed": "0x7205fd",
      "logs": [
        {
          "address": "0xad523115cd35a8d4e60b3c0953e0e0ac10418309",
          "topics": [
            "0x7b02323155ee1835f3ad82fb0682024a2f6ea1380e110430fc6eb75fbffc8665",
            "0x4744000000000000000000000000000000000000000000000000000000000000"
          ],
          "data": "0x000000000000000000000000efab0beb0a557e452b398035ea964948c750b2fd",
          "blockHash": "0x456c678cac977ccc3f85e63eba698ae07db4056e40ab3d0e92258e08324deb54",
          "blockNumber": "0x694",
          "blockTimestamp": "0x69d16546",
          "transactionHash": "0x11ed248a3937c77595f22beaade12b2da9f7c729e0535f92d16ac232ce9c4543",
          "transactionIndex": "0xe",
          "logIndex": "0x5",
          "removed": false
        }
      ],
      "logsBloom": "0x00000100000000000000000000000008000000000000000000000000000000000000000000000000000000000000000000000000000004000000000000000000000000000000000000000000000000000000020000000000000000000000000000000000000000000000000000000000000000000000000000000040000000000000000000000000000000000000800000000000000000000000000000000000000000000000000000000000000000000000000004000000000000000000000000000000000000000000000000000000000000000000000000000000000000020000000000000000000000001000000000000000000000000000000000000000",
      "type": "0x2",
      "transactionHash": "0x11ed248a3937c77595f22beaade12b2da9f7c729e0535f92d16ac232ce9c4543",
      "transactionIndex": "0xe",
      "blockHash": "0x456c678cac977ccc3f85e63eba698ae07db4056e40ab3d0e92258e08324deb54",
      "blockNumber": "0x694",
      "gasUsed": "0x12747",
      "effectiveGasPrice": "0x8",
      "blobGasPrice": "0x1",
      "from": "0xf39fd6e51aad88f6f4ce6ab8827279cfffb92266",
      "to": "0xad523115cd35a8d4e60b3c0953e0e0ac10418309",
      "contractAddress": null,
      "blockTimestamp": 1775330630
    },
    {
      "status": "0x1",
      "cumulativeGasUsed": "0x732d5c",
      "logs": [
        {
          "address": "0xad523115cd35a8d4e60b3c0953e0e0ac10418309",
          "topics": [
            "0x7b02323155ee1835f3ad82fb0682024a2f6ea1380e110430fc6eb75fbffc8665",
            "0x5553444300000000000000000000000000000000000000000000000000000000"
          ],
          "data": "0x00000000000000000000000074cf9087ad26d541930bac724b7ab21ba8f00a27",
          "blockHash": "0x456c678cac977ccc3f85e63eba698ae07db4056e40ab3d0e92258e08324deb54",
          "blockNumber": "0x694",
          "blockTimestamp": "0x69d16546",
          "transactionHash": "0x47870d976565f75645b75fc157f40e480167112cf462e24fad7287939def7afa",
          "transactionIndex": "0xf",
          "logIndex": "0x6",
          "removed": false
        }
      ],
      "logsBloom": "0x00000100000000000000000000000008000000000000000000000000000000000000000000000000001000000000000000000000000004000000000000000000000000000000000000000000000000000000000000000000000000000000000000000000000000000000000000000000000000000000000000000040000000000000000000000000000000000000000000000000000000000000000000000000000000000000000000000000000000000000000004000000000000000000000010000200000000000000000000000000000000000000000000000000000000020000000000000000000000000000000000000000000000000000000000000000",
      "type": "0x2",
      "transactionHash": "0x47870d976565f75645b75fc157f40e480167112cf462e24fad7287939def7afa",
      "transactionIndex": "0xf",
      "blockHash": "0x456c678cac977ccc3f85e63eba698ae07db4056e40ab3d0e92258e08324deb54",
      "blockNumber": "0x694",
      "gasUsed": "0x1275f",
      "effectiveGasPrice": "0x8",
      "blobGasPrice": "0x1",
      "from": "0xf39fd6e51aad88f6f4ce6ab8827279cfffb92266",
      "to": "0xad523115cd35a8d4e60b3c0953e0e0ac10418309",
      "contractAddress": null,
      "blockTimestamp": 1775330630
    },
    {
      "status": "0x1",
      "cumulativeGasUsed": "0x843b1c",
      "logs": [],
      "logsBloom": "0x00000000000000000000000000000000000000000000000000000000000000000000000000000000000000000000000000000000000000000000000000000000000000000000000000000000000000000000000000000000000000000000000000000000000000000000000000000000000000000000000000000000000000000000000000000000000000000000000000000000000000000000000000000000000000000000000000000000000000000000000000000000000000000000000000000000000000000000000000000000000000000000000000000000000000000000000000000000000000000000000000000000000000000000000000000000",
      "type": "0x2",
      "transactionHash": "0xabb17ff397b41db3ad84adb03371ae474f6f220ac671250c1df53210ca048bcc",
      "transactionIndex": "0x10",
      "blockHash": "0x456c678cac977ccc3f85e63eba698ae07db4056e40ab3d0e92258e08324deb54",
      "blockNumber": "0x694",
      "gasUsed": "0x110dc0",
      "effectiveGasPrice": "0x8",
      "blobGasPrice": "0x1",
      "from": "0xf39fd6e51aad88f6f4ce6ab8827279cfffb92266",
      "to": null,
      "contractAddress": "0x821f3361d454cc98b7555221a06be563a7e2e0a6",
      "blockTimestamp": 1775330630
    },
    {
      "status": "0x1",
      "cumulativeGasUsed": "0x84f6a4",
      "logs": [
        {
          "address": "0x5d42ebdbba61412295d7b0302d6f50ac449ddb4f",
          "topics": [
            "0x583b0aa0e528532caf4b907c11d7a8158a122fe2a6fb80cd9b09776ebea8d92d",
            "0x000000000000000000000000ab7b4c595d3ce8c85e16da86630f2fc223b05057"
          ],
          "data": "0x0000000000000000000000000000000000000000000000000000000000000001",
          "blockHash": "0x456c678cac977ccc3f85e63eba698ae07db4056e40ab3d0e92258e08324deb54",
          "blockNumber": "0x694",
          "blockTimestamp": "0x69d16546",
          "transactionHash": "0x24b6a0e864da4a0a24c4ff1304c949d3a57cdfb6c6dd2db1ddc5b51b7cb7f505",
          "transactionIndex": "0x11",
          "logIndex": "0x7",
          "removed": false
        }
      ],
      "logsBloom": "0x00000000000000000000000000000000000000000000000000000000000000000002000000000000000000000008000000000000000000000000000000000000000001000000000000000000000000000000000000000000002000000000000002000000000001000000000000000000000000000000000000000000000000000000000000000000000000000000000000000000000000000000000000000000000000000000000000000000000000000000000000000000000000000000000000000000000000200000000000000000000000200000000000000000000000000000000000000000000000000040000000000000000000000000000000000000",
      "type": "0x2",
      "transactionHash": "0x24b6a0e864da4a0a24c4ff1304c949d3a57cdfb6c6dd2db1ddc5b51b7cb7f505",
      "transactionIndex": "0x11",
      "blockHash": "0x456c678cac977ccc3f85e63eba698ae07db4056e40ab3d0e92258e08324deb54",
      "blockNumber": "0x694",
      "gasUsed": "0xbb88",
      "effectiveGasPrice": "0x8",
      "blobGasPrice": "0x1",
      "from": "0xf39fd6e51aad88f6f4ce6ab8827279cfffb92266",
      "to": "0x5d42ebdbba61412295d7b0302d6f50ac449ddb4f",
      "contractAddress": null,
      "blockTimestamp": 1775330630
    },
    {
      "status": "0x1",
      "cumulativeGasUsed": "0x85b22c",
      "logs": [
        {
          "address": "0x5d42ebdbba61412295d7b0302d6f50ac449ddb4f",
          "topics": [
            "0x583b0aa0e528532caf4b907c11d7a8158a122fe2a6fb80cd9b09776ebea8d92d",
            "0x000000000000000000000000821f3361d454cc98b7555221a06be563a7e2e0a6"
          ],
          "data": "0x0000000000000000000000000000000000000000000000000000000000000001",
          "blockHash": "0x456c678cac977ccc3f85e63eba698ae07db4056e40ab3d0e92258e08324deb54",
          "blockNumber": "0x694",
          "blockTimestamp": "0x69d16546",
          "transactionHash": "0x9ef77c65d71b946229396689ed3d40b667e962a6ea81d819a2af0e9d5135f571",
          "transactionIndex": "0x12",
          "logIndex": "0x8",
          "removed": false
        }
      ],
      "logsBloom": "0x00000000000000000000000000000000000000000000008000000000000000000002000000000000000000000000000000000000000000000000000000000000000001000000000000000000000000000000000000000000000000000000000002000000000001000000200000000000000000000000000000000000000000000000000000000000000000000000000100000000000000000000000000000000000000000000000000000000000000000000000000000000000000000000000000000000000000200000000000000000000000000000000000000000000000000000000000000000000000000040000000000000000000000000000000000000",
      "type": "0x2",
      "transactionHash": "0x9ef77c65d71b946229396689ed3d40b667e962a6ea81d819a2af0e9d5135f571",
      "transactionIndex": "0x12",
      "blockHash": "0x456c678cac977ccc3f85e63eba698ae07db4056e40ab3d0e92258e08324deb54",
      "blockNumber": "0x694",
      "gasUsed": "0xbb88",
      "effectiveGasPrice": "0x8",
      "blobGasPrice": "0x1",
      "from": "0xf39fd6e51aad88f6f4ce6ab8827279cfffb92266",
      "to": "0x5d42ebdbba61412295d7b0302d6f50ac449ddb4f",
      "contractAddress": null,
      "blockTimestamp": 1775330630
    },
    {
      "status": "0x1",
      "cumulativeGasUsed": "0x866c96",
      "logs": [
        {
          "address": "0x5d42ebdbba61412295d7b0302d6f50ac449ddb4f",
          "topics": [
            "0xd28dc1379d750c7c8137c7ef7b074f62f1361b9becc7f9d77d8c0d6e46a3cd06",
            "0x000000000000000000000000ab7b4c595d3ce8c85e16da86630f2fc223b05057"
          ],
          "data": "0x0000000000000000000000000000000000000000000000000000000000000001",
          "blockHash": "0x456c678cac977ccc3f85e63eba698ae07db4056e40ab3d0e92258e08324deb54",
          "blockNumber": "0x694",
          "blockTimestamp": "0x69d16546",
          "transactionHash": "0x1796fa27c2fc981432ed7ce7a4cd76cbbd0275b8d053f2c637e92a4c8cb3b819",
          "transactionIndex": "0x13",
          "logIndex": "0x9",
          "removed": false
        }
      ],
      "logsBloom": "0x00000000000000000000000000000000000000000000000000000000000000000000000000000000000000000008000000000000000000000000000000000000000000000000000040000000000000000000000000000000002000000000000002000000000001000000000000000000000000000000000000000000000400000000000000000000000000000000000000000000000000000000000000000000000000000000000000800000000000000000000000000000000000000000000000000000000000200000000000000000000000200000000000000000000000000000000000000000000000000000000000000000000000000000000000000000",
      "type": "0x2",
      "transactionHash": "0x1796fa27c2fc981432ed7ce7a4cd76cbbd0275b8d053f2c637e92a4c8cb3b819",
      "transactionIndex": "0x13",
      "blockHash": "0x456c678cac977ccc3f85e63eba698ae07db4056e40ab3d0e92258e08324deb54",
      "blockNumber": "0x694",
      "gasUsed": "0xba6a",
      "effectiveGasPrice": "0x8",
      "blobGasPrice": "0x1",
      "from": "0xf39fd6e51aad88f6f4ce6ab8827279cfffb92266",
      "to": "0x5d42ebdbba61412295d7b0302d6f50ac449ddb4f",
      "contractAddress": null,
      "blockTimestamp": 1775330630
    },
    {
      "status": "0x1",
      "cumulativeGasUsed": "0x872700",
      "logs": [
        {
          "address": "0x5d42ebdbba61412295d7b0302d6f50ac449ddb4f",
          "topics": [
            "0xd28dc1379d750c7c8137c7ef7b074f62f1361b9becc7f9d77d8c0d6e46a3cd06",
            "0x000000000000000000000000821f3361d454cc98b7555221a06be563a7e2e0a6"
          ],
          "data": "0x0000000000000000000000000000000000000000000000000000000000000001",
          "blockHash": "0x456c678cac977ccc3f85e63eba698ae07db4056e40ab3d0e92258e08324deb54",
          "blockNumber": "0x694",
          "blockTimestamp": "0x69d16546",
          "transactionHash": "0xc0cb05088e579affa64ec9ec9676bfbcc2ca01182fea62168a3537ebd6d4c589",
          "transactionIndex": "0x14",
          "logIndex": "0xa",
          "removed": false
        }
      ],
      "logsBloom": "0x00000000000000000000000000000000000000000000008000000000000000000000000000000000000000000000000000000000000000000000000000000000000000000000000040000000000000000000000000000000000000000000000002000000000001000000200000000000000000000000000000000000000400000000000000000000000000000000000100000000000000000000000000000000000000000000000000800000000000000000000000000000000000000000000000000000000000200000000000000000000000000000000000000000000000000000000000000000000000000000000000000000000000000000000000000000",
      "type": "0x2",
      "transactionHash": "0xc0cb05088e579affa64ec9ec9676bfbcc2ca01182fea62168a3537ebd6d4c589",
      "transactionIndex": "0x14",
      "blockHash": "0x456c678cac977ccc3f85e63eba698ae07db4056e40ab3d0e92258e08324deb54",
      "blockNumber": "0x694",
      "gasUsed": "0xba6a",
      "effectiveGasPrice": "0x8",
      "blobGasPrice": "0x1",
      "from": "0xf39fd6e51aad88f6f4ce6ab8827279cfffb92266",
      "to": "0x5d42ebdbba61412295d7b0302d6f50ac449ddb4f",
      "contractAddress": null,
      "blockTimestamp": 1775330630
    },
    {
      "status": "0x1",
      "cumulativeGasUsed": "0x87e16a",
      "logs": [
        {
          "address": "0x5d42ebdbba61412295d7b0302d6f50ac449ddb4f",
          "topics": [
            "0xd28dc1379d750c7c8137c7ef7b074f62f1361b9becc7f9d77d8c0d6e46a3cd06",
            "0x000000000000000000000000ad523115cd35a8d4e60b3c0953e0e0ac10418309"
          ],
          "data": "0x0000000000000000000000000000000000000000000000000000000000000001",
          "blockHash": "0x456c678cac977ccc3f85e63eba698ae07db4056e40ab3d0e92258e08324deb54",
          "blockNumber": "0x694",
          "blockTimestamp": "0x69d16546",
          "transactionHash": "0x279d86f762eb345a1ff17dc920be408a6be30b8d7c08913cd75985e093c5d2eb",
          "transactionIndex": "0x15",
          "logIndex": "0xb",
          "removed": false
        }
      ],
      "logsBloom": "0x00000000000000000000000000000000000000000000000000000000000000000000000000000000000000000000000000000000000000000000000000000000000000000000000040000000000000000000000000000000000000000000000002000000000001000000000000000000000000000000000000000000000400000000000000000000000000000000200000000000000000000000000000000000000000000000200000800000000000000000000000000000000000000000000000000000000000200000000000000000000002000000000000000000000000000000000000000000000000000000000000000000000000000000000000000000",
      "type": "0x2",
      "transactionHash": "0x279d86f762eb345a1ff17dc920be408a6be30b8d7c08913cd75985e093c5d2eb",
      "transactionIndex": "0x15",
      "blockHash": "0x456c678cac977ccc3f85e63eba698ae07db4056e40ab3d0e92258e08324deb54",
      "blockNumber": "0x694",
      "gasUsed": "0xba6a",
      "effectiveGasPrice": "0x8",
      "blobGasPrice": "0x1",
      "from": "0xf39fd6e51aad88f6f4ce6ab8827279cfffb92266",
      "to": "0x5d42ebdbba61412295d7b0302d6f50ac449ddb4f",
      "contractAddress": null,
      "blockTimestamp": 1775330630
    },
    {
      "status": "0x1",
      "cumulativeGasUsed": "0x889afc",
      "logs": [
        {
          "address": "0xab7b4c595d3ce8c85e16da86630f2fc223b05057",
          "topics": [
            "0x51f43ead43c9a90d53ec229fbf48feb76b24efa7a147089ad9ed34ad384a94d3"
          ],
          "data": "0x000000000000000000000000ad523115cd35a8d4e60b3c0953e0e0ac10418309",
          "blockHash": "0x456c678cac977ccc3f85e63eba698ae07db4056e40ab3d0e92258e08324deb54",
          "blockNumber": "0x694",
          "blockTimestamp": "0x69d16546",
          "transactionHash": "0x5e240ae1ab10237d425f2bbf7ed3111d94a52188fde328efdf55d0c32e4bdfee",
          "transactionIndex": "0x16",
          "logIndex": "0xc",
          "removed": false
        }
      ],
      "logsBloom": "0x00000000000000000000000000000000000000000000000000000000000000000000000000000000000000000000000000000000000000000000000000020000000000000000000000000000400000000000000000000000000000000000000000000000000000000000000000000800000000000000000000000000000000000000000000400000000000000000000000000000000000000000000000000000000000000000000000000000000000000000000000000000000000000010000000000000000000000000000000000000000000000000000010000000000000000000000000000000000000000000000000000000000000000000000000000000",
      "type": "0x2",
      "transactionHash": "0x5e240ae1ab10237d425f2bbf7ed3111d94a52188fde328efdf55d0c32e4bdfee",
      "transactionIndex": "0x16",
      "blockHash": "0x456c678cac977ccc3f85e63eba698ae07db4056e40ab3d0e92258e08324deb54",
      "blockNumber": "0x694",
      "gasUsed": "0xb992",
      "effectiveGasPrice": "0x8",
      "blobGasPrice": "0x1",
      "from": "0xf39fd6e51aad88f6f4ce6ab8827279cfffb92266",
      "to": "0xab7b4c595d3ce8c85e16da86630f2fc223b05057",
      "contractAddress": null,
      "blockTimestamp": 1775330630
    },
    {
      "status": "0x1",
      "cumulativeGasUsed": "0x89a55d",
      "logs": [
        {
          "address": "0x8bce54ff8ab45cb075b044ae117b8fd91f9351ab",
          "topics": [
            "0xddf252ad1be2c89b69c2b068fc378daa952ba7f163c4a11628f55a4df523b3ef",
            "0x0000000000000000000000000000000000000000000000000000000000000000",
            "0x000000000000000000000000f39fd6e51aad88f6f4ce6ab8827279cfffb92266"
          ],
          "data": "0x0000000000000000000000000000000000000000000000056bc75e2d63100000",
          "blockHash": "0x456c678cac977ccc3f85e63eba698ae07db4056e40ab3d0e92258e08324deb54",
          "blockNumber": "0x694",
          "blockTimestamp": "0x69d16546",
          "transactionHash": "0x058a5254cdfd609a85324d221ffaeb0c53c1d1ca012890ab2e75a50dad0737bb",
          "transactionIndex": "0x17",
          "logIndex": "0xd",
          "removed": false
        }
      ],
      "logsBloom": "0x00000000000000000000000000000000000000000000000000000000000000000000000000400000000000000000000000000400000000000000000000002000000000000000000000000008000000000000000000000000000000000000000000000000020000000000000100000800000000000000000000000010000000000000000000000000000000000000000000000000000000000000000000000000000000000000000000000000000000000000000000000000000000000000000000000002000000200000000000000000000000002000000000000000000020000000000000000000000000000000000000000000000000000000000000000000",
      "type": "0x2",
      "transactionHash": "0x058a5254cdfd609a85324d221ffaeb0c53c1d1ca012890ab2e75a50dad0737bb",
      "transactionIndex": "0x17",
      "blockHash": "0x456c678cac977ccc3f85e63eba698ae07db4056e40ab3d0e92258e08324deb54",
      "blockNumber": "0x694",
      "gasUsed": "0x10a61",
      "effectiveGasPrice": "0x8",
      "blobGasPrice": "0x1",
      "from": "0xf39fd6e51aad88f6f4ce6ab8827279cfffb92266",
      "to": "0x8bce54ff8ab45cb075b044ae117b8fd91f9351ab",
      "contractAddress": null,
      "blockTimestamp": 1775330630
    },
    {
      "status": "0x1",
      "cumulativeGasUsed": "0x8aaf9a",
      "logs": [
        {
          "address": "0x74cf9087ad26d541930bac724b7ab21ba8f00a27",
          "topics": [
            "0xddf252ad1be2c89b69c2b068fc378daa952ba7f163c4a11628f55a4df523b3ef",
            "0x0000000000000000000000000000000000000000000000000000000000000000",
            "0x000000000000000000000000f39fd6e51aad88f6f4ce6ab8827279cfffb92266"
          ],
          "data": "0x000000000000000000000000000000000000000000000000000000e8d4a51000",
          "blockHash": "0x456c678cac977ccc3f85e63eba698ae07db4056e40ab3d0e92258e08324deb54",
          "blockNumber": "0x694",
          "blockTimestamp": "0x69d16546",
          "transactionHash": "0x9ba34e9f9cb1f980371aadc33a1ec6e288508b034f9c0efb3ec3fd083c3377e7",
          "transactionIndex": "0x18",
          "logIndex": "0xe",
          "removed": false
        }
      ],
      "logsBloom": "0x00000000000000000000000000000000000000000000000000000000000000000000000000000000000000000000000000000000000000000000000000000000000000000000000000000008000000000000000000000000000000000000000000000000020000000000000100000800000000000000000000000010000000000000000000000000000000000000000000000000000000000800000000000000000000000000000000000000000000001000000000000000000000000000000000000003000000200000000000000000000000002000000000000000000020000000000000000000000000000000000000000000000000000000000000000000",
      "type": "0x2",
      "transactionHash": "0x9ba34e9f9cb1f980371aadc33a1ec6e288508b034f9c0efb3ec3fd083c3377e7",
      "transactionIndex": "0x18",
      "blockHash": "0x456c678cac977ccc3f85e63eba698ae07db4056e40ab3d0e92258e08324deb54",
      "blockNumber": "0x694",
      "gasUsed": "0x10a3d",
      "effectiveGasPrice": "0x8",
      "blobGasPrice": "0x1",
      "from": "0xf39fd6e51aad88f6f4ce6ab8827279cfffb92266",
      "to": "0x74cf9087ad26d541930bac724b7ab21ba8f00a27",
      "contractAddress": null,
      "blockTimestamp": 1775330630
    },
    {
      "status": "0x1",
      "cumulativeGasUsed": "0x8bba07",
      "logs": [
        {
          "address": "0xefab0beb0a557e452b398035ea964948c750b2fd",
          "topics": [
            "0xddf252ad1be2c89b69c2b068fc378daa952ba7f163c4a11628f55a4df523b3ef",
            "0x0000000000000000000000000000000000000000000000000000000000000000",
            "0x000000000000000000000000f39fd6e51aad88f6f4ce6ab8827279cfffb92266"
          ],
          "data": "0x00000000000000000000000000000000000000000052b7d2dcc80cd2e4000000",
          "blockHash": "0x456c678cac977ccc3f85e63eba698ae07db4056e40ab3d0e92258e08324deb54",
          "blockNumber": "0x694",
          "blockTimestamp": "0x69d16546",
          "transactionHash": "0xed769cc08393380c41780bba30d5f5325b9b50073dd03f2d18ca39fad8ee4b61",
          "transactionIndex": "0x19",
          "logIndex": "0xf",
          "removed": false
        }
      ],
      "logsBloom": "0x00000000000000000000000000000000000000000000000000000000000000000000000000000000000000000000000000000000000000000000000000000000000000000000000000000008000000000000000000000000000000000000000000000000020000000001000100000800000000000000000000000010000000000000000004000000000000000000000000000000000000000000000000080000000000000000000000000000000000000000000000000000000000000000000000000002000000200000000000000000000000002000000000000000000020000000000000000000000000000000000000000000000000000000000000000000",
      "type": "0x2",
      "transactionHash": "0xed769cc08393380c41780bba30d5f5325b9b50073dd03f2d18ca39fad8ee4b61",
      "transactionIndex": "0x19",
      "blockHash": "0x456c678cac977ccc3f85e63eba698ae07db4056e40ab3d0e92258e08324deb54",
      "blockNumber": "0x694",
      "gasUsed": "0x10a6d",
      "effectiveGasPrice": "0x8",
      "blobGasPrice": "0x1",
      "from": "0xf39fd6e51aad88f6f4ce6ab8827279cfffb92266",
      "to": "0xefab0beb0a557e452b398035ea964948c750b2fd",
      "contractAddress": null,
      "blockTimestamp": 1775330630
    },
    {
      "status": "0x1",
      "cumulativeGasUsed": "0x8c6d78",
      "logs": [
        {
          "address": "0x8bce54ff8ab45cb075b044ae117b8fd91f9351ab",
          "topics": [
            "0x8c5be1e5ebec7d5bd14f71427d1e84f3dd0314c0f7b2291e5b200ac8c7c3b925",
            "0x000000000000000000000000f39fd6e51aad88f6f4ce6ab8827279cfffb92266",
            "0x000000000000000000000000ab7b4c595d3ce8c85e16da86630f2fc223b05057"
          ],
          "data": "0x0000000000000000000000000000000000000000000000008ac7230489e80000",
          "blockHash": "0x456c678cac977ccc3f85e63eba698ae07db4056e40ab3d0e92258e08324deb54",
          "blockNumber": "0x694",
          "blockTimestamp": "0x69d16546",
          "transactionHash": "0xe14afb1d74b3058434d1369ae6d0baac2ad9311fb1023f23c6757eaec8304f18",
          "transactionIndex": "0x1a",
          "logIndex": "0x10",
          "removed": false
        }
      ],
      "logsBloom": "0x00000000000000000000000000000000000000000000000000000000000000000000000000400000000000000008000000000400000000000000000000202000000000000000000000000000000000000000000000000000002000000000000000000000000000000000000100000000000000000000000000000000000000000000000000000000000000000000000000000000000000000000000000000000020000000000000000000000000000000000000000000000000000000000000000000000000000200000000000000000000000202000000000000000000000000010000000000000000000000000000000000000000000000000000000000000",
      "type": "0x2",
      "transactionHash": "0xe14afb1d74b3058434d1369ae6d0baac2ad9311fb1023f23c6757eaec8304f18",
      "transactionIndex": "0x1a",
      "blockHash": "0x456c678cac977ccc3f85e63eba698ae07db4056e40ab3d0e92258e08324deb54",
      "blockNumber": "0x694",
      "gasUsed": "0xb371",
      "effectiveGasPrice": "0x8",
      "blobGasPrice": "0x1",
      "from": "0xf39fd6e51aad88f6f4ce6ab8827279cfffb92266",
      "to": "0x8bce54ff8ab45cb075b044ae117b8fd91f9351ab",
      "contractAddress": null,
      "blockTimestamp": 1775330630
    },
    {
      "status": "0x1",
      "cumulativeGasUsed": "0x8eade8",
      "logs": [
        {
          "address": "0x8bce54ff8ab45cb075b044ae117b8fd91f9351ab",
          "topics": [
            "0xddf252ad1be2c89b69c2b068fc378daa952ba7f163c4a11628f55a4df523b3ef",
            "0x000000000000000000000000f39fd6e51aad88f6f4ce6ab8827279cfffb92266",
            "0x000000000000000000000000ab7b4c595d3ce8c85e16da86630f2fc223b05057"
          ],
          "data": "0x0000000000000000000000000000000000000000000000008ac7230489e80000",
          "blockHash": "0x456c678cac977ccc3f85e63eba698ae07db4056e40ab3d0e92258e08324deb54",
          "blockNumber": "0x694",
          "blockTimestamp": "0x69d16546",
          "transactionHash": "0x2ece3ae4047c96e85ffdeb0ba426f121068add7f8a619fba386dba72d4abc8ab",
          "transactionIndex": "0x1b",
          "logIndex": "0x11",
          "removed": false
        },
        {
          "address": "0xab7b4c595d3ce8c85e16da86630f2fc223b05057",
          "topics": [
            "0x88df26d296ecbf594c8609f433503d1436d24afe03c0d9e5e29c8f6ed92ef9b4",
            "0x000000000000000000000000f39fd6e51aad88f6f4ce6ab8827279cfffb92266",
            "0x4554480000000000000000000000000000000000000000000000000000000000"
          ],
          "data": "0x0000000000000000000000000000000000000000000000008ac7230489e80000",
          "blockHash": "0x456c678cac977ccc3f85e63eba698ae07db4056e40ab3d0e92258e08324deb54",
          "blockNumber": "0x694",
          "blockTimestamp": "0x69d16546",
          "transactionHash": "0x2ece3ae4047c96e85ffdeb0ba426f121068add7f8a619fba386dba72d4abc8ab",
          "transactionIndex": "0x1b",
          "logIndex": "0x12",
          "removed": false
        }
      ],
      "logsBloom": "0x00000000000000000000000000000000000000000000000000000000000000000000000000400000000000000008000000000400000000000001000000022000000800000080000000000008600000000000000000000000002000000000000000000000000000000000000100000000000000000000000000000010000000000800000000000000000000000000000000000000000000000000000000000000000000000000000000000000000000000000000000000000000000000000000000000002000000200000000000000000000000202000000010000000000000000000000000000000000000000000000000000000000000100000000000000000",
      "type": "0x2",
      "transactionHash": "0x2ece3ae4047c96e85ffdeb0ba426f121068add7f8a619fba386dba72d4abc8ab",
      "transactionIndex": "0x1b",
      "blockHash": "0x456c678cac977ccc3f85e63eba698ae07db4056e40ab3d0e92258e08324deb54",
      "blockNumber": "0x694",
      "gasUsed": "0x24070",
      "effectiveGasPrice": "0x8",
      "blobGasPrice": "0x1",
      "from": "0xf39fd6e51aad88f6f4ce6ab8827279cfffb92266",
      "to": "0xab7b4c595d3ce8c85e16da86630f2fc223b05057",
      "contractAddress": null,
      "blockTimestamp": 1775330630
    },
    {
      "status": "0x1",
      "cumulativeGasUsed": "0x91875e",
      "logs": [
        {
          "address": "0x5d42ebdbba61412295d7b0302d6f50ac449ddb4f",
          "topics": [
            "0xddf252ad1be2c89b69c2b068fc378daa952ba7f163c4a11628f55a4df523b3ef",
            "0x0000000000000000000000000000000000000000000000000000000000000000",
            "0x000000000000000000000000f39fd6e51aad88f6f4ce6ab8827279cfffb92266"
          ],
          "data": "0x00000000000000000000000000000000000000000000010f0cf064dd59200000",
          "blockHash": "0x456c678cac977ccc3f85e63eba698ae07db4056e40ab3d0e92258e08324deb54",
          "blockNumber": "0x694",
          "blockTimestamp": "0x69d16546",
          "transactionHash": "0x90a21f1fac3e15e270b732de3256271d6884a69babbc8adac4691361ace39a2f",
          "transactionIndex": "0x1c",
          "logIndex": "0x13",
          "removed": false
        },
        {
          "address": "0xab7b4c595d3ce8c85e16da86630f2fc223b05057",
          "topics": [
            "0x7ee657a21ac7f39b81c23a6f713ab60c53f4c04479e9a7847c08e2bc69862e80",
            "0x000000000000000000000000f39fd6e51aad88f6f4ce6ab8827279cfffb92266",
            "0x4554480000000000000000000000000000000000000000000000000000000000"
          ],
          "data": "0x00000000000000000000000000000000000000000000010f0cf064dd59200000",
          "blockHash": "0x456c678cac977ccc3f85e63eba698ae07db4056e40ab3d0e92258e08324deb54",
          "blockNumber": "0x694",
          "blockTimestamp": "0x69d16546",
          "transactionHash": "0x90a21f1fac3e15e270b732de3256271d6884a69babbc8adac4691361ace39a2f",
          "transactionIndex": "0x1c",
          "logIndex": "0x14",
          "removed": false
        }
      ],
      "logsBloom": "0x00000000000000000000000000000000000000000000000000000000000000000000000000000000000000000000000000000000000000000000000000020000000800000000000000000008600000000000000000000000000000000000000002000000020001000000000100000800000000000000000000000010000000000000000000000000000000000020000000000000000000000000000000000000000000000000000000000000000000000000000000000000000000000000000000001002000000200000000000000000000000002000000010000000000020000000000000000800000000000000000000000000000000100000000000000000",
      "type": "0x2",
      "transactionHash": "0x90a21f1fac3e15e270b732de3256271d6884a69babbc8adac4691361ace39a2f",
      "transactionIndex": "0x1c",
      "blockHash": "0x456c678cac977ccc3f85e63eba698ae07db4056e40ab3d0e92258e08324deb54",
      "blockNumber": "0x694",
      "gasUsed": "0x2d976",
      "effectiveGasPrice": "0x8",
      "blobGasPrice": "0x1",
      "from": "0xf39fd6e51aad88f6f4ce6ab8827279cfffb92266",
      "to": "0xab7b4c595d3ce8c85e16da86630f2fc223b05057",
      "contractAddress": null,
      "blockTimestamp": 1775330630
    },
    {
      "status": "0x1",
      "cumulativeGasUsed": "0x923ab7",
      "logs": [
        {
          "address": "0x74cf9087ad26d541930bac724b7ab21ba8f00a27",
          "topics": [
            "0x8c5be1e5ebec7d5bd14f71427d1e84f3dd0314c0f7b2291e5b200ac8c7c3b925",
            "0x000000000000000000000000f39fd6e51aad88f6f4ce6ab8827279cfffb92266",
            "0x000000000000000000000000821f3361d454cc98b7555221a06be563a7e2e0a6"
          ],
          "data": "0x000000000000000000000000000000000000000000000000000000174876e800",
          "blockHash": "0x456c678cac977ccc3f85e63eba698ae07db4056e40ab3d0e92258e08324deb54",
          "blockNumber": "0x694",
          "blockTimestamp": "0x69d16546",
          "transactionHash": "0xec7fdf8b144bc9dec1b17af86cb5632a187f905d5d827633a03075b6ac167c66",
          "transactionIndex": "0x1d",
          "logIndex": "0x15",
          "removed": false
        }
      ],
      "logsBloom": "0x00000000000000000000000000000000000000000000008000000000000000000000000000000000000000000000000000000000000000000000000000200000000000000000000000000000000000000000000000000000000000000000000000000000000000000000200100000000000000000000000000000000000000000000000000000000000000000000000100000000000000000800000000000000020000000000000000000000000000001000000000000000000000000000000000000001000000200000000000000000000000002000000000000000000000000010000000000000000000000000000000000000000000000000000000000000",
      "type": "0x2",
      "transactionHash": "0xec7fdf8b144bc9dec1b17af86cb5632a187f905d5d827633a03075b6ac167c66",
      "transactionIndex": "0x1d",
      "blockHash": "0x456c678cac977ccc3f85e63eba698ae07db4056e40ab3d0e92258e08324deb54",
      "blockNumber": "0x694",
      "gasUsed": "0xb359",
      "effectiveGasPrice": "0x8",
      "blobGasPrice": "0x1",
      "from": "0xf39fd6e51aad88f6f4ce6ab8827279cfffb92266",
      "to": "0x74cf9087ad26d541930bac724b7ab21ba8f00a27",
      "contractAddress": null,
      "blockTimestamp": 1775330630
    },
    {
      "status": "0x1",
      "cumulativeGasUsed": "0x960709",
      "logs": [
        {
          "address": "0x74cf9087ad26d541930bac724b7ab21ba8f00a27",
          "topics": [
            "0xddf252ad1be2c89b69c2b068fc378daa952ba7f163c4a11628f55a4df523b3ef",
            "0x000000000000000000000000f39fd6e51aad88f6f4ce6ab8827279cfffb92266",
            "0x000000000000000000000000821f3361d454cc98b7555221a06be563a7e2e0a6"
          ],
          "data": "0x000000000000000000000000000000000000000000000000000000174876e800",
          "blockHash": "0x456c678cac977ccc3f85e63eba698ae07db4056e40ab3d0e92258e08324deb54",
          "blockNumber": "0x694",
          "blockTimestamp": "0x69d16546",
          "transactionHash": "0x93faeaa2a10804e54aae528a7dd825b3d591777215995f752e7217d0ac8a85f2",
          "transactionIndex": "0x1e",
          "logIndex": "0x16",
          "removed": false
        },
        {
          "address": "0x5d42ebdbba61412295d7b0302d6f50ac449ddb4f",
          "topics": [
            "0xddf252ad1be2c89b69c2b068fc378daa952ba7f163c4a11628f55a4df523b3ef",
            "0x0000000000000000000000000000000000000000000000000000000000000000",
            "0x000000000000000000000000f39fd6e51aad88f6f4ce6ab8827279cfffb92266"
          ],
          "data": "0x0000000000000000000000000000000000000000000015279700831d93700000",
          "blockHash": "0x456c678cac977ccc3f85e63eba698ae07db4056e40ab3d0e92258e08324deb54",
          "blockNumber": "0x694",
          "blockTimestamp": "0x69d16546",
          "transactionHash": "0x93faeaa2a10804e54aae528a7dd825b3d591777215995f752e7217d0ac8a85f2",
          "transactionIndex": "0x1e",
          "logIndex": "0x17",
          "removed": false
        },
        {
          "address": "0x5d42ebdbba61412295d7b0302d6f50ac449ddb4f",
          "topics": [
            "0xddf252ad1be2c89b69c2b068fc378daa952ba7f163c4a11628f55a4df523b3ef",
            "0x0000000000000000000000000000000000000000000000000000000000000000",
            "0x000000000000000000000000821f3361d454cc98b7555221a06be563a7e2e0a6"
          ],
          "data": "0x0000000000000000000000000000000000000000000000056bc75e2d63100000",
          "blockHash": "0x456c678cac977ccc3f85e63eba698ae07db4056e40ab3d0e92258e08324deb54",
          "blockNumber": "0x694",
          "blockTimestamp": "0x69d16546",
          "transactionHash": "0x93faeaa2a10804e54aae528a7dd825b3d591777215995f752e7217d0ac8a85f2",
          "transactionIndex": "0x1e",
          "logIndex": "0x18",
          "removed": false
        },
        {
          "address": "0x5d42ebdbba61412295d7b0302d6f50ac449ddb4f",
          "topics": [
            "0x8c5be1e5ebec7d5bd14f71427d1e84f3dd0314c0f7b2291e5b200ac8c7c3b925",
            "0x000000000000000000000000821f3361d454cc98b7555221a06be563a7e2e0a6",
            "0x000000000000000000000000dde78e6202518ff4936b5302cc2891ec180e8bff"
          ],
          "data": "0x0000000000000000000000000000000000000000000000056bc75e2d63100000",
          "blockHash": "0x456c678cac977ccc3f85e63eba698ae07db4056e40ab3d0e92258e08324deb54",
          "blockNumber": "0x694",
          "blockTimestamp": "0x69d16546",
          "transactionHash": "0x93faeaa2a10804e54aae528a7dd825b3d591777215995f752e7217d0ac8a85f2",
          "transactionIndex": "0x1e",
          "logIndex": "0x19",
          "removed": false
        },
        {
          "address": "0x5d42ebdbba61412295d7b0302d6f50ac449ddb4f",
          "topics": [
            "0xddf252ad1be2c89b69c2b068fc378daa952ba7f163c4a11628f55a4df523b3ef",
            "0x000000000000000000000000821f3361d454cc98b7555221a06be563a7e2e0a6",
            "0x000000000000000000000000dde78e6202518ff4936b5302cc2891ec180e8bff"
          ],
          "data": "0x0000000000000000000000000000000000000000000000056bc75e2d63100000",
          "blockHash": "0x456c678cac977ccc3f85e63eba698ae07db4056e40ab3d0e92258e08324deb54",
          "blockNumber": "0x694",
          "blockTimestamp": "0x69d16546",
          "transactionHash": "0x93faeaa2a10804e54aae528a7dd825b3d591777215995f752e7217d0ac8a85f2",
          "transactionIndex": "0x1e",
          "logIndex": "0x1a",
          "removed": false
        },
        {
          "address": "0x821f3361d454cc98b7555221a06be563a7e2e0a6",
          "topics": [
            "0xc91682597e50d783bf81329b763263cef72b0cda71f5e617e0bd4b4150f84403",
            "0x000000000000000000000000f39fd6e51aad88f6f4ce6ab8827279cfffb92266"
          ],
          "data": "0x000000000000000000000000000000000000000000000000000000174876e8000000000000000000000000000000000000000000000015279700831d937000000000000000000000000000000000000000000000000000056bc75e2d63100000",
          "blockHash": "0x456c678cac977ccc3f85e63eba698ae07db4056e40ab3d0e92258e08324deb54",
          "blockNumber": "0x694",
          "blockTimestamp": "0x69d16546",
          "transactionHash": "0x93faeaa2a10804e54aae528a7dd825b3d591777215995f752e7217d0ac8a85f2",
          "transactionIndex": "0x1e",
          "logIndex": "0x1b",
          "removed": false
        }
      ],
      "logsBloom": "0x00001000000000000000000000000000020000000000008000000000000000000000000000000000000000000000000000000000000000000000000000600000000000000000000000000008000000000000000000000000000000100000000002000000020001000000200100000800000000000000000000000010000000000200000010000000000000000000000100000000000000000800000000020000020000000020000000000000000000001000000000000000000000000000000000000003000004200000000000000000000000002000000000000000000020000010000000000000000000000000000000000000000000000000000000000000",
      "type": "0x2",
      "transactionHash": "0x93faeaa2a10804e54aae528a7dd825b3d591777215995f752e7217d0ac8a85f2",
      "transactionIndex": "0x1e",
      "blockHash": "0x456c678cac977ccc3f85e63eba698ae07db4056e40ab3d0e92258e08324deb54",
      "blockNumber": "0x694",
      "gasUsed": "0x3cc52",
      "effectiveGasPrice": "0x8",
      "blobGasPrice": "0x1",
      "from": "0xf39fd6e51aad88f6f4ce6ab8827279cfffb92266",
      "to": "0x821f3361d454cc98b7555221a06be563a7e2e0a6",
      "contractAddress": null,
      "blockTimestamp": 1775330630
    },
    {
      "status": "0x1",
      "cumulativeGasUsed": "0x96ba7a",
      "logs": [
        {
          "address": "0x5d42ebdbba61412295d7b0302d6f50ac449ddb4f",
          "topics": [
            "0x8c5be1e5ebec7d5bd14f71427d1e84f3dd0314c0f7b2291e5b200ac8c7c3b925",
            "0x000000000000000000000000f39fd6e51aad88f6f4ce6ab8827279cfffb92266",
            "0x000000000000000000000000ad523115cd35a8d4e60b3c0953e0e0ac10418309"
          ],
          "data": "0x00000000000000000000000000000000000000000000006c6b935b8bbd400000",
          "blockHash": "0x456c678cac977ccc3f85e63eba698ae07db4056e40ab3d0e92258e08324deb54",
          "blockNumber": "0x694",
          "blockTimestamp": "0x69d16546",
          "transactionHash": "0x921e81e23ebf660cb4ad35290c504b1b0f588ceb91aef98860a398e141e35d07",
          "transactionIndex": "0x1f",
          "logIndex": "0x1c",
          "removed": false
        }
      ],
      "logsBloom": "0x00000000000000000000000000000000000000000000000000000000000000000000000000000000000000000000000000000000000000000000000000200000000000000000000000000000000000000000000000000000000000000000000002000000000001000000000100000000000000000000000000000000000000000000000000000000000000000000200000000000000000000000000000000000020000000000200000000000000000000000000000000000000000000000000000000000000000200000000000000000000002002000000000000000000000000010000000000000000000000000000000000000000000000000000000000000",
      "type": "0x2",
      "transactionHash": "0x921e81e23ebf660cb4ad35290c504b1b0f588ceb91aef98860a398e141e35d07",
      "transactionIndex": "0x1f",
      "blockHash": "0x456c678cac977ccc3f85e63eba698ae07db4056e40ab3d0e92258e08324deb54",
      "blockNumber": "0x694",
      "gasUsed": "0xb371",
      "effectiveGasPrice": "0x8",
      "blobGasPrice": "0x1",
      "from": "0xf39fd6e51aad88f6f4ce6ab8827279cfffb92266",
      "to": "0x5d42ebdbba61412295d7b0302d6f50ac449ddb4f",
      "contractAddress": null,
      "blockTimestamp": 1775330630
    },
    {
      "status": "0x1",
      "cumulativeGasUsed": "0x98ca02",
      "logs": [
        {
          "address": "0x5d42ebdbba61412295d7b0302d6f50ac449ddb4f",
          "topics": [
            "0xddf252ad1be2c89b69c2b068fc378daa952ba7f163c4a11628f55a4df523b3ef",
            "0x000000000000000000000000f39fd6e51aad88f6f4ce6ab8827279cfffb92266",
            "0x000000000000000000000000ad523115cd35a8d4e60b3c0953e0e0ac10418309"
          ],
          "data": "0x00000000000000000000000000000000000000000000006c6b935b8bbd400000",
          "blockHash": "0x456c678cac977ccc3f85e63eba698ae07db4056e40ab3d0e92258e08324deb54",
          "blockNumber": "0x694",
          "blockTimestamp": "0x69d16546",
          "transactionHash": "0x2109d07d1a440966accdaaeff98de324249ffd777b15be023779b6e0386fb4d3",
          "transactionIndex": "0x20",
          "logIndex": "0x1d",
          "removed": false
        },
        {
          "address": "0xad523115cd35a8d4e60b3c0953e0e0ac10418309",
          "topics": [
            "0x2da466a7b24304f47e87fa2e1e5a81b9831ce54fec19055ce277ca2f39ba42c4",
            "0x000000000000000000000000f39fd6e51aad88f6f4ce6ab8827279cfffb92266"
          ],
          "data": "0x00000000000000000000000000000000000000000000006c6b935b8bbd400000",
          "blockHash": "0x456c678cac977ccc3f85e63eba698ae07db4056e40ab3d0e92258e08324deb54",
          "blockNumber": "0x694",
          "blockTimestamp": "0x69d16546",
          "transactionHash": "0x2109d07d1a440966accdaaeff98de324249ffd777b15be023779b6e0386fb4d3",
          "transactionIndex": "0x20",
          "logIndex": "0x1e",
          "removed": false
        }
      ],
      "logsBloom": "0x00000100000000000000000000000000000000000000000000000000000000000000000000000000000000000000000000000000000000000000000000000000000000000000000000000008000000000000000000000000000000000000200002000000000001000000000100000000000000000000000000000010000200000000000000000000000000000000200000000000000000000000000000000000000000000000200000000000000000000000000004000000000000000000000000000002000000200000000000000000000002002000000000000000000000020040000000000000000000000000000000000000000000000000000000000000",
      "type": "0x2",
      "transactionHash": "0x2109d07d1a440966accdaaeff98de324249ffd777b15be023779b6e0386fb4d3",
      "transactionIndex": "0x20",
      "blockHash": "0x456c678cac977ccc3f85e63eba698ae07db4056e40ab3d0e92258e08324deb54",
      "blockNumber": "0x694",
      "gasUsed": "0x20f88",
      "effectiveGasPrice": "0x8",
      "blobGasPrice": "0x1",
      "from": "0xf39fd6e51aad88f6f4ce6ab8827279cfffb92266",
      "to": "0xad523115cd35a8d4e60b3c0953e0e0ac10418309",
      "contractAddress": null,
      "blockTimestamp": 1775330630
    }
  ],
  "libraries": [],
  "pending": [],
  "returns": {},
  "timestamp": 1775330630847,
  "chain": 42069,
  "commit": "393b872"
}