{
  "transactions": [
    {
      "hash": "0xaaea80be5dd3bcd47fba3e123799ce38b7f3bfb9b309219a722fc0c8ef0d731d",
      "transactionType": "CREATE",
      "contractName": "MockWETH18",
      "contractAddress": "0x851356ae760d987e095750cceb3bc6014560891c",
      "function": null,
      "arguments": null,
      "transaction": {
        "from": "0xf39fd6e51aad88f6f4ce6ab8827279cfffb92266",
        "gas": "0x76052",
        "value": "0x0",
        "input": "0x608080604052346015576105c2908161001a8239f35b5f80fdfe60806040526004361015610011575f80fd5b5f3560e01c806306fdde0314610459578063095ea7b3146103e057806318160ddd146103c457806323b872dd1461028e578063313ce5671461027357806340c10f191461020e57806370a08231146101d657806395d89b411461016f578063a9059cbb146100db5763dd62ed3e14610087575f80fd5b346100d75760403660031901126100d7576100a06104d7565b6100a86104ed565b6001600160a01b039182165f908152600260209081526040808320949093168252928352819020549051908152f35b5f80fd5b346100d75760403660031901126100d7576100f46104d7565b60243590335f5260016020526101108260405f20541015610524565b335f52600160205260405f20610127838254610503565b905560018060a01b031690815f52600160205260405f2061014982825461055f565b90556040519081525f51602061056d5f395f51905f5260203392a3602060405160018152f35b346100d7575f3660031901126100d757604051604081019080821067ffffffffffffffff8311176101c2576101be9160405260048152630ae8aa8960e31b6020820152604051918291826104ad565b0390f35b634e487b7160e01b5f52604160045260245ffd5b346100d75760203660031901126100d7576001600160a01b036101f76104d7565b165f526001602052602060405f2054604051908152f35b346100d75760403660031901126100d7576102276104d7565b5f5f51602061056d5f395f51905f5260206024359361024785855461055f565b845560018060a01b031693848452600182526040842061026882825461055f565b9055604051908152a3005b346100d7575f3660031901126100d757602060405160128152f35b346100d75760603660031901126100d7576102a76104d7565b6102af6104ed565b6001600160a01b039091165f818152600260209081526040808320338452909152902054604435929060018101610355575b5060205f51602061056d5f395f51905f5291835f526001825261030a8560405f20541015610524565b835f526001825260405f20610320868254610503565b905560018060a01b031693845f526001825260405f2061034182825461055f565b9055604051908152a3602060405160018152f35b838110610393575f51602061056d5f395f51905f529161037785602093610503565b5f858152600284526040808220338352855290205591506102e1565b60405162461bcd60e51b8152602060048201526009602482015268616c6c6f77616e636560b81b6044820152606490fd5b346100d7575f3660031901126100d75760205f54604051908152f35b346100d75760403660031901126100d7576103f96104d7565b335f8181526002602090815260408083206001600160a01b03909516808452948252918290206024359081905591519182527f8c5be1e5ebec7d5bd14f71427d1e84f3dd0314c0f7b2291e5b200ac8c7c3b92591a3602060405160018152f35b346100d7575f3660031901126100d757604051604081019080821067ffffffffffffffff8311176101c2576101be91604052600d81526c2bb930b83832b21022ba3432b960991b6020820152604051918291825b602060409281835280519182918282860152018484015e5f828201840152601f01601f1916010190565b600435906001600160a01b03821682036100d757565b602435906001600160a01b03821682036100d757565b9190820391821161051057565b634e487b7160e01b5f52601160045260245ffd5b1561052b57565b60405162461bcd60e51b815260206004820152600c60248201526b1a5b9cdd59999a58da595b9d60a21b6044820152606490fd5b919082018092116105105756feddf252ad1be2c89b69c2b068fc378daa952ba7f163c4a11628f55a4df523b3efa2646970667358221220f44e2b99b9eb26470370297b89a260df39c36e04210cea2e6a42427eea450e7664736f6c63430008210033",
        "nonce": "0x24",
        "chainId": "0xa455"
      },
      "additionalContracts": [],
      "isFixedGasLimit": false
    },
    {
      "hash": "0x76c5c25c23694e8fe81890b1c3651a3990c51b8b6a6eec11b7bbf3af67f35e0c",
      "transactionType": "CREATE",
      "contractName": "MockUSDC6",
      "contractAddress": "0xf5059a5d33d5853360d16c683c16e67980206f36",
      "function": null,
      "arguments": null,
      "transaction": {
        "from": "0xf39fd6e51aad88f6f4ce6ab8827279cfffb92266",
        "gas": "0x75acd",
        "value": "0x0",
        "input": "0x608080604052346015576105bd908161001a8239f35b5f80fdfe60806040526004361015610011575f80fd5b5f3560e01c806306fdde0314610459578063095ea7b3146103e057806318160ddd146103c457806323b872dd1461028e578063313ce5671461027357806340c10f191461020e57806370a08231146101d657806395d89b411461016f578063a9059cbb146100db5763dd62ed3e14610087575f80fd5b346100d75760403660031901126100d7576100a06104d2565b6100a86104e8565b6001600160a01b039182165f908152600260209081526040808320949093168252928352819020549051908152f35b5f80fd5b346100d75760403660031901126100d7576100f46104d2565b60243590335f5260016020526101108260405f2054101561051f565b335f52600160205260405f206101278382546104fe565b905560018060a01b031690815f52600160205260405f2061014982825461055a565b90556040519081525f5160206105685f395f51905f5260203392a3602060405160018152f35b346100d7575f3660031901126100d757604051604081019080821067ffffffffffffffff8311176101c2576101be9160405260048152635553444360e01b6020820152604051918291826104a8565b0390f35b634e487b7160e01b5f52604160045260245ffd5b346100d75760203660031901126100d7576001600160a01b036101f76104d2565b165f526001602052602060405f2054604051908152f35b346100d75760403660031901126100d7576102276104d2565b5f5f5160206105685f395f51905f5260206024359361024785855461055a565b845560018060a01b031693848452600182526040842061026882825461055a565b9055604051908152a3005b346100d7575f3660031901126100d757602060405160068152f35b346100d75760603660031901126100d7576102a76104d2565b6102af6104e8565b6001600160a01b039091165f818152600260209081526040808320338452909152902054604435929060018101610355575b5060205f5160206105685f395f51905f5291835f526001825261030a8560405f2054101561051f565b835f526001825260405f206103208682546104fe565b905560018060a01b031693845f526001825260405f2061034182825461055a565b9055604051908152a3602060405160018152f35b838110610393575f5160206105685f395f51905f5291610377856020936104fe565b5f858152600284526040808220338352855290205591506102e1565b60405162461bcd60e51b8152602060048201526009602482015268616c6c6f77616e636560b81b6044820152606490fd5b346100d7575f3660031901126100d75760205f54604051908152f35b346100d75760403660031901126100d7576103f96104d2565b335f8181526002602090815260408083206001600160a01b03909516808452948252918290206024359081905591519182527f8c5be1e5ebec7d5bd14f71427d1e84f3dd0314c0f7b2291e5b200ac8c7c3b92591a3602060405160018152f35b346100d7575f3660031901126100d757604051604081019080821067ffffffffffffffff8311176101c2576101be9160405260088152672aa9a21021b7b4b760c11b6020820152604051918291825b602060409281835280519182918282860152018484015e5f828201840152601f01601f1916010190565b600435906001600160a01b03821682036100d757565b602435906001600160a01b03821682036100d757565b9190820391821161050b57565b634e487b7160e01b5f52601160045260245ffd5b1561052657565b60405162461bcd60e51b815260206004820152600c60248201526b1a5b9cdd59999a58da595b9d60a21b6044820152606490fd5b9190820180921161050b5756feddf252ad1be2c89b69c2b068fc378daa952ba7f163c4a11628f55a4df523b3efa2646970667358221220791065bf4d55414b56faee2f2ff493c77cd3fd268a65eeb26de2add168f2919f64736f6c63430008210033",
        "nonce": "0x25",
        "chainId": "0xa455"
      },
      "additionalContracts": [],
      "isFixedGasLimit": false
    },
    {
      "hash": "0x3a0293e28054f6fa9a9f119f3b1647445fec1f073bff4fa1f7a0d816dca25135",
      "transactionType": "CREATE",
      "contractName": "MockGD18",
      "contractAddress": "0x95401dc811bb5740090279ba06cfa8fcf6113778",
      "function": null,
      "arguments": null,
      "transaction": {
        "from": "0xf39fd6e51aad88f6f4ce6ab8827279cfffb92266",
        "gas": "0x75acd",
        "value": "0x0",
        "input": "0x608080604052346015576105bd908161001a8239f35b5f80fdfe60806040526004361015610011575f80fd5b5f3560e01c806306fdde0314610457578063095ea7b3146103de57806318160ddd146103c257806323b872dd1461028c578063313ce5671461027157806340c10f191461020c57806370a08231146101d457806395d89b411461016f578063a9059cbb146100db5763dd62ed3e14610087575f80fd5b346100d75760403660031901126100d7576100a06104d2565b6100a86104e8565b6001600160a01b039182165f908152600260209081526040808320949093168252928352819020549051908152f35b5f80fd5b346100d75760403660031901126100d7576100f46104d2565b60243590335f5260016020526101108260405f2054101561051f565b335f52600160205260405f206101278382546104fe565b905560018060a01b031690815f52600160205260405f2061014982825461055a565b90556040519081525f5160206105685f395f51905f5260203392a3602060405160018152f35b346100d7575f3660031901126100d757604051604081019080821067ffffffffffffffff8311176101c0576101bc91604052600281526111c960f21b6020820152604051918291826104a8565b0390f35b634e487b7160e01b5f52604160045260245ffd5b346100d75760203660031901126100d7576001600160a01b036101f56104d2565b165f526001602052602060405f2054604051908152f35b346100d75760403660031901126100d7576102256104d2565b5f5f5160206105685f395f51905f5260206024359361024585855461055a565b845560018060a01b031693848452600182526040842061026682825461055a565b9055604051908152a3005b346100d7575f3660031901126100d757602060405160128152f35b346100d75760603660031901126100d7576102a56104d2565b6102ad6104e8565b6001600160a01b039091165f818152600260209081526040808320338452909152902054604435929060018101610353575b5060205f5160206105685f395f51905f5291835f52600182526103088560405f2054101561051f565b835f526001825260405f2061031e8682546104fe565b905560018060a01b031693845f526001825260405f2061033f82825461055a565b9055604051908152a3602060405160018152f35b838110610391575f5160206105685f395f51905f5291610375856020936104fe565b5f858152600284526040808220338352855290205591506102df565b60405162461bcd60e51b8152602060048201526009602482015268616c6c6f77616e636560b81b6044820152606490fd5b346100d7575f3660031901126100d75760205f54604051908152f35b346100d75760403660031901126100d7576103f76104d2565b335f8181526002602090815260408083206001600160a01b03909516808452948252918290206024359081905591519182527f8c5be1e5ebec7d5bd14f71427d1e84f3dd0314c0f7b2291e5b200ac8c7c3b92591a3602060405160018152f35b346100d7575f3660031901126100d757604051604081019080821067ffffffffffffffff8311176101c0576101bc91604052600a81526923b7b7b22237b63630b960b11b6020820152604051918291825b602060409281835280519182918282860152018484015e5f828201840152601f01601f1916010190565b600435906001600160a01b03821682036100d757565b602435906001600160a01b03821682036100d757565b9190820391821161050b57565b634e487b7160e01b5f52601160045260245ffd5b1561052657565b60405162461bcd60e51b815260206004820152600c60248201526b1a5b9cdd59999a58da595b9d60a21b6044820152606490fd5b9190820180921161050b5756feddf252ad1be2c89b69c2b068fc378daa952ba7f163c4a11628f55a4df523b3efa26469706673582212201630a2f89b2f1a53ed9587132d4e390a739b2bf4e959b6bc38cdfb38ebccdd3664736f6c63430008210033",
        "nonce": "0x26",
        "chainId": "0xa455"
      },
      "additionalContracts": [],
      "isFixedGasLimit": false
    },
    {
      "hash": "0xadded217ab74eeb4255a903bd1127855f6c4bd60a2c5b2810e6819a33e69fa92",
      "transactionType": "CREATE",
      "contractName": "MockPriceOracle",
      "contractAddress": "0x998abeb3e57409262ae5b751f60747921b33613e",
      "function": null,
      "arguments": null,
      "transaction": {
        "from": "0xf39fd6e51aad88f6f4ce6ab8827279cfffb92266",
        "gas": "0x1dca0",
        "value": "0x0",
        "input": "0x6080806040523460135760bb908160188239f35b5f80fdfe608060405260043610156010575f80fd5b5f3560e01c806310d8d74d14606157806331d98b3f146036576360846bc6146036575f80fd5b34605d576020366003190112605d576004355f525f602052602060405f2054604051908152f35b5f80fd5b34605d576040366003190112605d576004355f525f60205260243560405f20555f80f3fea2646970667358221220ebc945643ff71833c6d0b45b7380086707b6b1bc7845b519b9b5a26cd0de359964736f6c63430008210033",
        "nonce": "0x27",
        "chainId": "0xa455"
      },
      "additionalContracts": [],
      "isFixedGasLimit": false
    },
    {
      "hash": "0x572ff57e50a8fd16299dd1ecc2c5cab3a78ab5cdb99e14fd6bdecd35b9c8fa2d",
      "transactionType": "CALL",
      "contractName": "MockPriceOracle",
      "contractAddress": "0x998abeb3e57409262ae5b751f60747921b33613e",
      "function": "setPrice(bytes32,uint256)",
      "arguments": [
        "0x4554480000000000000000000000000000000000000000000000000000000000",
        "2000000000000000000000"
      ],
      "transaction": {
        "from": "0xf39fd6e51aad88f6f4ce6ab8827279cfffb92266",
        "to": "0x998abeb3e57409262ae5b751f60747921b33613e",
        "gas": "0xf9df",
        "value": "0x0",
        "input": "0x10d8d74d455448000000000000000000000000000000000000000000000000000000000000000000000000000000000000000000000000000000006c6b935b8bbd400000",
        "nonce": "0x28",
        "chainId": "0xa455"
      },
      "additionalContracts": [],
      "isFixedGasLimit": false
    },
    {
      "hash": "0xd91c937a79fa251a06379287e30581f4d47bf1acc9fa11ef64c56aabf34a752f",
      "transactionType": "CALL",
      "contractName": "MockPriceOracle",
      "contractAddress": "0x998abeb3e57409262ae5b751f60747921b33613e",
      "function": "setPrice(bytes32,uint256)",
      "arguments": [
        "0x4744000000000000000000000000000000000000000000000000000000000000",
        "1000000000000000"
      ],
      "transaction": {
        "from": "0xf39fd6e51aad88f6f4ce6ab8827279cfffb92266",
        "to": "0x998abeb3e57409262ae5b751f60747921b33613e",
        "gas": "0xf9bc",
        "value": "0x0",
        "input": "0x10d8d74d474400000000000000000000000000000000000000000000000000000000000000000000000000000000000000000000000000000000000000038d7ea4c68000",
        "nonce": "0x29",
        "chainId": "0xa455"
      },
      "additionalContracts": [],
      "isFixedGasLimit": false
    },
    {
      "hash": "0x0dae7c30f960825ba98df1280d4fccd691b3ce11564cf7fdc4bacbe753bc9075",
      "transactionType": "CALL",
      "contractName": "MockPriceOracle",
      "contractAddress": "0x998abeb3e57409262ae5b751f60747921b33613e",
      "function": "setPrice(bytes32,uint256)",
      "arguments": [
        "0x5553444300000000000000000000000000000000000000000000000000000000",
        "1000000000000000000"
      ],
      "transaction": {
        "from": "0xf39fd6e51aad88f6f4ce6ab8827279cfffb92266",
        "to": "0x998abeb3e57409262ae5b751f60747921b33613e",
        "gas": "0xf9df",
        "value": "0x0",
        "input": "0x10d8d74d55534443000000000000000000000000000000000000000000000000000000000000000000000000000000000000000000000000000000000de0b6b3a7640000",
        "nonce": "0x2a",
        "chainId": "0xa455"
      },
      "additionalContracts": [],
      "isFixedGasLimit": false
    },
    {
      "hash": "0xb8a07c50ef400a5193b58e4622bb3858d25599ec2e7056531e4bb7b76a11dc13",
      "transactionType": "CREATE",
      "contractName": "gUSD",
      "contractAddress": "0x0e801d84fa97b50751dbf25036d067dcf18858bf",
      "function": null,
      "arguments": [
        "0xf39Fd6e51aad88F6F4ce6aB8827279cffFb92266"
      ],
      "transaction": {
        "from": "0xf39fd6e51aad88f6f4ce6ab8827279cfffb92266",
        "gas": "0xf8416",
        "value": "0x0",
        "input": "0x60803460ad57601f610d7b38819003918201601f19168301916001600160401b0383118484101760b15780849260209460405283398101031260ad57516001600160a01b0381169081900360ad578015607557600380546001600160a01b031916919091179055604051610cb590816100c68239f35b60405162461bcd60e51b815260206004820152601060248201526f33aaa9a21d103d32b9379030b236b4b760811b6044820152606490fd5b5f80fd5b634e487b7160e01b5f52604160045260245ffdfe60806040526004361015610011575f80fd5b5f3560e01c806306fdde0314610983578063095ea7b3146108cc5780630d895ee11461084f57806318160ddd1461083357806323b872dd14610722578063313ce5671461070757806340c10f19146105f357806342966c68146105655780634334614a1461052857806370a08231146104f057806375829def1461047357806379cc67901461033c57806395d89b41146102d5578063a9059cbb14610220578063aa271e1a146101e3578063cf456ae71461015b578063dd62ed3e1461010b5763f851a440146100df575f80fd5b34610107575f366003190112610107576003546040516001600160a01b039091168152602090f35b5f80fd5b3461010757604036600319011261010757610124610a02565b61012c610a18565b6001600160a01b039182165f908152600260209081526040808320949093168252928352819020549051908152f35b346101075760207f583b0aa0e528532caf4b907c11d7a8158a122fe2a6fb80cd9b09776ebea8d92d61018c36610a2e565b92906101a360018060a01b03600354163314610a5d565b6001600160a01b0316926101b8841515610a9b565b835f52600482526101d88160405f209060ff801983541691151516179055565b6040519015158152a2005b34610107576020366003190112610107576001600160a01b03610204610a02565b165f526004602052602060ff60405f2054166040519015158152f35b3461010757604036600319011261010757610239610a02565b6024359061024960065415610adc565b60016006556001600160a01b031690610263821515610b14565b335f52600160205261027b8160405f20541015610bc6565b335f52600160205260405f20610292828254610ba5565b9055815f52600160205260405f206102ab828254610c12565b90556040519081525f516020610c605f395f51905f5260203392a35f600655602060405160018152f35b34610107575f36600319011261010757604051604081019080821067ffffffffffffffff8311176103285761032491604052600481526319d554d160e21b6020820152604051918291826109d8565b0390f35b634e487b7160e01b5f52604160045260245ffd5b3461010757604036600319011261010757610355610a02565b60243561036460065415610adc565b6001600655335f52600560205260ff60405f2054161561043b575f516020610c605f395f51905f5260205f9361039b841515610c1f565b6001600160a01b031692338490036103f7575b838552600182526103c58160408720541015610bc6565b83855260018252604085206103db828254610ba5565b90556103e8818654610ba5565b8555604051908152a35f600655005b838552600282526040808620338752835285205461042290829061041d82821015610b59565b610ba5565b84865260028352604080872033885284528620556103ae565b60405162461bcd60e51b815260206004820152601060248201526f33aaa9a21d103737ba10313ab93732b960811b6044820152606490fd5b346101075760203660031901126101075761048c610a02565b6003546001600160a01b038116916104a5338414610a5d565b6001600160a01b03169182906104bc821515610a9b565b7ff8ccb027dfcd135e000e9d45e6cc2d662578a8825d4c45b5e32e0adf67e79ec65f80a36001600160a01b03191617600355005b34610107576020366003190112610107576001600160a01b03610511610a02565b165f526001602052602060405f2054604051908152f35b34610107576020366003190112610107576001600160a01b03610549610a02565b165f526005602052602060ff60405f2054166040519015158152f35b34610107576020366003190112610107575f60043561058660065415610adc565b6001600655610596811515610c1f565b33825260016020526105ae8160408420541015610bc6565b3382526001602052604082206105c5828254610ba5565b90556105d2818354610ba5565b82556040519081525f516020610c605f395f51905f5260203392a35f600655005b346101075760403660031901126101075761060c610a02565b6024359061061c60065415610adc565b6001600655335f52600460205260ff60405f205416156106cf576001600160a01b0316908115610695575f516020610c605f395f51905f526020826106635f941515610c1f565b61066e818554610c12565b84558484526001825260408420610686828254610c12565b9055604051908152a35f600655005b60405162461bcd60e51b8152602060048201526012602482015271675553443a206d696e7420746f207a65726f60701b6044820152606490fd5b60405162461bcd60e51b815260206004820152601060248201526f33aaa9a21d103737ba1036b4b73a32b960811b6044820152606490fd5b34610107575f36600319011261010757602060405160128152f35b346101075760603660031901126101075761073b610a02565b610743610a18565b5f516020610c605f395f51905f5260206044359261076360065415610adc565b60016006556001600160a01b03169361077d851515610b14565b6001600160a01b03165f81815260028352604080822033835284529020549093908160018201610807575b5050835f52600182526107c18160405f20541015610bc6565b835f526001825260405f206107d7828254610ba5565b9055845f526001825260405f206107ef828254610c12565b9055604051908152a35f600655602060405160018152f35b8161041d82610817941015610b59565b5f858152600284526040808220338352855290205585816107a8565b34610107575f3660031901126101075760205f54604051908152f35b346101075760207fd28dc1379d750c7c8137c7ef7b074f62f1361b9becc7f9d77d8c0d6e46a3cd0661088036610a2e565b929061089760018060a01b03600354163314610a5d565b6001600160a01b0316926108ac841515610a9b565b835f52600582526101d88160405f209060ff801983541691151516179055565b34610107576040366003190112610107576108e5610a02565b6001600160a01b0316602435811561094657335f52600260205260405f20825f526020528060405f20556040519081527f8c5be1e5ebec7d5bd14f71427d1e84f3dd0314c0f7b2291e5b200ac8c7c3b92560203392a3602060405160018152f35b60405162461bcd60e51b8152602060048201526015602482015274675553443a20617070726f766520746f207a65726f60581b6044820152606490fd5b34610107575f36600319011261010757604051604081019080821067ffffffffffffffff8311176103285761032491604052600e81526d11dbdbd9111bdb1b185c881554d160921b6020820152604051918291825b602060409281835280519182918282860152018484015e5f828201840152601f01601f1916010190565b600435906001600160a01b038216820361010757565b602435906001600160a01b038216820361010757565b6040906003190112610107576004356001600160a01b0381168103610107579060243580151581036101075790565b15610a6457565b60405162461bcd60e51b815260206004820152600f60248201526e33aaa9a21d103737ba1030b236b4b760891b6044820152606490fd5b15610aa257565b60405162461bcd60e51b8152602060048201526012602482015271675553443a207a65726f206164647265737360701b6044820152606490fd5b15610ae357565b60405162461bcd60e51b81526020600482015260096024820152681499595b9d1c985b9d60ba1b6044820152606490fd5b15610b1b57565b60405162461bcd60e51b8152602060048201526016602482015275675553443a207472616e7366657220746f207a65726f60501b6044820152606490fd5b15610b6057565b60405162461bcd60e51b815260206004820152601c60248201527f675553443a20696e73756666696369656e7420616c6c6f77616e6365000000006044820152606490fd5b91908203918211610bb257565b634e487b7160e01b5f52601160045260245ffd5b15610bcd57565b60405162461bcd60e51b815260206004820152601a60248201527f675553443a20696e73756666696369656e742062616c616e63650000000000006044820152606490fd5b91908201809211610bb257565b15610c2657565b60405162461bcd60e51b815260206004820152601160248201527019d554d10e881e995c9bc8185b5bdd5b9d607a1b6044820152606490fdfeddf252ad1be2c89b69c2b068fc378daa952ba7f163c4a11628f55a4df523b3efa264697066735822122071b3a7b80db2125a936c310b730cd5550b3bb0ec84319faa89f6886da763d91e64736f6c63430008210033000000000000000000000000f39fd6e51aad88f6f4ce6ab8827279cfffb92266",
        "nonce": "0x2b",
        "chainId": "0xa455"
      },
      "additionalContracts": [],
      "isFixedGasLimit": false
    },
    {
      "hash": "0x153a86c7a7cf6c9505092a08dce2984e2542b61fc12f7125fc804eacae6ab4de",
      "transactionType": "CREATE",
      "contractName": "MockUBIFeeSplitter",
      "contractAddress": "0x8f86403a4de0bb5791fa46b8e795c547942fe4cf",
      "function": null,
      "arguments": [
        "0x0E801D84Fa97b50751Dbf25036d067dCf18858bF"
      ],
      "transaction": {
        "from": "0xf39fd6e51aad88f6f4ce6ab8827279cfffb92266",
        "gas": "0x43177",
        "value": "0x0",
        "input": "0x60a034606c57601f61035938819003918201601f19168301916001600160401b03831184841017607057808492602094604052833981010312606c57516001600160a01b0381168103606c576080526040516102d490816100858239608051818181605d01526101280152f35b5f80fd5b634e487b7160e01b5f52604160045260245ffdfe6080806040526004361015610012575f80fd5b5f3560e01c90816364d6def9146100c957508063a3c2c462146100ad578063d91492d2146100905763fc0c546a14610048575f80fd5b3461008c575f36600319011261008c576040517f00000000000000000000000000000000000000000000000000000000000000006001600160a01b03168152602090f35b5f80fd5b3461008c575f36600319011261008c576020600154604051908152f35b3461008c575f36600319011261008c5760205f54604051908152f35b3461008c57604036600319011261008c57600435906024356001600160a01b0381160361008c575f816020829301906323b872dd60e01b825233602482015230604482015284606482015260648152610123608482610262565b5190827f00000000000000000000000000000000000000000000000000000000000000005af13d1561025d573d67ffffffffffffffff81116102495760405190610177601f8201601f191660200183610262565b81525f60203d92013e5b1561021257610d05810290801591818104610d05148317156101fe576127109004906106838102928184046106831417156101fe57612710606093046101ea6101d3826101ce8686610284565b610284565b926101e085600154610291565b6001555f54610291565b5f5560405192835260208301526040820152f35b634e487b7160e01b5f52601160045260245ffd5b60405162461bcd60e51b815260206004820152600f60248201526e199959481c1d5b1b0819985a5b1959608a1b6044820152606490fd5b634e487b7160e01b5f52604160045260245ffd5b610181565b90601f8019910116810190811067ffffffffffffffff82111761024957604052565b919082039182116101fe57565b919082018092116101fe5756fea26469706673582212204d17c6c905316daa795de06cdaa2a16080139f68ee7e09b8f62b9b8bca849dab64736f6c634300082100330000000000000000000000000e801d84fa97b50751dbf25036d067dcf18858bf",
        "nonce": "0x2c",
        "chainId": "0xa455"
      },
      "additionalContracts": [],
      "isFixedGasLimit": false
    },
    {
      "hash": "0xe2bf4e4d969cb96c73b67c725c1dac981dda8fad122cceb24c767e7dff8c350f",
      "transactionType": "CREATE",
      "contractName": "CollateralRegistry",
      "contractAddress": "0x9d4454b023096f34b160d6b654540c56a1f81688",
      "function": null,
      "arguments": [
        "0xf39Fd6e51aad88F6F4ce6aB8827279cffFb92266",
        "0x851356ae760d987E095750cCeb3bC6014560891C",
        "0x95401dc811bb5740090279Ba06cfA8fcF6113778",
        "0xf5059a5D33d5853360D16C683c16e67980206f36"
      ],
      "transaction": {
        "from": "0xf39fd6e51aad88f6f4ce6ab8827279cfffb92266",
        "gas": "0x1639e3",
        "value": "0x0",
        "input": "0x6080604052346107dd57604051601f6110d138819003918201601f19168301916001600160401b0383118484101761073f578084926080946040528339810103126107dd5761004d81610800565b9061005a60208201610800565b610072606061006b60408501610800565b9301610800565b926001600160a01b03168015610798575f80546001600160a01b0319169190911781556208aa8960eb1b905260036020525f5160206110b15f395f51905f525460ff16610753576102306100c46107e1565b6001600160a01b039283168082526714d1120d7b16000060208084019182526701cdda4faccd00006040850190815269d3c21bcecceda1000000606086019081526b033b2e3ca88761c9983cdc0660808701908152600160a088019081526208aa8960eb1b5f52600290945295517fd9402e47e68a5154d8f9cdc9d4ffcf4a300546026372c3b04224fbe62656c6018054919099166001600160a01b03199091161790975591517fd9402e47e68a5154d8f9cdc9d4ffcf4a300546026372c3b04224fbe62656c6025590517fd9402e47e68a5154d8f9cdc9d4ffcf4a300546026372c3b04224fbe62656c6035593517fd9402e47e68a5154d8f9cdc9d4ffcf4a300546026372c3b04224fbe62656c6045590517fd9402e47e68a5154d8f9cdc9d4ffcf4a300546026372c3b04224fbe62656c6055591517fd9402e47e68a5154d8f9cdc9d4ffcf4a300546026372c3b04224fbe62656c606805460ff191691151560ff16919091179055565b6208aa8960eb1b5f5260036020525f5160206110b15f395f51905f52805460ff19166001908117909155546801000000000000000081101561073f57600181018060015581101561072b5760015f526208aa8960eb1b5f5160206110715f395f51905f52909101819055604080519283526714d1120d7b160000602084015290915f5160206110915f395f51905f529190a26111d160f21b5f5260036020525f5160206110315f395f51905f525460ff166107535761045b6102f06107e1565b6001600160a01b03928316808252671bc16d674ec800006020808401918252670214e8348c4f0000604085019081526969e10de76676d0800000606086019081526b033b2e3cad042cdf3cd0635460808701908152600160a088019081526111d160f21b5f52600290945295517f51ad335b9c1bfbc41734cb4ba99a217db2c0eab320f85383a3fa8695e01e16f58054919099166001600160a01b03199091161790975591517f51ad335b9c1bfbc41734cb4ba99a217db2c0eab320f85383a3fa8695e01e16f65590517f51ad335b9c1bfbc41734cb4ba99a217db2c0eab320f85383a3fa8695e01e16f75593517f51ad335b9c1bfbc41734cb4ba99a217db2c0eab320f85383a3fa8695e01e16f85590517f51ad335b9c1bfbc41734cb4ba99a217db2c0eab320f85383a3fa8695e01e16f95591517f51ad335b9c1bfbc41734cb4ba99a217db2c0eab320f85383a3fa8695e01e16fa805460ff191691151560ff16919091179055565b6111d160f21b5f5260036020525f5160206110315f395f51905f52805460ff19166001908117909155546801000000000000000081101561073f57600181018060015581101561072b5760015f526111d160f21b5f5160206110715f395f51905f5290910181905560408051928352671bc16d674ec80000602084015290915f5160206110915f395f51905f529190a2635553444360e01b5f5260036020525f5160206110515f395f51905f525460ff166107535761068861051b6107e1565b6001600160a01b03928316808252670e043da6172500006020808401918252662386f26fc10000604085019081526a084595161401484a000000606086019081526b033b2e3ca2026060221a219260808701908152600160a08801908152635553444360e01b5f52600290945295517fe1b832f4cd54a115ddce65d9da7c8d553103a217be87cd651ea7f31e4eebaefd8054919099166001600160a01b03199091161790975591517fe1b832f4cd54a115ddce65d9da7c8d553103a217be87cd651ea7f31e4eebaefe5590517fe1b832f4cd54a115ddce65d9da7c8d553103a217be87cd651ea7f31e4eebaeff5593517fe1b832f4cd54a115ddce65d9da7c8d553103a217be87cd651ea7f31e4eebaf005590517fe1b832f4cd54a115ddce65d9da7c8d553103a217be87cd651ea7f31e4eebaf015591517fe1b832f4cd54a115ddce65d9da7c8d553103a217be87cd651ea7f31e4eebaf02805460ff191691151560ff16919091179055565b635553444360e01b5f5260036020525f5160206110515f395f51905f52805460ff19166001908117909155546801000000000000000081101561073f57600181018060015581101561072b5760015f52635553444360e01b5f5160206110715f395f51905f5290910181905560408051928352670e043da617250000602084015290915f5160206110915f395f51905f529190a260405161081c90816108158239f35b634e487b7160e01b5f52603260045260245ffd5b634e487b7160e01b5f52604160045260245ffd5b60405162461bcd60e51b815260206004820152601460248201527f52656769737472793a20696c6b206578697374730000000000000000000000006044820152606490fd5b60405162461bcd60e51b815260206004820152601460248201527f52656769737472793a207a65726f2061646d696e0000000000000000000000006044820152606490fd5b5f80fd5b6040519060c082016001600160401b0381118382101761073f57604052565b51906001600160a01b03821682036107dd5756fe60806040526004361015610011575f80fd5b5f3560e01c806306fe274d1461064e578063552033c41461064e5780636a1460241461062c5780636dd5b69d1461054b57806375829def146104955780637da4882e146103d657806386a3862b146103a75780639d23b35f1461036f578063afaea5cf146102d2578063b64e0001146102b5578063d929fe7b146100c85763f851a4401461009d575f80fd5b346100c4575f3660031901126100c4575f546040516001600160a01b039091168152602090f35b5f80fd5b346100c45760c03660031901126100c4576004356024356001600160a01b038116908190036100c4576044359060a43561010c60018060a01b035f5416331461070c565b835f52600360205260ff60405f205416610279576101e490610138670de0b6b3a764000085101561074e565b6101506b033b2e3c9fd0803ce800000082101561079a565b600561015a6106a0565b918483526020830190868252604084016064358152606085019060843582526080860192835260a0860193600185528a5f52600260205260405f209660018060a01b039051166bffffffffffffffffffffffff60a01b88541617875551600187015551600286015551600385015551600484015551151591019060ff801983541691151516179055565b825f52600360205260405f20600160ff198254161790556001549068010000000000000000821015610265577fab8ac0e1bd8ac03ac9df93028bd29e1972d82acd99a159a07ac48bcd2b022cbe9261024483600160409501600155610674565b81549060031b9087821b915f19901b191617905582519182526020820152a2005b634e487b7160e01b5f52604160045260245ffd5b60405162461bcd60e51b815260206004820152601460248201527352656769737472793a20696c6b2065786973747360601b6044820152606490fd5b346100c4575f3660031901126100c4576020600154604051908152f35b346100c45760403660031901126100c457600435602435801515908181036100c4577f1fe409d485d3e152a677dfe4363f46aa10af58db9e2d5a1906e74264b27f2b2a9161036660209261033060018060a01b035f5416331461070c565b855f526003845261034760ff60405f2054166106c0565b855f5260028452600560405f20019060ff801983541691151516179055565b604051908152a2005b346100c45760203660031901126100c4576004356001548110156100c457610398602091610674565b90549060031b1c604051908152f35b346100c45760203660031901126100c4576004355f526003602052602060ff60405f2054166040519015158152f35b346100c45760a03660031901126100c45760043560243560046084359161040760018060a01b035f5416331461070c565b835f52600360205261041f60ff60405f2054166106c0565b610433670de0b6b3a764000082101561074e565b61044b6b033b2e3c9fd0803ce800000084101561079a565b835f52600260205260405f209060018201556044356002820155606435600382015501557f0cc993b15fc5afe9385b1249b7f1bd98ace3df370e89b94e1c3328d0e329e0455f80a2005b346100c45760203660031901126100c4576004356001600160a01b038116908190036100c4575f546001600160a01b0381166104d233821461070c565b821561050d5782907ff8ccb027dfcd135e000e9d45e6cc2d662578a8825d4c45b5e32e0adf67e79ec65f80a36001600160a01b031916175f55005b60405162461bcd60e51b815260206004820152601660248201527552656769737472793a207a65726f206164647265737360501b6044820152606490fd5b346100c45760203660031901126100c4576004355f60a061056a6106a0565b8281528260208201528260408201528260608201528260808201520152805f52600360205261059f60ff60405f2054166106c0565b5f52600260205260c060405f206105b46106a0565b60018060a01b03825416918282526001810154602083019081526002820154604084019081526003830154916060850192835260a060ff6005600487015496608089019788520154169501941515855260405195865251602086015251604085015251606084015251608083015251151560a0820152f35b346100c4575f3660031901126100c4576020604051670de0b6b3a76400008152f35b346100c4575f3660031901126100c45760206040516b033b2e3c9fd0803ce80000008152f35b60015481101561068c5760015f5260205f2001905f90565b634e487b7160e01b5f52603260045260245ffd5b6040519060c0820182811067ffffffffffffffff82111761026557604052565b156106c757565b60405162461bcd60e51b815260206004820152601760248201527f52656769737472793a20696c6b206e6f7420666f756e640000000000000000006044820152606490fd5b1561071357565b60405162461bcd60e51b81526020600482015260136024820152722932b3b4b9ba393c9d103737ba1030b236b4b760691b6044820152606490fd5b1561075557565b60405162461bcd60e51b815260206004820152601760248201527f52656769737472793a20726174696f2062656c6f7720310000000000000000006044820152606490fd5b156107a157565b60405162461bcd60e51b815260206004820152601c60248201527f52656769737472793a2066656520726174652062656c6f7720524159000000006044820152606490fdfea2646970667358221220a71fbb426a5c78ab229d821f155dda660074e7a7aa670f7ce57c23990ac32dd764736f6c63430008210033d1420b98fa8afc26b982107a255caa30f9329b3a404658edf1e695ae25bce036acb22bafd1ef6e02894947a1fd190769ebf1f0739eb9e7f1feaa66870379637ab10e2d527612073b26eecdfd717e6a320cf44b4afac2b0732d9fcbe2b7fa0cf6ab8ac0e1bd8ac03ac9df93028bd29e1972d82acd99a159a07ac48bcd2b022cbeb88c0ea72901a5cbd9418ec92b4fe479ea97c0ee8cacdc49e96d11aff3a45dc7000000000000000000000000f39fd6e51aad88f6f4ce6ab8827279cfffb92266000000000000000000000000851356ae760d987e095750cceb3bc6014560891c00000000000000000000000095401dc811bb5740090279ba06cfa8fcf6113778000000000000000000000000f5059a5d33d5853360d16c683c16e67980206f36",
        "nonce": "0x2d",
        "chainId": "0xa455"
      },
      "additionalContracts": [],
      "isFixedGasLimit": false
    },
    {
      "hash": "0x4864fb01bfec4e4a1fb4e7336005d12066469191d8dd6872b1a47b19758ef7ff",
      "transactionType": "CREATE",
      "contractName": "VaultManager",
      "contractAddress": "0x5eb3bc0a489c5a8288765d2336659ebca68fcd00",
      "function": null,
      "arguments": [
        "0x0E801D84Fa97b50751Dbf25036d067dCf18858bF",
        "0x9d4454B023096f34B160D6B654540c56A1F81688",
        "0x998abeb3E57409262aE5b751f60747921B33613E",
        "0x8f86403A4DE0BB5791fa46B8e795C547942fE4Cf",
        "0xf39Fd6e51aad88F6F4ce6aB8827279cffFb92266",
        "0xf39Fd6e51aad88F6F4ce6aB8827279cffFb92266"
      ],
      "transaction": {
        "from": "0xf39fd6e51aad88f6f4ce6ab8827279cfffb92266",
        "gas": "0x2da193",
        "value": "0x0",
        "input": "0x6101003461032557601f612afa38819003918201601f19168301916001600160401b038311848410176103295780849260c094604052833981010312610325576100488161033d565b6100546020830161033d565b916100616040820161033d565b61006d6060830161033d565b9061008660a061007f6080860161033d565b940161033d565b6001600160a01b039094169485156102f0576001600160a01b03169081156102b7576001600160a01b0316918215610280576001600160a01b0316928315610247576001600160a01b0316938415610202576001600160a01b03169485156101cc5760805260a05260c05260e05260018060a01b0319600254161760025560018060a01b031960015416176001556040516127a8908161035282396080518181816103c6015281816106f701528181610c4701528181610fcc015281816116480152611c66015260a051818181610605015281816109e901528181610eb1015281816111480152818161131c015281816115540152818161176b015281816119a501528181611be401528181612083015261255a015260c051818181610a7f01528181610ef5015281816120d901526125b0015260e0518181816108620152611cdc0152f35b60405162461bcd60e51b815260206004820152600e60248201526d2b269d103d32b9379030b236b4b760911b6044820152606490fd5b60405162461bcd60e51b815260206004820152601760248201527f564d3a207a65726f206441707020726563697069656e740000000000000000006044820152606490fd5b60405162461bcd60e51b81526020600482015260116024820152702b269d103d32b9379039b83634ba3a32b960791b6044820152606490fd5b60405162461bcd60e51b815260206004820152600f60248201526e564d3a207a65726f206f7261636c6560881b6044820152606490fd5b60405162461bcd60e51b8152602060048201526011602482015270564d3a207a65726f20726567697374727960781b6044820152606490fd5b60405162461bcd60e51b815260206004820152600d60248201526c15934e881e995c9bc819d554d1609a1b6044820152606490fd5b5f80fd5b634e487b7160e01b5f52604160045260245ffd5b51906001600160a01b03821682036103255756fe60806040526004361015610011575f80fd5b5f3560e01c8063048c661d146101d4578063050296e9146101cf57806316c38b3c146101ca5780631c5d3796146101c55780632e5f62a0146101c05780633363b7d9146101bb57806344e2a5a8146101b65780634627e7c0146101b1578063468c9bd1146101ac5780634afa3af7146101a7578063552033c4146101a25780635c975abb1461019d5780636052970c146101985780636a1460241461019357806375829def1461018e578063771b51d2146101895780637b103999146101845780637dc0d1d01461017f57806381845f631461017a5780638c87ee901461017557806393991a931461017057806398d721e01461016b578063a1e9348214610166578063abaf004214610161578063dea9b4641461015c578063e0537cee14610157578063f851a440146101525763fab9bd5e1461014d575f80fd5b611729565b611701565b611458565b6112bc565b61125a565b6110a6565b611023565b610ffb565b610fb7565b610f24565b610ee0565b610e9c565b61090d565b6108b3565b610891565b61084d565b610828565b610803565b6107d9565b61059c565b610539565b61050c565b6104cb565b6104a1565b6102a5565b61023e565b61020e565b6101e7565b5f9103126101e357565b5f80fd5b346101e3575f3660031901126101e3575f546040516001600160a01b039091168152602090f35b346101e35760203660031901126101e357602061022c60043561195e565b604051908152f35b801515036101e357565b346101e35760203660031901126101e35760043561025b81610234565b61027060018060a01b03600154163314611a64565b6002805460ff60a01b191691151560a01b60ff60a01b16919091179055005b60409060031901126101e3576004359060243590565b346101e3576102b33661028f565b6102bf60065415611aa0565b60016006556102d660ff60025460a01c1615611ad8565b806102e083611b91565b6103076102f5845f52600360205260405f2090565b335f9081526020919091526040902090565b9061031a845f52600460205260405f2090565b80548061049857506001676765c793fa10079d601b1b935b01805492610354610343868661192d565b676765c793fa10079d601b1b900490565b80911161048e575b50916103b1939161034393610372871515611b11565b6103848461037f896118df565b611940565b92808411610486575b9160029161039e856103a9956118cd565b9055019182546118cd565b81555461192d565b6103c3835f52600560205260405f2090565b557f00000000000000000000000000000000000000000000000000000000000000006001600160a01b0316803b156101e35760405163079cc67960e41b815233600482015260248101839052905f908290604490829084905af1801561048157610467575b5060405190815233907f8293a3003da468402b46b778420ac0fa8c2291bed4eeb36f56768a9d2220be769080602081015b0390a36104655f600655565b005b806104755f61047b93611803565b806101d9565b5f610428565b6118ae565b92508261038d565b94506103b161035c565b60019093610332565b346101e35760203660031901126101e3576004355f526005602052602060405f2054604051908152f35b346101e35760203660031901126101e3576004355f526004602052606060405f20805490600260018201549101549060405192835260208301526040820152f35b346101e35760203660031901126101e357610465600435611b91565b6001600160a01b038116036101e357565b346101e35760403660031901126101e35761057c60243560043561055c82610528565b5f52600360205260405f209060018060a01b03165f5260205260405f2090565b8054600190910154604080519283526020830191909152819081015b0390f35b346101e3576105aa3661028f565b6105b660065415611aa0565b60016006556105cd60ff60025460a01c1615611ad8565b6105d8811515611edd565b6105e182611b91565b604051636dd5b69d60e01b81526004810183905260c0816024816001600160a01b037f0000000000000000000000000000000000000000000000000000000000000000165afa801561048157826106f0916106f5935f916107aa575b5061065361064e60a0830151151590565b611f1b565b6106d760606106cc61034361037f8a6103a960026106b16102f56106a2610682865f52600460205260405f2090565b9c8d5480155f146107a25750676765c793fa10079d601b1b9788916118df565b945f52600360205260405f2090565b9960018b016106c1858254611b84565b905501918254611b84565b920151821115611f5c565b6106e9865f52600560205260405f2090565b5584612509565b611fa8565b7f00000000000000000000000000000000000000000000000000000000000000006001600160a01b0316803b156101e3576040516340c10f1960e01b815233600482015260248101839052905f908290604490829084905af180156104815761078e575b5060405190815233907f7ee657a21ac7f39b81c23a6f713ab60c53f4c04479e9a7847c08e2bc69862e80908060208101610459565b806104755f61079c93611803565b5f610759565b9788916118df565b6107cc915060c03d60c0116107d2575b6107c48183611803565b810190611839565b5f61063d565b503d6107ba565b346101e35760403660031901126101e357602061022c6024356004356107fe82610528565b612003565b346101e3575f3660031901126101e3576020604051676765c793fa10079d601b1b8152f35b346101e3575f3660031901126101e357602060ff60025460a01c166040519015158152f35b346101e3575f3660031901126101e3576040517f00000000000000000000000000000000000000000000000000000000000000006001600160a01b03168152602090f35b346101e3575f3660031901126101e3576020604051670de0b6b3a76400008152f35b346101e35760203660031901126101e3576004356108d081610528565b600154906108e8336001600160a01b03841614611a64565b6001600160a01b0316906108fd8215156121b7565b6001600160a01b03191617600155005b346101e35760403660031901126101e35760043560243561092d81610528565b61093960065415611aa0565b600160065561095060ff60025460a01c1615611ad8565b6001600160a01b0381169061099a9061096a8315156121f6565b61097384611b91565b610985845f52600360205260405f2090565b9060018060a01b03165f5260205260405f2090565b600181018054906109ac821515612233565b6109c56109c06109bc8588612509565b1590565b612277565b604051636dd5b69d60e01b81526004810186905260c0816024816001600160a01b037f0000000000000000000000000000000000000000000000000000000000000000165afa908115610481575f91610e7d575b50610a2c865f52600460205260405f2090565b91825480155f14610e775750676765c793fa10079d601b1b945b610a53610343878761192d565b81546040516331d98b3f60e01b8152600481018b90529197909690916020816024816001600160a01b037f0000000000000000000000000000000000000000000000000000000000000000165afa938415610481575f610aee96610ae46002610b0e9b610ada8e6103439b8e889a8992610e52575b50516001600160a01b03165b916126af565b50019586546118cd565b855555555461192d565b610b00875f52600560205260405f2090565b55516001600160a01b031690565b5f80548391908190610b30906001600160a01b03165b6001600160a01b031690565b906001600160a01b038216610cbd575b5050610b4c90856118cd565b80610c45575b5080610b9f575b505060408051928352602083019190915233917f4ecef300dc49115373f12d5ca31f017d1104f91d9fefeda602a1c42550af910991819081015b0390a46104655f600655565b60405163a9059cbb60e01b815233600482015260248101919091529190602090839060449082905f906001600160a01b03165af190811561048157610c10610b93927f4ecef300dc49115373f12d5ca31f017d1104f91d9fefeda602a1c42550af9109945f91610c16575b506122ba565b91610b59565b610c38915060203d602011610c3e575b610c308183611803565b810190611b54565b5f610c0a565b503d610c26565b7f00000000000000000000000000000000000000000000000000000000000000006001600160a01b0316803b156101e35760405163079cc67960e41b815233600482015260248101929092525f908290604490829084905af180156104815715610b5257806104755f610cb793611803565b5f610b52565b604051637d88209760e01b8152602081600481865afa908115610481575f91610e23575b5080610cee575b50610b40565b919350915080861015610e1e5750845b8086610e08575b610d0f83876118cd565b9383151580610dff575b610d26575b829350610ce8565b60405163095ea7b360e01b81526001600160a01b03909116600482015260248101849052602081806044810103815f6001600160a01b038b165af1801561048157610de2575b505f54610d81906001600160a01b0316610b24565b92833b156101e35760405163742f9e7160e01b81526004810192909252602482018a90526044820152915f908390606490829084905af191821561048157610b4c92610dce575b80610d1e565b806104755f610ddc93611803565b5f610dc8565b610dfa9060203d602011610c3e57610c308183611803565b610d6c565b50811515610d19565b9150610e188661037f848861192d565b91610d05565b610cfe565b610e45915060203d602011610e4b575b610e3d8183611803565b810190611ff4565b5f610ce1565b503d610e33565b610ad4919250610e709060203d602011610e4b57610e3d8183611803565b9190610ac8565b94610a46565b610e96915060c03d60c0116107d2576107c48183611803565b5f610a19565b346101e3575f3660031901126101e3576040517f00000000000000000000000000000000000000000000000000000000000000006001600160a01b03168152602090f35b346101e3575f3660031901126101e3576040517f00000000000000000000000000000000000000000000000000000000000000006001600160a01b03168152602090f35b346101e35760403660031901126101e357610598676765c793fa10079d601b1b610f9c600435610f7a602435610f5981610528565b825f52600360205260405f209060018060a01b03165f5260205260405f2090565b905f52600460205260405f205480155f14610fae5750600183915b015461192d565b04604051918291829190602083019252565b60019091610f95565b346101e3575f3660031901126101e3576040517f00000000000000000000000000000000000000000000000000000000000000006001600160a01b03168152602090f35b346101e3575f3660031901126101e3576002546040516001600160a01b039091168152602090f35b346101e35760203660031901126101e3577f51f43ead43c9a90d53ec229fbf48feb76b24efa7a147089ad9ed34ad384a94d3602060043561106381610528565b61107860018060a01b03600154163314611a64565b6001600160a01b031661108c8115156121b7565b5f80546001600160a01b03191682179055604051908152a1005b346101e3576110b43661028f565b6110c060065415611aa0565b60016006556110d760ff60025460a01c1615611ad8565b6110e2811515611edd565b6110eb82611b91565b6111006102f5835f52600360205260405f2090565b61111782825461111282821015612314565b6118cd565b81556001810154611242575b50604051636dd5b69d60e01b81526004810183905260c0816024816001600160a01b037f0000000000000000000000000000000000000000000000000000000000000000165afa801561048157610b24610b2491611190935f91611223575b50516001600160a01b031690565b60405163a9059cbb60e01b81523360048201526024810183905290602090829060449082905f905af18015610481576111d0915f91611204575b506123a2565b60405190815233907fe69cdf29a59dd324317b598bee3a9ed1fcffb99cc506db72633ed07b59dc6d04908060208101610459565b61121d915060203d602011610c3e57610c308183611803565b5f6111ca565b61123c915060c03d60c0116107d2576107c48183611803565b5f611182565b61124f6112549184612509565b612360565b5f611123565b346101e35760203660031901126101e35760043561127781610528565b61128c60018060a01b03600154163314611a64565b6001600160a01b03166112a08115156121b7565b6bffffffffffffffffffffffff60a01b60025416176002555f80f35b346101e3576112ca3661028f565b6112d660065415611aa0565b60016006556112ed60ff60025460a01c1615611ad8565b6112f8811515611edd565b604051636dd5b69d60e01b81526004810183905260c0816024816001600160a01b037f0000000000000000000000000000000000000000000000000000000000000000165afa801561048157610b24610b249161137d935f91611439575b5061136761064e60a0830151151590565b61137086611b91565b516001600160a01b031690565b6040516323b872dd60e01b81523360048201523060248201526044810183905290602090829060649082905f905af18015610481576113c3915f9161141a575b506123ee565b6113d933610985845f52600360205260405f2090565b6113e4828254611b84565b905560405190815233907f88df26d296ecbf594c8609f433503d1436d24afe03c0d9e5e29c8f6ed92ef9b4908060208101610459565b611433915060203d602011610c3e57610c308183611803565b5f6113bd565b611452915060c03d60c0116107d2576107c48183611803565b5f611356565b346101e35760203660031901126101e35760043561147860065415611aa0565b600160065561148f60ff60025460a01c1615611ad8565b61149881611b91565b6114ad6102f5825f52600360205260405f2090565b6114bf825f52600460205260405f2090565b8054806116fb5750676765c793fa10079d601b1b905b600183018054926114e9610343828661192d565b9384611613575b50505050508054908161152d575b82337f45741dfe35116d540a34618f113e41a5092e64d6b09a503ede64ff9058a0e6055f80a36104655f600655565b5f9055604051636dd5b69d60e01b81526004810183905260c0816024816001600160a01b037f0000000000000000000000000000000000000000000000000000000000000000165afa801561048157610b24610b249161159b935f916112235750516001600160a01b031690565b60405163a9059cbb60e01b8152336004820152602481018390529190602090839060449082905f905af19182156104815783926115de915f9161120457506123a2565b60405190815233907fe69cdf29a59dd324317b598bee3a9ed1fcffb99cc506db72633ed07b59dc6d0490602090a35f806114fe565b5f6103439361162a600261163397019384546118cd565b8355555461192d565b611645845f52600560205260405f2090565b557f00000000000000000000000000000000000000000000000000000000000000006001600160a01b031690813b156101e35760405163079cc67960e41b815233600482015260248101829052915f908390604490829084905af19182156104815784926116e7575b5060405190815233907f8293a3003da468402b46b778420ac0fa8c2291bed4eeb36f56768a9d2220be7690602090a35f808080806114f0565b806104755f6116f593611803565b5f6116ae565b906114d5565b346101e3575f3660031901126101e3576001546040516001600160a01b039091168152602090f35b346101e35760203660031901126101e35760043561174f60ff60025460a01c1615611ad8565b604051636dd5b69d60e01b81526004810182905260c0816024817f00000000000000000000000000000000000000000000000000000000000000006001600160a01b03165afa80156104815760a061064e916117b4935f916117e4575b500151151590565b6117bd81611b91565b337f1b3a3b641448ea38df4f27c3b71159ff387dfd96db4bfa0678a500dff874eb615f80a3005b6117fd915060c03d60c0116107d2576107c48183611803565b5f6117ac565b90601f8019910116810190811067ffffffffffffffff82111761182557604052565b634e487b7160e01b5f52604160045260245ffd5b908160c09103126101e3576040519060c082019082821067ffffffffffffffff8311176118255760a091604052805161187181610528565b83526020810151602084015260408101516040840152606081015160608401526080810151608084015201516118a681610234565b60a082015290565b6040513d5f823e3d90fd5b634e487b7160e01b5f52601160045260245ffd5b919082039182116118da57565b6118b9565b90676765c793fa10079d601b1b820291808304676765c793fa10079d601b1b14901517156118da57565b90670de0b6b3a7640000820291808304670de0b6b3a764000014901517156118da57565b818102929181159184041417156118da57565b811561194a570490565b634e487b7160e01b5f52601260045260245ffd5b611970815f52600460205260405f2090565b80549182158015611a58575b611a2a57604051636dd5b69d60e01b8152600481019190915260c0816024816001600160a01b037f0000000000000000000000000000000000000000000000000000000000000000165afa908115610481575f91611a39575b506119e46001830154426118cd565b8015611a31576119fe610343916080611a0494015161243a565b8461192d565b9082821115611a2a576002611a1f611a2794610343946118cd565b91015461192d565b90565b5050505f90565b505050505f90565b611a52915060c03d60c0116107d2576107c48183611803565b5f6119d5565b5060028201541561197c565b15611a6b57565b60405162461bcd60e51b815260206004820152600d60248201526c2b269d103737ba1030b236b4b760991b6044820152606490fd5b15611aa757565b60405162461bcd60e51b81526020600482015260096024820152681499595b9d1c985b9d60ba1b6044820152606490fd5b15611adf57565b60405162461bcd60e51b815260206004820152600a60248201526915934e881c185d5cd95960b21b6044820152606490fd5b15611b1857565b60405162461bcd60e51b8152602060048201526014602482015273564d3a206e6f7468696e6720746f20726570617960601b6044820152606490fd5b908160209103126101e35751611a2781610234565b908160609103126101e3578051916040602083015192015190565b919082018092116118da57565b611ba3815f52600460205260405f2090565b805415611ec55760018101611bb98154426118cd565b8015611ebf57604051636dd5b69d60e01b8152600481018590529060c0826024816001600160a01b037f0000000000000000000000000000000000000000000000000000000000000000165afa91821561048157611c23926080915f91611ea0575b50015161243a565b91611c336103438254948561192d565b92831115611e9857611c5e91600282611c506103439454876118cd565b92868255429055015461192d565b8015611e5e577f00000000000000000000000000000000000000000000000000000000000000006001600160a01b031691823b156101e3576040516340c10f1960e01b8152306004820152602481018390525f8160448183885af1801561048157611e4a575b5060405163095ea7b360e01b81526001600160a01b037f000000000000000000000000000000000000000000000000000000000000000016600482018190526024820184905293602090829060449082905f905af18015610481575f94606092611d6492611e2d575b506002546040516364d6def960e01b8152600481018790526001600160a01b03909116602482015295869283919082906044820190565b03925af1928315610481577f3b9f4ab0566d9d10726a6f7f34cdc9e4b7f03a20a878ed293de4e6ed1b41985893611dfe575b50611da9845f52600560205260405f2090565b611db4838254611b84565b905560405182815284907f156e588d1067ba3c8a6a7f4376ef70794f8afed114dc9d1421e054b65743e63090602090a260408051918252602082019290925290819081015b0390a2565b611e1f9060603d606011611e26575b611e178183611803565b810190611b69565b5050611d96565b503d611e0d565b611e459060203d602011610c3e57610c308183611803565b611d2d565b806104755f611e5893611803565b5f611cc4565b50604080519182525f60208301527f3b9f4ab0566d9d10726a6f7f34cdc9e4b7f03a20a878ed293de4e6ed1b419858919081908101611df9565b504290555050565b611eb9915060c03d60c0116107d2576107c48183611803565b5f611c1b565b50505050565b676765c793fa10079d601b1b81559050600142910155565b15611ee457565b60405162461bcd60e51b815260206004820152600f60248201526e15934e881e995c9bc8185b5bdd5b9d608a1b6044820152606490fd5b15611f2257565b60405162461bcd60e51b8152602060048201526012602482015271564d3a20696c6b206e6f742061637469766560701b6044820152606490fd5b15611f6357565b60405162461bcd60e51b815260206004820152601960248201527f564d3a2064656274206365696c696e67206578636565646564000000000000006044820152606490fd5b15611faf57565b60405162461bcd60e51b815260206004820152601c60248201527f564d3a20636f6c6c61746572616c20726174696f20746f6f206c6f77000000006044820152606490fd5b908160209103126101e3575190565b9061201a90610985835f52600360205260405f2090565b600181015480156121a9576103436120579161203e855f52600460205260405f2090565b54806121b15750676765c793fa10079d601b1b9061192d565b9081156121a957604051636dd5b69d60e01b8152600481018490529160c0836024816001600160a01b037f0000000000000000000000000000000000000000000000000000000000000000165afa928315610481575f93612183575b506040516331d98b3f60e01b8152600481019490945291929160208380602481015b03817f00000000000000000000000000000000000000000000000000000000000000006001600160a01b03165afa9182156104815761213461213d9360209261214b965f92612164575b505487519091906001600160a01b0316610ad4565b9401519061192d565b670de0b6b3a7640000900490565b801561215d5761037f611a2792611909565b50505f1990565b61217c919250843d8611610e4b57610e3d8183611803565b905f61211f565b6120d593506121a260209160c03d60c0116107d2576107c48183611803565b93506120b3565b5050505f1990565b9061192d565b156121be57565b60405162461bcd60e51b815260206004820152601060248201526f564d3a207a65726f206164647265737360801b6044820152606490fd5b156121fd57565b60405162461bcd60e51b815260206004820152600e60248201526d2b269d103d32b9379037bbb732b960911b6044820152606490fd5b1561223a57565b60405162461bcd60e51b815260206004820152601560248201527415934e881d985d5b1d081a185cc81b9bc81919589d605a1b6044820152606490fd5b1561227e57565b60405162461bcd60e51b8152602060048201526014602482015273564d3a207661756c74206973206865616c74687960601b6044820152606490fd5b156122c157565b60405162461bcd60e51b815260206004820152602560248201527f564d3a206c697175696461746f7220636f6c6c61746572616c2073656e642066604482015264185a5b195960da1b6064820152608490fd5b1561231b57565b60405162461bcd60e51b815260206004820152601b60248201527f564d3a20696e73756666696369656e7420636f6c6c61746572616c00000000006044820152606490fd5b1561236757565b60405162461bcd60e51b8152602060048201526013602482015272564d3a207661756c7420756e6865616c74687960681b6044820152606490fd5b156123a957565b60405162461bcd60e51b815260206004820152601a60248201527f564d3a20636f6c6c61746572616c2073656e64206661696c65640000000000006044820152606490fd5b156123f557565b60405162461bcd60e51b815260206004820152601e60248201527f564d3a20636f6c6c61746572616c207472616e73666572206661696c656400006044820152606490fd5b90919080156124ef5760018316156124dd5780925b60011c90815b61245d575050565b80800290808204036101e3576b019d971e4fe8401e7400000081019081106101e357676765c793fa10079d601b1b900490600181166124a1575b60011c9081612455565b92818102908282041415821515166101e3576b019d971e4fe8401e7400000081019081106101e357676765c793fa10079d601b1b900492612497565b676765c793fa10079d601b1b9261244f565b5090156124fa575f90565b676765c793fa10079d601b1b90565b90600181015480156126595761034361252e9161203e855f52600460205260405f2090565b90811561265957604051636dd5b69d60e01b8152600481018490529160c0836024816001600160a01b037f0000000000000000000000000000000000000000000000000000000000000000165afa928315610481575f93612633575b506040516331d98b3f60e01b8152600481019490945291929160208380602481015b03817f00000000000000000000000000000000000000000000000000000000000000006001600160a01b03165afa9182156104815761213461213d9360209261260a965f9261216457505487519091906001600160a01b0316610ad4565b90811561262c57670de0b6b3a76400009161037f61262792611909565b101590565b5050600190565b6125ac935061265260209160c03d60c0116107d2576107c48183611803565b935061258a565b505050600190565b908160209103126101e3575160ff811681036101e35790565b60ff6011199116019060ff82116118da57565b60ff166012039060ff82116118da57565b60ff16604d81116118da57600a0a90565b60405163313ce56760e01b8152611a279361213d939291601291602090829060049082906001600160a01b03165afa5f9181612741575b50612739575b5060ff811660128110156127155750906121b161270b6127109361268d565b61269e565b61192d565b60121015612733579061272d61270b6127109361267a565b90611940565b5061192d565b90505f6126ec565b61276491925060203d60201161276b575b61275c8183611803565b810190612661565b905f6126e6565b503d61275256fea26469706673582212206bdbcc6dbeaa30805e44d4697c22ec9e3e8cad0f0da2a0430ff2771ba635198964736f6c634300082100330000000000000000000000000e801d84fa97b50751dbf25036d067dcf18858bf0000000000000000000000009d4454b023096f34b160d6b654540c56a1f81688000000000000000000000000998abeb3e57409262ae5b751f60747921b33613e0000000000000000000000008f86403a4de0bb5791fa46b8e795c547942fe4cf000000000000000000000000f39fd6e51aad88f6f4ce6ab8827279cfffb92266000000000000000000000000f39fd6e51aad88f6f4ce6ab8827279cfffb92266",
        "nonce": "0x2e",
        "chainId": "0xa455"
      },
      "additionalContracts": [],
      "isFixedGasLimit": false
    },
    {
      "hash": "0x2134534cfc3f23f010ec871e83b4646c641329c5dc241a539b18a0e2ec9624fa",
      "transactionType": "CREATE",
      "contractName": "StabilityPool",
      "contractAddress": "0x36c02da8a0983159322a80ffe9f24b1acff8b570",
      "function": null,
      "arguments": [
        "0x0E801D84Fa97b50751Dbf25036d067dCf18858bF",
        "0xf39Fd6e51aad88F6F4ce6aB8827279cffFb92266"
      ],
      "transaction": {
        "from": "0xf39fd6e51aad88f6f4ce6ab8827279cfffb92266",
        "gas": "0x128cbb",
        "value": "0x0",
        "input": "0x60a03461012357601f6110c338819003918201601f19168301916001600160401b0383118484101761012757808492604094855283398101031261012357610052602061004b8361013b565b920161013b565b6001600160a01b039091169081156100ee576001600160a01b03169081156100b857608052600180546001600160a01b031916919091179055604051610f739081610150823960805181818161022301528181610496015281816106770152610a0f0152f35b60405162461bcd60e51b815260206004820152600e60248201526d29a81d103d32b9379030b236b4b760911b6044820152606490fd5b60405162461bcd60e51b815260206004820152600d60248201526c14d40e881e995c9bc819d554d1609a1b6044820152606490fd5b5f80fd5b634e487b7160e01b5f52604160045260245ffd5b51906001600160a01b03821682036101235756fe60806040526004361015610011575f80fd5b5f5f3560e01c80632e1a7d4d14610970578063310599be1461092c5780633b5b7e3d14610902578063484be514146108d35780634ec18db9146108b6578063742f9e711461056257806375829def1461050a5780637d882097146104ec5780638a4adf24146104c55780638c87ee9014610480578063997dc62e146104565780639ff552631461038e578063aaf5eb681461036b578063b543503e146102f1578063b6b55f25146101b8578063d1a294c414610185578063e3fc028d1461014f578063f851a440146101265763fc7e286d146100eb575f80fd5b34610123576020366003190112610123576020906040906001600160a01b03610112610add565b168152600383522054604051908152f35b80fd5b50346101235780600319360112610123576001546040516001600160a01b039091168152602090f35b50346101235760203660031901126101235761016d60085415610af3565b600160085561017e60043533610d6f565b8060085580f35b503461012357602036600319011261012357602090600435815260068252604060018060a01b0391205416604051908152f35b5034610123576020366003190112610123576004356101d960085415610af3565b60016008556101e9811515610b2b565b6101f233610d4f565b6040516323b872dd60e01b815233600482015230602482015260448101829052602081606481866001600160a01b037f0000000000000000000000000000000000000000000000000000000000000000165af180156102e65761025c9184916102b7575b50610bc4565b338252600360205260408220610273828254610cc7565b905561028181600254610cc7565b6002556040519081527f2da466a7b24304f47e87fa2e1e5a81b9831ce54fec19055ce277ca2f39ba42c460203392a28060085580f35b6102d9915060203d6020116102df575b6102d18183610b76565b810190610bac565b5f610256565b503d6102c7565b6040513d85823e3d90fd5b50346101235760203660031901126101235761030b610add565b61032060018060a01b03600154163314610cd4565b6001600160a01b0316610334811515610d10565b81546001600160a01b031916811782557f8e902340d35762a5a36507c20fe38e5d549a721d9f846d6de7f397b5c26ab8538280a280f35b50346101235780600319360112610123576020604051670de0b6b3a76400008152f35b5034610123576040366003190112610123576004356024356001600160a01b03811690819003610452576103cd60018060a01b03600154163314610cd4565b801561041c5781835260066020908152604080852080546001600160a01b03191684179055519182527f7b02323155ee1835f3ad82fb0682024a2f6ea1380e110430fc6eb75fbffc866591a280f35b60405162461bcd60e51b815260206004820152600e60248201526d29a81d103d32b937903a37b5b2b760911b6044820152606490fd5b8280fd5b50346101235760203660031901126101235760406020916004358152600783522054604051908152f35b50346101235780600319360112610123576040517f00000000000000000000000000000000000000000000000000000000000000006001600160a01b03168152602090f35b5034610123578060031936011261012357546040516001600160a01b039091168152602090f35b50346101235780600319360112610123576020600254604051908152f35b503461012357602036600319011261012357610524610add565b6001549061053c336001600160a01b03841614610cd4565b6001600160a01b031690610551821515610d10565b6001600160a01b0319161760015580f35b503461075c57606036600319011261075c576004356024359060443561058a60085415610af3565b60016008555f546001600160a01b0316330361087957811561084457816002541061080a575f838152600660205260409020546105d1906001600160a01b03161515610c82565b5f8381526006602090815260408083205490516323b872dd60e01b81523360048201523060248201526044810185905292839160649183916001600160a01b03165af1908115610751575f916107eb575b50156107a6576002541561078857670de0b6b3a76400008102818104670de0b6b3a76400001482151715610774576002549081156107605704835f52600560205261067260405f20918254610cc7565b90555b7f00000000000000000000000000000000000000000000000000000000000000006001600160a01b0316803b1561075c575f8091602460405180948193630852cd8d60e31b83528860048401525af1801561075157610716575b50816040916107017f9f0e2e27f318babf40f39455bf2da36279d485bbb154091390dab5c7e946359e94600254610b69565b60025582519182526020820152a28060085580f35b6040919450916107475f7f9f0e2e27f318babf40f39455bf2da36279d485bbb154091390dab5c7e946359e94610b76565b5f949150916106cf565b6040513d5f823e3d90fd5b5f80fd5b634e487b7160e01b5f52601260045260245ffd5b634e487b7160e01b5f52601160045260245ffd5b825f52600760205260405f2061079f828254610cc7565b9055610675565b60405162461bcd60e51b815260206004820152601e60248201527f53503a20636f6c6c61746572616c207472616e73666572206661696c656400006044820152606490fd5b610804915060203d6020116102df576102d18183610b76565b5f610622565b60405162461bcd60e51b815260206004820152601260248201527114d40e881c1bdbdb081d1bdbc81cdb585b1b60721b6044820152606490fd5b60405162461bcd60e51b815260206004820152600d60248201526c14d40e881e995c9bc81919589d609a1b6044820152606490fd5b60405162461bcd60e51b815260206004820152601560248201527429a81d103737ba103b30bab63a1036b0b730b3b2b960591b6044820152606490fd5b3461075c575f36600319011261075c576020600254604051908152f35b3461075c57604036600319011261075c5760206108fa6108f1610add565b60243590610c19565b604051908152f35b3461075c57602036600319011261075c576004355f526005602052602060405f2054604051908152f35b3461075c57604036600319011261075c576001600160a01b0361094d610add565b165f52600460205260405f206024355f52602052602060405f2054604051908152f35b3461075c57602036600319011261075c5760043561099060085415610af3565b60016008556109a0811515610b2b565b335f5260036020528060405f205410610a98576109bc33610d4f565b335f52600360205260405f206109d3828254610b69565b90556109e181600254610b69565b60025560405163a9059cbb60e01b8152336004820152602481018290526020816044815f6001600160a01b037f0000000000000000000000000000000000000000000000000000000000000000165af1801561075157610a47915f91610a795750610bc4565b6040519081527f7084f5476618d8e60b11ef0d7d3f06914655adb8793e28ff7f018d4c76d505d560203392a25f600855005b610a92915060203d6020116102df576102d18183610b76565b83610256565b60405162461bcd60e51b815260206004820152601860248201527f53503a20696e73756666696369656e74206465706f73697400000000000000006044820152606490fd5b600435906001600160a01b038216820361075c57565b15610afa57565b60405162461bcd60e51b81526020600482015260096024820152681499595b9d1c985b9d60ba1b6044820152606490fd5b15610b3257565b60405162461bcd60e51b815260206004820152600f60248201526e14d40e881e995c9bc8185b5bdd5b9d608a1b6044820152606490fd5b9190820391821161077457565b90601f8019910116810190811067ffffffffffffffff821117610b9857604052565b634e487b7160e01b5f52604160045260245ffd5b9081602091031261075c5751801515810361075c5790565b15610bcb57565b60405162461bcd60e51b815260206004820152601360248201527214d40e881d1c985b9cd9995c8819985a5b1959606a1b6044820152606490fd5b8181029291811591840414171561077457565b6001600160a01b03165f818152600360205260409020548015610c7b57610c71610c779284670de0b6b3a7640000955f52600560205260405f2054915f52600460205260405f20905f5260205260405f205490610b69565b90610c06565b0490565b5050505f90565b15610c8957565b60405162461bcd60e51b815260206004820152601660248201527514d40e881a5b1ac81b9bdd081c9959da5cdd195c995960521b6044820152606490fd5b9190820180921161077457565b15610cdb57565b60405162461bcd60e51b815260206004820152600d60248201526c29a81d103737ba1030b236b4b760991b6044820152606490fd5b15610d1757565b60405162461bcd60e51b815260206004820152601060248201526f53503a207a65726f206164647265737360801b6044820152606490fd5b6001600160a01b03165f9081526003602052604090205415610d6d57565b565b5f82815260066020526040902054610d91906001600160a01b03161515610c82565b6001600160a01b0381165f8181526003602052604090205490918115610f1457835f52600560205260405f205491835f52600460205260405f20855f52602052610ddf60405f205484610b69565b908115610f0c57670de0b6b3a764000091610df991610c06565b0491835f52600460205260405f20855f5260205260405f205581610e1e575b50505050565b5f84815260066020908152604080832054905163a9059cbb60e01b81526001600160a01b039485166004820152602481018690529391928492604492849291165af1908115610751575f91610eed575b5015610ea85760207f85e429e8a0bf56d9ab471a80ddf210f520769a1bda3ee3946bab002feb6d0e8d91604051908152a35f808080610e18565b60405162461bcd60e51b815260206004820152601a60248201527f53503a20636f6c6c61746572616c2073656e64206661696c65640000000000006044820152606490fd5b610f06915060203d6020116102df576102d18183610b76565b5f610e6e565b505050505050565b505090805f52600560205260405f2054915f52600460205260405f20905f5260205260405f205556fea2646970667358221220afe163145404f82a33e792e13bfec29688d36b0fb2a95153e4e0200ba215c8cd64736f6c634300082100330000000000000000000000000e801d84fa97b50751dbf25036d067dcf18858bf000000000000000000000000f39fd6e51aad88f6f4ce6ab8827279cfffb92266",
        "nonce": "0x2f",
        "chainId": "0xa455"
      },
      "additionalContracts": [],
      "isFixedGasLimit": false
    },
    {
      "hash": "0x82f1f4683a82d6c1126303d06548bd0c39557a227822eca13cb47a7f3c03a596",
      "transactionType": "CALL",
      "contractName": "StabilityPool",
      "contractAddress": "0x36c02da8a0983159322a80ffe9f24b1acff8b570",
      "function": "setVaultManager(address)",
      "arguments": [
        "0x5eb3Bc0a489C5A8288765d2336659EbCA68FCd00"
      ],
      "transaction": {
        "from": "0xf39fd6e51aad88f6f4ce6ab8827279cfffb92266",
        "to": "0x36c02da8a0983159322a80ffe9f24b1acff8b570",
        "gas": "0xffca",
        "value": "0x0",
        "input": "0xb543503e0000000000000000000000005eb3bc0a489c5a8288765d2336659ebca68fcd00",
        "nonce": "0x30",
        "chainId": "0xa455"
      },
      "additionalContracts": [],
      "isFixedGasLimit": false
    },
    {
      "hash": "0x3788852102f06e115cdf35fd848cf04d18de350ce33ceb4d7c22332f38bdc73a",
      "transactionType": "CALL",
      "contractName": "StabilityPool",
      "contractAddress": "0x36c02da8a0983159322a80ffe9f24b1acff8b570",
      "function": "registerCollateralToken(bytes32,address)",
      "arguments": [
        "0x4554480000000000000000000000000000000000000000000000000000000000",
        "0x851356ae760d987E095750cCeb3bC6014560891C"
      ],
      "transaction": {
        "from": "0xf39fd6e51aad88f6f4ce6ab8827279cfffb92266",
        "to": "0x36c02da8a0983159322a80ffe9f24b1acff8b570",
        "gas": "0x10206",
        "value": "0x0",
        "input": "0x9ff552634554480000000000000000000000000000000000000000000000000000000000000000000000000000000000851356ae760d987e095750cceb3bc6014560891c",
        "nonce": "0x31",
        "chainId": "0xa455"
      },
      "additionalContracts": [],
      "isFixedGasLimit": false
    },
    {
      "hash": "0x351820cee1461cf17d4d007942a1cc8a78035695dc71eabc0674559c71af3560",
      "transactionType": "CALL",
      "contractName": "StabilityPool",
      "contractAddress": "0x36c02da8a0983159322a80ffe9f24b1acff8b570",
      "function": "registerCollateralToken(bytes32,address)",
      "arguments": [
        "0x4744000000000000000000000000000000000000000000000000000000000000",
        "0x95401dc811bb5740090279Ba06cfA8fcF6113778"
      ],
      "transaction": {
        "from": "0xf39fd6e51aad88f6f4ce6ab8827279cfffb92266",
        "to": "0x36c02da8a0983159322a80ffe9f24b1acff8b570",
        "gas": "0x11123",
        "value": "0x0",
        "input": "0x9ff55263474400000000000000000000000000000000000000000000000000000000000000000000000000000000000095401dc811bb5740090279ba06cfa8fcf6113778",
        "nonce": "0x32",
        "chainId": "0xa455"
      },
      "additionalContracts": [],
      "isFixedGasLimit": false
    },
    {
      "hash": "0x99d5398a01ef1ee0d9789f004f9fc01986670e2f78d332b091d801470c2aeaa7",
      "transactionType": "CALL",
      "contractName": "StabilityPool",
      "contractAddress": "0x36c02da8a0983159322a80ffe9f24b1acff8b570",
      "function": "registerCollateralToken(bytes32,address)",
      "arguments": [
        "0x5553444300000000000000000000000000000000000000000000000000000000",
        "0xf5059a5D33d5853360D16C683c16e67980206f36"
      ],
      "transaction": {
        "from": "0xf39fd6e51aad88f6f4ce6ab8827279cfffb92266",
        "to": "0x36c02da8a0983159322a80ffe9f24b1acff8b570",
        "gas": "0x11146",
        "value": "0x0",
        "input": "0x9ff552635553444300000000000000000000000000000000000000000000000000000000000000000000000000000000f5059a5d33d5853360d16c683c16e67980206f36",
        "nonce": "0x33",
        "chainId": "0xa455"
      },
      "additionalContracts": [],
      "isFixedGasLimit": false
    },
    {
      "hash": "0x0eab9a9251d2c7a66ec627a914c78054d4cca5eb0c2460fccfe48f766eb62ee1",
      "transactionType": "CREATE",
      "contractName": "PegStabilityModule",
      "contractAddress": "0xb7278a61aa25c888815afc32ad3cc52ff24fe575",
      "function": null,
      "arguments": [
        "0x0E801D84Fa97b50751Dbf25036d067dCf18858bF",
        "0xf5059a5D33d5853360D16C683c16e67980206f36",
        "0x8f86403A4DE0BB5791fa46B8e795C547942fE4Cf",
        "0xf39Fd6e51aad88F6F4ce6aB8827279cffFb92266"
      ],
      "transaction": {
        "from": "0xf39fd6e51aad88f6f4ce6ab8827279cfffb92266",
        "gas": "0x14ced7",
        "value": "0x0",
        "input": "0x60e03461020757601f61134438819003918201601f19168301916001600160401b0383118484101761020b57808492608094604052833981010312610207576100478161021f565b6100536020830161021f565b9161006c60606100656040840161021f565b920161021f565b6001600160a01b039092169283156101d1576001600160a01b031690811561019b576001600160a01b0316918215610161576001600160a01b031692831561012a5760805260a05260c0525f80546001600160a01b031916919091179055600a600155604051611110908161023482396080518181816101db015281816107c10152610a96015260a051818181610293015281816105e4015281816107390152610d14015260c051818181610364015281816108b70152610c0e0152f35b60405162461bcd60e51b815260206004820152600f60248201526e2829a69d103d32b9379030b236b4b760891b6044820152606490fd5b60405162461bcd60e51b81526020600482015260126024820152712829a69d103d32b9379039b83634ba3a32b960711b6044820152606490fd5b60405162461bcd60e51b815260206004820152600e60248201526d50534d3a207a65726f205553444360901b6044820152606490fd5b60405162461bcd60e51b815260206004820152600e60248201526d1414d34e881e995c9bc819d554d160921b6044820152606490fd5b5f80fd5b634e487b7160e01b5f52604160045260245ffd5b51906001600160a01b03821682036102075756fe6080806040526004361015610012575f80fd5b5f905f3560e01c90816302df9df114610e565750806316c38b3c14610de85780631a1c6e5314610dcb578063215f0f9814610db0578063249d39e914610d945780632660369314610d435780633e413bee14610cff5780635c975abb14610cdd578063604b6a9c14610c3d5780636052970c14610bf957806360c6d8ae14610bdc57806375829def14610b615780637d706da014610b0957806384891c5014610ac55780638c87ee9014610a81578063bf79ef7214610a64578063c1419def14610a49578063cc999017146106bd578063e478795d1461054a578063eced55261461052a578063ee84f2fe146101395763f851a44014610110575f80fd5b34610136578060031936011261013657546040516001600160a01b039091168152602090f35b80fd5b50346101365760203660031901126101365760043561015a60065415610f23565b600160065561016e60ff6003541615610f5b565b610179811515610f95565b61271061018860015483610ec3565b046101938183610ed6565b9064e8d4a510008204916101a883151561107b565b82600454106104e5576040516323b872dd60e01b8152336004820152306024820152604481018590526001600160a01b037f00000000000000000000000000000000000000000000000000000000000000001691906020816064818a875af19081156104da5787916104bb575b5015610476578590823b156104725760405190630852cd8d60e31b82526004820152818160248183875af180156104675761044e575b50508161034d575b5061026082600454610ed6565b600490815560405163a9059cbb60e01b815233918101919091526024810183905291602083604481886001600160a01b037f0000000000000000000000000000000000000000000000000000000000000000165af1928315610342577f19d6baaf4008076fefde90765b8965de468a3f462d7d146e5a9d1468008c890d936102ef918791610313575b5061102f565b604080519485526020850191909152830152339180606081015b0390a28060065580f35b610335915060203d60201161033b575b61032d8183610fe1565b810190611017565b5f6102e9565b503d610323565b6040513d87823e3d90fd5b60405163095ea7b360e01b81526001600160a01b037f000000000000000000000000000000000000000000000000000000000000000016600482018190526024820184905291602090829060449082908a905af1801561044357610426575b506040516364d6def960e01b815260048101839052306024820152906060908290604490829089905af18015610342576103f7575b506103ee81600554610fd4565b6005555f610253565b6104189060603d60601161041f575b6104108183610fe1565b8101906110bf565b50506103e1565b503d610406565b61043e9060203d60201161033b5761032d8183610fe1565b6103ac565b6040513d88823e3d90fd5b8161045891610fe1565b61046357845f61024b565b8480fd5b6040513d84823e3d90fd5b5080fd5b60405162461bcd60e51b815260206004820152601960248201527f50534d3a2067555344207472616e73666572206661696c6564000000000000006044820152606490fd5b6104d4915060203d60201161033b5761032d8183610fe1565b5f610215565b6040513d89823e3d90fd5b60405162461bcd60e51b815260206004820152601a60248201527f50534d3a20696e73756666696369656e742072657365727665730000000000006044820152606490fd5b5034610136578060031936011261013657602060405164e8d4a510008152f35b503461013657604036600319011261013657610564610e70565b60243561057b60018060a01b038454163314610e86565b61058f6001600160a01b0383161515610ee3565b60045490818111610680576105df926105aa82602094610ed6565b600490815560405163a9059cbb60e01b81526001600160a01b0390921690820152602481019190915291829081906044820190565b0381857f00000000000000000000000000000000000000000000000000000000000000006001600160a01b03165af1908115610467578291610661575b50156106255780f35b60405162461bcd60e51b81526020600482015260146024820152731414d34e881d1c985b9cd9995c8819985a5b195960621b6044820152606490fd5b61067a915060203d60201161033b5761032d8183610fe1565b5f61061c565b60405162461bcd60e51b815260206004820152601560248201527450534d3a206578636565647320726573657276657360581b6044820152606490fd5b50346109dd5760203660031901126109dd576004356106de60065415610f23565b60016006556106f260ff6003541615610f5b565b80156106fe8115610f95565b600254806109f5575b506040516323b872dd60e01b8152336004820152306024820152604481018390526020816064815f6001600160a01b037f0000000000000000000000000000000000000000000000000000000000000000165af180156109d257610771915f91610313575061102f565b61077d82600454610fd4565b60045564e8d4a5100082029082820464e8d4a510001417156109e1576107b36127106107ab60015484610ec3565b048092610ed6565b906107bf82151561107b565b7f00000000000000000000000000000000000000000000000000000000000000006001600160a01b031691823b156109dd576040516340c10f1960e01b8152336004820152602481018290525f8160448183885af180156109d2576109bd575b5081610867575b6040805194855260208501919091528301525033907fc91682597e50d783bf81329b763263cef72b0cda71f5e617e0bd4b4150f84403908060608101610309565b823b15610463576040516340c10f1960e01b8152306004820152602481018390528590818160448183895af18015610467576109a8575b505060405163095ea7b360e01b81526001600160a01b037f000000000000000000000000000000000000000000000000000000000000000016600482018190526024820184905293602090829060449082908a905af180156104435761098b575b506040516364d6def960e01b815260048101839052306024820152926060908490604490829089905af1928315610342577fc91682597e50d783bf81329b763263cef72b0cda71f5e617e0bd4b4150f844039361096c575b5061096482600554610fd4565b600555610826565b6109849060603d60601161041f576104108183610fe1565b5050610957565b6109a39060203d60201161033b5761032d8183610fe1565b6108ff565b816109b291610fe1565b61046357845f61089e565b6109ca9195505f90610fe1565b5f935f61081f565b6040513d5f823e3d90fd5b5f80fd5b634e487b7160e01b5f52601160045260245ffd5b610a0183600454610fd4565b11610a0c575f610707565b60405162461bcd60e51b81526020600482015260156024820152741414d34e881cddd85c0818d85c081c995858da1959605a1b6044820152606490fd5b346109dd575f3660031901126109dd57602060405160068152f35b346109dd575f3660031901126109dd576020600454604051908152f35b346109dd575f3660031901126109dd576040517f00000000000000000000000000000000000000000000000000000000000000006001600160a01b03168152602090f35b346109dd5760203660031901126109dd57604060043564e8d4a51000610afb612710610af360015485610ec3565b048093610ed6565b049082519182526020820152f35b346109dd5760203660031901126109dd577f334538d502feb3f0c7fab3f05496f1f17cfd920a1f428b3ff468292cfb0a41046020600435610b5460018060a01b035f54163314610e86565b80600255604051908152a1005b346109dd5760203660031901126109dd57610b7a610e70565b5f546001600160a01b03811691610b92338414610e86565b6001600160a01b0316918290610ba9821515610ee3565b7ff8ccb027dfcd135e000e9d45e6cc2d662578a8825d4c45b5e32e0adf67e79ec65f80a36001600160a01b031916175f55005b346109dd575f3660031901126109dd576020600554604051908152f35b346109dd575f3660031901126109dd576040517f00000000000000000000000000000000000000000000000000000000000000006001600160a01b03168152602090f35b346109dd5760203660031901126109dd57600435610c6560018060a01b035f54163314610e86565b60c88111610ca4577fb04438781e840362c78ce8cc4b97de7afc9aaccde53ad4c035c61d532474c66060406001548151908152836020820152a1600155005b60405162461bcd60e51b81526020600482015260116024820152700a0a69a7440cccaca40e8dede40d0d2ced607b1b6044820152606490fd5b346109dd575f3660031901126109dd57602060ff600354166040519015158152f35b346109dd575f3660031901126109dd576040517f00000000000000000000000000000000000000000000000000000000000000006001600160a01b03168152602090f35b346109dd5760203660031901126109dd5760043564e8d4a5100081029080820464e8d4a5100014901517156109e157604090610d876127106107ab60015484610ec3565b9082519182526020820152f35b346109dd575f3660031901126109dd5760206040516127108152f35b346109dd575f3660031901126109dd57602060405160128152f35b346109dd575f3660031901126109dd576020600154604051908152f35b346109dd5760203660031901126109dd576004358015158091036109dd5760207f0e2fb031ee032dc02d8011dc50b816eb450cf856abd8261680dac74f72165bd291610e3e60018060a01b035f54163314610e86565b60ff196003541660ff821617600355604051908152a1005b346109dd575f3660031901126109dd576020906002548152f35b600435906001600160a01b03821682036109dd57565b15610e8d57565b60405162461bcd60e51b815260206004820152600e60248201526d2829a69d103737ba1030b236b4b760911b6044820152606490fd5b818102929181159184041417156109e157565b919082039182116109e157565b15610eea57565b60405162461bcd60e51b815260206004820152601160248201527050534d3a207a65726f206164647265737360781b6044820152606490fd5b15610f2a57565b60405162461bcd60e51b81526020600482015260096024820152681499595b9d1c985b9d60ba1b6044820152606490fd5b15610f6257565b60405162461bcd60e51b815260206004820152600b60248201526a1414d34e881c185d5cd95960aa1b6044820152606490fd5b15610f9c57565b60405162461bcd60e51b815260206004820152601060248201526f1414d34e881e995c9bc8185b5bdd5b9d60821b6044820152606490fd5b919082018092116109e157565b90601f8019910116810190811067ffffffffffffffff82111761100357604052565b634e487b7160e01b5f52604160045260245ffd5b908160209103126109dd575180151581036109dd5790565b1561103657565b60405162461bcd60e51b815260206004820152601960248201527f50534d3a2055534443207472616e73666572206661696c6564000000000000006044820152606490fd5b1561108257565b60405162461bcd60e51b81526020600482015260156024820152741414d34e881bdd5d1c1d5d081d1bdbc81cdb585b1b605a1b6044820152606490fd5b908160609103126109dd57805191604060208301519201519056fea26469706673582212202d3a6b1183d1ba8f18c43caa97588c359c48ac69f42503ba07cb24683b65589f64736f6c634300082100330000000000000000000000000e801d84fa97b50751dbf25036d067dcf18858bf000000000000000000000000f5059a5d33d5853360d16c683c16e67980206f360000000000000000000000008f86403a4de0bb5791fa46b8e795c547942fe4cf000000000000000000000000f39fd6e51aad88f6f4ce6ab8827279cfffb92266",
        "nonce": "0x34",
        "chainId": "0xa455"
      },
      "additionalContracts": [],
      "isFixedGasLimit": false
    },
    {
      "hash": "0x09737d2ff21f3fb9cef3d75529a0505bdeee190931b180f0f0ce95caf2c8a9cf",
      "transactionType": "CALL",
      "contractName": "gUSD",
      "contractAddress": "0x0e801d84fa97b50751dbf25036d067dcf18858bf",
      "function": "setMinter(address,bool)",
      "arguments": [
        "0x5eb3Bc0a489C5A8288765d2336659EbCA68FCd00",
        "true"
      ],
      "transaction": {
        "from": "0xf39fd6e51aad88f6f4ce6ab8827279cfffb92266",
        "to": "0x0e801d84fa97b50751dbf25036d067dcf18858bf",
        "gas": "0x102f5",
        "value": "0x0",
        "input": "0xcf456ae70000000000000000000000005eb3bc0a489c5a8288765d2336659ebca68fcd000000000000000000000000000000000000000000000000000000000000000001",
        "nonce": "0x35",
        "chainId": "0xa455"
      },
      "additionalContracts": [],
      "isFixedGasLimit": false
    },
    {
      "hash": "0xa4ec633c5bccd2e68e207daad33297be18f1f9cb6b29835c170a4bc246f7d311",
      "transactionType": "CALL",
      "contractName": "gUSD",
      "contractAddress": "0x0e801d84fa97b50751dbf25036d067dcf18858bf",
      "function": "setMinter(address,bool)",
      "arguments": [
        "0xb7278A61aa25c888815aFC32Ad3cC52fF24fE575",
        "true"
      ],
      "transaction": {
        "from": "0xf39fd6e51aad88f6f4ce6ab8827279cfffb92266",
        "to": "0x0e801d84fa97b50751dbf25036d067dcf18858bf",
        "gas": "0x10306",
        "value": "0x0",
        "input": "0xcf456ae7000000000000000000000000b7278a61aa25c888815afc32ad3cc52ff24fe5750000000000000000000000000000000000000000000000000000000000000001",
        "nonce": "0x36",
        "chainId": "0xa455"
      },
      "additionalContracts": [],
      "isFixedGasLimit": false
    },
    {
      "hash": "0xa1445abf541b86df841b9d6712ba59bed0e1b17c5f8f89bef87c325257d8c81a",
      "transactionType": "CALL",
      "contractName": "gUSD",
      "contractAddress": "0x0e801d84fa97b50751dbf25036d067dcf18858bf",
      "function": "setBurner(address,bool)",
      "arguments": [
        "0x5eb3Bc0a489C5A8288765d2336659EbCA68FCd00",
        "true"
      ],
      "transaction": {
        "from": "0xf39fd6e51aad88f6f4ce6ab8827279cfffb92266",
        "to": "0x0e801d84fa97b50751dbf25036d067dcf18858bf",
        "gas": "0x1016a",
        "value": "0x0",
        "input": "0x0d895ee10000000000000000000000005eb3bc0a489c5a8288765d2336659ebca68fcd000000000000000000000000000000000000000000000000000000000000000001",
        "nonce": "0x37",
        "chainId": "0xa455"
      },
      "additionalContracts": [],
      "isFixedGasLimit": false
    },
    {
      "hash": "0x887605ca4d04b3b7574ab672046d2dac1d3966453c64e0b8acd206b94279a3f7",
      "transactionType": "CALL",
      "contractName": "gUSD",
      "contractAddress": "0x0e801d84fa97b50751dbf25036d067dcf18858bf",
      "function": "setBurner(address,bool)",
      "arguments": [
        "0xb7278A61aa25c888815aFC32Ad3cC52fF24fE575",
        "true"
      ],
      "transaction": {
        "from": "0xf39fd6e51aad88f6f4ce6ab8827279cfffb92266",
        "to": "0x0e801d84fa97b50751dbf25036d067dcf18858bf",
        "gas": "0x110a1",
        "value": "0x0",
        "input": "0x0d895ee1000000000000000000000000b7278a61aa25c888815afc32ad3cc52ff24fe5750000000000000000000000000000000000000000000000000000000000000001",
        "nonce": "0x38",
        "chainId": "0xa455"
      },
      "additionalContracts": [],
      "isFixedGasLimit": false
    },
    {
      "hash": "0x7f4685eb08a0599b66e68e2607f43b52bdf5d346dcf0a1611479a64675b6da01",
      "transactionType": "CALL",
      "contractName": "gUSD",
      "contractAddress": "0x0e801d84fa97b50751dbf25036d067dcf18858bf",
      "function": "setBurner(address,bool)",
      "arguments": [
        "0x36C02dA8a0983159322a80FFE9F24b1acfF8B570",
        "true"
      ],
      "transaction": {
        "from": "0xf39fd6e51aad88f6f4ce6ab8827279cfffb92266",
        "to": "0x0e801d84fa97b50751dbf25036d067dcf18858bf",
        "gas": "0x110a1",
        "value": "0x0",
        "input": "0x0d895ee100000000000000000000000036c02da8a0983159322a80ffe9f24b1acff8b5700000000000000000000000000000000000000000000000000000000000000001",
        "nonce": "0x39",
        "chainId": "0xa455"
      },
      "additionalContracts": [],
      "isFixedGasLimit": false
    },
    {
      "hash": "0x3b9b66c9a75faa88b02d8a0e4a546d68c09850f46830f46e8be4410d6878f558",
      "transactionType": "CALL",
      "contractName": "VaultManager",
      "contractAddress": "0x5eb3bc0a489c5a8288765d2336659ebca68fcd00",
      "function": "setStabilityPool(address)",
      "arguments": [
        "0x36C02dA8a0983159322a80FFE9F24b1acfF8B570"
      ],
      "transaction": {
        "from": "0xf39fd6e51aad88f6f4ce6ab8827279cfffb92266",
        "to": "0x5eb3bc0a489c5a8288765d2336659ebca68fcd00",
        "gas": "0x10f5a",
        "value": "0x0",
        "input": "0x98d721e000000000000000000000000036c02da8a0983159322a80ffe9f24b1acff8b570",
        "nonce": "0x3a",
        "chainId": "0xa455"
      },
      "additionalContracts": [],
      "isFixedGasLimit": false
    },
    {
      "hash": "0x10a0b2631d47a4381663e7f6d640dcdb3c820f9e71b9eaf1fd1b239154a9cf86",
      "transactionType": "CALL",
      "contractName": "MockWETH18",
      "contractAddress": "0x851356ae760d987e095750cceb3bc6014560891c",
      "function": "mint(address,uint256)",
      "arguments": [
        "0xf39Fd6e51aad88F6F4ce6aB8827279cffFb92266",
        "100000000000000000000"
      ],
      "transaction": {
        "from": "0xf39fd6e51aad88f6f4ce6ab8827279cfffb92266",
        "to": "0x851356ae760d987e095750cceb3bc6014560891c",
        "gas": "0x18594",
        "value": "0x0",
        "input": "0x40c10f19000000000000000000000000f39fd6e51aad88f6f4ce6ab8827279cfffb922660000000000000000000000000000000000000000000000056bc75e2d63100000",
        "nonce": "0x3b",
        "chainId": "0xa455"
      },
      "additionalContracts": [],
      "isFixedGasLimit": false
    },
    {
      "hash": "0x80816450aee13eb60ec2c2e3b2a92c730b602f011df03cce4edf6fb739ed2c79",
      "transactionType": "CALL",
      "contractName": "MockUSDC6",
      "contractAddress": "0xf5059a5d33d5853360d16c683c16e67980206f36",
      "function": "mint(address,uint256)",
      "arguments": [
        "0xf39Fd6e51aad88F6F4ce6aB8827279cffFb92266",
        "1000000000000"
      ],
      "transaction": {
        "from": "0xf39fd6e51aad88f6f4ce6ab8827279cfffb92266",
        "to": "0xf5059a5d33d5853360d16c683c16e67980206f36",
        "gas": "0x16fbc",
        "value": "0x0",
        "input": "0x40c10f19000000000000000000000000f39fd6e51aad88f6f4ce6ab8827279cfffb92266000000000000000000000000000000000000000000000000000000e8d4a51000",
        "nonce": "0x3c",
        "chainId": "0xa455"
      },
      "additionalContracts": [],
      "isFixedGasLimit": false
    },
    {
      "hash": "0x37f66860461062c9fdf89c8f2c6702c19bd7db9a16616f0ae0ae5479e4bac0e8",
      "transactionType": "CALL",
      "contractName": "MockGD18",
      "contractAddress": "0x95401dc811bb5740090279ba06cfa8fcf6113778",
      "function": "mint(address,uint256)",
      "arguments": [
        "0xf39Fd6e51aad88F6F4ce6aB8827279cffFb92266",
        "100000000000000000000000000"
      ],
      "transaction": {
        "from": "0xf39fd6e51aad88f6f4ce6ab8827279cfffb92266",
        "to": "0x95401dc811bb5740090279ba06cfa8fcf6113778",
        "gas": "0x16fff",
        "value": "0x0",
        "input": "0x40c10f19000000000000000000000000f39fd6e51aad88f6f4ce6ab8827279cfffb9226600000000000000000000000000000000000000000052b7d2dcc80cd2e4000000",
        "nonce": "0x3d",
        "chainId": "0xa455"
      },
      "additionalContracts": [],
      "isFixedGasLimit": false
    },
    {
      "hash": "0x9664c39bb8f53f5bb609438b71307f0cca9a960bafd3844f9382e6d2f7ff8272",
      "transactionType": "CALL",
      "contractName": "MockWETH18",
      "contractAddress": "0x851356ae760d987e095750cceb3bc6014560891c",
      "function": "approve(address,uint256)",
      "arguments": [
        "0x5eb3Bc0a489C5A8288765d2336659EbCA68FCd00",
        "10000000000000000000"
      ],
      "transaction": {
        "from": "0xf39fd6e51aad88f6f4ce6ab8827279cfffb92266",
        "to": "0x851356ae760d987e095750cceb3bc6014560891c",
        "gas": "0xf7c9",
        "value": "0x0",
        "input": "0x095ea7b30000000000000000000000005eb3bc0a489c5a8288765d2336659ebca68fcd000000000000000000000000000000000000000000000000008ac7230489e80000",
        "nonce": "0x3e",
        "chainId": "0xa455"
      },
      "additionalContracts": [],
      "isFixedGasLimit": false
    },
    {
      "hash": "0xfecbdbbd33f2363be6685b5e8172b5b5058af67e119830aaf64f07ff537c9c38",
      "transactionType": "CALL",
      "contractName": "VaultManager",
      "contractAddress": "0x5eb3bc0a489c5a8288765d2336659ebca68fcd00",
      "function": "depositCollateral(bytes32,uint256)",
      "arguments": [
        "0x4554480000000000000000000000000000000000000000000000000000000000",
        "10000000000000000000"
      ],
      "transaction": {
        "from": "0xf39fd6e51aad88f6f4ce6ab8827279cfffb92266",
        "to": "0x5eb3bc0a489c5a8288765d2336659ebca68fcd00",
        "gas": "0x34c6a",
        "value": "0x0",
        "input": "0xdea9b46445544800000000000000000000000000000000000000000000000000000000000000000000000000000000000000000000000000000000008ac7230489e80000",
        "nonce": "0x3f",
        "chainId": "0xa455"
      },
      "additionalContracts": [],
      "isFixedGasLimit": false
    },
    {
      "hash": "0x83828aab870185326dce4867711bb73bacd2ee60ff146a7901ed1ae475d99363",
      "transactionType": "CALL",
      "contractName": "VaultManager",
      "contractAddress": "0x5eb3bc0a489c5a8288765d2336659ebca68fcd00",
      "function": "mintGUSD(bytes32,uint256)",
      "arguments": [
        "0x4554480000000000000000000000000000000000000000000000000000000000",
        "5000000000000000000000"
      ],
      "transaction": {
        "from": "0xf39fd6e51aad88f6f4ce6ab8827279cfffb92266",
        "to": "0x5eb3bc0a489c5a8288765d2336659ebca68fcd00",
        "gas": "0x3f2a4",
        "value": "0x0",
        "input": "0x468c9bd1455448000000000000000000000000000000000000000000000000000000000000000000000000000000000000000000000000000000010f0cf064dd59200000",
        "nonce": "0x40",
        "chainId": "0xa455"
      },
      "additionalContracts": [],
      "isFixedGasLimit": false
    },
    {
      "hash": "0x530be36fed3e6eaee07efbf728b2019349a2c915ffb25cc7572a550e925ccf1a",
      "transactionType": "CALL",
      "contractName": "MockUSDC6",
      "contractAddress": "0xf5059a5d33d5853360d16c683c16e67980206f36",
      "function": "approve(address,uint256)",
      "arguments": [
        "0xb7278A61aa25c888815aFC32Ad3cC52fF24fE575",
        "100000000000"
      ],
      "transaction": {
        "from": "0xf39fd6e51aad88f6f4ce6ab8827279cfffb92266",
        "to": "0xf5059a5d33d5853360d16c683c16e67980206f36",
        "gas": "0x1064b",
        "value": "0x0",
        "input": "0x095ea7b3000000000000000000000000b7278a61aa25c888815afc32ad3cc52ff24fe575000000000000000000000000000000000000000000000000000000174876e800",
        "nonce": "0x41",
        "chainId": "0xa455"
      },
      "additionalContracts": [],
      "isFixedGasLimit": false
    },
    {
      "hash": "0xe288e6c76635cb2002d06c5d3577b4f42787df5c49bcb4afd31cb31a0b570e3d",
      "transactionType": "CALL",
      "contractName": "PegStabilityModule",
      "contractAddress": "0xb7278a61aa25c888815afc32ad3cc52ff24fe575",
      "function": "swapUSDCForGUSD(uint256)",
      "arguments": [
        "100000000000"
      ],
      "transaction": {
        "from": "0xf39fd6e51aad88f6f4ce6ab8827279cfffb92266",
        "to": "0xb7278a61aa25c888815afc32ad3cc52ff24fe575",
        "gas": "0x61168",
        "value": "0x0",
        "input": "0xcc999017000000000000000000000000000000000000000000000000000000174876e800",
        "nonce": "0x42",
        "chainId": "0xa455"
      },
      "additionalContracts": [],
      "isFixedGasLimit": false
    },
    {
      "hash": "0x5e01b94a2fef5d64c9d3eb5095de77a609b8cdcf8ea7e12c1a8d115815cddbce",
      "transactionType": "CALL",
      "contractName": "gUSD",
      "contractAddress": "0x0e801d84fa97b50751dbf25036d067dcf18858bf",
      "function": "approve(address,uint256)",
      "arguments": [
        "0x36C02dA8a0983159322a80FFE9F24b1acfF8B570",
        "2000000000000000000000"
      ],
      "transaction": {
        "from": "0xf39fd6e51aad88f6f4ce6ab8827279cfffb92266",
        "to": "0x0e801d84fa97b50751dbf25036d067dcf18858bf",
        "gas": "0x1066e",
        "value": "0x0",
        "input": "0x095ea7b300000000000000000000000036c02da8a0983159322a80ffe9f24b1acff8b57000000000000000000000000000000000000000000000006c6b935b8bbd400000",
        "nonce": "0x43",
        "chainId": "0xa455"
      },
      "additionalContracts": [],
      "isFixedGasLimit": false
    },
    {
      "hash": "0x86344d65181c6ea71682bd4f621c717883aabb3bef95f0b21e84ad8144ef1599",
      "transactionType": "CALL",
      "contractName": "StabilityPool",
      "contractAddress": "0x36c02da8a0983159322a80ffe9f24b1acff8b570",
      "function": "deposit(uint256)",
      "arguments": [
        "2000000000000000000000"
      ],
      "transaction": {
        "from": "0xf39fd6e51aad88f6f4ce6ab8827279cfffb92266",
        "to": "0x36c02da8a0983159322a80ffe9f24b1acff8b570",
        "gas": "0x28a43",
        "value": "0x0",
        "input": "0xb6b55f2500000000000000000000000000000000000000000000006c6b935b8bbd400000",
        "nonce": "0x44",
        "chainId": "0xa455"
      },
      "additionalContracts": [],
      "isFixedGasLimit": false
    }
  ],
  "receipts": [
    {
      "status": "0x1",
      "cumulativeGasUsed": "0x5ac8e",
      "logs": [],
      "logsBloom": "0x00000000000000000000000000000000000000000000000000000000000000000000000000000000000000000000000000000000000000000000000000000000000000000000000000000000000000000000000000000000000000000000000000000000000000000000000000000000000000000000000000000000000000000000000000000000000000000000000000000000000000000000000000000000000000000000000000000000000000000000000000000000000000000000000000000000000000000000000000000000000000000000000000000000000000000000000000000000000000000000000000000000000000000000000000000000",
      "type": "0x2",
      "transactionHash": "0xaaea80be5dd3bcd47fba3e123799ce38b7f3bfb9b309219a722fc0c8ef0d731d",
      "transactionIndex": "0x0",
      "blockHash": "0x7dea03a35410d766a45bf515e07db4e713baa1bd5f5dd61bc17e26bbd2f18438",
      "blockNumber": "0x284d",
      "gasUsed": "0x5ac8e",
      "effectiveGasPrice": "0x8",
      "blobGasPrice": "0x1",
      "from": "0xf39fd6e51aad88f6f4ce6ab8827279cfffb92266",
      "to": null,
      "contractAddress": "0x851356ae760d987e095750cceb3bc6014560891c",
      "blockTimestamp": 1775222505
    },
    {
      "status": "0x1",
      "cumulativeGasUsed": "0xb54dd",
      "logs": [],
      "logsBloom": "0x00000000000000000000000000000000000000000000000000000000000000000000000000000000000000000000000000000000000000000000000000000000000000000000000000000000000000000000000000000000000000000000000000000000000000000000000000000000000000000000000000000000000000000000000000000000000000000000000000000000000000000000000000000000000000000000000000000000000000000000000000000000000000000000000000000000000000000000000000000000000000000000000000000000000000000000000000000000000000000000000000000000000000000000000000000000",
      "type": "0x2",
      "transactionHash": "0x76c5c25c23694e8fe81890b1c3651a3990c51b8b6a6eec11b7bbf3af67f35e0c",
      "transactionIndex": "0x1",
      "blockHash": "0x7dea03a35410d766a45bf515e07db4e713baa1bd5f5dd61bc17e26bbd2f18438",
      "blockNumber": "0x284d",
      "gasUsed": "0x5a84f",
      "effectiveGasPrice": "0x8",
      "blobGasPrice": "0x1",
      "from": "0xf39fd6e51aad88f6f4ce6ab8827279cfffb92266",
      "to": null,
      "contractAddress": "0xf5059a5d33d5853360d16c683c16e67980206f36",
      "blockTimestamp": 1775222505
    },
    {
      "status": "0x1",
      "cumulativeGasUsed": "0x10fd2c",
      "logs": [],
      "logsBloom": "0x00000000000000000000000000000000000000000000000000000000000000000000000000000000000000000000000000000000000000000000000000000000000000000000000000000000000000000000000000000000000000000000000000000000000000000000000000000000000000000000000000000000000000000000000000000000000000000000000000000000000000000000000000000000000000000000000000000000000000000000000000000000000000000000000000000000000000000000000000000000000000000000000000000000000000000000000000000000000000000000000000000000000000000000000000000000",
      "type": "0x2",
      "transactionHash": "0x4864fb01bfec4e4a1fb4e7336005d12066469191d8dd6872b1a47b19758ef7ff",
      "transactionIndex": "0x2",
      "blockHash": "0x7dea03a35410d766a45bf515e07db4e713baa1bd5f5dd61bc17e26bbd2f18438",
      "blockNumber": "0x284d",
      "gasUsed": "0x5a84f",
      "effectiveGasPrice": "0x8",
      "blobGasPrice": "0x1",
      "from": "0xf39fd6e51aad88f6f4ce6ab8827279cfffb92266",
      "to": null,
      "contractAddress": "0x95401dc811bb5740090279ba06cfa8fcf6113778",
      "blockTimestamp": 1775222505
    },
    {
      "status": "0x1",
      "cumulativeGasUsed": "0x126bcf",
      "logs": [],
      "logsBloom": "0x00000000000000000000000000000000000000000000000000000000000000000000000000000000000000000000000000000000000000000000000000000000000000000000000000000000000000000000000000000000000000000000000000000000000000000000000000000000000000000000000000000000000000000000000000000000000000000000000000000000000000000000000000000000000000000000000000000000000000000000000000000000000000000000000000000000000000000000000000000000000000000000000000000000000000000000000000000000000000000000000000000000000000000000000000000000",
      "type": "0x2",
      "transactionHash": "0x86344d65181c6ea71682bd4f621c717883aabb3bef95f0b21e84ad8144ef1599",
      "transactionIndex": "0x3",
      "blockHash": "0x7dea03a35410d766a45bf515e07db4e713baa1bd5f5dd61bc17e26bbd2f18438",
      "blockNumber": "0x284d",
      "gasUsed": "0x16ea3",
      "effectiveGasPrice": "0x8",
      "blobGasPrice": "0x1",
      "from": "0xf39fd6e51aad88f6f4ce6ab8827279cfffb92266",
      "to": null,
      "contractAddress": "0x998abeb3e57409262ae5b751f60747921b33613e",
      "blockTimestamp": 1775222505
    },
    {
      "status": "0x1",
      "cumulativeGasUsed": "0x1316aa",
      "logs": [],
      "logsBloom": "0x00000000000000000000000000000000000000000000000000000000000000000000000000000000000000000000000000000000000000000000000000000000000000000000000000000000000000000000000000000000000000000000000000000000000000000000000000000000000000000000000000000000000000000000000000000000000000000000000000000000000000000000000000000000000000000000000000000000000000000000000000000000000000000000000000000000000000000000000000000000000000000000000000000000000000000000000000000000000000000000000000000000000000000000000000000000",
      "type": "0x2",
      "transactionHash": "0x0eab9a9251d2c7a66ec627a914c78054d4cca5eb0c2460fccfe48f766eb62ee1",
      "transactionIndex": "0x4",
      "blockHash": "0x7dea03a35410d766a45bf515e07db4e713baa1bd5f5dd61bc17e26bbd2f18438",
      "blockNumber": "0x284d",
      "gasUsed": "0xaadb",
      "effectiveGasPrice": "0x8",
      "blobGasPrice": "0x1",
      "from": "0xf39fd6e51aad88f6f4ce6ab8827279cfffb92266",
      "to": "0x998abeb3e57409262ae5b751f60747921b33613e",
      "contractAddress": null,
      "blockTimestamp": 1775222505
    },
    {
      "status": "0x1",
      "cumulativeGasUsed": "0x13c16d",
      "logs": [],
      "logsBloom": "0x00000000000000000000000000000000000000000000000000000000000000000000000000000000000000000000000000000000000000000000000000000000000000000000000000000000000000000000000000000000000000000000000000000000000000000000000000000000000000000000000000000000000000000000000000000000000000000000000000000000000000000000000000000000000000000000000000000000000000000000000000000000000000000000000000000000000000000000000000000000000000000000000000000000000000000000000000000000000000000000000000000000000000000000000000000000",
      "type": "0x2",
      "transactionHash": "0x99d5398a01ef1ee0d9789f004f9fc01986670e2f78d332b091d801470c2aeaa7",
      "transactionIndex": "0x5",
      "blockHash": "0x7dea03a35410d766a45bf515e07db4e713baa1bd5f5dd61bc17e26bbd2f18438",
      "blockNumber": "0x284d",
      "gasUsed": "0xaac3",
      "effectiveGasPrice": "0x8",
      "blobGasPrice": "0x1",
      "from": "0xf39fd6e51aad88f6f4ce6ab8827279cfffb92266",
      "to": "0x998abeb3e57409262ae5b751f60747921b33613e",
      "contractAddress": null,
      "blockTimestamp": 1775222505
    },
    {
      "status": "0x1",
      "cumulativeGasUsed": "0x146c48",
      "logs": [],
      "logsBloom": "0x00000000000000000000000000000000000000000000000000000000000000000000000000000000000000000000000000000000000000000000000000000000000000000000000000000000000000000000000000000000000000000000000000000000000000000000000000000000000000000000000000000000000000000000000000000000000000000000000000000000000000000000000000000000000000000000000000000000000000000000000000000000000000000000000000000000000000000000000000000000000000000000000000000000000000000000000000000000000000000000000000000000000000000000000000000000",
      "type": "0x2",
      "transactionHash": "0x351820cee1461cf17d4d007942a1cc8a78035695dc71eabc0674559c71af3560",
      "transactionIndex": "0x6",
      "blockHash": "0x7dea03a35410d766a45bf515e07db4e713baa1bd5f5dd61bc17e26bbd2f18438",
      "blockNumber": "0x284d",
      "gasUsed": "0xaadb",
      "effectiveGasPrice": "0x8",
      "blobGasPrice": "0x1",
      "from": "0xf39fd6e51aad88f6f4ce6ab8827279cfffb92266",
      "to": "0x998abeb3e57409262ae5b751f60747921b33613e",
      "contractAddress": null,
      "blockTimestamp": 1775222505
    },
    {
      "status": "0x1",
      "cumulativeGasUsed": "0x205bbc",
      "logs": [],
      "logsBloom": "0x00000000000000000000000000000000000000000000000000000000000000000000000000000000000000000000000000000000000000000000000000000000000000000000000000000000000000000000000000000000000000000000000000000000000000000000000000000000000000000000000000000000000000000000000000000000000000000000000000000000000000000000000000000000000000000000000000000000000000000000000000000000000000000000000000000000000000000000000000000000000000000000000000000000000000000000000000000000000000000000000000000000000000000000000000000000",
      "type": "0x2",
      "transactionHash": "0xadded217ab74eeb4255a903bd1127855f6c4bd60a2c5b2810e6819a33e69fa92",
      "transactionIndex": "0x7",
      "blockHash": "0x7dea03a35410d766a45bf515e07db4e713baa1bd5f5dd61bc17e26bbd2f18438",
      "blockNumber": "0x284d",
      "gasUsed": "0xbef74",
      "effectiveGasPrice": "0x8",
      "blobGasPrice": "0x1",
      "from": "0xf39fd6e51aad88f6f4ce6ab8827279cfffb92266",
      "to": null,
      "contractAddress": "0x0e801d84fa97b50751dbf25036d067dcf18858bf",
      "blockTimestamp": 1775222505
    },
    {
      "status": "0x1",
      "cumulativeGasUsed": "0x23957a",
      "logs": [],
      "logsBloom": "0x00000000000000000000000000000000000000000000000000000000000000000000000000000000000000000000000000000000000000000000000000000000000000000000000000000000000000000000000000000000000000000000000000000000000000000000000000000000000000000000000000000000000000000000000000000000000000000000000000000000000000000000000000000000000000000000000000000000000000000000000000000000000000000000000000000000000000000000000000000000000000000000000000000000000000000000000000000000000000000000000000000000000000000000000000000000",
      "type": "0x2",
      "transactionHash": "0x09737d2ff21f3fb9cef3d75529a0505bdeee190931b180f0f0ce95caf2c8a9cf",
      "transactionIndex": "0x8",
      "blockHash": "0x7dea03a35410d766a45bf515e07db4e713baa1bd5f5dd61bc17e26bbd2f18438",
      "blockNumber": "0x284d",
      "gasUsed": "0x339be",
      "effectiveGasPrice": "0x8",
      "blobGasPrice": "0x1",
      "from": "0xf39fd6e51aad88f6f4ce6ab8827279cfffb92266",
      "to": null,
      "contractAddress": "0x8f86403a4de0bb5791fa46b8e795c547942fe4cf",
      "blockTimestamp": 1775222505
    },
    {
      "status": "0x1",
      "cumulativeGasUsed": "0x34ae50",
      "logs": [
        {
          "address": "0x9d4454b023096f34b160d6b654540c56a1f81688",
          "topics": [
            "0xab8ac0e1bd8ac03ac9df93028bd29e1972d82acd99a159a07ac48bcd2b022cbe",
            "0x4554480000000000000000000000000000000000000000000000000000000000"
          ],
          "data": "0x000000000000000000000000851356ae760d987e095750cceb3bc6014560891c00000000000000000000000000000000000000000000000014d1120d7b160000",
          "blockHash": "0x7dea03a35410d766a45bf515e07db4e713baa1bd5f5dd61bc17e26bbd2f18438",
          "blockNumber": "0x284d",
          "blockTimestamp": "0x69cfbee9",
          "transactionHash": "0x10a0b2631d47a4381663e7f6d640dcdb3c820f9e71b9eaf1fd1b239154a9cf86",
          "transactionIndex": "0x9",
          "logIndex": "0x0",
          "removed": false
        },
        {
          "address": "0x9d4454b023096f34b160d6b654540c56a1f81688",
          "topics": [
            "0xab8ac0e1bd8ac03ac9df93028bd29e1972d82acd99a159a07ac48bcd2b022cbe",
            "0x4744000000000000000000000000000000000000000000000000000000000000"
          ],
          "data": "0x00000000000000000000000095401dc811bb5740090279ba06cfa8fcf61137780000000000000000000000000000000000000000000000001bc16d674ec80000",
          "blockHash": "0x7dea03a35410d766a45bf515e07db4e713baa1bd5f5dd61bc17e26bbd2f18438",
          "blockNumber": "0x284d",
          "blockTimestamp": "0x69cfbee9",
          "transactionHash": "0x10a0b2631d47a4381663e7f6d640dcdb3c820f9e71b9eaf1fd1b239154a9cf86",
          "transactionIndex": "0x9",
          "logIndex": "0x1",
          "removed": false
        },
        {
          "address": "0x9d4454b023096f34b160d6b654540c56a1f81688",
          "topics": [
            "0xab8ac0e1bd8ac03ac9df93028bd29e1972d82acd99a159a07ac48bcd2b022cbe",
            "0x5553444300000000000000000000000000000000000000000000000000000000"
          ],
          "data": "0x000000000000000000000000f5059a5d33d5853360d16c683c16e67980206f360000000000000000000000000000000000000000000000000e043da617250000",
          "blockHash": "0x7dea03a35410d766a45bf515e07db4e713baa1bd5f5dd61bc17e26bbd2f18438",
          "blockNumber": "0x284d",
          "blockTimestamp": "0x69cfbee9",
          "transactionHash": "0x10a0b2631d47a4381663e7f6d640dcdb3c820f9e71b9eaf1fd1b239154a9cf86",
          "transactionIndex": "0x9",
          "logIndex": "0x2",
          "removed": false
        }
      ],
      "logsBloom": "0x00000000000000000000000000000000000000000000000000000000000000000000000000000000001000000000000000000000000000000000000000000000000800000000000000000000200000000000020000000000000000001000000000000000000000000000000000000000000000000000000000000000000000000000000000000000000000000000800000000000000000000001000000000000000000001000000000000000000000000000000000000080000000000000000010000200000000000000000000000000000000000000000000000000000000000000000000000000000000001000000000000400000000100000000040000000",
      "type": "0x2",
      "transactionHash": "0x10a0b2631d47a4381663e7f6d640dcdb3c820f9e71b9eaf1fd1b239154a9cf86",
      "transactionIndex": "0x9",
      "blockHash": "0x7dea03a35410d766a45bf515e07db4e713baa1bd5f5dd61bc17e26bbd2f18438",
      "blockNumber": "0x284d",
      "gasUsed": "0x1118d6",
      "effectiveGasPrice": "0x8",
      "blobGasPrice": "0x1",
      "from": "0xf39fd6e51aad88f6f4ce6ab8827279cfffb92266",
      "to": null,
      "contractAddress": "0x9d4454b023096f34b160d6b654540c56a1f81688",
      "blockTimestamp": 1775222505
    },
    {
      "status": "0x1",
      "cumulativeGasUsed": "0x57c824",
      "logs": [],
      "logsBloom": "0x00000000000000000000000000000000000000000000000000000000000000000000000000000000000000000000000000000000000000000000000000000000000000000000000000000000000000000000000000000000000000000000000000000000000000000000000000000000000000000000000000000000000000000000000000000000000000000000000000000000000000000000000000000000000000000000000000000000000000000000000000000000000000000000000000000000000000000000000000000000000000000000000000000000000000000000000000000000000000000000000000000000000000000000000000000000",
      "type": "0x2",
      "transactionHash": "0x887605ca4d04b3b7574ab672046d2dac1d3966453c64e0b8acd206b94279a3f7",
      "transactionIndex": "0xa",
      "blockHash": "0x7dea03a35410d766a45bf515e07db4e713baa1bd5f5dd61bc17e26bbd2f18438",
      "blockNumber": "0x284d",
      "gasUsed": "0x2319d4",
      "effectiveGasPrice": "0x8",
      "blobGasPrice": "0x1",
      "from": "0xf39fd6e51aad88f6f4ce6ab8827279cfffb92266",
      "to": null,
      "contractAddress": "0x5eb3bc0a489c5a8288765d2336659ebca68fcd00",
      "blockTimestamp": 1775222505
    },
    {
      "status": "0x1",
      "cumulativeGasUsed": "0x660d03",
      "logs": [],
      "logsBloom": "0x00000000000000000000000000000000000000000000000000000000000000000000000000000000000000000000000000000000000000000000000000000000000000000000000000000000000000000000000000000000000000000000000000000000000000000000000000000000000000000000000000000000000000000000000000000000000000000000000000000000000000000000000000000000000000000000000000000000000000000000000000000000000000000000000000000000000000000000000000000000000000000000000000000000000000000000000000000000000000000000000000000000000000000000000000000000",
      "type": "0x2",
      "transactionHash": "0x5e01b94a2fef5d64c9d3eb5095de77a609b8cdcf8ea7e12c1a8d115815cddbce",
      "transactionIndex": "0xb",
      "blockHash": "0x7dea03a35410d766a45bf515e07db4e713baa1bd5f5dd61bc17e26bbd2f18438",
      "blockNumber": "0x284d",
      "gasUsed": "0xe44df",
      "effectiveGasPrice": "0x8",
      "blobGasPrice": "0x1",
      "from": "0xf39fd6e51aad88f6f4ce6ab8827279cfffb92266",
      "to": null,
      "contractAddress": "0x36c02da8a0983159322a80ffe9f24b1acff8b570",
      "blockTimestamp": 1775222505
    },
    {
      "status": "0x1",
      "cumulativeGasUsed": "0x66c633",
      "logs": [
        {
          "address": "0x36c02da8a0983159322a80ffe9f24b1acff8b570",
          "topics": [
            "0x8e902340d35762a5a36507c20fe38e5d549a721d9f846d6de7f397b5c26ab853",
            "0x0000000000000000000000005eb3bc0a489c5a8288765d2336659ebca68fcd00"
          ],
          "data": "0x",
          "blockHash": "0x7dea03a35410d766a45bf515e07db4e713baa1bd5f5dd61bc17e26bbd2f18438",
          "blockNumber": "0x284d",
          "blockTimestamp": "0x69cfbee9",
          "transactionHash": "0x37f66860461062c9fdf89c8f2c6702c19bd7db9a16616f0ae0ae5479e4bac0e8",
          "transactionIndex": "0xc",
          "logIndex": "0x3",
          "removed": false
        }
      ],
      "logsBloom": "0x00000000000000000000000000000000000000000000000000000000000000000000000000000000000000000000000000000200000000000000000000000000000000000000000000000000000000000000000000000000000000000000000000000000000400000000000000000000000000080000000000000000000000000000000000000000000000000000000000000000000000000000000000000000000001000000000000200000000000000000000000000000000000000000000000000020000000000000000000000000000000000000000000000000000020000000000000400000000000000000000000000000080000000000000000000000",
      "type": "0x2",
      "transactionHash": "0x37f66860461062c9fdf89c8f2c6702c19bd7db9a16616f0ae0ae5479e4bac0e8",
      "transactionIndex": "0xc",
      "blockHash": "0x7dea03a35410d766a45bf515e07db4e713baa1bd5f5dd61bc17e26bbd2f18438",
      "blockNumber": "0x284d",
      "gasUsed": "0xb930",
      "effectiveGasPrice": "0x8",
      "blobGasPrice": "0x1",
      "from": "0xf39fd6e51aad88f6f4ce6ab8827279cfffb92266",
      "to": "0x36c02da8a0983159322a80ffe9f24b1acff8b570",
      "contractAddress": null,
      "blockTimestamp": 1775222505
    },
    {
      "status": "0x1",
      "cumulativeGasUsed": "0x678102",
      "logs": [
        {
          "address": "0x36c02da8a0983159322a80ffe9f24b1acff8b570",
          "topics": [
            "0x7b02323155ee1835f3ad82fb0682024a2f6ea1380e110430fc6eb75fbffc8665",
            "0x4554480000000000000000000000000000000000000000000000000000000000"
          ],
          "data": "0x000000000000000000000000851356ae760d987e095750cceb3bc6014560891c",
          "blockHash": "0x7dea03a35410d766a45bf515e07db4e713baa1bd5f5dd61bc17e26bbd2f18438",
          "blockNumber": "0x284d",
          "blockTimestamp": "0x69cfbee9",
          "transactionHash": "0x2134534cfc3f23f010ec871e83b4646c641329c5dc241a539b18a0e2ec9624fa",
          "transactionIndex": "0xd",
          "logIndex": "0x4",
          "removed": false
        }
      ],
      "logsBloom": "0x00000000000000000000000000000008000000000000000000000000000000000000000000000000000000000000000000000200000004000000000000000000000800000000000000000000200000000000000000000000000000000000000000000000000000000000000000000000000000000000000000000040000000000000000000000000000000000000000000000000000000000000000000000000000001000000000000000000000000000000000000000000000000000000000000000000000000000000000000000000000000000000000000000000000000000000000000000000000000000000000000000000080000100000000000000000",
      "type": "0x2",
      "transactionHash": "0x2134534cfc3f23f010ec871e83b4646c641329c5dc241a539b18a0e2ec9624fa",
      "transactionIndex": "0xd",
      "blockHash": "0x7dea03a35410d766a45bf515e07db4e713baa1bd5f5dd61bc17e26bbd2f18438",
      "blockNumber": "0x284d",
      "gasUsed": "0xbacf",
      "effectiveGasPrice": "0x8",
      "blobGasPrice": "0x1",
      "from": "0xf39fd6e51aad88f6f4ce6ab8827279cfffb92266",
      "to": "0x36c02da8a0983159322a80ffe9f24b1acff8b570",
      "contractAddress": null,
      "blockTimestamp": 1775222505
    },
    {
      "status": "0x1",
      "cumulativeGasUsed": "0x683bc5",
      "logs": [
        {
          "address": "0x36c02da8a0983159322a80ffe9f24b1acff8b570",
          "topics": [
            "0x7b02323155ee1835f3ad82fb0682024a2f6ea1380e110430fc6eb75fbffc8665",
            "0x4744000000000000000000000000000000000000000000000000000000000000"
          ],
          "data": "0x00000000000000000000000095401dc811bb5740090279ba06cfa8fcf6113778",
          "blockHash": "0x7dea03a35410d766a45bf515e07db4e713baa1bd5f5dd61bc17e26bbd2f18438",
          "blockNumber": "0x284d",
          "blockTimestamp": "0x69cfbee9",
          "transactionHash": "0xe2bf4e4d969cb96c73b67c725c1dac981dda8fad122cceb24c767e7dff8c350f",
          "transactionIndex": "0xe",
          "logIndex": "0x5",
          "removed": false
        }
      ],
      "logsBloom": "0x00000000000000000000000000000008000000000000000000000000000000000000000000000000000000000000000000000200000004000000000000000000000000000000000000000000000000000000020000000000000000000000000000000000000000000000000000000000000000000000000000000040000000000000000000000000000000000000800000000000000000000000000000000000000001000000000000000000000000000000000000000000000000000000000000000000000000000000000000000000000000000000000000000000000000000000000000000000000000001000000000000000080000000000000000000000",
      "type": "0x2",
      "transactionHash": "0xe2bf4e4d969cb96c73b67c725c1dac981dda8fad122cceb24c767e7dff8c350f",
      "transactionIndex": "0xe",
      "blockHash": "0x7dea03a35410d766a45bf515e07db4e713baa1bd5f5dd61bc17e26bbd2f18438",
      "blockNumber": "0x284d",
      "gasUsed": "0xbac3",
      "effectiveGasPrice": "0x8",
      "blobGasPrice": "0x1",
      "from": "0xf39fd6e51aad88f6f4ce6ab8827279cfffb92266",
      "to": "0x36c02da8a0983159322a80ffe9f24b1acff8b570",
      "contractAddress": null,
      "blockTimestamp": 1775222505
    },
    {
      "status": "0x1",
      "cumulativeGasUsed": "0x68f6a0",
      "logs": [
        {
          "address": "0x36c02da8a0983159322a80ffe9f24b1acff8b570",
          "topics": [
            "0x7b02323155ee1835f3ad82fb0682024a2f6ea1380e110430fc6eb75fbffc8665",
            "0x5553444300000000000000000000000000000000000000000000000000000000"
          ],
          "data": "0x000000000000000000000000f5059a5d33d5853360d16c683c16e67980206f36",
          "blockHash": "0x7dea03a35410d766a45bf515e07db4e713baa1bd5f5dd61bc17e26bbd2f18438",
          "blockNumber": "0x284d",
          "blockTimestamp": "0x69cfbee9",
          "transactionHash": "0x572ff57e50a8fd16299dd1ecc2c5cab3a78ab5cdb99e14fd6bdecd35b9c8fa2d",
          "transactionIndex": "0xf",
          "logIndex": "0x6",
          "removed": false
        }
      ],
      "logsBloom": "0x00000000000000000000000000000008000000000000000000000000000000000000000000000000001000000000000000000200000004000000000000000000000000000000000000000000000000000000000000000000000000000000000000000000000000000000000000000000000000000000000000000040000000000000000000000000000000000000000000000000000000000000000000000000000001000000000000000000000000000000000000000000000000000000000010000200000000000000000000000000000000000000000000000000000000000000000000000000000000000000000000000000080000000000000000000000",
      "type": "0x2",
      "transactionHash": "0x572ff57e50a8fd16299dd1ecc2c5cab3a78ab5cdb99e14fd6bdecd35b9c8fa2d",
      "transactionIndex": "0xf",
      "blockHash": "0x7dea03a35410d766a45bf515e07db4e713baa1bd5f5dd61bc17e26bbd2f18438",
      "blockNumber": "0x284d",
      "gasUsed": "0xbadb",
      "effectiveGasPrice": "0x8",
      "blobGasPrice": "0x1",
      "from": "0xf39fd6e51aad88f6f4ce6ab8827279cfffb92266",
      "to": "0x36c02da8a0983159322a80ffe9f24b1acff8b570",
      "contractAddress": null,
      "blockTimestamp": 1775222505
    },
    {
      "status": "0x1",
      "cumulativeGasUsed": "0x78f832",
      "logs": [],
      "logsBloom": "0x00000000000000000000000000000000000000000000000000000000000000000000000000000000000000000000000000000000000000000000000000000000000000000000000000000000000000000000000000000000000000000000000000000000000000000000000000000000000000000000000000000000000000000000000000000000000000000000000000000000000000000000000000000000000000000000000000000000000000000000000000000000000000000000000000000000000000000000000000000000000000000000000000000000000000000000000000000000000000000000000000000000000000000000000000000000",
      "type": "0x2",
      "transactionHash": "0xa4ec633c5bccd2e68e207daad33297be18f1f9cb6b29835c170a4bc246f7d311",
      "transactionIndex": "0x10",
      "blockHash": "0x7dea03a35410d766a45bf515e07db4e713baa1bd5f5dd61bc17e26bbd2f18438",
      "blockNumber": "0x284d",
      "gasUsed": "0x100192",
      "effectiveGasPrice": "0x8",
      "blobGasPrice": "0x1",
      "from": "0xf39fd6e51aad88f6f4ce6ab8827279cfffb92266",
      "to": null,
      "contractAddress": "0xb7278a61aa25c888815afc32ad3cc52ff24fe575",
      "blockTimestamp": 1775222505
    },
    {
      "status": "0x1",
      "cumulativeGasUsed": "0x79b3ae",
      "logs": [
        {
          "address": "0x0e801d84fa97b50751dbf25036d067dcf18858bf",
          "topics": [
            "0x583b0aa0e528532caf4b907c11d7a8158a122fe2a6fb80cd9b09776ebea8d92d",
            "0x0000000000000000000000005eb3bc0a489c5a8288765d2336659ebca68fcd00"
          ],
          "data": "0x0000000000000000000000000000000000000000000000000000000000000001",
          "blockHash": "0x7dea03a35410d766a45bf515e07db4e713baa1bd5f5dd61bc17e26bbd2f18438",
          "blockNumber": "0x284d",
          "blockTimestamp": "0x69cfbee9",
          "transactionHash": "0x3788852102f06e115cdf35fd848cf04d18de350ce33ceb4d7c22332f38bdc73a",
          "transactionIndex": "0x11",
          "logIndex": "0x7",
          "removed": false
        }
      ],
      "logsBloom": "0x00000000000000000000000000000000000000000000000000000000000000000002000000000000000000000000000000000000000000000000000000000000400001000000000000000000000000000000000000000000000000000000000000000000000000000000000000000000000000080000000000000000000000000000000000000000000000000000000000000000000000000000000000000000000000000000200000200000000000000000000000000000000000000000000000000000000000000000100000000000000000000000000000000000000000000000000000400000000000000040000000000000000000000000000000000000",
      "type": "0x2",
      "transactionHash": "0x3788852102f06e115cdf35fd848cf04d18de350ce33ceb4d7c22332f38bdc73a",
      "transactionIndex": "0x11",
      "blockHash": "0x7dea03a35410d766a45bf515e07db4e713baa1bd5f5dd61bc17e26bbd2f18438",
      "blockNumber": "0x284d",
      "gasUsed": "0xbb7c",
      "effectiveGasPrice": "0x8",
      "blobGasPrice": "0x1",
      "from": "0xf39fd6e51aad88f6f4ce6ab8827279cfffb92266",
      "to": "0x0e801d84fa97b50751dbf25036d067dcf18858bf",
      "contractAddress": null,
      "blockTimestamp": 1775222505
    },
    {
      "status": "0x1",
      "cumulativeGasUsed": "0x7a6f36",
      "logs": [
        {
          "address": "0x0e801d84fa97b50751dbf25036d067dcf18858bf",
          "topics": [
            "0x583b0aa0e528532caf4b907c11d7a8158a122fe2a6fb80cd9b09776ebea8d92d",
            "0x000000000000000000000000b7278a61aa25c888815afc32ad3cc52ff24fe575"
          ],
          "data": "0x0000000000000000000000000000000000000000000000000000000000000001",
          "blockHash": "0x7dea03a35410d766a45bf515e07db4e713baa1bd5f5dd61bc17e26bbd2f18438",
          "blockNumber": "0x284d",
          "blockTimestamp": "0x69cfbee9",
          "transactionHash": "0x3b9b66c9a75faa88b02d8a0e4a546d68c09850f46830f46e8be4410d6878f558",
          "transactionIndex": "0x12",
          "logIndex": "0x8",
          "removed": false
        }
      ],
      "logsBloom": "0x00000000000000000000000000000000000000000000000000000000000000000002000000000000000000000000000000000000000000000000000000200000400001000000000400000000000000000000000000000000000000000000000000000000000000000000000000000000000000000000000000000000000000000000000000000000000000000000000000000000000000000000000000000000000000000000200000000000000000000000000000000000000000000000000000000000000000000000100000000000000000000000000000000000000000000000000000000000800000000040000000000000000000000000000000000000",
      "type": "0x2",
      "transactionHash": "0x3b9b66c9a75faa88b02d8a0e4a546d68c09850f46830f46e8be4410d6878f558",
      "transactionIndex": "0x12",
      "blockHash": "0x7dea03a35410d766a45bf515e07db4e713baa1bd5f5dd61bc17e26bbd2f18438",
      "blockNumber": "0x284d",
      "gasUsed": "0xbb88",
      "effectiveGasPrice": "0x8",
      "blobGasPrice": "0x1",
      "from": "0xf39fd6e51aad88f6f4ce6ab8827279cfffb92266",
      "to": "0x0e801d84fa97b50751dbf25036d067dcf18858bf",
      "contractAddress": null,
      "blockTimestamp": 1775222505
    },
    {
      "status": "0x1",
      "cumulativeGasUsed": "0x7b2994",
      "logs": [
        {
          "address": "0x0e801d84fa97b50751dbf25036d067dcf18858bf",
          "topics": [
            "0xd28dc1379d750c7c8137c7ef7b074f62f1361b9becc7f9d77d8c0d6e46a3cd06",
            "0x0000000000000000000000005eb3bc0a489c5a8288765d2336659ebca68fcd00"
          ],
          "data": "0x0000000000000000000000000000000000000000000000000000000000000001",
          "blockHash": "0x7dea03a35410d766a45bf515e07db4e713baa1bd5f5dd61bc17e26bbd2f18438",
          "blockNumber": "0x284d",
          "blockTimestamp": "0x69cfbee9",
          "transactionHash": "0x0dae7c30f960825ba98df1280d4fccd691b3ce11564cf7fdc4bacbe753bc9075",
          "transactionIndex": "0x13",
          "logIndex": "0x9",
          "removed": false
        }
      ],
      "logsBloom": "0x00000000000000000000000000000000000000000000000000000000000000000000000000000000000000000000000000000000000000000000000000000000400000000000000040000000000000000000000000000000000000000000000000000000000000000000000000000000000000080000000000000000000400000000000000000000000000000000000000000000000000000000000000000000000000000000200000a00000000000000000000000000000000000000000000000000000000000000000100000000000000000000000000000000000000000000000000000400000000000000000000000000000000000000000000000000000",
      "type": "0x2",
      "transactionHash": "0x0dae7c30f960825ba98df1280d4fccd691b3ce11564cf7fdc4bacbe753bc9075",
      "transactionIndex": "0x13",
      "blockHash": "0x7dea03a35410d766a45bf515e07db4e713baa1bd5f5dd61bc17e26bbd2f18438",
      "blockNumber": "0x284d",
      "gasUsed": "0xba5e",
      "effectiveGasPrice": "0x8",
      "blobGasPrice": "0x1",
      "from": "0xf39fd6e51aad88f6f4ce6ab8827279cfffb92266",
      "to": "0x0e801d84fa97b50751dbf25036d067dcf18858bf",
      "contractAddress": null,
      "blockTimestamp": 1775222505
    },
    {
      "status": "0x1",
      "cumulativeGasUsed": "0x7be3fe",
      "logs": [
        {
          "address": "0x0e801d84fa97b50751dbf25036d067dcf18858bf",
          "topics": [
            "0xd28dc1379d750c7c8137c7ef7b074f62f1361b9becc7f9d77d8c0d6e46a3cd06",
            "0x000000000000000000000000b7278a61aa25c888815afc32ad3cc52ff24fe575"
          ],
          "data": "0x0000000000000000000000000000000000000000000000000000000000000001",
          "blockHash": "0x7dea03a35410d766a45bf515e07db4e713baa1bd5f5dd61bc17e26bbd2f18438",
          "blockNumber": "0x284d",
          "blockTimestamp": "0x69cfbee9",
          "transactionHash": "0xb8a07c50ef400a5193b58e4622bb3858d25599ec2e7056531e4bb7b76a11dc13",
          "transactionIndex": "0x14",
          "logIndex": "0xa",
          "removed": false
        }
      ],
      "logsBloom": "0x00000000000000000000000000000000000000000000000000000000000000000000000000000000000000000000000000000000000000000000000000200000400000000000000440000000000000000000000000000000000000000000000000000000000000000000000000000000000000000000000000000000000400000000000000000000000000000000000000000000000000000000000000000000000000000000200000800000000000000000000000000000000000000000000000000000000000000000100000000000000000000000000000000000000000000000000000000000800000000000000000000000000000000000000000000000",
      "type": "0x2",
      "transactionHash": "0xb8a07c50ef400a5193b58e4622bb3858d25599ec2e7056531e4bb7b76a11dc13",
      "transactionIndex": "0x14",
      "blockHash": "0x7dea03a35410d766a45bf515e07db4e713baa1bd5f5dd61bc17e26bbd2f18438",
      "blockNumber": "0x284d",
      "gasUsed": "0xba6a",
      "effectiveGasPrice": "0x8",
      "blobGasPrice": "0x1",
      "from": "0xf39fd6e51aad88f6f4ce6ab8827279cfffb92266",
      "to": "0x0e801d84fa97b50751dbf25036d067dcf18858bf",
      "contractAddress": null,
      "blockTimestamp": 1775222505
    },
    {
      "status": "0x1",
      "cumulativeGasUsed": "0x7c9e68",
      "logs": [
        {
          "address": "0x0e801d84fa97b50751dbf25036d067dcf18858bf",
          "topics": [
            "0xd28dc1379d750c7c8137c7ef7b074f62f1361b9becc7f9d77d8c0d6e46a3cd06",
            "0x00000000000000000000000036c02da8a0983159322a80ffe9f24b1acff8b570"
          ],
          "data": "0x0000000000000000000000000000000000000000000000000000000000000001",
          "blockHash": "0x7dea03a35410d766a45bf515e07db4e713baa1bd5f5dd61bc17e26bbd2f18438",
          "blockNumber": "0x284d",
          "blockTimestamp": "0x69cfbee9",
          "transactionHash": "0x83828aab870185326dce4867711bb73bacd2ee60ff146a7901ed1ae475d99363",
          "transactionIndex": "0x15",
          "logIndex": "0xb",
          "removed": false
        }
      ],
      "logsBloom": "0x00000000000000000000000000000000000000000000000000000000000000000000000000000000000000000000000000000000000000000000000000000000400000000000000040000000000000000000000000000000000000000000000000000000000000000000000000000000000000000000000000000000000400000000000000000000000000000000000000000000000000000000000000000000000000000000200000804000000000000000000000000000000000000000000000000000000000000000100000000000000000000000000000000000000000000000000000000000000000000000000000000000000000000208000000000000",
      "type": "0x2",
      "transactionHash": "0x83828aab870185326dce4867711bb73bacd2ee60ff146a7901ed1ae475d99363",
      "transactionIndex": "0x15",
      "blockHash": "0x7dea03a35410d766a45bf515e07db4e713baa1bd5f5dd61bc17e26bbd2f18438",
      "blockNumber": "0x284d",
      "gasUsed": "0xba6a",
      "effectiveGasPrice": "0x8",
      "blobGasPrice": "0x1",
      "from": "0xf39fd6e51aad88f6f4ce6ab8827279cfffb92266",
      "to": "0x0e801d84fa97b50751dbf25036d067dcf18858bf",
      "contractAddress": null,
      "blockTimestamp": 1775222505
    },
    {
      "status": "0x1",
      "cumulativeGasUsed": "0x7d57f3",
      "logs": [
        {
          "address": "0x5eb3bc0a489c5a8288765d2336659ebca68fcd00",
          "topics": [
            "0x51f43ead43c9a90d53ec229fbf48feb76b24efa7a147089ad9ed34ad384a94d3"
          ],
          "data": "0x00000000000000000000000036c02da8a0983159322a80ffe9f24b1acff8b570",
          "blockHash": "0x7dea03a35410d766a45bf515e07db4e713baa1bd5f5dd61bc17e26bbd2f18438",
          "blockNumber": "0x284d",
          "blockTimestamp": "0x69cfbee9",
          "transactionHash": "0x82f1f4683a82d6c1126303d06548bd0c39557a227822eca13cb47a7f3c03a596",
          "transactionIndex": "0x16",
          "logIndex": "0xc",
          "removed": false
        }
      ],
      "logsBloom": "0x00000000000000000000000000000008000000000000000000000000000000000000000000000000000000000000000000000000000000000000000000000000004000000000000000000000000000000000000000000000004000000000000000000000000000000000000000000800000000000000000000000000000000000000000000400000000000000000000000000000000000000000000000000000000000000000000000000000000000000000000000000000000000000010000000000000000000000000000000000000000000000000000000000000000000000000000000000000000000000000000000000000000000000000000000000000",
      "type": "0x2",
      "transactionHash": "0x82f1f4683a82d6c1126303d06548bd0c39557a227822eca13cb47a7f3c03a596",
      "transactionIndex": "0x16",
      "blockHash": "0x7dea03a35410d766a45bf515e07db4e713baa1bd5f5dd61bc17e26bbd2f18438",
      "blockNumber": "0x284d",
      "gasUsed": "0xb98b",
      "effectiveGasPrice": "0x8",
      "blobGasPrice": "0x1",
      "from": "0xf39fd6e51aad88f6f4ce6ab8827279cfffb92266",
      "to": "0x5eb3bc0a489c5a8288765d2336659ebca68fcd00",
      "contractAddress": null,
      "blockTimestamp": 1775222505
    },
    {
      "status": "0x1",
      "cumulativeGasUsed": "0x7e6254",
      "logs": [
        {
          "address": "0x851356ae760d987e095750cceb3bc6014560891c",
          "topics": [
            "0xddf252ad1be2c89b69c2b068fc378daa952ba7f163c4a11628f55a4df523b3ef",
            "0x0000000000000000000000000000000000000000000000000000000000000000",
            "0x000000000000000000000000f39fd6e51aad88f6f4ce6ab8827279cfffb92266"
          ],
          "data": "0x0000000000000000000000000000000000000000000000056bc75e2d63100000",
          "blockHash": "0x7dea03a35410d766a45bf515e07db4e713baa1bd5f5dd61bc17e26bbd2f18438",
          "blockNumber": "0x284d",
          "blockTimestamp": "0x69cfbee9",
          "transactionHash": "0x153a86c7a7cf6c9505092a08dce2984e2542b61fc12f7125fc804eacae6ab4de",
          "transactionIndex": "0x17",
          "logIndex": "0xd",
          "removed": false
        }
      ],
      "logsBloom": "0x00000000000000000000000000000000000400000000000000000000000000000000000000000000000000000000000000000000000000000000000000000000000000000000000000000008000000000000000000000010000000000000000000000000020000000000000100000820000000000000000000000010000000000000000000000000000000000000000000000000000000000000000000000000000000000000000000000000000000000000000000000000000000000000000000000002000000200000000000000000000000002000000000000000000020000000000000000000000000000000000000000000000000000000000000000000",
      "type": "0x2",
      "transactionHash": "0x153a86c7a7cf6c9505092a08dce2984e2542b61fc12f7125fc804eacae6ab4de",
      "transactionIndex": "0x17",
      "blockHash": "0x7dea03a35410d766a45bf515e07db4e713baa1bd5f5dd61bc17e26bbd2f18438",
      "blockNumber": "0x284d",
      "gasUsed": "0x10a61",
      "effectiveGasPrice": "0x8",
      "blobGasPrice": "0x1",
      "from": "0xf39fd6e51aad88f6f4ce6ab8827279cfffb92266",
      "to": "0x851356ae760d987e095750cceb3bc6014560891c",
      "contractAddress": null,
      "blockTimestamp": 1775222505
    },
    {
      "status": "0x1",
      "cumulativeGasUsed": "0x7f6c91",
      "logs": [
        {
          "address": "0xf5059a5d33d5853360d16c683c16e67980206f36",
          "topics": [
            "0xddf252ad1be2c89b69c2b068fc378daa952ba7f163c4a11628f55a4df523b3ef",
            "0x0000000000000000000000000000000000000000000000000000000000000000",
            "0x000000000000000000000000f39fd6e51aad88f6f4ce6ab8827279cfffb92266"
          ],
          "data": "0x000000000000000000000000000000000000000000000000000000e8d4a51000",
          "blockHash": "0x7dea03a35410d766a45bf515e07db4e713baa1bd5f5dd61bc17e26bbd2f18438",
          "blockNumber": "0x284d",
          "blockTimestamp": "0x69cfbee9",
          "transactionHash": "0xd91c937a79fa251a06379287e30581f4d47bf1acc9fa11ef64c56aabf34a752f",
          "transactionIndex": "0x18",
          "logIndex": "0xe",
          "removed": false
        }
      ],
      "logsBloom": "0x00000000000000000000000000000000000000000000000000000000000000000000000000000000000000000000000000800010000000000000000000000000000000000000000000000008000000000000000000000000000000000000000000000000020000000000000100000800000000000000000000000010000000000400000000000000000000000000000000000000000000000000000000000000000000000000000000000000000000000000000000000000000000000000000000000002000000200000000000000000000000002000000000000000000020000000000000000000000000000000000000000000000000000000000000000000",
      "type": "0x2",
      "transactionHash": "0xd91c937a79fa251a06379287e30581f4d47bf1acc9fa11ef64c56aabf34a752f",
      "transactionIndex": "0x18",
      "blockHash": "0x7dea03a35410d766a45bf515e07db4e713baa1bd5f5dd61bc17e26bbd2f18438",
      "blockNumber": "0x284d",
      "gasUsed": "0x10a3d",
      "effectiveGasPrice": "0x8",
      "blobGasPrice": "0x1",
      "from": "0xf39fd6e51aad88f6f4ce6ab8827279cfffb92266",
      "to": "0xf5059a5d33d5853360d16c683c16e67980206f36",
      "contractAddress": null,
      "blockTimestamp": 1775222505
    },
    {
      "status": "0x1",
      "cumulativeGasUsed": "0x8076fe",
      "logs": [
        {
          "address": "0x95401dc811bb5740090279ba06cfa8fcf6113778",
          "topics": [
            "0xddf252ad1be2c89b69c2b068fc378daa952ba7f163c4a11628f55a4df523b3ef",
            "0x0000000000000000000000000000000000000000000000000000000000000000",
            "0x000000000000000000000000f39fd6e51aad88f6f4ce6ab8827279cfffb92266"
          ],
          "data": "0x00000000000000000000000000000000000000000052b7d2dcc80cd2e4000000",
          "blockHash": "0x7dea03a35410d766a45bf515e07db4e713baa1bd5f5dd61bc17e26bbd2f18438",
          "blockNumber": "0x284d",
          "blockTimestamp": "0x69cfbee9",
          "transactionHash": "0x3a0293e28054f6fa9a9f119f3b1647445fec1f073bff4fa1f7a0d816dca25135",
          "transactionIndex": "0x19",
          "logIndex": "0xf",
          "removed": false
        }
      ],
      "logsBloom": "0x00000000000000000000000000000000000000000000000000000000020000000000000000000000000000000000000000000000000000000000000000000000000000000000000000000008000000000000000000000000000000000000000000000000020000000000000100000800000000000000000000000010000000000100000000000000000000000000000000000000000000000000000000000000000000000000000000000000000000000000000000000000000000000000000000000002000000200000000000000000000000002000000000000000000020000000000000000000080000000000000000000000000000000000000000000000",
      "type": "0x2",
      "transactionHash": "0x3a0293e28054f6fa9a9f119f3b1647445fec1f073bff4fa1f7a0d816dca25135",
      "transactionIndex": "0x19",
      "blockHash": "0x7dea03a35410d766a45bf515e07db4e713baa1bd5f5dd61bc17e26bbd2f18438",
      "blockNumber": "0x284d",
      "gasUsed": "0x10a6d",
      "effectiveGasPrice": "0x8",
      "blobGasPrice": "0x1",
      "from": "0xf39fd6e51aad88f6f4ce6ab8827279cfffb92266",
      "to": "0x95401dc811bb5740090279ba06cfa8fcf6113778",
      "contractAddress": null,
      "blockTimestamp": 1775222505
    },
    {
      "status": "0x1",
      "cumulativeGasUsed": "0x812a63",
      "logs": [
        {
          "address": "0x851356ae760d987e095750cceb3bc6014560891c",
          "topics": [
            "0x8c5be1e5ebec7d5bd14f71427d1e84f3dd0314c0f7b2291e5b200ac8c7c3b925",
            "0x000000000000000000000000f39fd6e51aad88f6f4ce6ab8827279cfffb92266",
            "0x0000000000000000000000005eb3bc0a489c5a8288765d2336659ebca68fcd00"
          ],
          "data": "0x0000000000000000000000000000000000000000000000008ac7230489e80000",
          "blockHash": "0x7dea03a35410d766a45bf515e07db4e713baa1bd5f5dd61bc17e26bbd2f18438",
          "blockNumber": "0x284d",
          "blockTimestamp": "0x69cfbee9",
          "transactionHash": "0xfecbdbbd33f2363be6685b5e8172b5b5058af67e119830aaf64f07ff537c9c38",
          "transactionIndex": "0x1a",
          "logIndex": "0x10",
          "removed": false
        }
      ],
      "logsBloom": "0x00000000000000000000000000000000000400000000000000000000000000000000000000000000000000000000000000000000000000000000000000200000000000000000000000000000000000000000000000000010000000000000000000000000000000000000000100000020000000080000000000000000000000000000000000000000000000000000000000000000000000000000000000000000020000000000000000200000000000000000000000000000000000000000000000000000000000200000000000000000000000002000000000000000000000000010000000400000000000000000000000000000000000000000000000000000",
      "type": "0x2",
      "transactionHash": "0xfecbdbbd33f2363be6685b5e8172b5b5058af67e119830aaf64f07ff537c9c38",
      "transactionIndex": "0x1a",
      "blockHash": "0x7dea03a35410d766a45bf515e07db4e713baa1bd5f5dd61bc17e26bbd2f18438",
      "blockNumber": "0x284d",
      "gasUsed": "0xb365",
      "effectiveGasPrice": "0x8",
      "blobGasPrice": "0x1",
      "from": "0xf39fd6e51aad88f6f4ce6ab8827279cfffb92266",
      "to": "0x851356ae760d987e095750cceb3bc6014560891c",
      "contractAddress": null,
      "blockTimestamp": 1775222505
    },
    {
      "status": "0x1",
      "cumulativeGasUsed": "0x836bc4",
      "logs": [
        {
          "address": "0x851356ae760d987e095750cceb3bc6014560891c",
          "topics": [
            "0xddf252ad1be2c89b69c2b068fc378daa952ba7f163c4a11628f55a4df523b3ef",
            "0x000000000000000000000000f39fd6e51aad88f6f4ce6ab8827279cfffb92266",
            "0x0000000000000000000000005eb3bc0a489c5a8288765d2336659ebca68fcd00"
          ],
          "data": "0x0000000000000000000000000000000000000000000000008ac7230489e80000",
          "blockHash": "0x7dea03a35410d766a45bf515e07db4e713baa1bd5f5dd61bc17e26bbd2f18438",
          "blockNumber": "0x284d",
          "blockTimestamp": "0x69cfbee9",
          "transactionHash": "0x9664c39bb8f53f5bb609438b71307f0cca9a960bafd3844f9382e6d2f7ff8272",
          "transactionIndex": "0x1b",
          "logIndex": "0x11",
          "removed": false
        },
        {
          "address": "0x5eb3bc0a489c5a8288765d2336659ebca68fcd00",
          "topics": [
            "0x88df26d296ecbf594c8609f433503d1436d24afe03c0d9e5e29c8f6ed92ef9b4",
            "0x000000000000000000000000f39fd6e51aad88f6f4ce6ab8827279cfffb92266",
            "0x4554480000000000000000000000000000000000000000000000000000000000"
          ],
          "data": "0x0000000000000000000000000000000000000000000000008ac7230489e80000",
          "blockHash": "0x7dea03a35410d766a45bf515e07db4e713baa1bd5f5dd61bc17e26bbd2f18438",
          "blockNumber": "0x284d",
          "blockTimestamp": "0x69cfbee9",
          "transactionHash": "0x9664c39bb8f53f5bb609438b71307f0cca9a960bafd3844f9382e6d2f7ff8272",
          "transactionIndex": "0x1b",
          "logIndex": "0x12",
          "removed": false
        }
      ],
      "logsBloom": "0x00000000000000000000000000000008000400000000000000000000000000000000000000000000000000000000000000000000000000000001000000000000004800000080000000000008200000000000000000000010004000000000000000000000000000000000000100000020000000080000000000000010000000000800000000000000000000000000000000000000000000000000000000000000000000000000000000200000000000000000000000000000000000000000000000000002000000200000000000000000000000002000000000000000000000000000000000400000000000000000000000000000000000100000000000000000",
      "type": "0x2",
      "transactionHash": "0x9664c39bb8f53f5bb609438b71307f0cca9a960bafd3844f9382e6d2f7ff8272",
      "transactionIndex": "0x1b",
      "blockHash": "0x7dea03a35410d766a45bf515e07db4e713baa1bd5f5dd61bc17e26bbd2f18438",
      "blockNumber": "0x284d",
      "gasUsed": "0x24161",
      "effectiveGasPrice": "0x8",
      "blobGasPrice": "0x1",
      "from": "0xf39fd6e51aad88f6f4ce6ab8827279cfffb92266",
      "to": "0x5eb3bc0a489c5a8288765d2336659ebca68fcd00",
      "contractAddress": null,
      "blockTimestamp": 1775222505
    },
    {
      "status": "0x1",
      "cumulativeGasUsed": "0x864774",
      "logs": [
        {
          "address": "0x0e801d84fa97b50751dbf25036d067dcf18858bf",
          "topics": [
            "0xddf252ad1be2c89b69c2b068fc378daa952ba7f163c4a11628f55a4df523b3ef",
            "0x0000000000000000000000000000000000000000000000000000000000000000",
            "0x000000000000000000000000f39fd6e51aad88f6f4ce6ab8827279cfffb92266"
          ],
          "data": "0x00000000000000000000000000000000000000000000010f0cf064dd59200000",
          "blockHash": "0x7dea03a35410d766a45bf515e07db4e713baa1bd5f5dd61bc17e26bbd2f18438",
          "blockNumber": "0x284d",
          "blockTimestamp": "0x69cfbee9",
          "transactionHash": "0x7f4685eb08a0599b66e68e2607f43b52bdf5d346dcf0a1611479a64675b6da01",
          "transactionIndex": "0x1c",
          "logIndex": "0x13",
          "removed": false
        },
        {
          "address": "0x5eb3bc0a489c5a8288765d2336659ebca68fcd00",
          "topics": [
            "0x7ee657a21ac7f39b81c23a6f713ab60c53f4c04479e9a7847c08e2bc69862e80",
            "0x000000000000000000000000f39fd6e51aad88f6f4ce6ab8827279cfffb92266",
            "0x4554480000000000000000000000000000000000000000000000000000000000"
          ],
          "data": "0x00000000000000000000000000000000000000000000010f0cf064dd59200000",
          "blockHash": "0x7dea03a35410d766a45bf515e07db4e713baa1bd5f5dd61bc17e26bbd2f18438",
          "blockNumber": "0x284d",
          "blockTimestamp": "0x69cfbee9",
          "transactionHash": "0x7f4685eb08a0599b66e68e2607f43b52bdf5d346dcf0a1611479a64675b6da01",
          "transactionIndex": "0x1c",
          "logIndex": "0x14",
          "removed": false
        }
      ],
      "logsBloom": "0x00000000000000000000000000000008000000000000000000000000000000000000000000000000000000000000000000000000000000000000000000000000404800000000000000000008200000000000000000000000004000000000000000000000020000000000000100000800000000000000000000000010000000000000000000000000000000000020000000000000000000000000000000000000000000000000200000000000000000000000000000000000000000000000000000001002000000200000100000000000000000002000000000000000000020000000000000000800000000000000000000000000000000100000000000000000",
      "type": "0x2",
      "transactionHash": "0x7f4685eb08a0599b66e68e2607f43b52bdf5d346dcf0a1611479a64675b6da01",
      "transactionIndex": "0x1c",
      "blockHash": "0x7dea03a35410d766a45bf515e07db4e713baa1bd5f5dd61bc17e26bbd2f18438",
      "blockNumber": "0x284d",
      "gasUsed": "0x2dbb0",
      "effectiveGasPrice": "0x8",
      "blobGasPrice": "0x1",
      "from": "0xf39fd6e51aad88f6f4ce6ab8827279cfffb92266",
      "to": "0x5eb3bc0a489c5a8288765d2336659ebca68fcd00",
      "contractAddress": null,
      "blockTimestamp": 1775222505
    },
    {
      "status": "0x1",
      "cumulativeGasUsed": "0x86facd",
      "logs": [
        {
          "address": "0xf5059a5d33d5853360d16c683c16e67980206f36",
          "topics": [
            "0x8c5be1e5ebec7d5bd14f71427d1e84f3dd0314c0f7b2291e5b200ac8c7c3b925",
            "0x000000000000000000000000f39fd6e51aad88f6f4ce6ab8827279cfffb92266",
            "0x000000000000000000000000b7278a61aa25c888815afc32ad3cc52ff24fe575"
          ],
          "data": "0x000000000000000000000000000000000000000000000000000000174876e800",
          "blockHash": "0x7dea03a35410d766a45bf515e07db4e713baa1bd5f5dd61bc17e26bbd2f18438",
          "blockNumber": "0x284d",
          "blockTimestamp": "0x69cfbee9",
          "transactionHash": "0x530be36fed3e6eaee07efbf728b2019349a2c915ffb25cc7572a550e925ccf1a",
          "transactionIndex": "0x1d",
          "logIndex": "0x15",
          "removed": false
        }
      ],
      "logsBloom": "0x00000000000000000000000000000000000000000000000000000000000000000000000000000000000000000000000000800010000000000000000000200000000000000000000400000000000000000000000000000000000000000000000000000000000000000000000100000000000000000000000000000000000000000400000000000000000000000000000000000000000000000000000000000000020000000000000000000000000000000000000000000000000000000000000000000000000000200000000000000000000000002000000000000000000000000010000000000000800000000000000000000000000000000000000000000000",
      "type": "0x2",
      "transactionHash": "0x530be36fed3e6eaee07efbf728b2019349a2c915ffb25cc7572a550e925ccf1a",
      "transactionIndex": "0x1d",
      "blockHash": "0x7dea03a35410d766a45bf515e07db4e713baa1bd5f5dd61bc17e26bbd2f18438",
      "blockNumber": "0x284d",
      "gasUsed": "0xb359",
      "effectiveGasPrice": "0x8",
      "blobGasPrice": "0x1",
      "from": "0xf39fd6e51aad88f6f4ce6ab8827279cfffb92266",
      "to": "0xf5059a5d33d5853360d16c683c16e67980206f36",
      "contractAddress": null,
      "blockTimestamp": 1775222505
    },
    {
      "status": "0x1",
      "cumulativeGasUsed": "0x8b20f6",
      "logs": [
        {
          "address": "0xf5059a5d33d5853360d16c683c16e67980206f36",
          "topics": [
            "0xddf252ad1be2c89b69c2b068fc378daa952ba7f163c4a11628f55a4df523b3ef",
            "0x000000000000000000000000f39fd6e51aad88f6f4ce6ab8827279cfffb92266",
            "0x000000000000000000000000b7278a61aa25c888815afc32ad3cc52ff24fe575"
          ],
          "data": "0x000000000000000000000000000000000000000000000000000000174876e800",
          "blockHash": "0x7dea03a35410d766a45bf515e07db4e713baa1bd5f5dd61bc17e26bbd2f18438",
          "blockNumber": "0x284d",
          "blockTimestamp": "0x69cfbee9",
          "transactionHash": "0x80816450aee13eb60ec2c2e3b2a92c730b602f011df03cce4edf6fb739ed2c79",
          "transactionIndex": "0x1e",
          "logIndex": "0x16",
          "removed": false
        },
        {
          "address": "0x0e801d84fa97b50751dbf25036d067dcf18858bf",
          "topics": [
            "0xddf252ad1be2c89b69c2b068fc378daa952ba7f163c4a11628f55a4df523b3ef",
            "0x0000000000000000000000000000000000000000000000000000000000000000",
            "0x000000000000000000000000f39fd6e51aad88f6f4ce6ab8827279cfffb92266"
          ],
          "data": "0x0000000000000000000000000000000000000000000015279700831d93700000",
          "blockHash": "0x7dea03a35410d766a45bf515e07db4e713baa1bd5f5dd61bc17e26bbd2f18438",
          "blockNumber": "0x284d",
          "blockTimestamp": "0x69cfbee9",
          "transactionHash": "0x80816450aee13eb60ec2c2e3b2a92c730b602f011df03cce4edf6fb739ed2c79",
          "transactionIndex": "0x1e",
          "logIndex": "0x17",
          "removed": false
        },
        {
          "address": "0x0e801d84fa97b50751dbf25036d067dcf18858bf",
          "topics": [
            "0xddf252ad1be2c89b69c2b068fc378daa952ba7f163c4a11628f55a4df523b3ef",
            "0x0000000000000000000000000000000000000000000000000000000000000000",
            "0x000000000000000000000000b7278a61aa25c888815afc32ad3cc52ff24fe575"
          ],
          "data": "0x0000000000000000000000000000000000000000000000056bc75e2d63100000",
          "blockHash": "0x7dea03a35410d766a45bf515e07db4e713baa1bd5f5dd61bc17e26bbd2f18438",
          "blockNumber": "0x284d",
          "blockTimestamp": "0x69cfbee9",
          "transactionHash": "0x80816450aee13eb60ec2c2e3b2a92c730b602f011df03cce4edf6fb739ed2c79",
          "transactionIndex": "0x1e",
          "logIndex": "0x18",
          "removed": false
        },
        {
          "address": "0x0e801d84fa97b50751dbf25036d067dcf18858bf",
          "topics": [
            "0x8c5be1e5ebec7d5bd14f71427d1e84f3dd0314c0f7b2291e5b200ac8c7c3b925",
            "0x000000000000000000000000b7278a61aa25c888815afc32ad3cc52ff24fe575",
            "0x0000000000000000000000008f86403a4de0bb5791fa46b8e795c547942fe4cf"
          ],
          "data": "0x0000000000000000000000000000000000000000000000056bc75e2d63100000",
          "blockHash": "0x7dea03a35410d766a45bf515e07db4e713baa1bd5f5dd61bc17e26bbd2f18438",
          "blockNumber": "0x284d",
          "blockTimestamp": "0x69cfbee9",
          "transactionHash": "0x80816450aee13eb60ec2c2e3b2a92c730b602f011df03cce4edf6fb739ed2c79",
          "transactionIndex": "0x1e",
          "logIndex": "0x19",
          "removed": false
        },
        {
          "address": "0x0e801d84fa97b50751dbf25036d067dcf18858bf",
          "topics": [
            "0xddf252ad1be2c89b69c2b068fc378daa952ba7f163c4a11628f55a4df523b3ef",
            "0x000000000000000000000000b7278a61aa25c888815afc32ad3cc52ff24fe575",
            "0x0000000000000000000000008f86403a4de0bb5791fa46b8e795c547942fe4cf"
          ],
          "data": "0x0000000000000000000000000000000000000000000000056bc75e2d63100000",
          "blockHash": "0x7dea03a35410d766a45bf515e07db4e713baa1bd5f5dd61bc17e26bbd2f18438",
          "blockNumber": "0x284d",
          "blockTimestamp": "0x69cfbee9",
          "transactionHash": "0x80816450aee13eb60ec2c2e3b2a92c730b602f011df03cce4edf6fb739ed2c79",
          "transactionIndex": "0x1e",
          "logIndex": "0x1a",
          "removed": false
        },
        {
          "address": "0xb7278a61aa25c888815afc32ad3cc52ff24fe575",
          "topics": [
            "0xc91682597e50d783bf81329b763263cef72b0cda71f5e617e0bd4b4150f84403",
            "0x000000000000000000000000f39fd6e51aad88f6f4ce6ab8827279cfffb92266"
          ],
          "data": "0x000000000000000000000000000000000000000000000000000000174876e8000000000000000000000000000000000000000000000015279700831d937000000000000000000000000000000000000000000000000000056bc75e2d63100000",
          "blockHash": "0x7dea03a35410d766a45bf515e07db4e713baa1bd5f5dd61bc17e26bbd2f18438",
          "blockNumber": "0x284d",
          "blockTimestamp": "0x69cfbee9",
          "transactionHash": "0x80816450aee13eb60ec2c2e3b2a92c730b602f011df03cce4edf6fb739ed2c79",
          "transactionIndex": "0x1e",
          "logIndex": "0x1b",
          "removed": false
        }
      ],
      "logsBloom": "0x00000000000000000000000000000000000000000000000000000000000000000000000000000000000000000000000000800010000000000000000000600000400000000000000400000008000000001000000000000000000000000000000000000000020000000000000100000800000000000000000000000010000000000400000000000000000000000000000000000000000000000000000000020000020000000020200000000000000000000000000000080000000000000000000000000002000000200000100002400000000000002080000000000000000020000010100000000000800000000000000000000000000000000000000000000000",
      "type": "0x2",
      "transactionHash": "0x80816450aee13eb60ec2c2e3b2a92c730b602f011df03cce4edf6fb739ed2c79",
      "transactionIndex": "0x1e",
      "blockHash": "0x7dea03a35410d766a45bf515e07db4e713baa1bd5f5dd61bc17e26bbd2f18438",
      "blockNumber": "0x284d",
      "gasUsed": "0x42629",
      "effectiveGasPrice": "0x8",
      "blobGasPrice": "0x1",
      "from": "0xf39fd6e51aad88f6f4ce6ab8827279cfffb92266",
      "to": "0xb7278a61aa25c888815afc32ad3cc52ff24fe575",
      "contractAddress": null,
      "blockTimestamp": 1775222505
    },
    {
      "status": "0x1",
      "cumulativeGasUsed": "0x8bd467",
      "logs": [
        {
          "address": "0x0e801d84fa97b50751dbf25036d067dcf18858bf",
          "topics": [
            "0x8c5be1e5ebec7d5bd14f71427d1e84f3dd0314c0f7b2291e5b200ac8c7c3b925",
            "0x000000000000000000000000f39fd6e51aad88f6f4ce6ab8827279cfffb92266",
            "0x00000000000000000000000036c02da8a0983159322a80ffe9f24b1acff8b570"
          ],
          "data": "0x00000000000000000000000000000000000000000000006c6b935b8bbd400000",
          "blockHash": "0x7dea03a35410d766a45bf515e07db4e713baa1bd5f5dd61bc17e26bbd2f18438",
          "blockNumber": "0x284d",
          "blockTimestamp": "0x69cfbee9",
          "transactionHash": "0xa1445abf541b86df841b9d6712ba59bed0e1b17c5f8f89bef87c325257d8c81a",
          "transactionIndex": "0x1f",
          "logIndex": "0x1c",
          "removed": false
        }
      ],
      "logsBloom": "0x00000000000000000000000000000000000000000000000000000000000000000000000000000000000000000000000000000000000000000000000000200000400000000000000000000000000000000000000000000000000000000000000000000000000000000000000100000000000000000000000000000000000000000000000000000000000000000000000000000000000000000000000000000000020000000000200000004000000000000000000000000000000000000000000000000000000000200000100000000000000000002000000000000000000000000010000000000000000000000000000000000000000000000208000000000000",
      "type": "0x2",
      "transactionHash": "0xa1445abf541b86df841b9d6712ba59bed0e1b17c5f8f89bef87c325257d8c81a",
      "transactionIndex": "0x1f",
      "blockHash": "0x7dea03a35410d766a45bf515e07db4e713baa1bd5f5dd61bc17e26bbd2f18438",
      "blockNumber": "0x284d",
      "gasUsed": "0xb371",
      "effectiveGasPrice": "0x8",
      "blobGasPrice": "0x1",
      "from": "0xf39fd6e51aad88f6f4ce6ab8827279cfffb92266",
      "to": "0x0e801d84fa97b50751dbf25036d067dcf18858bf",
      "contractAddress": null,
      "blockTimestamp": 1775222505
    },
    {
      "status": "0x1",
      "cumulativeGasUsed": "0x8dab2f",
      "logs": [
        {
          "address": "0x0e801d84fa97b50751dbf25036d067dcf18858bf",
          "topics": [
            "0xddf252ad1be2c89b69c2b068fc378daa952ba7f163c4a11628f55a4df523b3ef",
            "0x000000000000000000000000f39fd6e51aad88f6f4ce6ab8827279cfffb92266",
            "0x00000000000000000000000036c02da8a0983159322a80ffe9f24b1acff8b570"
          ],
          "data": "0x00000000000000000000000000000000000000000000006c6b935b8bbd400000",
          "blockHash": "0x7dea03a35410d766a45bf515e07db4e713baa1bd5f5dd61bc17e26bbd2f18438",
          "blockNumber": "0x284d",
          "blockTimestamp": "0x69cfbee9",
          "transactionHash": "0xe288e6c76635cb2002d06c5d3577b4f42787df5c49bcb4afd31cb31a0b570e3d",
          "transactionIndex": "0x20",
          "logIndex": "0x1d",
          "removed": false
        },
        {
          "address": "0x36c02da8a0983159322a80ffe9f24b1acff8b570",
          "topics": [
            "0x2da466a7b24304f47e87fa2e1e5a81b9831ce54fec19055ce277ca2f39ba42c4",
            "0x000000000000000000000000f39fd6e51aad88f6f4ce6ab8827279cfffb92266"
          ],
          "data": "0x00000000000000000000000000000000000000000000006c6b935b8bbd400000",
          "blockHash": "0x7dea03a35410d766a45bf515e07db4e713baa1bd5f5dd61bc17e26bbd2f18438",
          "blockNumber": "0x284d",
          "blockTimestamp": "0x69cfbee9",
          "transactionHash": "0xe288e6c76635cb2002d06c5d3577b4f42787df5c49bcb4afd31cb31a0b570e3d",
          "transactionIndex": "0x20",
          "logIndex": "0x1e",
          "removed": false
        }
      ],
      "logsBloom": "0x00000000000000000000000000000000000000000000000000000000000000000000000000000000000000000000000000000200000000000000000000000000400000000000000000000008000000000000000000000000000000000000200000000000000000000000000100000000000000000000000000000010000200000000000000000000000000000000000000000000000000000000000000000000000001000000200000004000000000000000000000000000000000000000000000000002000000200000100000000000000000002000000000000000000000000040000000000000000000000000000000000000080000000208000000000000",
      "type": "0x2",
      "transactionHash": "0xe288e6c76635cb2002d06c5d3577b4f42787df5c49bcb4afd31cb31a0b570e3d",
      "transactionIndex": "0x20",
      "blockHash": "0x7dea03a35410d766a45bf515e07db4e713baa1bd5f5dd61bc17e26bbd2f18438",
      "blockNumber": "0x284d",
      "gasUsed": "0x1d6c8",
      "effectiveGasPrice": "0x8",
      "blobGasPrice": "0x1",
      "from": "0xf39fd6e51aad88f6f4ce6ab8827279cfffb92266",
      "to": "0x36c02da8a0983159322a80ffe9f24b1acff8b570",
      "contractAddress": null,
      "blockTimestamp": 1775222505
    }
  ],
  "libraries": [],
  "pending": [],
  "returns": {},
  "timestamp": 1775222505253,
  "chain": 42069,
  "commit": "35d73ef"
}