{
  "transactions": [
    {
      "hash": "0x53645fa63ae0577e80fc8fdc81f2304248567db190512e2a87aa49f63fdd377d",
      "transactionType": "CALL",
      "contractName": null,
      "contractAddress": "0xde2bd2ffea002b8e84adea96e5976af664115e2c",
      "function": "removeToken(address)",
      "arguments": [
        "0x5FbDB2315678afecb367f032d93F642f64180aa3"
      ],
      "transaction": {
        "from": "0xf39fd6e51aad88f6f4ce6ab8827279cfffb92266",
        "to": "0xde2bd2ffea002b8e84adea96e5976af664115e2c",
        "gas": "0x9171",
        "value": "0x0",
        "input": "0x5fa7b5840000000000000000000000005fbdb2315678afecb367f032d93f642f64180aa3",
        "nonce": "0x359",
        "chainId": "0xa455"
      },
      "additionalContracts": [],
      "isFixedGasLimit": false
    },
    {
      "hash": "0x3121ce9e49b7f7573a3a1e26639ec71de184435de404ff124e36d35585fe999c",
      "transactionType": "CALL",
      "contractName": null,
      "contractAddress": "0xde2bd2ffea002b8e84adea96e5976af664115e2c",
      "function": "removeToken(address)",
      "arguments": [
        "0xe7f1725E7734CE288F8367e1Bb143E90bb3F0512"
      ],
      "transaction": {
        "from": "0xf39fd6e51aad88f6f4ce6ab8827279cfffb92266",
        "to": "0xde2bd2ffea002b8e84adea96e5976af664115e2c",
        "gas": "0x9171",
        "value": "0x0",
        "input": "0x5fa7b584000000000000000000000000e7f1725e7734ce288f8367e1bb143e90bb3f0512",
        "nonce": "0x35a",
        "chainId": "0xa455"
      },
      "additionalContracts": [],
      "isFixedGasLimit": false
    },
    {
      "hash": "0x38c4cee0ced407c7ed9a687cf375603855ed2334cc771df763cf6472cb8b1ebe",
      "transactionType": "CALL",
      "contractName": null,
      "contractAddress": "0xde2bd2ffea002b8e84adea96e5976af664115e2c",
      "function": "removeToken(address)",
      "arguments": [
        "0x9fE46736679d2D9a65F0992F2272dE9f3c7fa6e0"
      ],
      "transaction": {
        "from": "0xf39fd6e51aad88f6f4ce6ab8827279cfffb92266",
        "to": "0xde2bd2ffea002b8e84adea96e5976af664115e2c",
        "gas": "0x9171",
        "value": "0x0",
        "input": "0x5fa7b5840000000000000000000000009fe46736679d2d9a65f0992f2272de9f3c7fa6e0",
        "nonce": "0x35b",
        "chainId": "0xa455"
      },
      "additionalContracts": [],
      "isFixedGasLimit": false
    },
    {
      "hash": "0xe757a8a36940918d21a351db9f408e51750e3451e2c3fabfa5f19d3b963c70c5",
      "transactionType": "CALL",
      "contractName": null,
      "contractAddress": "0xde2bd2ffea002b8e84adea96e5976af664115e2c",
      "function": "removeToken(address)",
      "arguments": [
        "0xCf7Ed3AccA5a467e9e704C703E8D87F634fB0Fc9"
      ],
      "transaction": {
        "from": "0xf39fd6e51aad88f6f4ce6ab8827279cfffb92266",
        "to": "0xde2bd2ffea002b8e84adea96e5976af664115e2c",
        "gas": "0x9171",
        "value": "0x0",
        "input": "0x5fa7b584000000000000000000000000cf7ed3acca5a467e9e704c703e8d87f634fb0fc9",
        "nonce": "0x35c",
        "chainId": "0xa455"
      },
      "additionalContracts": [],
      "isFixedGasLimit": false
    },
    {
      "hash": "0xfb55ae2318b2ee06f0f5b6fe86f31f25911d5ad7cb33961481d7e24f5356cbb2",
      "transactionType": "CALL",
      "contractName": null,
      "contractAddress": "0xde2bd2ffea002b8e84adea96e5976af664115e2c",
      "function": "removeToken(address)",
      "arguments": [
        "0x8198f5d8F8CfFE8f9C413d98a0A55aEB8ab9FbB7"
      ],
      "transaction": {
        "from": "0xf39fd6e51aad88f6f4ce6ab8827279cfffb92266",
        "to": "0xde2bd2ffea002b8e84adea96e5976af664115e2c",
        "gas": "0x9171",
        "value": "0x0",
        "input": "0x5fa7b5840000000000000000000000008198f5d8f8cffe8f9c413d98a0a55aeb8ab9fbb7",
        "nonce": "0x35d",
        "chainId": "0xa455"
      },
      "additionalContracts": [],
      "isFixedGasLimit": false
    },
    {
      "hash": "0x7c9b5c21fcc4c1878bb2aba54f64de512f0b6032f9f6786728f73d2bfbfcd966",
      "transactionType": "CALL",
      "contractName": null,
      "contractAddress": "0xde2bd2ffea002b8e84adea96e5976af664115e2c",
      "function": "setDefaultMaxAge(uint256)",
      "arguments": [
        "31536000"
      ],
      "transaction": {
        "from": "0xf39fd6e51aad88f6f4ce6ab8827279cfffb92266",
        "to": "0xde2bd2ffea002b8e84adea96e5976af664115e2c",
        "gas": "0xa3ab",
        "value": "0x0",
        "input": "0x2e9fac250000000000000000000000000000000000000000000000000000000001e13380",
        "nonce": "0x35e",
        "chainId": "0xa455"
      },
      "additionalContracts": [],
      "isFixedGasLimit": false
    },
    {
      "hash": "0x79b1462e8aa29900047ebdd5b9572dab0b4c59d2e3f38d28d4bb79313b12e745",
      "transactionType": "CALL",
      "contractName": null,
      "contractAddress": "0xde2bd2ffea002b8e84adea96e5976af664115e2c",
      "function": "registerToken(address,string,uint8,uint256)",
      "arguments": [
        "0x6533158b042775e2FdFeF3cA1a782EFDbB8EB9b1",
        "G$",
        "18",
        "31536000"
      ],
      "transaction": {
        "from": "0xf39fd6e51aad88f6f4ce6ab8827279cfffb92266",
        "to": "0xde2bd2ffea002b8e84adea96e5976af664115e2c",
        "gas": "0x30a24",
        "value": "0x0",
        "input": "0xa39e3e420000000000000000000000006533158b042775e2fdfef3ca1a782efdbb8eb9b1000000000000000000000000000000000000000000000000000000000000008000000000000000000000000000000000000000000000000000000000000000120000000000000000000000000000000000000000000000000000000001e1338000000000000000000000000000000000000000000000000000000000000000024724000000000000000000000000000000000000000000000000000000000000",
        "nonce": "0x35f",
        "chainId": "0xa455"
      },
      "additionalContracts": [],
      "isFixedGasLimit": false
    },
    {
      "hash": "0xc4e8a2d9b759e26940015e84f05a88d9c68235055964160ab1d8f55bbff08f35",
      "transactionType": "CALL",
      "contractName": null,
      "contractAddress": "0xde2bd2ffea002b8e84adea96e5976af664115e2c",
      "function": "registerToken(address,string,uint8,uint256)",
      "arguments": [
        "0x367761085BF3C12e5DA2Df99AC6E1a824612b8fb",
        "SwapGD",
        "18",
        "31536000"
      ],
      "transaction": {
        "from": "0xf39fd6e51aad88f6f4ce6ab8827279cfffb92266",
        "to": "0xde2bd2ffea002b8e84adea96e5976af664115e2c",
        "gas": "0x30a66",
        "value": "0x0",
        "input": "0xa39e3e42000000000000000000000000367761085bf3c12e5da2df99ac6e1a824612b8fb000000000000000000000000000000000000000000000000000000000000008000000000000000000000000000000000000000000000000000000000000000120000000000000000000000000000000000000000000000000000000001e1338000000000000000000000000000000000000000000000000000000000000000065377617047440000000000000000000000000000000000000000000000000000",
        "nonce": "0x360",
        "chainId": "0xa455"
      },
      "additionalContracts": [],
      "isFixedGasLimit": false
    },
    {
      "hash": "0x5bc637b49cb5480f2e96cd1bd265dc2494a13cf58751ee95b356126402782ff9",
      "transactionType": "CALL",
      "contractName": null,
      "contractAddress": "0xde2bd2ffea002b8e84adea96e5976af664115e2c",
      "function": "registerToken(address,string,uint8,uint256)",
      "arguments": [
        "0x7A9Ec1d04904907De0ED7b6839CcdD59c3716AC9",
        "WETH",
        "18",
        "31536000"
      ],
      "transaction": {
        "from": "0xf39fd6e51aad88f6f4ce6ab8827279cfffb92266",
        "to": "0xde2bd2ffea002b8e84adea96e5976af664115e2c",
        "gas": "0x30a46",
        "value": "0x0",
        "input": "0xa39e3e420000000000000000000000007a9ec1d04904907de0ed7b6839ccdd59c3716ac9000000000000000000000000000000000000000000000000000000000000008000000000000000000000000000000000000000000000000000000000000000120000000000000000000000000000000000000000000000000000000001e1338000000000000000000000000000000000000000000000000000000000000000045745544800000000000000000000000000000000000000000000000000000000",
        "nonce": "0x361",
        "chainId": "0xa455"
      },
      "additionalContracts": [],
      "isFixedGasLimit": false
    },
    {
      "hash": "0x12589c60c4dbdeb0ad8db3c58e561e36b00b23d6aab0c8d119bfe67bac09b77a",
      "transactionType": "CALL",
      "contractName": null,
      "contractAddress": "0xde2bd2ffea002b8e84adea96e5976af664115e2c",
      "function": "registerToken(address,string,uint8,uint256)",
      "arguments": [
        "0x4631BCAbD6dF18D94796344963cB60d44a4136b6",
        "USDC",
        "6",
        "31536000"
      ],
      "transaction": {
        "from": "0xf39fd6e51aad88f6f4ce6ab8827279cfffb92266",
        "to": "0xde2bd2ffea002b8e84adea96e5976af664115e2c",
        "gas": "0x30a46",
        "value": "0x0",
        "input": "0xa39e3e420000000000000000000000004631bcabd6df18d94796344963cb60d44a4136b6000000000000000000000000000000000000000000000000000000000000008000000000000000000000000000000000000000000000000000000000000000060000000000000000000000000000000000000000000000000000000001e1338000000000000000000000000000000000000000000000000000000000000000045553444300000000000000000000000000000000000000000000000000000000",
        "nonce": "0x362",
        "chainId": "0xa455"
      },
      "additionalContracts": [],
      "isFixedGasLimit": false
    },
    {
      "hash": "0x8e21376121e1885b834994241a69447de25ffdf10e66292c2eb35a8c2f7b7d52",
      "transactionType": "CALL",
      "contractName": null,
      "contractAddress": "0xde2bd2ffea002b8e84adea96e5976af664115e2c",
      "function": "adminSetPrice(address,uint256)",
      "arguments": [
        "0x6533158b042775e2FdFeF3cA1a782EFDbB8EB9b1",
        "1500000"
      ],
      "transaction": {
        "from": "0xf39fd6e51aad88f6f4ce6ab8827279cfffb92266",
        "to": "0xde2bd2ffea002b8e84adea96e5976af664115e2c",
        "gas": "0x1fbde",
        "value": "0x0",
        "input": "0x1cba0b290000000000000000000000006533158b042775e2fdfef3ca1a782efdbb8eb9b1000000000000000000000000000000000000000000000000000000000016e360",
        "nonce": "0x363",
        "chainId": "0xa455"
      },
      "additionalContracts": [],
      "isFixedGasLimit": false
    },
    {
      "hash": "0xf4cb45961e970c691513cdf930b6a7411c75821974e298b01a0179a49c6dc9bb",
      "transactionType": "CALL",
      "contractName": null,
      "contractAddress": "0xde2bd2ffea002b8e84adea96e5976af664115e2c",
      "function": "adminSetPrice(address,uint256)",
      "arguments": [
        "0x367761085BF3C12e5DA2Df99AC6E1a824612b8fb",
        "1500000"
      ],
      "transaction": {
        "from": "0xf39fd6e51aad88f6f4ce6ab8827279cfffb92266",
        "to": "0xde2bd2ffea002b8e84adea96e5976af664115e2c",
        "gas": "0x1fbde",
        "value": "0x0",
        "input": "0x1cba0b29000000000000000000000000367761085bf3c12e5da2df99ac6e1a824612b8fb000000000000000000000000000000000000000000000000000000000016e360",
        "nonce": "0x364",
        "chainId": "0xa455"
      },
      "additionalContracts": [],
      "isFixedGasLimit": false
    },
    {
      "hash": "0x5249003b2cfca0951324e21164585538f8292ba2537617a59c34a8d9f55a8d14",
      "transactionType": "CALL",
      "contractName": null,
      "contractAddress": "0xde2bd2ffea002b8e84adea96e5976af664115e2c",
      "function": "adminSetPrice(address,uint256)",
      "arguments": [
        "0x7A9Ec1d04904907De0ED7b6839CcdD59c3716AC9",
        "350000000000"
      ],
      "transaction": {
        "from": "0xf39fd6e51aad88f6f4ce6ab8827279cfffb92266",
        "to": "0xde2bd2ffea002b8e84adea96e5976af664115e2c",
        "gas": "0x1fbed",
        "value": "0x0",
        "input": "0x1cba0b290000000000000000000000007a9ec1d04904907de0ed7b6839ccdd59c3716ac9000000000000000000000000000000000000000000000000000000517da02c00",
        "nonce": "0x365",
        "chainId": "0xa455"
      },
      "additionalContracts": [],
      "isFixedGasLimit": false
    },
    {
      "hash": "0x10227b964ec4f4339afbe94ac689a95429cae2182590918315948495c1867856",
      "transactionType": "CALL",
      "contractName": null,
      "contractAddress": "0xde2bd2ffea002b8e84adea96e5976af664115e2c",
      "function": "adminSetPrice(address,uint256)",
      "arguments": [
        "0x4631BCAbD6dF18D94796344963cB60d44a4136b6",
        "100000000"
      ],
      "transaction": {
        "from": "0xf39fd6e51aad88f6f4ce6ab8827279cfffb92266",
        "to": "0xde2bd2ffea002b8e84adea96e5976af664115e2c",
        "gas": "0x1fbde",
        "value": "0x0",
        "input": "0x1cba0b290000000000000000000000004631bcabd6df18d94796344963cb60d44a4136b60000000000000000000000000000000000000000000000000000000005f5e100",
        "nonce": "0x366",
        "chainId": "0xa455"
      },
      "additionalContracts": [],
      "isFixedGasLimit": false
    }
  ],
  "receipts": [
    {
      "status": "0x1",
      "cumulativeGasUsed": "0x6373",
      "logs": [
        {
          "address": "0xde2bd2ffea002b8e84adea96e5976af664115e2c",
          "topics": [
            "0x4c910b69fe65a61f7531b9c5042b2329ca7179c77290aa7e2eb3afa3c8511fd3",
            "0x0000000000000000000000005fbdb2315678afecb367f032d93f642f64180aa3"
          ],
          "data": "0x",
          "blockHash": "0x46f36070aa7d4f1331cb36d13454657fc3cba8db3df7244bdc4e2205fdd81ed8",
          "blockNumber": "0xdef0",
          "blockTimestamp": "0x69d12bf2",
          "transactionHash": "0x53645fa63ae0577e80fc8fdc81f2304248567db190512e2a87aa49f63fdd377d",
          "transactionIndex": "0x0",
          "logIndex": "0x0",
          "removed": false
        }
      ],
      "logsBloom": "0x00000000000000000000000000000000000000000000000000000000000000000000000000000000000000000000000000000000000000000000000000000000000000000000000000000000000004000000000000004000000000000000000000000000000000000000000000800000000004010000000000000000000000000000000000000000000000000000000000000000000000000000000000000000000000000000000000000000000000000000000000000000000080000000000000000000000000000000000000000000000000000008000000000000000000000000000000000000000000000000000000000000000000000000000000000022",
      "type": "0x0",
      "transactionHash": "0x53645fa63ae0577e80fc8fdc81f2304248567db190512e2a87aa49f63fdd377d",
      "transactionIndex": "0x0",
      "blockHash": "0x46f36070aa7d4f1331cb36d13454657fc3cba8db3df7244bdc4e2205fdd81ed8",
      "blockNumber": "0xdef0",
      "gasUsed": "0x6373",
      "effectiveGasPrice": "0x3b9aca07",
      "blobGasPrice": "0x1",
      "from": "0xf39fd6e51aad88f6f4ce6ab8827279cfffb92266",
      "to": "0xde2bd2ffea002b8e84adea96e5976af664115e2c",
      "contractAddress": null,
      "blockTimestamp": 1775315954
    },
    {
      "status": "0x1",
      "cumulativeGasUsed": "0xc6e6",
      "logs": [
        {
          "address": "0xde2bd2ffea002b8e84adea96e5976af664115e2c",
          "topics": [
            "0x4c910b69fe65a61f7531b9c5042b2329ca7179c77290aa7e2eb3afa3c8511fd3",
            "0x000000000000000000000000e7f1725e7734ce288f8367e1bb143e90bb3f0512"
          ],
          "data": "0x",
          "blockHash": "0x46f36070aa7d4f1331cb36d13454657fc3cba8db3df7244bdc4e2205fdd81ed8",
          "blockNumber": "0xdef0",
          "blockTimestamp": "0x69d12bf2",
          "transactionHash": "0xe757a8a36940918d21a351db9f408e51750e3451e2c3fabfa5f19d3b963c70c5",
          "transactionIndex": "0x1",
          "logIndex": "0x1",
          "removed": false
        }
      ],
      "logsBloom": "0x00000000000000000400000000000000000000000000000000000000000000000000000000000000000000000000000000000000000000000000000000000000000000000000000000000000000004000000000000004000000000000000000000000000000000000000000000000000000000010000000000000004000000000000000000000000000000000000000000000000000000000000000000000000000000000000000000000002000000000000000000000000000080000000000000000000000000000000000000000000000000000000000000000000000000000000000000000000000000000000000000000000000000000000000000000022",
      "type": "0x0",
      "transactionHash": "0xe757a8a36940918d21a351db9f408e51750e3451e2c3fabfa5f19d3b963c70c5",
      "transactionIndex": "0x1",
      "blockHash": "0x46f36070aa7d4f1331cb36d13454657fc3cba8db3df7244bdc4e2205fdd81ed8",
      "blockNumber": "0xdef0",
      "gasUsed": "0x6373",
      "effectiveGasPrice": "0x3b9aca07",
      "blobGasPrice": "0x1",
      "from": "0xf39fd6e51aad88f6f4ce6ab8827279cfffb92266",
      "to": "0xde2bd2ffea002b8e84adea96e5976af664115e2c",
      "contractAddress": null,
      "blockTimestamp": 1775315954
    },
    {
      "status": "0x1",
      "cumulativeGasUsed": "0x12a59",
      "logs": [
        {
          "address": "0xde2bd2ffea002b8e84adea96e5976af664115e2c",
          "topics": [
            "0x4c910b69fe65a61f7531b9c5042b2329ca7179c77290aa7e2eb3afa3c8511fd3",
            "0x0000000000000000000000009fe46736679d2d9a65f0992f2272de9f3c7fa6e0"
          ],
          "data": "0x",
          "blockHash": "0x46f36070aa7d4f1331cb36d13454657fc3cba8db3df7244bdc4e2205fdd81ed8",
          "blockNumber": "0xdef0",
          "blockTimestamp": "0x69d12bf2",
          "transactionHash": "0x3121ce9e49b7f7573a3a1e26639ec71de184435de404ff124e36d35585fe999c",
          "transactionIndex": "0x2",
          "logIndex": "0x2",
          "removed": false
        }
      ],
      "logsBloom": "0x00000000000000000000000000000000000000000000000000000000000000000000000000000000000400000000000000400000000000000000000000000000000000000000000000000000000004000000000000004000000000000000400000000000000000000000000000000000000000010000000000000000000000000000000000000000000000000000000000000000000000000000000000000000000000000000000000000000000000000000000000000000000080000000000000000000000000000000000000000000000000000000000000000000000000000000000000000000000000000000000000000000000000000000000000000022",
      "type": "0x0",
      "transactionHash": "0x3121ce9e49b7f7573a3a1e26639ec71de184435de404ff124e36d35585fe999c",
      "transactionIndex": "0x2",
      "blockHash": "0x46f36070aa7d4f1331cb36d13454657fc3cba8db3df7244bdc4e2205fdd81ed8",
      "blockNumber": "0xdef0",
      "gasUsed": "0x6373",
      "effectiveGasPrice": "0x3b9aca07",
      "blobGasPrice": "0x1",
      "from": "0xf39fd6e51aad88f6f4ce6ab8827279cfffb92266",
      "to": "0xde2bd2ffea002b8e84adea96e5976af664115e2c",
      "contractAddress": null,
      "blockTimestamp": 1775315954
    },
    {
      "status": "0x1",
      "cumulativeGasUsed": "0x18dcc",
      "logs": [
        {
          "address": "0xde2bd2ffea002b8e84adea96e5976af664115e2c",
          "topics": [
            "0x4c910b69fe65a61f7531b9c5042b2329ca7179c77290aa7e2eb3afa3c8511fd3",
            "0x000000000000000000000000cf7ed3acca5a467e9e704c703e8d87f634fb0fc9"
          ],
          "data": "0x",
          "blockHash": "0x46f36070aa7d4f1331cb36d13454657fc3cba8db3df7244bdc4e2205fdd81ed8",
          "blockNumber": "0xdef0",
          "blockTimestamp": "0x69d12bf2",
          "transactionHash": "0x12589c60c4dbdeb0ad8db3c58e561e36b00b23d6aab0c8d119bfe67bac09b77a",
          "transactionIndex": "0x3",
          "logIndex": "0x3",
          "removed": false
        }
      ],
      "logsBloom": "0x00000000000000000000000000000000000000000000000000000000000000000000000000000080000000000000000000000000000000000000000000000000000000000000000000000000000004000000000000004000000000000000000000000000000000000000000000000000000000010000000000000000000000000000000000000000000000000000000000000000000000000000000000000000000000001000000000000000000000000000000000000000000080000000000000000000000000000000000000000000000000000000000000000000000000000000000000000000008000000000000000000000000000000000000000000022",
      "type": "0x0",
      "transactionHash": "0x12589c60c4dbdeb0ad8db3c58e561e36b00b23d6aab0c8d119bfe67bac09b77a",
      "transactionIndex": "0x3",
      "blockHash": "0x46f36070aa7d4f1331cb36d13454657fc3cba8db3df7244bdc4e2205fdd81ed8",
      "blockNumber": "0xdef0",
      "gasUsed": "0x6373",
      "effectiveGasPrice": "0x3b9aca07",
      "blobGasPrice": "0x1",
      "from": "0xf39fd6e51aad88f6f4ce6ab8827279cfffb92266",
      "to": "0xde2bd2ffea002b8e84adea96e5976af664115e2c",
      "contractAddress": null,
      "blockTimestamp": 1775315954
    },
    {
      "status": "0x1",
      "cumulativeGasUsed": "0x1f13f",
      "logs": [
        {
          "address": "0xde2bd2ffea002b8e84adea96e5976af664115e2c",
          "topics": [
            "0x4c910b69fe65a61f7531b9c5042b2329ca7179c77290aa7e2eb3afa3c8511fd3",
            "0x0000000000000000000000008198f5d8f8cffe8f9c413d98a0a55aeb8ab9fbb7"
          ],
          "data": "0x",
          "blockHash": "0x46f36070aa7d4f1331cb36d13454657fc3cba8db3df7244bdc4e2205fdd81ed8",
          "blockNumber": "0xdef0",
          "blockTimestamp": "0x69d12bf2",
          "transactionHash": "0x5249003b2cfca0951324e21164585538f8292ba2537617a59c34a8d9f55a8d14",
          "transactionIndex": "0x4",
          "logIndex": "0x4",
          "removed": false
        }
      ],
      "logsBloom": "0x00000000000000000000000000000000000000000000000000100000000000000000000000000000000000000000000000000000000000000000000000000000000000000000000000000000000004000000000000004000000000000000000000000000000000000000000000000000000000010000000000000000000000000000000000000000000000000000000000000000000000000000000000000000000000000000000000000000000000000000000000000000000080000040000000000000000000000000000000000000000000000000000000000000000000020000000000000000000000000000000000000000000000000000000000000022",
      "type": "0x0",
      "transactionHash": "0x5249003b2cfca0951324e21164585538f8292ba2537617a59c34a8d9f55a8d14",
      "transactionIndex": "0x4",
      "blockHash": "0x46f36070aa7d4f1331cb36d13454657fc3cba8db3df7244bdc4e2205fdd81ed8",
      "blockNumber": "0xdef0",
      "gasUsed": "0x6373",
      "effectiveGasPrice": "0x3b9aca07",
      "blobGasPrice": "0x1",
      "from": "0xf39fd6e51aad88f6f4ce6ab8827279cfffb92266",
      "to": "0xde2bd2ffea002b8e84adea96e5976af664115e2c",
      "contractAddress": null,
      "blockTimestamp": 1775315954
    },
    {
      "status": "0x1",
      "cumulativeGasUsed": "0x26128",
      "logs": [],
      "logsBloom": "0x00000000000000000000000000000000000000000000000000000000000000000000000000000000000000000000000000000000000000000000000000000000000000000000000000000000000000000000000000000000000000000000000000000000000000000000000000000000000000000000000000000000000000000000000000000000000000000000000000000000000000000000000000000000000000000000000000000000000000000000000000000000000000000000000000000000000000000000000000000000000000000000000000000000000000000000000000000000000000000000000000000000000000000000000000000000",
      "type": "0x0",
      "transactionHash": "0xf4cb45961e970c691513cdf930b6a7411c75821974e298b01a0179a49c6dc9bb",
      "transactionIndex": "0x5",
      "blockHash": "0x46f36070aa7d4f1331cb36d13454657fc3cba8db3df7244bdc4e2205fdd81ed8",
      "blockNumber": "0xdef0",
      "gasUsed": "0x6fe9",
      "effectiveGasPrice": "0x3b9aca07",
      "blobGasPrice": "0x1",
      "from": "0xf39fd6e51aad88f6f4ce6ab8827279cfffb92266",
      "to": "0xde2bd2ffea002b8e84adea96e5976af664115e2c",
      "contractAddress": null,
      "blockTimestamp": 1775315954
    },
    {
      "status": "0x1",
      "cumulativeGasUsed": "0x49485",
      "logs": [
        {
          "address": "0xde2bd2ffea002b8e84adea96e5976af664115e2c",
          "topics": [
            "0xcf66acda7673c71cd9458c59067eb30a473eeaf2fa05d008acf47616cbbbe01c",
            "0x0000000000000000000000006533158b042775e2fdfef3ca1a782efdbb8eb9b1"
          ],
          "data": "0x0000000000000000000000000000000000000000000000000000000000000040000000000000000000000000000000000000000000000000000000000000001200000000000000000000000000000000000000000000000000000000000000024724000000000000000000000000000000000000000000000000000000000000",
          "blockHash": "0x46f36070aa7d4f1331cb36d13454657fc3cba8db3df7244bdc4e2205fdd81ed8",
          "blockNumber": "0xdef0",
          "blockTimestamp": "0x69d12bf2",
          "transactionHash": "0xfb55ae2318b2ee06f0f5b6fe86f31f25911d5ad7cb33961481d7e24f5356cbb2",
          "transactionIndex": "0x6",
          "logIndex": "0x5",
          "removed": false
        }
      ],
      "logsBloom": "0x00000000000000000008000000000000000000000000000000000000000000000000000000000000200000000000000000000000000000000000000000008000000000000000000000000000000000000000000000000000000000000000000000000000000000000000000000000000000800010000000000000000000000000000000000000000000000000000000000000000000000000000000000000000000020000000000000000000000000000000000000000000000000000000000000000000000000000000000000000000000000000000000000000000000000000000000000000000000000000000000000000000000000000000400000000022",
      "type": "0x0",
      "transactionHash": "0xfb55ae2318b2ee06f0f5b6fe86f31f25911d5ad7cb33961481d7e24f5356cbb2",
      "transactionIndex": "0x6",
      "blockHash": "0x46f36070aa7d4f1331cb36d13454657fc3cba8db3df7244bdc4e2205fdd81ed8",
      "blockNumber": "0xdef0",
      "gasUsed": "0x2335d",
      "effectiveGasPrice": "0x3b9aca07",
      "blobGasPrice": "0x1",
      "from": "0xf39fd6e51aad88f6f4ce6ab8827279cfffb92266",
      "to": "0xde2bd2ffea002b8e84adea96e5976af664115e2c",
      "contractAddress": null,
      "blockTimestamp": 1775315954
    },
    {
      "status": "0x1",
      "cumulativeGasUsed": "0x6c812",
      "logs": [
        {
          "address": "0xde2bd2ffea002b8e84adea96e5976af664115e2c",
          "topics": [
            "0xcf66acda7673c71cd9458c59067eb30a473eeaf2fa05d008acf47616cbbbe01c",
            "0x000000000000000000000000367761085bf3c12e5da2df99ac6e1a824612b8fb"
          ],
          "data": "0x0000000000000000000000000000000000000000000000000000000000000040000000000000000000000000000000000000000000000000000000000000001200000000000000000000000000000000000000000000000000000000000000065377617047440000000000000000000000000000000000000000000000000000",
          "blockHash": "0x46f36070aa7d4f1331cb36d13454657fc3cba8db3df7244bdc4e2205fdd81ed8",
          "blockNumber": "0xdef0",
          "blockTimestamp": "0x69d12bf2",
          "transactionHash": "0x7c9b5c21fcc4c1878bb2aba54f64de512f0b6032f9f6786728f73d2bfbfcd966",
          "transactionIndex": "0x7",
          "logIndex": "0x6",
          "removed": false
        }
      ],
      "logsBloom": "0x000000000000000000000000000000000000000000000000000000000000000000000000000000000000000000000000000000000000000000000000000000000000000000000000000000000000000000000000000000000000000000000000000000000000000000000000000000000008000100000000000000000000000000000000000000000000000000000000000000000000000000000000000000000000a0000000000000000000000000000000000000000000000080000000000000000000000000000000000000000000000000000000000000000000000000000008000000000000000000000000000000000000000000000000400000000022",
      "type": "0x0",
      "transactionHash": "0x7c9b5c21fcc4c1878bb2aba54f64de512f0b6032f9f6786728f73d2bfbfcd966",
      "transactionIndex": "0x7",
      "blockHash": "0x46f36070aa7d4f1331cb36d13454657fc3cba8db3df7244bdc4e2205fdd81ed8",
      "blockNumber": "0xdef0",
      "gasUsed": "0x2338d",
      "effectiveGasPrice": "0x3b9aca07",
      "blobGasPrice": "0x1",
      "from": "0xf39fd6e51aad88f6f4ce6ab8827279cfffb92266",
      "to": "0xde2bd2ffea002b8e84adea96e5976af664115e2c",
      "contractAddress": null,
      "blockTimestamp": 1775315954
    },
    {
      "status": "0x1",
      "cumulativeGasUsed": "0x8fb87",
      "logs": [
        {
          "address": "0xde2bd2ffea002b8e84adea96e5976af664115e2c",
          "topics": [
            "0xcf66acda7673c71cd9458c59067eb30a473eeaf2fa05d008acf47616cbbbe01c",
            "0x0000000000000000000000007a9ec1d04904907de0ed7b6839ccdd59c3716ac9"
          ],
          "data": "0x0000000000000000000000000000000000000000000000000000000000000040000000000000000000000000000000000000000000000000000000000000001200000000000000000000000000000000000000000000000000000000000000045745544800000000000000000000000000000000000000000000000000000000",
          "blockHash": "0x46f36070aa7d4f1331cb36d13454657fc3cba8db3df7244bdc4e2205fdd81ed8",
          "blockNumber": "0xdef0",
          "blockTimestamp": "0x69d12bf2",
          "transactionHash": "0x10227b964ec4f4339afbe94ac689a95429cae2182590918315948495c1867856",
          "transactionIndex": "0x8",
          "logIndex": "0x7",
          "removed": false
        }
      ],
      "logsBloom": "0x00000000000000000000000000000000000000000000000000000000000000000000000000000000000000000000000000000000000000000000000000000000000000000000000000000000000000000000000000000000000000000000000000000000000000000200000000000000000800010000000000000000000000000000000000001000000000000000000000000000000000000000000000000000000020000000000000000000000000000000000000000000000000000000000000000000000000020000000000000000000000000000000000000000000000000000000000000000000000000000000000000000000000000000400000000022",
      "type": "0x0",
      "transactionHash": "0x10227b964ec4f4339afbe94ac689a95429cae2182590918315948495c1867856",
      "transactionIndex": "0x8",
      "blockHash": "0x46f36070aa7d4f1331cb36d13454657fc3cba8db3df7244bdc4e2205fdd81ed8",
      "blockNumber": "0xdef0",
      "gasUsed": "0x23375",
      "effectiveGasPrice": "0x3b9aca07",
      "blobGasPrice": "0x1",
      "from": "0xf39fd6e51aad88f6f4ce6ab8827279cfffb92266",
      "to": "0xde2bd2ffea002b8e84adea96e5976af664115e2c",
      "contractAddress": null,
      "blockTimestamp": 1775315954
    },
    {
      "status": "0x1",
      "cumulativeGasUsed": "0xb2efc",
      "logs": [
        {
          "address": "0xde2bd2ffea002b8e84adea96e5976af664115e2c",
          "topics": [
            "0xcf66acda7673c71cd9458c59067eb30a473eeaf2fa05d008acf47616cbbbe01c",
            "0x0000000000000000000000004631bcabd6df18d94796344963cb60d44a4136b6"
          ],
          "data": "0x0000000000000000000000000000000000000000000000000000000000000040000000000000000000000000000000000000000000000000000000000000000600000000000000000000000000000000000000000000000000000000000000045553444300000000000000000000000000000000000000000000000000000000",
          "blockHash": "0x46f36070aa7d4f1331cb36d13454657fc3cba8db3df7244bdc4e2205fdd81ed8",
          "blockNumber": "0xdef0",
          "blockTimestamp": "0x69d12bf2",
          "transactionHash": "0x8e21376121e1885b834994241a69447de25ffdf10e66292c2eb35a8c2f7b7d52",
          "transactionIndex": "0x9",
          "logIndex": "0x8",
          "removed": false
        }
      ],
      "logsBloom": "0x00000000000000000000000000000000000000000000000200000000000000000000000000000000000000000000000000000000000000000000000000000000000000000000000000000000000000000000000000000000000000000000000000000000000000000000000000000000000800010000000000080000000000000000000000000000000000000000000000000000000000000000000000000000000020000000000000000000000000000000000000000000000000000000000000000000000000000000000000000000000000000000000000000000000000000000000000000000000000000000000000000000000000000000400000008022",
      "type": "0x0",
      "transactionHash": "0x8e21376121e1885b834994241a69447de25ffdf10e66292c2eb35a8c2f7b7d52",
      "transactionIndex": "0x9",
      "blockHash": "0x46f36070aa7d4f1331cb36d13454657fc3cba8db3df7244bdc4e2205fdd81ed8",
      "blockNumber": "0xdef0",
      "gasUsed": "0x23375",
      "effectiveGasPrice": "0x3b9aca07",
      "blobGasPrice": "0x1",
      "from": "0xf39fd6e51aad88f6f4ce6ab8827279cfffb92266",
      "to": "0xde2bd2ffea002b8e84adea96e5976af664115e2c",
      "contractAddress": null,
      "blockTimestamp": 1775315954
    },
    {
      "status": "0x1",
      "cumulativeGasUsed": "0xc9eac",
      "logs": [
        {
          "address": "0xde2bd2ffea002b8e84adea96e5976af664115e2c",
          "topics": [
            "0x2cd47ae4fa4d09fd4f3ee4b1bfeabb59b278a8dd8770113c29e005c237bfa7aa",
            "0x0000000000000000000000006533158b042775e2fdfef3ca1a782efdbb8eb9b1"
          ],
          "data": "0x000000000000000000000000000000000000000000000000000000000016e360",
          "blockHash": "0x46f36070aa7d4f1331cb36d13454657fc3cba8db3df7244bdc4e2205fdd81ed8",
          "blockNumber": "0xdef0",
          "blockTimestamp": "0x69d12bf2",
          "transactionHash": "0x79b1462e8aa29900047ebdd5b9572dab0b4c59d2e3f38d28d4bb79313b12e745",
          "transactionIndex": "0xa",
          "logIndex": "0x9",
          "removed": false
        }
      ],
      "logsBloom": "0x00000000000000000008000000000000000000000000000000000000000000000000000000000000200000000000000000000000000000000000000000008000000000000000000000000000000000000000000000000000000000000000000000000000000002000000000000000000002000010000000000000000000000000000000000000000000000000000000000000400000000000000000000000000000000000000000000000000000000000000000000000000000000000000000000000000000000000000000000000000000000000000000000000000000000000000000000000000000000000000000000000000000000000000000000000022",
      "type": "0x0",
      "transactionHash": "0x79b1462e8aa29900047ebdd5b9572dab0b4c59d2e3f38d28d4bb79313b12e745",
      "transactionIndex": "0xa",
      "blockHash": "0x46f36070aa7d4f1331cb36d13454657fc3cba8db3df7244bdc4e2205fdd81ed8",
      "blockNumber": "0xdef0",
      "gasUsed": "0x16fb0",
      "effectiveGasPrice": "0x3b9aca07",
      "blobGasPrice": "0x1",
      "from": "0xf39fd6e51aad88f6f4ce6ab8827279cfffb92266",
      "to": "0xde2bd2ffea002b8e84adea96e5976af664115e2c",
      "contractAddress": null,
      "blockTimestamp": 1775315954
    },
    {
      "status": "0x1",
      "cumulativeGasUsed": "0xe0e5c",
      "logs": [
        {
          "address": "0xde2bd2ffea002b8e84adea96e5976af664115e2c",
          "topics": [
            "0x2cd47ae4fa4d09fd4f3ee4b1bfeabb59b278a8dd8770113c29e005c237bfa7aa",
            "0x000000000000000000000000367761085bf3c12e5da2df99ac6e1a824612b8fb"
          ],
          "data": "0x000000000000000000000000000000000000000000000000000000000016e360",
          "blockHash": "0x46f36070aa7d4f1331cb36d13454657fc3cba8db3df7244bdc4e2205fdd81ed8",
          "blockNumber": "0xdef0",
          "blockTimestamp": "0x69d12bf2",
          "transactionHash": "0x5bc637b49cb5480f2e96cd1bd265dc2494a13cf58751ee95b356126402782ff9",
          "transactionIndex": "0xb",
          "logIndex": "0xa",
          "removed": false
        }
      ],
      "logsBloom": "0x00000000000000000000000000000000000000000000000000000000000000000000000000000000000000000000000000000000000000000000000000000000000000000000000000000000000000000000000000000000000000000000000000000000000002000000000000000000002000010000000000000000000000000000000000000000000000000000000000000400000000000000000000000000000080000000000000000000000000000000000000000000000080000000000000000000000000000000000000000000000000000000000000000000000000000008000000000000000000000000000000000000000000000000000000000022",
      "type": "0x0",
      "transactionHash": "0x5bc637b49cb5480f2e96cd1bd265dc2494a13cf58751ee95b356126402782ff9",
      "transactionIndex": "0xb",
      "blockHash": "0x46f36070aa7d4f1331cb36d13454657fc3cba8db3df7244bdc4e2205fdd81ed8",
      "blockNumber": "0xdef0",
      "gasUsed": "0x16fb0",
      "effectiveGasPrice": "0x3b9aca07",
      "blobGasPrice": "0x1",
      "from": "0xf39fd6e51aad88f6f4ce6ab8827279cfffb92266",
      "to": "0xde2bd2ffea002b8e84adea96e5976af664115e2c",
      "contractAddress": null,
      "blockTimestamp": 1775315954
    },
    {
      "status": "0x1",
      "cumulativeGasUsed": "0xf7e18",
      "logs": [
        {
          "address": "0xde2bd2ffea002b8e84adea96e5976af664115e2c",
          "topics": [
            "0x2cd47ae4fa4d09fd4f3ee4b1bfeabb59b278a8dd8770113c29e005c237bfa7aa",
            "0x0000000000000000000000007a9ec1d04904907de0ed7b6839ccdd59c3716ac9"
          ],
          "data": "0x000000000000000000000000000000000000000000000000000000517da02c00",
          "blockHash": "0x46f36070aa7d4f1331cb36d13454657fc3cba8db3df7244bdc4e2205fdd81ed8",
          "blockNumber": "0xdef0",
          "blockTimestamp": "0x69d12bf2",
          "transactionHash": "0xc4e8a2d9b759e26940015e84f05a88d9c68235055964160ab1d8f55bbff08f35",
          "transactionIndex": "0xc",
          "logIndex": "0xb",
          "removed": false
        }
      ],
      "logsBloom": "0x00000000000000000000000000000000000000000000000000000000000000000000000000000000000000000000000000000000000000000000000000000000000000000000000000000000000000000000000000000000000000000000000000000000000002000200000000000000002000010000000000000000000000000000000000001000000000000000000000000400000000000000000000000000000000000000000000000000000000000000000000000000000000000000000000000000000000020000000000000000000000000000000000000000000000000000000000000000000000000000000000000000000000000000000000000022",
      "type": "0x0",
      "transactionHash": "0xc4e8a2d9b759e26940015e84f05a88d9c68235055964160ab1d8f55bbff08f35",
      "transactionIndex": "0xc",
      "blockHash": "0x46f36070aa7d4f1331cb36d13454657fc3cba8db3df7244bdc4e2205fdd81ed8",
      "blockNumber": "0xdef0",
      "gasUsed": "0x16fbc",
      "effectiveGasPrice": "0x3b9aca07",
      "blobGasPrice": "0x1",
      "from": "0xf39fd6e51aad88f6f4ce6ab8827279cfffb92266",
      "to": "0xde2bd2ffea002b8e84adea96e5976af664115e2c",
      "contractAddress": null,
      "blockTimestamp": 1775315954
    },
    {
      "status": "0x1",
      "cumulativeGasUsed": "0x10edc8",
      "logs": [
        {
          "address": "0xde2bd2ffea002b8e84adea96e5976af664115e2c",
          "topics": [
            "0x2cd47ae4fa4d09fd4f3ee4b1bfeabb59b278a8dd8770113c29e005c237bfa7aa",
            "0x0000000000000000000000004631bcabd6df18d94796344963cb60d44a4136b6"
          ],
          "data": "0x0000000000000000000000000000000000000000000000000000000005f5e100",
          "blockHash": "0x46f36070aa7d4f1331cb36d13454657fc3cba8db3df7244bdc4e2205fdd81ed8",
          "blockNumber": "0xdef0",
          "blockTimestamp": "0x69d12bf2",
          "transactionHash": "0x38c4cee0ced407c7ed9a687cf375603855ed2334cc771df763cf6472cb8b1ebe",
          "transactionIndex": "0xd",
          "logIndex": "0xc",
          "removed": false
        }
      ],
      "logsBloom": "0x00000000000000000000000000000000000000000000000200000000000000000000000000000000000000000000000000000000000000000000000000000000000000000000000000000000000000000000000000000000000000000000000000000000000002000000000000000000002000010000000000080000000000000000000000000000000000000000000000000400000000000000000000000000000000000000000000000000000000000000000000000000000000000000000000000000000000000000000000000000000000000000000000000000000000000000000000000000000000000000000000000000000000000000000000008022",
      "type": "0x0",
      "transactionHash": "0x38c4cee0ced407c7ed9a687cf375603855ed2334cc771df763cf6472cb8b1ebe",
      "transactionIndex": "0xd",
      "blockHash": "0x46f36070aa7d4f1331cb36d13454657fc3cba8db3df7244bdc4e2205fdd81ed8",
      "blockNumber": "0xdef0",
      "gasUsed": "0x16fb0",
      "effectiveGasPrice": "0x3b9aca07",
      "blobGasPrice": "0x1",
      "from": "0xf39fd6e51aad88f6f4ce6ab8827279cfffb92266",
      "to": "0xde2bd2ffea002b8e84adea96e5976af664115e2c",
      "contractAddress": null,
      "blockTimestamp": 1775315954
    }
  ],
  "libraries": [],
  "pending": [],
  "returns": {},
  "timestamp": 1775315531200,
  "chain": 42069,
  "commit": "acc184a"
}