{
  "transactions": [
    {
      "hash": "0x919d59b55cc232e39427427e8c2a25d0e4dd8cd8ae31c119f60f38ef75eb755b",
      "transactionType": "CALL",
      "contractName": null,
      "contractAddress": "0xd9140951d8ae6e5f625a02f5908535e16e3af964",
      "function": "listAsset(string,string,address)",
      "arguments": [
        "AAPL",
        "Synthetic Apple Inc.",
        "0x56D13Eb21a625EdA8438F55DF2C31dC3632034f5"
      ],
      "transaction": {
        "from": "0xf39fd6e51aad88f6f4ce6ab8827279cfffb92266",
        "to": "0xd9140951d8ae6e5f625a02f5908535e16e3af964",
        "gas": "0x51faf",
        "value": "0x0",
        "input": "0x9b7fd154000000000000000000000000000000000000000000000000000000000000006000000000000000000000000000000000000000000000000000000000000000a000000000000000000000000056d13eb21a625eda8438f55df2c31dc3632034f500000000000000000000000000000000000000000000000000000000000000044141504c00000000000000000000000000000000000000000000000000000000000000000000000000000000000000000000000000000000000000000000001453796e746865746963204170706c6520496e632e000000000000000000000000",
        "nonce": "0xcb",
        "chainId": "0xa455"
      },
      "additionalContracts": [
        {
          "transactionType": "CREATE",
          "contractName": null,
          "address": "0x9587cd15faa3e816127f4fdae090c40dd5248af6",
          "initCode": "0x3d602d80600a3d3981f3363d3d373d3d3d363d73af4181d7208912b151d1ba11d22ea4e24ff500ce5af43d82803e903d91602b57fd5bf3"
        }
      ],
      "isFixedGasLimit": false
    },
    {
      "hash": "0xa80cae5b7400274fc50d9c8c223303d98b451cc9c9c18c5a9bdb64d075518ad0",
      "transactionType": "CALL",
      "contractName": null,
      "contractAddress": "0x56d13eb21a625eda8438f55df2c31dc3632034f5",
      "function": "registerAsset(string,address)",
      "arguments": [
        "AAPL",
        "0x9587cd15faa3E816127F4FDaE090c40Dd5248Af6"
      ],
      "transaction": {
        "from": "0xf39fd6e51aad88f6f4ce6ab8827279cfffb92266",
        "to": "0x56d13eb21a625eda8438f55df2c31dc3632034f5",
        "gas": "0x1829e",
        "value": "0x0",
        "input": "0x8c2261ad00000000000000000000000000000000000000000000000000000000000000400000000000000000000000009587cd15faa3e816127f4fdae090c40dd5248af600000000000000000000000000000000000000000000000000000000000000044141504c00000000000000000000000000000000000000000000000000000000",
        "nonce": "0xcc",
        "chainId": "0xa455"
      },
      "additionalContracts": [],
      "isFixedGasLimit": false
    },
    {
      "hash": "0x28f8efb102a750345b4f8f703b6981be815947cd9c1a72fcca418dd099c9a769",
      "transactionType": "CALL",
      "contractName": null,
      "contractAddress": "0xd0141e899a65c95a556fe2b27e5982a6de7fdd7a",
      "function": "setManualPrice(string,uint256,bool)",
      "arguments": [
        "AAPL",
        "17872000000",
        "true"
      ],
      "transaction": {
        "from": "0xf39fd6e51aad88f6f4ce6ab8827279cfffb92266",
        "to": "0xd0141e899a65c95a556fe2b27e5982a6de7fdd7a",
        "gas": "0xa66e",
        "value": "0x0",
        "input": "0x953dc87e00000000000000000000000000000000000000000000000000000000000000600000000000000000000000000000000000000000000000000000000429411400000000000000000000000000000000000000000000000000000000000000000100000000000000000000000000000000000000000000000000000000000000044141504c00000000000000000000000000000000000000000000000000000000",
        "nonce": "0xcd",
        "chainId": "0xa455"
      },
      "additionalContracts": [],
      "isFixedGasLimit": false
    },
    {
      "hash": "0xd37f15a8dd5182e16e1e980e70975c34002af33a1ddbce62448affd1fe7e9ee3",
      "transactionType": "CALL",
      "contractName": null,
      "contractAddress": "0xd9140951d8ae6e5f625a02f5908535e16e3af964",
      "function": "listAsset(string,string,address)",
      "arguments": [
        "TSLA",
        "Synthetic Tesla Inc.",
        "0x56D13Eb21a625EdA8438F55DF2C31dC3632034f5"
      ],
      "transaction": {
        "from": "0xf39fd6e51aad88f6f4ce6ab8827279cfffb92266",
        "to": "0xd9140951d8ae6e5f625a02f5908535e16e3af964",
        "gas": "0x47a8c",
        "value": "0x0",
        "input": "0x9b7fd154000000000000000000000000000000000000000000000000000000000000006000000000000000000000000000000000000000000000000000000000000000a000000000000000000000000056d13eb21a625eda8438f55df2c31dc3632034f5000000000000000000000000000000000000000000000000000000000000000454534c4100000000000000000000000000000000000000000000000000000000000000000000000000000000000000000000000000000000000000000000001453796e746865746963205465736c6120496e632e000000000000000000000000",
        "nonce": "0xce",
        "chainId": "0xa455"
      },
      "additionalContracts": [
        {
          "transactionType": "CREATE",
          "contractName": null,
          "address": "0x50bf91221d69370f534a8898159a80b1cbd12b72",
          "initCode": "0x3d602d80600a3d3981f3363d3d373d3d3d363d73af4181d7208912b151d1ba11d22ea4e24ff500ce5af43d82803e903d91602b57fd5bf3"
        }
      ],
      "isFixedGasLimit": false
    },
    {
      "hash": "0x4f0f1b52b249b74c5c0f4da71b4a0604d07fd9e59afe859b7b3706e88acb47b2",
      "transactionType": "CALL",
      "contractName": null,
      "contractAddress": "0x56d13eb21a625eda8438f55df2c31dc3632034f5",
      "function": "registerAsset(string,address)",
      "arguments": [
        "TSLA",
        "0x50BF91221d69370f534a8898159A80b1CBd12B72"
      ],
      "transaction": {
        "from": "0xf39fd6e51aad88f6f4ce6ab8827279cfffb92266",
        "to": "0x56d13eb21a625eda8438f55df2c31dc3632034f5",
        "gas": "0x1829e",
        "value": "0x0",
        "input": "0x8c2261ad000000000000000000000000000000000000000000000000000000000000004000000000000000000000000050bf91221d69370f534a8898159a80b1cbd12b72000000000000000000000000000000000000000000000000000000000000000454534c4100000000000000000000000000000000000000000000000000000000",
        "nonce": "0xcf",
        "chainId": "0xa455"
      },
      "additionalContracts": [],
      "isFixedGasLimit": false
    },
    {
      "hash": "0xbd7956aa8d6720f5725d862031251ecf7d41a93b12f95be183c001c12eaff547",
      "transactionType": "CALL",
      "contractName": null,
      "contractAddress": "0xd0141e899a65c95a556fe2b27e5982a6de7fdd7a",
      "function": "setManualPrice(string,uint256,bool)",
      "arguments": [
        "TSLA",
        "24850000000",
        "true"
      ],
      "transaction": {
        "from": "0xf39fd6e51aad88f6f4ce6ab8827279cfffb92266",
        "to": "0xd0141e899a65c95a556fe2b27e5982a6de7fdd7a",
        "gas": "0xb04a",
        "value": "0x0",
        "input": "0x953dc87e000000000000000000000000000000000000000000000000000000000000006000000000000000000000000000000000000000000000000000000005c92ce8800000000000000000000000000000000000000000000000000000000000000001000000000000000000000000000000000000000000000000000000000000000454534c4100000000000000000000000000000000000000000000000000000000",
        "nonce": "0xd0",
        "chainId": "0xa455"
      },
      "additionalContracts": [],
      "isFixedGasLimit": false
    },
    {
      "hash": "0xd5a4e7e03032af3dd471b7b63dce586ea5bd504b08f29a1eb623018bacb6480c",
      "transactionType": "CALL",
      "contractName": null,
      "contractAddress": "0xd9140951d8ae6e5f625a02f5908535e16e3af964",
      "function": "listAsset(string,string,address)",
      "arguments": [
        "NVDA",
        "Synthetic NVIDIA Corp.",
        "0x56D13Eb21a625EdA8438F55DF2C31dC3632034f5"
      ],
      "transaction": {
        "from": "0xf39fd6e51aad88f6f4ce6ab8827279cfffb92266",
        "to": "0xd9140951d8ae6e5f625a02f5908535e16e3af964",
        "gas": "0x47aad",
        "value": "0x0",
        "input": "0x9b7fd154000000000000000000000000000000000000000000000000000000000000006000000000000000000000000000000000000000000000000000000000000000a000000000000000000000000056d13eb21a625eda8438f55df2c31dc3632034f500000000000000000000000000000000000000000000000000000000000000044e56444100000000000000000000000000000000000000000000000000000000000000000000000000000000000000000000000000000000000000000000001653796e746865746963204e564944494120436f72702e00000000000000000000",
        "nonce": "0xd1",
        "chainId": "0xa455"
      },
      "additionalContracts": [
        {
          "transactionType": "CREATE",
          "contractName": null,
          "address": "0x59ed2002eda2bbf12fdd28755a28638eb90b1a41",
          "initCode": "0x3d602d80600a3d3981f3363d3d373d3d3d363d73af4181d7208912b151d1ba11d22ea4e24ff500ce5af43d82803e903d91602b57fd5bf3"
        }
      ],
      "isFixedGasLimit": false
    },
    {
      "hash": "0xc74d5df0e95d541fc4ce04a04eff2f5e8bf8b1a3636ab9d8ba2530f7595f33c7",
      "transactionType": "CALL",
      "contractName": null,
      "contractAddress": "0x56d13eb21a625eda8438f55df2c31dc3632034f5",
      "function": "registerAsset(string,address)",
      "arguments": [
        "NVDA",
        "0x59ed2002eDA2BbF12fdD28755A28638eb90b1a41"
      ],
      "transaction": {
        "from": "0xf39fd6e51aad88f6f4ce6ab8827279cfffb92266",
        "to": "0x56d13eb21a625eda8438f55df2c31dc3632034f5",
        "gas": "0x1829e",
        "value": "0x0",
        "input": "0x8c2261ad000000000000000000000000000000000000000000000000000000000000004000000000000000000000000059ed2002eda2bbf12fdd28755a28638eb90b1a4100000000000000000000000000000000000000000000000000000000000000044e56444100000000000000000000000000000000000000000000000000000000",
        "nonce": "0xd2",
        "chainId": "0xa455"
      },
      "additionalContracts": [],
      "isFixedGasLimit": false
    },
    {
      "hash": "0x89665fa108fe107fe9e6de5006f94587862ad3980fa78a10cdf5dd9cb9dac8c0",
      "transactionType": "CALL",
      "contractName": null,
      "contractAddress": "0xd0141e899a65c95a556fe2b27e5982a6de7fdd7a",
      "function": "setManualPrice(string,uint256,bool)",
      "arguments": [
        "NVDA",
        "87530000000",
        "true"
      ],
      "transaction": {
        "from": "0xf39fd6e51aad88f6f4ce6ab8827279cfffb92266",
        "to": "0xd0141e899a65c95a556fe2b27e5982a6de7fdd7a",
        "gas": "0xb04a",
        "value": "0x0",
        "input": "0x953dc87e0000000000000000000000000000000000000000000000000000000000000060000000000000000000000000000000000000000000000000000000146131ce80000000000000000000000000000000000000000000000000000000000000000100000000000000000000000000000000000000000000000000000000000000044e56444100000000000000000000000000000000000000000000000000000000",
        "nonce": "0xd3",
        "chainId": "0xa455"
      },
      "additionalContracts": [],
      "isFixedGasLimit": false
    },
    {
      "hash": "0x3205395e32d0102578ede0a57817bd0127ca23d1a61f27672cf4780921432f4a",
      "transactionType": "CALL",
      "contractName": null,
      "contractAddress": "0xd9140951d8ae6e5f625a02f5908535e16e3af964",
      "function": "listAsset(string,string,address)",
      "arguments": [
        "MSFT",
        "Synthetic Microsoft Corp.",
        "0x56D13Eb21a625EdA8438F55DF2C31dC3632034f5"
      ],
      "transaction": {
        "from": "0xf39fd6e51aad88f6f4ce6ab8827279cfffb92266",
        "to": "0xd9140951d8ae6e5f625a02f5908535e16e3af964",
        "gas": "0x4be56",
        "value": "0x0",
        "input": "0x9b7fd154000000000000000000000000000000000000000000000000000000000000006000000000000000000000000000000000000000000000000000000000000000a000000000000000000000000056d13eb21a625eda8438f55df2c31dc3632034f500000000000000000000000000000000000000000000000000000000000000044d53465400000000000000000000000000000000000000000000000000000000000000000000000000000000000000000000000000000000000000000000001953796e746865746963204d6963726f736f667420436f72702e00000000000000",
        "nonce": "0xd4",
        "chainId": "0xa455"
      },
      "additionalContracts": [
        {
          "transactionType": "CREATE",
          "contractName": null,
          "address": "0x2ab7856411662e5c3452bfa63ffb626e2594c088",
          "initCode": "0x3d602d80600a3d3981f3363d3d373d3d3d363d73af4181d7208912b151d1ba11d22ea4e24ff500ce5af43d82803e903d91602b57fd5bf3"
        }
      ],
      "isFixedGasLimit": false
    },
    {
      "hash": "0xd8f3e85c9edcc455e80019a48df3a4f8085dccaab4afa5c0d0c78148b55b0c6a",
      "transactionType": "CALL",
      "contractName": null,
      "contractAddress": "0x56d13eb21a625eda8438f55df2c31dc3632034f5",
      "function": "registerAsset(string,address)",
      "arguments": [
        "MSFT",
        "0x2AB7856411662E5c3452BFa63fFB626e2594C088"
      ],
      "transaction": {
        "from": "0xf39fd6e51aad88f6f4ce6ab8827279cfffb92266",
        "to": "0x56d13eb21a625eda8438f55df2c31dc3632034f5",
        "gas": "0x1829e",
        "value": "0x0",
        "input": "0x8c2261ad00000000000000000000000000000000000000000000000000000000000000400000000000000000000000002ab7856411662e5c3452bfa63ffb626e2594c08800000000000000000000000000000000000000000000000000000000000000044d53465400000000000000000000000000000000000000000000000000000000",
        "nonce": "0xd5",
        "chainId": "0xa455"
      },
      "additionalContracts": [],
      "isFixedGasLimit": false
    },
    {
      "hash": "0x5fe9e2c0a2e607c40264c5a7dece21f82bc8c8a0bf5ddda4062ef58ab991f140",
      "transactionType": "CALL",
      "contractName": null,
      "contractAddress": "0xd0141e899a65c95a556fe2b27e5982a6de7fdd7a",
      "function": "setManualPrice(string,uint256,bool)",
      "arguments": [
        "MSFT",
        "41560000000",
        "true"
      ],
      "transaction": {
        "from": "0xf39fd6e51aad88f6f4ce6ab8827279cfffb92266",
        "to": "0xd0141e899a65c95a556fe2b27e5982a6de7fdd7a",
        "gas": "0xa66e",
        "value": "0x0",
        "input": "0x953dc87e000000000000000000000000000000000000000000000000000000000000006000000000000000000000000000000000000000000000000000000009ad2b4600000000000000000000000000000000000000000000000000000000000000000100000000000000000000000000000000000000000000000000000000000000044d53465400000000000000000000000000000000000000000000000000000000",
        "nonce": "0xd6",
        "chainId": "0xa455"
      },
      "additionalContracts": [],
      "isFixedGasLimit": false
    },
    {
      "hash": "0x20b0c86923f8b87acd1a422123f1b2354bae0c8afe78765d71ffe1fc396d950e",
      "transactionType": "CALL",
      "contractName": null,
      "contractAddress": "0xd9140951d8ae6e5f625a02f5908535e16e3af964",
      "function": "listAsset(string,string,address)",
      "arguments": [
        "AMZN",
        "Synthetic Amazon.com Inc.",
        "0x56D13Eb21a625EdA8438F55DF2C31dC3632034f5"
      ],
      "transaction": {
        "from": "0xf39fd6e51aad88f6f4ce6ab8827279cfffb92266",
        "to": "0xd9140951d8ae6e5f625a02f5908535e16e3af964",
        "gas": "0x4be56",
        "value": "0x0",
        "input": "0x9b7fd154000000000000000000000000000000000000000000000000000000000000006000000000000000000000000000000000000000000000000000000000000000a000000000000000000000000056d13eb21a625eda8438f55df2c31dc3632034f50000000000000000000000000000000000000000000000000000000000000004414d5a4e00000000000000000000000000000000000000000000000000000000000000000000000000000000000000000000000000000000000000000000001953796e74686574696320416d617a6f6e2e636f6d20496e632e00000000000000",
        "nonce": "0xd7",
        "chainId": "0xa455"
      },
      "additionalContracts": [
        {
          "transactionType": "CREATE",
          "contractName": null,
          "address": "0x43ca2d043964cfde45405367036f9ec991301918",
          "initCode": "0x3d602d80600a3d3981f3363d3d373d3d3d363d73af4181d7208912b151d1ba11d22ea4e24ff500ce5af43d82803e903d91602b57fd5bf3"
        }
      ],
      "isFixedGasLimit": false
    },
    {
      "hash": "0x1ec8a8b4cb4aad6913cf4f962e1957b8fe6519580f7c33381f4266e765d6989b",
      "transactionType": "CALL",
      "contractName": null,
      "contractAddress": "0x56d13eb21a625eda8438f55df2c31dc3632034f5",
      "function": "registerAsset(string,address)",
      "arguments": [
        "AMZN",
        "0x43cA2d043964cFde45405367036f9eC991301918"
      ],
      "transaction": {
        "from": "0xf39fd6e51aad88f6f4ce6ab8827279cfffb92266",
        "to": "0x56d13eb21a625eda8438f55df2c31dc3632034f5",
        "gas": "0x1829e",
        "value": "0x0",
        "input": "0x8c2261ad000000000000000000000000000000000000000000000000000000000000004000000000000000000000000043ca2d043964cfde45405367036f9ec9913019180000000000000000000000000000000000000000000000000000000000000004414d5a4e00000000000000000000000000000000000000000000000000000000",
        "nonce": "0xd8",
        "chainId": "0xa455"
      },
      "additionalContracts": [],
      "isFixedGasLimit": false
    },
    {
      "hash": "0xb2f4a0e12c2e8b137bf8680469eb33377cba06216cefbc9d9355a6f3959ec9ee",
      "transactionType": "CALL",
      "contractName": null,
      "contractAddress": "0xd0141e899a65c95a556fe2b27e5982a6de7fdd7a",
      "function": "setManualPrice(string,uint256,bool)",
      "arguments": [
        "AMZN",
        "18215000000",
        "true"
      ],
      "transaction": {
        "from": "0xf39fd6e51aad88f6f4ce6ab8827279cfffb92266",
        "to": "0xd0141e899a65c95a556fe2b27e5982a6de7fdd7a",
        "gas": "0xb04a",
        "value": "0x0",
        "input": "0x953dc87e0000000000000000000000000000000000000000000000000000000000000060000000000000000000000000000000000000000000000000000000043db2d7c000000000000000000000000000000000000000000000000000000000000000010000000000000000000000000000000000000000000000000000000000000004414d5a4e00000000000000000000000000000000000000000000000000000000",
        "nonce": "0xd9",
        "chainId": "0xa455"
      },
      "additionalContracts": [],
      "isFixedGasLimit": false
    },
    {
      "hash": "0x53fbd0e0159d1a3b614acab82e2e1d267ba92574ea9f8b9e710bd8782ba22073",
      "transactionType": "CALL",
      "contractName": null,
      "contractAddress": "0xd9140951d8ae6e5f625a02f5908535e16e3af964",
      "function": "listAsset(string,string,address)",
      "arguments": [
        "GOOGL",
        "Synthetic Alphabet Inc.",
        "0x56D13Eb21a625EdA8438F55DF2C31dC3632034f5"
      ],
      "transaction": {
        "from": "0xf39fd6e51aad88f6f4ce6ab8827279cfffb92266",
        "to": "0xd9140951d8ae6e5f625a02f5908535e16e3af964",
        "gas": "0x47ace",
        "value": "0x0",
        "input": "0x9b7fd154000000000000000000000000000000000000000000000000000000000000006000000000000000000000000000000000000000000000000000000000000000a000000000000000000000000056d13eb21a625eda8438f55df2c31dc3632034f50000000000000000000000000000000000000000000000000000000000000005474f4f474c000000000000000000000000000000000000000000000000000000000000000000000000000000000000000000000000000000000000000000001753796e74686574696320416c70686162657420496e632e000000000000000000",
        "nonce": "0xda",
        "chainId": "0xa455"
      },
      "additionalContracts": [
        {
          "transactionType": "CREATE",
          "contractName": null,
          "address": "0xf2da7a9324397ebe46b5fa2ecf2c2852afece06b",
          "initCode": "0x3d602d80600a3d3981f3363d3d373d3d3d363d73af4181d7208912b151d1ba11d22ea4e24ff500ce5af43d82803e903d91602b57fd5bf3"
        }
      ],
      "isFixedGasLimit": false
    },
    {
      "hash": "0xd685ae2be8a560e7e5e84c8235adb5804e8a3ca034effcbf3b0bd61ebe2d7b2f",
      "transactionType": "CALL",
      "contractName": null,
      "contractAddress": "0x56d13eb21a625eda8438f55df2c31dc3632034f5",
      "function": "registerAsset(string,address)",
      "arguments": [
        "GOOGL",
        "0xf2Da7A9324397eBe46b5fA2eCf2C2852afece06b"
      ],
      "transaction": {
        "from": "0xf39fd6e51aad88f6f4ce6ab8827279cfffb92266",
        "to": "0x56d13eb21a625eda8438f55df2c31dc3632034f5",
        "gas": "0x182af",
        "value": "0x0",
        "input": "0x8c2261ad0000000000000000000000000000000000000000000000000000000000000040000000000000000000000000f2da7a9324397ebe46b5fa2ecf2c2852afece06b0000000000000000000000000000000000000000000000000000000000000005474f4f474c000000000000000000000000000000000000000000000000000000",
        "nonce": "0xdb",
        "chainId": "0xa455"
      },
      "additionalContracts": [],
      "isFixedGasLimit": false
    },
    {
      "hash": "0xbda338338d4c8fb7866e8dc00485550f9fd326db1b9fb51ebafcdcc05636d156",
      "transactionType": "CALL",
      "contractName": null,
      "contractAddress": "0xd0141e899a65c95a556fe2b27e5982a6de7fdd7a",
      "function": "setManualPrice(string,uint256,bool)",
      "arguments": [
        "GOOGL",
        "15580000000",
        "true"
      ],
      "transaction": {
        "from": "0xf39fd6e51aad88f6f4ce6ab8827279cfffb92266",
        "to": "0xd0141e899a65c95a556fe2b27e5982a6de7fdd7a",
        "gas": "0xb04a",
        "value": "0x0",
        "input": "0x953dc87e000000000000000000000000000000000000000000000000000000000000006000000000000000000000000000000000000000000000000000000003a0a3ef0000000000000000000000000000000000000000000000000000000000000000010000000000000000000000000000000000000000000000000000000000000005474f4f474c000000000000000000000000000000000000000000000000000000",
        "nonce": "0xdc",
        "chainId": "0xa455"
      },
      "additionalContracts": [],
      "isFixedGasLimit": false
    },
    {
      "hash": "0xeb498660d93270971b2e1a8c07b02f2e2ca9730a26e9fe4dd28bad96c5c0e0ea",
      "transactionType": "CALL",
      "contractName": null,
      "contractAddress": "0xd9140951d8ae6e5f625a02f5908535e16e3af964",
      "function": "listAsset(string,string,address)",
      "arguments": [
        "META",
        "Synthetic Meta Platforms",
        "0x56D13Eb21a625EdA8438F55DF2C31dC3632034f5"
      ],
      "transaction": {
        "from": "0xf39fd6e51aad88f6f4ce6ab8827279cfffb92266",
        "to": "0xd9140951d8ae6e5f625a02f5908535e16e3af964",
        "gas": "0x47ace",
        "value": "0x0",
        "input": "0x9b7fd154000000000000000000000000000000000000000000000000000000000000006000000000000000000000000000000000000000000000000000000000000000a000000000000000000000000056d13eb21a625eda8438f55df2c31dc3632034f500000000000000000000000000000000000000000000000000000000000000044d45544100000000000000000000000000000000000000000000000000000000000000000000000000000000000000000000000000000000000000000000001853796e746865746963204d65746120506c6174666f726d730000000000000000",
        "nonce": "0xdd",
        "chainId": "0xa455"
      },
      "additionalContracts": [
        {
          "transactionType": "CREATE",
          "contractName": null,
          "address": "0xbbe5c4adb5170717b658550c2e5ca49c791e4ca5",
          "initCode": "0x3d602d80600a3d3981f3363d3d373d3d3d363d73af4181d7208912b151d1ba11d22ea4e24ff500ce5af43d82803e903d91602b57fd5bf3"
        }
      ],
      "isFixedGasLimit": false
    },
    {
      "hash": "0x545264f3b0cab0ed0892bd9e5190e18ccb1d19dfd0fbbb761543bdd826738348",
      "transactionType": "CALL",
      "contractName": null,
      "contractAddress": "0x56d13eb21a625eda8438f55df2c31dc3632034f5",
      "function": "registerAsset(string,address)",
      "arguments": [
        "META",
        "0xbbE5C4aDb5170717b658550c2e5cA49C791E4ca5"
      ],
      "transaction": {
        "from": "0xf39fd6e51aad88f6f4ce6ab8827279cfffb92266",
        "to": "0x56d13eb21a625eda8438f55df2c31dc3632034f5",
        "gas": "0x1829e",
        "value": "0x0",
        "input": "0x8c2261ad0000000000000000000000000000000000000000000000000000000000000040000000000000000000000000bbe5c4adb5170717b658550c2e5ca49c791e4ca500000000000000000000000000000000000000000000000000000000000000044d45544100000000000000000000000000000000000000000000000000000000",
        "nonce": "0xde",
        "chainId": "0xa455"
      },
      "additionalContracts": [],
      "isFixedGasLimit": false
    },
    {
      "hash": "0x0e3dff0616cea77eb6f934dcaed92fca6bda03495ae6e4b7658ea57a78bb8851",
      "transactionType": "CALL",
      "contractName": null,
      "contractAddress": "0xd0141e899a65c95a556fe2b27e5982a6de7fdd7a",
      "function": "setManualPrice(string,uint256,bool)",
      "arguments": [
        "META",
        "50325000000",
        "true"
      ],
      "transaction": {
        "from": "0xf39fd6e51aad88f6f4ce6ab8827279cfffb92266",
        "to": "0xd0141e899a65c95a556fe2b27e5982a6de7fdd7a",
        "gas": "0xb04a",
        "value": "0x0",
        "input": "0x953dc87e00000000000000000000000000000000000000000000000000000000000000600000000000000000000000000000000000000000000000000000000bb79a8f40000000000000000000000000000000000000000000000000000000000000000100000000000000000000000000000000000000000000000000000000000000044d45544100000000000000000000000000000000000000000000000000000000",
        "nonce": "0xdf",
        "chainId": "0xa455"
      },
      "additionalContracts": [],
      "isFixedGasLimit": false
    },
    {
      "hash": "0xd5ea0fad433d95c632e696fa6d434047a2f984cb1697a1770c31315a2da7530c",
      "transactionType": "CALL",
      "contractName": null,
      "contractAddress": "0xd9140951d8ae6e5f625a02f5908535e16e3af964",
      "function": "listAsset(string,string,address)",
      "arguments": [
        "JPM",
        "Synthetic JPMorgan Chase",
        "0x56D13Eb21a625EdA8438F55DF2C31dC3632034f5"
      ],
      "transaction": {
        "from": "0xf39fd6e51aad88f6f4ce6ab8827279cfffb92266",
        "to": "0xd9140951d8ae6e5f625a02f5908535e16e3af964",
        "gas": "0x4be33",
        "value": "0x0",
        "input": "0x9b7fd154000000000000000000000000000000000000000000000000000000000000006000000000000000000000000000000000000000000000000000000000000000a000000000000000000000000056d13eb21a625eda8438f55df2c31dc3632034f500000000000000000000000000000000000000000000000000000000000000034a504d0000000000000000000000000000000000000000000000000000000000000000000000000000000000000000000000000000000000000000000000001853796e746865746963204a504d6f7267616e2043686173650000000000000000",
        "nonce": "0xe0",
        "chainId": "0xa455"
      },
      "additionalContracts": [
        {
          "transactionType": "CREATE",
          "contractName": null,
          "address": "0x0ad41337532bfedca58815b13cf8960fcabd9975",
          "initCode": "0x3d602d80600a3d3981f3363d3d373d3d3d363d73af4181d7208912b151d1ba11d22ea4e24ff500ce5af43d82803e903d91602b57fd5bf3"
        }
      ],
      "isFixedGasLimit": false
    },
    {
      "hash": "0x8de522406de9351a06533549ba9fdb8161825292e00e73d5f05fc9d6c713dd9f",
      "transactionType": "CALL",
      "contractName": null,
      "contractAddress": "0x56d13eb21a625eda8438f55df2c31dc3632034f5",
      "function": "registerAsset(string,address)",
      "arguments": [
        "JPM",
        "0x0aD41337532BfedCa58815b13cF8960fCabD9975"
      ],
      "transaction": {
        "from": "0xf39fd6e51aad88f6f4ce6ab8827279cfffb92266",
        "to": "0x56d13eb21a625eda8438f55df2c31dc3632034f5",
        "gas": "0x1828d",
        "value": "0x0",
        "input": "0x8c2261ad00000000000000000000000000000000000000000000000000000000000000400000000000000000000000000ad41337532bfedca58815b13cf8960fcabd997500000000000000000000000000000000000000000000000000000000000000034a504d0000000000000000000000000000000000000000000000000000000000",
        "nonce": "0xe1",
        "chainId": "0xa455"
      },
      "additionalContracts": [],
      "isFixedGasLimit": false
    },
    {
      "hash": "0x4aad93a61fd71376ee5efe42680c7bacc582749ecf052f6c56106da7519b17ca",
      "transactionType": "CALL",
      "contractName": null,
      "contractAddress": "0xd0141e899a65c95a556fe2b27e5982a6de7fdd7a",
      "function": "setManualPrice(string,uint256,bool)",
      "arguments": [
        "JPM",
        "19840000000",
        "true"
      ],
      "transaction": {
        "from": "0xf39fd6e51aad88f6f4ce6ab8827279cfffb92266",
        "to": "0xd0141e899a65c95a556fe2b27e5982a6de7fdd7a",
        "gas": "0xb027",
        "value": "0x0",
        "input": "0x953dc87e0000000000000000000000000000000000000000000000000000000000000060000000000000000000000000000000000000000000000000000000049e8e6000000000000000000000000000000000000000000000000000000000000000000100000000000000000000000000000000000000000000000000000000000000034a504d0000000000000000000000000000000000000000000000000000000000",
        "nonce": "0xe2",
        "chainId": "0xa455"
      },
      "additionalContracts": [],
      "isFixedGasLimit": false
    },
    {
      "hash": "0x6b4e84d366b2a481dae2089c9449f76b4b0bd8359e1379eca5e5167f4c28d5ab",
      "transactionType": "CALL",
      "contractName": null,
      "contractAddress": "0xd9140951d8ae6e5f625a02f5908535e16e3af964",
      "function": "listAsset(string,string,address)",
      "arguments": [
        "V",
        "Synthetic Visa Inc.",
        "0x56D13Eb21a625EdA8438F55DF2C31dC3632034f5"
      ],
      "transaction": {
        "from": "0xf39fd6e51aad88f6f4ce6ab8827279cfffb92266",
        "to": "0xd9140951d8ae6e5f625a02f5908535e16e3af964",
        "gas": "0x47a4a",
        "value": "0x0",
        "input": "0x9b7fd154000000000000000000000000000000000000000000000000000000000000006000000000000000000000000000000000000000000000000000000000000000a000000000000000000000000056d13eb21a625eda8438f55df2c31dc3632034f500000000000000000000000000000000000000000000000000000000000000015600000000000000000000000000000000000000000000000000000000000000000000000000000000000000000000000000000000000000000000000000001353796e746865746963205669736120496e632e00000000000000000000000000",
        "nonce": "0xe3",
        "chainId": "0xa455"
      },
      "additionalContracts": [
        {
          "transactionType": "CREATE",
          "contractName": null,
          "address": "0xf17726b913d04950d62a79cfc141a8d090344791",
          "initCode": "0x3d602d80600a3d3981f3363d3d373d3d3d363d73af4181d7208912b151d1ba11d22ea4e24ff500ce5af43d82803e903d91602b57fd5bf3"
        }
      ],
      "isFixedGasLimit": false
    },
    {
      "hash": "0x84c856253861f96f80e4f2b9b5cff777724f4f937347335de7cbf1afaf2ccf7b",
      "transactionType": "CALL",
      "contractName": null,
      "contractAddress": "0x56d13eb21a625eda8438f55df2c31dc3632034f5",
      "function": "registerAsset(string,address)",
      "arguments": [
        "V",
        "0xf17726B913d04950D62A79CFc141a8D090344791"
      ],
      "transaction": {
        "from": "0xf39fd6e51aad88f6f4ce6ab8827279cfffb92266",
        "to": "0x56d13eb21a625eda8438f55df2c31dc3632034f5",
        "gas": "0x1826c",
        "value": "0x0",
        "input": "0x8c2261ad0000000000000000000000000000000000000000000000000000000000000040000000000000000000000000f17726b913d04950d62a79cfc141a8d09034479100000000000000000000000000000000000000000000000000000000000000015600000000000000000000000000000000000000000000000000000000000000",
        "nonce": "0xe4",
        "chainId": "0xa455"
      },
      "additionalContracts": [],
      "isFixedGasLimit": false
    },
    {
      "hash": "0xa5c2766f990d2ebe2fa2ca68c5c90e80e183484691cde46d48fbb913cbac92c9",
      "transactionType": "CALL",
      "contractName": null,
      "contractAddress": "0xd0141e899a65c95a556fe2b27e5982a6de7fdd7a",
      "function": "setManualPrice(string,uint256,bool)",
      "arguments": [
        "V",
        "27890000000",
        "true"
      ],
      "transaction": {
        "from": "0xf39fd6e51aad88f6f4ce6ab8827279cfffb92266",
        "to": "0xd0141e899a65c95a556fe2b27e5982a6de7fdd7a",
        "gas": "0xb569",
        "value": "0x0",
        "input": "0x953dc87e0000000000000000000000000000000000000000000000000000000000000060000000000000000000000000000000000000000000000000000000067e5fa080000000000000000000000000000000000000000000000000000000000000000100000000000000000000000000000000000000000000000000000000000000015600000000000000000000000000000000000000000000000000000000000000",
        "nonce": "0xe5",
        "chainId": "0xa455"
      },
      "additionalContracts": [],
      "isFixedGasLimit": false
    },
    {
      "hash": "0xf01d1deaeeb786c13a1aa86372ce9fdf6cd6d85213bfc8dae1caa57ad21809b6",
      "transactionType": "CALL",
      "contractName": null,
      "contractAddress": "0xd9140951d8ae6e5f625a02f5908535e16e3af964",
      "function": "listAsset(string,string,address)",
      "arguments": [
        "DIS",
        "Synthetic Walt Disney Co.",
        "0x56D13Eb21a625EdA8438F55DF2C31dC3632034f5"
      ],
      "transaction": {
        "from": "0xf39fd6e51aad88f6f4ce6ab8827279cfffb92266",
        "to": "0xd9140951d8ae6e5f625a02f5908535e16e3af964",
        "gas": "0x47ace",
        "value": "0x0",
        "input": "0x9b7fd154000000000000000000000000000000000000000000000000000000000000006000000000000000000000000000000000000000000000000000000000000000a000000000000000000000000056d13eb21a625eda8438f55df2c31dc3632034f500000000000000000000000000000000000000000000000000000000000000034449530000000000000000000000000000000000000000000000000000000000000000000000000000000000000000000000000000000000000000000000001953796e7468657469632057616c74204469736e657920436f2e00000000000000",
        "nonce": "0xe6",
        "chainId": "0xa455"
      },
      "additionalContracts": [
        {
          "transactionType": "CREATE",
          "contractName": null,
          "address": "0x60039b5e160972673b5865ce82dfeee35d8e94a6",
          "initCode": "0x3d602d80600a3d3981f3363d3d373d3d3d363d73af4181d7208912b151d1ba11d22ea4e24ff500ce5af43d82803e903d91602b57fd5bf3"
        }
      ],
      "isFixedGasLimit": false
    },
    {
      "hash": "0x026a64e3d656e977c9133594bc23eb5cc3ac652b230bc3f09205b51cb2befc39",
      "transactionType": "CALL",
      "contractName": null,
      "contractAddress": "0x56d13eb21a625eda8438f55df2c31dc3632034f5",
      "function": "registerAsset(string,address)",
      "arguments": [
        "DIS",
        "0x60039b5e160972673B5865CE82DfEeE35D8e94a6"
      ],
      "transaction": {
        "from": "0xf39fd6e51aad88f6f4ce6ab8827279cfffb92266",
        "to": "0x56d13eb21a625eda8438f55df2c31dc3632034f5",
        "gas": "0x1828d",
        "value": "0x0",
        "input": "0x8c2261ad000000000000000000000000000000000000000000000000000000000000004000000000000000000000000060039b5e160972673b5865ce82dfeee35d8e94a600000000000000000000000000000000000000000000000000000000000000034449530000000000000000000000000000000000000000000000000000000000",
        "nonce": "0xe7",
        "chainId": "0xa455"
      },
      "additionalContracts": [],
      "isFixedGasLimit": false
    },
    {
      "hash": "0xbdd3ab368dfb66285236505cc564a0213cd4d06635406c7324b19602a92c2839",
      "transactionType": "CALL",
      "contractName": null,
      "contractAddress": "0xd0141e899a65c95a556fe2b27e5982a6de7fdd7a",
      "function": "setManualPrice(string,uint256,bool)",
      "arguments": [
        "DIS",
        "9845000000",
        "true"
      ],
      "transaction": {
        "from": "0xf39fd6e51aad88f6f4ce6ab8827279cfffb92266",
        "to": "0xd0141e899a65c95a556fe2b27e5982a6de7fdd7a",
        "gas": "0xb589",
        "value": "0x0",
        "input": "0x953dc87e0000000000000000000000000000000000000000000000000000000000000060000000000000000000000000000000000000000000000000000000024acec740000000000000000000000000000000000000000000000000000000000000000100000000000000000000000000000000000000000000000000000000000000034449530000000000000000000000000000000000000000000000000000000000",
        "nonce": "0xe8",
        "chainId": "0xa455"
      },
      "additionalContracts": [],
      "isFixedGasLimit": false
    },
    {
      "hash": "0xfe4f944affc903a409997ccbae31f161e59b20a62a526cb3310c986b984d4c54",
      "transactionType": "CALL",
      "contractName": null,
      "contractAddress": "0xd9140951d8ae6e5f625a02f5908535e16e3af964",
      "function": "listAsset(string,string,address)",
      "arguments": [
        "NFLX",
        "Synthetic Netflix Inc.",
        "0x56D13Eb21a625EdA8438F55DF2C31dC3632034f5"
      ],
      "transaction": {
        "from": "0xf39fd6e51aad88f6f4ce6ab8827279cfffb92266",
        "to": "0xd9140951d8ae6e5f625a02f5908535e16e3af964",
        "gas": "0x47aad",
        "value": "0x0",
        "input": "0x9b7fd154000000000000000000000000000000000000000000000000000000000000006000000000000000000000000000000000000000000000000000000000000000a000000000000000000000000056d13eb21a625eda8438f55df2c31dc3632034f500000000000000000000000000000000000000000000000000000000000000044e464c5800000000000000000000000000000000000000000000000000000000000000000000000000000000000000000000000000000000000000000000001653796e746865746963204e6574666c697820496e632e00000000000000000000",
        "nonce": "0xe9",
        "chainId": "0xa455"
      },
      "additionalContracts": [
        {
          "transactionType": "CREATE",
          "contractName": null,
          "address": "0x63df691a295f0c59980bc0b388b26e897885c603",
          "initCode": "0x3d602d80600a3d3981f3363d3d373d3d3d363d73af4181d7208912b151d1ba11d22ea4e24ff500ce5af43d82803e903d91602b57fd5bf3"
        }
      ],
      "isFixedGasLimit": false
    },
    {
      "hash": "0x03c4a012fc24120185390f7ee005f869b27b4ac9e4ea0b5a9244e5c808db530c",
      "transactionType": "CALL",
      "contractName": null,
      "contractAddress": "0x56d13eb21a625eda8438f55df2c31dc3632034f5",
      "function": "registerAsset(string,address)",
      "arguments": [
        "NFLX",
        "0x63dF691A295f0c59980bC0B388B26E897885C603"
      ],
      "transaction": {
        "from": "0xf39fd6e51aad88f6f4ce6ab8827279cfffb92266",
        "to": "0x56d13eb21a625eda8438f55df2c31dc3632034f5",
        "gas": "0x1829e",
        "value": "0x0",
        "input": "0x8c2261ad000000000000000000000000000000000000000000000000000000000000004000000000000000000000000063df691a295f0c59980bc0b388b26e897885c60300000000000000000000000000000000000000000000000000000000000000044e464c5800000000000000000000000000000000000000000000000000000000",
        "nonce": "0xea",
        "chainId": "0xa455"
      },
      "additionalContracts": [],
      "isFixedGasLimit": false
    },
    {
      "hash": "0x1188c70611713314cfae7f9f30f18fe2b66ab4eea81147387576e18e0b457e93",
      "transactionType": "CALL",
      "contractName": null,
      "contractAddress": "0xd0141e899a65c95a556fe2b27e5982a6de7fdd7a",
      "function": "setManualPrice(string,uint256,bool)",
      "arguments": [
        "NFLX",
        "62510000000",
        "true"
      ],
      "transaction": {
        "from": "0xf39fd6e51aad88f6f4ce6ab8827279cfffb92266",
        "to": "0xd0141e899a65c95a556fe2b27e5982a6de7fdd7a",
        "gas": "0xc049",
        "value": "0x0",
        "input": "0x953dc87e00000000000000000000000000000000000000000000000000000000000000600000000000000000000000000000000000000000000000000000000e8de2e780000000000000000000000000000000000000000000000000000000000000000100000000000000000000000000000000000000000000000000000000000000044e464c5800000000000000000000000000000000000000000000000000000000",
        "nonce": "0xeb",
        "chainId": "0xa455"
      },
      "additionalContracts": [],
      "isFixedGasLimit": false
    },
    {
      "hash": "0x53b20ee43fdb69f125f46a9d663347a3b89ca01881882c01de2dbbb4324c2dcd",
      "transactionType": "CALL",
      "contractName": null,
      "contractAddress": "0xd9140951d8ae6e5f625a02f5908535e16e3af964",
      "function": "listAsset(string,string,address)",
      "arguments": [
        "AMD",
        "Synthetic Advanced Micro Devices",
        "0x56D13Eb21a625EdA8438F55DF2C31dC3632034f5"
      ],
      "transaction": {
        "from": "0xf39fd6e51aad88f6f4ce6ab8827279cfffb92266",
        "to": "0xd9140951d8ae6e5f625a02f5908535e16e3af964",
        "gas": "0x4f309",
        "value": "0x0",
        "input": "0x9b7fd154000000000000000000000000000000000000000000000000000000000000006000000000000000000000000000000000000000000000000000000000000000a000000000000000000000000056d13eb21a625eda8438f55df2c31dc3632034f50000000000000000000000000000000000000000000000000000000000000003414d440000000000000000000000000000000000000000000000000000000000000000000000000000000000000000000000000000000000000000000000002053796e74686574696320416476616e636564204d6963726f2044657669636573",
        "nonce": "0xec",
        "chainId": "0xa455"
      },
      "additionalContracts": [
        {
          "transactionType": "CREATE",
          "contractName": null,
          "address": "0xebe18012222d1bdda9eafed66d3259c11fbebd61",
          "initCode": "0x3d602d80600a3d3981f3363d3d373d3d3d363d73af4181d7208912b151d1ba11d22ea4e24ff500ce5af43d82803e903d91602b57fd5bf3"
        }
      ],
      "isFixedGasLimit": false
    },
    {
      "hash": "0xd12ebff73c1e98fa1b52b20f3991d6acb0f397bfb4ba92c89269aa7727c8ae9a",
      "transactionType": "CALL",
      "contractName": null,
      "contractAddress": "0x56d13eb21a625eda8438f55df2c31dc3632034f5",
      "function": "registerAsset(string,address)",
      "arguments": [
        "AMD",
        "0xeBE18012222d1bDdA9eaFeD66d3259c11fbebd61"
      ],
      "transaction": {
        "from": "0xf39fd6e51aad88f6f4ce6ab8827279cfffb92266",
        "to": "0x56d13eb21a625eda8438f55df2c31dc3632034f5",
        "gas": "0x1828d",
        "value": "0x0",
        "input": "0x8c2261ad0000000000000000000000000000000000000000000000000000000000000040000000000000000000000000ebe18012222d1bdda9eafed66d3259c11fbebd610000000000000000000000000000000000000000000000000000000000000003414d440000000000000000000000000000000000000000000000000000000000",
        "nonce": "0xed",
        "chainId": "0xa455"
      },
      "additionalContracts": [],
      "isFixedGasLimit": false
    },
    {
      "hash": "0xf0da9c2b773781fd2576f9818bfd2c0f675dc71656a963a1b79121b319534c2d",
      "transactionType": "CALL",
      "contractName": null,
      "contractAddress": "0xd0141e899a65c95a556fe2b27e5982a6de7fdd7a",
      "function": "setManualPrice(string,uint256,bool)",
      "arguments": [
        "AMD",
        "16235000000",
        "true"
      ],
      "transaction": {
        "from": "0xf39fd6e51aad88f6f4ce6ab8827279cfffb92266",
        "to": "0xd0141e899a65c95a556fe2b27e5982a6de7fdd7a",
        "gas": "0xb589",
        "value": "0x0",
        "input": "0x953dc87e000000000000000000000000000000000000000000000000000000000000006000000000000000000000000000000000000000000000000000000003c7ae70c000000000000000000000000000000000000000000000000000000000000000010000000000000000000000000000000000000000000000000000000000000003414d440000000000000000000000000000000000000000000000000000000000",
        "nonce": "0xee",
        "chainId": "0xa455"
      },
      "additionalContracts": [],
      "isFixedGasLimit": false
    }
  ],
  "receipts": [
    {
      "status": "0x1",
      "cumulativeGasUsed": "0x380e1",
      "logs": [
        {
          "address": "0xd9140951d8ae6e5f625a02f5908535e16e3af964",
          "topics": [
            "0xe5f9c5663822b3882e2fa8f5fcbc56db18ccc15ec0ad63010c1e27bff6eb9269",
            "0x3a54a9a690616fbc26cfc409bf11f89d51f1d57a4ab2791fb86026cee74ed2f3"
          ],
          "data": "0x0000000000000000000000009587cd15faa3e816127f4fdae090c40dd5248af600000000000000000000000056d13eb21a625eda8438f55df2c31dc3632034f5",
          "blockHash": "0x381d46ce236ce4eba3170e4a263a6804e096674379663084b3678eb8dd8dd82c",
          "blockNumber": "0x4bc3",
          "blockTimestamp": "0x69d005d5",
          "transactionHash": "0x919d59b55cc232e39427427e8c2a25d0e4dd8cd8ae31c119f60f38ef75eb755b",
          "transactionIndex": "0x0",
          "logIndex": "0x0",
          "removed": false
        }
      ],
      "logsBloom": "0x00000000000000000000000000000000000000000000000000000000000000000000000000000000000000000000000000000000000000000002000000000000000000000000000000000000000000000000000000000000000000000000000000080000000000000000000000000000000000000000000000000000000000000000000000008000000000000000000000000000000000000000000000000000000000000000000000000000000000000100000000000000000000000000000000000000000000000000000001000000000000000000000000200000000000000000000000000000000000000000800000000100001000000000000000000000",
      "type": "0x2",
      "transactionHash": "0x919d59b55cc232e39427427e8c2a25d0e4dd8cd8ae31c119f60f38ef75eb755b",
      "transactionIndex": "0x0",
      "blockHash": "0x381d46ce236ce4eba3170e4a263a6804e096674379663084b3678eb8dd8dd82c",
      "blockNumber": "0x4bc3",
      "gasUsed": "0x380e1",
      "effectiveGasPrice": "0x8",
      "blobGasPrice": "0x1",
      "from": "0xf39fd6e51aad88f6f4ce6ab8827279cfffb92266",
      "to": "0xd9140951d8ae6e5f625a02f5908535e16e3af964",
      "contractAddress": null,
      "blockTimestamp": 1775240661
    },
    {
      "status": "0x1",
      "cumulativeGasUsed": "0x498c9",
      "logs": [
        {
          "address": "0x56d13eb21a625eda8438f55df2c31dc3632034f5",
          "topics": [
            "0x9190ede1bbf154005e1cdc753cb24ff7912bf4412bf72342e5ab03ee770facf0",
            "0x3a54a9a690616fbc26cfc409bf11f89d51f1d57a4ab2791fb86026cee74ed2f3"
          ],
          "data": "0x00000000000000000000000000000000000000000000000000000000000000400000000000000000000000009587cd15faa3e816127f4fdae090c40dd5248af600000000000000000000000000000000000000000000000000000000000000044141504c00000000000000000000000000000000000000000000000000000000",
          "blockHash": "0x381d46ce236ce4eba3170e4a263a6804e096674379663084b3678eb8dd8dd82c",
          "blockNumber": "0x4bc3",
          "blockTimestamp": "0x69d005d5",
          "transactionHash": "0xa80cae5b7400274fc50d9c8c223303d98b451cc9c9c18c5a9bdb64d075518ad0",
          "transactionIndex": "0x1",
          "logIndex": "0x1",
          "removed": false
        }
      ],
      "logsBloom": "0x00000000000000000000000000000000000000000000002000000000000000000000000000000000000000000000000000000000000000000002000000000000000000000000000000000000000000000000000000040000000000000000000000000000000000000000000000000000000000000000000000000001000000000000000000100000000000000000000000000000000000000000000000000000000000000000000000000000000000000100000000000000000000000000000000000008000000000000000001000000000000000000000000000000000000000000000000020000000000000000000000000000000000000000000000000000",
      "type": "0x2",
      "transactionHash": "0xa80cae5b7400274fc50d9c8c223303d98b451cc9c9c18c5a9bdb64d075518ad0",
      "transactionIndex": "0x1",
      "blockHash": "0x381d46ce236ce4eba3170e4a263a6804e096674379663084b3678eb8dd8dd82c",
      "blockNumber": "0x4bc3",
      "gasUsed": "0x117e8",
      "effectiveGasPrice": "0x8",
      "blobGasPrice": "0x1",
      "from": "0xf39fd6e51aad88f6f4ce6ab8827279cfffb92266",
      "to": "0x56d13eb21a625eda8438f55df2c31dc3632034f5",
      "contractAddress": null,
      "blockTimestamp": 1775240661
    },
    {
      "status": "0x1",
      "cumulativeGasUsed": "0x51148",
      "logs": [
        {
          "address": "0xd0141e899a65c95a556fe2b27e5982a6de7fdd7a",
          "topics": [
            "0xd78ddf5dda09409c5ba0a349a6c0149840d265112fa302b34dc3b322e7f675bc",
            "0x3a54a9a690616fbc26cfc409bf11f89d51f1d57a4ab2791fb86026cee74ed2f3"
          ],
          "data": "0x0000000000000000000000000000000000000000000000000000000429411400",
          "blockHash": "0x381d46ce236ce4eba3170e4a263a6804e096674379663084b3678eb8dd8dd82c",
          "blockNumber": "0x4bc3",
          "blockTimestamp": "0x69d005d5",
          "transactionHash": "0xbda338338d4c8fb7866e8dc00485550f9fd326db1b9fb51ebafcdcc05636d156",
          "transactionIndex": "0x2",
          "logIndex": "0x2",
          "removed": false
        }
      ],
      "logsBloom": "0x00000000000000000000000000000000000000000000000000000000000000000000000000000000000000000000000000000000000000000002000000000000000000000000000000000000000000000000000000000000000000000000000000000000000000000000000000000000000000000000000000000000000000000000000000000000000000000000000000200000000000000000000000000000000000000000001000000000000000000100000000000000000040000000000000000000000000000000000001000000000000000000000000000000000000000000000000000000800000000000000400000000000000000000000020000000",
      "type": "0x2",
      "transactionHash": "0xbda338338d4c8fb7866e8dc00485550f9fd326db1b9fb51ebafcdcc05636d156",
      "transactionIndex": "0x2",
      "blockHash": "0x381d46ce236ce4eba3170e4a263a6804e096674379663084b3678eb8dd8dd82c",
      "blockNumber": "0x4bc3",
      "gasUsed": "0x787f",
      "effectiveGasPrice": "0x8",
      "blobGasPrice": "0x1",
      "from": "0xf39fd6e51aad88f6f4ce6ab8827279cfffb92266",
      "to": "0xd0141e899a65c95a556fe2b27e5982a6de7fdd7a",
      "contractAddress": null,
      "blockTimestamp": 1775240661
    },
    {
      "status": "0x1",
      "cumulativeGasUsed": "0x84f5d",
      "logs": [
        {
          "address": "0xd9140951d8ae6e5f625a02f5908535e16e3af964",
          "topics": [
            "0xe5f9c5663822b3882e2fa8f5fcbc56db18ccc15ec0ad63010c1e27bff6eb9269",
            "0x0a8f1f385fed9c77a2e0daa363ccc865e971bdbe4458bb570cc0acb068d7c0f2"
          ],
          "data": "0x00000000000000000000000050bf91221d69370f534a8898159a80b1cbd12b7200000000000000000000000056d13eb21a625eda8438f55df2c31dc3632034f5",
          "blockHash": "0x381d46ce236ce4eba3170e4a263a6804e096674379663084b3678eb8dd8dd82c",
          "blockNumber": "0x4bc3",
          "blockTimestamp": "0x69d005d5",
          "transactionHash": "0xc74d5df0e95d541fc4ce04a04eff2f5e8bf8b1a3636ab9d8ba2530f7595f33c7",
          "transactionIndex": "0x3",
          "logIndex": "0x3",
          "removed": false
        }
      ],
      "logsBloom": "0x00000000000000000000000000000000000000000000000000000000000000000000000000000001000000000000000000000000000000000000000000000000000000000000000000000000000000000000000000000000000000000000000000080000000000000000000000000000000000000000000000000000000000000000000000008000000000000000000000000000000000000000000000000000000000000000000000000000000000000004002000000000000000000000000000000000000000000000000000000000000000000000000000200000000000000000000000000000000000000000800000000100001000000000000000000000",
      "type": "0x2",
      "transactionHash": "0xc74d5df0e95d541fc4ce04a04eff2f5e8bf8b1a3636ab9d8ba2530f7595f33c7",
      "transactionIndex": "0x3",
      "blockHash": "0x381d46ce236ce4eba3170e4a263a6804e096674379663084b3678eb8dd8dd82c",
      "blockNumber": "0x4bc3",
      "gasUsed": "0x33e15",
      "effectiveGasPrice": "0x8",
      "blobGasPrice": "0x1",
      "from": "0xf39fd6e51aad88f6f4ce6ab8827279cfffb92266",
      "to": "0xd9140951d8ae6e5f625a02f5908535e16e3af964",
      "contractAddress": null,
      "blockTimestamp": 1775240661
    },
    {
      "status": "0x1",
      "cumulativeGasUsed": "0x96745",
      "logs": [
        {
          "address": "0x56d13eb21a625eda8438f55df2c31dc3632034f5",
          "topics": [
            "0x9190ede1bbf154005e1cdc753cb24ff7912bf4412bf72342e5ab03ee770facf0",
            "0x0a8f1f385fed9c77a2e0daa363ccc865e971bdbe4458bb570cc0acb068d7c0f2"
          ],
          "data": "0x000000000000000000000000000000000000000000000000000000000000004000000000000000000000000050bf91221d69370f534a8898159a80b1cbd12b72000000000000000000000000000000000000000000000000000000000000000454534c4100000000000000000000000000000000000000000000000000000000",
          "blockHash": "0x381d46ce236ce4eba3170e4a263a6804e096674379663084b3678eb8dd8dd82c",
          "blockNumber": "0x4bc3",
          "blockTimestamp": "0x69d005d5",
          "transactionHash": "0x6b4e84d366b2a481dae2089c9449f76b4b0bd8359e1379eca5e5167f4c28d5ab",
          "transactionIndex": "0x4",
          "logIndex": "0x4",
          "removed": false
        }
      ],
      "logsBloom": "0x00000000000000000000000000000000000000000000002000000000000000000000000000000001000000000000000000000000000000000000000000000000000000000000000000000000000000000000000000040000000000000000000000000000000000000000000000000000000000000000000000000001000000000000000000100000000000000000000000000000000000000000000000000000000000000000000000000000000000000004002000000000000000000000000000000008000000000000000000000000000000000000000000000000000000000000000000020000000000000000000000000000000000000000000000000000",
      "type": "0x2",
      "transactionHash": "0x6b4e84d366b2a481dae2089c9449f76b4b0bd8359e1379eca5e5167f4c28d5ab",
      "transactionIndex": "0x4",
      "blockHash": "0x381d46ce236ce4eba3170e4a263a6804e096674379663084b3678eb8dd8dd82c",
      "blockNumber": "0x4bc3",
      "gasUsed": "0x117e8",
      "effectiveGasPrice": "0x8",
      "blobGasPrice": "0x1",
      "from": "0xf39fd6e51aad88f6f4ce6ab8827279cfffb92266",
      "to": "0x56d13eb21a625eda8438f55df2c31dc3632034f5",
      "contractAddress": null,
      "blockTimestamp": 1775240661
    },
    {
      "status": "0x1",
      "cumulativeGasUsed": "0x9dfd0",
      "logs": [
        {
          "address": "0xd0141e899a65c95a556fe2b27e5982a6de7fdd7a",
          "topics": [
            "0xd78ddf5dda09409c5ba0a349a6c0149840d265112fa302b34dc3b322e7f675bc",
            "0x0a8f1f385fed9c77a2e0daa363ccc865e971bdbe4458bb570cc0acb068d7c0f2"
          ],
          "data": "0x00000000000000000000000000000000000000000000000000000005c92ce880",
          "blockHash": "0x381d46ce236ce4eba3170e4a263a6804e096674379663084b3678eb8dd8dd82c",
          "blockNumber": "0x4bc3",
          "blockTimestamp": "0x69d005d5",
          "transactionHash": "0xf01d1deaeeb786c13a1aa86372ce9fdf6cd6d85213bfc8dae1caa57ad21809b6",
          "transactionIndex": "0x5",
          "logIndex": "0x5",
          "removed": false
        }
      ],
      "logsBloom": "0x00000000000000000000000000000000000000000000000000000000000000000000000000000001000000000000000000000000000000000000000000000000000000000000000000000000000000000000000000000000000000000000000000000000000000000000000000000000000000000000000000000000000000000000000000000000000000000000000000200000000000000000000000000000000000000000001000000000000000000004002000000000000040000000000000000000000000000000000000000000000000000000000000000000000000000000000000000000800000000000000400000000000000000000000020000000",
      "type": "0x2",
      "transactionHash": "0xf01d1deaeeb786c13a1aa86372ce9fdf6cd6d85213bfc8dae1caa57ad21809b6",
      "transactionIndex": "0x5",
      "blockHash": "0x381d46ce236ce4eba3170e4a263a6804e096674379663084b3678eb8dd8dd82c",
      "blockNumber": "0x4bc3",
      "gasUsed": "0x788b",
      "effectiveGasPrice": "0x8",
      "blobGasPrice": "0x1",
      "from": "0xf39fd6e51aad88f6f4ce6ab8827279cfffb92266",
      "to": "0xd0141e899a65c95a556fe2b27e5982a6de7fdd7a",
      "contractAddress": null,
      "blockTimestamp": 1775240661
    },
    {
      "status": "0x1",
      "cumulativeGasUsed": "0xd1dfd",
      "logs": [
        {
          "address": "0xd9140951d8ae6e5f625a02f5908535e16e3af964",
          "topics": [
            "0xe5f9c5663822b3882e2fa8f5fcbc56db18ccc15ec0ad63010c1e27bff6eb9269",
            "0xe108948b9667048232851f26a1427d3a908b22da622562906ca50ea536c2ecfb"
          ],
          "data": "0x00000000000000000000000059ed2002eda2bbf12fdd28755a28638eb90b1a4100000000000000000000000056d13eb21a625eda8438f55df2c31dc3632034f5",
          "blockHash": "0x381d46ce236ce4eba3170e4a263a6804e096674379663084b3678eb8dd8dd82c",
          "blockNumber": "0x4bc3",
          "blockTimestamp": "0x69d005d5",
          "transactionHash": "0x53fbd0e0159d1a3b614acab82e2e1d267ba92574ea9f8b9e710bd8782ba22073",
          "transactionIndex": "0x6",
          "logIndex": "0x6",
          "removed": false
        }
      ],
      "logsBloom": "0x00000000000000000000000000000000000000000000000000000000000000000000000000000000000000000000000000000000000000000000000000000000000000000000000000000000000000000000000000000000000000000000000000480000000000000000000000000000000000000000000000000000000000000000000000008000000000000000000000000000000000000000000000000000000000000000000000000000000000000000000000000000000000000000000000000000000000000000000000000000000000000000000000200000000000001000000000000000000000000000800000000100001000000000000000000000",
      "type": "0x2",
      "transactionHash": "0x53fbd0e0159d1a3b614acab82e2e1d267ba92574ea9f8b9e710bd8782ba22073",
      "transactionIndex": "0x6",
      "blockHash": "0x381d46ce236ce4eba3170e4a263a6804e096674379663084b3678eb8dd8dd82c",
      "blockNumber": "0x4bc3",
      "gasUsed": "0x33e2d",
      "effectiveGasPrice": "0x8",
      "blobGasPrice": "0x1",
      "from": "0xf39fd6e51aad88f6f4ce6ab8827279cfffb92266",
      "to": "0xd9140951d8ae6e5f625a02f5908535e16e3af964",
      "contractAddress": null,
      "blockTimestamp": 1775240661
    },
    {
      "status": "0x1",
      "cumulativeGasUsed": "0xe35e5",
      "logs": [
        {
          "address": "0x56d13eb21a625eda8438f55df2c31dc3632034f5",
          "topics": [
            "0x9190ede1bbf154005e1cdc753cb24ff7912bf4412bf72342e5ab03ee770facf0",
            "0xe108948b9667048232851f26a1427d3a908b22da622562906ca50ea536c2ecfb"
          ],
          "data": "0x000000000000000000000000000000000000000000000000000000000000004000000000000000000000000059ed2002eda2bbf12fdd28755a28638eb90b1a4100000000000000000000000000000000000000000000000000000000000000044e56444100000000000000000000000000000000000000000000000000000000",
          "blockHash": "0x381d46ce236ce4eba3170e4a263a6804e096674379663084b3678eb8dd8dd82c",
          "blockNumber": "0x4bc3",
          "blockTimestamp": "0x69d005d5",
          "transactionHash": "0x20b0c86923f8b87acd1a422123f1b2354bae0c8afe78765d71ffe1fc396d950e",
          "transactionIndex": "0x7",
          "logIndex": "0x7",
          "removed": false
        }
      ],
      "logsBloom": "0x00000000000000000000000000000000000000000000002000000000000000000000000000000000000000000000000000000000000000000000000000000000000000000000000000000000000000000000000000040000000000000000000000480000000000000000000000000000000000000000000000000001000000000000000000100000000000000000000000000000000000000000000000000000000000000000000000000000000000000000000000000000000000000000000000000008000000000000000000000000000000000000000000000000000000001000000000020000000000000000000000000000000000000000000000000000",
      "type": "0x2",
      "transactionHash": "0x20b0c86923f8b87acd1a422123f1b2354bae0c8afe78765d71ffe1fc396d950e",
      "transactionIndex": "0x7",
      "blockHash": "0x381d46ce236ce4eba3170e4a263a6804e096674379663084b3678eb8dd8dd82c",
      "blockNumber": "0x4bc3",
      "gasUsed": "0x117e8",
      "effectiveGasPrice": "0x8",
      "blobGasPrice": "0x1",
      "from": "0xf39fd6e51aad88f6f4ce6ab8827279cfffb92266",
      "to": "0x56d13eb21a625eda8438f55df2c31dc3632034f5",
      "contractAddress": null,
      "blockTimestamp": 1775240661
    },
    {
      "status": "0x1",
      "cumulativeGasUsed": "0xeae70",
      "logs": [
        {
          "address": "0xd0141e899a65c95a556fe2b27e5982a6de7fdd7a",
          "topics": [
            "0xd78ddf5dda09409c5ba0a349a6c0149840d265112fa302b34dc3b322e7f675bc",
            "0xe108948b9667048232851f26a1427d3a908b22da622562906ca50ea536c2ecfb"
          ],
          "data": "0x000000000000000000000000000000000000000000000000000000146131ce80",
          "blockHash": "0x381d46ce236ce4eba3170e4a263a6804e096674379663084b3678eb8dd8dd82c",
          "blockNumber": "0x4bc3",
          "blockTimestamp": "0x69d005d5",
          "transactionHash": "0x545264f3b0cab0ed0892bd9e5190e18ccb1d19dfd0fbbb761543bdd826738348",
          "transactionIndex": "0x8",
          "logIndex": "0x8",
          "removed": false
        }
      ],
      "logsBloom": "0x00000000000000000000000000000000000000000000000000000000000000000000000000000000000000000000000000000000000000000000000000000000000000000000000000000000000000000000000000000000000000000000000000480000000000000000000000000000000000000000000000000000000000000000000000000000000000000000000000200000000000000000000000000000000000000000001000000000000000000000000000000000000040000000000000000000000000000000000000000000000000000000000000000000000000001000000000000000800000000000000400000000000000000000000020000000",
      "type": "0x2",
      "transactionHash": "0x545264f3b0cab0ed0892bd9e5190e18ccb1d19dfd0fbbb761543bdd826738348",
      "transactionIndex": "0x8",
      "blockHash": "0x381d46ce236ce4eba3170e4a263a6804e096674379663084b3678eb8dd8dd82c",
      "blockNumber": "0x4bc3",
      "gasUsed": "0x788b",
      "effectiveGasPrice": "0x8",
      "blobGasPrice": "0x1",
      "from": "0xf39fd6e51aad88f6f4ce6ab8827279cfffb92266",
      "to": "0xd0141e899a65c95a556fe2b27e5982a6de7fdd7a",
      "contractAddress": null,
      "blockTimestamp": 1775240661
    },
    {
      "status": "0x1",
      "cumulativeGasUsed": "0x11ecc1",
      "logs": [
        {
          "address": "0xd9140951d8ae6e5f625a02f5908535e16e3af964",
          "topics": [
            "0xe5f9c5663822b3882e2fa8f5fcbc56db18ccc15ec0ad63010c1e27bff6eb9269",
            "0xb2023082f01404dd0ce6937cab03c4f5d6db9ba8b1fac7e7ee6d8d6d899f4e3d"
          ],
          "data": "0x0000000000000000000000002ab7856411662e5c3452bfa63ffb626e2594c08800000000000000000000000056d13eb21a625eda8438f55df2c31dc3632034f5",
          "blockHash": "0x381d46ce236ce4eba3170e4a263a6804e096674379663084b3678eb8dd8dd82c",
          "blockNumber": "0x4bc3",
          "blockTimestamp": "0x69d005d5",
          "transactionHash": "0xd685ae2be8a560e7e5e84c8235adb5804e8a3ca034effcbf3b0bd61ebe2d7b2f",
          "transactionIndex": "0x9",
          "logIndex": "0x9",
          "removed": false
        }
      ],
      "logsBloom": "0x00000000000000000000000000080000000000000000000000000000000000000000000000000000000000000000000000000000000000000000000000000000000000000000000000000000000000000000000000000000000000000000000000080000000000000000000000000000000000000000000000000000000000000000000000008000000000000000000000000000000000000000000000200000000000000000000000000000000000000000000000000000000000000000000000000000000000000000000000000000000000000000020000200000000000000000000000000000000000000000800000000100001000000000000000000000",
      "type": "0x2",
      "transactionHash": "0xd685ae2be8a560e7e5e84c8235adb5804e8a3ca034effcbf3b0bd61ebe2d7b2f",
      "transactionIndex": "0x9",
      "blockHash": "0x381d46ce236ce4eba3170e4a263a6804e096674379663084b3678eb8dd8dd82c",
      "blockNumber": "0x4bc3",
      "gasUsed": "0x33e51",
      "effectiveGasPrice": "0x8",
      "blobGasPrice": "0x1",
      "from": "0xf39fd6e51aad88f6f4ce6ab8827279cfffb92266",
      "to": "0xd9140951d8ae6e5f625a02f5908535e16e3af964",
      "contractAddress": null,
      "blockTimestamp": 1775240661
    },
    {
      "status": "0x1",
      "cumulativeGasUsed": "0x1304a9",
      "logs": [
        {
          "address": "0x56d13eb21a625eda8438f55df2c31dc3632034f5",
          "topics": [
            "0x9190ede1bbf154005e1cdc753cb24ff7912bf4412bf72342e5ab03ee770facf0",
            "0xb2023082f01404dd0ce6937cab03c4f5d6db9ba8b1fac7e7ee6d8d6d899f4e3d"
          ],
          "data": "0x00000000000000000000000000000000000000000000000000000000000000400000000000000000000000002ab7856411662e5c3452bfa63ffb626e2594c08800000000000000000000000000000000000000000000000000000000000000044d53465400000000000000000000000000000000000000000000000000000000",
          "blockHash": "0x381d46ce236ce4eba3170e4a263a6804e096674379663084b3678eb8dd8dd82c",
          "blockNumber": "0x4bc3",
          "blockTimestamp": "0x69d005d5",
          "transactionHash": "0xb2f4a0e12c2e8b137bf8680469eb33377cba06216cefbc9d9355a6f3959ec9ee",
          "transactionIndex": "0xa",
          "logIndex": "0xa",
          "removed": false
        }
      ],
      "logsBloom": "0x00000000000000000000000000080000000000000000002000000000000000000000000000000000000000000000000000000000000000000000000000000000000000000000000000000000000000000000000000040000000000000000000000000000000000000000000000000000000000000000000000000001000000000000000000100000000000000000000000000000000000000000000000200000000000000000000000000000000000000000000000000000000000000000000000000008000000000000000000000000000000000000020000000000000000000000000000020000000000000000000000000000000000000000000000000000",
      "type": "0x2",
      "transactionHash": "0xb2f4a0e12c2e8b137bf8680469eb33377cba06216cefbc9d9355a6f3959ec9ee",
      "transactionIndex": "0xa",
      "blockHash": "0x381d46ce236ce4eba3170e4a263a6804e096674379663084b3678eb8dd8dd82c",
      "blockNumber": "0x4bc3",
      "gasUsed": "0x117e8",
      "effectiveGasPrice": "0x8",
      "blobGasPrice": "0x1",
      "from": "0xf39fd6e51aad88f6f4ce6ab8827279cfffb92266",
      "to": "0x56d13eb21a625eda8438f55df2c31dc3632034f5",
      "contractAddress": null,
      "blockTimestamp": 1775240661
    },
    {
      "status": "0x1",
      "cumulativeGasUsed": "0x137d28",
      "logs": [
        {
          "address": "0xd0141e899a65c95a556fe2b27e5982a6de7fdd7a",
          "topics": [
            "0xd78ddf5dda09409c5ba0a349a6c0149840d265112fa302b34dc3b322e7f675bc",
            "0xb2023082f01404dd0ce6937cab03c4f5d6db9ba8b1fac7e7ee6d8d6d899f4e3d"
          ],
          "data": "0x00000000000000000000000000000000000000000000000000000009ad2b4600",
          "blockHash": "0x381d46ce236ce4eba3170e4a263a6804e096674379663084b3678eb8dd8dd82c",
          "blockNumber": "0x4bc3",
          "blockTimestamp": "0x69d005d5",
          "transactionHash": "0xeb498660d93270971b2e1a8c07b02f2e2ca9730a26e9fe4dd28bad96c5c0e0ea",
          "transactionIndex": "0xb",
          "logIndex": "0xb",
          "removed": false
        }
      ],
      "logsBloom": "0x00000000000000000000000000080000000000000000000000000000000000000000000000000000000000000000000000000000000000000000000000000000000000000000000000000000000000000000000000000000000000000000000000000000000000000000000000000000000000000000000000000000000000000000000000000000000000000000000000200000000000000000000000200000000000000000001000000000000000000000000000000000000040000000000000000000000000000000000000000000000000000000020000000000000000000000000000000000800000000000000400000000000000000000000020000000",
      "type": "0x2",
      "transactionHash": "0xeb498660d93270971b2e1a8c07b02f2e2ca9730a26e9fe4dd28bad96c5c0e0ea",
      "transactionIndex": "0xb",
      "blockHash": "0x381d46ce236ce4eba3170e4a263a6804e096674379663084b3678eb8dd8dd82c",
      "blockNumber": "0x4bc3",
      "gasUsed": "0x787f",
      "effectiveGasPrice": "0x8",
      "blobGasPrice": "0x1",
      "from": "0xf39fd6e51aad88f6f4ce6ab8827279cfffb92266",
      "to": "0xd0141e899a65c95a556fe2b27e5982a6de7fdd7a",
      "contractAddress": null,
      "blockTimestamp": 1775240661
    },
    {
      "status": "0x1",
      "cumulativeGasUsed": "0x16bb79",
      "logs": [
        {
          "address": "0xd9140951d8ae6e5f625a02f5908535e16e3af964",
          "topics": [
            "0xe5f9c5663822b3882e2fa8f5fcbc56db18ccc15ec0ad63010c1e27bff6eb9269",
            "0x6c755094f1cdd95e2e4170549dc12e7555151536b32029b8d94678134de2ef0d"
          ],
          "data": "0x00000000000000000000000043ca2d043964cfde45405367036f9ec99130191800000000000000000000000056d13eb21a625eda8438f55df2c31dc3632034f5",
          "blockHash": "0x381d46ce236ce4eba3170e4a263a6804e096674379663084b3678eb8dd8dd82c",
          "blockNumber": "0x4bc3",
          "blockTimestamp": "0x69d005d5",
          "transactionHash": "0xd37f15a8dd5182e16e1e980e70975c34002af33a1ddbce62448affd1fe7e9ee3",
          "transactionIndex": "0xc",
          "logIndex": "0xc",
          "removed": false
        }
      ],
      "logsBloom": "0x00000000000000000000000000000000000000000000000000000000000000000000000000000000000000000000000000000000000000000000000000000000000000000000080000000000000000000000000000000001000000000000000000080000000000000000000000000000000000000000000000000000000000000000000000008000000000000000000000000000000000000000000000000000000000000000000000000000000000000000000000000000000000000000000000000000000000000000000000000000000000000000000000200000000000000000000000004000000000000000800000000100001000000000000000000000",
      "type": "0x2",
      "transactionHash": "0xd37f15a8dd5182e16e1e980e70975c34002af33a1ddbce62448affd1fe7e9ee3",
      "transactionIndex": "0xc",
      "blockHash": "0x381d46ce236ce4eba3170e4a263a6804e096674379663084b3678eb8dd8dd82c",
      "blockNumber": "0x4bc3",
      "gasUsed": "0x33e51",
      "effectiveGasPrice": "0x8",
      "blobGasPrice": "0x1",
      "from": "0xf39fd6e51aad88f6f4ce6ab8827279cfffb92266",
      "to": "0xd9140951d8ae6e5f625a02f5908535e16e3af964",
      "contractAddress": null,
      "blockTimestamp": 1775240661
    },
    {
      "status": "0x1",
      "cumulativeGasUsed": "0x17d361",
      "logs": [
        {
          "address": "0x56d13eb21a625eda8438f55df2c31dc3632034f5",
          "topics": [
            "0x9190ede1bbf154005e1cdc753cb24ff7912bf4412bf72342e5ab03ee770facf0",
            "0x6c755094f1cdd95e2e4170549dc12e7555151536b32029b8d94678134de2ef0d"
          ],
          "data": "0x000000000000000000000000000000000000000000000000000000000000004000000000000000000000000043ca2d043964cfde45405367036f9ec9913019180000000000000000000000000000000000000000000000000000000000000004414d5a4e00000000000000000000000000000000000000000000000000000000",
          "blockHash": "0x381d46ce236ce4eba3170e4a263a6804e096674379663084b3678eb8dd8dd82c",
          "blockNumber": "0x4bc3",
          "blockTimestamp": "0x69d005d5",
          "transactionHash": "0xbd7956aa8d6720f5725d862031251ecf7d41a93b12f95be183c001c12eaff547",
          "transactionIndex": "0xd",
          "logIndex": "0xd",
          "removed": false
        }
      ],
      "logsBloom": "0x00000000000000000000000000000000000000000000002000000000000000000000000000000000000000000000000000000000000000000000000000000000000000000000080000000000000000000000000000040001000000000000000000000000000000000000000000000000000000000000000000000001000000000000000000100000000000000000000000000000000000000000000000000000000000000000000000000000000000000000000000000000000000000000000000000008000000000000000000000000000000000000000000000000000000000000000000024000000000000000000000000000000000000000000000000000",
      "type": "0x2",
      "transactionHash": "0xbd7956aa8d6720f5725d862031251ecf7d41a93b12f95be183c001c12eaff547",
      "transactionIndex": "0xd",
      "blockHash": "0x381d46ce236ce4eba3170e4a263a6804e096674379663084b3678eb8dd8dd82c",
      "blockNumber": "0x4bc3",
      "gasUsed": "0x117e8",
      "effectiveGasPrice": "0x8",
      "blobGasPrice": "0x1",
      "from": "0xf39fd6e51aad88f6f4ce6ab8827279cfffb92266",
      "to": "0x56d13eb21a625eda8438f55df2c31dc3632034f5",
      "contractAddress": null,
      "blockTimestamp": 1775240661
    },
    {
      "status": "0x1",
      "cumulativeGasUsed": "0x184bec",
      "logs": [
        {
          "address": "0xd0141e899a65c95a556fe2b27e5982a6de7fdd7a",
          "topics": [
            "0xd78ddf5dda09409c5ba0a349a6c0149840d265112fa302b34dc3b322e7f675bc",
            "0x6c755094f1cdd95e2e4170549dc12e7555151536b32029b8d94678134de2ef0d"
          ],
          "data": "0x000000000000000000000000000000000000000000000000000000043db2d7c0",
          "blockHash": "0x381d46ce236ce4eba3170e4a263a6804e096674379663084b3678eb8dd8dd82c",
          "blockNumber": "0x4bc3",
          "blockTimestamp": "0x69d005d5",
          "transactionHash": "0x8de522406de9351a06533549ba9fdb8161825292e00e73d5f05fc9d6c713dd9f",
          "transactionIndex": "0xe",
          "logIndex": "0xe",
          "removed": false
        }
      ],
      "logsBloom": "0x00000000000000000000000000000000000000000000000000000000000000000000000000000000000000000000000000000000000000000000000000000000000000000000080000000000000000000000000000000001000000000000000000000000000000000000000000000000000000000000000000000000000000000000000000000000000000000000000000200000000000000000000000000000000000000000001000000000000000000000000000000000000040000000000000000000000000000000000000000000000000000000000000000000000000000000000000004000800000000000000400000000000000000000000020000000",
      "type": "0x2",
      "transactionHash": "0x8de522406de9351a06533549ba9fdb8161825292e00e73d5f05fc9d6c713dd9f",
      "transactionIndex": "0xe",
      "blockHash": "0x381d46ce236ce4eba3170e4a263a6804e096674379663084b3678eb8dd8dd82c",
      "blockNumber": "0x4bc3",
      "gasUsed": "0x788b",
      "effectiveGasPrice": "0x8",
      "blobGasPrice": "0x1",
      "from": "0xf39fd6e51aad88f6f4ce6ab8827279cfffb92266",
      "to": "0xd0141e899a65c95a556fe2b27e5982a6de7fdd7a",
      "contractAddress": null,
      "blockTimestamp": 1775240661
    },
    {
      "status": "0x1",
      "cumulativeGasUsed": "0x1b8a31",
      "logs": [
        {
          "address": "0xd9140951d8ae6e5f625a02f5908535e16e3af964",
          "topics": [
            "0xe5f9c5663822b3882e2fa8f5fcbc56db18ccc15ec0ad63010c1e27bff6eb9269",
            "0x5480d4740314d9a5fa65eac6dab758c3c95d65be45311b45c3551575d760e7d8"
          ],
          "data": "0x000000000000000000000000f2da7a9324397ebe46b5fa2ecf2c2852afece06b00000000000000000000000056d13eb21a625eda8438f55df2c31dc3632034f5",
          "blockHash": "0x381d46ce236ce4eba3170e4a263a6804e096674379663084b3678eb8dd8dd82c",
          "blockNumber": "0x4bc3",
          "blockTimestamp": "0x69d005d5",
          "transactionHash": "0x4aad93a61fd71376ee5efe42680c7bacc582749ecf052f6c56106da7519b17ca",
          "transactionIndex": "0xf",
          "logIndex": "0xf",
          "removed": false
        }
      ],
      "logsBloom": "0x00000000000000000000000000000000000000000000000000000000000000000000000000000000000000000000000000000000000000000000000000000000000000000000000000000000000000000000000000000000000000000008000000080000000000000000000000000000000000000000000000000000000000000000000000008000000000000000000000000000000000000000000000000000000000000000000000000000000000000000100000000000000800000000000000000000000000000000000000000000000000000000000000200000000000000000000000000000000000000000800000000100001000000000000000000000",
      "type": "0x2",
      "transactionHash": "0x4aad93a61fd71376ee5efe42680c7bacc582749ecf052f6c56106da7519b17ca",
      "transactionIndex": "0xf",
      "blockHash": "0x381d46ce236ce4eba3170e4a263a6804e096674379663084b3678eb8dd8dd82c",
      "blockNumber": "0x4bc3",
      "gasUsed": "0x33e45",
      "effectiveGasPrice": "0x8",
      "blobGasPrice": "0x1",
      "from": "0xf39fd6e51aad88f6f4ce6ab8827279cfffb92266",
      "to": "0xd9140951d8ae6e5f625a02f5908535e16e3af964",
      "contractAddress": null,
      "blockTimestamp": 1775240661
    },
    {
      "status": "0x1",
      "cumulativeGasUsed": "0x1ca225",
      "logs": [
        {
          "address": "0x56d13eb21a625eda8438f55df2c31dc3632034f5",
          "topics": [
            "0x9190ede1bbf154005e1cdc753cb24ff7912bf4412bf72342e5ab03ee770facf0",
            "0x5480d4740314d9a5fa65eac6dab758c3c95d65be45311b45c3551575d760e7d8"
          ],
          "data": "0x0000000000000000000000000000000000000000000000000000000000000040000000000000000000000000f2da7a9324397ebe46b5fa2ecf2c2852afece06b0000000000000000000000000000000000000000000000000000000000000005474f4f474c000000000000000000000000000000000000000000000000000000",
          "blockHash": "0x381d46ce236ce4eba3170e4a263a6804e096674379663084b3678eb8dd8dd82c",
          "blockNumber": "0x4bc3",
          "blockTimestamp": "0x69d005d5",
          "transactionHash": "0x4f0f1b52b249b74c5c0f4da71b4a0604d07fd9e59afe859b7b3706e88acb47b2",
          "transactionIndex": "0x10",
          "logIndex": "0x10",
          "removed": false
        }
      ],
      "logsBloom": "0x00000000000000000000000000000000000000000000002000000000000000000000000000000000000000000000000000000000000000000000000000000000000000000000000000000000000000000000000000040000000000000008000000000000000000000000000000000000000000000000000000000001000000000000000000100000000000000000000000000000000000000000000000000000000000000000000000000000000000000000100000000000000800000000000000000008000000000000000000000000000000000000000000000000000000000000000000020000000000000000000000000000000000000000000000000000",
      "type": "0x2",
      "transactionHash": "0x4f0f1b52b249b74c5c0f4da71b4a0604d07fd9e59afe859b7b3706e88acb47b2",
      "transactionIndex": "0x10",
      "blockHash": "0x381d46ce236ce4eba3170e4a263a6804e096674379663084b3678eb8dd8dd82c",
      "blockNumber": "0x4bc3",
      "gasUsed": "0x117f4",
      "effectiveGasPrice": "0x8",
      "blobGasPrice": "0x1",
      "from": "0xf39fd6e51aad88f6f4ce6ab8827279cfffb92266",
      "to": "0x56d13eb21a625eda8438f55df2c31dc3632034f5",
      "contractAddress": null,
      "blockTimestamp": 1775240661
    },
    {
      "status": "0x1",
      "cumulativeGasUsed": "0x1d1ab0",
      "logs": [
        {
          "address": "0xd0141e899a65c95a556fe2b27e5982a6de7fdd7a",
          "topics": [
            "0xd78ddf5dda09409c5ba0a349a6c0149840d265112fa302b34dc3b322e7f675bc",
            "0x5480d4740314d9a5fa65eac6dab758c3c95d65be45311b45c3551575d760e7d8"
          ],
          "data": "0x00000000000000000000000000000000000000000000000000000003a0a3ef00",
          "blockHash": "0x381d46ce236ce4eba3170e4a263a6804e096674379663084b3678eb8dd8dd82c",
          "blockNumber": "0x4bc3",
          "blockTimestamp": "0x69d005d5",
          "transactionHash": "0x5fe9e2c0a2e607c40264c5a7dece21f82bc8c8a0bf5ddda4062ef58ab991f140",
          "transactionIndex": "0x11",
          "logIndex": "0x11",
          "removed": false
        }
      ],
      "logsBloom": "0x00000000000000000000000000000000000000000000000000000000000000000000000000000000000000000000000000000000000000000000000000000000000000000000000000000000000000000000000000000000000000000008000000000000000000000000000000000000000000000000000000000000000000000000000000000000000000000000000000200000000000000000000000000000000000000000001000000000000000000000100000000000000840000000000000000000000000000000000000000000000000000000000000000000000000000000000000000000800000000000000400000000000000000000000020000000",
      "type": "0x2",
      "transactionHash": "0x5fe9e2c0a2e607c40264c5a7dece21f82bc8c8a0bf5ddda4062ef58ab991f140",
      "transactionIndex": "0x11",
      "blockHash": "0x381d46ce236ce4eba3170e4a263a6804e096674379663084b3678eb8dd8dd82c",
      "blockNumber": "0x4bc3",
      "gasUsed": "0x788b",
      "effectiveGasPrice": "0x8",
      "blobGasPrice": "0x1",
      "from": "0xf39fd6e51aad88f6f4ce6ab8827279cfffb92266",
      "to": "0xd0141e899a65c95a556fe2b27e5982a6de7fdd7a",
      "contractAddress": null,
      "blockTimestamp": 1775240661
    },
    {
      "status": "0x1",
      "cumulativeGasUsed": "0x2058f5",
      "logs": [
        {
          "address": "0xd9140951d8ae6e5f625a02f5908535e16e3af964",
          "topics": [
            "0xe5f9c5663822b3882e2fa8f5fcbc56db18ccc15ec0ad63010c1e27bff6eb9269",
            "0x0057355892fab25ddc63a7482ec1696d6ada670339b1ae464da8f6b958ddbee8"
          ],
          "data": "0x000000000000000000000000bbe5c4adb5170717b658550c2e5ca49c791e4ca500000000000000000000000056d13eb21a625eda8438f55df2c31dc3632034f5",
          "blockHash": "0x381d46ce236ce4eba3170e4a263a6804e096674379663084b3678eb8dd8dd82c",
          "blockNumber": "0x4bc3",
          "blockTimestamp": "0x69d005d5",
          "transactionHash": "0xa5c2766f990d2ebe2fa2ca68c5c90e80e183484691cde46d48fbb913cbac92c9",
          "transactionIndex": "0x12",
          "logIndex": "0x12",
          "removed": false
        }
      ],
      "logsBloom": "0x00000000000000000000000000000000000000000000000000000000000000000000000000000000000000000000000000000000000000000000000000000000000000000000000000000000000000000000000000000000000000000000000000080000100000000000000008000000000000000000000000000000000000000000000000008000000000000000000000000000000000000000000000000000000000000000000000000000000000000000000000000000000000000000000000000000000000000000000000000000000000000000000000200000000000400000000000000000000000000000800000000100001000000000000000000000",
      "type": "0x2",
      "transactionHash": "0xa5c2766f990d2ebe2fa2ca68c5c90e80e183484691cde46d48fbb913cbac92c9",
      "transactionIndex": "0x12",
      "blockHash": "0x381d46ce236ce4eba3170e4a263a6804e096674379663084b3678eb8dd8dd82c",
      "blockNumber": "0x4bc3",
      "gasUsed": "0x33e45",
      "effectiveGasPrice": "0x8",
      "blobGasPrice": "0x1",
      "from": "0xf39fd6e51aad88f6f4ce6ab8827279cfffb92266",
      "to": "0xd9140951d8ae6e5f625a02f5908535e16e3af964",
      "contractAddress": null,
      "blockTimestamp": 1775240661
    },
    {
      "status": "0x1",
      "cumulativeGasUsed": "0x2170dd",
      "logs": [
        {
          "address": "0x56d13eb21a625eda8438f55df2c31dc3632034f5",
          "topics": [
            "0x9190ede1bbf154005e1cdc753cb24ff7912bf4412bf72342e5ab03ee770facf0",
            "0x0057355892fab25ddc63a7482ec1696d6ada670339b1ae464da8f6b958ddbee8"
          ],
          "data": "0x0000000000000000000000000000000000000000000000000000000000000040000000000000000000000000bbe5c4adb5170717b658550c2e5ca49c791e4ca500000000000000000000000000000000000000000000000000000000000000044d45544100000000000000000000000000000000000000000000000000000000",
          "blockHash": "0x381d46ce236ce4eba3170e4a263a6804e096674379663084b3678eb8dd8dd82c",
          "blockNumber": "0x4bc3",
          "blockTimestamp": "0x69d005d5",
          "transactionHash": "0xf0da9c2b773781fd2576f9818bfd2c0f675dc71656a963a1b79121b319534c2d",
          "transactionIndex": "0x13",
          "logIndex": "0x13",
          "removed": false
        }
      ],
      "logsBloom": "0x00000000000000000000000000000000000000000000002000000000000000000000000000000000000000000000000000000000000000000000000000000000000000000000000000000000000000000000000000040000000000000000000000000000100000000000000008000000000000000000000000000001000000000000000000100000000000000000000000000000000000000000000000000000000000000000000000000000000000000000000000000000000000000000000000000008000000000000000000000000000000000000000000000000000000400000000000020000000000000000000000000000000000000000000000000000",
      "type": "0x2",
      "transactionHash": "0xf0da9c2b773781fd2576f9818bfd2c0f675dc71656a963a1b79121b319534c2d",
      "transactionIndex": "0x13",
      "blockHash": "0x381d46ce236ce4eba3170e4a263a6804e096674379663084b3678eb8dd8dd82c",
      "blockNumber": "0x4bc3",
      "gasUsed": "0x117e8",
      "effectiveGasPrice": "0x8",
      "blobGasPrice": "0x1",
      "from": "0xf39fd6e51aad88f6f4ce6ab8827279cfffb92266",
      "to": "0x56d13eb21a625eda8438f55df2c31dc3632034f5",
      "contractAddress": null,
      "blockTimestamp": 1775240661
    },
    {
      "status": "0x1",
      "cumulativeGasUsed": "0x21e968",
      "logs": [
        {
          "address": "0xd0141e899a65c95a556fe2b27e5982a6de7fdd7a",
          "topics": [
            "0xd78ddf5dda09409c5ba0a349a6c0149840d265112fa302b34dc3b322e7f675bc",
            "0x0057355892fab25ddc63a7482ec1696d6ada670339b1ae464da8f6b958ddbee8"
          ],
          "data": "0x0000000000000000000000000000000000000000000000000000000bb79a8f40",
          "blockHash": "0x381d46ce236ce4eba3170e4a263a6804e096674379663084b3678eb8dd8dd82c",
          "blockNumber": "0x4bc3",
          "blockTimestamp": "0x69d005d5",
          "transactionHash": "0x1188c70611713314cfae7f9f30f18fe2b66ab4eea81147387576e18e0b457e93",
          "transactionIndex": "0x14",
          "logIndex": "0x14",
          "removed": false
        }
      ],
      "logsBloom": "0x00000000000000000000000000000000000000000000000000000000000000000000000000000000000000000000000000000000000000000000000000000000000000000000000000000000000000000000000000000000000000000000000000000000100000000000000008000000000000000000000000000000000000000000000000000000000000000000000000200000000000000000000000000000000000000000001000000000000000000000000000000000000040000000000000000000000000000000000000000000000000000000000000000000000000400000000000000000800000000000000400000000000000000000000020000000",
      "type": "0x2",
      "transactionHash": "0x1188c70611713314cfae7f9f30f18fe2b66ab4eea81147387576e18e0b457e93",
      "transactionIndex": "0x14",
      "blockHash": "0x381d46ce236ce4eba3170e4a263a6804e096674379663084b3678eb8dd8dd82c",
      "blockNumber": "0x4bc3",
      "gasUsed": "0x788b",
      "effectiveGasPrice": "0x8",
      "blobGasPrice": "0x1",
      "from": "0xf39fd6e51aad88f6f4ce6ab8827279cfffb92266",
      "to": "0xd0141e899a65c95a556fe2b27e5982a6de7fdd7a",
      "contractAddress": null,
      "blockTimestamp": 1775240661
    },
    {
      "status": "0x1",
      "cumulativeGasUsed": "0x2527a1",
      "logs": [
        {
          "address": "0xd9140951d8ae6e5f625a02f5908535e16e3af964",
          "topics": [
            "0xe5f9c5663822b3882e2fa8f5fcbc56db18ccc15ec0ad63010c1e27bff6eb9269",
            "0x7c66dfce614e9a88c33dd01ffd47e917575e527015d5ead8069719869ba53f20"
          ],
          "data": "0x0000000000000000000000000ad41337532bfedca58815b13cf8960fcabd997500000000000000000000000056d13eb21a625eda8438f55df2c31dc3632034f5",
          "blockHash": "0x381d46ce236ce4eba3170e4a263a6804e096674379663084b3678eb8dd8dd82c",
          "blockNumber": "0x4bc3",
          "blockTimestamp": "0x69d005d5",
          "transactionHash": "0x03c4a012fc24120185390f7ee005f869b27b4ac9e4ea0b5a9244e5c808db530c",
          "transactionIndex": "0x15",
          "logIndex": "0x15",
          "removed": false
        }
      ],
      "logsBloom": "0x00000000000000000000000000000000000000000000000000000000000000000000000000004000000000000000000080000000000000000000000000000000000000000000000000000000000000000000000000000000000000000000000000080000000000000000000000000000000000000000000000000000000000000000000000008000000000000000000000000000000000000000000000000000000000000000000000000000000000000000000000000000000000000000010000000000000000000000000000000000000000000000000000200000000000000000000000000000000000000000800000000100001000000000000000000000",
      "type": "0x2",
      "transactionHash": "0x03c4a012fc24120185390f7ee005f869b27b4ac9e4ea0b5a9244e5c808db530c",
      "transactionIndex": "0x15",
      "blockHash": "0x381d46ce236ce4eba3170e4a263a6804e096674379663084b3678eb8dd8dd82c",
      "blockNumber": "0x4bc3",
      "gasUsed": "0x33e39",
      "effectiveGasPrice": "0x8",
      "blobGasPrice": "0x1",
      "from": "0xf39fd6e51aad88f6f4ce6ab8827279cfffb92266",
      "to": "0xd9140951d8ae6e5f625a02f5908535e16e3af964",
      "contractAddress": null,
      "blockTimestamp": 1775240661
    },
    {
      "status": "0x1",
      "cumulativeGasUsed": "0x263f7d",
      "logs": [
        {
          "address": "0x56d13eb21a625eda8438f55df2c31dc3632034f5",
          "topics": [
            "0x9190ede1bbf154005e1cdc753cb24ff7912bf4412bf72342e5ab03ee770facf0",
            "0x7c66dfce614e9a88c33dd01ffd47e917575e527015d5ead8069719869ba53f20"
          ],
          "data": "0x00000000000000000000000000000000000000000000000000000000000000400000000000000000000000000ad41337532bfedca58815b13cf8960fcabd997500000000000000000000000000000000000000000000000000000000000000034a504d0000000000000000000000000000000000000000000000000000000000",
          "blockHash": "0x381d46ce236ce4eba3170e4a263a6804e096674379663084b3678eb8dd8dd82c",
          "blockNumber": "0x4bc3",
          "blockTimestamp": "0x69d005d5",
          "transactionHash": "0x28f8efb102a750345b4f8f703b6981be815947cd9c1a72fcca418dd099c9a769",
          "transactionIndex": "0x16",
          "logIndex": "0x16",
          "removed": false
        }
      ],
      "logsBloom": "0x00000000000000000000000000000000000000000000002000000000000000000000000000004000000000000000000080000000000000000000000000000000000000000000000000000000000000000000000000040000000000000000000000000000000000000000000000000000000000000000000000000001000000000000000000100000000000000000000000000000000000000000000000000000000000000000000000000000000000000000000000000000000000000000010000000008000000000000000000000000000000000000000000000000000000000000000000020000000000000000000000000000000000000000000000000000",
      "type": "0x2",
      "transactionHash": "0x28f8efb102a750345b4f8f703b6981be815947cd9c1a72fcca418dd099c9a769",
      "transactionIndex": "0x16",
      "blockHash": "0x381d46ce236ce4eba3170e4a263a6804e096674379663084b3678eb8dd8dd82c",
      "blockNumber": "0x4bc3",
      "gasUsed": "0x117dc",
      "effectiveGasPrice": "0x8",
      "blobGasPrice": "0x1",
      "from": "0xf39fd6e51aad88f6f4ce6ab8827279cfffb92266",
      "to": "0x56d13eb21a625eda8438f55df2c31dc3632034f5",
      "contractAddress": null,
      "blockTimestamp": 1775240661
    },
    {
      "status": "0x1",
      "cumulativeGasUsed": "0x26b7f0",
      "logs": [
        {
          "address": "0xd0141e899a65c95a556fe2b27e5982a6de7fdd7a",
          "topics": [
            "0xd78ddf5dda09409c5ba0a349a6c0149840d265112fa302b34dc3b322e7f675bc",
            "0x7c66dfce614e9a88c33dd01ffd47e917575e527015d5ead8069719869ba53f20"
          ],
          "data": "0x000000000000000000000000000000000000000000000000000000049e8e6000",
          "blockHash": "0x381d46ce236ce4eba3170e4a263a6804e096674379663084b3678eb8dd8dd82c",
          "blockNumber": "0x4bc3",
          "blockTimestamp": "0x69d005d5",
          "transactionHash": "0x0e3dff0616cea77eb6f934dcaed92fca6bda03495ae6e4b7658ea57a78bb8851",
          "transactionIndex": "0x17",
          "logIndex": "0x17",
          "removed": false
        }
      ],
      "logsBloom": "0x00000000000000000000000000000000000000000000000000000000000000000000000000004000000000000000000080000000000000000000000000000000000000000000000000000000000000000000000000000000000000000000000000000000000000000000000000000000000000000000000000000000000000000000000000000000000000000000000000200000000000000000000000000000000000000000001000000000000000000000000000000000000040000000010000000000000000000000000000000000000000000000000000000000000000000000000000000000800000000000000400000000000000000000000020000000",
      "type": "0x2",
      "transactionHash": "0x0e3dff0616cea77eb6f934dcaed92fca6bda03495ae6e4b7658ea57a78bb8851",
      "transactionIndex": "0x17",
      "blockHash": "0x381d46ce236ce4eba3170e4a263a6804e096674379663084b3678eb8dd8dd82c",
      "blockNumber": "0x4bc3",
      "gasUsed": "0x7873",
      "effectiveGasPrice": "0x8",
      "blobGasPrice": "0x1",
      "from": "0xf39fd6e51aad88f6f4ce6ab8827279cfffb92266",
      "to": "0xd0141e899a65c95a556fe2b27e5982a6de7fdd7a",
      "contractAddress": null,
      "blockTimestamp": 1775240661
    },
    {
      "status": "0x1",
      "cumulativeGasUsed": "0x29f5d5",
      "logs": [
        {
          "address": "0xd9140951d8ae6e5f625a02f5908535e16e3af964",
          "topics": [
            "0xe5f9c5663822b3882e2fa8f5fcbc56db18ccc15ec0ad63010c1e27bff6eb9269",
            "0xf0da850a6b7c61a66cdd43ac7529affc6000442af1c1bdda1db3bb7220bf7613"
          ],
          "data": "0x000000000000000000000000f17726b913d04950d62a79cfc141a8d09034479100000000000000000000000056d13eb21a625eda8438f55df2c31dc3632034f5",
          "blockHash": "0x381d46ce236ce4eba3170e4a263a6804e096674379663084b3678eb8dd8dd82c",
          "blockNumber": "0x4bc3",
          "blockTimestamp": "0x69d005d5",
          "transactionHash": "0x53b20ee43fdb69f125f46a9d663347a3b89ca01881882c01de2dbbb4324c2dcd",
          "transactionIndex": "0x18",
          "logIndex": "0x18",
          "removed": false
        }
      ],
      "logsBloom": "0x00000000000000000008000000000000000000000000000000000000000000000000000000000000000000000000000000000000000000000000000000000000000000000000000000000000000000000000000000000000000000000000000000080000000000000000000000000000000000000000000000000000000000000000000000008000000200000400000000000000000000000000000000000000000000000000000000000000000000000000000000000000000000000000000000000000000000000000000000000000000000000000000000200000000000000000000000000000000000000000800000000100001000000000000000000000",
      "type": "0x2",
      "transactionHash": "0x53b20ee43fdb69f125f46a9d663347a3b89ca01881882c01de2dbbb4324c2dcd",
      "transactionIndex": "0x18",
      "blockHash": "0x381d46ce236ce4eba3170e4a263a6804e096674379663084b3678eb8dd8dd82c",
      "blockNumber": "0x4bc3",
      "gasUsed": "0x33de5",
      "effectiveGasPrice": "0x8",
      "blobGasPrice": "0x1",
      "from": "0xf39fd6e51aad88f6f4ce6ab8827279cfffb92266",
      "to": "0xd9140951d8ae6e5f625a02f5908535e16e3af964",
      "contractAddress": null,
      "blockTimestamp": 1775240661
    },
    {
      "status": "0x1",
      "cumulativeGasUsed": "0x2b0d99",
      "logs": [
        {
          "address": "0x56d13eb21a625eda8438f55df2c31dc3632034f5",
          "topics": [
            "0x9190ede1bbf154005e1cdc753cb24ff7912bf4412bf72342e5ab03ee770facf0",
            "0xf0da850a6b7c61a66cdd43ac7529affc6000442af1c1bdda1db3bb7220bf7613"
          ],
          "data": "0x0000000000000000000000000000000000000000000000000000000000000040000000000000000000000000f17726b913d04950d62a79cfc141a8d09034479100000000000000000000000000000000000000000000000000000000000000015600000000000000000000000000000000000000000000000000000000000000",
          "blockHash": "0x381d46ce236ce4eba3170e4a263a6804e096674379663084b3678eb8dd8dd82c",
          "blockNumber": "0x4bc3",
          "blockTimestamp": "0x69d005d5",
          "transactionHash": "0xbdd3ab368dfb66285236505cc564a0213cd4d06635406c7324b19602a92c2839",
          "transactionIndex": "0x19",
          "logIndex": "0x19",
          "removed": false
        }
      ],
      "logsBloom": "0x00000000000000000008000000000000000000000000002000000000000000000000000000000000000000000000000000000000000000000000000000000000000000000000000000000000000000000000000000040000000000000000000000000000000000000000000000000000000000000000000000000001000000000000000000100000000200000400000000000000000000000000000000000000000000000000000000000000000000000000000000000000000000000000000000000008000000000000000000000000000000000000000000000000000000000000000000020000000000000000000000000000000000000000000000000000",
      "type": "0x2",
      "transactionHash": "0xbdd3ab368dfb66285236505cc564a0213cd4d06635406c7324b19602a92c2839",
      "transactionIndex": "0x19",
      "blockHash": "0x381d46ce236ce4eba3170e4a263a6804e096674379663084b3678eb8dd8dd82c",
      "blockNumber": "0x4bc3",
      "gasUsed": "0x117c4",
      "effectiveGasPrice": "0x8",
      "blobGasPrice": "0x1",
      "from": "0xf39fd6e51aad88f6f4ce6ab8827279cfffb92266",
      "to": "0x56d13eb21a625eda8438f55df2c31dc3632034f5",
      "contractAddress": null,
      "blockTimestamp": 1775240661
    },
    {
      "status": "0x1",
      "cumulativeGasUsed": "0x2b90f0",
      "logs": [
        {
          "address": "0xd0141e899a65c95a556fe2b27e5982a6de7fdd7a",
          "topics": [
            "0xd78ddf5dda09409c5ba0a349a6c0149840d265112fa302b34dc3b322e7f675bc",
            "0xf0da850a6b7c61a66cdd43ac7529affc6000442af1c1bdda1db3bb7220bf7613"
          ],
          "data": "0x000000000000000000000000000000000000000000000000000000067e5fa080",
          "blockHash": "0x381d46ce236ce4eba3170e4a263a6804e096674379663084b3678eb8dd8dd82c",
          "blockNumber": "0x4bc3",
          "blockTimestamp": "0x69d005d5",
          "transactionHash": "0x89665fa108fe107fe9e6de5006f94587862ad3980fa78a10cdf5dd9cb9dac8c0",
          "transactionIndex": "0x1a",
          "logIndex": "0x1a",
          "removed": false
        }
      ],
      "logsBloom": "0x00000000000000000008000000000000000000000000000000000000000000000000000000000000000000000000000000000000000000000000000000000000000000000000000000000000000000000000000000000000000000000000000000000000000000000000000000000000000000000000000000000000000000000000000000000000000200000400000000200000000000000000000000000000000000000000001000000000000000000000000000000000000040000000000000000000000000000000000000000000000000000000000000000000000000000000000000000000800000000000000400000000000000000000000020000000",
      "type": "0x2",
      "transactionHash": "0x89665fa108fe107fe9e6de5006f94587862ad3980fa78a10cdf5dd9cb9dac8c0",
      "transactionIndex": "0x1a",
      "blockHash": "0x381d46ce236ce4eba3170e4a263a6804e096674379663084b3678eb8dd8dd82c",
      "blockNumber": "0x4bc3",
      "gasUsed": "0x8357",
      "effectiveGasPrice": "0x8",
      "blobGasPrice": "0x1",
      "from": "0xf39fd6e51aad88f6f4ce6ab8827279cfffb92266",
      "to": "0xd0141e899a65c95a556fe2b27e5982a6de7fdd7a",
      "contractAddress": null,
      "blockTimestamp": 1775240661
    },
    {
      "status": "0x1",
      "cumulativeGasUsed": "0x2ecf35",
      "logs": [
        {
          "address": "0xd9140951d8ae6e5f625a02f5908535e16e3af964",
          "topics": [
            "0xe5f9c5663822b3882e2fa8f5fcbc56db18ccc15ec0ad63010c1e27bff6eb9269",
            "0x1ee390a6c6917753ffa9bb0bd83cc313e935b13e3daaba67038caf0e47f928f1"
          ],
          "data": "0x00000000000000000000000060039b5e160972673b5865ce82dfeee35d8e94a600000000000000000000000056d13eb21a625eda8438f55df2c31dc3632034f5",
          "blockHash": "0x381d46ce236ce4eba3170e4a263a6804e096674379663084b3678eb8dd8dd82c",
          "blockNumber": "0x4bc3",
          "blockTimestamp": "0x69d005d5",
          "transactionHash": "0x3205395e32d0102578ede0a57817bd0127ca23d1a61f27672cf4780921432f4a",
          "transactionIndex": "0x1b",
          "logIndex": "0x1b",
          "removed": false
        }
      ],
      "logsBloom": "0x00000000000000000000000000000000000000000000000000000000000000000000000000000000000000000000000000000000000000000000000000000000000000000000000000000000000000000000000000000000000000000000000000080000000000000000000000000000000000000000000000000000000000000000000000008000000000000000000000000000000000000000000000000200000000000000000100000000000000010000000000000000000000000000000000000000000000000000000000000000000000000000000000200000000000000000000000000000000000000000800000000100001000000000000000000000",
      "type": "0x2",
      "transactionHash": "0x3205395e32d0102578ede0a57817bd0127ca23d1a61f27672cf4780921432f4a",
      "transactionIndex": "0x1b",
      "blockHash": "0x381d46ce236ce4eba3170e4a263a6804e096674379663084b3678eb8dd8dd82c",
      "blockNumber": "0x4bc3",
      "gasUsed": "0x33e45",
      "effectiveGasPrice": "0x8",
      "blobGasPrice": "0x1",
      "from": "0xf39fd6e51aad88f6f4ce6ab8827279cfffb92266",
      "to": "0xd9140951d8ae6e5f625a02f5908535e16e3af964",
      "contractAddress": null,
      "blockTimestamp": 1775240661
    },
    {
      "status": "0x1",
      "cumulativeGasUsed": "0x2fe711",
      "logs": [
        {
          "address": "0x56d13eb21a625eda8438f55df2c31dc3632034f5",
          "topics": [
            "0x9190ede1bbf154005e1cdc753cb24ff7912bf4412bf72342e5ab03ee770facf0",
            "0x1ee390a6c6917753ffa9bb0bd83cc313e935b13e3daaba67038caf0e47f928f1"
          ],
          "data": "0x000000000000000000000000000000000000000000000000000000000000004000000000000000000000000060039b5e160972673b5865ce82dfeee35d8e94a600000000000000000000000000000000000000000000000000000000000000034449530000000000000000000000000000000000000000000000000000000000",
          "blockHash": "0x381d46ce236ce4eba3170e4a263a6804e096674379663084b3678eb8dd8dd82c",
          "blockNumber": "0x4bc3",
          "blockTimestamp": "0x69d005d5",
          "transactionHash": "0x1ec8a8b4cb4aad6913cf4f962e1957b8fe6519580f7c33381f4266e765d6989b",
          "transactionIndex": "0x1c",
          "logIndex": "0x1c",
          "removed": false
        }
      ],
      "logsBloom": "0x00000000000000000000000000000000000000000000002000000000000000000000000000000000000000000000000000000000000000000000000000000000000000000000000000000000000000000000000000040000000000000000000000000000000000000000000000000000000000000000000000000001000000000000000000100000000000000000000000000000000000000000000000000200000000000000000100000000000000010000000000000000000000000000000000000008000000000000000000000000000000000000000000000000000000000000000000020000000000000000000000000000000000000000000000000000",
      "type": "0x2",
      "transactionHash": "0x1ec8a8b4cb4aad6913cf4f962e1957b8fe6519580f7c33381f4266e765d6989b",
      "transactionIndex": "0x1c",
      "blockHash": "0x381d46ce236ce4eba3170e4a263a6804e096674379663084b3678eb8dd8dd82c",
      "blockNumber": "0x4bc3",
      "gasUsed": "0x117dc",
      "effectiveGasPrice": "0x8",
      "blobGasPrice": "0x1",
      "from": "0xf39fd6e51aad88f6f4ce6ab8827279cfffb92266",
      "to": "0x56d13eb21a625eda8438f55df2c31dc3632034f5",
      "contractAddress": null,
      "blockTimestamp": 1775240661
    },
    {
      "status": "0x1",
      "cumulativeGasUsed": "0x306a80",
      "logs": [
        {
          "address": "0xd0141e899a65c95a556fe2b27e5982a6de7fdd7a",
          "topics": [
            "0xd78ddf5dda09409c5ba0a349a6c0149840d265112fa302b34dc3b322e7f675bc",
            "0x1ee390a6c6917753ffa9bb0bd83cc313e935b13e3daaba67038caf0e47f928f1"
          ],
          "data": "0x000000000000000000000000000000000000000000000000000000024acec740",
          "blockHash": "0x381d46ce236ce4eba3170e4a263a6804e096674379663084b3678eb8dd8dd82c",
          "blockNumber": "0x4bc3",
          "blockTimestamp": "0x69d005d5",
          "transactionHash": "0xd12ebff73c1e98fa1b52b20f3991d6acb0f397bfb4ba92c89269aa7727c8ae9a",
          "transactionIndex": "0x1d",
          "logIndex": "0x1d",
          "removed": false
        }
      ],
      "logsBloom": "0x00000000000000000000000000000000000000000000000000000000000000000000000000000000000000000000000000000000000000000000000000000000000000000000000000000000000000000000000000000000000000000000000000000000000000000000000000000000000000000000000000000000000000000000000000000000000000000000000000200000000000000000000000000200000000000000001100000000000000010000000000000000000040000000000000000000000000000000000000000000000000000000000000000000000000000000000000000000800000000000000400000000000000000000000020000000",
      "type": "0x2",
      "transactionHash": "0xd12ebff73c1e98fa1b52b20f3991d6acb0f397bfb4ba92c89269aa7727c8ae9a",
      "transactionIndex": "0x1d",
      "blockHash": "0x381d46ce236ce4eba3170e4a263a6804e096674379663084b3678eb8dd8dd82c",
      "blockNumber": "0x4bc3",
      "gasUsed": "0x836f",
      "effectiveGasPrice": "0x8",
      "blobGasPrice": "0x1",
      "from": "0xf39fd6e51aad88f6f4ce6ab8827279cfffb92266",
      "to": "0xd0141e899a65c95a556fe2b27e5982a6de7fdd7a",
      "contractAddress": null,
      "blockTimestamp": 1775240661
    },
    {
      "status": "0x1",
      "cumulativeGasUsed": "0x33a8ad",
      "logs": [
        {
          "address": "0xd9140951d8ae6e5f625a02f5908535e16e3af964",
          "topics": [
            "0xe5f9c5663822b3882e2fa8f5fcbc56db18ccc15ec0ad63010c1e27bff6eb9269",
            "0x93524d81bcb78d74875943b3fa28cf64070d7736f6e1b17397c7ff43eaf73cfb"
          ],
          "data": "0x00000000000000000000000063df691a295f0c59980bc0b388b26e897885c60300000000000000000000000056d13eb21a625eda8438f55df2c31dc3632034f5",
          "blockHash": "0x381d46ce236ce4eba3170e4a263a6804e096674379663084b3678eb8dd8dd82c",
          "blockNumber": "0x4bc3",
          "blockTimestamp": "0x69d005d5",
          "transactionHash": "0x84c856253861f96f80e4f2b9b5cff777724f4f937347335de7cbf1afaf2ccf7b",
          "transactionIndex": "0x1e",
          "logIndex": "0x1e",
          "removed": false
        }
      ],
      "logsBloom": "0x00200000000000000000000000000000000000000000000000000000000000000000000000000000000000000000000000000000000000000000000000000000000000000000000000000000000000000000000000000000000000000000000000080000000000000000000000000000000000000000000000000000000000000000000000008000000000000000000000000000000000000000000000000000000000000000000000800000000000000000000000000000000000000000000000000000000000000000000000000000000000000000000000200000000000000000000000000000000000000000800000000100001000000100000000000000",
      "type": "0x2",
      "transactionHash": "0x84c856253861f96f80e4f2b9b5cff777724f4f937347335de7cbf1afaf2ccf7b",
      "transactionIndex": "0x1e",
      "blockHash": "0x381d46ce236ce4eba3170e4a263a6804e096674379663084b3678eb8dd8dd82c",
      "blockNumber": "0x4bc3",
      "gasUsed": "0x33e2d",
      "effectiveGasPrice": "0x8",
      "blobGasPrice": "0x1",
      "from": "0xf39fd6e51aad88f6f4ce6ab8827279cfffb92266",
      "to": "0xd9140951d8ae6e5f625a02f5908535e16e3af964",
      "contractAddress": null,
      "blockTimestamp": 1775240661
    },
    {
      "status": "0x1",
      "cumulativeGasUsed": "0x34c095",
      "logs": [
        {
          "address": "0x56d13eb21a625eda8438f55df2c31dc3632034f5",
          "topics": [
            "0x9190ede1bbf154005e1cdc753cb24ff7912bf4412bf72342e5ab03ee770facf0",
            "0x93524d81bcb78d74875943b3fa28cf64070d7736f6e1b17397c7ff43eaf73cfb"
          ],
          "data": "0x000000000000000000000000000000000000000000000000000000000000004000000000000000000000000063df691a295f0c59980bc0b388b26e897885c60300000000000000000000000000000000000000000000000000000000000000044e464c5800000000000000000000000000000000000000000000000000000000",
          "blockHash": "0x381d46ce236ce4eba3170e4a263a6804e096674379663084b3678eb8dd8dd82c",
          "blockNumber": "0x4bc3",
          "blockTimestamp": "0x69d005d5",
          "transactionHash": "0xd8f3e85c9edcc455e80019a48df3a4f8085dccaab4afa5c0d0c78148b55b0c6a",
          "transactionIndex": "0x1f",
          "logIndex": "0x1f",
          "removed": false
        }
      ],
      "logsBloom": "0x00200000000000000000000000000000000000000000002000000000000000000000000000000000000000000000000000000000000000000000000000000000000000000000000000000000000000000000000000040000000000000000000000000000000000000000000000000000000000000000000000000001000000000000000000100000000000000000000000000000000000000000000000000000000000000000000000800000000000000000000000000000000000000000000000000008000000000000000000000000000000000000000000000000000000000000000000020000000000000000000000000000000000000100000000000000",
      "type": "0x2",
      "transactionHash": "0xd8f3e85c9edcc455e80019a48df3a4f8085dccaab4afa5c0d0c78148b55b0c6a",
      "transactionIndex": "0x1f",
      "blockHash": "0x381d46ce236ce4eba3170e4a263a6804e096674379663084b3678eb8dd8dd82c",
      "blockNumber": "0x4bc3",
      "gasUsed": "0x117e8",
      "effectiveGasPrice": "0x8",
      "blobGasPrice": "0x1",
      "from": "0xf39fd6e51aad88f6f4ce6ab8827279cfffb92266",
      "to": "0x56d13eb21a625eda8438f55df2c31dc3632034f5",
      "contractAddress": null,
      "blockTimestamp": 1775240661
    },
    {
      "status": "0x1",
      "cumulativeGasUsed": "0x354410",
      "logs": [
        {
          "address": "0xd0141e899a65c95a556fe2b27e5982a6de7fdd7a",
          "topics": [
            "0xd78ddf5dda09409c5ba0a349a6c0149840d265112fa302b34dc3b322e7f675bc",
            "0x93524d81bcb78d74875943b3fa28cf64070d7736f6e1b17397c7ff43eaf73cfb"
          ],
          "data": "0x0000000000000000000000000000000000000000000000000000000e8de2e780",
          "blockHash": "0x381d46ce236ce4eba3170e4a263a6804e096674379663084b3678eb8dd8dd82c",
          "blockNumber": "0x4bc3",
          "blockTimestamp": "0x69d005d5",
          "transactionHash": "0xd5ea0fad433d95c632e696fa6d434047a2f984cb1697a1770c31315a2da7530c",
          "transactionIndex": "0x20",
          "logIndex": "0x20",
          "removed": false
        }
      ],
      "logsBloom": "0x00200000000000000000000000000000000000000000000000000000000000000000000000000000000000000000000000000000000000000000000000000000000000000000000000000000000000000000000000000000000000000000000000000000000000000000000000000000000000000000000000000000000000000000000000000000000000000000000000200000000000000000000000000000000000000000001000800000000000000000000000000000000040000000000000000000000000000000000000000000000000000000000000000000000000000000000000000000800000000000000400000000000000000100000020000000",
      "type": "0x2",
      "transactionHash": "0xd5ea0fad433d95c632e696fa6d434047a2f984cb1697a1770c31315a2da7530c",
      "transactionIndex": "0x20",
      "blockHash": "0x381d46ce236ce4eba3170e4a263a6804e096674379663084b3678eb8dd8dd82c",
      "blockNumber": "0x4bc3",
      "gasUsed": "0x837b",
      "effectiveGasPrice": "0x8",
      "blobGasPrice": "0x1",
      "from": "0xf39fd6e51aad88f6f4ce6ab8827279cfffb92266",
      "to": "0xd0141e899a65c95a556fe2b27e5982a6de7fdd7a",
      "contractAddress": null,
      "blockTimestamp": 1775240661
    },
    {
      "status": "0x1",
      "cumulativeGasUsed": "0x38d960",
      "logs": [
        {
          "address": "0xd9140951d8ae6e5f625a02f5908535e16e3af964",
          "topics": [
            "0xe5f9c5663822b3882e2fa8f5fcbc56db18ccc15ec0ad63010c1e27bff6eb9269",
            "0x7dc334e1540f8915732d66591fe866306abf9102ccd56a9c3bebab2f76f305fb"
          ],
          "data": "0x000000000000000000000000ebe18012222d1bdda9eafed66d3259c11fbebd6100000000000000000000000056d13eb21a625eda8438f55df2c31dc3632034f5",
          "blockHash": "0x381d46ce236ce4eba3170e4a263a6804e096674379663084b3678eb8dd8dd82c",
          "blockNumber": "0x4bc3",
          "blockTimestamp": "0x69d005d5",
          "transactionHash": "0xfe4f944affc903a409997ccbae31f161e59b20a62a526cb3310c986b984d4c54",
          "transactionIndex": "0x21",
          "logIndex": "0x21",
          "removed": false
        }
      ],
      "logsBloom": "0x00000000000000000000000000000000000000000400000000000000000000000000000000000000000000000000000000000000000000000000000000000000000000000000000000000000000000000000000000000000000000000000000000080000000000000000000000000000000000000000000000000000000000000000000000008000000000000000000000000000000000000000004000000000000000000000000000000000000000000000000000000000000000000000000000000000000000000000000000000000000000000000000000200000000000000000000000000000000000000000800000000100001000002000000000000000",
      "type": "0x2",
      "transactionHash": "0xfe4f944affc903a409997ccbae31f161e59b20a62a526cb3310c986b984d4c54",
      "transactionIndex": "0x21",
      "blockHash": "0x381d46ce236ce4eba3170e4a263a6804e096674379663084b3678eb8dd8dd82c",
      "blockNumber": "0x4bc3",
      "gasUsed": "0x39550",
      "effectiveGasPrice": "0x8",
      "blobGasPrice": "0x1",
      "from": "0xf39fd6e51aad88f6f4ce6ab8827279cfffb92266",
      "to": "0xd9140951d8ae6e5f625a02f5908535e16e3af964",
      "contractAddress": null,
      "blockTimestamp": 1775240661
    },
    {
      "status": "0x1",
      "cumulativeGasUsed": "0x39f13c",
      "logs": [
        {
          "address": "0x56d13eb21a625eda8438f55df2c31dc3632034f5",
          "topics": [
            "0x9190ede1bbf154005e1cdc753cb24ff7912bf4412bf72342e5ab03ee770facf0",
            "0x7dc334e1540f8915732d66591fe866306abf9102ccd56a9c3bebab2f76f305fb"
          ],
          "data": "0x0000000000000000000000000000000000000000000000000000000000000040000000000000000000000000ebe18012222d1bdda9eafed66d3259c11fbebd610000000000000000000000000000000000000000000000000000000000000003414d440000000000000000000000000000000000000000000000000000000000",
          "blockHash": "0x381d46ce236ce4eba3170e4a263a6804e096674379663084b3678eb8dd8dd82c",
          "blockNumber": "0x4bc3",
          "blockTimestamp": "0x69d005d5",
          "transactionHash": "0xd5a4e7e03032af3dd471b7b63dce586ea5bd504b08f29a1eb623018bacb6480c",
          "transactionIndex": "0x22",
          "logIndex": "0x22",
          "removed": false
        }
      ],
      "logsBloom": "0x00000000000000000000000000000000000000000400002000000000000000000000000000000000000000000000000000000000000000000000000000000000000000000000000000000000000000000000000000040000000000000000000000000000000000000000000000000000000000000000000000000001000000000000000000100000000000000000000000000000000000000000004000000000000000000000000000000000000000000000000000000000000000000000000000000008000000000000000000000000000000000000000000000000000000000000000000020000000000000000000000000000000000002000000000000000",
      "type": "0x2",
      "transactionHash": "0xd5a4e7e03032af3dd471b7b63dce586ea5bd504b08f29a1eb623018bacb6480c",
      "transactionIndex": "0x22",
      "blockHash": "0x381d46ce236ce4eba3170e4a263a6804e096674379663084b3678eb8dd8dd82c",
      "blockNumber": "0x4bc3",
      "gasUsed": "0x117dc",
      "effectiveGasPrice": "0x8",
      "blobGasPrice": "0x1",
      "from": "0xf39fd6e51aad88f6f4ce6ab8827279cfffb92266",
      "to": "0x56d13eb21a625eda8438f55df2c31dc3632034f5",
      "contractAddress": null,
      "blockTimestamp": 1775240661
    },
    {
      "status": "0x1",
      "cumulativeGasUsed": "0x3a74ab",
      "logs": [
        {
          "address": "0xd0141e899a65c95a556fe2b27e5982a6de7fdd7a",
          "topics": [
            "0xd78ddf5dda09409c5ba0a349a6c0149840d265112fa302b34dc3b322e7f675bc",
            "0x7dc334e1540f8915732d66591fe866306abf9102ccd56a9c3bebab2f76f305fb"
          ],
          "data": "0x00000000000000000000000000000000000000000000000000000003c7ae70c0",
          "blockHash": "0x381d46ce236ce4eba3170e4a263a6804e096674379663084b3678eb8dd8dd82c",
          "blockNumber": "0x4bc3",
          "blockTimestamp": "0x69d005d5",
          "transactionHash": "0x026a64e3d656e977c9133594bc23eb5cc3ac652b230bc3f09205b51cb2befc39",
          "transactionIndex": "0x23",
          "logIndex": "0x23",
          "removed": false
        }
      ],
      "logsBloom": "0x00000000000000000000000000000000000000000400000000000000000000000000000000000000000000000000000000000000000000000000000000000000000000000000000000000000000000000000000000000000000000000000000000000000000000000000000000000000000000000000000000000000000000000000000000000000000000000000000000200000000000000000004000000000000000000000001000000000000000000000000000000000000040000000000000000000000000000000000000000000000000000000000000000000000000000000000000000000800000000000000400000000000000002000000020000000",
      "type": "0x2",
      "transactionHash": "0x026a64e3d656e977c9133594bc23eb5cc3ac652b230bc3f09205b51cb2befc39",
      "transactionIndex": "0x23",
      "blockHash": "0x381d46ce236ce4eba3170e4a263a6804e096674379663084b3678eb8dd8dd82c",
      "blockNumber": "0x4bc3",
      "gasUsed": "0x836f",
      "effectiveGasPrice": "0x8",
      "blobGasPrice": "0x1",
      "from": "0xf39fd6e51aad88f6f4ce6ab8827279cfffb92266",
      "to": "0xd0141e899a65c95a556fe2b27e5982a6de7fdd7a",
      "contractAddress": null,
      "blockTimestamp": 1775240661
    }
  ],
  "libraries": [],
  "pending": [],
  "returns": {},
  "timestamp": 1775240661188,
  "chain": 42069,
  "commit": "fc40e5e"
}