{
  "transactions": [
    {
      "hash": "0x4f0f9d3d5b6ee627a5008dd9cdc4730067c78823ed3384007552dbca642416ba",
      "transactionType": "CREATE",
      "contractName": "PerpPriceOracle",
      "contractAddress": "0x286b8decd5ed79c962b2d8f4346cd97ff0e2c352",
      "function": null,
      "arguments": [
        "0xf39Fd6e51aad88F6F4ce6aB8827279cffFb92266"
      ],
      "transaction": {
        "from": "0xf39fd6e51aad88f6f4ce6ab8827279cfffb92266",
        "gas": "0x11e22f",
        "value": "0x0",
        "input": "0x60803460a057601f610e6438819003918201601f19168301916001600160401b0383118484101760a45780849260209460405283398101031260a057516001600160a01b0381169081900360a05760786004556107d060055580156091578060018060a01b03195f5416175f555f52600160205260405f20600160ff19825416179055604051610dab90816100b98239f35b63d92e233d60e01b5f5260045ffd5b5f80fd5b634e487b7160e01b5f52604160045260245ffdfe6080806040526004361015610012575f80fd5b5f3560e01c9081630a16191a146108a3575080630df1d5ed14610840578063100bc9e1146107e3578063249d39e9146107c75780633bbd64bc1461078a5780633ee7a7011461076d57806343fa6211146106c057806360846bc61461066457806365312f181461062b578063704b6c02146105e05780637698aa331461057a57806380626ad1146105a0578063832321bf1461057a57806387cf46961461055d578063b70946011461052e578063d1b9e85314610492578063d94414e6146102e2578063dddbc04914610285578063ecc191bb1461025d578063f229fece1461012e5763f851a44014610103575f80fd5b3461012a575f36600319011261012a575f546040516001600160a01b039091168152602090f35b5f80fd5b3461012a57606036600319011261012a575f546004359060243590604435906001600160a01b0316330361024e57825f52600360205260ff60405f2054161561023b5781158015610233575b610224577fd1e0ff31b5a8e9db7a93db8b63d84e896cce257bc637e6d369f43178eedd98ce916040916102176101ae610be6565b8381526020810183815260ff6003878401934285526060810194600186526080820194600186528c5f5260026020528a5f20925183555160018301555160028201550192511660ff1983541617825551151561ff00825491151560081b169061ff001916179055565b82519182526020820152a2005b634dfba02360e01b5f5260045ffd5b50801561017a565b82631b37612760e21b5f5260045260245ffd5b637bfa4b9f60e01b5f5260045ffd5b3461012a57602036600319011261012a57602061027b600435610c5d565b6040519015158152f35b3461012a57602036600319011261012a575f54600435906001600160a01b0316330361024e577fea7b0359048504e79474eaaa05294b49265fc4e7b0a0c3737aaa22412e90f16e60406005548151908152836020820152a1600555005b3461012a57608036600319011261012a5760043560243560643560443560ff821680830361012a57335f52600160205260ff60405f205416158061047e575b61046f57845f52600360205260ff60405f2054161561045c5783158015610454575b610224577fc7061c903e2c36b50c20c3af3c54f4a781394e15a68ba49ee82125a240ad419b9361040261042b92875f52600260205260405f20838154918215159081610441575b50610430575b505061039a610be6565b83815260ff60036020830192888452604081014281526060820195865260808201945f86528d5f52600260205260405f20925183555160018301555160028201550192511660ff1983541617825551151561ff00825491151560081b169061ff001916179055565b6040519384934292859094939260ff906060936080840197845260208401521660408201520152565b0390a2005b61043a918a610c9f565b8883610390565b60ff91506003015460081c16158b61038a565b508115610343565b84631b37612760e21b5f5260045260245ffd5b631ea2564f60e31b5f5260045ffd5b505f546001600160a01b0316331415610321565b3461012a57604036600319011261012a576104ab610b9e565b6024359081151580920361012a575f546001600160a01b0316330361024e576001600160a01b031690811561051f5760207f786c9db967bf0c6b16c7c91adae8a8c554b15a57d373fa2059607300f4616c0091835f526001825260405f2060ff1981541660ff8316179055604051908152a2005b63d92e233d60e01b5f5260045ffd5b3461012a57602036600319011261012a576004355f526003602052602060ff60405f2054166040519015158152f35b3461012a575f36600319011261012a576020600454604051908152f35b3461012a57602036600319011261012a576020610598600435610c1a565b604051908152f35b3461012a57602036600319011261012a575f546001600160a01b0316330361024e576004355f908152600260205260409020600301805461ff0019169055005b3461012a57602036600319011261012a576105f9610b9e565b5f54906001600160a01b038216330361024e576001600160a01b031690811561051f576001600160a01b031916175f55005b3461012a57602036600319011261012a57600435805f52600260205260405f209060018201549081156102245760209261059891610d2b565b3461012a57602036600319011261012a576004355f52600260205260a060405f2060ff815491600181015490600360028201549101549160405194855260208501526040840152818116606084015260081c1615156080820152f35b3461012a57602036600319011261012a575f60806106dc610be6565b82815282602082015282604082015282606082015201526004355f52600260205260a060405f2061070b610be6565b9060ff8154928381526001830154926020820193845260036002820154916040840192835201549383608060608501948288168652019560081c1615158552604051958652516020860152516040850152511660608301525115156080820152f35b3461012a575f36600319011261012a576020600554604051908152f35b3461012a57602036600319011261012a576001600160a01b036107ab610b9e565b165f526001602052602060ff60405f2054166040519015158152f35b3461012a575f36600319011261012a5760206040516127108152f35b3461012a57602036600319011261012a575f54600435906001600160a01b0316330361024e577f9843f62f065b46649ec181ada7772d5c94055361bc052184193831e5cbcb9f6560406004548151908152836020820152a1600455005b3461012a57602036600319011261012a575f54600435906001600160a01b0316330361024e57805f52600360205260405f20600160ff198254161790557fd4a2ffd4212ea97bb981aae1f4a20d5170df470d2ed811c1b393882bc1d9f0fa5f80a2005b3461012a57608036600319011261012a5760043567ffffffffffffffff811161012a576108d4903690600401610b6d565b909160243567ffffffffffffffff811161012a576108f6903690600401610b6d565b60449291923567ffffffffffffffff811161012a57610919903690600401610b6d565b95909160643567ffffffffffffffff811161012a5761093c903690600401610b6d565b979094335f52600160205260ff60405f2054161580610b59575b61046f5782881480610b50575b80610b47575b15610b1357505f5b87811061097a57005b610985818986610bb4565b359061099281858a610bb4565b359161099f828589610bb4565b35815f52600360205260ff60405f20541615610b005783158015610af8575b610224576001937fc7061c903e2c36b50c20c3af3c54f4a781394e15a68ba49ee82125a240ad419b91610acb610aa38f87610a27918f895f52600260205260405f20888154918215159081610ae5575b50610ad4575b5050610a9e610a2c610a27858585610bb4565b610bd8565b8b60ff6003610a39610be6565b8d8152602081018d8152604082019042825284606084019716875260808301955f87525f52600260205260405f20925183555160018301555160028201550192511660ff1983541617825551151561ff00825491151560081b169061ff001916179055565b610bb4565b60408051948552602085019390935260ff169183019190915242606083015281906080820190565b0390a201610971565b610ade918c610c9f565b5f88610a14565b60ff91506003015460081c16155f610a0e565b5080156109be565b50631b37612760e21b5f5260045260245ffd5b62461bcd60e51b815260206004820152600f60248201526e0d8cadccee8d040dad2e6dac2e8c6d608b1b6044820152606490fd5b50888814610969565b50818814610963565b505f546001600160a01b0316331415610956565b9181601f8401121561012a5782359167ffffffffffffffff831161012a576020808501948460051b01011161012a57565b600435906001600160a01b038216820361012a57565b9190811015610bc45760051b0190565b634e487b7160e01b5f52603260045260245ffd5b3560ff8116810361012a5790565b6040519060a0820182811067ffffffffffffffff821117610c0657604052565b634e487b7160e01b5f52604160045260245ffd5b805f52600260205260405f2090815491821561022457610c3991610d2b565b90565b91908203918211610c4957565b634e487b7160e01b5f52601160045260245ffd5b5f52600260205260405f20805415610c9a5760ff600382015460081c16610c94576002610c8c91015442610c3c565b600454101590565b50600190565b505f90565b9180821115610d1c57610cb28183610c3c565b6127108102908082046127101490151715610c49578215610d0857829004916005548311610ce05750505050565b608494506040519363bdecbfb760e01b85526004850152602484015260448301526064820152fd5b634e487b7160e01b5f52601260045260245ffd5b610d268282610c3c565b610cb2565b9060ff600382015460081c16610d71576002610d4991015442610c3c565b60045491828211610d5957505050565b6357fd6bcb60e11b5f5260045260245260445260645ffd5b505056fea2646970667358221220b17298141c6a719ccf5010baf91b5f72e5deaf9f6617c2ecb6e3c7968f6e0ca064736f6c63430008210033000000000000000000000000f39fd6e51aad88f6f4ce6ab8827279cfffb92266",
        "nonce": "0x128",
        "chainId": "0xa455"
      },
      "additionalContracts": [],
      "isFixedGasLimit": false
    },
    {
      "hash": "0xc99e145e38a81e72e39ce39aa6ac136076d298f1d68a76e36b96533534aedd5d",
      "transactionType": "CALL",
      "contractName": "PerpPriceOracle",
      "contractAddress": "0x286b8decd5ed79c962b2d8f4346cd97ff0e2c352",
      "function": "registerMarket(bytes32)",
      "arguments": [
        "0xe98e2830be1a7e4156d656a7505e65d08c67660dc618072422e9c78053c261e9"
      ],
      "transaction": {
        "from": "0xf39fd6e51aad88f6f4ce6ab8827279cfffb92266",
        "to": "0x286b8decd5ed79c962b2d8f4346cd97ff0e2c352",
        "gas": "0x10d9b",
        "value": "0x0",
        "input": "0x0df1d5ede98e2830be1a7e4156d656a7505e65d08c67660dc618072422e9c78053c261e9",
        "nonce": "0x129",
        "chainId": "0xa455"
      },
      "additionalContracts": [],
      "isFixedGasLimit": false
    },
    {
      "hash": "0xfc21d6004a130b40bfff5f36d3d8964d1a218b65318f81cee5b1bee9b912dea1",
      "transactionType": "CALL",
      "contractName": "PerpPriceOracle",
      "contractAddress": "0x286b8decd5ed79c962b2d8f4346cd97ff0e2c352",
      "function": "setManualPrice(bytes32,uint256,uint256)",
      "arguments": [
        "0xe98e2830be1a7e4156d656a7505e65d08c67660dc618072422e9c78053c261e9",
        "6500000000000",
        "6498000000000"
      ],
      "transaction": {
        "from": "0xf39fd6e51aad88f6f4ce6ab8827279cfffb92266",
        "to": "0x286b8decd5ed79c962b2d8f4346cd97ff0e2c352",
        "gas": "0x29fb4",
        "value": "0x0",
        "input": "0xf229fecee98e2830be1a7e4156d656a7505e65d08c67660dc618072422e9c78053c261e9000000000000000000000000000000000000000000000000000005e96630e800000000000000000000000000000000000000000000000000000005e8eefb5400",
        "nonce": "0x12a",
        "chainId": "0xa455"
      },
      "additionalContracts": [],
      "isFixedGasLimit": false
    },
    {
      "hash": "0x6dd668da62b6caa857417056ea358708ca5abcd670376e523360eaf615ad6f94",
      "transactionType": "CALL",
      "contractName": "PerpPriceOracle",
      "contractAddress": "0x286b8decd5ed79c962b2d8f4346cd97ff0e2c352",
      "function": "registerMarket(bytes32)",
      "arguments": [
        "0xaaaebeba3810b1e6b70781f14b2d72c1cb89c0b2b320c43bb67ff79f562f5ff4"
      ],
      "transaction": {
        "from": "0xf39fd6e51aad88f6f4ce6ab8827279cfffb92266",
        "to": "0x286b8decd5ed79c962b2d8f4346cd97ff0e2c352",
        "gas": "0x10d9b",
        "value": "0x0",
        "input": "0x0df1d5edaaaebeba3810b1e6b70781f14b2d72c1cb89c0b2b320c43bb67ff79f562f5ff4",
        "nonce": "0x12b",
        "chainId": "0xa455"
      },
      "additionalContracts": [],
      "isFixedGasLimit": false
    },
    {
      "hash": "0xe5d10664e36efb5890f4dd84a868aca4cab594b7d6b37d993a7fb3c8f7d634d6",
      "transactionType": "CALL",
      "contractName": "PerpPriceOracle",
      "contractAddress": "0x286b8decd5ed79c962b2d8f4346cd97ff0e2c352",
      "function": "setManualPrice(bytes32,uint256,uint256)",
      "arguments": [
        "0xaaaebeba3810b1e6b70781f14b2d72c1cb89c0b2b320c43bb67ff79f562f5ff4",
        "250000000000",
        "249800000000"
      ],
      "transaction": {
        "from": "0xf39fd6e51aad88f6f4ce6ab8827279cfffb92266",
        "to": "0x286b8decd5ed79c962b2d8f4346cd97ff0e2c352",
        "gas": "0x29f91",
        "value": "0x0",
        "input": "0xf229feceaaaebeba3810b1e6b70781f14b2d72c1cb89c0b2b320c43bb67ff79f562f5ff40000000000000000000000000000000000000000000000000000003a352944000000000000000000000000000000000000000000000000000000003a293d8200",
        "nonce": "0x12c",
        "chainId": "0xa455"
      },
      "additionalContracts": [],
      "isFixedGasLimit": false
    },
    {
      "hash": "0xc17a749df35949dd9f276389d3b29766400cd645b4d22851d1834d3661b03fd6",
      "transactionType": "CALL",
      "contractName": "PerpPriceOracle",
      "contractAddress": "0x286b8decd5ed79c962b2d8f4346cd97ff0e2c352",
      "function": "registerMarket(bytes32)",
      "arguments": [
        "0x0a3ec4fc70eaf64faf6eeda4e9b2bd4742a785464053aa23afad8bd24650e86f"
      ],
      "transaction": {
        "from": "0xf39fd6e51aad88f6f4ce6ab8827279cfffb92266",
        "to": "0x286b8decd5ed79c962b2d8f4346cd97ff0e2c352",
        "gas": "0x10d9b",
        "value": "0x0",
        "input": "0x0df1d5ed0a3ec4fc70eaf64faf6eeda4e9b2bd4742a785464053aa23afad8bd24650e86f",
        "nonce": "0x12d",
        "chainId": "0xa455"
      },
      "additionalContracts": [],
      "isFixedGasLimit": false
    },
    {
      "hash": "0x6933170db02224ef30c658e7d6f2f59b3be23542a21a1242fb4247fbf2470d89",
      "transactionType": "CALL",
      "contractName": "PerpPriceOracle",
      "contractAddress": "0x286b8decd5ed79c962b2d8f4346cd97ff0e2c352",
      "function": "setManualPrice(bytes32,uint256,uint256)",
      "arguments": [
        "0x0a3ec4fc70eaf64faf6eeda4e9b2bd4742a785464053aa23afad8bd24650e86f",
        "18000000000",
        "17990000000"
      ],
      "transaction": {
        "from": "0xf39fd6e51aad88f6f4ce6ab8827279cfffb92266",
        "to": "0x286b8decd5ed79c962b2d8f4346cd97ff0e2c352",
        "gas": "0x27a51",
        "value": "0x0",
        "input": "0xf229fece0a3ec4fc70eaf64faf6eeda4e9b2bd4742a785464053aa23afad8bd24650e86f0000000000000000000000000000000000000000000000000000000430e234000000000000000000000000000000000000000000000000000000000430499d80",
        "nonce": "0x12e",
        "chainId": "0xa455"
      },
      "additionalContracts": [],
      "isFixedGasLimit": false
    },
    {
      "hash": "0x3ff79b40b96335e3a7348f974b070fb17d7bbd47a8541f9fd3c398452d9185cc",
      "transactionType": "CALL",
      "contractName": "PerpPriceOracle",
      "contractAddress": "0x286b8decd5ed79c962b2d8f4346cd97ff0e2c352",
      "function": "registerMarket(bytes32)",
      "arguments": [
        "0x3ed03c38e59dc60c7b69c2a4bf68f9214acd953252b5a90e8f5f59583e9bc3ae"
      ],
      "transaction": {
        "from": "0xf39fd6e51aad88f6f4ce6ab8827279cfffb92266",
        "to": "0x286b8decd5ed79c962b2d8f4346cd97ff0e2c352",
        "gas": "0x10d9b",
        "value": "0x0",
        "input": "0x0df1d5ed3ed03c38e59dc60c7b69c2a4bf68f9214acd953252b5a90e8f5f59583e9bc3ae",
        "nonce": "0x12f",
        "chainId": "0xa455"
      },
      "additionalContracts": [],
      "isFixedGasLimit": false
    },
    {
      "hash": "0xa9478a57984eff21f1f9998abdc10a0026f28283caabb777381b9fdfecceab20",
      "transactionType": "CALL",
      "contractName": "PerpPriceOracle",
      "contractAddress": "0x286b8decd5ed79c962b2d8f4346cd97ff0e2c352",
      "function": "setManualPrice(bytes32,uint256,uint256)",
      "arguments": [
        "0x3ed03c38e59dc60c7b69c2a4bf68f9214acd953252b5a90e8f5f59583e9bc3ae",
        "60000000000",
        "59980000000"
      ],
      "transaction": {
        "from": "0xf39fd6e51aad88f6f4ce6ab8827279cfffb92266",
        "to": "0x286b8decd5ed79c962b2d8f4346cd97ff0e2c352",
        "gas": "0x29f91",
        "value": "0x0",
        "input": "0xf229fece3ed03c38e59dc60c7b69c2a4bf68f9214acd953252b5a90e8f5f59583e9bc3ae0000000000000000000000000000000000000000000000000000000df84758000000000000000000000000000000000000000000000000000000000df7162b00",
        "nonce": "0x130",
        "chainId": "0xa455"
      },
      "additionalContracts": [],
      "isFixedGasLimit": false
    },
    {
      "hash": "0x4fe0b5b4b748fd931ada433c36a39c3ad75b4629f8fae2d14633de5cc065db7c",
      "transactionType": "CALL",
      "contractName": "PerpPriceOracle",
      "contractAddress": "0x286b8decd5ed79c962b2d8f4346cd97ff0e2c352",
      "function": "registerMarket(bytes32)",
      "arguments": [
        "0xa6a7de01e8b7ba6a4a61c782a73188d808fc1f3cf5743fadb68a02ed884b594f"
      ],
      "transaction": {
        "from": "0xf39fd6e51aad88f6f4ce6ab8827279cfffb92266",
        "to": "0x286b8decd5ed79c962b2d8f4346cd97ff0e2c352",
        "gas": "0x10d9b",
        "value": "0x0",
        "input": "0x0df1d5eda6a7de01e8b7ba6a4a61c782a73188d808fc1f3cf5743fadb68a02ed884b594f",
        "nonce": "0x131",
        "chainId": "0xa455"
      },
      "additionalContracts": [],
      "isFixedGasLimit": false
    },
    {
      "hash": "0x5e90af97ed6d8a753a18e213baba839d9969b75c210f4ddbdf3c70ed590b0baf",
      "transactionType": "CALL",
      "contractName": "PerpPriceOracle",
      "contractAddress": "0x286b8decd5ed79c962b2d8f4346cd97ff0e2c352",
      "function": "setManualPrice(bytes32,uint256,uint256)",
      "arguments": [
        "0xa6a7de01e8b7ba6a4a61c782a73188d808fc1f3cf5743fadb68a02ed884b594f",
        "90000000",
        "89500000"
      ],
      "transaction": {
        "from": "0xf39fd6e51aad88f6f4ce6ab8827279cfffb92266",
        "to": "0x286b8decd5ed79c962b2d8f4346cd97ff0e2c352",
        "gas": "0x29f91",
        "value": "0x0",
        "input": "0xf229fecea6a7de01e8b7ba6a4a61c782a73188d808fc1f3cf5743fadb68a02ed884b594f00000000000000000000000000000000000000000000000000000000055d4a80000000000000000000000000000000000000000000000000000000000555a960",
        "nonce": "0x132",
        "chainId": "0xa455"
      },
      "additionalContracts": [],
      "isFixedGasLimit": false
    },
    {
      "hash": "0x6413ab799017077c54ef7d004f51f7c27ddcc66fa3290d720d10eec5de852712",
      "transactionType": "CALL",
      "contractName": "PerpPriceOracle",
      "contractAddress": "0x286b8decd5ed79c962b2d8f4346cd97ff0e2c352",
      "function": "registerMarket(bytes32)",
      "arguments": [
        "0xc07524b7a4eecc2784fc7ac17ff2730f877f3cf7a2ceb4e2375fa40a103115d0"
      ],
      "transaction": {
        "from": "0xf39fd6e51aad88f6f4ce6ab8827279cfffb92266",
        "to": "0x286b8decd5ed79c962b2d8f4346cd97ff0e2c352",
        "gas": "0x10d9b",
        "value": "0x0",
        "input": "0x0df1d5edc07524b7a4eecc2784fc7ac17ff2730f877f3cf7a2ceb4e2375fa40a103115d0",
        "nonce": "0x133",
        "chainId": "0xa455"
      },
      "additionalContracts": [],
      "isFixedGasLimit": false
    },
    {
      "hash": "0xebcb361b741b877e1f784df384de14353004b53946895675465f50f6fd02fa83",
      "transactionType": "CALL",
      "contractName": "PerpPriceOracle",
      "contractAddress": "0x286b8decd5ed79c962b2d8f4346cd97ff0e2c352",
      "function": "setManualPrice(bytes32,uint256,uint256)",
      "arguments": [
        "0xc07524b7a4eecc2784fc7ac17ff2730f877f3cf7a2ceb4e2375fa40a103115d0",
        "120000000",
        "119800000"
      ],
      "transaction": {
        "from": "0xf39fd6e51aad88f6f4ce6ab8827279cfffb92266",
        "to": "0x286b8decd5ed79c962b2d8f4346cd97ff0e2c352",
        "gas": "0x29f6e",
        "value": "0x0",
        "input": "0xf229fecec07524b7a4eecc2784fc7ac17ff2730f877f3cf7a2ceb4e2375fa40a103115d00000000000000000000000000000000000000000000000000000000007270e0000000000000000000000000000000000000000000000000000000000072400c0",
        "nonce": "0x134",
        "chainId": "0xa455"
      },
      "additionalContracts": [],
      "isFixedGasLimit": false
    },
    {
      "hash": "0x0848487813eb91527a02b19e099fd10bcfbc6e9176eb421935573561873ca074",
      "transactionType": "CALL",
      "contractName": null,
      "contractAddress": "0xa513e6e4b8f2a923d98304ec87f64353c4d5c853",
      "function": "createMarket(bytes32,uint256)",
      "arguments": [
        "0x0a3ec4fc70eaf64faf6eeda4e9b2bd4742a785464053aa23afad8bd24650e86f",
        "25"
      ],
      "transaction": {
        "from": "0xf39fd6e51aad88f6f4ce6ab8827279cfffb92266",
        "to": "0xa513e6e4b8f2a923d98304ec87f64353c4d5c853",
        "gas": "0x2f781",
        "value": "0x0",
        "input": "0xd28833250a3ec4fc70eaf64faf6eeda4e9b2bd4742a785464053aa23afad8bd24650e86f0000000000000000000000000000000000000000000000000000000000000019",
        "nonce": "0x135",
        "chainId": "0xa455"
      },
      "additionalContracts": [],
      "isFixedGasLimit": false
    },
    {
      "hash": "0xaff65af50c5f557056cc2229bd913669ed9838c130a15419c39bfed76a1a89ad",
      "transactionType": "CALL",
      "contractName": null,
      "contractAddress": "0xa513e6e4b8f2a923d98304ec87f64353c4d5c853",
      "function": "createMarket(bytes32,uint256)",
      "arguments": [
        "0x3ed03c38e59dc60c7b69c2a4bf68f9214acd953252b5a90e8f5f59583e9bc3ae",
        "25"
      ],
      "transaction": {
        "from": "0xf39fd6e51aad88f6f4ce6ab8827279cfffb92266",
        "to": "0xa513e6e4b8f2a923d98304ec87f64353c4d5c853",
        "gas": "0x2f781",
        "value": "0x0",
        "input": "0xd28833253ed03c38e59dc60c7b69c2a4bf68f9214acd953252b5a90e8f5f59583e9bc3ae0000000000000000000000000000000000000000000000000000000000000019",
        "nonce": "0x136",
        "chainId": "0xa455"
      },
      "additionalContracts": [],
      "isFixedGasLimit": false
    },
    {
      "hash": "0x0425e34c9547e30a1d690ef77640de39d5e2133559bcb1192ac5d1bf72e12b2d",
      "transactionType": "CALL",
      "contractName": null,
      "contractAddress": "0xa513e6e4b8f2a923d98304ec87f64353c4d5c853",
      "function": "createMarket(bytes32,uint256)",
      "arguments": [
        "0xa6a7de01e8b7ba6a4a61c782a73188d808fc1f3cf5743fadb68a02ed884b594f",
        "20"
      ],
      "transaction": {
        "from": "0xf39fd6e51aad88f6f4ce6ab8827279cfffb92266",
        "to": "0xa513e6e4b8f2a923d98304ec87f64353c4d5c853",
        "gas": "0x2f781",
        "value": "0x0",
        "input": "0xd2883325a6a7de01e8b7ba6a4a61c782a73188d808fc1f3cf5743fadb68a02ed884b594f0000000000000000000000000000000000000000000000000000000000000014",
        "nonce": "0x137",
        "chainId": "0xa455"
      },
      "additionalContracts": [],
      "isFixedGasLimit": false
    },
    {
      "hash": "0x7450215c56c971726003154a2b5f36159acf66380d1e25ee43efbbcfb8b264b6",
      "transactionType": "CALL",
      "contractName": null,
      "contractAddress": "0xa513e6e4b8f2a923d98304ec87f64353c4d5c853",
      "function": "createMarket(bytes32,uint256)",
      "arguments": [
        "0xc07524b7a4eecc2784fc7ac17ff2730f877f3cf7a2ceb4e2375fa40a103115d0",
        "20"
      ],
      "transaction": {
        "from": "0xf39fd6e51aad88f6f4ce6ab8827279cfffb92266",
        "to": "0xa513e6e4b8f2a923d98304ec87f64353c4d5c853",
        "gas": "0x2f781",
        "value": "0x0",
        "input": "0xd2883325c07524b7a4eecc2784fc7ac17ff2730f877f3cf7a2ceb4e2375fa40a103115d00000000000000000000000000000000000000000000000000000000000000014",
        "nonce": "0x138",
        "chainId": "0xa455"
      },
      "additionalContracts": [],
      "isFixedGasLimit": false
    }
  ],
  "receipts": [
    {
      "status": "0x1",
      "cumulativeGasUsed": "0xdc1ae",
      "logs": [],
      "logsBloom": "0x00000000000000000000000000000000000000000000000000000000000000000000000000000000000000000000000000000000000000000000000000000000000000000000000000000000000000000000000000000000000000000000000000000000000000000000000000000000000000000000000000000000000000000000000000000000000000000000000000000000000000000000000000000000000000000000000000000000000000000000000000000000000000000000000000000000000000000000000000000000000000000000000000000000000000000000000000000000000000000000000000000000000000000000000000000000",
      "type": "0x0",
      "transactionHash": "0x4f0f9d3d5b6ee627a5008dd9cdc4730067c78823ed3384007552dbca642416ba",
      "transactionIndex": "0x0",
      "blockHash": "0xa02f10eef821903133ecf8172f220c6d953d6349a591fd417d9d8855f26da8be",
      "blockNumber": "0x680d",
      "gasUsed": "0xdc1ae",
      "effectiveGasPrice": "0x3b9aca07",
      "blobGasPrice": "0x1",
      "from": "0xf39fd6e51aad88f6f4ce6ab8827279cfffb92266",
      "to": null,
      "contractAddress": "0x286b8decd5ed79c962b2d8f4346cd97ff0e2c352",
      "blockTimestamp": 1775255135
    },
    {
      "status": "0x1",
      "cumulativeGasUsed": "0xe7a07",
      "logs": [
        {
          "address": "0x286b8decd5ed79c962b2d8f4346cd97ff0e2c352",
          "topics": [
            "0xd4a2ffd4212ea97bb981aae1f4a20d5170df470d2ed811c1b393882bc1d9f0fa",
            "0xe98e2830be1a7e4156d656a7505e65d08c67660dc618072422e9c78053c261e9"
          ],
          "data": "0x",
          "blockHash": "0xa02f10eef821903133ecf8172f220c6d953d6349a591fd417d9d8855f26da8be",
          "blockNumber": "0x680d",
          "blockTimestamp": "0x69d03e5f",
          "transactionHash": "0xc99e145e38a81e72e39ce39aa6ac136076d298f1d68a76e36b96533534aedd5d",
          "transactionIndex": "0x1",
          "logIndex": "0x0",
          "removed": false
        }
      ],
      "logsBloom": "0x00000000000000000000000000000000000000000000000000000000000000000000000000000000002000000000000000000000000000000000000000000000000000000000000000000000000000000000080000002000000000000000000400000000000000000000000000000000000000000000000000000000000000000000000000000000000000000000000000000000000000000000000000000000004000000000000000000000000000000000100000000000000000000000000000000000000000000000000000000000000000000000000000000000000000000000000000000000000500000000000000000000000000000000000000400000",
      "type": "0x0",
      "transactionHash": "0xc99e145e38a81e72e39ce39aa6ac136076d298f1d68a76e36b96533534aedd5d",
      "transactionIndex": "0x1",
      "blockHash": "0xa02f10eef821903133ecf8172f220c6d953d6349a591fd417d9d8855f26da8be",
      "blockNumber": "0x680d",
      "gasUsed": "0xb859",
      "effectiveGasPrice": "0x3b9aca07",
      "blobGasPrice": "0x1",
      "from": "0xf39fd6e51aad88f6f4ce6ab8827279cfffb92266",
      "to": "0x286b8decd5ed79c962b2d8f4346cd97ff0e2c352",
      "contractAddress": null,
      "blockTimestamp": 1775255135
    },
    {
      "status": "0x1",
      "cumulativeGasUsed": "0x104550",
      "logs": [
        {
          "address": "0x286b8decd5ed79c962b2d8f4346cd97ff0e2c352",
          "topics": [
            "0xd1e0ff31b5a8e9db7a93db8b63d84e896cce257bc637e6d369f43178eedd98ce",
            "0xe98e2830be1a7e4156d656a7505e65d08c67660dc618072422e9c78053c261e9"
          ],
          "data": "0x000000000000000000000000000000000000000000000000000005e96630e800000000000000000000000000000000000000000000000000000005e8eefb5400",
          "blockHash": "0xa02f10eef821903133ecf8172f220c6d953d6349a591fd417d9d8855f26da8be",
          "blockNumber": "0x680d",
          "blockTimestamp": "0x69d03e5f",
          "transactionHash": "0x0425e34c9547e30a1d690ef77640de39d5e2133559bcb1192ac5d1bf72e12b2d",
          "transactionIndex": "0x2",
          "logIndex": "0x1",
          "removed": false
        }
      ],
      "logsBloom": "0x00000000000000000000000000000000000000000000000000000000000000000000000000000000002000000000000000000000000000000000000000000000000000000000000000000000000000000000000000002000000000001000000400000000000000000000000000000000000000000000000000000000000000000001000000000000000000000000000000000000000000000000000000000000000000000000000000000000020000000000100000000000000000000000000000000000000000000000000000000000000000000000000000000000000000000000000000000000000100000000000000000000000000000000000000400000",
      "type": "0x0",
      "transactionHash": "0x0425e34c9547e30a1d690ef77640de39d5e2133559bcb1192ac5d1bf72e12b2d",
      "transactionIndex": "0x2",
      "blockHash": "0xa02f10eef821903133ecf8172f220c6d953d6349a591fd417d9d8855f26da8be",
      "blockNumber": "0x680d",
      "gasUsed": "0x1cb49",
      "effectiveGasPrice": "0x3b9aca07",
      "blobGasPrice": "0x1",
      "from": "0xf39fd6e51aad88f6f4ce6ab8827279cfffb92266",
      "to": "0x286b8decd5ed79c962b2d8f4346cd97ff0e2c352",
      "contractAddress": null,
      "blockTimestamp": 1775255135
    },
    {
      "status": "0x1",
      "cumulativeGasUsed": "0x10fda9",
      "logs": [
        {
          "address": "0x286b8decd5ed79c962b2d8f4346cd97ff0e2c352",
          "topics": [
            "0xd4a2ffd4212ea97bb981aae1f4a20d5170df470d2ed811c1b393882bc1d9f0fa",
            "0xaaaebeba3810b1e6b70781f14b2d72c1cb89c0b2b320c43bb67ff79f562f5ff4"
          ],
          "data": "0x",
          "blockHash": "0xa02f10eef821903133ecf8172f220c6d953d6349a591fd417d9d8855f26da8be",
          "blockNumber": "0x680d",
          "blockTimestamp": "0x69d03e5f",
          "transactionHash": "0x4fe0b5b4b748fd931ada433c36a39c3ad75b4629f8fae2d14633de5cc065db7c",
          "transactionIndex": "0x3",
          "logIndex": "0x2",
          "removed": false
        }
      ],
      "logsBloom": "0x00000000000000000000000000000000000000000000000000000000000000000000000000000000000000000000000000000000000000000000000000000000000000000000000000000000000000000000080000002000000000000000000400000000000000000000000000000000000000040000000000000000000000000000000000000000000000008000000000000000000000000000000000000000004000000000000000000000000000000000100000000000000000000000000000000000000000000000000000000000000000000000000000001000000000000000000000000000000400000000000000000000000000000000000000000000",
      "type": "0x0",
      "transactionHash": "0x4fe0b5b4b748fd931ada433c36a39c3ad75b4629f8fae2d14633de5cc065db7c",
      "transactionIndex": "0x3",
      "blockHash": "0xa02f10eef821903133ecf8172f220c6d953d6349a591fd417d9d8855f26da8be",
      "blockNumber": "0x680d",
      "gasUsed": "0xb859",
      "effectiveGasPrice": "0x3b9aca07",
      "blobGasPrice": "0x1",
      "from": "0xf39fd6e51aad88f6f4ce6ab8827279cfffb92266",
      "to": "0x286b8decd5ed79c962b2d8f4346cd97ff0e2c352",
      "contractAddress": null,
      "blockTimestamp": 1775255135
    },
    {
      "status": "0x1",
      "cumulativeGasUsed": "0x12c8da",
      "logs": [
        {
          "address": "0x286b8decd5ed79c962b2d8f4346cd97ff0e2c352",
          "topics": [
            "0xd1e0ff31b5a8e9db7a93db8b63d84e896cce257bc637e6d369f43178eedd98ce",
            "0xaaaebeba3810b1e6b70781f14b2d72c1cb89c0b2b320c43bb67ff79f562f5ff4"
          ],
          "data": "0x0000000000000000000000000000000000000000000000000000003a352944000000000000000000000000000000000000000000000000000000003a293d8200",
          "blockHash": "0xa02f10eef821903133ecf8172f220c6d953d6349a591fd417d9d8855f26da8be",
          "blockNumber": "0x680d",
          "blockTimestamp": "0x69d03e5f",
          "transactionHash": "0xc17a749df35949dd9f276389d3b29766400cd645b4d22851d1834d3661b03fd6",
          "transactionIndex": "0x4",
          "logIndex": "0x3",
          "removed": false
        }
      ],
      "logsBloom": "0x00000000000000000000000000000000000000000000000000000000000000000000000000000000000000000000000000000000000000000000000000000000000000000000000000000000000000000000000000002000000000001000000400000000000000000000000000000000000000040000000000000000000000000001000000000000000000008000000000000000000000000000000000000000000000000000000000000000020000000000100000000000000000000000000000000000000000000000000000000000000000000000000000001000000000000000000000000000000000000000000000000000000000000000000000000000",
      "type": "0x0",
      "transactionHash": "0xc17a749df35949dd9f276389d3b29766400cd645b4d22851d1834d3661b03fd6",
      "transactionIndex": "0x4",
      "blockHash": "0xa02f10eef821903133ecf8172f220c6d953d6349a591fd417d9d8855f26da8be",
      "blockNumber": "0x680d",
      "gasUsed": "0x1cb31",
      "effectiveGasPrice": "0x3b9aca07",
      "blobGasPrice": "0x1",
      "from": "0xf39fd6e51aad88f6f4ce6ab8827279cfffb92266",
      "to": "0x286b8decd5ed79c962b2d8f4346cd97ff0e2c352",
      "contractAddress": null,
      "blockTimestamp": 1775255135
    },
    {
      "status": "0x1",
      "cumulativeGasUsed": "0x138133",
      "logs": [
        {
          "address": "0x286b8decd5ed79c962b2d8f4346cd97ff0e2c352",
          "topics": [
            "0xd4a2ffd4212ea97bb981aae1f4a20d5170df470d2ed811c1b393882bc1d9f0fa",
            "0x0a3ec4fc70eaf64faf6eeda4e9b2bd4742a785464053aa23afad8bd24650e86f"
          ],
          "data": "0x",
          "blockHash": "0xa02f10eef821903133ecf8172f220c6d953d6349a591fd417d9d8855f26da8be",
          "blockNumber": "0x680d",
          "blockTimestamp": "0x69d03e5f",
          "transactionHash": "0xe5d10664e36efb5890f4dd84a868aca4cab594b7d6b37d993a7fb3c8f7d634d6",
          "transactionIndex": "0x5",
          "logIndex": "0x4",
          "removed": false
        }
      ],
      "logsBloom": "0x00000000000000000000000000000000000000000000000000000000000000000000000000000002000000000000000000000000000000000000000000000000000000000000000000000000000000000000080000002000000000000000000400000000000000000000000000000000000000000000000000000000000000000000000000000000000000000000000000000000000000000000000000000000004000000000000000000000000000000000100000000000000000000000000000000000000000000000000000000000000008000000000000000000000040000000000000000000000400000000000000000000000000000000000000000000",
      "type": "0x0",
      "transactionHash": "0xe5d10664e36efb5890f4dd84a868aca4cab594b7d6b37d993a7fb3c8f7d634d6",
      "transactionIndex": "0x5",
      "blockHash": "0xa02f10eef821903133ecf8172f220c6d953d6349a591fd417d9d8855f26da8be",
      "blockNumber": "0x680d",
      "gasUsed": "0xb859",
      "effectiveGasPrice": "0x3b9aca07",
      "blobGasPrice": "0x1",
      "from": "0xf39fd6e51aad88f6f4ce6ab8827279cfffb92266",
      "to": "0x286b8decd5ed79c962b2d8f4346cd97ff0e2c352",
      "contractAddress": null,
      "blockTimestamp": 1775255135
    },
    {
      "status": "0x1",
      "cumulativeGasUsed": "0x154c70",
      "logs": [
        {
          "address": "0x286b8decd5ed79c962b2d8f4346cd97ff0e2c352",
          "topics": [
            "0xd1e0ff31b5a8e9db7a93db8b63d84e896cce257bc637e6d369f43178eedd98ce",
            "0x0a3ec4fc70eaf64faf6eeda4e9b2bd4742a785464053aa23afad8bd24650e86f"
          ],
          "data": "0x0000000000000000000000000000000000000000000000000000000430e234000000000000000000000000000000000000000000000000000000000430499d80",
          "blockHash": "0xa02f10eef821903133ecf8172f220c6d953d6349a591fd417d9d8855f26da8be",
          "blockNumber": "0x680d",
          "blockTimestamp": "0x69d03e5f",
          "transactionHash": "0xebcb361b741b877e1f784df384de14353004b53946895675465f50f6fd02fa83",
          "transactionIndex": "0x6",
          "logIndex": "0x5",
          "removed": false
        }
      ],
      "logsBloom": "0x00000000000000000000000000000000000000000000000000000000000000000000000000000002000000000000000000000000000000000000000000000000000000000000000000000000000000000000000000002000000000001000000400000000000000000000000000000000000000000000000000000000000000000001000000000000000000000000000000000000000000000000000000000000000000000000000000000000020000000000100000000000000000000000000000000000000000000000000000000000000008000000000000000000000040000000000000000000000000000000000000000000000000000000000000000000",
      "type": "0x0",
      "transactionHash": "0xebcb361b741b877e1f784df384de14353004b53946895675465f50f6fd02fa83",
      "transactionIndex": "0x6",
      "blockHash": "0xa02f10eef821903133ecf8172f220c6d953d6349a591fd417d9d8855f26da8be",
      "blockNumber": "0x680d",
      "gasUsed": "0x1cb3d",
      "effectiveGasPrice": "0x3b9aca07",
      "blobGasPrice": "0x1",
      "from": "0xf39fd6e51aad88f6f4ce6ab8827279cfffb92266",
      "to": "0x286b8decd5ed79c962b2d8f4346cd97ff0e2c352",
      "contractAddress": null,
      "blockTimestamp": 1775255135
    },
    {
      "status": "0x1",
      "cumulativeGasUsed": "0x1604c9",
      "logs": [
        {
          "address": "0x286b8decd5ed79c962b2d8f4346cd97ff0e2c352",
          "topics": [
            "0xd4a2ffd4212ea97bb981aae1f4a20d5170df470d2ed811c1b393882bc1d9f0fa",
            "0x3ed03c38e59dc60c7b69c2a4bf68f9214acd953252b5a90e8f5f59583e9bc3ae"
          ],
          "data": "0x",
          "blockHash": "0xa02f10eef821903133ecf8172f220c6d953d6349a591fd417d9d8855f26da8be",
          "blockNumber": "0x680d",
          "blockTimestamp": "0x69d03e5f",
          "transactionHash": "0xaff65af50c5f557056cc2229bd913669ed9838c130a15419c39bfed76a1a89ad",
          "transactionIndex": "0x7",
          "logIndex": "0x6",
          "removed": false
        }
      ],
      "logsBloom": "0x00000000000000000000000000000000000000000000000000000000000000000000000000000000000100000000000000000000000000000000000000000000000000000000000000000000000000000000080000002000000000000000000400000000000000000000000000000000000000000000000000000000000000000020000000000000000000000000000000000000000000000000000000008000004000000000000000000000000000000000100000000000000000000000000000000000000000000000000000000000000000000000000000000000000000000000000000000000000400000000000000000000000000000000000000000000",
      "type": "0x0",
      "transactionHash": "0xaff65af50c5f557056cc2229bd913669ed9838c130a15419c39bfed76a1a89ad",
      "transactionIndex": "0x7",
      "blockHash": "0xa02f10eef821903133ecf8172f220c6d953d6349a591fd417d9d8855f26da8be",
      "blockNumber": "0x680d",
      "gasUsed": "0xb859",
      "effectiveGasPrice": "0x3b9aca07",
      "blobGasPrice": "0x1",
      "from": "0xf39fd6e51aad88f6f4ce6ab8827279cfffb92266",
      "to": "0x286b8decd5ed79c962b2d8f4346cd97ff0e2c352",
      "contractAddress": null,
      "blockTimestamp": 1775255135
    },
    {
      "status": "0x1",
      "cumulativeGasUsed": "0x17cffa",
      "logs": [
        {
          "address": "0x286b8decd5ed79c962b2d8f4346cd97ff0e2c352",
          "topics": [
            "0xd1e0ff31b5a8e9db7a93db8b63d84e896cce257bc637e6d369f43178eedd98ce",
            "0x3ed03c38e59dc60c7b69c2a4bf68f9214acd953252b5a90e8f5f59583e9bc3ae"
          ],
          "data": "0x0000000000000000000000000000000000000000000000000000000df84758000000000000000000000000000000000000000000000000000000000df7162b00",
          "blockHash": "0xa02f10eef821903133ecf8172f220c6d953d6349a591fd417d9d8855f26da8be",
          "blockNumber": "0x680d",
          "blockTimestamp": "0x69d03e5f",
          "transactionHash": "0xa9478a57984eff21f1f9998abdc10a0026f28283caabb777381b9fdfecceab20",
          "transactionIndex": "0x8",
          "logIndex": "0x7",
          "removed": false
        }
      ],
      "logsBloom": "0x00000000000000000000000000000000000000000000000000000000000000000000000000000000000100000000000000000000000000000000000000000000000000000000000000000000000000000000000000002000000000001000000400000000000000000000000000000000000000000000000000000000000000000021000000000000000000000000000000000000000000000000000000008000000000000000000000000000020000000000100000000000000000000000000000000000000000000000000000000000000000000000000000000000000000000000000000000000000000000000000000000000000000000000000000000000",
      "type": "0x0",
      "transactionHash": "0xa9478a57984eff21f1f9998abdc10a0026f28283caabb777381b9fdfecceab20",
      "transactionIndex": "0x8",
      "blockHash": "0xa02f10eef821903133ecf8172f220c6d953d6349a591fd417d9d8855f26da8be",
      "blockNumber": "0x680d",
      "gasUsed": "0x1cb31",
      "effectiveGasPrice": "0x3b9aca07",
      "blobGasPrice": "0x1",
      "from": "0xf39fd6e51aad88f6f4ce6ab8827279cfffb92266",
      "to": "0x286b8decd5ed79c962b2d8f4346cd97ff0e2c352",
      "contractAddress": null,
      "blockTimestamp": 1775255135
    },
    {
      "status": "0x1",
      "cumulativeGasUsed": "0x188853",
      "logs": [
        {
          "address": "0x286b8decd5ed79c962b2d8f4346cd97ff0e2c352",
          "topics": [
            "0xd4a2ffd4212ea97bb981aae1f4a20d5170df470d2ed811c1b393882bc1d9f0fa",
            "0xa6a7de01e8b7ba6a4a61c782a73188d808fc1f3cf5743fadb68a02ed884b594f"
          ],
          "data": "0x",
          "blockHash": "0xa02f10eef821903133ecf8172f220c6d953d6349a591fd417d9d8855f26da8be",
          "blockNumber": "0x680d",
          "blockTimestamp": "0x69d03e5f",
          "transactionHash": "0x6413ab799017077c54ef7d004f51f7c27ddcc66fa3290d720d10eec5de852712",
          "transactionIndex": "0x9",
          "logIndex": "0x8",
          "removed": false
        }
      ],
      "logsBloom": "0x00000000000000000000000000000000000000000000000000000000000000000000000000000000000000000000000000000000000000000000000000000000000000000000000000000000000000000000080000002000000000000000400400000000000000000000000000000000000000000000000000000040000000000000000000000000000000000000000000000000000000000000000000000000004000000000000000000000000000000000100000000000000000000000000000000000000000000000000000010000000000000000000000000000000000000000000000000000000400000000000000000000000000000000000000000000",
      "type": "0x0",
      "transactionHash": "0x6413ab799017077c54ef7d004f51f7c27ddcc66fa3290d720d10eec5de852712",
      "transactionIndex": "0x9",
      "blockHash": "0xa02f10eef821903133ecf8172f220c6d953d6349a591fd417d9d8855f26da8be",
      "blockNumber": "0x680d",
      "gasUsed": "0xb859",
      "effectiveGasPrice": "0x3b9aca07",
      "blobGasPrice": "0x1",
      "from": "0xf39fd6e51aad88f6f4ce6ab8827279cfffb92266",
      "to": "0x286b8decd5ed79c962b2d8f4346cd97ff0e2c352",
      "contractAddress": null,
      "blockTimestamp": 1775255135
    },
    {
      "status": "0x1",
      "cumulativeGasUsed": "0x1a5384",
      "logs": [
        {
          "address": "0x286b8decd5ed79c962b2d8f4346cd97ff0e2c352",
          "topics": [
            "0xd1e0ff31b5a8e9db7a93db8b63d84e896cce257bc637e6d369f43178eedd98ce",
            "0xa6a7de01e8b7ba6a4a61c782a73188d808fc1f3cf5743fadb68a02ed884b594f"
          ],
          "data": "0x00000000000000000000000000000000000000000000000000000000055d4a80000000000000000000000000000000000000000000000000000000000555a960",
          "blockHash": "0xa02f10eef821903133ecf8172f220c6d953d6349a591fd417d9d8855f26da8be",
          "blockNumber": "0x680d",
          "blockTimestamp": "0x69d03e5f",
          "transactionHash": "0x7450215c56c971726003154a2b5f36159acf66380d1e25ee43efbbcfb8b264b6",
          "transactionIndex": "0xa",
          "logIndex": "0x9",
          "removed": false
        }
      ],
      "logsBloom": "0x00000000000000000000000000000000000000000000000000000000000000000000000000000000000000000000000000000000000000000000000000000000000000000000000000000000000000000000000000002000000000001000400400000000000000000000000000000000000000000000000000000040000000000001000000000000000000000000000000000000000000000000000000000000000000000000000000000000020000000000100000000000000000000000000000000000000000000000000000010000000000000000000000000000000000000000000000000000000000000000000000000000000000000000000000000000",
      "type": "0x0",
      "transactionHash": "0x7450215c56c971726003154a2b5f36159acf66380d1e25ee43efbbcfb8b264b6",
      "transactionIndex": "0xa",
      "blockHash": "0xa02f10eef821903133ecf8172f220c6d953d6349a591fd417d9d8855f26da8be",
      "blockNumber": "0x680d",
      "gasUsed": "0x1cb31",
      "effectiveGasPrice": "0x3b9aca07",
      "blobGasPrice": "0x1",
      "from": "0xf39fd6e51aad88f6f4ce6ab8827279cfffb92266",
      "to": "0x286b8decd5ed79c962b2d8f4346cd97ff0e2c352",
      "contractAddress": null,
      "blockTimestamp": 1775255135
    },
    {
      "status": "0x1",
      "cumulativeGasUsed": "0x1b0bdd",
      "logs": [
        {
          "address": "0x286b8decd5ed79c962b2d8f4346cd97ff0e2c352",
          "topics": [
            "0xd4a2ffd4212ea97bb981aae1f4a20d5170df470d2ed811c1b393882bc1d9f0fa",
            "0xc07524b7a4eecc2784fc7ac17ff2730f877f3cf7a2ceb4e2375fa40a103115d0"
          ],
          "data": "0x",
          "blockHash": "0xa02f10eef821903133ecf8172f220c6d953d6349a591fd417d9d8855f26da8be",
          "blockNumber": "0x680d",
          "blockTimestamp": "0x69d03e5f",
          "transactionHash": "0x6dd668da62b6caa857417056ea358708ca5abcd670376e523360eaf615ad6f94",
          "transactionIndex": "0xb",
          "logIndex": "0xa",
          "removed": false
        }
      ],
      "logsBloom": "0x00000000000000000000000000000000000000000000000000000000000000000000000000000000000000000000000000000000000000000000000000000000000000000000000000000000000000000000080000002000000000000000000400000000000000000000000000000000000000000000000000000000000000000000000000000000000000000000000000000000000000000000004000000000004000000000000000000000000000000000100000000000002000000000000000000000000000000000000000000000000000000000080000000000000000000000000000000000000400000000000000000000000000000000000000000000",
      "type": "0x0",
      "transactionHash": "0x6dd668da62b6caa857417056ea358708ca5abcd670376e523360eaf615ad6f94",
      "transactionIndex": "0xb",
      "blockHash": "0xa02f10eef821903133ecf8172f220c6d953d6349a591fd417d9d8855f26da8be",
      "blockNumber": "0x680d",
      "gasUsed": "0xb859",
      "effectiveGasPrice": "0x3b9aca07",
      "blobGasPrice": "0x1",
      "from": "0xf39fd6e51aad88f6f4ce6ab8827279cfffb92266",
      "to": "0x286b8decd5ed79c962b2d8f4346cd97ff0e2c352",
      "contractAddress": null,
      "blockTimestamp": 1775255135
    },
    {
      "status": "0x1",
      "cumulativeGasUsed": "0x1cd6f6",
      "logs": [
        {
          "address": "0x286b8decd5ed79c962b2d8f4346cd97ff0e2c352",
          "topics": [
            "0xd1e0ff31b5a8e9db7a93db8b63d84e896cce257bc637e6d369f43178eedd98ce",
            "0xc07524b7a4eecc2784fc7ac17ff2730f877f3cf7a2ceb4e2375fa40a103115d0"
          ],
          "data": "0x0000000000000000000000000000000000000000000000000000000007270e0000000000000000000000000000000000000000000000000000000000072400c0",
          "blockHash": "0xa02f10eef821903133ecf8172f220c6d953d6349a591fd417d9d8855f26da8be",
          "blockNumber": "0x680d",
          "blockTimestamp": "0x69d03e5f",
          "transactionHash": "0x5e90af97ed6d8a753a18e213baba839d9969b75c210f4ddbdf3c70ed590b0baf",
          "transactionIndex": "0xc",
          "logIndex": "0xb",
          "removed": false
        }
      ],
      "logsBloom": "0x00000000000000000000000000000000000000000000000000000000000000000000000000000000000000000000000000000000000000000000000000000000000000000000000000000000000000000000000000002000000000001000000400000000000000000000000000000000000000000000000000000000000000000001000000000000000000000000000000000000000000000000004000000000000000000000000000000000020000000000100000000000002000000000000000000000000000000000000000000000000000000000080000000000000000000000000000000000000000000000000000000000000000000000000000000000",
      "type": "0x0",
      "transactionHash": "0x5e90af97ed6d8a753a18e213baba839d9969b75c210f4ddbdf3c70ed590b0baf",
      "transactionIndex": "0xc",
      "blockHash": "0xa02f10eef821903133ecf8172f220c6d953d6349a591fd417d9d8855f26da8be",
      "blockNumber": "0x680d",
      "gasUsed": "0x1cb19",
      "effectiveGasPrice": "0x3b9aca07",
      "blobGasPrice": "0x1",
      "from": "0xf39fd6e51aad88f6f4ce6ab8827279cfffb92266",
      "to": "0x286b8decd5ed79c962b2d8f4346cd97ff0e2c352",
      "contractAddress": null,
      "blockTimestamp": 1775255135
    },
    {
      "status": "0x1",
      "cumulativeGasUsed": "0x1ede48",
      "logs": [
        {
          "address": "0xa513e6e4b8f2a923d98304ec87f64353c4d5c853",
          "topics": [
            "0xf7154dd385fd97f5acd402bbddfc43353a65d67ed869dc6e507a9f99d6a2040d",
            "0x0000000000000000000000000000000000000000000000000000000000000002"
          ],
          "data": "0x0a3ec4fc70eaf64faf6eeda4e9b2bd4742a785464053aa23afad8bd24650e86f0000000000000000000000000000000000000000000000000000000000000019",
          "blockHash": "0xa02f10eef821903133ecf8172f220c6d953d6349a591fd417d9d8855f26da8be",
          "blockNumber": "0x680d",
          "blockTimestamp": "0x69d03e5f",
          "transactionHash": "0x6933170db02224ef30c658e7d6f2f59b3be23542a21a1242fb4247fbf2470d89",
          "transactionIndex": "0xd",
          "logIndex": "0xc",
          "removed": false
        }
      ],
      "logsBloom": "0x04000000000000000000000000000000000000000000000000000000000000010000000000000000000000000000000000000000000000000000000000000000000000000000000000000000000010200000000010000000010000000000000000000000000000000000000000000000000000000000000000000000000000000000000000000000000000000000000000000000000000000000000000000000000000000000000000000100000000000000000000000000000000000000000000800000000000000000000000000000000000000000000000000000000000000000000000000000000000000000000000000000008000000000000000000000",
      "type": "0x0",
      "transactionHash": "0x6933170db02224ef30c658e7d6f2f59b3be23542a21a1242fb4247fbf2470d89",
      "transactionIndex": "0xd",
      "blockHash": "0xa02f10eef821903133ecf8172f220c6d953d6349a591fd417d9d8855f26da8be",
      "blockNumber": "0x680d",
      "gasUsed": "0x20752",
      "effectiveGasPrice": "0x3b9aca07",
      "blobGasPrice": "0x1",
      "from": "0xf39fd6e51aad88f6f4ce6ab8827279cfffb92266",
      "to": "0xa513e6e4b8f2a923d98304ec87f64353c4d5c853",
      "contractAddress": null,
      "blockTimestamp": 1775255135
    },
    {
      "status": "0x1",
      "cumulativeGasUsed": "0x20e59a",
      "logs": [
        {
          "address": "0xa513e6e4b8f2a923d98304ec87f64353c4d5c853",
          "topics": [
            "0xf7154dd385fd97f5acd402bbddfc43353a65d67ed869dc6e507a9f99d6a2040d",
            "0x0000000000000000000000000000000000000000000000000000000000000003"
          ],
          "data": "0x3ed03c38e59dc60c7b69c2a4bf68f9214acd953252b5a90e8f5f59583e9bc3ae0000000000000000000000000000000000000000000000000000000000000019",
          "blockHash": "0xa02f10eef821903133ecf8172f220c6d953d6349a591fd417d9d8855f26da8be",
          "blockNumber": "0x680d",
          "blockTimestamp": "0x69d03e5f",
          "transactionHash": "0x3ff79b40b96335e3a7348f974b070fb17d7bbd47a8541f9fd3c398452d9185cc",
          "transactionIndex": "0xe",
          "logIndex": "0xd",
          "removed": false
        }
      ],
      "logsBloom": "0x00000000000000000000000000000000000000000000000000000000000000010000000000000000000000000000000000000000020000000000000000000000000000000000000000000000000010200000000010000000010000000000000000000000000000000000000000000000000000000000000000000000000000000000000000000000000000000000000000000000000000000000000000000000000000000000000000000000000000000000000000800000000000000000400000800000000000000000000000000000000000000000000000000000000000000000000000000000000000000000000000000000000000000000000000000000",
      "type": "0x0",
      "transactionHash": "0x3ff79b40b96335e3a7348f974b070fb17d7bbd47a8541f9fd3c398452d9185cc",
      "transactionIndex": "0xe",
      "blockHash": "0xa02f10eef821903133ecf8172f220c6d953d6349a591fd417d9d8855f26da8be",
      "blockNumber": "0x680d",
      "gasUsed": "0x20752",
      "effectiveGasPrice": "0x3b9aca07",
      "blobGasPrice": "0x1",
      "from": "0xf39fd6e51aad88f6f4ce6ab8827279cfffb92266",
      "to": "0xa513e6e4b8f2a923d98304ec87f64353c4d5c853",
      "contractAddress": null,
      "blockTimestamp": 1775255135
    },
    {
      "status": "0x1",
      "cumulativeGasUsed": "0x22ecec",
      "logs": [
        {
          "address": "0xa513e6e4b8f2a923d98304ec87f64353c4d5c853",
          "topics": [
            "0xf7154dd385fd97f5acd402bbddfc43353a65d67ed869dc6e507a9f99d6a2040d",
            "0x0000000000000000000000000000000000000000000000000000000000000004"
          ],
          "data": "0xa6a7de01e8b7ba6a4a61c782a73188d808fc1f3cf5743fadb68a02ed884b594f0000000000000000000000000000000000000000000000000000000000000014",
          "blockHash": "0xa02f10eef821903133ecf8172f220c6d953d6349a591fd417d9d8855f26da8be",
          "blockNumber": "0x680d",
          "blockTimestamp": "0x69d03e5f",
          "transactionHash": "0xfc21d6004a130b40bfff5f36d3d8964d1a218b65318f81cee5b1bee9b912dea1",
          "transactionIndex": "0xf",
          "logIndex": "0xe",
          "removed": false
        }
      ],
      "logsBloom": "0x00000000000000000000000000000000000000000000000000000000000000010000000000000000000000000000000000000000000000000000000000000000000000000000000000000000000010200000000010000000010000000000000008000000000000000000000000000000000000000000000000000000000000000000000000000000000000000000000000000000000000000000000000000000000000000000000000000000000000000000000000000000002000000000000000800000000000000000000000000000000000008000000000000000000000000000000000000000000000000000000000000000000000000000000000000000",
      "type": "0x0",
      "transactionHash": "0xfc21d6004a130b40bfff5f36d3d8964d1a218b65318f81cee5b1bee9b912dea1",
      "transactionIndex": "0xf",
      "blockHash": "0xa02f10eef821903133ecf8172f220c6d953d6349a591fd417d9d8855f26da8be",
      "blockNumber": "0x680d",
      "gasUsed": "0x20752",
      "effectiveGasPrice": "0x3b9aca07",
      "blobGasPrice": "0x1",
      "from": "0xf39fd6e51aad88f6f4ce6ab8827279cfffb92266",
      "to": "0xa513e6e4b8f2a923d98304ec87f64353c4d5c853",
      "contractAddress": null,
      "blockTimestamp": 1775255135
    },
    {
      "status": "0x1",
      "cumulativeGasUsed": "0x24f43e",
      "logs": [
        {
          "address": "0xa513e6e4b8f2a923d98304ec87f64353c4d5c853",
          "topics": [
            "0xf7154dd385fd97f5acd402bbddfc43353a65d67ed869dc6e507a9f99d6a2040d",
            "0x0000000000000000000000000000000000000000000000000000000000000005"
          ],
          "data": "0xc07524b7a4eecc2784fc7ac17ff2730f877f3cf7a2ceb4e2375fa40a103115d00000000000000000000000000000000000000000000000000000000000000014",
          "blockHash": "0xa02f10eef821903133ecf8172f220c6d953d6349a591fd417d9d8855f26da8be",
          "blockNumber": "0x680d",
          "blockTimestamp": "0x69d03e5f",
          "transactionHash": "0x0848487813eb91527a02b19e099fd10bcfbc6e9176eb421935573561873ca074",
          "transactionIndex": "0x10",
          "logIndex": "0xf",
          "removed": false
        }
      ],
      "logsBloom": "0x00000000000000000000000000000000000000000000000000000000000000010000000000000000000000000000000000000000000000000000000000000000000010000000000000000000000010200000000010000000010000000000000000000000000000000000000000000000000000000000000000000000000000000000000000000000000000000000001000000800000000000000000000000000000000000000000000000000000000000000000000000000000000000000000000800000000000000000000000000000000000000000000000000000000000000000000000000000000000000000000000000000000000000000000000000000",
      "type": "0x0",
      "transactionHash": "0x0848487813eb91527a02b19e099fd10bcfbc6e9176eb421935573561873ca074",
      "transactionIndex": "0x10",
      "blockHash": "0xa02f10eef821903133ecf8172f220c6d953d6349a591fd417d9d8855f26da8be",
      "blockNumber": "0x680d",
      "gasUsed": "0x20752",
      "effectiveGasPrice": "0x3b9aca07",
      "blobGasPrice": "0x1",
      "from": "0xf39fd6e51aad88f6f4ce6ab8827279cfffb92266",
      "to": "0xa513e6e4b8f2a923d98304ec87f64353c4d5c853",
      "contractAddress": null,
      "blockTimestamp": 1775255135
    }
  ],
  "libraries": [],
  "pending": [],
  "returns": {},
  "timestamp": 1775255135273,
  "chain": 42069,
  "commit": "469fe82"
}