{
  "transactions": [
    {
      "hash": "0x230fb41d2f49bea1d68ff3288045183e627841c803eee1ba77f2b5e3a7e42906",
      "transactionType": "CALL",
      "contractName": null,
      "contractAddress": "0xa4899d35897033b927acfcf422bc745916139776",
      "function": "setFeeBeneficiary(address)",
      "arguments": [
        "0xC0BF43A4Ca27e0976195E6661b099742f10507e5"
      ],
      "transaction": {
        "from": "0xf39fd6e51aad88f6f4ce6ab8827279cfffb92266",
        "to": "0xa4899d35897033b927acfcf422bc745916139776",
        "gas": "0x9c35",
        "value": "0x0",
        "input": "0x5a0a3d82000000000000000000000000c0bf43a4ca27e0976195e6661b099742f10507e5",
        "nonce": "0x1d8",
        "chainId": "0xa455"
      },
      "additionalContracts": [],
      "isFixedGasLimit": false
    },
    {
      "hash": "0xf515e7d38b769c465dc6baf73b0f68fd8ec19be4a2fe3c6d3bc78382bf8ff663",
      "transactionType": "CALL",
      "contractName": null,
      "contractAddress": "0xf953b3a269d80e3eb0f2947630da976b896a8c5b",
      "function": "setFeeBeneficiary(address)",
      "arguments": [
        "0xC0BF43A4Ca27e0976195E6661b099742f10507e5"
      ],
      "transaction": {
        "from": "0xf39fd6e51aad88f6f4ce6ab8827279cfffb92266",
        "to": "0xf953b3a269d80e3eb0f2947630da976b896a8c5b",
        "gas": "0x9c35",
        "value": "0x0",
        "input": "0x5a0a3d82000000000000000000000000c0bf43a4ca27e0976195e6661b099742f10507e5",
        "nonce": "0x1d9",
        "chainId": "0xa455"
      },
      "additionalContracts": [],
      "isFixedGasLimit": false
    },
    {
      "hash": "0x7ecbee01f6fe43825622f816d3f942a664fe0c85b4bc1ea8e003f7dec09095bd",
      "transactionType": "CALL",
      "contractName": null,
      "contractAddress": "0xaa292e8611adf267e563f334ee42320ac96d0463",
      "function": "setFeeBeneficiary(address)",
      "arguments": [
        "0xC0BF43A4Ca27e0976195E6661b099742f10507e5"
      ],
      "transaction": {
        "from": "0xf39fd6e51aad88f6f4ce6ab8827279cfffb92266",
        "to": "0xaa292e8611adf267e563f334ee42320ac96d0463",
        "gas": "0x9c35",
        "value": "0x0",
        "input": "0x5a0a3d82000000000000000000000000c0bf43a4ca27e0976195e6661b099742f10507e5",
        "nonce": "0x1da",
        "chainId": "0xa455"
      },
      "additionalContracts": [],
      "isFixedGasLimit": false
    },
    {
      "hash": "0x3637984428670291db08ab58a5f74c33ac450b251b9fe1ded0e0a8594af6e10b",
      "transactionType": "CALL",
      "contractName": null,
      "contractAddress": "0x73c68f1f41e4890d06ba3e71b9e9dfa555f1fb46",
      "function": "setFeeSplitter(address)",
      "arguments": [
        "0xC0BF43A4Ca27e0976195E6661b099742f10507e5"
      ],
      "transaction": {
        "from": "0xf39fd6e51aad88f6f4ce6ab8827279cfffb92266",
        "to": "0x73c68f1f41e4890d06ba3e71b9e9dfa555f1fb46",
        "gas": "0x9d07",
        "value": "0x0",
        "input": "0xb17fb9d6000000000000000000000000c0bf43a4ca27e0976195e6661b099742f10507e5",
        "nonce": "0x1db",
        "chainId": "0xa455"
      },
      "additionalContracts": [],
      "isFixedGasLimit": false
    }
  ],
  "receipts": [
    {
      "status": "0x1",
      "cumulativeGasUsed": "0x7118",
      "logs": [],
      "logsBloom": "0x00000000000000000000000000000000000000000000000000000000000000000000000000000000000000000000000000000000000000000000000000000000000000000000000000000000000000000000000000000000000000000000000000000000000000000000000000000000000000000000000000000000000000000000000000000000000000000000000000000000000000000000000000000000000000000000000000000000000000000000000000000000000000000000000000000000000000000000000000000000000000000000000000000000000000000000000000000000000000000000000000000000000000000000000000000000",
      "type": "0x2",
      "transactionHash": "0x230fb41d2f49bea1d68ff3288045183e627841c803eee1ba77f2b5e3a7e42906",
      "transactionIndex": "0x0",
      "blockHash": "0xf503e3c6a09d100fc66246f4b8b1a74bbc297272cf827fb8839456f7bbf7b210",
      "blockNumber": "0xbf44",
      "gasUsed": "0x7118",
      "effectiveGasPrice": "0x8",
      "blobGasPrice": "0x1",
      "from": "0xf39fd6e51aad88f6f4ce6ab8827279cfffb92266",
      "to": "0xa4899d35897033b927acfcf422bc745916139776",
      "contractAddress": null,
      "blockTimestamp": 1775299741
    },
    {
      "status": "0x1",
      "cumulativeGasUsed": "0xe230",
      "logs": [],
      "logsBloom": "0x00000000000000000000000000000000000000000000000000000000000000000000000000000000000000000000000000000000000000000000000000000000000000000000000000000000000000000000000000000000000000000000000000000000000000000000000000000000000000000000000000000000000000000000000000000000000000000000000000000000000000000000000000000000000000000000000000000000000000000000000000000000000000000000000000000000000000000000000000000000000000000000000000000000000000000000000000000000000000000000000000000000000000000000000000000000",
      "type": "0x2",
      "transactionHash": "0xf515e7d38b769c465dc6baf73b0f68fd8ec19be4a2fe3c6d3bc78382bf8ff663",
      "transactionIndex": "0x1",
      "blockHash": "0xf503e3c6a09d100fc66246f4b8b1a74bbc297272cf827fb8839456f7bbf7b210",
      "blockNumber": "0xbf44",
      "gasUsed": "0x7118",
      "effectiveGasPrice": "0x8",
      "blobGasPrice": "0x1",
      "from": "0xf39fd6e51aad88f6f4ce6ab8827279cfffb92266",
      "to": "0xf953b3a269d80e3eb0f2947630da976b896a8c5b",
      "contractAddress": null,
      "blockTimestamp": 1775299741
    },
    {
      "status": "0x1",
      "cumulativeGasUsed": "0x15348",
      "logs": [],
      "logsBloom": "0x00000000000000000000000000000000000000000000000000000000000000000000000000000000000000000000000000000000000000000000000000000000000000000000000000000000000000000000000000000000000000000000000000000000000000000000000000000000000000000000000000000000000000000000000000000000000000000000000000000000000000000000000000000000000000000000000000000000000000000000000000000000000000000000000000000000000000000000000000000000000000000000000000000000000000000000000000000000000000000000000000000000000000000000000000000000",
      "type": "0x2",
      "transactionHash": "0x7ecbee01f6fe43825622f816d3f942a664fe0c85b4bc1ea8e003f7dec09095bd",
      "transactionIndex": "0x2",
      "blockHash": "0xf503e3c6a09d100fc66246f4b8b1a74bbc297272cf827fb8839456f7bbf7b210",
      "blockNumber": "0xbf44",
      "gasUsed": "0x7118",
      "effectiveGasPrice": "0x8",
      "blobGasPrice": "0x1",
      "from": "0xf39fd6e51aad88f6f4ce6ab8827279cfffb92266",
      "to": "0xaa292e8611adf267e563f334ee42320ac96d0463",
      "contractAddress": null,
      "blockTimestamp": 1775299741
    },
    {
      "status": "0x1",
      "cumulativeGasUsed": "0x1c4f8",
      "logs": [],
      "logsBloom": "0x00000000000000000000000000000000000000000000000000000000000000000000000000000000000000000000000000000000000000000000000000000000000000000000000000000000000000000000000000000000000000000000000000000000000000000000000000000000000000000000000000000000000000000000000000000000000000000000000000000000000000000000000000000000000000000000000000000000000000000000000000000000000000000000000000000000000000000000000000000000000000000000000000000000000000000000000000000000000000000000000000000000000000000000000000000000",
      "type": "0x2",
      "transactionHash": "0x3637984428670291db08ab58a5f74c33ac450b251b9fe1ded0e0a8594af6e10b",
      "transactionIndex": "0x3",
      "blockHash": "0xf503e3c6a09d100fc66246f4b8b1a74bbc297272cf827fb8839456f7bbf7b210",
      "blockNumber": "0xbf44",
      "gasUsed": "0x71b0",
      "effectiveGasPrice": "0x8",
      "blobGasPrice": "0x1",
      "from": "0xf39fd6e51aad88f6f4ce6ab8827279cfffb92266",
      "to": "0x73c68f1f41e4890d06ba3e71b9e9dfa555f1fb46",
      "contractAddress": null,
      "blockTimestamp": 1775299741
    }
  ],
  "libraries": [],
  "pending": [],
  "returns": {},
  "timestamp": 1775299391885,
  "chain": 42069,
  "commit": "449c35d"
}