{
  "transactions": [
    {
      "hash": "0x39ea5a5da777579e814007100ab63bf86d3fa290527da665196b339de7dec42b",
      "transactionType": "CALL",
      "contractName": null,
      "contractAddress": "0x5fbdb2315678afecb367f032d93f642f64180aa3",
      "function": "approve(address,uint256)",
      "arguments": [
        "0xc7cDb7A2E5dDa1B7A0E792Fe1ef08ED20A6F56D4",
        "115792089237316195423570985008687907853269984665640564039457584007913129639935"
      ],
      "transaction": {
        "from": "0xf39fd6e51aad88f6f4ce6ab8827279cfffb92266",
        "to": "0x5fbdb2315678afecb367f032d93f642f64180aa3",
        "gas": "0x9293",
        "value": "0x0",
        "input": "0x095ea7b3000000000000000000000000c7cdb7a2e5dda1b7a0e792fe1ef08ed20a6f56d4ffffffffffffffffffffffffffffffffffffffffffffffffffffffffffffffff",
        "nonce": "0xfb",
        "chainId": "0xa455"
      },
      "additionalContracts": [],
      "isFixedGasLimit": false
    },
    {
      "hash": "0xb61785e79786b19f20561c30bf06d8392e1a4bd6ceb631fc49aa7b0b64918b38",
      "transactionType": "CALL",
      "contractName": null,
      "contractAddress": "0xc7cdb7a2e5dda1b7a0e792fe1ef08ed20a6f56d4",
      "function": "createMarket(string,uint256,address)",
      "arguments": [
        "Will Bitcoin reach $150K by end of 2026?",
        "1798761599",
        "0xf39Fd6e51aad88F6F4ce6aB8827279cffFb92266"
      ],
      "transaction": {
        "from": "0xf39fd6e51aad88f6f4ce6ab8827279cfffb92266",
        "to": "0xc7cdb7a2e5dda1b7a0e792fe1ef08ed20a6f56d4",
        "gas": "0x39b84",
        "value": "0x0",
        "input": "0x576cf9d00000000000000000000000000000000000000000000000000000000000000060000000000000000000000000000000000000000000000000000000006b36ec7f000000000000000000000000f39fd6e51aad88f6f4ce6ab8827279cfffb92266000000000000000000000000000000000000000000000000000000000000002857696c6c20426974636f696e20726561636820243135304b20627920656e64206f6620323032363f000000000000000000000000000000000000000000000000",
        "nonce": "0xfc",
        "chainId": "0xa455"
      },
      "additionalContracts": [],
      "isFixedGasLimit": false
    },
    {
      "hash": "0xe7b879c1f8c102f1ced39e293a6c6787aad0368c7e4eb33222d2577afdf74395",
      "transactionType": "CALL",
      "contractName": null,
      "contractAddress": "0xc7cdb7a2e5dda1b7a0e792fe1ef08ed20a6f56d4",
      "function": "buy(uint256,bool,uint256)",
      "arguments": [
        "0",
        "true",
        "7200000000000000000000"
      ],
      "transaction": {
        "from": "0xf39fd6e51aad88f6f4ce6ab8827279cfffb92266",
        "to": "0xc7cdb7a2e5dda1b7a0e792fe1ef08ed20a6f56d4",
        "gas": "0x2f14c",
        "value": "0x0",
        "input": "0x438af9240000000000000000000000000000000000000000000000000000000000000000000000000000000000000000000000000000000000000000000000000000000100000000000000000000000000000000000000000000018650127cc3dc800000",
        "nonce": "0xfd",
        "chainId": "0xa455"
      },
      "additionalContracts": [],
      "isFixedGasLimit": false
    },
    {
      "hash": "0x41fc8b939431bf8b7d1173394b4d932fe1e0ed94b555d4e3807babef50d0d3a2",
      "transactionType": "CALL",
      "contractName": null,
      "contractAddress": "0xc7cdb7a2e5dda1b7a0e792fe1ef08ed20a6f56d4",
      "function": "buy(uint256,bool,uint256)",
      "arguments": [
        "0",
        "false",
        "2800000000000000000000"
      ],
      "transaction": {
        "from": "0xf39fd6e51aad88f6f4ce6ab8827279cfffb92266",
        "to": "0xc7cdb7a2e5dda1b7a0e792fe1ef08ed20a6f56d4",
        "gas": "0x238f0",
        "value": "0x0",
        "input": "0x438af92400000000000000000000000000000000000000000000000000000000000000000000000000000000000000000000000000000000000000000000000000000000000000000000000000000000000000000000000000000097c9ce4cf6d5c00000",
        "nonce": "0xfe",
        "chainId": "0xa455"
      },
      "additionalContracts": [],
      "isFixedGasLimit": false
    },
    {
      "hash": "0x842fb285b2e0adb036a5125ea684b7914d9e8ed81b51f4592bc2b527fb8ece13",
      "transactionType": "CALL",
      "contractName": null,
      "contractAddress": "0xc7cdb7a2e5dda1b7a0e792fe1ef08ed20a6f56d4",
      "function": "createMarket(string,uint256,address)",
      "arguments": [
        "Will Ethereum trade above $10,000 in 2026?",
        "1798761599",
        "0xf39Fd6e51aad88F6F4ce6aB8827279cffFb92266"
      ],
      "transaction": {
        "from": "0xf39fd6e51aad88f6f4ce6ab8827279cfffb92266",
        "to": "0xc7cdb7a2e5dda1b7a0e792fe1ef08ed20a6f56d4",
        "gas": "0x3704b",
        "value": "0x0",
        "input": "0x576cf9d00000000000000000000000000000000000000000000000000000000000000060000000000000000000000000000000000000000000000000000000006b36ec7f000000000000000000000000f39fd6e51aad88f6f4ce6ab8827279cfffb92266000000000000000000000000000000000000000000000000000000000000002a57696c6c20457468657265756d2074726164652061626f7665202431302c30303020696e20323032363f00000000000000000000000000000000000000000000",
        "nonce": "0xff",
        "chainId": "0xa455"
      },
      "additionalContracts": [],
      "isFixedGasLimit": false
    },
    {
      "hash": "0x292a539c0d80f1c9725546365a6f4d0461143af142b5f9c6ab6f1455e364c93a",
      "transactionType": "CALL",
      "contractName": null,
      "contractAddress": "0xc7cdb7a2e5dda1b7a0e792fe1ef08ed20a6f56d4",
      "function": "buy(uint256,bool,uint256)",
      "arguments": [
        "1",
        "true",
        "5500000000000000000000"
      ],
      "transaction": {
        "from": "0xf39fd6e51aad88f6f4ce6ab8827279cfffb92266",
        "to": "0xc7cdb7a2e5dda1b7a0e792fe1ef08ed20a6f56d4",
        "gas": "0x29519",
        "value": "0x0",
        "input": "0x438af9240000000000000000000000000000000000000000000000000000000000000001000000000000000000000000000000000000000000000000000000000000000100000000000000000000000000000000000000000000012a27d53bc048700000",
        "nonce": "0x100",
        "chainId": "0xa455"
      },
      "additionalContracts": [],
      "isFixedGasLimit": false
    },
    {
      "hash": "0xc756bc18e6267ba15874c97df803daa71a73e402b32ce94d337c3fa9cb1f6026",
      "transactionType": "CALL",
      "contractName": null,
      "contractAddress": "0xc7cdb7a2e5dda1b7a0e792fe1ef08ed20a6f56d4",
      "function": "buy(uint256,bool,uint256)",
      "arguments": [
        "1",
        "false",
        "4500000000000000000000"
      ],
      "transaction": {
        "from": "0xf39fd6e51aad88f6f4ce6ab8827279cfffb92266",
        "to": "0xc7cdb7a2e5dda1b7a0e792fe1ef08ed20a6f56d4",
        "gas": "0x25a79",
        "value": "0x0",
        "input": "0x438af924000000000000000000000000000000000000000000000000000000000000000100000000000000000000000000000000000000000000000000000000000000000000000000000000000000000000000000000000000000f3f20b8dfa69d00000",
        "nonce": "0x101",
        "chainId": "0xa455"
      },
      "additionalContracts": [],
      "isFixedGasLimit": false
    },
    {
      "hash": "0x755ff3643bd9df6e42326f59b5bb1eb647b81b5802830d9ae37645e526b229c7",
      "transactionType": "CALL",
      "contractName": null,
      "contractAddress": "0xc7cdb7a2e5dda1b7a0e792fe1ef08ed20a6f56d4",
      "function": "createMarket(string,uint256,address)",
      "arguments": [
        "Will GoodDollar reach 1M daily claimers by 2027?",
        "1830297599",
        "0xf39Fd6e51aad88F6F4ce6aB8827279cffFb92266"
      ],
      "transaction": {
        "from": "0xf39fd6e51aad88f6f4ce6ab8827279cfffb92266",
        "to": "0xc7cdb7a2e5dda1b7a0e792fe1ef08ed20a6f56d4",
        "gas": "0x370b4",
        "value": "0x0",
        "input": "0x576cf9d00000000000000000000000000000000000000000000000000000000000000060000000000000000000000000000000000000000000000000000000006d181fff000000000000000000000000f39fd6e51aad88f6f4ce6ab8827279cfffb92266000000000000000000000000000000000000000000000000000000000000003057696c6c20476f6f64446f6c6c617220726561636820314d206461696c7920636c61696d65727320627920323032373f00000000000000000000000000000000",
        "nonce": "0x102",
        "chainId": "0xa455"
      },
      "additionalContracts": [],
      "isFixedGasLimit": false
    },
    {
      "hash": "0x5894c1021307f56ad6210da2eb2a663f2288f5f59f0a378bf56a2682f69bfcc6",
      "transactionType": "CALL",
      "contractName": null,
      "contractAddress": "0xc7cdb7a2e5dda1b7a0e792fe1ef08ed20a6f56d4",
      "function": "buy(uint256,bool,uint256)",
      "arguments": [
        "2",
        "true",
        "3500000000000000000000"
      ],
      "transaction": {
        "from": "0xf39fd6e51aad88f6f4ce6ab8827279cfffb92266",
        "to": "0xc7cdb7a2e5dda1b7a0e792fe1ef08ed20a6f56d4",
        "gas": "0x29508",
        "value": "0x0",
        "input": "0x438af924000000000000000000000000000000000000000000000000000000000000000200000000000000000000000000000000000000000000000000000000000000010000000000000000000000000000000000000000000000bdbc41e0348b300000",
        "nonce": "0x103",
        "chainId": "0xa455"
      },
      "additionalContracts": [],
      "isFixedGasLimit": false
    },
    {
      "hash": "0x4ba3e263bfbaa8c8dadbb5312a5bfe3a5d11a729e645db3a923d14cf81ca5ec3",
      "transactionType": "CALL",
      "contractName": null,
      "contractAddress": "0xc7cdb7a2e5dda1b7a0e792fe1ef08ed20a6f56d4",
      "function": "buy(uint256,bool,uint256)",
      "arguments": [
        "2",
        "false",
        "6500000000000000000000"
      ],
      "transaction": {
        "from": "0xf39fd6e51aad88f6f4ce6ab8827279cfffb92266",
        "to": "0xc7cdb7a2e5dda1b7a0e792fe1ef08ed20a6f56d4",
        "gas": "0x23910",
        "value": "0x0",
        "input": "0x438af924000000000000000000000000000000000000000000000000000000000000000200000000000000000000000000000000000000000000000000000000000000000000000000000000000000000000000000000000000001605d9ee98627100000",
        "nonce": "0x104",
        "chainId": "0xa455"
      },
      "additionalContracts": [],
      "isFixedGasLimit": false
    },
    {
      "hash": "0x902bb164031076557b8e11adfb1e60ba36b40921e163281980eeb2838cc535e8",
      "transactionType": "CALL",
      "contractName": null,
      "contractAddress": "0xc7cdb7a2e5dda1b7a0e792fe1ef08ed20a6f56d4",
      "function": "createMarket(string,uint256,address)",
      "arguments": [
        "Will the Fed Funds rate be below 3% by Dec 2026?",
        "1798761599",
        "0xf39Fd6e51aad88F6F4ce6aB8827279cffFb92266"
      ],
      "transaction": {
        "from": "0xf39fd6e51aad88f6f4ce6ab8827279cfffb92266",
        "to": "0xc7cdb7a2e5dda1b7a0e792fe1ef08ed20a6f56d4",
        "gas": "0x370b4",
        "value": "0x0",
        "input": "0x576cf9d00000000000000000000000000000000000000000000000000000000000000060000000000000000000000000000000000000000000000000000000006b36ec7f000000000000000000000000f39fd6e51aad88f6f4ce6ab8827279cfffb92266000000000000000000000000000000000000000000000000000000000000003057696c6c20746865204665642046756e647320726174652062652062656c6f772033252062792044656320323032363f00000000000000000000000000000000",
        "nonce": "0x105",
        "chainId": "0xa455"
      },
      "additionalContracts": [],
      "isFixedGasLimit": false
    },
    {
      "hash": "0x4cdbc5eb81f5b3441b8e8789868d64e0c4950da5e99ce1665da5d8c9413a7910",
      "transactionType": "CALL",
      "contractName": null,
      "contractAddress": "0xc7cdb7a2e5dda1b7a0e792fe1ef08ed20a6f56d4",
      "function": "buy(uint256,bool,uint256)",
      "arguments": [
        "3",
        "true",
        "4200000000000000000000"
      ],
      "transaction": {
        "from": "0xf39fd6e51aad88f6f4ce6ab8827279cfffb92266",
        "to": "0xc7cdb7a2e5dda1b7a0e792fe1ef08ed20a6f56d4",
        "gas": "0x29508",
        "value": "0x0",
        "input": "0x438af924000000000000000000000000000000000000000000000000000000000000000300000000000000000000000000000000000000000000000000000000000000010000000000000000000000000000000000000000000000e3aeb5737240a00000",
        "nonce": "0x106",
        "chainId": "0xa455"
      },
      "additionalContracts": [],
      "isFixedGasLimit": false
    },
    {
      "hash": "0x1f82fa4079e9ef63812363660aaab7740b049f7311f15fb4d33b7f0764219a74",
      "transactionType": "CALL",
      "contractName": null,
      "contractAddress": "0xc7cdb7a2e5dda1b7a0e792fe1ef08ed20a6f56d4",
      "function": "buy(uint256,bool,uint256)",
      "arguments": [
        "3",
        "false",
        "5800000000000000000000"
      ],
      "transaction": {
        "from": "0xf39fd6e51aad88f6f4ce6ab8827279cfffb92266",
        "to": "0xc7cdb7a2e5dda1b7a0e792fe1ef08ed20a6f56d4",
        "gas": "0x23910",
        "value": "0x0",
        "input": "0x438af9240000000000000000000000000000000000000000000000000000000000000003000000000000000000000000000000000000000000000000000000000000000000000000000000000000000000000000000000000000013a6b2b564871a00000",
        "nonce": "0x107",
        "chainId": "0xa455"
      },
      "additionalContracts": [],
      "isFixedGasLimit": false
    },
    {
      "hash": "0xc6ad64a3179468965484ec77f202e3175862ffc3465e48a40623748ef7f25071",
      "transactionType": "CALL",
      "contractName": null,
      "contractAddress": "0xc7cdb7a2e5dda1b7a0e792fe1ef08ed20a6f56d4",
      "function": "createMarket(string,uint256,address)",
      "arguments": [
        "Will AGI be achieved by 2030?",
        "1924991999",
        "0xf39Fd6e51aad88F6F4ce6aB8827279cffFb92266"
      ],
      "transaction": {
        "from": "0xf39fd6e51aad88f6f4ce6ab8827279cfffb92266",
        "to": "0xc7cdb7a2e5dda1b7a0e792fe1ef08ed20a6f56d4",
        "gas": "0x26f5c",
        "value": "0x0",
        "input": "0x576cf9d000000000000000000000000000000000000000000000000000000000000000600000000000000000000000000000000000000000000000000000000072bd0bff000000000000000000000000f39fd6e51aad88f6f4ce6ab8827279cfffb92266000000000000000000000000000000000000000000000000000000000000001d57696c6c2041474920626520616368696576656420627920323033303f000000",
        "nonce": "0x108",
        "chainId": "0xa455"
      },
      "additionalContracts": [],
      "isFixedGasLimit": false
    },
    {
      "hash": "0xe342dbcf5ae7ae29ef5413f8a979bb16ad21a045036d74518661f9dcbc429ee1",
      "transactionType": "CALL",
      "contractName": null,
      "contractAddress": "0xc7cdb7a2e5dda1b7a0e792fe1ef08ed20a6f56d4",
      "function": "buy(uint256,bool,uint256)",
      "arguments": [
        "4",
        "true",
        "1800000000000000000000"
      ],
      "transaction": {
        "from": "0xf39fd6e51aad88f6f4ce6ab8827279cfffb92266",
        "to": "0xc7cdb7a2e5dda1b7a0e792fe1ef08ed20a6f56d4",
        "gas": "0x29508",
        "value": "0x0",
        "input": "0x438af9240000000000000000000000000000000000000000000000000000000000000004000000000000000000000000000000000000000000000000000000000000000100000000000000000000000000000000000000000000006194049f30f7200000",
        "nonce": "0x109",
        "chainId": "0xa455"
      },
      "additionalContracts": [],
      "isFixedGasLimit": false
    },
    {
      "hash": "0xa3f71649e35ddb6e3e5916745363f8393e4ad6b056a55be1470b6695998ceff1",
      "transactionType": "CALL",
      "contractName": null,
      "contractAddress": "0xc7cdb7a2e5dda1b7a0e792fe1ef08ed20a6f56d4",
      "function": "buy(uint256,bool,uint256)",
      "arguments": [
        "4",
        "false",
        "8200000000000000000000"
      ],
      "transaction": {
        "from": "0xf39fd6e51aad88f6f4ce6ab8827279cfffb92266",
        "to": "0xc7cdb7a2e5dda1b7a0e792fe1ef08ed20a6f56d4",
        "gas": "0x23910",
        "value": "0x0",
        "input": "0x438af924000000000000000000000000000000000000000000000000000000000000000400000000000000000000000000000000000000000000000000000000000000000000000000000000000000000000000000000000000001bc85dc2a89bb200000",
        "nonce": "0x10a",
        "chainId": "0xa455"
      },
      "additionalContracts": [],
      "isFixedGasLimit": false
    },
    {
      "hash": "0xcc33a3c3bce9e6e45d4600876de65211a79001c26d29278645e3fae9f241d61e",
      "transactionType": "CALL",
      "contractName": null,
      "contractAddress": "0xc7cdb7a2e5dda1b7a0e792fe1ef08ed20a6f56d4",
      "function": "createMarket(string,uint256,address)",
      "arguments": [
        "Will eToro (ETOR) trade above $100 by end of 2026?",
        "1798761599",
        "0xf39Fd6e51aad88F6F4ce6aB8827279cffFb92266"
      ],
      "transaction": {
        "from": "0xf39fd6e51aad88f6f4ce6ab8827279cfffb92266",
        "to": "0xc7cdb7a2e5dda1b7a0e792fe1ef08ed20a6f56d4",
        "gas": "0x370d7",
        "value": "0x0",
        "input": "0x576cf9d00000000000000000000000000000000000000000000000000000000000000060000000000000000000000000000000000000000000000000000000006b36ec7f000000000000000000000000f39fd6e51aad88f6f4ce6ab8827279cfffb92266000000000000000000000000000000000000000000000000000000000000003257696c6c2065546f726f202845544f52292074726164652061626f7665202431303020627920656e64206f6620323032363f0000000000000000000000000000",
        "nonce": "0x10b",
        "chainId": "0xa455"
      },
      "additionalContracts": [],
      "isFixedGasLimit": false
    },
    {
      "hash": "0x619d14f05ede8e5aced573fcd995d97c907386d4bed90d687b588a770b038d0b",
      "transactionType": "CALL",
      "contractName": null,
      "contractAddress": "0xc7cdb7a2e5dda1b7a0e792fe1ef08ed20a6f56d4",
      "function": "buy(uint256,bool,uint256)",
      "arguments": [
        "5",
        "true",
        "6000000000000000000000"
      ],
      "transaction": {
        "from": "0xf39fd6e51aad88f6f4ce6ab8827279cfffb92266",
        "to": "0xc7cdb7a2e5dda1b7a0e792fe1ef08ed20a6f56d4",
        "gas": "0x29519",
        "value": "0x0",
        "input": "0x438af9240000000000000000000000000000000000000000000000000000000000000005000000000000000000000000000000000000000000000000000000000000000100000000000000000000000000000000000000000000014542ba12a337c00000",
        "nonce": "0x10c",
        "chainId": "0xa455"
      },
      "additionalContracts": [],
      "isFixedGasLimit": false
    },
    {
      "hash": "0x1793cd5a85cce0f2ff1f37963ef7ed0a0fc3e06dda2b4861377554c242a317be",
      "transactionType": "CALL",
      "contractName": null,
      "contractAddress": "0xc7cdb7a2e5dda1b7a0e792fe1ef08ed20a6f56d4",
      "function": "buy(uint256,bool,uint256)",
      "arguments": [
        "5",
        "false",
        "4000000000000000000000"
      ],
      "transaction": {
        "from": "0xf39fd6e51aad88f6f4ce6ab8827279cfffb92266",
        "to": "0xc7cdb7a2e5dda1b7a0e792fe1ef08ed20a6f56d4",
        "gas": "0x25a79",
        "value": "0x0",
        "input": "0x438af924000000000000000000000000000000000000000000000000000000000000000500000000000000000000000000000000000000000000000000000000000000000000000000000000000000000000000000000000000000d8d726b7177a800000",
        "nonce": "0x10d",
        "chainId": "0xa455"
      },
      "additionalContracts": [],
      "isFixedGasLimit": false
    },
    {
      "hash": "0xf50fecbe68366c9771c6f8188d8837f45994f9d98169b25699369bfaeef76ac0",
      "transactionType": "CALL",
      "contractName": null,
      "contractAddress": "0xc7cdb7a2e5dda1b7a0e792fe1ef08ed20a6f56d4",
      "function": "createMarket(string,uint256,address)",
      "arguments": [
        "Will an AI trading agent manage over $1B AUM by 2027?",
        "1830297599",
        "0xf39Fd6e51aad88F6F4ce6aB8827279cffFb92266"
      ],
      "transaction": {
        "from": "0xf39fd6e51aad88f6f4ce6ab8827279cfffb92266",
        "to": "0xc7cdb7a2e5dda1b7a0e792fe1ef08ed20a6f56d4",
        "gas": "0x34018",
        "value": "0x0",
        "input": "0x576cf9d00000000000000000000000000000000000000000000000000000000000000060000000000000000000000000000000000000000000000000000000006d181fff000000000000000000000000f39fd6e51aad88f6f4ce6ab8827279cfffb92266000000000000000000000000000000000000000000000000000000000000003557696c6c20616e2041492074726164696e67206167656e74206d616e616765206f766572202431422041554d20627920323032373f0000000000000000000000",
        "nonce": "0x10e",
        "chainId": "0xa455"
      },
      "additionalContracts": [],
      "isFixedGasLimit": false
    },
    {
      "hash": "0xdf6c1e57bebc817c3ac557fb04bffdce8e37cb0a77339928e5e1e0f0206d20f5",
      "transactionType": "CALL",
      "contractName": null,
      "contractAddress": "0xc7cdb7a2e5dda1b7a0e792fe1ef08ed20a6f56d4",
      "function": "buy(uint256,bool,uint256)",
      "arguments": [
        "6",
        "true",
        "2500000000000000000000"
      ],
      "transaction": {
        "from": "0xf39fd6e51aad88f6f4ce6ab8827279cfffb92266",
        "to": "0xc7cdb7a2e5dda1b7a0e792fe1ef08ed20a6f56d4",
        "gas": "0x29508",
        "value": "0x0",
        "input": "0x438af924000000000000000000000000000000000000000000000000000000000000000600000000000000000000000000000000000000000000000000000000000000010000000000000000000000000000000000000000000000878678326eac900000",
        "nonce": "0x10f",
        "chainId": "0xa455"
      },
      "additionalContracts": [],
      "isFixedGasLimit": false
    },
    {
      "hash": "0x4b434d040529dea415b1be0c1ae78daf1a0a690a60e336ba926b0dac0825725b",
      "transactionType": "CALL",
      "contractName": null,
      "contractAddress": "0xc7cdb7a2e5dda1b7a0e792fe1ef08ed20a6f56d4",
      "function": "buy(uint256,bool,uint256)",
      "arguments": [
        "6",
        "false",
        "7500000000000000000000"
      ],
      "transaction": {
        "from": "0xf39fd6e51aad88f6f4ce6ab8827279cfffb92266",
        "to": "0xc7cdb7a2e5dda1b7a0e792fe1ef08ed20a6f56d4",
        "gas": "0x23910",
        "value": "0x0",
        "input": "0x438af924000000000000000000000000000000000000000000000000000000000000000600000000000000000000000000000000000000000000000000000000000000000000000000000000000000000000000000000000000001969368974c05b00000",
        "nonce": "0x110",
        "chainId": "0xa455"
      },
      "additionalContracts": [],
      "isFixedGasLimit": false
    },
    {
      "hash": "0x06542d3ab3e9b714ed346c8ca9f20fac7145bb063a38adb94866d8938faa815e",
      "transactionType": "CALL",
      "contractName": null,
      "contractAddress": "0xc7cdb7a2e5dda1b7a0e792fe1ef08ed20a6f56d4",
      "function": "createMarket(string,uint256,address)",
      "arguments": [
        "Will SpaceX launch a crewed Mars mission by 2030?",
        "1924991999",
        "0xf39Fd6e51aad88F6F4ce6aB8827279cffFb92266"
      ],
      "transaction": {
        "from": "0xf39fd6e51aad88f6f4ce6ab8827279cfffb92266",
        "to": "0xc7cdb7a2e5dda1b7a0e792fe1ef08ed20a6f56d4",
        "gas": "0x33fd6",
        "value": "0x0",
        "input": "0x576cf9d000000000000000000000000000000000000000000000000000000000000000600000000000000000000000000000000000000000000000000000000072bd0bff000000000000000000000000f39fd6e51aad88f6f4ce6ab8827279cfffb92266000000000000000000000000000000000000000000000000000000000000003157696c6c20537061636558206c61756e6368206120637265776564204d617273206d697373696f6e20627920323033303f000000000000000000000000000000",
        "nonce": "0x111",
        "chainId": "0xa455"
      },
      "additionalContracts": [],
      "isFixedGasLimit": false
    },
    {
      "hash": "0x865233fd3dc97948e0ba6f691cd3214a0e98fc92ba386bc6d74d3c96a90420df",
      "transactionType": "CALL",
      "contractName": null,
      "contractAddress": "0xc7cdb7a2e5dda1b7a0e792fe1ef08ed20a6f56d4",
      "function": "buy(uint256,bool,uint256)",
      "arguments": [
        "7",
        "true",
        "1200000000000000000000"
      ],
      "transaction": {
        "from": "0xf39fd6e51aad88f6f4ce6ab8827279cfffb92266",
        "to": "0xc7cdb7a2e5dda1b7a0e792fe1ef08ed20a6f56d4",
        "gas": "0x29508",
        "value": "0x0",
        "input": "0x438af924000000000000000000000000000000000000000000000000000000000000000700000000000000000000000000000000000000000000000000000000000000010000000000000000000000000000000000000000000000410d586a20a4c00000",
        "nonce": "0x112",
        "chainId": "0xa455"
      },
      "additionalContracts": [],
      "isFixedGasLimit": false
    },
    {
      "hash": "0x1762bbc8796397736609bf379633ae0d75a480263fd784e200c8aaf23823a7c1",
      "transactionType": "CALL",
      "contractName": null,
      "contractAddress": "0xc7cdb7a2e5dda1b7a0e792fe1ef08ed20a6f56d4",
      "function": "buy(uint256,bool,uint256)",
      "arguments": [
        "7",
        "false",
        "8800000000000000000000"
      ],
      "transaction": {
        "from": "0xf39fd6e51aad88f6f4ce6ab8827279cfffb92266",
        "to": "0xc7cdb7a2e5dda1b7a0e792fe1ef08ed20a6f56d4",
        "gas": "0x23910",
        "value": "0x0",
        "input": "0x438af924000000000000000000000000000000000000000000000000000000000000000700000000000000000000000000000000000000000000000000000000000000000000000000000000000000000000000000000000000001dd0c885f9a0d800000",
        "nonce": "0x113",
        "chainId": "0xa455"
      },
      "additionalContracts": [],
      "isFixedGasLimit": false
    },
    {
      "hash": "0xaa0072e6890433ea7b19347a90b2c017b2c0dafeba2331f2b69373e9fed4d6e4",
      "transactionType": "CALL",
      "contractName": null,
      "contractAddress": "0xc7cdb7a2e5dda1b7a0e792fe1ef08ed20a6f56d4",
      "function": "createMarket(string,uint256,address)",
      "arguments": [
        "Will the US pass comprehensive stablecoin legislation in 2026?",
        "1798761599",
        "0xf39Fd6e51aad88F6F4ce6aB8827279cffFb92266"
      ],
      "transaction": {
        "from": "0xf39fd6e51aad88f6f4ce6ab8827279cfffb92266",
        "to": "0xc7cdb7a2e5dda1b7a0e792fe1ef08ed20a6f56d4",
        "gas": "0x371aa",
        "value": "0x0",
        "input": "0x576cf9d00000000000000000000000000000000000000000000000000000000000000060000000000000000000000000000000000000000000000000000000006b36ec7f000000000000000000000000f39fd6e51aad88f6f4ce6ab8827279cfffb92266000000000000000000000000000000000000000000000000000000000000003e57696c6c20746865205553207061737320636f6d70726568656e7369766520737461626c65636f696e206c656769736c6174696f6e20696e20323032363f0000",
        "nonce": "0x114",
        "chainId": "0xa455"
      },
      "additionalContracts": [],
      "isFixedGasLimit": false
    },
    {
      "hash": "0x651b558b146c9fa5a0aa06430a0777cff6a9dd42a9dcbd899badbf582f6bbecd",
      "transactionType": "CALL",
      "contractName": null,
      "contractAddress": "0xc7cdb7a2e5dda1b7a0e792fe1ef08ed20a6f56d4",
      "function": "buy(uint256,bool,uint256)",
      "arguments": [
        "8",
        "true",
        "6800000000000000000000"
      ],
      "transaction": {
        "from": "0xf39fd6e51aad88f6f4ce6ab8827279cfffb92266",
        "to": "0xc7cdb7a2e5dda1b7a0e792fe1ef08ed20a6f56d4",
        "gas": "0x29519",
        "value": "0x0",
        "input": "0x438af92400000000000000000000000000000000000000000000000000000000000000080000000000000000000000000000000000000000000000000000000000000001000000000000000000000000000000000000000000000170a0f5040e50400000",
        "nonce": "0x115",
        "chainId": "0xa455"
      },
      "additionalContracts": [],
      "isFixedGasLimit": false
    },
    {
      "hash": "0xaf20b5d939fece37308f2941b0f0ae3ab030fa0249b792fc3223cba3458bb2be",
      "transactionType": "CALL",
      "contractName": null,
      "contractAddress": "0xc7cdb7a2e5dda1b7a0e792fe1ef08ed20a6f56d4",
      "function": "buy(uint256,bool,uint256)",
      "arguments": [
        "8",
        "false",
        "3200000000000000000000"
      ],
      "transaction": {
        "from": "0xf39fd6e51aad88f6f4ce6ab8827279cfffb92266",
        "to": "0xc7cdb7a2e5dda1b7a0e792fe1ef08ed20a6f56d4",
        "gas": "0x238f0",
        "value": "0x0",
        "input": "0x438af924000000000000000000000000000000000000000000000000000000000000000800000000000000000000000000000000000000000000000000000000000000000000000000000000000000000000000000000000000000ad78ebc5ac62000000",
        "nonce": "0x116",
        "chainId": "0xa455"
      },
      "additionalContracts": [],
      "isFixedGasLimit": false
    },
    {
      "hash": "0xa36412343c4634586dfca7d0dca1125e0ea04f8c71e99b5cdb6bc45744c3c8b7",
      "transactionType": "CALL",
      "contractName": null,
      "contractAddress": "0xc7cdb7a2e5dda1b7a0e792fe1ef08ed20a6f56d4",
      "function": "createMarket(string,uint256,address)",
      "arguments": [
        "Will NVIDIA surpass $5 trillion market cap in 2026?",
        "1798761599",
        "0xf39Fd6e51aad88F6F4ce6aB8827279cffFb92266"
      ],
      "transaction": {
        "from": "0xf39fd6e51aad88f6f4ce6ab8827279cfffb92266",
        "to": "0xc7cdb7a2e5dda1b7a0e792fe1ef08ed20a6f56d4",
        "gas": "0x33ff8",
        "value": "0x0",
        "input": "0x576cf9d00000000000000000000000000000000000000000000000000000000000000060000000000000000000000000000000000000000000000000000000006b36ec7f000000000000000000000000f39fd6e51aad88f6f4ce6ab8827279cfffb92266000000000000000000000000000000000000000000000000000000000000003357696c6c204e56494449412073757270617373202435207472696c6c696f6e206d61726b65742063617020696e20323032363f00000000000000000000000000",
        "nonce": "0x117",
        "chainId": "0xa455"
      },
      "additionalContracts": [],
      "isFixedGasLimit": false
    },
    {
      "hash": "0x8f75582b6705231e13973243ab5e1c6a8f842fc2c4da370e3a214e91d3532fb1",
      "transactionType": "CALL",
      "contractName": null,
      "contractAddress": "0xc7cdb7a2e5dda1b7a0e792fe1ef08ed20a6f56d4",
      "function": "buy(uint256,bool,uint256)",
      "arguments": [
        "9",
        "true",
        "4500000000000000000000"
      ],
      "transaction": {
        "from": "0xf39fd6e51aad88f6f4ce6ab8827279cfffb92266",
        "to": "0xc7cdb7a2e5dda1b7a0e792fe1ef08ed20a6f56d4",
        "gas": "0x29508",
        "value": "0x0",
        "input": "0x438af924000000000000000000000000000000000000000000000000000000000000000900000000000000000000000000000000000000000000000000000000000000010000000000000000000000000000000000000000000000f3f20b8dfa69d00000",
        "nonce": "0x118",
        "chainId": "0xa455"
      },
      "additionalContracts": [],
      "isFixedGasLimit": false
    },
    {
      "hash": "0x44a6b393019b9ad8e3a892076d333737f0c1c009dd284cde8bbde6dcf30d86d2",
      "transactionType": "CALL",
      "contractName": null,
      "contractAddress": "0xc7cdb7a2e5dda1b7a0e792fe1ef08ed20a6f56d4",
      "function": "buy(uint256,bool,uint256)",
      "arguments": [
        "9",
        "false",
        "5500000000000000000000"
      ],
      "transaction": {
        "from": "0xf39fd6e51aad88f6f4ce6ab8827279cfffb92266",
        "to": "0xc7cdb7a2e5dda1b7a0e792fe1ef08ed20a6f56d4",
        "gas": "0x23910",
        "value": "0x0",
        "input": "0x438af9240000000000000000000000000000000000000000000000000000000000000009000000000000000000000000000000000000000000000000000000000000000000000000000000000000000000000000000000000000012a27d53bc048700000",
        "nonce": "0x119",
        "chainId": "0xa455"
      },
      "additionalContracts": [],
      "isFixedGasLimit": false
    }
  ],
  "receipts": [
    {
      "status": "0x1",
      "cumulativeGasUsed": "0x6a1f",
      "logs": [
        {
          "address": "0x5fbdb2315678afecb367f032d93f642f64180aa3",
          "topics": [
            "0x8c5be1e5ebec7d5bd14f71427d1e84f3dd0314c0f7b2291e5b200ac8c7c3b925",
            "0x000000000000000000000000f39fd6e51aad88f6f4ce6ab8827279cfffb92266",
            "0x000000000000000000000000c7cdb7a2e5dda1b7a0e792fe1ef08ed20a6f56d4"
          ],
          "data": "0xffffffffffffffffffffffffffffffffffffffffffffffffffffffffffffffff",
          "blockHash": "0x77a1c2cf7c9c6f068514df26ec12de368ce969aa99b010082d60faffec781a82",
          "blockNumber": "0x63f7",
          "blockTimestamp": "0x69d0363d",
          "transactionHash": "0x39ea5a5da777579e814007100ab63bf86d3fa290527da665196b339de7dec42b",
          "transactionIndex": "0x0",
          "logIndex": "0x0",
          "removed": false
        }
      ],
      "logsBloom": "0x00000000000000000000000000000000000000000000000000000000000000000000000000000000000000000000000080000000000000000000000000200000000000000000000000000000000000000000000000000000000000000000000000000040000000000000000100000000000000000000000000000000000000000000000000000000000000000000000040000000000000000000000200000000020000000000000000000000000000000000000000000000000000000000000000000040000000200000000000000000000000002000000000000000000000000010000000000000000000000000000100000000000000000000000000000000",
      "type": "0x2",
      "transactionHash": "0x39ea5a5da777579e814007100ab63bf86d3fa290527da665196b339de7dec42b",
      "transactionIndex": "0x0",
      "blockHash": "0x77a1c2cf7c9c6f068514df26ec12de368ce969aa99b010082d60faffec781a82",
      "blockNumber": "0x63f7",
      "gasUsed": "0x6a1f",
      "effectiveGasPrice": "0x8",
      "blobGasPrice": "0x1",
      "from": "0xf39fd6e51aad88f6f4ce6ab8827279cfffb92266",
      "to": "0x5fbdb2315678afecb367f032d93f642f64180aa3",
      "contractAddress": null,
      "blockTimestamp": 1775253053
    },
    {
      "status": "0x1",
      "cumulativeGasUsed": "0x306bc",
      "logs": [
        {
          "address": "0xc7cdb7a2e5dda1b7a0e792fe1ef08ed20a6f56d4",
          "topics": [
            "0x57d0d124b72f81ed1da0dc728fc33db342705974792928796f6577b8db5c3d53",
            "0x0000000000000000000000000000000000000000000000000000000000000000"
          ],
          "data": "0x0000000000000000000000000000000000000000000000000000000000000060000000000000000000000000000000000000000000000000000000006b36ec7f000000000000000000000000f39fd6e51aad88f6f4ce6ab8827279cfffb92266000000000000000000000000000000000000000000000000000000000000002857696c6c20426974636f696e20726561636820243135304b20627920656e64206f6620323032363f000000000000000000000000000000000000000000000000",
          "blockHash": "0x77a1c2cf7c9c6f068514df26ec12de368ce969aa99b010082d60faffec781a82",
          "blockNumber": "0x63f7",
          "blockTimestamp": "0x69d0363d",
          "transactionHash": "0xb61785e79786b19f20561c30bf06d8392e1a4bd6ceb631fc49aa7b0b64918b38",
          "transactionIndex": "0x1",
          "logIndex": "0x1",
          "removed": false
        }
      ],
      "logsBloom": "0x00000000000000000000000000000000000000000000000000000000000000000000000000000000000000000000000000000000000000000000000000000000000000000000000000000000000000000000000000000000000000000000000000000000020000000000000000000800000000000000000000000000000000000000000000000000800080000000000000000000000000000000000000000000000000000000000000000000000000000001000000000000000000000000000000000000000000000000000000000000000000000000040000000000000020000004000000000000000000000000000000000000000001000000000000000000",
      "type": "0x2",
      "transactionHash": "0xb61785e79786b19f20561c30bf06d8392e1a4bd6ceb631fc49aa7b0b64918b38",
      "transactionIndex": "0x1",
      "blockHash": "0x77a1c2cf7c9c6f068514df26ec12de368ce969aa99b010082d60faffec781a82",
      "blockNumber": "0x63f7",
      "gasUsed": "0x29c9d",
      "effectiveGasPrice": "0x8",
      "blobGasPrice": "0x1",
      "from": "0xf39fd6e51aad88f6f4ce6ab8827279cfffb92266",
      "to": "0xc7cdb7a2e5dda1b7a0e792fe1ef08ed20a6f56d4",
      "contractAddress": null,
      "blockTimestamp": 1775253053
    },
    {
      "status": "0x1",
      "cumulativeGasUsed": "0x5281c",
      "logs": [
        {
          "address": "0x5fbdb2315678afecb367f032d93f642f64180aa3",
          "topics": [
            "0xddf252ad1be2c89b69c2b068fc378daa952ba7f163c4a11628f55a4df523b3ef",
            "0x000000000000000000000000f39fd6e51aad88f6f4ce6ab8827279cfffb92266",
            "0x000000000000000000000000c7cdb7a2e5dda1b7a0e792fe1ef08ed20a6f56d4"
          ],
          "data": "0x00000000000000000000000000000000000000000000018650127cc3dc800000",
          "blockHash": "0x77a1c2cf7c9c6f068514df26ec12de368ce969aa99b010082d60faffec781a82",
          "blockNumber": "0x63f7",
          "blockTimestamp": "0x69d0363d",
          "transactionHash": "0x4ba3e263bfbaa8c8dadbb5312a5bfe3a5d11a729e645db3a923d14cf81ca5ec3",
          "transactionIndex": "0x2",
          "logIndex": "0x2",
          "removed": false
        },
        {
          "address": "0x28f057dc79e3cb77b2bbf4358d7a690cfe21b2d5",
          "topics": [
            "0xc3d58168c5ae7397731d063d5bbf3d657854427343f4c083240f7aacaa2d0f62",
            "0x000000000000000000000000c7cdb7a2e5dda1b7a0e792fe1ef08ed20a6f56d4",
            "0x0000000000000000000000000000000000000000000000000000000000000000",
            "0x000000000000000000000000f39fd6e51aad88f6f4ce6ab8827279cfffb92266"
          ],
          "data": "0x000000000000000000000000000000000000000000000000000000000000000000000000000000000000000000000000000000000000018650127cc3dc800000",
          "blockHash": "0x77a1c2cf7c9c6f068514df26ec12de368ce969aa99b010082d60faffec781a82",
          "blockNumber": "0x63f7",
          "blockTimestamp": "0x69d0363d",
          "transactionHash": "0x4ba3e263bfbaa8c8dadbb5312a5bfe3a5d11a729e645db3a923d14cf81ca5ec3",
          "transactionIndex": "0x2",
          "logIndex": "0x3",
          "removed": false
        },
        {
          "address": "0xc7cdb7a2e5dda1b7a0e792fe1ef08ed20a6f56d4",
          "topics": [
            "0x94b749af8a24a9e71a160cea1a268a96ec3299200f809d63344a0f668c0f0349",
            "0x0000000000000000000000000000000000000000000000000000000000000000",
            "0x000000000000000000000000f39fd6e51aad88f6f4ce6ab8827279cfffb92266"
          ],
          "data": "0x000000000000000000000000000000000000000000000000000000000000000100000000000000000000000000000000000000000000018650127cc3dc80000000000000000000000000000000000000000000000000018650127cc3dc800000",
          "blockHash": "0x77a1c2cf7c9c6f068514df26ec12de368ce969aa99b010082d60faffec781a82",
          "blockNumber": "0x63f7",
          "blockTimestamp": "0x69d0363d",
          "transactionHash": "0x4ba3e263bfbaa8c8dadbb5312a5bfe3a5d11a729e645db3a923d14cf81ca5ec3",
          "transactionIndex": "0x2",
          "logIndex": "0x4",
          "removed": false
        }
      ],
      "logsBloom": "0x00000000000000000000000000000000000000000000000000000000000000000000000000000000000000000000000080000000000000000000000000002000000000000000000000000008000000000000000000000000000000000000000000000040020200000002000500000800000000000000000000000010000000000000000000000000000000000000000040000000000000000000000200000000000000000000000000000000000000000001000000000000000000000000000000000042000000200000000010000000000000002018040000000000000020000000000000000000000000000000000100000000000001000000080000000000",
      "type": "0x2",
      "transactionHash": "0x4ba3e263bfbaa8c8dadbb5312a5bfe3a5d11a729e645db3a923d14cf81ca5ec3",
      "transactionIndex": "0x2",
      "blockHash": "0x77a1c2cf7c9c6f068514df26ec12de368ce969aa99b010082d60faffec781a82",
      "blockNumber": "0x63f7",
      "gasUsed": "0x22160",
      "effectiveGasPrice": "0x8",
      "blobGasPrice": "0x1",
      "from": "0xf39fd6e51aad88f6f4ce6ab8827279cfffb92266",
      "to": "0xc7cdb7a2e5dda1b7a0e792fe1ef08ed20a6f56d4",
      "contractAddress": null,
      "blockTimestamp": 1775253053
    },
    {
      "status": "0x1",
      "cumulativeGasUsed": "0x6c403",
      "logs": [
        {
          "address": "0x5fbdb2315678afecb367f032d93f642f64180aa3",
          "topics": [
            "0xddf252ad1be2c89b69c2b068fc378daa952ba7f163c4a11628f55a4df523b3ef",
            "0x000000000000000000000000f39fd6e51aad88f6f4ce6ab8827279cfffb92266",
            "0x000000000000000000000000c7cdb7a2e5dda1b7a0e792fe1ef08ed20a6f56d4"
          ],
          "data": "0x000000000000000000000000000000000000000000000097c9ce4cf6d5c00000",
          "blockHash": "0x77a1c2cf7c9c6f068514df26ec12de368ce969aa99b010082d60faffec781a82",
          "blockNumber": "0x63f7",
          "blockTimestamp": "0x69d0363d",
          "transactionHash": "0x1793cd5a85cce0f2ff1f37963ef7ed0a0fc3e06dda2b4861377554c242a317be",
          "transactionIndex": "0x3",
          "logIndex": "0x5",
          "removed": false
        },
        {
          "address": "0x28f057dc79e3cb77b2bbf4358d7a690cfe21b2d5",
          "topics": [
            "0xc3d58168c5ae7397731d063d5bbf3d657854427343f4c083240f7aacaa2d0f62",
            "0x000000000000000000000000c7cdb7a2e5dda1b7a0e792fe1ef08ed20a6f56d4",
            "0x0000000000000000000000000000000000000000000000000000000000000000",
            "0x000000000000000000000000f39fd6e51aad88f6f4ce6ab8827279cfffb92266"
          ],
          "data": "0x0000000000000000000000000000000000000000000000000000000000000001000000000000000000000000000000000000000000000097c9ce4cf6d5c00000",
          "blockHash": "0x77a1c2cf7c9c6f068514df26ec12de368ce969aa99b010082d60faffec781a82",
          "blockNumber": "0x63f7",
          "blockTimestamp": "0x69d0363d",
          "transactionHash": "0x1793cd5a85cce0f2ff1f37963ef7ed0a0fc3e06dda2b4861377554c242a317be",
          "transactionIndex": "0x3",
          "logIndex": "0x6",
          "removed": false
        },
        {
          "address": "0xc7cdb7a2e5dda1b7a0e792fe1ef08ed20a6f56d4",
          "topics": [
            "0x94b749af8a24a9e71a160cea1a268a96ec3299200f809d63344a0f668c0f0349",
            "0x0000000000000000000000000000000000000000000000000000000000000000",
            "0x000000000000000000000000f39fd6e51aad88f6f4ce6ab8827279cfffb92266"
          ],
          "data": "0x0000000000000000000000000000000000000000000000000000000000000000000000000000000000000000000000000000000000000097c9ce4cf6d5c00000000000000000000000000000000000000000000000000097c9ce4cf6d5c00000",
          "blockHash": "0x77a1c2cf7c9c6f068514df26ec12de368ce969aa99b010082d60faffec781a82",
          "blockNumber": "0x63f7",
          "blockTimestamp": "0x69d0363d",
          "transactionHash": "0x1793cd5a85cce0f2ff1f37963ef7ed0a0fc3e06dda2b4861377554c242a317be",
          "transactionIndex": "0x3",
          "logIndex": "0x7",
          "removed": false
        }
      ],
      "logsBloom": "0x00000000000000000000000000000000000000000000000000000000000000000000000000000000000000000000000080000000000000000000000000002000000000000000000000000008000000000000000000000000000000000000000000000040020200000002000500000800000000000000000000000010000000000000000000000000000000000000000040000000000000000000000200000000000000000000000000000000000000000001000000000000000000000000000000000042000000200000000010000000000000002018040000000000000020000000000000000000000000000000000100000000000001000000080000000000",
      "type": "0x2",
      "transactionHash": "0x1793cd5a85cce0f2ff1f37963ef7ed0a0fc3e06dda2b4861377554c242a317be",
      "transactionIndex": "0x3",
      "blockHash": "0x77a1c2cf7c9c6f068514df26ec12de368ce969aa99b010082d60faffec781a82",
      "blockNumber": "0x63f7",
      "gasUsed": "0x19be7",
      "effectiveGasPrice": "0x8",
      "blobGasPrice": "0x1",
      "from": "0xf39fd6e51aad88f6f4ce6ab8827279cfffb92266",
      "to": "0xc7cdb7a2e5dda1b7a0e792fe1ef08ed20a6f56d4",
      "contractAddress": null,
      "blockTimestamp": 1775253053
    },
    {
      "status": "0x1",
      "cumulativeGasUsed": "0x91dec",
      "logs": [
        {
          "address": "0xc7cdb7a2e5dda1b7a0e792fe1ef08ed20a6f56d4",
          "topics": [
            "0x57d0d124b72f81ed1da0dc728fc33db342705974792928796f6577b8db5c3d53",
            "0x0000000000000000000000000000000000000000000000000000000000000001"
          ],
          "data": "0x0000000000000000000000000000000000000000000000000000000000000060000000000000000000000000000000000000000000000000000000006b36ec7f000000000000000000000000f39fd6e51aad88f6f4ce6ab8827279cfffb92266000000000000000000000000000000000000000000000000000000000000002a57696c6c20457468657265756d2074726164652061626f7665202431302c30303020696e20323032363f00000000000000000000000000000000000000000000",
          "blockHash": "0x77a1c2cf7c9c6f068514df26ec12de368ce969aa99b010082d60faffec781a82",
          "blockNumber": "0x63f7",
          "blockTimestamp": "0x69d0363d",
          "transactionHash": "0x292a539c0d80f1c9725546365a6f4d0461143af142b5f9c6ab6f1455e364c93a",
          "transactionIndex": "0x4",
          "logIndex": "0x8",
          "removed": false
        }
      ],
      "logsBloom": "0x00000000000000000000000000000000000000000000000000000000000000000000000000000000000000000000000000000000000000000000000000040000000000000000000000000000000000000000000000040000000000000000000000000000000000000000000000000000000000000000000000000000000000000000000000000000800080000000000000000000000000000000000000000000000000000000000000000000000000000001000000000000000000000000000000000000000000000000000000000000000000000000040000000000000040000004000000000000000000000000000000000000000001000000000000000000",
      "type": "0x2",
      "transactionHash": "0x292a539c0d80f1c9725546365a6f4d0461143af142b5f9c6ab6f1455e364c93a",
      "transactionIndex": "0x4",
      "blockHash": "0x77a1c2cf7c9c6f068514df26ec12de368ce969aa99b010082d60faffec781a82",
      "blockNumber": "0x63f7",
      "gasUsed": "0x259e9",
      "effectiveGasPrice": "0x8",
      "blobGasPrice": "0x1",
      "from": "0xf39fd6e51aad88f6f4ce6ab8827279cfffb92266",
      "to": "0xc7cdb7a2e5dda1b7a0e792fe1ef08ed20a6f56d4",
      "contractAddress": null,
      "blockTimestamp": 1775253053
    },
    {
      "status": "0x1",
      "cumulativeGasUsed": "0xafc8c",
      "logs": [
        {
          "address": "0x5fbdb2315678afecb367f032d93f642f64180aa3",
          "topics": [
            "0xddf252ad1be2c89b69c2b068fc378daa952ba7f163c4a11628f55a4df523b3ef",
            "0x000000000000000000000000f39fd6e51aad88f6f4ce6ab8827279cfffb92266",
            "0x000000000000000000000000c7cdb7a2e5dda1b7a0e792fe1ef08ed20a6f56d4"
          ],
          "data": "0x00000000000000000000000000000000000000000000012a27d53bc048700000",
          "blockHash": "0x77a1c2cf7c9c6f068514df26ec12de368ce969aa99b010082d60faffec781a82",
          "blockNumber": "0x63f7",
          "blockTimestamp": "0x69d0363d",
          "transactionHash": "0x5894c1021307f56ad6210da2eb2a663f2288f5f59f0a378bf56a2682f69bfcc6",
          "transactionIndex": "0x5",
          "logIndex": "0x9",
          "removed": false
        },
        {
          "address": "0x28f057dc79e3cb77b2bbf4358d7a690cfe21b2d5",
          "topics": [
            "0xc3d58168c5ae7397731d063d5bbf3d657854427343f4c083240f7aacaa2d0f62",
            "0x000000000000000000000000c7cdb7a2e5dda1b7a0e792fe1ef08ed20a6f56d4",
            "0x0000000000000000000000000000000000000000000000000000000000000000",
            "0x000000000000000000000000f39fd6e51aad88f6f4ce6ab8827279cfffb92266"
          ],
          "data": "0x000000000000000000000000000000000000000000000000000000000000000200000000000000000000000000000000000000000000012a27d53bc048700000",
          "blockHash": "0x77a1c2cf7c9c6f068514df26ec12de368ce969aa99b010082d60faffec781a82",
          "blockNumber": "0x63f7",
          "blockTimestamp": "0x69d0363d",
          "transactionHash": "0x5894c1021307f56ad6210da2eb2a663f2288f5f59f0a378bf56a2682f69bfcc6",
          "transactionIndex": "0x5",
          "logIndex": "0xa",
          "removed": false
        },
        {
          "address": "0xc7cdb7a2e5dda1b7a0e792fe1ef08ed20a6f56d4",
          "topics": [
            "0x94b749af8a24a9e71a160cea1a268a96ec3299200f809d63344a0f668c0f0349",
            "0x0000000000000000000000000000000000000000000000000000000000000001",
            "0x000000000000000000000000f39fd6e51aad88f6f4ce6ab8827279cfffb92266"
          ],
          "data": "0x000000000000000000000000000000000000000000000000000000000000000100000000000000000000000000000000000000000000012a27d53bc04870000000000000000000000000000000000000000000000000012a27d53bc048700000",
          "blockHash": "0x77a1c2cf7c9c6f068514df26ec12de368ce969aa99b010082d60faffec781a82",
          "blockNumber": "0x63f7",
          "blockTimestamp": "0x69d0363d",
          "transactionHash": "0x5894c1021307f56ad6210da2eb2a663f2288f5f59f0a378bf56a2682f69bfcc6",
          "transactionIndex": "0x5",
          "logIndex": "0xb",
          "removed": false
        }
      ],
      "logsBloom": "0x00000000000000000000000000000000000000000000000000000000000000000000000000000000000000000000000080000000000000000000000000042000000000000000000000000008000000000000000000040000000000000000000000000040020200000002000500000800000000000000000000000010000000000000000000000000000000000000000040000000000000000000000200000000000000000000000000000000000000000001000000000000000000000000000000000042000000200000000010000000000000002018040000000000000060000000000000000000000000000000000100000000000001000000080000000000",
      "type": "0x2",
      "transactionHash": "0x5894c1021307f56ad6210da2eb2a663f2288f5f59f0a378bf56a2682f69bfcc6",
      "transactionIndex": "0x5",
      "blockHash": "0x77a1c2cf7c9c6f068514df26ec12de368ce969aa99b010082d60faffec781a82",
      "blockNumber": "0x63f7",
      "gasUsed": "0x1dea0",
      "effectiveGasPrice": "0x8",
      "blobGasPrice": "0x1",
      "from": "0xf39fd6e51aad88f6f4ce6ab8827279cfffb92266",
      "to": "0xc7cdb7a2e5dda1b7a0e792fe1ef08ed20a6f56d4",
      "contractAddress": null,
      "blockTimestamp": 1775253053
    },
    {
      "status": "0x1",
      "cumulativeGasUsed": "0xc987f",
      "logs": [
        {
          "address": "0x5fbdb2315678afecb367f032d93f642f64180aa3",
          "topics": [
            "0xddf252ad1be2c89b69c2b068fc378daa952ba7f163c4a11628f55a4df523b3ef",
            "0x000000000000000000000000f39fd6e51aad88f6f4ce6ab8827279cfffb92266",
            "0x000000000000000000000000c7cdb7a2e5dda1b7a0e792fe1ef08ed20a6f56d4"
          ],
          "data": "0x0000000000000000000000000000000000000000000000f3f20b8dfa69d00000",
          "blockHash": "0x77a1c2cf7c9c6f068514df26ec12de368ce969aa99b010082d60faffec781a82",
          "blockNumber": "0x63f7",
          "blockTimestamp": "0x69d0363d",
          "transactionHash": "0xcc33a3c3bce9e6e45d4600876de65211a79001c26d29278645e3fae9f241d61e",
          "transactionIndex": "0x6",
          "logIndex": "0xc",
          "removed": false
        },
        {
          "address": "0x28f057dc79e3cb77b2bbf4358d7a690cfe21b2d5",
          "topics": [
            "0xc3d58168c5ae7397731d063d5bbf3d657854427343f4c083240f7aacaa2d0f62",
            "0x000000000000000000000000c7cdb7a2e5dda1b7a0e792fe1ef08ed20a6f56d4",
            "0x0000000000000000000000000000000000000000000000000000000000000000",
            "0x000000000000000000000000f39fd6e51aad88f6f4ce6ab8827279cfffb92266"
          ],
          "data": "0x00000000000000000000000000000000000000000000000000000000000000030000000000000000000000000000000000000000000000f3f20b8dfa69d00000",
          "blockHash": "0x77a1c2cf7c9c6f068514df26ec12de368ce969aa99b010082d60faffec781a82",
          "blockNumber": "0x63f7",
          "blockTimestamp": "0x69d0363d",
          "transactionHash": "0xcc33a3c3bce9e6e45d4600876de65211a79001c26d29278645e3fae9f241d61e",
          "transactionIndex": "0x6",
          "logIndex": "0xd",
          "removed": false
        },
        {
          "address": "0xc7cdb7a2e5dda1b7a0e792fe1ef08ed20a6f56d4",
          "topics": [
            "0x94b749af8a24a9e71a160cea1a268a96ec3299200f809d63344a0f668c0f0349",
            "0x0000000000000000000000000000000000000000000000000000000000000001",
            "0x000000000000000000000000f39fd6e51aad88f6f4ce6ab8827279cfffb92266"
          ],
          "data": "0x00000000000000000000000000000000000000000000000000000000000000000000000000000000000000000000000000000000000000f3f20b8dfa69d000000000000000000000000000000000000000000000000000f3f20b8dfa69d00000",
          "blockHash": "0x77a1c2cf7c9c6f068514df26ec12de368ce969aa99b010082d60faffec781a82",
          "blockNumber": "0x63f7",
          "blockTimestamp": "0x69d0363d",
          "transactionHash": "0xcc33a3c3bce9e6e45d4600876de65211a79001c26d29278645e3fae9f241d61e",
          "transactionIndex": "0x6",
          "logIndex": "0xe",
          "removed": false
        }
      ],
      "logsBloom": "0x00000000000000000000000000000000000000000000000000000000000000000000000000000000000000000000000080000000000000000000000000042000000000000000000000000008000000000000000000040000000000000000000000000040020200000002000500000800000000000000000000000010000000000000000000000000000000000000000040000000000000000000000200000000000000000000000000000000000000000001000000000000000000000000000000000042000000200000000010000000000000002018040000000000000060000000000000000000000000000000000100000000000001000000080000000000",
      "type": "0x2",
      "transactionHash": "0xcc33a3c3bce9e6e45d4600876de65211a79001c26d29278645e3fae9f241d61e",
      "transactionIndex": "0x6",
      "blockHash": "0x77a1c2cf7c9c6f068514df26ec12de368ce969aa99b010082d60faffec781a82",
      "blockNumber": "0x63f7",
      "gasUsed": "0x19bf3",
      "effectiveGasPrice": "0x8",
      "blobGasPrice": "0x1",
      "from": "0xf39fd6e51aad88f6f4ce6ab8827279cfffb92266",
      "to": "0xc7cdb7a2e5dda1b7a0e792fe1ef08ed20a6f56d4",
      "contractAddress": null,
      "blockTimestamp": 1775253053
    },
    {
      "status": "0x1",
      "cumulativeGasUsed": "0xef2b0",
      "logs": [
        {
          "address": "0xc7cdb7a2e5dda1b7a0e792fe1ef08ed20a6f56d4",
          "topics": [
            "0x57d0d124b72f81ed1da0dc728fc33db342705974792928796f6577b8db5c3d53",
            "0x0000000000000000000000000000000000000000000000000000000000000002"
          ],
          "data": "0x0000000000000000000000000000000000000000000000000000000000000060000000000000000000000000000000000000000000000000000000006d181fff000000000000000000000000f39fd6e51aad88f6f4ce6ab8827279cfffb92266000000000000000000000000000000000000000000000000000000000000003057696c6c20476f6f64446f6c6c617220726561636820314d206461696c7920636c61696d65727320627920323032373f00000000000000000000000000000000",
          "blockHash": "0x77a1c2cf7c9c6f068514df26ec12de368ce969aa99b010082d60faffec781a82",
          "blockNumber": "0x63f7",
          "blockTimestamp": "0x69d0363d",
          "transactionHash": "0x842fb285b2e0adb036a5125ea684b7914d9e8ed81b51f4592bc2b527fb8ece13",
          "transactionIndex": "0x7",
          "logIndex": "0xf",
          "removed": false
        }
      ],
      "logsBloom": "0x04000000000000000000000000000000000000000000000000000000000000000000000000000000000000000000000000000000000000000000000000000000000000000000000000000000000000000000000000000000000000000000000000000000000000000000000000000000000000000000000000000000000000000000000000000000800080000000000000000000000000000000000000000000000000000000000000000100000000000001000000000000000000000000000000000000000000000000000000000000000000000000040000000000000000000004000000000000000000000000000000000000008001000000000000000000",
      "type": "0x2",
      "transactionHash": "0x842fb285b2e0adb036a5125ea684b7914d9e8ed81b51f4592bc2b527fb8ece13",
      "transactionIndex": "0x7",
      "blockHash": "0x77a1c2cf7c9c6f068514df26ec12de368ce969aa99b010082d60faffec781a82",
      "blockNumber": "0x63f7",
      "gasUsed": "0x25a31",
      "effectiveGasPrice": "0x8",
      "blobGasPrice": "0x1",
      "from": "0xf39fd6e51aad88f6f4ce6ab8827279cfffb92266",
      "to": "0xc7cdb7a2e5dda1b7a0e792fe1ef08ed20a6f56d4",
      "contractAddress": null,
      "blockTimestamp": 1775253053
    },
    {
      "status": "0x1",
      "cumulativeGasUsed": "0x10d144",
      "logs": [
        {
          "address": "0x5fbdb2315678afecb367f032d93f642f64180aa3",
          "topics": [
            "0xddf252ad1be2c89b69c2b068fc378daa952ba7f163c4a11628f55a4df523b3ef",
            "0x000000000000000000000000f39fd6e51aad88f6f4ce6ab8827279cfffb92266",
            "0x000000000000000000000000c7cdb7a2e5dda1b7a0e792fe1ef08ed20a6f56d4"
          ],
          "data": "0x0000000000000000000000000000000000000000000000bdbc41e0348b300000",
          "blockHash": "0x77a1c2cf7c9c6f068514df26ec12de368ce969aa99b010082d60faffec781a82",
          "blockNumber": "0x63f7",
          "blockTimestamp": "0x69d0363d",
          "transactionHash": "0xc6ad64a3179468965484ec77f202e3175862ffc3465e48a40623748ef7f25071",
          "transactionIndex": "0x8",
          "logIndex": "0x10",
          "removed": false
        },
        {
          "address": "0x28f057dc79e3cb77b2bbf4358d7a690cfe21b2d5",
          "topics": [
            "0xc3d58168c5ae7397731d063d5bbf3d657854427343f4c083240f7aacaa2d0f62",
            "0x000000000000000000000000c7cdb7a2e5dda1b7a0e792fe1ef08ed20a6f56d4",
            "0x0000000000000000000000000000000000000000000000000000000000000000",
            "0x000000000000000000000000f39fd6e51aad88f6f4ce6ab8827279cfffb92266"
          ],
          "data": "0x00000000000000000000000000000000000000000000000000000000000000040000000000000000000000000000000000000000000000bdbc41e0348b300000",
          "blockHash": "0x77a1c2cf7c9c6f068514df26ec12de368ce969aa99b010082d60faffec781a82",
          "blockNumber": "0x63f7",
          "blockTimestamp": "0x69d0363d",
          "transactionHash": "0xc6ad64a3179468965484ec77f202e3175862ffc3465e48a40623748ef7f25071",
          "transactionIndex": "0x8",
          "logIndex": "0x11",
          "removed": false
        },
        {
          "address": "0xc7cdb7a2e5dda1b7a0e792fe1ef08ed20a6f56d4",
          "topics": [
            "0x94b749af8a24a9e71a160cea1a268a96ec3299200f809d63344a0f668c0f0349",
            "0x0000000000000000000000000000000000000000000000000000000000000002",
            "0x000000000000000000000000f39fd6e51aad88f6f4ce6ab8827279cfffb92266"
          ],
          "data": "0x00000000000000000000000000000000000000000000000000000000000000010000000000000000000000000000000000000000000000bdbc41e0348b3000000000000000000000000000000000000000000000000000bdbc41e0348b300000",
          "blockHash": "0x77a1c2cf7c9c6f068514df26ec12de368ce969aa99b010082d60faffec781a82",
          "blockNumber": "0x63f7",
          "blockTimestamp": "0x69d0363d",
          "transactionHash": "0xc6ad64a3179468965484ec77f202e3175862ffc3465e48a40623748ef7f25071",
          "transactionIndex": "0x8",
          "logIndex": "0x12",
          "removed": false
        }
      ],
      "logsBloom": "0x04000000000000000000000000000000000000000000000000000000000000000000000000000000000000000000000080000000000000000000000000002000000000000000000000000008000000000000000000000000000000000000000000000040020200000002000500000800000000000000000000000010000000000000000000000000000000000000000040000000000000000000000200000000000000000000000000000100000000000001000000000000000000000000000000000042000000200000000010000000000000002018040000000000000020000000000000000000000000000000000100000000008001000000080000000000",
      "type": "0x2",
      "transactionHash": "0xc6ad64a3179468965484ec77f202e3175862ffc3465e48a40623748ef7f25071",
      "transactionIndex": "0x8",
      "blockHash": "0x77a1c2cf7c9c6f068514df26ec12de368ce969aa99b010082d60faffec781a82",
      "blockNumber": "0x63f7",
      "gasUsed": "0x1de94",
      "effectiveGasPrice": "0x8",
      "blobGasPrice": "0x1",
      "from": "0xf39fd6e51aad88f6f4ce6ab8827279cfffb92266",
      "to": "0xc7cdb7a2e5dda1b7a0e792fe1ef08ed20a6f56d4",
      "contractAddress": null,
      "blockTimestamp": 1775253053
    },
    {
      "status": "0x1",
      "cumulativeGasUsed": "0x126d43",
      "logs": [
        {
          "address": "0x5fbdb2315678afecb367f032d93f642f64180aa3",
          "topics": [
            "0xddf252ad1be2c89b69c2b068fc378daa952ba7f163c4a11628f55a4df523b3ef",
            "0x000000000000000000000000f39fd6e51aad88f6f4ce6ab8827279cfffb92266",
            "0x000000000000000000000000c7cdb7a2e5dda1b7a0e792fe1ef08ed20a6f56d4"
          ],
          "data": "0x0000000000000000000000000000000000000000000001605d9ee98627100000",
          "blockHash": "0x77a1c2cf7c9c6f068514df26ec12de368ce969aa99b010082d60faffec781a82",
          "blockNumber": "0x63f7",
          "blockTimestamp": "0x69d0363d",
          "transactionHash": "0xe342dbcf5ae7ae29ef5413f8a979bb16ad21a045036d74518661f9dcbc429ee1",
          "transactionIndex": "0x9",
          "logIndex": "0x13",
          "removed": false
        },
        {
          "address": "0x28f057dc79e3cb77b2bbf4358d7a690cfe21b2d5",
          "topics": [
            "0xc3d58168c5ae7397731d063d5bbf3d657854427343f4c083240f7aacaa2d0f62",
            "0x000000000000000000000000c7cdb7a2e5dda1b7a0e792fe1ef08ed20a6f56d4",
            "0x0000000000000000000000000000000000000000000000000000000000000000",
            "0x000000000000000000000000f39fd6e51aad88f6f4ce6ab8827279cfffb92266"
          ],
          "data": "0x00000000000000000000000000000000000000000000000000000000000000050000000000000000000000000000000000000000000001605d9ee98627100000",
          "blockHash": "0x77a1c2cf7c9c6f068514df26ec12de368ce969aa99b010082d60faffec781a82",
          "blockNumber": "0x63f7",
          "blockTimestamp": "0x69d0363d",
          "transactionHash": "0xe342dbcf5ae7ae29ef5413f8a979bb16ad21a045036d74518661f9dcbc429ee1",
          "transactionIndex": "0x9",
          "logIndex": "0x14",
          "removed": false
        },
        {
          "address": "0xc7cdb7a2e5dda1b7a0e792fe1ef08ed20a6f56d4",
          "topics": [
            "0x94b749af8a24a9e71a160cea1a268a96ec3299200f809d63344a0f668c0f0349",
            "0x0000000000000000000000000000000000000000000000000000000000000002",
            "0x000000000000000000000000f39fd6e51aad88f6f4ce6ab8827279cfffb92266"
          ],
          "data": "0x00000000000000000000000000000000000000000000000000000000000000000000000000000000000000000000000000000000000001605d9ee986271000000000000000000000000000000000000000000000000001605d9ee98627100000",
          "blockHash": "0x77a1c2cf7c9c6f068514df26ec12de368ce969aa99b010082d60faffec781a82",
          "blockNumber": "0x63f7",
          "blockTimestamp": "0x69d0363d",
          "transactionHash": "0xe342dbcf5ae7ae29ef5413f8a979bb16ad21a045036d74518661f9dcbc429ee1",
          "transactionIndex": "0x9",
          "logIndex": "0x15",
          "removed": false
        }
      ],
      "logsBloom": "0x04000000000000000000000000000000000000000000000000000000000000000000000000000000000000000000000080000000000000000000000000002000000000000000000000000008000000000000000000000000000000000000000000000040020200000002000500000800000000000000000000000010000000000000000000000000000000000000000040000000000000000000000200000000000000000000000000000100000000000001000000000000000000000000000000000042000000200000000010000000000000002018040000000000000020000000000000000000000000000000000100000000008001000000080000000000",
      "type": "0x2",
      "transactionHash": "0xe342dbcf5ae7ae29ef5413f8a979bb16ad21a045036d74518661f9dcbc429ee1",
      "transactionIndex": "0x9",
      "blockHash": "0x77a1c2cf7c9c6f068514df26ec12de368ce969aa99b010082d60faffec781a82",
      "blockNumber": "0x63f7",
      "gasUsed": "0x19bff",
      "effectiveGasPrice": "0x8",
      "blobGasPrice": "0x1",
      "from": "0xf39fd6e51aad88f6f4ce6ab8827279cfffb92266",
      "to": "0xc7cdb7a2e5dda1b7a0e792fe1ef08ed20a6f56d4",
      "contractAddress": null,
      "blockTimestamp": 1775253053
    },
    {
      "status": "0x1",
      "cumulativeGasUsed": "0x14c774",
      "logs": [
        {
          "address": "0xc7cdb7a2e5dda1b7a0e792fe1ef08ed20a6f56d4",
          "topics": [
            "0x57d0d124b72f81ed1da0dc728fc33db342705974792928796f6577b8db5c3d53",
            "0x0000000000000000000000000000000000000000000000000000000000000003"
          ],
          "data": "0x0000000000000000000000000000000000000000000000000000000000000060000000000000000000000000000000000000000000000000000000006b36ec7f000000000000000000000000f39fd6e51aad88f6f4ce6ab8827279cfffb92266000000000000000000000000000000000000000000000000000000000000003057696c6c20746865204665642046756e647320726174652062652062656c6f772033252062792044656320323032363f00000000000000000000000000000000",
          "blockHash": "0x77a1c2cf7c9c6f068514df26ec12de368ce969aa99b010082d60faffec781a82",
          "blockNumber": "0x63f7",
          "blockTimestamp": "0x69d0363d",
          "transactionHash": "0xa3f71649e35ddb6e3e5916745363f8393e4ad6b056a55be1470b6695998ceff1",
          "transactionIndex": "0xa",
          "logIndex": "0x16",
          "removed": false
        }
      ],
      "logsBloom": "0x00000000000000000000000000000000000000000000000000000000000000000000000000000000000000000000000000000000020000000000000000000000000000000000000000000000000000000000000000000000000000000000000000000000000000000000000000000000000000000000000000000000000000000000000000000000800080000000000000000000000000000000000000000000000000000000000000000000000000000001000000800000000000000000400000000000000000000000000000000000000000000000040000000000000000000004000000000000000000000000000000000000000001000000000000000000",
      "type": "0x2",
      "transactionHash": "0xa3f71649e35ddb6e3e5916745363f8393e4ad6b056a55be1470b6695998ceff1",
      "transactionIndex": "0xa",
      "blockHash": "0x77a1c2cf7c9c6f068514df26ec12de368ce969aa99b010082d60faffec781a82",
      "blockNumber": "0x63f7",
      "gasUsed": "0x25a31",
      "effectiveGasPrice": "0x8",
      "blobGasPrice": "0x1",
      "from": "0xf39fd6e51aad88f6f4ce6ab8827279cfffb92266",
      "to": "0xc7cdb7a2e5dda1b7a0e792fe1ef08ed20a6f56d4",
      "contractAddress": null,
      "blockTimestamp": 1775253053
    },
    {
      "status": "0x1",
      "cumulativeGasUsed": "0x16a608",
      "logs": [
        {
          "address": "0x5fbdb2315678afecb367f032d93f642f64180aa3",
          "topics": [
            "0xddf252ad1be2c89b69c2b068fc378daa952ba7f163c4a11628f55a4df523b3ef",
            "0x000000000000000000000000f39fd6e51aad88f6f4ce6ab8827279cfffb92266",
            "0x000000000000000000000000c7cdb7a2e5dda1b7a0e792fe1ef08ed20a6f56d4"
          ],
          "data": "0x0000000000000000000000000000000000000000000000e3aeb5737240a00000",
          "blockHash": "0x77a1c2cf7c9c6f068514df26ec12de368ce969aa99b010082d60faffec781a82",
          "blockNumber": "0x63f7",
          "blockTimestamp": "0x69d0363d",
          "transactionHash": "0x902bb164031076557b8e11adfb1e60ba36b40921e163281980eeb2838cc535e8",
          "transactionIndex": "0xb",
          "logIndex": "0x17",
          "removed": false
        },
        {
          "address": "0x28f057dc79e3cb77b2bbf4358d7a690cfe21b2d5",
          "topics": [
            "0xc3d58168c5ae7397731d063d5bbf3d657854427343f4c083240f7aacaa2d0f62",
            "0x000000000000000000000000c7cdb7a2e5dda1b7a0e792fe1ef08ed20a6f56d4",
            "0x0000000000000000000000000000000000000000000000000000000000000000",
            "0x000000000000000000000000f39fd6e51aad88f6f4ce6ab8827279cfffb92266"
          ],
          "data": "0x00000000000000000000000000000000000000000000000000000000000000060000000000000000000000000000000000000000000000e3aeb5737240a00000",
          "blockHash": "0x77a1c2cf7c9c6f068514df26ec12de368ce969aa99b010082d60faffec781a82",
          "blockNumber": "0x63f7",
          "blockTimestamp": "0x69d0363d",
          "transactionHash": "0x902bb164031076557b8e11adfb1e60ba36b40921e163281980eeb2838cc535e8",
          "transactionIndex": "0xb",
          "logIndex": "0x18",
          "removed": false
        },
        {
          "address": "0xc7cdb7a2e5dda1b7a0e792fe1ef08ed20a6f56d4",
          "topics": [
            "0x94b749af8a24a9e71a160cea1a268a96ec3299200f809d63344a0f668c0f0349",
            "0x0000000000000000000000000000000000000000000000000000000000000003",
            "0x000000000000000000000000f39fd6e51aad88f6f4ce6ab8827279cfffb92266"
          ],
          "data": "0x00000000000000000000000000000000000000000000000000000000000000010000000000000000000000000000000000000000000000e3aeb5737240a000000000000000000000000000000000000000000000000000e3aeb5737240a00000",
          "blockHash": "0x77a1c2cf7c9c6f068514df26ec12de368ce969aa99b010082d60faffec781a82",
          "blockNumber": "0x63f7",
          "blockTimestamp": "0x69d0363d",
          "transactionHash": "0x902bb164031076557b8e11adfb1e60ba36b40921e163281980eeb2838cc535e8",
          "transactionIndex": "0xb",
          "logIndex": "0x19",
          "removed": false
        }
      ],
      "logsBloom": "0x00000000000000000000000000000000000000000000000000000000000000000000000000000000000000000000000080000000020000000000000000002000000000000000000000000008000000000000000000000000000000000000000000000040020200000002000500000800000000000000000000000010000000000000000000000000000000000000000040000000000000000000000200000000000000000000000000000000000000000001000000800000000000000000400000000042000000200000000010000000000000002018040000000000000020000000000000000000000000000000000100000000000001000000080000000000",
      "type": "0x2",
      "transactionHash": "0x902bb164031076557b8e11adfb1e60ba36b40921e163281980eeb2838cc535e8",
      "transactionIndex": "0xb",
      "blockHash": "0x77a1c2cf7c9c6f068514df26ec12de368ce969aa99b010082d60faffec781a82",
      "blockNumber": "0x63f7",
      "gasUsed": "0x1de94",
      "effectiveGasPrice": "0x8",
      "blobGasPrice": "0x1",
      "from": "0xf39fd6e51aad88f6f4ce6ab8827279cfffb92266",
      "to": "0xc7cdb7a2e5dda1b7a0e792fe1ef08ed20a6f56d4",
      "contractAddress": null,
      "blockTimestamp": 1775253053
    },
    {
      "status": "0x1",
      "cumulativeGasUsed": "0x184207",
      "logs": [
        {
          "address": "0x5fbdb2315678afecb367f032d93f642f64180aa3",
          "topics": [
            "0xddf252ad1be2c89b69c2b068fc378daa952ba7f163c4a11628f55a4df523b3ef",
            "0x000000000000000000000000f39fd6e51aad88f6f4ce6ab8827279cfffb92266",
            "0x000000000000000000000000c7cdb7a2e5dda1b7a0e792fe1ef08ed20a6f56d4"
          ],
          "data": "0x00000000000000000000000000000000000000000000013a6b2b564871a00000",
          "blockHash": "0x77a1c2cf7c9c6f068514df26ec12de368ce969aa99b010082d60faffec781a82",
          "blockNumber": "0x63f7",
          "blockTimestamp": "0x69d0363d",
          "transactionHash": "0x4cdbc5eb81f5b3441b8e8789868d64e0c4950da5e99ce1665da5d8c9413a7910",
          "transactionIndex": "0xc",
          "logIndex": "0x1a",
          "removed": false
        },
        {
          "address": "0x28f057dc79e3cb77b2bbf4358d7a690cfe21b2d5",
          "topics": [
            "0xc3d58168c5ae7397731d063d5bbf3d657854427343f4c083240f7aacaa2d0f62",
            "0x000000000000000000000000c7cdb7a2e5dda1b7a0e792fe1ef08ed20a6f56d4",
            "0x0000000000000000000000000000000000000000000000000000000000000000",
            "0x000000000000000000000000f39fd6e51aad88f6f4ce6ab8827279cfffb92266"
          ],
          "data": "0x000000000000000000000000000000000000000000000000000000000000000700000000000000000000000000000000000000000000013a6b2b564871a00000",
          "blockHash": "0x77a1c2cf7c9c6f068514df26ec12de368ce969aa99b010082d60faffec781a82",
          "blockNumber": "0x63f7",
          "blockTimestamp": "0x69d0363d",
          "transactionHash": "0x4cdbc5eb81f5b3441b8e8789868d64e0c4950da5e99ce1665da5d8c9413a7910",
          "transactionIndex": "0xc",
          "logIndex": "0x1b",
          "removed": false
        },
        {
          "address": "0xc7cdb7a2e5dda1b7a0e792fe1ef08ed20a6f56d4",
          "topics": [
            "0x94b749af8a24a9e71a160cea1a268a96ec3299200f809d63344a0f668c0f0349",
            "0x0000000000000000000000000000000000000000000000000000000000000003",
            "0x000000000000000000000000f39fd6e51aad88f6f4ce6ab8827279cfffb92266"
          ],
          "data": "0x000000000000000000000000000000000000000000000000000000000000000000000000000000000000000000000000000000000000013a6b2b564871a0000000000000000000000000000000000000000000000000013a6b2b564871a00000",
          "blockHash": "0x77a1c2cf7c9c6f068514df26ec12de368ce969aa99b010082d60faffec781a82",
          "blockNumber": "0x63f7",
          "blockTimestamp": "0x69d0363d",
          "transactionHash": "0x4cdbc5eb81f5b3441b8e8789868d64e0c4950da5e99ce1665da5d8c9413a7910",
          "transactionIndex": "0xc",
          "logIndex": "0x1c",
          "removed": false
        }
      ],
      "logsBloom": "0x00000000000000000000000000000000000000000000000000000000000000000000000000000000000000000000000080000000020000000000000000002000000000000000000000000008000000000000000000000000000000000000000000000040020200000002000500000800000000000000000000000010000000000000000000000000000000000000000040000000000000000000000200000000000000000000000000000000000000000001000000800000000000000000400000000042000000200000000010000000000000002018040000000000000020000000000000000000000000000000000100000000000001000000080000000000",
      "type": "0x2",
      "transactionHash": "0x4cdbc5eb81f5b3441b8e8789868d64e0c4950da5e99ce1665da5d8c9413a7910",
      "transactionIndex": "0xc",
      "blockHash": "0x77a1c2cf7c9c6f068514df26ec12de368ce969aa99b010082d60faffec781a82",
      "blockNumber": "0x63f7",
      "gasUsed": "0x19bff",
      "effectiveGasPrice": "0x8",
      "blobGasPrice": "0x1",
      "from": "0xf39fd6e51aad88f6f4ce6ab8827279cfffb92266",
      "to": "0xc7cdb7a2e5dda1b7a0e792fe1ef08ed20a6f56d4",
      "contractAddress": null,
      "blockTimestamp": 1775253053
    },
    {
      "status": "0x1",
      "cumulativeGasUsed": "0x19ec42",
      "logs": [
        {
          "address": "0xc7cdb7a2e5dda1b7a0e792fe1ef08ed20a6f56d4",
          "topics": [
            "0x57d0d124b72f81ed1da0dc728fc33db342705974792928796f6577b8db5c3d53",
            "0x0000000000000000000000000000000000000000000000000000000000000004"
          ],
          "data": "0x00000000000000000000000000000000000000000000000000000000000000600000000000000000000000000000000000000000000000000000000072bd0bff000000000000000000000000f39fd6e51aad88f6f4ce6ab8827279cfffb92266000000000000000000000000000000000000000000000000000000000000001d57696c6c2041474920626520616368696576656420627920323033303f000000",
          "blockHash": "0x77a1c2cf7c9c6f068514df26ec12de368ce969aa99b010082d60faffec781a82",
          "blockNumber": "0x63f7",
          "blockTimestamp": "0x69d0363d",
          "transactionHash": "0x755ff3643bd9df6e42326f59b5bb1eb647b81b5802830d9ae37645e526b229c7",
          "transactionIndex": "0xd",
          "logIndex": "0x1d",
          "removed": false
        }
      ],
      "logsBloom": "0x00000000000000000000000000000000000000000000000000000000000000000000000000000000000000000000000000000000000000000000000000000000000000000000000000000000000000000000000000000000000000000000000008000000000000000000000000000000000000000000000000000000000000000000000000000000800080000000000000000000000000000000000000000000000000000000000000000000000000000001000000000000002000000000000000000000000000000000000000000000000000008000040000000000000000000004000000000000000000000000000000000000000001000000000000000000",
      "type": "0x2",
      "transactionHash": "0x755ff3643bd9df6e42326f59b5bb1eb647b81b5802830d9ae37645e526b229c7",
      "transactionIndex": "0xd",
      "blockHash": "0x77a1c2cf7c9c6f068514df26ec12de368ce969aa99b010082d60faffec781a82",
      "blockNumber": "0x63f7",
      "gasUsed": "0x1aa3b",
      "effectiveGasPrice": "0x8",
      "blobGasPrice": "0x1",
      "from": "0xf39fd6e51aad88f6f4ce6ab8827279cfffb92266",
      "to": "0xc7cdb7a2e5dda1b7a0e792fe1ef08ed20a6f56d4",
      "contractAddress": null,
      "blockTimestamp": 1775253053
    },
    {
      "status": "0x1",
      "cumulativeGasUsed": "0x1bcad6",
      "logs": [
        {
          "address": "0x5fbdb2315678afecb367f032d93f642f64180aa3",
          "topics": [
            "0xddf252ad1be2c89b69c2b068fc378daa952ba7f163c4a11628f55a4df523b3ef",
            "0x000000000000000000000000f39fd6e51aad88f6f4ce6ab8827279cfffb92266",
            "0x000000000000000000000000c7cdb7a2e5dda1b7a0e792fe1ef08ed20a6f56d4"
          ],
          "data": "0x00000000000000000000000000000000000000000000006194049f30f7200000",
          "blockHash": "0x77a1c2cf7c9c6f068514df26ec12de368ce969aa99b010082d60faffec781a82",
          "blockNumber": "0x63f7",
          "blockTimestamp": "0x69d0363d",
          "transactionHash": "0xc756bc18e6267ba15874c97df803daa71a73e402b32ce94d337c3fa9cb1f6026",
          "transactionIndex": "0xe",
          "logIndex": "0x1e",
          "removed": false
        },
        {
          "address": "0x28f057dc79e3cb77b2bbf4358d7a690cfe21b2d5",
          "topics": [
            "0xc3d58168c5ae7397731d063d5bbf3d657854427343f4c083240f7aacaa2d0f62",
            "0x000000000000000000000000c7cdb7a2e5dda1b7a0e792fe1ef08ed20a6f56d4",
            "0x0000000000000000000000000000000000000000000000000000000000000000",
            "0x000000000000000000000000f39fd6e51aad88f6f4ce6ab8827279cfffb92266"
          ],
          "data": "0x000000000000000000000000000000000000000000000000000000000000000800000000000000000000000000000000000000000000006194049f30f7200000",
          "blockHash": "0x77a1c2cf7c9c6f068514df26ec12de368ce969aa99b010082d60faffec781a82",
          "blockNumber": "0x63f7",
          "blockTimestamp": "0x69d0363d",
          "transactionHash": "0xc756bc18e6267ba15874c97df803daa71a73e402b32ce94d337c3fa9cb1f6026",
          "transactionIndex": "0xe",
          "logIndex": "0x1f",
          "removed": false
        },
        {
          "address": "0xc7cdb7a2e5dda1b7a0e792fe1ef08ed20a6f56d4",
          "topics": [
            "0x94b749af8a24a9e71a160cea1a268a96ec3299200f809d63344a0f668c0f0349",
            "0x0000000000000000000000000000000000000000000000000000000000000004",
            "0x000000000000000000000000f39fd6e51aad88f6f4ce6ab8827279cfffb92266"
          ],
          "data": "0x000000000000000000000000000000000000000000000000000000000000000100000000000000000000000000000000000000000000006194049f30f720000000000000000000000000000000000000000000000000006194049f30f7200000",
          "blockHash": "0x77a1c2cf7c9c6f068514df26ec12de368ce969aa99b010082d60faffec781a82",
          "blockNumber": "0x63f7",
          "blockTimestamp": "0x69d0363d",
          "transactionHash": "0xc756bc18e6267ba15874c97df803daa71a73e402b32ce94d337c3fa9cb1f6026",
          "transactionIndex": "0xe",
          "logIndex": "0x20",
          "removed": false
        }
      ],
      "logsBloom": "0x0000000000000000000000000000000000000000000000000000000000000000000000000000000000000000000000008000000000000000000000000000200000000000000000000000000800000000000000000000000000000000000000000800004002020000000200050000080000000000000000000000001000000000000000000000000000000000000000004000000000000000000000020000000000000000000000000000000000000000000100000000000000200000000000000000004200000020000000001000000000000000a018040000000000000020000000000000000000000000000000000100000000000001000000080000000000",
      "type": "0x2",
      "transactionHash": "0xc756bc18e6267ba15874c97df803daa71a73e402b32ce94d337c3fa9cb1f6026",
      "transactionIndex": "0xe",
      "blockHash": "0x77a1c2cf7c9c6f068514df26ec12de368ce969aa99b010082d60faffec781a82",
      "blockNumber": "0x63f7",
      "gasUsed": "0x1de94",
      "effectiveGasPrice": "0x8",
      "blobGasPrice": "0x1",
      "from": "0xf39fd6e51aad88f6f4ce6ab8827279cfffb92266",
      "to": "0xc7cdb7a2e5dda1b7a0e792fe1ef08ed20a6f56d4",
      "contractAddress": null,
      "blockTimestamp": 1775253053
    },
    {
      "status": "0x1",
      "cumulativeGasUsed": "0x1d66d5",
      "logs": [
        {
          "address": "0x5fbdb2315678afecb367f032d93f642f64180aa3",
          "topics": [
            "0xddf252ad1be2c89b69c2b068fc378daa952ba7f163c4a11628f55a4df523b3ef",
            "0x000000000000000000000000f39fd6e51aad88f6f4ce6ab8827279cfffb92266",
            "0x000000000000000000000000c7cdb7a2e5dda1b7a0e792fe1ef08ed20a6f56d4"
          ],
          "data": "0x0000000000000000000000000000000000000000000001bc85dc2a89bb200000",
          "blockHash": "0x77a1c2cf7c9c6f068514df26ec12de368ce969aa99b010082d60faffec781a82",
          "blockNumber": "0x63f7",
          "blockTimestamp": "0x69d0363d",
          "transactionHash": "0x41fc8b939431bf8b7d1173394b4d932fe1e0ed94b555d4e3807babef50d0d3a2",
          "transactionIndex": "0xf",
          "logIndex": "0x21",
          "removed": false
        },
        {
          "address": "0x28f057dc79e3cb77b2bbf4358d7a690cfe21b2d5",
          "topics": [
            "0xc3d58168c5ae7397731d063d5bbf3d657854427343f4c083240f7aacaa2d0f62",
            "0x000000000000000000000000c7cdb7a2e5dda1b7a0e792fe1ef08ed20a6f56d4",
            "0x0000000000000000000000000000000000000000000000000000000000000000",
            "0x000000000000000000000000f39fd6e51aad88f6f4ce6ab8827279cfffb92266"
          ],
          "data": "0x00000000000000000000000000000000000000000000000000000000000000090000000000000000000000000000000000000000000001bc85dc2a89bb200000",
          "blockHash": "0x77a1c2cf7c9c6f068514df26ec12de368ce969aa99b010082d60faffec781a82",
          "blockNumber": "0x63f7",
          "blockTimestamp": "0x69d0363d",
          "transactionHash": "0x41fc8b939431bf8b7d1173394b4d932fe1e0ed94b555d4e3807babef50d0d3a2",
          "transactionIndex": "0xf",
          "logIndex": "0x22",
          "removed": false
        },
        {
          "address": "0xc7cdb7a2e5dda1b7a0e792fe1ef08ed20a6f56d4",
          "topics": [
            "0x94b749af8a24a9e71a160cea1a268a96ec3299200f809d63344a0f668c0f0349",
            "0x0000000000000000000000000000000000000000000000000000000000000004",
            "0x000000000000000000000000f39fd6e51aad88f6f4ce6ab8827279cfffb92266"
          ],
          "data": "0x00000000000000000000000000000000000000000000000000000000000000000000000000000000000000000000000000000000000001bc85dc2a89bb2000000000000000000000000000000000000000000000000001bc85dc2a89bb200000",
          "blockHash": "0x77a1c2cf7c9c6f068514df26ec12de368ce969aa99b010082d60faffec781a82",
          "blockNumber": "0x63f7",
          "blockTimestamp": "0x69d0363d",
          "transactionHash": "0x41fc8b939431bf8b7d1173394b4d932fe1e0ed94b555d4e3807babef50d0d3a2",
          "transactionIndex": "0xf",
          "logIndex": "0x23",
          "removed": false
        }
      ],
      "logsBloom": "0x0000000000000000000000000000000000000000000000000000000000000000000000000000000000000000000000008000000000000000000000000000200000000000000000000000000800000000000000000000000000000000000000000800004002020000000200050000080000000000000000000000001000000000000000000000000000000000000000004000000000000000000000020000000000000000000000000000000000000000000100000000000000200000000000000000004200000020000000001000000000000000a018040000000000000020000000000000000000000000000000000100000000000001000000080000000000",
      "type": "0x2",
      "transactionHash": "0x41fc8b939431bf8b7d1173394b4d932fe1e0ed94b555d4e3807babef50d0d3a2",
      "transactionIndex": "0xf",
      "blockHash": "0x77a1c2cf7c9c6f068514df26ec12de368ce969aa99b010082d60faffec781a82",
      "blockNumber": "0x63f7",
      "gasUsed": "0x19bff",
      "effectiveGasPrice": "0x8",
      "blobGasPrice": "0x1",
      "from": "0xf39fd6e51aad88f6f4ce6ab8827279cfffb92266",
      "to": "0xc7cdb7a2e5dda1b7a0e792fe1ef08ed20a6f56d4",
      "contractAddress": null,
      "blockTimestamp": 1775253053
    },
    {
      "status": "0x1",
      "cumulativeGasUsed": "0x1fc11e",
      "logs": [
        {
          "address": "0xc7cdb7a2e5dda1b7a0e792fe1ef08ed20a6f56d4",
          "topics": [
            "0x57d0d124b72f81ed1da0dc728fc33db342705974792928796f6577b8db5c3d53",
            "0x0000000000000000000000000000000000000000000000000000000000000005"
          ],
          "data": "0x0000000000000000000000000000000000000000000000000000000000000060000000000000000000000000000000000000000000000000000000006b36ec7f000000000000000000000000f39fd6e51aad88f6f4ce6ab8827279cfffb92266000000000000000000000000000000000000000000000000000000000000003257696c6c2065546f726f202845544f52292074726164652061626f7665202431303020627920656e64206f6620323032363f0000000000000000000000000000",
          "blockHash": "0x77a1c2cf7c9c6f068514df26ec12de368ce969aa99b010082d60faffec781a82",
          "blockNumber": "0x63f7",
          "blockTimestamp": "0x69d0363d",
          "transactionHash": "0x44a6b393019b9ad8e3a892076d333737f0c1c009dd284cde8bbde6dcf30d86d2",
          "transactionIndex": "0x10",
          "logIndex": "0x24",
          "removed": false
        }
      ],
      "logsBloom": "0x00000000000000000000000000000000000000000000000000000000000000000000000000000000000000000000000000000000000000000000000000000000000010000000000000000000000000000000000000000000000000000000000000000000000000000000000000000000000000000000000000000000000000000000000000000000800080000000001000000800000000000000000000000000000000000000000000000000000000000001000000000000000000000000000000000000000000000000000000000000000000000000040000000000000000000004000000000000000000000000000000000000000001000000000000000000",
      "type": "0x2",
      "transactionHash": "0x44a6b393019b9ad8e3a892076d333737f0c1c009dd284cde8bbde6dcf30d86d2",
      "transactionIndex": "0x10",
      "blockHash": "0x77a1c2cf7c9c6f068514df26ec12de368ce969aa99b010082d60faffec781a82",
      "blockNumber": "0x63f7",
      "gasUsed": "0x25a49",
      "effectiveGasPrice": "0x8",
      "blobGasPrice": "0x1",
      "from": "0xf39fd6e51aad88f6f4ce6ab8827279cfffb92266",
      "to": "0xc7cdb7a2e5dda1b7a0e792fe1ef08ed20a6f56d4",
      "contractAddress": null,
      "blockTimestamp": 1775253053
    },
    {
      "status": "0x1",
      "cumulativeGasUsed": "0x219fbe",
      "logs": [
        {
          "address": "0x5fbdb2315678afecb367f032d93f642f64180aa3",
          "topics": [
            "0xddf252ad1be2c89b69c2b068fc378daa952ba7f163c4a11628f55a4df523b3ef",
            "0x000000000000000000000000f39fd6e51aad88f6f4ce6ab8827279cfffb92266",
            "0x000000000000000000000000c7cdb7a2e5dda1b7a0e792fe1ef08ed20a6f56d4"
          ],
          "data": "0x00000000000000000000000000000000000000000000014542ba12a337c00000",
          "blockHash": "0x77a1c2cf7c9c6f068514df26ec12de368ce969aa99b010082d60faffec781a82",
          "blockNumber": "0x63f7",
          "blockTimestamp": "0x69d0363d",
          "transactionHash": "0x1f82fa4079e9ef63812363660aaab7740b049f7311f15fb4d33b7f0764219a74",
          "transactionIndex": "0x11",
          "logIndex": "0x25",
          "removed": false
        },
        {
          "address": "0x28f057dc79e3cb77b2bbf4358d7a690cfe21b2d5",
          "topics": [
            "0xc3d58168c5ae7397731d063d5bbf3d657854427343f4c083240f7aacaa2d0f62",
            "0x000000000000000000000000c7cdb7a2e5dda1b7a0e792fe1ef08ed20a6f56d4",
            "0x0000000000000000000000000000000000000000000000000000000000000000",
            "0x000000000000000000000000f39fd6e51aad88f6f4ce6ab8827279cfffb92266"
          ],
          "data": "0x000000000000000000000000000000000000000000000000000000000000000a00000000000000000000000000000000000000000000014542ba12a337c00000",
          "blockHash": "0x77a1c2cf7c9c6f068514df26ec12de368ce969aa99b010082d60faffec781a82",
          "blockNumber": "0x63f7",
          "blockTimestamp": "0x69d0363d",
          "transactionHash": "0x1f82fa4079e9ef63812363660aaab7740b049f7311f15fb4d33b7f0764219a74",
          "transactionIndex": "0x11",
          "logIndex": "0x26",
          "removed": false
        },
        {
          "address": "0xc7cdb7a2e5dda1b7a0e792fe1ef08ed20a6f56d4",
          "topics": [
            "0x94b749af8a24a9e71a160cea1a268a96ec3299200f809d63344a0f668c0f0349",
            "0x0000000000000000000000000000000000000000000000000000000000000005",
            "0x000000000000000000000000f39fd6e51aad88f6f4ce6ab8827279cfffb92266"
          ],
          "data": "0x000000000000000000000000000000000000000000000000000000000000000100000000000000000000000000000000000000000000014542ba12a337c0000000000000000000000000000000000000000000000000014542ba12a337c00000",
          "blockHash": "0x77a1c2cf7c9c6f068514df26ec12de368ce969aa99b010082d60faffec781a82",
          "blockNumber": "0x63f7",
          "blockTimestamp": "0x69d0363d",
          "transactionHash": "0x1f82fa4079e9ef63812363660aaab7740b049f7311f15fb4d33b7f0764219a74",
          "transactionIndex": "0x11",
          "logIndex": "0x27",
          "removed": false
        }
      ],
      "logsBloom": "0x00000000000000000000000000000000000000000000000000000000000000000000000000000000000000000000000080000000000000000000000000002000000010000000000000000008000000000000000000000000000000000000000000000040020200000002000500000800000000000000000000000010000000000000000000000000000000000000001040000800000000000000000200000000000000000000000000000000000000000001000000000000000000000000000000000042000000200000000010000000000000002018040000000000000020000000000000000000000000000000000100000000000001000000080000000000",
      "type": "0x2",
      "transactionHash": "0x1f82fa4079e9ef63812363660aaab7740b049f7311f15fb4d33b7f0764219a74",
      "transactionIndex": "0x11",
      "blockHash": "0x77a1c2cf7c9c6f068514df26ec12de368ce969aa99b010082d60faffec781a82",
      "blockNumber": "0x63f7",
      "gasUsed": "0x1dea0",
      "effectiveGasPrice": "0x8",
      "blobGasPrice": "0x1",
      "from": "0xf39fd6e51aad88f6f4ce6ab8827279cfffb92266",
      "to": "0xc7cdb7a2e5dda1b7a0e792fe1ef08ed20a6f56d4",
      "contractAddress": null,
      "blockTimestamp": 1775253053
    },
    {
      "status": "0x1",
      "cumulativeGasUsed": "0x233bb1",
      "logs": [
        {
          "address": "0x5fbdb2315678afecb367f032d93f642f64180aa3",
          "topics": [
            "0xddf252ad1be2c89b69c2b068fc378daa952ba7f163c4a11628f55a4df523b3ef",
            "0x000000000000000000000000f39fd6e51aad88f6f4ce6ab8827279cfffb92266",
            "0x000000000000000000000000c7cdb7a2e5dda1b7a0e792fe1ef08ed20a6f56d4"
          ],
          "data": "0x0000000000000000000000000000000000000000000000d8d726b7177a800000",
          "blockHash": "0x77a1c2cf7c9c6f068514df26ec12de368ce969aa99b010082d60faffec781a82",
          "blockNumber": "0x63f7",
          "blockTimestamp": "0x69d0363d",
          "transactionHash": "0x619d14f05ede8e5aced573fcd995d97c907386d4bed90d687b588a770b038d0b",
          "transactionIndex": "0x12",
          "logIndex": "0x28",
          "removed": false
        },
        {
          "address": "0x28f057dc79e3cb77b2bbf4358d7a690cfe21b2d5",
          "topics": [
            "0xc3d58168c5ae7397731d063d5bbf3d657854427343f4c083240f7aacaa2d0f62",
            "0x000000000000000000000000c7cdb7a2e5dda1b7a0e792fe1ef08ed20a6f56d4",
            "0x0000000000000000000000000000000000000000000000000000000000000000",
            "0x000000000000000000000000f39fd6e51aad88f6f4ce6ab8827279cfffb92266"
          ],
          "data": "0x000000000000000000000000000000000000000000000000000000000000000b0000000000000000000000000000000000000000000000d8d726b7177a800000",
          "blockHash": "0x77a1c2cf7c9c6f068514df26ec12de368ce969aa99b010082d60faffec781a82",
          "blockNumber": "0x63f7",
          "blockTimestamp": "0x69d0363d",
          "transactionHash": "0x619d14f05ede8e5aced573fcd995d97c907386d4bed90d687b588a770b038d0b",
          "transactionIndex": "0x12",
          "logIndex": "0x29",
          "removed": false
        },
        {
          "address": "0xc7cdb7a2e5dda1b7a0e792fe1ef08ed20a6f56d4",
          "topics": [
            "0x94b749af8a24a9e71a160cea1a268a96ec3299200f809d63344a0f668c0f0349",
            "0x0000000000000000000000000000000000000000000000000000000000000005",
            "0x000000000000000000000000f39fd6e51aad88f6f4ce6ab8827279cfffb92266"
          ],
          "data": "0x00000000000000000000000000000000000000000000000000000000000000000000000000000000000000000000000000000000000000d8d726b7177a8000000000000000000000000000000000000000000000000000d8d726b7177a800000",
          "blockHash": "0x77a1c2cf7c9c6f068514df26ec12de368ce969aa99b010082d60faffec781a82",
          "blockNumber": "0x63f7",
          "blockTimestamp": "0x69d0363d",
          "transactionHash": "0x619d14f05ede8e5aced573fcd995d97c907386d4bed90d687b588a770b038d0b",
          "transactionIndex": "0x12",
          "logIndex": "0x2a",
          "removed": false
        }
      ],
      "logsBloom": "0x00000000000000000000000000000000000000000000000000000000000000000000000000000000000000000000000080000000000000000000000000002000000010000000000000000008000000000000000000000000000000000000000000000040020200000002000500000800000000000000000000000010000000000000000000000000000000000000001040000800000000000000000200000000000000000000000000000000000000000001000000000000000000000000000000000042000000200000000010000000000000002018040000000000000020000000000000000000000000000000000100000000000001000000080000000000",
      "type": "0x2",
      "transactionHash": "0x619d14f05ede8e5aced573fcd995d97c907386d4bed90d687b588a770b038d0b",
      "transactionIndex": "0x12",
      "blockHash": "0x77a1c2cf7c9c6f068514df26ec12de368ce969aa99b010082d60faffec781a82",
      "blockNumber": "0x63f7",
      "gasUsed": "0x19bf3",
      "effectiveGasPrice": "0x8",
      "blobGasPrice": "0x1",
      "from": "0xf39fd6e51aad88f6f4ce6ab8827279cfffb92266",
      "to": "0xc7cdb7a2e5dda1b7a0e792fe1ef08ed20a6f56d4",
      "contractAddress": null,
      "blockTimestamp": 1775253053
    },
    {
      "status": "0x1",
      "cumulativeGasUsed": "0x25961e",
      "logs": [
        {
          "address": "0xc7cdb7a2e5dda1b7a0e792fe1ef08ed20a6f56d4",
          "topics": [
            "0x57d0d124b72f81ed1da0dc728fc33db342705974792928796f6577b8db5c3d53",
            "0x0000000000000000000000000000000000000000000000000000000000000006"
          ],
          "data": "0x0000000000000000000000000000000000000000000000000000000000000060000000000000000000000000000000000000000000000000000000006d181fff000000000000000000000000f39fd6e51aad88f6f4ce6ab8827279cfffb92266000000000000000000000000000000000000000000000000000000000000003557696c6c20616e2041492074726164696e67206167656e74206d616e616765206f766572202431422041554d20627920323032373f0000000000000000000000",
          "blockHash": "0x77a1c2cf7c9c6f068514df26ec12de368ce969aa99b010082d60faffec781a82",
          "blockNumber": "0x63f7",
          "blockTimestamp": "0x69d0363d",
          "transactionHash": "0xf50fecbe68366c9771c6f8188d8837f45994f9d98169b25699369bfaeef76ac0",
          "transactionIndex": "0x13",
          "logIndex": "0x2b",
          "removed": false
        }
      ],
      "logsBloom": "0x00000000000000000000000000000000000000000000000000000000000000000000000000000000000000000000000000000000000400000000000000000000000000000000000000000000000000000000000000000000000000000000000000000000000000000000000000000000000000000000000000000000000000000000000400000000800080000000000000000000000000000000000000000000000000000000000000000000000000000001000000000000000000080000000000000000000000000000000000000000000000000000040000000000000000000004000000000000000000000000000000000000000001000000000000000000",
      "type": "0x2",
      "transactionHash": "0xf50fecbe68366c9771c6f8188d8837f45994f9d98169b25699369bfaeef76ac0",
      "transactionIndex": "0x13",
      "blockHash": "0x77a1c2cf7c9c6f068514df26ec12de368ce969aa99b010082d60faffec781a82",
      "blockNumber": "0x63f7",
      "gasUsed": "0x25a6d",
      "effectiveGasPrice": "0x8",
      "blobGasPrice": "0x1",
      "from": "0xf39fd6e51aad88f6f4ce6ab8827279cfffb92266",
      "to": "0xc7cdb7a2e5dda1b7a0e792fe1ef08ed20a6f56d4",
      "contractAddress": null,
      "blockTimestamp": 1775253053
    },
    {
      "status": "0x1",
      "cumulativeGasUsed": "0x2774b2",
      "logs": [
        {
          "address": "0x5fbdb2315678afecb367f032d93f642f64180aa3",
          "topics": [
            "0xddf252ad1be2c89b69c2b068fc378daa952ba7f163c4a11628f55a4df523b3ef",
            "0x000000000000000000000000f39fd6e51aad88f6f4ce6ab8827279cfffb92266",
            "0x000000000000000000000000c7cdb7a2e5dda1b7a0e792fe1ef08ed20a6f56d4"
          ],
          "data": "0x0000000000000000000000000000000000000000000000878678326eac900000",
          "blockHash": "0x77a1c2cf7c9c6f068514df26ec12de368ce969aa99b010082d60faffec781a82",
          "blockNumber": "0x63f7",
          "blockTimestamp": "0x69d0363d",
          "transactionHash": "0x865233fd3dc97948e0ba6f691cd3214a0e98fc92ba386bc6d74d3c96a90420df",
          "transactionIndex": "0x14",
          "logIndex": "0x2c",
          "removed": false
        },
        {
          "address": "0x28f057dc79e3cb77b2bbf4358d7a690cfe21b2d5",
          "topics": [
            "0xc3d58168c5ae7397731d063d5bbf3d657854427343f4c083240f7aacaa2d0f62",
            "0x000000000000000000000000c7cdb7a2e5dda1b7a0e792fe1ef08ed20a6f56d4",
            "0x0000000000000000000000000000000000000000000000000000000000000000",
            "0x000000000000000000000000f39fd6e51aad88f6f4ce6ab8827279cfffb92266"
          ],
          "data": "0x000000000000000000000000000000000000000000000000000000000000000c0000000000000000000000000000000000000000000000878678326eac900000",
          "blockHash": "0x77a1c2cf7c9c6f068514df26ec12de368ce969aa99b010082d60faffec781a82",
          "blockNumber": "0x63f7",
          "blockTimestamp": "0x69d0363d",
          "transactionHash": "0x865233fd3dc97948e0ba6f691cd3214a0e98fc92ba386bc6d74d3c96a90420df",
          "transactionIndex": "0x14",
          "logIndex": "0x2d",
          "removed": false
        },
        {
          "address": "0xc7cdb7a2e5dda1b7a0e792fe1ef08ed20a6f56d4",
          "topics": [
            "0x94b749af8a24a9e71a160cea1a268a96ec3299200f809d63344a0f668c0f0349",
            "0x0000000000000000000000000000000000000000000000000000000000000006",
            "0x000000000000000000000000f39fd6e51aad88f6f4ce6ab8827279cfffb92266"
          ],
          "data": "0x00000000000000000000000000000000000000000000000000000000000000010000000000000000000000000000000000000000000000878678326eac9000000000000000000000000000000000000000000000000000878678326eac900000",
          "blockHash": "0x77a1c2cf7c9c6f068514df26ec12de368ce969aa99b010082d60faffec781a82",
          "blockNumber": "0x63f7",
          "blockTimestamp": "0x69d0363d",
          "transactionHash": "0x865233fd3dc97948e0ba6f691cd3214a0e98fc92ba386bc6d74d3c96a90420df",
          "transactionIndex": "0x14",
          "logIndex": "0x2e",
          "removed": false
        }
      ],
      "logsBloom": "0x00000000000000000000000000000000000000000000000000000000000000000000000000000000000000000000000080000000000400000000000000002000000000000000000000000008000000000000000000000000000000000000000000000040020200000002000500000800000000000000000000000010000000000000000400000000000000000000000040000000000000000000000200000000000000000000000000000000000000000001000000000000000000080000000000000042000000200000000010000000000000002018040000000000000020000000000000000000000000000000000100000000000001000000080000000000",
      "type": "0x2",
      "transactionHash": "0x865233fd3dc97948e0ba6f691cd3214a0e98fc92ba386bc6d74d3c96a90420df",
      "transactionIndex": "0x14",
      "blockHash": "0x77a1c2cf7c9c6f068514df26ec12de368ce969aa99b010082d60faffec781a82",
      "blockNumber": "0x63f7",
      "gasUsed": "0x1de94",
      "effectiveGasPrice": "0x8",
      "blobGasPrice": "0x1",
      "from": "0xf39fd6e51aad88f6f4ce6ab8827279cfffb92266",
      "to": "0xc7cdb7a2e5dda1b7a0e792fe1ef08ed20a6f56d4",
      "contractAddress": null,
      "blockTimestamp": 1775253053
    },
    {
      "status": "0x1",
      "cumulativeGasUsed": "0x2910b1",
      "logs": [
        {
          "address": "0x5fbdb2315678afecb367f032d93f642f64180aa3",
          "topics": [
            "0xddf252ad1be2c89b69c2b068fc378daa952ba7f163c4a11628f55a4df523b3ef",
            "0x000000000000000000000000f39fd6e51aad88f6f4ce6ab8827279cfffb92266",
            "0x000000000000000000000000c7cdb7a2e5dda1b7a0e792fe1ef08ed20a6f56d4"
          ],
          "data": "0x0000000000000000000000000000000000000000000001969368974c05b00000",
          "blockHash": "0x77a1c2cf7c9c6f068514df26ec12de368ce969aa99b010082d60faffec781a82",
          "blockNumber": "0x63f7",
          "blockTimestamp": "0x69d0363d",
          "transactionHash": "0xaa0072e6890433ea7b19347a90b2c017b2c0dafeba2331f2b69373e9fed4d6e4",
          "transactionIndex": "0x15",
          "logIndex": "0x2f",
          "removed": false
        },
        {
          "address": "0x28f057dc79e3cb77b2bbf4358d7a690cfe21b2d5",
          "topics": [
            "0xc3d58168c5ae7397731d063d5bbf3d657854427343f4c083240f7aacaa2d0f62",
            "0x000000000000000000000000c7cdb7a2e5dda1b7a0e792fe1ef08ed20a6f56d4",
            "0x0000000000000000000000000000000000000000000000000000000000000000",
            "0x000000000000000000000000f39fd6e51aad88f6f4ce6ab8827279cfffb92266"
          ],
          "data": "0x000000000000000000000000000000000000000000000000000000000000000d0000000000000000000000000000000000000000000001969368974c05b00000",
          "blockHash": "0x77a1c2cf7c9c6f068514df26ec12de368ce969aa99b010082d60faffec781a82",
          "blockNumber": "0x63f7",
          "blockTimestamp": "0x69d0363d",
          "transactionHash": "0xaa0072e6890433ea7b19347a90b2c017b2c0dafeba2331f2b69373e9fed4d6e4",
          "transactionIndex": "0x15",
          "logIndex": "0x30",
          "removed": false
        },
        {
          "address": "0xc7cdb7a2e5dda1b7a0e792fe1ef08ed20a6f56d4",
          "topics": [
            "0x94b749af8a24a9e71a160cea1a268a96ec3299200f809d63344a0f668c0f0349",
            "0x0000000000000000000000000000000000000000000000000000000000000006",
            "0x000000000000000000000000f39fd6e51aad88f6f4ce6ab8827279cfffb92266"
          ],
          "data": "0x00000000000000000000000000000000000000000000000000000000000000000000000000000000000000000000000000000000000001969368974c05b000000000000000000000000000000000000000000000000001969368974c05b00000",
          "blockHash": "0x77a1c2cf7c9c6f068514df26ec12de368ce969aa99b010082d60faffec781a82",
          "blockNumber": "0x63f7",
          "blockTimestamp": "0x69d0363d",
          "transactionHash": "0xaa0072e6890433ea7b19347a90b2c017b2c0dafeba2331f2b69373e9fed4d6e4",
          "transactionIndex": "0x15",
          "logIndex": "0x31",
          "removed": false
        }
      ],
      "logsBloom": "0x00000000000000000000000000000000000000000000000000000000000000000000000000000000000000000000000080000000000400000000000000002000000000000000000000000008000000000000000000000000000000000000000000000040020200000002000500000800000000000000000000000010000000000000000400000000000000000000000040000000000000000000000200000000000000000000000000000000000000000001000000000000000000080000000000000042000000200000000010000000000000002018040000000000000020000000000000000000000000000000000100000000000001000000080000000000",
      "type": "0x2",
      "transactionHash": "0xaa0072e6890433ea7b19347a90b2c017b2c0dafeba2331f2b69373e9fed4d6e4",
      "transactionIndex": "0x15",
      "blockHash": "0x77a1c2cf7c9c6f068514df26ec12de368ce969aa99b010082d60faffec781a82",
      "blockNumber": "0x63f7",
      "gasUsed": "0x19bff",
      "effectiveGasPrice": "0x8",
      "blobGasPrice": "0x1",
      "from": "0xf39fd6e51aad88f6f4ce6ab8827279cfffb92266",
      "to": "0xc7cdb7a2e5dda1b7a0e792fe1ef08ed20a6f56d4",
      "contractAddress": null,
      "blockTimestamp": 1775253053
    },
    {
      "status": "0x1",
      "cumulativeGasUsed": "0x2b6aee",
      "logs": [
        {
          "address": "0xc7cdb7a2e5dda1b7a0e792fe1ef08ed20a6f56d4",
          "topics": [
            "0x57d0d124b72f81ed1da0dc728fc33db342705974792928796f6577b8db5c3d53",
            "0x0000000000000000000000000000000000000000000000000000000000000007"
          ],
          "data": "0x00000000000000000000000000000000000000000000000000000000000000600000000000000000000000000000000000000000000000000000000072bd0bff000000000000000000000000f39fd6e51aad88f6f4ce6ab8827279cfffb92266000000000000000000000000000000000000000000000000000000000000003157696c6c20537061636558206c61756e6368206120637265776564204d617273206d697373696f6e20627920323033303f000000000000000000000000000000",
          "blockHash": "0x77a1c2cf7c9c6f068514df26ec12de368ce969aa99b010082d60faffec781a82",
          "blockNumber": "0x63f7",
          "blockTimestamp": "0x69d0363d",
          "transactionHash": "0xdf6c1e57bebc817c3ac557fb04bffdce8e37cb0a77339928e5e1e0f0206d20f5",
          "transactionIndex": "0x16",
          "logIndex": "0x32",
          "removed": false
        }
      ],
      "logsBloom": "0x00000000000000000000000000000000000000000000000000000000000000000000000000000000000000000000000000001000000000000000000000000000000020000000000000000000000000000000000000000000000000000000000000000000000000000000000000000000000000000000000000000000000000000000000000000000800080000000000000000000000000000000000000000000000000000000000000000000000000000001000000000000000000000000000000000000000000000000000000000000000000000000040000000100000000000004000000000000000000000000000000000000000001000000000000000000",
      "type": "0x2",
      "transactionHash": "0xdf6c1e57bebc817c3ac557fb04bffdce8e37cb0a77339928e5e1e0f0206d20f5",
      "transactionIndex": "0x16",
      "blockHash": "0x77a1c2cf7c9c6f068514df26ec12de368ce969aa99b010082d60faffec781a82",
      "blockNumber": "0x63f7",
      "gasUsed": "0x25a3d",
      "effectiveGasPrice": "0x8",
      "blobGasPrice": "0x1",
      "from": "0xf39fd6e51aad88f6f4ce6ab8827279cfffb92266",
      "to": "0xc7cdb7a2e5dda1b7a0e792fe1ef08ed20a6f56d4",
      "contractAddress": null,
      "blockTimestamp": 1775253053
    },
    {
      "status": "0x1",
      "cumulativeGasUsed": "0x2d4982",
      "logs": [
        {
          "address": "0x5fbdb2315678afecb367f032d93f642f64180aa3",
          "topics": [
            "0xddf252ad1be2c89b69c2b068fc378daa952ba7f163c4a11628f55a4df523b3ef",
            "0x000000000000000000000000f39fd6e51aad88f6f4ce6ab8827279cfffb92266",
            "0x000000000000000000000000c7cdb7a2e5dda1b7a0e792fe1ef08ed20a6f56d4"
          ],
          "data": "0x0000000000000000000000000000000000000000000000410d586a20a4c00000",
          "blockHash": "0x77a1c2cf7c9c6f068514df26ec12de368ce969aa99b010082d60faffec781a82",
          "blockNumber": "0x63f7",
          "blockTimestamp": "0x69d0363d",
          "transactionHash": "0x1762bbc8796397736609bf379633ae0d75a480263fd784e200c8aaf23823a7c1",
          "transactionIndex": "0x17",
          "logIndex": "0x33",
          "removed": false
        },
        {
          "address": "0x28f057dc79e3cb77b2bbf4358d7a690cfe21b2d5",
          "topics": [
            "0xc3d58168c5ae7397731d063d5bbf3d657854427343f4c083240f7aacaa2d0f62",
            "0x000000000000000000000000c7cdb7a2e5dda1b7a0e792fe1ef08ed20a6f56d4",
            "0x0000000000000000000000000000000000000000000000000000000000000000",
            "0x000000000000000000000000f39fd6e51aad88f6f4ce6ab8827279cfffb92266"
          ],
          "data": "0x000000000000000000000000000000000000000000000000000000000000000e0000000000000000000000000000000000000000000000410d586a20a4c00000",
          "blockHash": "0x77a1c2cf7c9c6f068514df26ec12de368ce969aa99b010082d60faffec781a82",
          "blockNumber": "0x63f7",
          "blockTimestamp": "0x69d0363d",
          "transactionHash": "0x1762bbc8796397736609bf379633ae0d75a480263fd784e200c8aaf23823a7c1",
          "transactionIndex": "0x17",
          "logIndex": "0x34",
          "removed": false
        },
        {
          "address": "0xc7cdb7a2e5dda1b7a0e792fe1ef08ed20a6f56d4",
          "topics": [
            "0x94b749af8a24a9e71a160cea1a268a96ec3299200f809d63344a0f668c0f0349",
            "0x0000000000000000000000000000000000000000000000000000000000000007",
            "0x000000000000000000000000f39fd6e51aad88f6f4ce6ab8827279cfffb92266"
          ],
          "data": "0x00000000000000000000000000000000000000000000000000000000000000010000000000000000000000000000000000000000000000410d586a20a4c000000000000000000000000000000000000000000000000000410d586a20a4c00000",
          "blockHash": "0x77a1c2cf7c9c6f068514df26ec12de368ce969aa99b010082d60faffec781a82",
          "blockNumber": "0x63f7",
          "blockTimestamp": "0x69d0363d",
          "transactionHash": "0x1762bbc8796397736609bf379633ae0d75a480263fd784e200c8aaf23823a7c1",
          "transactionIndex": "0x17",
          "logIndex": "0x35",
          "removed": false
        }
      ],
      "logsBloom": "0x00000000000000000000000000000000000000000000000000000000000000000000000000000000000000000000000080001000000000000000000000002000000020000000000000000008000000000000000000000000000000000000000000000040020200000002000500000800000000000000000000000010000000000000000000000000000000000000000040000000000000000000000200000000000000000000000000000000000000000001000000000000000000000000000000000042000000200000000010000000000000002018040000000100000020000000000000000000000000000000000100000000000001000000080000000000",
      "type": "0x2",
      "transactionHash": "0x1762bbc8796397736609bf379633ae0d75a480263fd784e200c8aaf23823a7c1",
      "transactionIndex": "0x17",
      "blockHash": "0x77a1c2cf7c9c6f068514df26ec12de368ce969aa99b010082d60faffec781a82",
      "blockNumber": "0x63f7",
      "gasUsed": "0x1de94",
      "effectiveGasPrice": "0x8",
      "blobGasPrice": "0x1",
      "from": "0xf39fd6e51aad88f6f4ce6ab8827279cfffb92266",
      "to": "0xc7cdb7a2e5dda1b7a0e792fe1ef08ed20a6f56d4",
      "contractAddress": null,
      "blockTimestamp": 1775253053
    },
    {
      "status": "0x1",
      "cumulativeGasUsed": "0x2ee581",
      "logs": [
        {
          "address": "0x5fbdb2315678afecb367f032d93f642f64180aa3",
          "topics": [
            "0xddf252ad1be2c89b69c2b068fc378daa952ba7f163c4a11628f55a4df523b3ef",
            "0x000000000000000000000000f39fd6e51aad88f6f4ce6ab8827279cfffb92266",
            "0x000000000000000000000000c7cdb7a2e5dda1b7a0e792fe1ef08ed20a6f56d4"
          ],
          "data": "0x0000000000000000000000000000000000000000000001dd0c885f9a0d800000",
          "blockHash": "0x77a1c2cf7c9c6f068514df26ec12de368ce969aa99b010082d60faffec781a82",
          "blockNumber": "0x63f7",
          "blockTimestamp": "0x69d0363d",
          "transactionHash": "0x651b558b146c9fa5a0aa06430a0777cff6a9dd42a9dcbd899badbf582f6bbecd",
          "transactionIndex": "0x18",
          "logIndex": "0x36",
          "removed": false
        },
        {
          "address": "0x28f057dc79e3cb77b2bbf4358d7a690cfe21b2d5",
          "topics": [
            "0xc3d58168c5ae7397731d063d5bbf3d657854427343f4c083240f7aacaa2d0f62",
            "0x000000000000000000000000c7cdb7a2e5dda1b7a0e792fe1ef08ed20a6f56d4",
            "0x0000000000000000000000000000000000000000000000000000000000000000",
            "0x000000000000000000000000f39fd6e51aad88f6f4ce6ab8827279cfffb92266"
          ],
          "data": "0x000000000000000000000000000000000000000000000000000000000000000f0000000000000000000000000000000000000000000001dd0c885f9a0d800000",
          "blockHash": "0x77a1c2cf7c9c6f068514df26ec12de368ce969aa99b010082d60faffec781a82",
          "blockNumber": "0x63f7",
          "blockTimestamp": "0x69d0363d",
          "transactionHash": "0x651b558b146c9fa5a0aa06430a0777cff6a9dd42a9dcbd899badbf582f6bbecd",
          "transactionIndex": "0x18",
          "logIndex": "0x37",
          "removed": false
        },
        {
          "address": "0xc7cdb7a2e5dda1b7a0e792fe1ef08ed20a6f56d4",
          "topics": [
            "0x94b749af8a24a9e71a160cea1a268a96ec3299200f809d63344a0f668c0f0349",
            "0x0000000000000000000000000000000000000000000000000000000000000007",
            "0x000000000000000000000000f39fd6e51aad88f6f4ce6ab8827279cfffb92266"
          ],
          "data": "0x00000000000000000000000000000000000000000000000000000000000000000000000000000000000000000000000000000000000001dd0c885f9a0d8000000000000000000000000000000000000000000000000001dd0c885f9a0d800000",
          "blockHash": "0x77a1c2cf7c9c6f068514df26ec12de368ce969aa99b010082d60faffec781a82",
          "blockNumber": "0x63f7",
          "blockTimestamp": "0x69d0363d",
          "transactionHash": "0x651b558b146c9fa5a0aa06430a0777cff6a9dd42a9dcbd899badbf582f6bbecd",
          "transactionIndex": "0x18",
          "logIndex": "0x38",
          "removed": false
        }
      ],
      "logsBloom": "0x00000000000000000000000000000000000000000000000000000000000000000000000000000000000000000000000080001000000000000000000000002000000020000000000000000008000000000000000000000000000000000000000000000040020200000002000500000800000000000000000000000010000000000000000000000000000000000000000040000000000000000000000200000000000000000000000000000000000000000001000000000000000000000000000000000042000000200000000010000000000000002018040000000100000020000000000000000000000000000000000100000000000001000000080000000000",
      "type": "0x2",
      "transactionHash": "0x651b558b146c9fa5a0aa06430a0777cff6a9dd42a9dcbd899badbf582f6bbecd",
      "transactionIndex": "0x18",
      "blockHash": "0x77a1c2cf7c9c6f068514df26ec12de368ce969aa99b010082d60faffec781a82",
      "blockNumber": "0x63f7",
      "gasUsed": "0x19bff",
      "effectiveGasPrice": "0x8",
      "blobGasPrice": "0x1",
      "from": "0xf39fd6e51aad88f6f4ce6ab8827279cfffb92266",
      "to": "0xc7cdb7a2e5dda1b7a0e792fe1ef08ed20a6f56d4",
      "contractAddress": null,
      "blockTimestamp": 1775253053
    },
    {
      "status": "0x1",
      "cumulativeGasUsed": "0x31405a",
      "logs": [
        {
          "address": "0xc7cdb7a2e5dda1b7a0e792fe1ef08ed20a6f56d4",
          "topics": [
            "0x57d0d124b72f81ed1da0dc728fc33db342705974792928796f6577b8db5c3d53",
            "0x0000000000000000000000000000000000000000000000000000000000000008"
          ],
          "data": "0x0000000000000000000000000000000000000000000000000000000000000060000000000000000000000000000000000000000000000000000000006b36ec7f000000000000000000000000f39fd6e51aad88f6f4ce6ab8827279cfffb92266000000000000000000000000000000000000000000000000000000000000003e57696c6c20746865205553207061737320636f6d70726568656e7369766520737461626c65636f696e206c656769736c6174696f6e20696e20323032363f0000",
          "blockHash": "0x77a1c2cf7c9c6f068514df26ec12de368ce969aa99b010082d60faffec781a82",
          "blockNumber": "0x63f7",
          "blockTimestamp": "0x69d0363d",
          "transactionHash": "0x4b434d040529dea415b1be0c1ae78daf1a0a690a60e336ba926b0dac0825725b",
          "transactionIndex": "0x19",
          "logIndex": "0x39",
          "removed": false
        }
      ],
      "logsBloom": "0x00000000000000000000000000000000000000000000000000000000000000000000000000000000000000000000000000000000000080000000000000000000000000000000000000000000000000000000000000000000000000000000000000000000000000000000000000000000000000000000000000000000000000000080000000000000800080000000000000000000000000000000000000000000000000000000000000000000000000000001000000000000000000000000000040000000000000000000000000000000000000000000040000000000000000000004000000000000000000000000000000000000000001000000000000000000",
      "type": "0x2",
      "transactionHash": "0x4b434d040529dea415b1be0c1ae78daf1a0a690a60e336ba926b0dac0825725b",
      "transactionIndex": "0x19",
      "blockHash": "0x77a1c2cf7c9c6f068514df26ec12de368ce969aa99b010082d60faffec781a82",
      "blockNumber": "0x63f7",
      "gasUsed": "0x25ad9",
      "effectiveGasPrice": "0x8",
      "blobGasPrice": "0x1",
      "from": "0xf39fd6e51aad88f6f4ce6ab8827279cfffb92266",
      "to": "0xc7cdb7a2e5dda1b7a0e792fe1ef08ed20a6f56d4",
      "contractAddress": null,
      "blockTimestamp": 1775253053
    },
    {
      "status": "0x1",
      "cumulativeGasUsed": "0x331efa",
      "logs": [
        {
          "address": "0x5fbdb2315678afecb367f032d93f642f64180aa3",
          "topics": [
            "0xddf252ad1be2c89b69c2b068fc378daa952ba7f163c4a11628f55a4df523b3ef",
            "0x000000000000000000000000f39fd6e51aad88f6f4ce6ab8827279cfffb92266",
            "0x000000000000000000000000c7cdb7a2e5dda1b7a0e792fe1ef08ed20a6f56d4"
          ],
          "data": "0x000000000000000000000000000000000000000000000170a0f5040e50400000",
          "blockHash": "0x77a1c2cf7c9c6f068514df26ec12de368ce969aa99b010082d60faffec781a82",
          "blockNumber": "0x63f7",
          "blockTimestamp": "0x69d0363d",
          "transactionHash": "0x06542d3ab3e9b714ed346c8ca9f20fac7145bb063a38adb94866d8938faa815e",
          "transactionIndex": "0x1a",
          "logIndex": "0x3a",
          "removed": false
        },
        {
          "address": "0x28f057dc79e3cb77b2bbf4358d7a690cfe21b2d5",
          "topics": [
            "0xc3d58168c5ae7397731d063d5bbf3d657854427343f4c083240f7aacaa2d0f62",
            "0x000000000000000000000000c7cdb7a2e5dda1b7a0e792fe1ef08ed20a6f56d4",
            "0x0000000000000000000000000000000000000000000000000000000000000000",
            "0x000000000000000000000000f39fd6e51aad88f6f4ce6ab8827279cfffb92266"
          ],
          "data": "0x0000000000000000000000000000000000000000000000000000000000000010000000000000000000000000000000000000000000000170a0f5040e50400000",
          "blockHash": "0x77a1c2cf7c9c6f068514df26ec12de368ce969aa99b010082d60faffec781a82",
          "blockNumber": "0x63f7",
          "blockTimestamp": "0x69d0363d",
          "transactionHash": "0x06542d3ab3e9b714ed346c8ca9f20fac7145bb063a38adb94866d8938faa815e",
          "transactionIndex": "0x1a",
          "logIndex": "0x3b",
          "removed": false
        },
        {
          "address": "0xc7cdb7a2e5dda1b7a0e792fe1ef08ed20a6f56d4",
          "topics": [
            "0x94b749af8a24a9e71a160cea1a268a96ec3299200f809d63344a0f668c0f0349",
            "0x0000000000000000000000000000000000000000000000000000000000000008",
            "0x000000000000000000000000f39fd6e51aad88f6f4ce6ab8827279cfffb92266"
          ],
          "data": "0x0000000000000000000000000000000000000000000000000000000000000001000000000000000000000000000000000000000000000170a0f5040e50400000000000000000000000000000000000000000000000000170a0f5040e50400000",
          "blockHash": "0x77a1c2cf7c9c6f068514df26ec12de368ce969aa99b010082d60faffec781a82",
          "blockNumber": "0x63f7",
          "blockTimestamp": "0x69d0363d",
          "transactionHash": "0x06542d3ab3e9b714ed346c8ca9f20fac7145bb063a38adb94866d8938faa815e",
          "transactionIndex": "0x1a",
          "logIndex": "0x3c",
          "removed": false
        }
      ],
      "logsBloom": "0x00000000000000000000000000000000000000000000000000000000000000000000000000000000000000000000000080000000000080000000000000002000000000000000000000000008000000000000000000000000000000000000000000000040020200000002000500000800000000000000000000000010000000000080000000000000000000000000000040000000000000000000000200000000000000000000000000000000000000000001000000000000000000000000000040000042000000200000000010000000000000002018040000000000000020000000000000000000000000000000000100000000000001000000080000000000",
      "type": "0x2",
      "transactionHash": "0x06542d3ab3e9b714ed346c8ca9f20fac7145bb063a38adb94866d8938faa815e",
      "transactionIndex": "0x1a",
      "blockHash": "0x77a1c2cf7c9c6f068514df26ec12de368ce969aa99b010082d60faffec781a82",
      "blockNumber": "0x63f7",
      "gasUsed": "0x1dea0",
      "effectiveGasPrice": "0x8",
      "blobGasPrice": "0x1",
      "from": "0xf39fd6e51aad88f6f4ce6ab8827279cfffb92266",
      "to": "0xc7cdb7a2e5dda1b7a0e792fe1ef08ed20a6f56d4",
      "contractAddress": null,
      "blockTimestamp": 1775253053
    },
    {
      "status": "0x1",
      "cumulativeGasUsed": "0x34bae1",
      "logs": [
        {
          "address": "0x5fbdb2315678afecb367f032d93f642f64180aa3",
          "topics": [
            "0xddf252ad1be2c89b69c2b068fc378daa952ba7f163c4a11628f55a4df523b3ef",
            "0x000000000000000000000000f39fd6e51aad88f6f4ce6ab8827279cfffb92266",
            "0x000000000000000000000000c7cdb7a2e5dda1b7a0e792fe1ef08ed20a6f56d4"
          ],
          "data": "0x0000000000000000000000000000000000000000000000ad78ebc5ac62000000",
          "blockHash": "0x77a1c2cf7c9c6f068514df26ec12de368ce969aa99b010082d60faffec781a82",
          "blockNumber": "0x63f7",
          "blockTimestamp": "0x69d0363d",
          "transactionHash": "0xaf20b5d939fece37308f2941b0f0ae3ab030fa0249b792fc3223cba3458bb2be",
          "transactionIndex": "0x1b",
          "logIndex": "0x3d",
          "removed": false
        },
        {
          "address": "0x28f057dc79e3cb77b2bbf4358d7a690cfe21b2d5",
          "topics": [
            "0xc3d58168c5ae7397731d063d5bbf3d657854427343f4c083240f7aacaa2d0f62",
            "0x000000000000000000000000c7cdb7a2e5dda1b7a0e792fe1ef08ed20a6f56d4",
            "0x0000000000000000000000000000000000000000000000000000000000000000",
            "0x000000000000000000000000f39fd6e51aad88f6f4ce6ab8827279cfffb92266"
          ],
          "data": "0x00000000000000000000000000000000000000000000000000000000000000110000000000000000000000000000000000000000000000ad78ebc5ac62000000",
          "blockHash": "0x77a1c2cf7c9c6f068514df26ec12de368ce969aa99b010082d60faffec781a82",
          "blockNumber": "0x63f7",
          "blockTimestamp": "0x69d0363d",
          "transactionHash": "0xaf20b5d939fece37308f2941b0f0ae3ab030fa0249b792fc3223cba3458bb2be",
          "transactionIndex": "0x1b",
          "logIndex": "0x3e",
          "removed": false
        },
        {
          "address": "0xc7cdb7a2e5dda1b7a0e792fe1ef08ed20a6f56d4",
          "topics": [
            "0x94b749af8a24a9e71a160cea1a268a96ec3299200f809d63344a0f668c0f0349",
            "0x0000000000000000000000000000000000000000000000000000000000000008",
            "0x000000000000000000000000f39fd6e51aad88f6f4ce6ab8827279cfffb92266"
          ],
          "data": "0x00000000000000000000000000000000000000000000000000000000000000000000000000000000000000000000000000000000000000ad78ebc5ac620000000000000000000000000000000000000000000000000000ad78ebc5ac62000000",
          "blockHash": "0x77a1c2cf7c9c6f068514df26ec12de368ce969aa99b010082d60faffec781a82",
          "blockNumber": "0x63f7",
          "blockTimestamp": "0x69d0363d",
          "transactionHash": "0xaf20b5d939fece37308f2941b0f0ae3ab030fa0249b792fc3223cba3458bb2be",
          "transactionIndex": "0x1b",
          "logIndex": "0x3f",
          "removed": false
        }
      ],
      "logsBloom": "0x00000000000000000000000000000000000000000000000000000000000000000000000000000000000000000000000080000000000080000000000000002000000000000000000000000008000000000000000000000000000000000000000000000040020200000002000500000800000000000000000000000010000000000080000000000000000000000000000040000000000000000000000200000000000000000000000000000000000000000001000000000000000000000000000040000042000000200000000010000000000000002018040000000000000020000000000000000000000000000000000100000000000001000000080000000000",
      "type": "0x2",
      "transactionHash": "0xaf20b5d939fece37308f2941b0f0ae3ab030fa0249b792fc3223cba3458bb2be",
      "transactionIndex": "0x1b",
      "blockHash": "0x77a1c2cf7c9c6f068514df26ec12de368ce969aa99b010082d60faffec781a82",
      "blockNumber": "0x63f7",
      "gasUsed": "0x19be7",
      "effectiveGasPrice": "0x8",
      "blobGasPrice": "0x1",
      "from": "0xf39fd6e51aad88f6f4ce6ab8827279cfffb92266",
      "to": "0xc7cdb7a2e5dda1b7a0e792fe1ef08ed20a6f56d4",
      "contractAddress": null,
      "blockTimestamp": 1775253053
    },
    {
      "status": "0x1",
      "cumulativeGasUsed": "0x371536",
      "logs": [
        {
          "address": "0xc7cdb7a2e5dda1b7a0e792fe1ef08ed20a6f56d4",
          "topics": [
            "0x57d0d124b72f81ed1da0dc728fc33db342705974792928796f6577b8db5c3d53",
            "0x0000000000000000000000000000000000000000000000000000000000000009"
          ],
          "data": "0x0000000000000000000000000000000000000000000000000000000000000060000000000000000000000000000000000000000000000000000000006b36ec7f000000000000000000000000f39fd6e51aad88f6f4ce6ab8827279cfffb92266000000000000000000000000000000000000000000000000000000000000003357696c6c204e56494449412073757270617373202435207472696c6c696f6e206d61726b65742063617020696e20323032363f00000000000000000000000000",
          "blockHash": "0x77a1c2cf7c9c6f068514df26ec12de368ce969aa99b010082d60faffec781a82",
          "blockNumber": "0x63f7",
          "blockTimestamp": "0x69d0363d",
          "transactionHash": "0x8f75582b6705231e13973243ab5e1c6a8f842fc2c4da370e3a214e91d3532fb1",
          "transactionIndex": "0x1c",
          "logIndex": "0x40",
          "removed": false
        }
      ],
      "logsBloom": "0x00000000000000000000000000000000000000000000000000000000000000000000000000000000000000000000000000000000000000000000000000200000000000000000000000000000000000000000000000000000000000000000000000000000000000000000000000000000000000000000000000000000000000000000000000000000800080000000000000001000000000000000000000000000000000000000000000000000000000000001000000000000000000000000000000000000000000000000000000000000000000000000040000000000000000000004000000000000000000000000000000000000000001000000000000800000",
      "type": "0x2",
      "transactionHash": "0x8f75582b6705231e13973243ab5e1c6a8f842fc2c4da370e3a214e91d3532fb1",
      "transactionIndex": "0x1c",
      "blockHash": "0x77a1c2cf7c9c6f068514df26ec12de368ce969aa99b010082d60faffec781a82",
      "blockNumber": "0x63f7",
      "gasUsed": "0x25a55",
      "effectiveGasPrice": "0x8",
      "blobGasPrice": "0x1",
      "from": "0xf39fd6e51aad88f6f4ce6ab8827279cfffb92266",
      "to": "0xc7cdb7a2e5dda1b7a0e792fe1ef08ed20a6f56d4",
      "contractAddress": null,
      "blockTimestamp": 1775253053
    },
    {
      "status": "0x1",
      "cumulativeGasUsed": "0x38f3ca",
      "logs": [
        {
          "address": "0x5fbdb2315678afecb367f032d93f642f64180aa3",
          "topics": [
            "0xddf252ad1be2c89b69c2b068fc378daa952ba7f163c4a11628f55a4df523b3ef",
            "0x000000000000000000000000f39fd6e51aad88f6f4ce6ab8827279cfffb92266",
            "0x000000000000000000000000c7cdb7a2e5dda1b7a0e792fe1ef08ed20a6f56d4"
          ],
          "data": "0x0000000000000000000000000000000000000000000000f3f20b8dfa69d00000",
          "blockHash": "0x77a1c2cf7c9c6f068514df26ec12de368ce969aa99b010082d60faffec781a82",
          "blockNumber": "0x63f7",
          "blockTimestamp": "0x69d0363d",
          "transactionHash": "0xa36412343c4634586dfca7d0dca1125e0ea04f8c71e99b5cdb6bc45744c3c8b7",
          "transactionIndex": "0x1d",
          "logIndex": "0x41",
          "removed": false
        },
        {
          "address": "0x28f057dc79e3cb77b2bbf4358d7a690cfe21b2d5",
          "topics": [
            "0xc3d58168c5ae7397731d063d5bbf3d657854427343f4c083240f7aacaa2d0f62",
            "0x000000000000000000000000c7cdb7a2e5dda1b7a0e792fe1ef08ed20a6f56d4",
            "0x0000000000000000000000000000000000000000000000000000000000000000",
            "0x000000000000000000000000f39fd6e51aad88f6f4ce6ab8827279cfffb92266"
          ],
          "data": "0x00000000000000000000000000000000000000000000000000000000000000120000000000000000000000000000000000000000000000f3f20b8dfa69d00000",
          "blockHash": "0x77a1c2cf7c9c6f068514df26ec12de368ce969aa99b010082d60faffec781a82",
          "blockNumber": "0x63f7",
          "blockTimestamp": "0x69d0363d",
          "transactionHash": "0xa36412343c4634586dfca7d0dca1125e0ea04f8c71e99b5cdb6bc45744c3c8b7",
          "transactionIndex": "0x1d",
          "logIndex": "0x42",
          "removed": false
        },
        {
          "address": "0xc7cdb7a2e5dda1b7a0e792fe1ef08ed20a6f56d4",
          "topics": [
            "0x94b749af8a24a9e71a160cea1a268a96ec3299200f809d63344a0f668c0f0349",
            "0x0000000000000000000000000000000000000000000000000000000000000009",
            "0x000000000000000000000000f39fd6e51aad88f6f4ce6ab8827279cfffb92266"
          ],
          "data": "0x00000000000000000000000000000000000000000000000000000000000000010000000000000000000000000000000000000000000000f3f20b8dfa69d000000000000000000000000000000000000000000000000000f3f20b8dfa69d00000",
          "blockHash": "0x77a1c2cf7c9c6f068514df26ec12de368ce969aa99b010082d60faffec781a82",
          "blockNumber": "0x63f7",
          "blockTimestamp": "0x69d0363d",
          "transactionHash": "0xa36412343c4634586dfca7d0dca1125e0ea04f8c71e99b5cdb6bc45744c3c8b7",
          "transactionIndex": "0x1d",
          "logIndex": "0x43",
          "removed": false
        }
      ],
      "logsBloom": "0x00000000000000000000000000000000000000000000000000000000000000000000000000000000000000000000000080000000000000000000000000202000000000000000000000000008000000000000000000000000000000000000000000000040020200000002000500000800000000000000000000000010000000000000000000000000000000000000000040001000000000000000000200000000000000000000000000000000000000000001000000000000000000000000000000000042000000200000000010000000000000002018040000000000000020000000000000000000000000000000000100000000000001000000080000800000",
      "type": "0x2",
      "transactionHash": "0xa36412343c4634586dfca7d0dca1125e0ea04f8c71e99b5cdb6bc45744c3c8b7",
      "transactionIndex": "0x1d",
      "blockHash": "0x77a1c2cf7c9c6f068514df26ec12de368ce969aa99b010082d60faffec781a82",
      "blockNumber": "0x63f7",
      "gasUsed": "0x1de94",
      "effectiveGasPrice": "0x8",
      "blobGasPrice": "0x1",
      "from": "0xf39fd6e51aad88f6f4ce6ab8827279cfffb92266",
      "to": "0xc7cdb7a2e5dda1b7a0e792fe1ef08ed20a6f56d4",
      "contractAddress": null,
      "blockTimestamp": 1775253053
    },
    {
      "status": "0x1",
      "cumulativeGasUsed": "0x3a8fc9",
      "logs": [
        {
          "address": "0x5fbdb2315678afecb367f032d93f642f64180aa3",
          "topics": [
            "0xddf252ad1be2c89b69c2b068fc378daa952ba7f163c4a11628f55a4df523b3ef",
            "0x000000000000000000000000f39fd6e51aad88f6f4ce6ab8827279cfffb92266",
            "0x000000000000000000000000c7cdb7a2e5dda1b7a0e792fe1ef08ed20a6f56d4"
          ],
          "data": "0x00000000000000000000000000000000000000000000012a27d53bc048700000",
          "blockHash": "0x77a1c2cf7c9c6f068514df26ec12de368ce969aa99b010082d60faffec781a82",
          "blockNumber": "0x63f7",
          "blockTimestamp": "0x69d0363d",
          "transactionHash": "0xe7b879c1f8c102f1ced39e293a6c6787aad0368c7e4eb33222d2577afdf74395",
          "transactionIndex": "0x1e",
          "logIndex": "0x44",
          "removed": false
        },
        {
          "address": "0x28f057dc79e3cb77b2bbf4358d7a690cfe21b2d5",
          "topics": [
            "0xc3d58168c5ae7397731d063d5bbf3d657854427343f4c083240f7aacaa2d0f62",
            "0x000000000000000000000000c7cdb7a2e5dda1b7a0e792fe1ef08ed20a6f56d4",
            "0x0000000000000000000000000000000000000000000000000000000000000000",
            "0x000000000000000000000000f39fd6e51aad88f6f4ce6ab8827279cfffb92266"
          ],
          "data": "0x000000000000000000000000000000000000000000000000000000000000001300000000000000000000000000000000000000000000012a27d53bc048700000",
          "blockHash": "0x77a1c2cf7c9c6f068514df26ec12de368ce969aa99b010082d60faffec781a82",
          "blockNumber": "0x63f7",
          "blockTimestamp": "0x69d0363d",
          "transactionHash": "0xe7b879c1f8c102f1ced39e293a6c6787aad0368c7e4eb33222d2577afdf74395",
          "transactionIndex": "0x1e",
          "logIndex": "0x45",
          "removed": false
        },
        {
          "address": "0xc7cdb7a2e5dda1b7a0e792fe1ef08ed20a6f56d4",
          "topics": [
            "0x94b749af8a24a9e71a160cea1a268a96ec3299200f809d63344a0f668c0f0349",
            "0x0000000000000000000000000000000000000000000000000000000000000009",
            "0x000000000000000000000000f39fd6e51aad88f6f4ce6ab8827279cfffb92266"
          ],
          "data": "0x000000000000000000000000000000000000000000000000000000000000000000000000000000000000000000000000000000000000012a27d53bc04870000000000000000000000000000000000000000000000000012a27d53bc048700000",
          "blockHash": "0x77a1c2cf7c9c6f068514df26ec12de368ce969aa99b010082d60faffec781a82",
          "blockNumber": "0x63f7",
          "blockTimestamp": "0x69d0363d",
          "transactionHash": "0xe7b879c1f8c102f1ced39e293a6c6787aad0368c7e4eb33222d2577afdf74395",
          "transactionIndex": "0x1e",
          "logIndex": "0x46",
          "removed": false
        }
      ],
      "logsBloom": "0x00000000000000000000000000000000000000000000000000000000000000000000000000000000000000000000000080000000000000000000000000202000000000000000000000000008000000000000000000000000000000000000000000000040020200000002000500000800000000000000000000000010000000000000000000000000000000000000000040001000000000000000000200000000000000000000000000000000000000000001000000000000000000000000000000000042000000200000000010000000000000002018040000000000000020000000000000000000000000000000000100000000000001000000080000800000",
      "type": "0x2",
      "transactionHash": "0xe7b879c1f8c102f1ced39e293a6c6787aad0368c7e4eb33222d2577afdf74395",
      "transactionIndex": "0x1e",
      "blockHash": "0x77a1c2cf7c9c6f068514df26ec12de368ce969aa99b010082d60faffec781a82",
      "blockNumber": "0x63f7",
      "gasUsed": "0x19bff",
      "effectiveGasPrice": "0x8",
      "blobGasPrice": "0x1",
      "from": "0xf39fd6e51aad88f6f4ce6ab8827279cfffb92266",
      "to": "0xc7cdb7a2e5dda1b7a0e792fe1ef08ed20a6f56d4",
      "contractAddress": null,
      "blockTimestamp": 1775253053
    }
  ],
  "libraries": [],
  "pending": [],
  "returns": {},
  "timestamp": 1775253053302,
  "chain": 42069,
  "commit": "1aa1954"
}